:020000040800F2
:1000000070FA00205902000861020008630200082B
:10001000650200086702000869020008000000008D
:10002000000000000000000000000000A90100081E
:100030006D02000800000000ED010008555E000898
:1000400073020008730200087302000873020008BC
:1000500073020008730200087302000873020008AC
:10006000730200087302000873020008730200089C
:10007000A51A000873020008730200087302000842
:10008000730200087302000873020008730200087C
:10009000730200087302000873020008730200086C
:1000A000730200087302000873020008730200085C
:1000B0007302000873020008515F00087302000811
:1000C000730200087302000873020008730200083C
:1000D0007302000873020008FD6B00087302000839
:1000E000730200087302000873020008730200081C
:1000F000730200087302000873020008730200080C
:1001000073020008000000000000000073020008F5
:1001100073020008730200087302000873020008EB
:1001200073020008730200087302000873020008DB
:1001300073020008730200080000000000000000C5
:100140007302000873020008730200080000000038
:10015000000000000000000000000000000000009F
:10016000730200087302000873020008730200089B
:10017000730200087302000873020008730200088B
:100180007302000873020008000000000000000075
:1001900073020008DFF80CD000F066FB004800474F
:1001A000818C000870FA0020234B19680868B0E8B9
:1001B000F04F80F309884FF0000080F311887047FA
:1001C0000000000003480068006880F3088862B6F9
:1001D00000DF00BF08ED00E0DFF80C00016841F42B
:1001E00070010160704700BF88ED00E0EFF3098007
:1001F000114B1A681EF0100F08BF20ED108A20E97D
:10020000F04F106008B44FF0500080F311880AF0EE
:100210006DFB4FF0000080F3118808BC1968086876
:10022000B0E8F04F1EF0100F08BFB0EC108A80F35A
:100230000988704700BF00BF98000020EFF31180CD
:100240004FF0500181F31188704780F31188704797
:10025000EFF30580704700000648804706480047D6
:10026000FEE7FEE7FEE7FEE7FEE7FEE7FEE7FEE766
:10027000FEE7FEE7E95E00089501000840EA010399
:100280009B0703D009E008C9121F08C0042AFAD24C
:1002900003E011F8013B00F8013B521EF9D2704710
:1002A000D2B201E000F8012B491EFBD270470022B8
:1002B000F6E710B513460A4604461946FFF7F0FF65
:1002C000204610BD2DE9FE4F81EA030404F00044EE
:1002D00021F0004100944FF0000B23F0004350EA5E
:1002E00001045ED052EA03045BD0C3F30A54C1F3A5
:1002F0000A552C44A4F2F3340194A0FB0254C1F338
:10030000130141F48011C3F3130343F4801301FB81
:10031000024400FB034E840A970A44EA815447EAE8
:100320008357A4FB076802958D0A05FB07854FEAF2
:10033000932C04FB0C542705029D4FEA065847EA0C
:100340001637B5EB08056EEB070C870E920E47EAE1
:10035000811742EA8312A7FB0201B6EB0B0164EBA3
:1003600000042B0D43EA0C335E1844EB1C50DA46B4
:100370005146E7FB0201C5F313044FEA0B3343EA8E
:1003800014534FEA0432019C43EA0603A4F10C041F
:100390000294009CCDE900B400F042F903B0BDE83E
:1003A000F08F00200146F9E72DE9F04D81EA0304C2
:1003B00004F0004B21F0004514464FF0000A23F0F2
:1003C000004150EA050220D054EA01021DD0C5F3D5
:1003D0000A570246C5F31303C1F31300C1F30A56CB
:1003E00040F4801543F48013A7EB0608101BD64693
:1003F00008F2FD3873EB050002D308F1010801E0B3
:1004000092185B41B8F1000F03DA00200146BDE805
:10041000F08D00204FF48011064684460EE0171B35
:1004200073EB050705D3121B63EB050306434CEA88
:10043000010C49084FEA300092185B4150EA01076D
:10044000EDD152EA030012D082EA040083EA0501EA
:10045000084305D0101BAB4106D20122002306E061
:1004600000224FF0004302E06FF0010253101AEB3C
:1004700006004CEB085110EB0A0041EB0B01BDE804
:10048000F04D00F0BEB80EB5C10F80EAE070084430
:10049000CA07002140F233438DE80E000A460B469E
:1004A00000F0BEF803B000BD0EB540F2334102913A
:1004B0000021CDE900110A460B4600F0B1F803B067
:1004C00000BDC1F30A5210B5C1F3130140F2FF336E
:1004D00041F480119A4201DA002010BD40F233430A
:1004E0009A42A2F2334203DC524200F07AF810BD85
:1004F000904010BD30B5041E71F1000404DB4FF0D4
:100500000044404264EB0101141E73F1000405DB5A
:100510001C464FF00043524263EB04038B4208BF7A
:10052000824230BD30B5041E71F1000404DB4FF08F
:100530000044404264EB0101141E73F1000405DB2A
:100540001C464FF00043524263EB0403994208BF3C
:10055000904230BD30B50B460146002020220124D8
:1005600009E021FA02F59D4205D303FA02F5491B81
:1005700004FA02F52844151EA2F10102F1DC30BD97
:100580002DE9F05F0546002092469B4688460646C8
:10059000814640241BE0284641464746224600F05B
:1005A00020F853465A46C01A914110D311461846B6
:1005B000224600F06BF92D1A67EB01084F462246E0
:1005C0000120002100F062F917EB00094E41201EC6
:1005D000A4F10104DFDC484631462A464346BDE823
:1005E000F09F202A04DB203A21FA02F00021704714
:1005F00021FA02F3D040C2F120029140084319468B
:10060000704710B5141E73F1000408DA401C41F164
:10061000000192185B411A4301D120F0010010BD86
:100620002DE9F04D92469B4611B1B1FA81F202E0FC
:10063000B0FA80F22032904600F028F904460F46C6
:1006400040EA0A0041EA0B0153465A46084313D0D8
:10065000114653EA010019D0C8F140025046FFF795
:10066000C0FF05460E4650465946424600F00EF978
:10067000084305D0012004E020463946BDE8F08D4E
:100680000020054346EAE0762C4337430A98630589
:10069000E40AA0EB08000022FD0A44EA47540A30AD
:1006A00002D500200146E9E7010510196941DDE99D
:1006B000084500196941BDE8F04DA2E72DE9FE4F5C
:1006C000804681EA0300C00F0C46009021F00041F3
:1006D00023F00045B8EB0200A94105D2404621466F
:1006E00090461C460B46024623F00040104347D07C
:1006F000270DC7F30A00C3F30A510290401A019074
:1007000040286BDAC3F3130040F4801B0098924634
:1007100020B10023D2EB030A63EB0B0B019859467F
:10072000C0F14002504600F0B1F806460D46504672
:100730005946019A00F0B9F810EB08006141002415
:1007400087EA115284EAE7731A4340D0009A62B3F1
:10075000019A012A4FEA075215DC001B61EB0201E6
:100760004FF0004202EA0752CDE90042001C41F579
:10077000801132462B46FFF753FF03B0BDE8F08FE0
:1007800040462146F9E7001B61EB0201001C41F5E0
:10079000801300185B412018A2F5001747EB0301F6
:1007A00040EAD570B6196D4111E06D084FEA360682
:1007B00045EAC0754FEA0752001B61EB0201001CBD
:1007C00041F5801149084FEA300000195141324685
:1007D0002B4603B0BDE8F04FFFF713BF009801228E
:1007E00040000023D0EB020263EBE0730098214647
:1007F0004FEAE074B8EB000061EB0401E9E783F035
:1008000000435BE781F0004158E770B521F00043F9
:1008100003430CD0C1F30A550024D5EB040564EB67
:100820000403D617AD1AB34102DB0020014670BDA8
:10083000201841EB025170BDC1F30A52C1F31301FC
:1008400040F2FF3341F480119A4202DA002001465F
:10085000704740F233439A42A2F2334202DC5242E2
:10086000FFF7BFBE00F012B8064C074D06E0E06887
:1008700040F0010394E8070098471034AC42F6D3E7
:10088000FFF78CFCF0B9000810BA0008202A04DB3E
:10089000203A00FA02F1002070479140C2F1200393
:1008A00020FA03F3194390407047202A06DBCB1748
:1008B000203A41FA02F043EAE07306E041FA02F31B
:1008C000D040C2F1200291400843194670472DE9FB
:1008D000F04D00231A461B1A8A4103DB0020014613
:1008E000BDE8F08DC1F30A52C1F3130141F4801544
:1008F0004FF0000BD10702D100186D41521E0027A6
:10090000044640F2FF11384601EB620A3E4680463B
:10091000024600204FF48011FFF763FEC2197141B7
:10092000BB1846EB0100B4EB030C75EB000C04D3D1
:10093000E41A65EB000517460E46241908F101007C
:100940006D4180463428E3DDF91946EB0600091BAA
:10095000A84103D24FF0FF32134601E000221346B4
:100960001BEB070046EB0A51BDE8F04DFFF749BE0F
:1009700070B58C1810F8015B15F0070301D110F861
:10098000013B2A1106D110F8012B03E010F8016B8E
:1009900001F8016B5B1EF9D12B0705D40023521E11
:1009A0000DD401F8013BFAE710F8013BCB1A921C79
:1009B00003E013F8015B01F8015B521EF9D5A14277
:1009C000D8D3002070BD000070B504460020226816
:1009D000936813F00C0F5ED0D36813F0007F05D03E
:1009E000E369012B04BFA369012B0BD0602922D03E
:1009F0002068826812F0040F1BD0826812F0020F88
:100A000013D016E013680C2113F0400F08BF234BDE
:100A100008D101E0984230D2D2F800C0401C1CF04E
:100A2000400FF7D040201060E2E7826842F01002E9
:100A300082600C2914D02068826812F0080F07D059
:100A4000826812F0020F03D1826842F020028260B5
:100A5000602908BF082504D06C2908BF0C2500D0E8
:100A6000042502F03FFD064620688068284212D027
:100A700002F038FD801B0B2809D9606C40F0100093
:100A80006064A06C40F00100A064012070BD20688B
:100A900080682842ECD1002070BD0000009409005D
:100AA0000246406A416C11F0500F03D0C06B016BDD
:100AB00010460847416C41F4007141640168C968FF
:100AC00011F4406F04BFC16900290BD1416C21F4BE
:100AD00080714164416C11F4805F03D1416C41F03D
:100AE0000101416401F02CBB406A416C41F04001BE
:100AF0004164816C41F00401816401F00DBC406AE5
:100B000001F01FBB70B52C4C96B015460E4630B1A7
:100B1000012812D0022821D0032830D03FE04422FF
:100B200025496846FFF7AAFB606C1190A06C1290F3
:100B3000E06C216D1390149131E044221F49684606
:100B4000FFF79CFB1D48416C1191806C1290D4F80A
:100B5000A000D4F8A4101390149120E04422184966
:100B60006846FFF78BFB1648416C1191806C129020
:100B7000D4F8F400D4F8F810139014910FE0442244
:100B800010496846FFF77AFB0E48416C1191806C62
:100B90001290D4F84801D4F84C1113901491002EFF
:100BA00012BF002D16B070BD2A463146684601F0CE
:100BB00071FE16B070BD000060040020B404002077
:100BC000080500205C05002010B50F4801F00CFF5F
:100BD0000E4801F009FF0E4801F006FF0D4801F034
:100BE00003FF0021084801F07DF80021074801F0CB
:100BF00079F80021064801F075F8BDE810400021A1
:100C0000044801F06FB8000060040020B404002024
:100C1000080500205C05002070B504460068816866
:100C200001F0030101292BD1016811F0010F27D038
:100C3000816801F00D01012913D1816841F00201A1
:100C4000816021680320086002F04CFC05462068A2
:100C5000806810F0010F13D002F044FC401B022802
:100C600009D9606C40F010006064A06C40F0010095
:100C7000A064012070BD2068806810F0010FEBD1E6
:100C8000002070BD70B504460068816801F0030162
:100C9000012903D1016811F0010F23D181686FF39D
:100CA0009E1181B9816841F00101816002F01AFC56
:100CB00005462068006810F0010F13D102F012FC05
:100CC000401B022809D9606C40F010006064A06CE1
:100CD00040F00100A064012070BD2068006810F0A1
:100CE000010FEBD0002070BD70B5214C0646A06806
:100CF000002808BF0C250AD0082808BF0A2506D0FE
:100D0000102808BF082502D0182808BF062503F0C0
:100D100047F9B0FBF6F0401B401EB0F5167F88BFC8
:100D2000072017D8B52828BF062013D23D2828BF92
:100D300005200FD2132828BF04200BD2072828BF74
:100D4000032007D2042828BF022003D202282CBF88
:100D500001200020E060074801F046FE04F046FB59
:100D600004F07CFB04F0B2FBBDE8704004F0E6BB8D
:100D70000C0000206004002030B5304D00212DED26
:100D8000048B81B06A46E8680AF0BCF92C4C94F8F0
:100D9000B803012840D105F077F984F8A003B4F82E
:100DA0009803B4F89A13401C491C4843FFF76BFBA7
:100DB00041EC180B23480068FFF776FB53EC182B27
:100DC000FFF7F2FA41EC180B94F8A003FFF76CFB65
:100DD00041EC190BD4F8A403FFF766FB53EC182B76
:100DE000FFF770FA53EC192BFFF76CFA41EC100B7C
:100DF00084EDEC0B94EDEC0B05F05CF994F8C0037A
:100E000050B9B4F89C03A4F89803B4F89E03A4F86E
:100E10009A03012084F8C00300236A461946E86853
:100E20000AF0E2F80C4800236A4607A100680AF0BD
:100E3000DBF801B0BDEC048B30BD0000A401002044
:100E4000A8F20020040000204745747244617461D8
:100E500053656E6400000000F800002010B500210A
:100E6000084800F03FFF0021074800F03BFF002149
:100E7000064800F037FFBDE810400021044800F0AC
:100E800031BF000060040020B404002008050020E9
:100E90005C0500208AB000221421052009F0FCFD29
:100EA0006B4DDFF8B081DFF8B091DFF8B0B1DFF85B
:100EB000B0A16C4E6C4F6D4C286000235A1E01A9E6
:100EC000286809F026FE9DF804003128F5D100BFFE
:100ED0009DF819008DF818009DF81A008DF819007A
:100EE0009DF81B008DF81A009DF800008DF81B007E
:100EF000684607F0C7FA0028DFD19DF800003A28BD
:100F000018BF3B28E4D19DF81800DDF8191040EA1D
:100F10000120A0EB080140457CD013DC10EB090058
:100F200039D010EB0B012ED05148081836D051495A
:100F3000C84217D152480A1500234FA1006809F092
:100F400011FFBAE711EB0A0051D0A0F18371B1F59E
:100F500021612BD04B48081871D0A0F6FC00B0F5E9
:100F6000C02F6FD0464800235A1E47A1006809F0E1
:100F7000F9FE684607F086FA00289ED19DF8000029
:100F80003B28F6D199E73E4800235A1E40A100684D
:100F900009F0E8FE91E708F033FE8EE738480023B9
:100FA0005A1E3DA1006809F0DDFE86E7052108A86C
:100FB00007F08AFA04280CD39DF82000DDF82110F0
:100FC00040EA0120801909D0F84218BF01203BD126
:100FD0000BE0002818BF354807D0F5E72848002364
:100FE0005A1E3349006809F0BDFE20462CE0052159
:100FF00008A807F069FA04280DD39DF82000DDF851
:10100000211040EA012080190AD0F84218BF0220BE
:101010001AD1EAE70CE0002818BF2448E5D0F4E72D
:10102000174800235A1E2349006809F09BFEDCE79D
:1010300008F0B6F908F0DAFC3FE700E002E008F05B
:1010400043F801E007F012FF08F0D0FC35E700009C
:10105000F40000204F534350AEBAACDE090105E264
:101060000C04F6FCBDB9B8C0FEF702E0454E445F83
:10107000F3FEFBFF03FDF2FF43736869656C6400D8
:10108000F80000200C1405F545393939000000003E
:10109000305F49444E0000003953656E64537973E4
:1010A0007456657273696F6E00000000020C0B20AD
:1010B000D4990008548E00089AB004F02FFCFC4923
:1010C000002501F500702A4601604FF4007181800F
:1010D000C580058185721E21052009F0DDFCF54CD7
:1010E0002060042009F0B0FCF3A160600FC90DF18D
:1010F000280C8CE80F00F4A0D0E90012806816914B
:10110000CDE91720EB4C00235A1E02A9206809F0F4
:1011100000FD4FF0FF3160680AF03BF89DF80800D1
:10112000302837D0312844D0322808BF002000F0C2
:101130000581472800F01B814C2800F06E81332880
:1011400000F09981342800F0A381352800F01C823A
:10115000442800F05482422800F05682432800F0D0
:101160009D82362800F0A182372808BFD9A000F060
:101170002381382808BFD9A000F01E81392800F04B
:10118000CC82492800F0028341280CBFD5A002A8D8
:1011900000F012B9D3A007F028FAD4A007F025FA7E
:1011A00007F068FD002818BFD5A040F0058100F0C9
:1011B000E8BA07F053FD042840F0E38207F03CFD55
:1011C000054607F045FD044607F0FAFC064600F028
:1011D00083FD824608F030FD010E8DF82C10010CC5
:1011E0008DF82D10010A8DF82E108DF82F00082E85
:1011F00013D907F039FD804607F02AFD074607F0AE
:1012000021FD7843A8EB104005EB4000B0FBF5F161
:1012100005FB11006400009011E007F025FD074672
:1012200007F016FD804607F00DFD08FB00F0A7EB68
:1012300010402844B0FBF5F105FB110000908DF83B
:101240003060200C8DF83100200A8DF832000098B3
:101250008DF8334020448DF837A0A84283BF009812
:101260002F1AA4EB0708274698BF4FF00008002468
:10127000BAF1000F4ED9204607F0C2FC814604F1B6
:10128000010B8DF836B010210AA807F09BF9B7F5CD
:10129000804F19D900983C46002609EB000500BF95
:1012A00005EB86304FF4804107F08CF9701CA4F5F3
:1012B0008044C6B2B4F5804FF2D8002C1CBF05EBB9
:1012C0008630A1B204D105E027B10098B9B24844F4
:1012D00007F078F9B8F5804F84BF4546002425D93A
:1012E00009EB84304FF4804107F06CF9601CA5F5E0
:1012F0008045C4B2B5F5804FF2D8002D1CBFA9B20D
:1013000009EB843002D000BF07F05CF90BF0FF045A
:101310005445B0D37FA007F068F9834800235A1ED4
:101320007EA1006809F01EFD00F02BBAB8F1000F95
:101330001CBF1FFA88F14846E6D1E7E700F131010A
:10134000441C8DF85C10E0B207F07EFA010C8DF8B9
:101350006110010A8DF862108DF863000C2116A847
:1013600007F030F9E0B20228E8D300F00ABA6F4C77
:1013700094F8B803012809D094F8B803032811D0D1
:1013800094F8B80302281BD000F0FBB968A007F05E
:101390002CF994EDEC0B68A153EC102B0EA805F082
:1013A0003BFC08E066A007F020F9D4F8A42366A16E
:1013B0000EA805F031FC0EA807F017F900F0E1B90E
:1013C00094F8BD0320B194F8B90398B100F0D9B9ED
:1013D0005EA007F00AF9E0885EA1401E82B20EA866
:1013E00005F01AFC0EA807F000F9012084F8BD03EF
:1013F00000F0C7B959A007F0F8F894EDE00B4EA142
:1014000053EC102B0EA805F007FC0EA807F0EDF822
:10141000012084F8B90300F0B4B9444C94F8BE0339
:1014200020B194F8BA0398B100F0ABB94DA007F021
:10143000DCF8208947A1401E82B20EA805F0ECFB23
:101440000EA807F0D2F8012084F8BE0300F099B985
:1014500046A007F0CAF894EDE20B37A153EC102B2D
:101460000EA805F0D9FB0EA807F0BFF8012084F8FC
:10147000BA0300F086B93F4807F0B7F802F072FDF2
:1014800007F0BEF802F08CFD07F0BAF83A4893E78F
:101490003A4807F0AAF84FF4007007F0B1F84FF49B
:1014A000E13007F0ADF8364807F09FF8354883E79C
:1014B000884A0020F80000204F53435F79797979FA
:1014C000787878784348307847454E5F7843485F6E
:1014D00046787878475F4E5800000000475F4F4BD2
:1014E0000000000041434B5F0000000053544D33A7
:1014F00032463330332D4E75636C656F000000004B
:10150000202B20536869656C64204C454F20563071
:101510002E310000535F4F4B0000000032446174D5
:101520006153656E7400000094010020A8F2002051
:1015300045545244200000002530392E36662000E4
:1015400052454644200000002564200049433142B2
:101550002000000025687520000000004943314448
:101560002000000049433242200000004943324439
:101570002000000048A4000850A40008C0A10008F2
:10158000C8A10008D0A10008854807F02EF88548BA
:1015900007F036F849F6404007F032F8042007F02B
:1015A0002FF800208DF8000010F0FF0008BF7E48E3
:1015B0000BD0012808BF7D4807D0022808BF7C480F
:1015C00003D0032808BF7B4801D107F00EF89DF82F
:1015D0000000401CC0B28DF800000428E4D340F69F
:1015E000E44007F00DF87448008807F009F86846F1
:1015F00008F012FB9DF8001006F0E4FFC1E06F4810
:1016000006F0F3FF6E48D7E66E4806F0EEFF0220C4
:1016100006F0D6FF042006F0D3FF022006F0D0FF2C
:10162000012006F0CDFF684F684E002507F1240821
:1016300007F14C0907F15C0A654806F0D6FF705DBA
:101640000024002805D81FE0002C1CBF614806F0CC
:10165000CCFF002D08BF57F824000ED0012D08BF85
:1016600058F8240009D0022D08BF59F8240004D0EE
:10167000032D08BF5AF8240001D106F0B6FF601C04
:10168000C4B2705DA042DFD8681CC5B2042DD3D3AC
:101690004F4806F0AAFF50488EE600BF07F0EAFA6E
:1016A000002814BF4D484E4886E64E4806F09DFF80
:1016B0004D4806F0A5FF4FF4FA6006F0A1FF0C209C
:1016C00006F09EFF022006F09BFF002405E024B1F7
:1016D000012C08BF454801D002E0454806F085FFCF
:1016E000601CC4B2022CF2D307F0C4FA28B14148FE
:1016F00006F06AFF41F21D3004E0002006F080FF92
:1017000040F6E44006F07CFF40F6E44006F078FF47
:101710004FF4966006F074FF33E0374806F065FF3B
:10172000364806F062FF364806F05FFF354806F09F
:101730005CFF354806F059FF344806F056FF344840
:1017400006F053FF562006F03BFF01F0C7FE3024A1
:1017500004EB1060C0B206F033FF2E2006F030FF1D
:1017600001F0BCFE04EB1040C0B206F029FF2E20B1
:1017700006F026FF01F0B2FE04EB1020C0B206F026
:101780001FFF2448406809F0A3FCBBE42148002364
:101790005A1E02A9006809F0BCF902A80CE6000074
:1017A00010A3000800093D001CA3000824A30008A2
:1017B0002CA3000834A30008BAF7FF1FECA100080F
:1017C000F4A10008DCA300080001002064B80008B0
:1017D000ECA30008F0A30008F4A3000814A4000878
:1017E0001CA4000874A2000880841E0088A20008BF
:1017F00080A20008D9ECFFFFCCA40008D4A4000804
:10180000E4A40008ECA40008F4A4000800A5000863
:1018100008A50008F800002086B000221421052049
:1018200009F03AF9734DA860042009F00DF9E86059
:10183000714CA86841F61F4741F26F7618B34FF01C
:1018400001084FF002094FF0030A40F2E73B002382
:101850005A1E6946A86809F05CF94FF0FF31E86844
:1018600009F097FC9DF8000031280DD0322821D0D6
:10187000332835D0342849D0352857D0362865D07C
:10188000372876D0B2E0FEE794F8B80368B10128B3
:1018900006D0022807D0032808BF04F07FFF04E029
:1018A00004F060FF01E004F06BFF84F8B88304F0FB
:1018B00007FF9BE094F8B80368B1012806D002281E
:1018C00007D0032808BF04F069FF04E004F04AFFD2
:1018D00001E004F055FF84F8B89304F00FFF85E0B1
:1018E00094F8B80368B1012806D0022807D003286D
:1018F00008BF04F053FF04E004F034FF01E004F0FB
:101900003FFF84F8B8A304F013FF6FE094F8B80326
:1019100038B3012807D0022802D0032803D065E09D
:1019200004F0B4FD62E004F043FC5FE094F8B80317
:10193000B8B1012807D0022802D0032803D055E00F
:1019400004F0CAFD52E004F04DFC4FE094F8B803F7
:1019500038B1012807D0022808D0032808BF04F0B6
:101960001DFF43E005E004F0FDFE3FE004F008FF4A
:101970003CE0B4F8A803B0F57A7F04BFA4F89E73E6
:1019800042F20F7027D00DDC642804BFA4F89E73C8
:10199000A4F89CB321D0B0F5FA7F08BFA4F89E63E9
:1019A00010D01AE000F67840B0F5005004BF4EF6B3
:1019B0005F20A4F89E0305D000F67840B0F5005FE4
:1019C00003D00AE0A4F89C6307E048F69F40A4F81F
:1019D0009E0344F61F60A4F89C03B4F89E13B4F869
:1019E0009C0304F0E3FA002084F8C003E86809F0DF
:1019F0006FFB2CE7A4010020A8F200200149002081
:101A00000860704708000020014902200860704704
:101A10000800002010B5446A204601F048F8012073
:101A2000207110BD10B5446A204601F016F801205F
:101A3000207110BD10B5446A206940F00400206197
:101A4000204601F036F80120207110BD10B5446A1F
:101A5000206940F004002061204601F000F80120D8
:101A6000207110BD406A01F023B810B5406A00F043
:101A7000F5FF10BDF8B515460E46002410B101283B
:101A800008BF10242146064801F018F900200090F4
:101A90002B4632462146024801F088F8F8BD000086
:101AA000C4030020014801F0B5B90000F80200208D
:101AB00010B5284C96B0012806D0022812D0032871
:101AC00021D0042830D03FE0442222496846FEF766
:101AD000D5FB606C1190A06C1290E06C216D13909E
:101AE000149131E044221C496846FEF7C7FB1A48AE
:101AF000416C1191806C1290D4F8A000D4F8A4101D
:101B00001390149120E0442214496846FEF7B6FB76
:101B10001248416C1191806C1290D4F8F400D4F802
:101B2000F810139014910FE044220D496846FEF717
:101B3000A5FB0B48416C1191806C1290D4F84801C0
:101B4000D4F84C11139014910F980068406816B0A7
:101B500080B210BD60040020B404002008050020FD
:101B60005C050020C16B0A6890F840300220984064
:101B700010421ABF486001200020704700B585B0B0
:101B800004F0ECF90021094801F08CF81021074815
:101B900001F088F830200090002001900290694602
:101BA0004FF0904001F076FB05B000BDC40300206B
:101BB00000B5154985B013480860084600F07AFF63
:101BC00004200090114800226946006801900E48E8
:101BD00000F046FF14200090102269460A4800F0E9
:101BE0003FFF3020009003200190002002906946C2
:101BF0004FF0904001F04EFB05B05DF804EB04F0AF
:101C0000BBB9000000740040C4030020080000209D
:101C100086B000221421052008F03EFF2C4F2D49EC
:101C2000A1F12C04386021604FF47A706060E060AC
:101C3000A06020614FF0010884F815806062208464
:101C4000A1614FF0000984F814900C202085002336
:101C50005A1E6946386808F05CFF9DF8000031287C
:101C600018BF3228F3D0332808BF207DEFD03428A6
:101C700009D0352804BF207D0128E8D1FFF77EFF79
:101C800084F81490E3E7207D002808BF0025DED10A
:101C900004EB850670680022294604F08DFC607D07
:101CA000A84207D904EB4500028CB1692846FFF72A
:101CB000E1FE04E0002211462846FFF7DBFE681C27
:101CC000C5B2022DE4D3FFF773FF84F81480BEE79A
:101CD000A0010020D4EA0020014890F821007047BC
:101CE00064EA00202DE9F041044690F840000D46DA
:101CF000012804BF0220BDE8F0814FF0010884F8FC
:101D000040802046FEF788FF06004FF0000718BF0E
:101D1000012604D084F840703046BDE8F081C4F854
:101D200044802068816821F080418160012D04D1C8
:101D30002068816841F0804181602068816841F0BD
:101D40000041816001F0CEFB05462068806810F0FC
:101D5000004F14D001F0C6FB401B0A280AD9606C62
:101D600020F0020040F01000606484F84070012010
:101D7000BDE8F0812068806810F0004FEAD1606C07
:101D800020F0020040F001006064C3E72DE9F0019B
:101D900098B04FF0000CCDF808C090F84020644691
:101DA000012A01BF022018B0BDE8F00170470127E9
:101DB00080F840700268936813F0040F40F05D8172
:101DC0004B681F25052B0CD2166B03EB43035B00FE
:101DD0009D4026EA05050E6806FA03F32B431363BC
:101DE0002CE00A2B0DD2566B5B1F03EB43035B0009
:101DF0009D4026EA05050E6806FA03F32B4353635C
:101E00001CE00F2B0DD2966B0A3B03EB43035B00E8
:101E10009D4026EA05050E6806FA03F32B439363FB
:101E20000CE0D66B0F3B03EB43035B009D4026EABF
:101E300005050E6806FA03F32B43D3630268936823
:101E40004FF0070513F00C0F64D10B680A2B0ED36B
:101E500096690A3B03EB430305FA03F826EA0806F2
:101E6000D1F8088008FA03F3334393610CE0566914
:101E700003EB430305FA03F826EA0806D1F80880C5
:101E800008FA03F33343536102684B69D668D1F80B
:101E90001080C6F3C1067600B340A14EB8F1010F21
:101EA0003FD0B8F1020F49D0B8F1030F53D0B8F1C9
:101EB000040F5DD0136E0E7803F0F843B3EB866F1A
:101EC00003D1136E23F0004313660268536E0E783D
:101ED00003F0F843B3EB866F03D1536E23F0004356
:101EE00053660268936E0E7803F0F843B3EB866F87
:101EF00003D1936E23F0004393660268D36E0E788D
:101F000003F0F843B3EB866F04BFD36E23F00043B6
:101F100000D1D3660268936803F00303012B37D125
:101F200032E0D2F8608008EA060691F8008043EAC1
:101F30008863334343F000431366EBE7D2F86480D1
:101F400008EA060691F8008043EA8863334343F0C9
:101F500000435366DEE7D2F8688008EA060691F887
:101F6000008043EA8863334343F000439366D1E73C
:101F7000D2F86C8008EA060691F8008043EA88638C
:101F8000334343F00043C4E7136813F0010F7AD1E1
:101F9000CB68012BD2F8B03006D00D7807FA05F5E2
:101FA000AB43C2F8B03022E00E7807FA06F63343AE
:101FB000C2F8B0300A6803680A2A0CD39E69093A4D
:101FC00002EB4202954026EA05058E6806FA02F207
:101FD0002A439A610BE05E69521C02EB4202954073
:101FE00026EA05058E6806FA02F22A435A6103685A
:101FF0004C4DB3F1A04F16BFAB424B4A4B4A096858
:10200000102908D011290BD0122904BF966816F4A4
:10201000800F09D037E0966816F4000F33D103E043
:10202000966816F0807F2ED1B3F1A04F0FD0AB424F
:1020300004BF4FF0A04503950AD03D4D3D4EAB4245
:1020400008BF039604D0B34218BF039400D1039590
:102050009D6805F00305012D03D11D6815F0010FE2
:102060000BD1039DB5B1AD6805F00305012D11D16C
:10207000039D2D6815F0010F0CD0416C41F020013B
:1020800041644FF0010C80F8404018B06046BDE854
:10209000F0017047102909D0112933D0122904BF4B
:1020A000916841F48001EED19160ECE7B3F1A04F6B
:1020B000E9D1916841F4000191601F491F4A096804
:1020C000B1FBF2F101EB8101490002910091DAD0FC
:1020D000B1F1004F1ED20029D8BF002105DD11F05B
:1020E000010102D0029A521E0292009A491C521C0F
:1020F0009142C8DA029B891C5B1E5B1E02939142CF
:10210000F8DBC0E7B3F1A04F04BF916841F08071E4
:10211000B9D1C9E70299491E0291FCD1B3E7000089
:1021200000F0FF8300010050000300500007005042
:1021300000040050000500509000002040420F00B5
:1021400070477047002804BF0120704770B50446EF
:10215000406C96B040F0020060646C212046FEF7AF
:1021600033FC05004FF0000640F0BC802068C168D9
:1021700041F40011C1602046FEF74EFD050018BF76
:10218000012540F0AF8001206064206841686FF352
:102190000A014160216840F2FF7008602068816890
:1021A00021F0E04181602068816841F00051816048
:1021B0002068C1684E4A1140C160206841696FF3D0
:1021C000DD0141612068816901F078418161206809
:1021D000016A01F0F02101622068416A01F0FF21EB
:1021E00041622068816A01F0FF2181622068016BF1
:1021F000404A114001632068426B3F490A404263F4
:102200002068826B114081632068C16B21F0DF017F
:1022100021F4E061C16321680A6E384802400A6611
:1022200021684A6E02404A6621688A6E02408A66C8
:102230002168CA6E1040C8662068D0F8A0106FF3FD
:102240001201C0F8A0102068D0F8A4106FF312019A
:10225000C0F8A4102068D0F8B0106FF31201C0F8D5
:10226000B0102068D0F8B41021F07F11C0F8B4107D
:102270002068234AB0F1A04F1ABF90422149224959
:10228000B0F1A04F0FD0904204BF4FF0A042009297
:102290000AD01E4A1E4B904208BF009304D09842B9
:1022A00018BF009600D10092826802F00302012A52
:1022B00003D1006810F0010F0FD1009848B1806879
:1022C00000F00300012804D10098006810F0010F0D
:1022D00003D188680F4A10408860204600F08CF9CE
:1022E000A664666484F8406016B0284670BD00009D
:1022F00004800080300882E0200882E000F0FF03C4
:10230000000100500007005000030050000400507E
:1023100000050050E0103CFE7047000070B598B01A
:102320004FF0000604003546029602BF012018B0A7
:1023300070BD606C10F0100F606C03D010F0100FC7
:1023400069D06DE000284BD1A5642565E56484F86B
:102350004050204600F052F92068806810F0805FFD
:102360003ED12046FEF758FC0646606C10F0100F78
:1023700008BF002E34D1606C20F4885040F0020079
:1023800060642068816821F0405181602068816824
:1023900041F0805181608F488F490068B0FBF1F0B7
:1023A00000EB800040000290009019D0B0F1004F87
:1023B00080F00B810028D8BF002005DD10F001005F
:1023C00002D00299491E02910099401C491C884282
:1023D00006DA029A801C521E521E02928842F8DBD4
:1023E0002068816811F0805F03D0806810F0005F82
:1023F0000BD0606C20F0020040F010006064A06C14
:1024000040F00100A064606C0AE0606C10F0100FF6
:1024100008BF002E04D12068816811F0040F0AD093
:10242000606C20F0020040F0100060644FF0010684
:1024300018B0304670BD616C21F4807141F002012A
:102440006164DFF898C1B0F1A04F1ABF60456449DC
:102450006449654B654AB0F1A04F08BFCDF808C08C
:102460000ED0604504BF4FF0A04CCDF808C007D097
:10247000904208BF029303D098420CBF029202958B
:10248000D0F808C00CF0030CBCF1010F03D10068B8
:1024900010F0010F13D1029848B1806800F00300DA
:1024A000012804D10298006810F0010F07D1886854
:1024B000D4F804C020F4403040EA0C008860D4E92D
:1024C00002100143A06B012814BF4FF4805C4FF051
:1024D000000CE0694CEA403C41EA0C01D4F824C00D
:1024E000BCF1010F0AD1E8B3606C20F0020040F0AB
:1024F00020006064A06C40F00100A064E06A012844
:102500002DD0D4F800C094451CBF9C4520F48050C9
:1025100022D1B0F5307F08BF4FF4E0701CD0B0F589
:10252000807F08BF4FF4307016D0B0F5E07F08BF51
:102530004FF4807010D0B0F58A5F08BF4FF4707010
:102540000AD0B0F5845F08BF4FF4A07004D0B0F596
:10255000865F08BF4FF4C0700843216B01432068B9
:10256000826800E003E012F00C0F15D108E0208D26
:10257000DFF87CC00CEB4040084340F48031BDE7FD
:10258000C26822F0020222F48042C260A069626B3B
:10259000800340EA420001432068C268154B1A409C
:1025A0001143C160206901282068016B21F00F01EF
:1025B00002D1226A521E11430163A564606C20F0AF
:1025C000020040F00100606432E70298401E029071
:1025D000FCD105E79000002040420F0000010050B0
:1025E0000007005000030050000500500004005098
:1025F0000000FEFF07C0F0FF704700002DE9F04F1C
:1026000093490446A1F11006D0F800C033688F4802
:102610000322802700255B1C87B04FF480684FF4AD
:1026200080794FF0200ABCF1A04F1ED0ACF1A04B36
:10263000BBF5807B15D0A1F11003ACF1A04B5B681A
:102640005B1CBBF5806B7CD0ACF1A04BBBF5A06BE9
:102650001CBF07B0BDE8F08F7360012B40F0C9804C
:10266000B9E03360012B4BD13CE03360012B0DD13D
:10267000436943F080534361436903F080530593FA
:10268000C36A23F4F87343F48073C3620878714912
:1026900031F81010CDE900126F49029551F8200071
:1026A000694600F0F7FDDFF8B8B16C48CBE90005EA
:1026B000CBE90257B068102813BF1828CBF8145084
:1026C000CBF81050CBE904984FF40050CBE906A0AA
:1026D000634800F005FCC4F83CB0CBF8244007B0D8
:1026E000BDE8F08F436943F080534361436903F0D1
:1026F00080530593C36A23F4F87343F48073C36271
:102700004878584931F81010CDE900125649029521
:1027100051F82000694600F0BDFDDFF854B1534880
:10272000CBE90005CBE90257B068102813BF182881
:10273000CBF81450CBF81050CBE904984FF400506C
:1027400000E00BE0CBE906A0494800F0C9FBC4F863
:102750003CB0CBF8244007B0BDE8F08F7360012B8C
:102760000DD1436943F000534361436903F00053C3
:102770000593C36A23F4785343F40053C362887803
:102780003C4931F81010CDE900123B49029551F84F
:102790002000694600F07EFDDFF8E4B03748CBE961
:1027A0000005CBE90257B068102813BF1828CBF8F2
:1027B0001450CBF81050CBE904984FF40050CBE9FB
:1027C00006A02F4800F08CFBC4F83CB0CBF82440A6
:1027D00007B0BDE8F08F436943F00053436143699C
:1027E00003F000530593C36A23F4785343F4005372
:1027F000C362C878234931F81010CDE9001222498C
:10280000029551F82000694600F044FDDFF880B0E1
:102810001E48CBE90005CBE90257B068102813BF6A
:102820001828CBF81450CBF81050CBE904984FF48B
:102830000050CBE906A0164800F052FBC4F83CB0AB
:10284000CBF8244007B0BDE8F08F00000010024034
:102850001C00002080B70008200000200800024073
:10286000B0050020B8B7000844000020080402406A
:10287000F405002070B700086C00002058040240E6
:102880003806002078B700087C0000201C040240B5
:102890007C0600202DE9F05F044600688B469246D6
:1028A000816811F0040F18BF022502D02846BDE848
:1028B000F09F94F84010012904BF0220BDE8F09F6A
:1028C0000121DFF80C91434F84F840104FF0A048ED
:1028D000B0F1A04F16BFB842D8F80803D9F80000ED
:1028E00010F01F0F4FF000061CBF012584F8406058
:1028F000DCD12046FEF7C6F9050018BF84F8406019
:10290000D4D1606C20F0010020F4606040F480704D
:1029100060642068B0F1A04F1ABFB842D9F8001027
:10292000D8F8081311F01F0F1EBFB0F1A04FA0F18F
:10293000A041B1F5806142D0616C41F480116164C5
:10294000B8420EBFD8F80C002348006810F0007F92
:1029500005D0606C20F4005040F480506064606CDE
:1029600010F4805F08BFA66403D0A06C20F00600BE
:10297000A06484F84060E16B18488862E16B1848F5
:10298000C862E16B1748086321681C200860206852
:10299000416841F0100141602068C16841F00101C7
:1029A000C1602068534600F140015A46E06B00F0D8
:1029B0004FFB2068816841F00401816076E7616C1B
:1029C00021F480116164C06810F0007FC1D1C6E7B6
:1029D00008070050000100500C040050A10A000834
:1029E000FF0A0008E90A000870B5044690F84000A4
:1029F000012804BF022070BD012084F840006C2132
:102A00002046FDF7E1FF050022D12068C16821F0D2
:102A10000101C160E06B00F078F9051E03D0606C25
:102A200040F0400060642068416821F0100141607E
:102A3000204604D1FEF7F0F8050009D102E0FEF7C8
:102A4000EBF805E0606C20F4885040F00100606411
:102A5000002084F84000284670BD704770477047DA
:102A60004379012B04BF0220704730B44FF0010CB2
:102A700080F805C00223037103681C6840F6FE75E8
:102A80009540AC43D1E9005129439140214319605D
:102A900001680B68C02404FA02F223EA02020A6009
:102AA00080F804C00021417130BC0846704770476F
:102AB00070477047002804BF0120704770B5044676
:102AC0000079002518B96571204600F007F802204A
:102AD0002071256101202071002070BD2DE9F04F8B
:102AE0000546006887B0A0F18041B1F5E8411CBF00
:102AF00007B0BDE8F08F2848C16941F00051C161BD
:102B0000C069002600F0005005903020009003209E
:102B1000CDE9010669464FF0904000F0BBFB204C28
:102B20004FF480791D481027C4F81090C4E90007BD
:102B30004FF4806A2020C4E905A00002E0614FF054
:102B40008008C4E90268204600F0CAF9DFF854B0F2
:102B5000AC606562DBF8000040F40050CBF8000088
:102B600044341148C4F81090C4E900072020C4E997
:102B700005A00002E061C4E90268204600F0B0F957
:102B8000EC606562DBF8000040F48040CBF80000A8
:102B900007B0BDE8F08F0000001002403000024096
:102BA000D803002000000140440002402DE9F0411C
:102BB00004460D469446617900220698012904BF17
:102BC0000220BDE8F0810126667102212171002DED
:102BD00032D0E7682D49B962E7682D49F962E768A4
:102BE0002C49396321680F6847F080570F6000282F
:102BF00004BF206800F114020AD0042804BF206832
:102C000000F1180204D0082804BF206800F11C025B
:102C10002068016841F0005101606146E06800F001
:102C200017FA002060712068016806FA05F2114366
:102C300001600020BDE8F081A7681749B962A76864
:102C40001649F962A7681649396321680F6847F485
:102C500080570F60002804BF206800F108020AD0E6
:102C6000042804BF206800F10C0204D0082804BF27
:102C7000206800F110022068016841F400510160F1
:102C80006146A06800F0E4F9CBE70000251A0008CF
:102C90006B1A00084D1A0008151A0008651A00087A
:102CA000351A00080368D3F800C0012202FA01F1C6
:102CB0002CEA0101196002710020704770B50446CA
:102CC000006802684FF480538B409A43026020688A
:102CD0000268012505FA01F39A43026069B1E068D0
:102CE00000F013F821680A6822F000520A600028F8
:102CF0001ABF04212171257170BDA06800F005F88C
:102D000021680A6822F40052F0E701680A6822F09C
:102D10000E020A6001680A6822F001020A6090F857
:102D20004020C36B012101FA02F25A6080F82110A1
:102D3000002180F820100846704710B590F8211047
:102D40000024022903D004218163012419E00168D1
:102D50000A6822F00E020A6001680A6822F0010285
:102D60000A6090F84020C36B012101FA02F25A6018
:102D700080F82110002180F82010416B002918BF35
:102D80008847204610BD0000002804BF012070477E
:102D900001680A6822F001020A60026800211160DD
:102DA00002685160026891600268D160DFF84CC02F
:102DB0000268134B624509D2DFF848C06244A3FBA6
:102DC00002321209920002640F4A08E0DFF83CC0A8
:102DD0006244A3FB02321209920002640C4AC263ED
:102DE00090F84020012303FA02F2C36B5A6081631A
:102DF00080F8211080F8201000207047080402405D
:102E0000CDCCCCCCF8FFFDBF00000240F8FBFDBFED
:102E100000040240F0B4C16BD1F800C001680B6837
:102E2000046C042202FA04F515EA0C0F18BF13F023
:102E3000040F12D00B6813F0200F03D10B6823F09E
:102E400004030B6090F8401002FA01F1C26B51606C
:102E5000C16A002942D1F0BC7047022606FA04F28A
:102E600012EA0C0F4FF000054FF0010218BF13F0EB
:102E7000020F15D00B6813F0200F05D10B6823F05B
:102E80000A030B6080F8212090F84010C26B06FA0C
:102E900001F1516080F82050816AF9B9F0BC7047A7
:102EA000082606FA04F414EA0C0F12BF13F0080FF8
:102EB000F0BC70470B6823F00E030B6090F84010D5
:102EC000C36B02FA01F15960826380F8212080F817
:102ED0002050016B002904BFF0BC7047F0BC0847CC
:102EE000002804BF0120704710B4022180F821108F
:102EF00002681168D0E9013C43EA0C03D0E903C43D
:102F00004CEA040C43EA0C03D0F814C06FF30D1123
:102F100043EA0C03D0F818C043EA0C03D0F81CC0F5
:102F200043EA0C0319431160124B0168124A99429B
:102F300008D2124B1944A2FB01210909890001643E
:102F40000F4907E00F4B1944A2FB01210909890031
:102F500001640D49C16300218162C1620163416363
:102F60008163012280F8212080F8201010BC0846DF
:102F70007047000008040240CDCCCCCCF8FFFDBF68
:102F800000000240F8FBFDBF0004024090F820C0A2
:102F90000023BCF1010F04BF022070474FF0010C69
:102FA00080F820C090F821C0BCF1010F0FD100299A
:102FB00008BF82620CD0012908BFC26208D0022972
:102FC00008BF026304D0032908BF426300D0012375
:102FD000002180F820101846704770B490F8204007
:102FE0004FF0000C012C02BF022070BC704701247E
:102FF00080F8204090F821600025012E1CBF80F849
:1030000020504FF0020C02D070BC60467047022680
:1030100080F82160856305682E6826F001062E6021
:1030200090F84050AC40C56B6C60046863604368C6
:10303000102B036803BF9A600268D16099601CBFBF
:103040000168CA600068016841F001010160DBE7C6
:1030500070B490F820404FF0000C012C02BF022009
:1030600070BC7047012480F8204090F82160002552
:10307000012E1CBF80F820504FF0020C02D070BC13
:1030800060467047022680F82160856305682E68D7
:1030900026F001062E6090F84050AC40C56B6C6085
:1030A000046863604368102B036803BF9A6002687A
:1030B000D16099601CBF0168CA60C16A00290168BB
:1030C0000A6818BF42F00E0206D142F00A020A60F6
:1030D00001680A6822F004020A600068016841F091
:1030E00001010160CBE790F820200023012A04BFF2
:1030F00002207047012280F8202090F821C0002291
:10310000BCF1010F13D1052911D2DFE801F003054D
:1031100007090B0082620BE0C26209E0026307E06C
:10312000426305E08262C2620263426300E00123FF
:1031300080F820201846704731B500F0D3F90446D6
:1031400000F0D0F90099001B8842F9D338BD000087
:103150000022002908BF70472DE9F04FDFF82CB19D
:1031600001274FF003084FF00F0C0BF1040E00BFC6
:1031700007FA02F515EA01037DD00668540008FA43
:1031800004F4A6430660D60800EB8606D6F8209025
:103190004FEA427A4FEADA6A0CFA0AFA29EA0A098D
:1031A000C6F820908668A6438660466826EA05052C
:1031B0004560C56825EA0404C46022F0030404F1F4
:1031C000804505F58035D5F808909407260F0CFA50
:1031D00006F404EA0909B0F1904F08BF4FF0000A65
:1031E00030D0A0F1904ABAF5806A08BF4FF0010ACA
:1031F00028D0A0F1904ABAF5006A08BF4FF0020A41
:1032000020D0A0F1904ABAF5406A08BF4FF0030AF7
:1032100018D0A0F1904ABAF5805A08BF4FF0040ABE
:1032200010D0A0F1904ABAF5A05A08BF4FF0050A95
:1032300008D0A0F1904ABAF5C05A0CBF4FF0060A68
:103240004FF0070A0AFA06F64E4518D1AE6826EA8C
:103250000404AC60DBF800409C43CBF80040DEF88F
:1032600000409C43CEF80040094C25689D432560F2
:10327000241D256800E002E025EA03032360521CB8
:1032800031FA02F37FF474AFBDE8F08F000401401F
:10329000080401400B680022002B08BF70472DE98D
:1032A000F84F844EDFF810E201274FF0030A4FF089
:1032B0000F0800BF0B6807FA02F52B4000F0F380FF
:1032C000D1F804C0BCF1020F18BFBCF1120F15D128
:1032D0004FEAD20C00EB8C09D9F820404FEA427C2F
:1032E0004FEADC6C08FA0CFB24EA0B04D1F810B0AE
:1032F0000BFA0CFC4CEA040CC9F820C0D0F8009082
:103300004FEA420C91F804B00AFA0CF40BF0030BEC
:1033100029EA04090BFA0CFB4BEA0909C0F80090F2
:10332000D1F80490B9F1010F18BFB9F1020F05D01F
:10333000B9F1110F18BFB9F1120F18D1D0F80890D8
:10334000D1F80CB029EA04090BFA0CFB4BEA090985
:10335000C0F80890D0F8049029EA050591F8049087
:10336000C9F3001909FA02F949EA05054560C5687B
:1033700025EA04048D6805FA0CFC4CEA040CC0F83C
:103380000CC0D1F804C01CF0805F7CD0D6F818C007
:103390004CF0010CC6F818C0D6F818C00CF0010C9F
:1033A000CDF800C022F0030C0CF1804C0CF5803CF1
:1033B000DCF808504FEA82744FEA147408FA04F9F2
:1033C00025EA0905B0F1904F08BF4FF0000930D051
:1033D000A0F19049B9F5806908BF4FF0010928D0E4
:1033E000A0F19049B9F5006908BF4FF0020920D05B
:1033F000A0F19049B9F5406908BF4FF0030918D012
:10340000A0F19049B9F5805908BF4FF0040910D0D8
:10341000A0F19049B9F5A05908BF4FF0050908D0AF
:10342000A0F19049B9F5C0590CBF4FF006094FF013
:10343000070909FA04F42C43CCF80840DEF800C070
:103440004C682CEA030C14F4803F18BF4CEA030CC0
:10345000CEF800C0194CD4F800C04D682CEA030C1B
:1034600015F4003F18BF4CEA030CC4F800C0144C1C
:10347000D4F800C04D682CEA030C15F4801F18BF67
:103480004CEA030C00E00EE0C4F800C00D4CD4F888
:1034900000C04D682CEA030C15F4001F18BF4CEA5D
:1034A000030CC4F800C00B68521CD3407FF402AF79
:1034B000BDE8F88F00100240000401400404014000
:1034C000080401400C0401400069084018BF0120B5
:1034D0007047002A14BF8161816270474FF082708B
:1034E0007047000001480068704700009400002009
:1034F00002480168491C01607047000094000020E8
:10350000074810B5016841F010010160032000F088
:1035100089F80F2000F006F800F018F8002010BD20
:103520000020024010B5044607484FF47A72006844
:10353000B0FBF2F001F068F800222146501E00F0C6
:103540003FF8002010BD000090000020094808B599
:10355000816941F001018161806900F00100009002
:10356000032000F05FF80022BDE808401146501E1D
:1035700000F026B80010024000F01F01012202FAFC
:1035800001F14009800000F1E020C0F8801270478E
:1035900000F01F01012202FA01F14009800000F150
:1035A000E020C0F88011704700F01F01012202FAEC
:1035B00001F14009800000F1E020C0F800117047DF
:1035C000174B10B41B68C3F30223C3F1070CBCF103
:1035D000040F88BF4FF0040C1C1D072C34BF0023C0
:1035E000DB1E012404FA0CFCACF1010C0CEA010115
:1035F000994004FA03F35B1E1A40114300284FEA76
:103600000111A1BF00F1E02080F8001410BC704748
:1036100000F00F0000F1E02080F8141D10BC70478E
:103620000CED00E0074900F007000A684FF6FF03C1
:103630001A4042EA002040F0FD7040F080600860CF
:10364000704700000CED00E070B5F94986B0034604
:1036500091E876108DE87610F7490020DFF8D4C3A2
:103660000A68F649B3F5805F00F0878154DC202BAF
:1036700077D038DC042B75D01ADC012B73D0022BE9
:103680001CBF06B070BD0A6B12F440326CD0B2F5AC
:10369000403F6BD0B2F5803F67D0B2F5003F1CBF12
:1036A00006B070BD096A11F0020F6FD106B070BD8F
:1036B000082B6CD0102B1CBF06B070BD0A6B12F427
:1036C000400251D0B2F5400F76D0B2F5800F4CD009
:1036D000B2F5000F1CBF06B070BD096A11F0020FF1
:1036E00070D106B070BD402B67D06D46802B73D073
:1036F000B3F5807F71D0B3F5007F1CBF06B070BDFD
:10370000496801F40001B1F5000F02BFCC4806B0D2
:1037100070BD51B306B070BDB3F5001F70D037DC7B
:10372000B3F5003F6DD022DCB3F5005F6AD0B3F58E
:10373000803F1CBF06B070BD0A6A02F44072B2F549
:10374000807F3BD0B2F5007F3FD0B2F5407F1CBFF9
:1037500006B070BD096811F4003F18BFB94806B043
:1037600070BD9CE061E039E057E053E058E0B3F50C
:10377000802F71D0B3F5801FF1D10B6B03F08073F4
:10378000B3F1807F69D0002B3DD0E8E71AE065E017
:10379000B3F5800F75D0B3F5000F73D0B3F1807F10
:1037A00071D0B3F1007FDAD10B6B03F40043B3F5B2
:1037B000004F69D03BB3D2E76CE07CE0096A11F0BE
:1037C000020FCCD04FF40040C9E7496A11F0020F54
:1037D00018BF49F64040C2E799E0B4E00A6B12F026
:1037E00003020AD0032A0FD0012A13D0022AB6D12D
:1037F000096A11F0020FE5D1B1E700F0D1FBAEE7A5
:103800000DE170E0CCE09CE0096811F0020FA6D059
:103810006046A4E700F0DCFBA1E700F0A9FB9EE70F
:10382000096811F0020FF3D199E70A6B12F44022F4
:10383000F3D0B2F5402F0AD0B2F5802FEAD0B2F51E
:10384000002F8CD1096A11F0020FBBD187E70968FC
:1038500011F0020FDCD182E739E09CE00A6B12F430
:103860004012DAD0B2F5401F0FD0B2F5801FD1D090
:10387000B2F5001F7FF473AF096A11F0020FA1D1F6
:103880006DE79BE0A8E0B5E0C3E0096811F0020F26
:10389000BED164E7096811F0020FB9D15FE70A6B86
:1038A00012F0100202D0102AB4D058E7096811F0C3
:1038B000020FADD153E70A6B12F0200202D0202A8A
:1038C000A8D04CE7096811F0020FA1D147E70A6BB5
:1038D00012F0400202D0402A9CD040E7096811F063
:1038E000020F95D13BE70A6812F0007F3FF437AF33
:1038F000486800F48000B0F5800F05D002F022F88F
:1039000000EB400040082AE702F01CF827E7CB6AEA
:1039100013F4F87415D0096811F0007F3FF41FAF5D
:1039200002F010F84FF4F87191FAA1F1B1FA81F1B7
:1039300024FA01F101F00F0135F81110B0FBF1F09C
:103940000DE710460BE7CB6A13F47854F9D00968F9
:1039500011F0007F3FF403AF01F0F4FF4FF4785112
:1039600091FAA1F1B1FA81F124FA01F101F00F010C
:1039700035F81110B0FBF1F0F1E60B6B03F4807336
:10398000B3F5807F02D0002BDBD0E8E6096811F0A8
:10399000007FB9D1E3E6096811F0007FB4D1DEE61B
:1039A0000B6B03F40073B3F5007F02D0002BC8D07B
:1039B000D5E6096811F0007FA6D1D0E60B6B03F4C1
:1039C0008063B3F5806F02D0002BBAD0C7E60968D8
:1039D00011F0007F98D1C2E60B6B03F40063B3F5DE
:1039E000006F02D0002BACD0B9E6096811F0007F5F
:1039F0008AD1B4E60B6B03F40053B3F5005F02D039
:103A0000002B9ED0ABE6096811F0007F7FF47CAFFD
:103A1000A5E6096811F0007F7FF476AF9FE60B6B97
:103A200003F00073B3F1007F0ED0002B89D096E62F
:103A30004CB8000800127A009000002000100240EC
:103A4000ADDEADDE90D00300096811F0007F7FF499
:103A50005BAF84E62DE9F84F04460068AF4D10F4E3
:103A6000803F7DD0E8694FF0000910F0805F09D1F8
:103A7000E86940F08050E861E8694FF0010900F022
:103A800080500090A64E306810F4807F13D13068CB
:103A900040F480703060FFF725FD0746306810F471
:103AA000807F08D1FFF71EFDC01B64285AD83068FC
:103AB00010F4807FF6D0286A10F4407055D0A188A9
:103AC00001F44071814250D0286A0127390491FAEB
:103AD000A1F2B2FA82F2920002F1844202F584026B
:103AE00020F44070C2F8007491FAA1F10022B1FAFA
:103AF00081F1890001F1844101F58401C1F80024BC
:103B0000286210F0010F30D0FFF7ECFC804602264F
:103B100041F2883A96FAA6F0B0FA80F040F0400000
:103B2000B7EB501F08BF28680AD096FAA6F0B0FA83
:103B300080F040F04000B6EB501F0CBF286A686A66
:103B400096FAA6F1B1FA81F101F01F0107FA01F12D
:103B500008420AD1FFF7C6FCA0EB0800504500E080
:103B600010E0D7D90320BDE8F88F286A616820F4F7
:103B7000407008432862B9F1000F03D0E86920F0D3
:103B80008050E861207810F0010F05D0286BA16803
:103B900020F0030008432863207810F0020F05D0BE
:103BA000286BE16820F4403008432863207810F047
:103BB000040F05D0286B216920F4402008432863B6
:103BC000207810F0200F05D0286BE16920F010005C
:103BD00008432863206810F4003F05D06868616DD1
:103BE00020F4800008436860207810F0400F05D072
:103BF000286B216A20F0200008432863206810F415
:103C0000802F05D0286B616A20F0400008432863AC
:103C1000207810F0080F05D0286B616920F440105F
:103C200008432863207810F0100F05D0286BA16995
:103C300020F4400008432863208810F4007F05D05A
:103C40006868216B20F4000008436860207810F059
:103C5000800F05D0E86AA16A20F4F8700843E86292
:103C6000208810F4807F05D0E86AE16A20F478505B
:103C70000843E862208810F4805F05D0286B616BF0
:103C800020F4807008432863208810F4005F05D07A
:103C9000286B216C20F4007008432863206810F41E
:103CA000801F05D0286BA16B20F08070084328632B
:103CB000206810F4001F05D0286BE16B20F0007025
:103CC00008432863206810F4800F05D0286B616CCE
:103CD00020F4806008432863206810F4000F05D0AA
:103CE000286BA16C20F4006008432863206810F062
:103CF000807F05D0286BE16C20F4005008432863D6
:103D0000206810F0007F05D0286B216D20F4004062
:103D1000084328630020BDE8F88F0000001002402F
:103D2000007000402DE9F047DFF81C8205460E4682
:103D3000D8F8000000F00700B0420CD2D8F800001C
:103D400020F007003043C8F80000D8F8000000F069
:103D50000700B04270D128787C4C10F0020F05D0DB
:103D60006068A96820F0F00008436060287810F0CF
:103D7000010F71D068680121012831D0022845D097
:103D8000022393FAA3F2B2FA82F242F0200252091D
:103D90000CBF626A226893FAA3F3B3FA83F303F0C9
:103DA0001F0399400A427DD0616821F00301084356
:103DB0006060FFF797FB0746686841F28839012881
:103DC0003BD00228606800F00C0046D0002856D096
:103DD000FFF788FBC01B48454DD90320BDE8F0879D
:103DE0004FF4003292FAA2F3B3FA83F343F02003C4
:103DF0005B0914BF2368636A92FAA2F2B2FA82F2F4
:103E000002F01F0291400B424CD0CDE74FF0007200
:103E100092FAA2F3B3FA83F343F020035B0914BFD1
:103E20002368636A92FAA2F2B2FA82F202F01F02E7
:103E300091400B4236D0B7E734E0606800F00C00E8
:103E400004281CD0FFF74EFBC01B4845C5D860684E
:103E500000F00C000428F5D111E008280FD000BFB5
:103E6000FFF740FBC01B4845B7D8606800F00C0066
:103E70000828F5D103E0606810F00C0FA8D1D8F83D
:103E8000000000F00700B0420FD9D8F8000020F081
:103E900007003043C8F80000D8F8000000F0070021
:103EA000B04202D00120BDE8F087287810F0040F5E
:103EB00005D06068E96820F4E06008436060287815
:103EC00010F0080F06D06068296920F4605040EABD
:103ED000C100606061681E4801F00C02042A1ED017
:103EE000082A1CD14FF4701393FAA3F301F4701253
:103EF000B3FA83F3DA40174B9A5CE36A4FF00F0C86
:103F00009CFAACFC03F00F03BCFA8CFC23FA0CF314
:103F1000DFF844C01CF80330B0FBF3F05043616895
:103F2000F02292FAA2F201F0F001B2FA82F2D1404C
:103F30000A4A515CC8400A4908600F20FFF7F2FAAC
:103F40000020BDE8F0870000002002400010024081
:103F500000127A002CB800083CB8000814B8000819
:103F60009000002001480068704700009000002089
:103F700008480949006849684FF4E06292FAA2F2E1
:103F800001F4E061B2FA82F2D140044A515CC840C7
:103F900070470000900000200010024024B8000884
:103FA00008480949006849684FF4605292FAA2F241
:103FB00001F46051B2FA82F2D140044A515CC84027
:103FC00070470000900000200010024024B8000854
:103FD000164B5968164801F00C02042A08BF7047B6
:103FE000082A18BF704701F470124FF4701C9CFA35
:103FF000ACFCBCFA8CFC22FA0CF2DFF838C0DB6AAD
:104000001CF802204FF00F0C9CFAACFC03F00F03DD
:10401000BCFA8CFC23FA0CF3DFF81CC001F48031ED
:104020001CF80330B0FBF3F050437047001002401F
:1040300000127A002CB800083CB800082DE9F84FAF
:1040400004460078FF4D10F0010F4FF001063CD000
:104050006868770400F00C0004281ED0686800F03F
:104060000C00082805D1686800F4C030B0F5803F26
:1040700013D06068B0F5803F04BF286840F48030FA
:1040800037D010B1B0F5A02F56D0286820F480307A
:104090002860286820F480202BE097FAA7F0B0FA77
:1040A00080F040F02000400914BF2868686A97FA41
:1040B000A7F1B1FA81F101F01F0106FA01F10842FE
:1040C00003D06068002800F08D8220784FF000094E
:1040D00010F0020F4FF002077DD068684FF0F80A29
:1040E00010F00C0F78D0686800F00C0008284BD056
:1040F00050E02860606838B3FFF7F4F94FEA000831
:1041000097FAA7F0B0FA80F040F02000400914BF01
:104110002868686A97FAA7F1B1FA81F101F01F01E6
:1041200006FA01F10842D0D1FFF7DCF9A0EB080054
:104130006428E5D900F0FDB9286840F480202860A3
:10414000286840F48030D4E7FFF7CCF94FEA000844
:1041500097FAA7F0B0FA80F040F02000400914BFB1
:104160002868686A97FAA7F1B1FA81F101F01F0196
:1041700006FA01F10842A8D0FFF7B4F9A0EB080055
:104180006428E5D900F0D5B9686800F4C030B0F50E
:10419000004F30D0E068002896FAA6F0B0FA80F020
:1041A0004FEA800000F1844000F584007ED0066074
:1041B000FFF798F94FEA000897FAA7F0B0FA80F0F5
:1041C00040F02000400914BF2868686A97FAA7F1F8
:1041D000B1FA81F101E033E00DE001F01F0106FAD0
:1041E00001F108421FD1FFF77DF9A0EB080002287A
:1041F000E2D900F09EB997FAA7F0B0FA80F040F04B
:104200002000400914BF2868686A97FAA7F1B1FA3C
:1042100081F101F01F0106FA01F108421CBFE068BC
:10422000012840F0DF8128689AFAAAF22169B2FADF
:1042300082F220F0F80001FA02F140EA0100286061
:10424000207810F0080F7CD06069002896FAA6F05C
:10425000B0FA80F04FEA800000F1844000F584005D
:104260004FD0C0F88064FFF73DF9804697FAA7F079
:10427000B0FA80F040F06000B6EB501F08BF28682D
:104280000AD097FAA7F0B0FA80F040F06000B7EBE0
:10429000501F0CBF286A686A97FAA7F1B1FA81F13A
:1042A00001F01F0106FA01F1084200E008E056D1D2
:1042B000FFF718F9A0EB08000228D7D900F039B9A8
:1042C000C0F80090FFF70EF94FEA000897FAA7F040
:1042D000B0FA80F040F02000400914BF2868686AF6
:1042E00097FAA7F1B1FA81F101F01F0106FA01F185
:1042F0000842A5D0FFF7F6F8A0EB08000228E5D9A0
:1043000017E1C0F88094FFF7EDF8804697FAA7F020
:10431000B0FA80F040F06000B6EB501F08BF28688C
:104320000AD097FAA7F0B0FA80F040F06000B7EB3F
:10433000501F0CBF286A686A97FAA7F1B1FA81F199
:1043400000E00CE001F01F0106FA01F1084206D07E
:10435000FFF7C8F8A0EB08000228D7D9E9E02078D9
:1043600010F0040F72D0E8694FF0000B10F0805F7E
:1043700009D1E86940F08050E861E8694FF0010B2D
:1043800000F080500090DFF8C080D8F8000010F4F2
:10439000807F18D1D8F8000040F48070C8F8000081
:1043A000FFF7A0F88246D8F8000010F4807F0AD109
:1043B000FFF798F8A0EB0A0064284AD8D8F8000064
:1043C00010F4807FF4D0A068012804BF286A40F070
:1043D000010009D008B105283CD0286A20F001006E
:1043E0002862286A20F004002862A06841F2883A16
:1043F00068B3FFF777F8804697FAA7F0B0FA80F035
:1044000040F04000B6EB501F08BF28680AD097FA6A
:10441000A7F0B0FA80F040F04000B7EB501F0CBF9F
:10442000286A686A97FAA7F1B1FA81F101F01F01D1
:1044300006FA01F1084240D1FFF754F8A0EB08005A
:10444000504505E000100240007000403CE009E0EB
:10445000D2D96EE0286A40F004002862286A40F051
:104460000100C1E7FFF73EF84FEA000897FAA7F00E
:10447000B0FA80F040F04000B6EB501F08BF28684B
:104480000AD097FAA7F0B0FA80F040F04000B7EBFE
:10449000501F0CBF286A686A97FAA7F1B1FA81F138
:1044A00001F01F0106FA01F1084206D0FFF71AF8E1
:1044B000A0EB08005045D9D93BE0BBF1000F03D079
:1044C000E86920F08050E861A069A8B3696801F04C
:1044D0000C0108297ED04FF08078022898FAA8F0C5
:1044E000B0FA80F04FEA800000F1844000F58400CB
:1044F0004FF00077C0F800901FD0FEF7F3FF04469E
:1045000097FAA7F0B0FA80F040F02000400914BFFD
:104510002968696A97FAA7F0B0FA80F000F01F00E6
:1045200006FA00F0014260D0FEF7DCFF001B022813
:10453000E6D90320BDE8F88F57E0FEF7D3FF8146A8
:1045400097FAA7F0B0FA80F040F02000400914BFBD
:104550002868686A97FAA7F1B1FA81F101F01F01A2
:1045600006FA01F1084206D0FEF7BCFFA0EB0900F5
:104570000228E5D9DDE7E86A616A20F00F00084308
:10458000E862D4E907100843696821F4761108430A
:10459000686098FAA8F0B0FA80F0800000F18440DA
:1045A00000F584000660FEF79DFF044697FAA7F029
:1045B000B0FA80F040F02000400914BF2868686A13
:1045C00097FAA7F1B1FA81F101F01F0106FA01F1A2
:1045D000084200E006E008D1FEF784FF001B022835
:1045E000E4D9A6E70120BDE8F88F0020BDE8F88FE8
:1045F0004FF0E021042808690CBF40F0040020F0CF
:104600000400086170470000411EB1F1807F24BFA3
:10461000012070474FF0E0204161054AF02182F807
:10462000141D0021816107210161002070470000F5
:104630000FE000E07047704790F83C20012A04BF6B
:104640000220704710B4012280F83C2002685368B1
:10465000D2F808C0A2F18044B4F596341FBFA2F18D
:104660008044B4F59A34A2F18044B4F5A83403D15F
:104670004C6823F4700323430C6823F070038968AB
:1046800023432CF0800C41EA0C01536002689160D6
:10469000002180F83C1010BC0846704710B5044655
:1046A000022084F83D002068016A41F21112114293
:1046B00007D1016A9210114203D1016821F0010172
:1046C0000160204600F022F8002084F83D0084F8C4
:1046D0003C0010BD002804BF0120704710B50446FF
:1046E00090F83D0028B9002084F83C00204600F0F6
:1046F000B7F8022084F83D00211D206801F05EFC1F
:10470000012084F83D00002010BD00002DE9F0419B
:10471000064600684F4DA0F18041B1F5806103D19C
:10472000E86920F00200E8613068A0F18041B1F54D
:10473000805103D1E86920F01000E8613068A0F1F1
:104740008041B1F5A05103D1E86920F02000E86173
:104750003068414FB0F1804F51D197F8B8034FF016
:10476000804401281CBF97F8B803032804D097F8A9
:10477000B80302281CD03EE001214FF09040FEF724
:10478000E7FC0C20FEF704FF00213448FEF7ABFCE9
:10479000306AFEF7F9FAE06820F48070E060A06902
:1047A00020F00300A061206A20F00100206222E0D6
:1047B00003214FF09040FEF7CBFCB06AFEF7E4FA1D
:1047C000706AFEF7E1FAA06920F00100A061A0691B
:1047D00020F48070A061206A20F001002062206A2D
:1047E00020F010002062E06820F40070E060E068D3
:1047F00020F48060E060E86920F00100E861306842
:10480000A0F18041B1F5006118BFBDE8F08197F8D3
:10481000B803032808D097F8B80302280BD097F8FC
:10482000B80301280BD00FE04FF480714FF0904097
:10483000FEF78EFC08E01E20FEF7AAFE04E0012130
:104840004FF09040FEF784FCE86920F00400E86136
:10485000BDE8F08100100240A8F20020F80200201C
:104860002DE9F04F07460068984CA0F1804187B0D1
:10487000B1F5806107D1E06940F00200E061E069D4
:1048800000F0020005903868A0F18041B1F5805138
:1048900007D1E06940F01000E061E06900F010002D
:1048A00005903868A0F18041B1F5A05107D1E069C9
:1048B00040F02000E061E06900F0200005903868D9
:1048C00000264FF002094FF0030AB0F1804F6DD17E
:1048D000DFF8FC8198F8B803012501281CBF98F87F
:1048E000B80303287CD07A4890F8B80302281CBF8C
:1048F00007B0BDE8F08FE06940F00100E061E069D9
:10490000CDE900A900F00100CDE90450CDE9026A2B
:1049100069464FF09040FEF7BDFCDFF8BC816D4862
:104920004FF4005BC8E900068020C8E902608000FF
:10493000C8F810008000C8F81CB0C8E90506404659
:10494000FEF7CEFAC7F82880C8F82470A8F144080A
:104950006248C8E900068020C8E902608000C8F803
:1049600010008000C8F81CB0C8E905064046FEF7F4
:10497000B7FA5748C7F82480C8F8247086804FF0EB
:10498000FF310160A0F80690A0F80890C0F890539D
:10499000C0F8945380F8B95380F8BA5380F8BD53E7
:1049A00080F8BE5380F8BB5380F8BC533868A0F140
:1049B0008041B1F500611CBF07B0BDE8F08FE06930
:1049C00040F00400E061E06900F004000590404818
:1049D00090F8B813032968D090F8B803022800E0D3
:1049E0000EE01CBF07B0BDE8F08F002209211E2099
:1049F000FEF7E6FD1E20FEF7D7FD07B0BDE8F08FFD
:104A0000E06940F00100E061E069CDE9005900F0A3
:104A10000100CDE90450CDE9026A69464FF09040AB
:104A2000FEF738FCDFF8BCB02D48CBE90006401596
:104A3000CBF80860CBE903608000CBF8140020209D
:104A4000CBF818000002CBF81C005846FEF748FAD5
:104A5000C7F820B0244A00215846CBF82470FEF74E
:104A600095FA002209210C20FEF7AAFD0C20FEF782
:104A70009BFD98F8B81340F2E73001291CBFA8F855
:104A80009A03A8F8980302D0C8F8A4638EE741F609
:104A90001F41A8F89A13A8F898036420A8F8A8035F
:104AA00088F8A05388F8C053EEE74FF48070CDE942
:104AB000000902960A20CDE903A069464FF0904014
:104AC000FEF7E8FB07B0BDE8F08F000000100240E1
:104AD000A8F200208000024080030020580002401D
:104AE0001C000240F8020020790D0008022180F825
:104AF0003D1001680A6842F001020A60012180F855
:104B00003D10002070470168CA6842F00102CA6087
:104B10000068016841F00101016000207047022136
:104B200080F83D1001680A6A41F211131A4207D158
:104B30000A6A9B101A4203D10A6822F001020A6035
:104B4000012180F83D10002070470168CA6822F0FA
:104B50000102CA600068016A41F21112114207D1D4
:104B6000016A9210114203D1016821F00101016034
:104B70000020704790F83C20012A0DBF022001233D
:104B800080F83C30704730B4022280F83D20026843
:104B9000D2F808C02CF0770C2CF4803C2CF47F4C1D
:104BA000C2F808C00A68502A47D00CDC202A7DD001
:104BB00004DC002A7BD0102A7AD0B7E0302A78D0E3
:104BC000402A78D0B2E0602A54D0702A0DD0B2F5D5
:104BD000805F03D0B2F5005F1DD0A7E001688A684E
:104BE00022F0070222F4803242E00268D1F804C0C9
:104BF0008C68C96895684CEA012125F47F452143FA
:104C00002943916001688A6822F0770222F4803299
:104C100042F077022CE00268D1F804C08C68C968C1
:104C200095684CEA012125F47F4521432943916091
:104C300001688A6842F480421AE00268D1F804C030
:104C4000C968146A156A25F001051562956924F092
:104C50000A0425F0F00545EA011144EA0C0C9161C3
:104C6000C2F820C001688A6822F0700242F0570240
:104C70008A605BE00268D1F804C0CC68116A21F058
:104C8000100111629569116A25F4704545EA0434F2
:104C900021F0A00141EA0C119461116201688A6857
:104CA00022F0700242F067028A603FE02FE01EE0CF
:104CB00025E034E0FFE70268D1F804C0CC68116A4F
:104CC000156A25F001051562956921F00A0125F0A4
:104CD000F00545EA041441EA0C019461116201688F
:104CE0008A6822F0700242F047028A601EE0016882
:104CF0008A6822F0700242F007028A6016E00168BA
:104D00008A6822F0700242F017028A600EE00168A1
:104D10008A6822F0700242F027028A6006E0016889
:104D20008A6822F0700242F037028A6080F83D30D3
:104D3000002180F83C1030BC0846704770470000E6
:104D400090F83C30012B04BF022070472DE9F0039E
:104D50004FF0010C80F83CC0022380F83D30F02475
:104D6000002A36D02302042A7DD0082A026879D08E
:104D7000D1E90065CC68176A27F480571762D2F82A
:104D80001C80176A28F4407848EA052503EA0433B2
:104D900025F470452B434FF4204527F4204405EAC1
:104DA00006352C43D36114620268D36923F440634F
:104DB000D3610268D369896843EA0121C2F81C10F3
:104DC00080F83DC0002180F83C10BDE8F0030846A3
:104DD00070470268D1E90068CD68136A23F00103C7
:104DE00013629369176AA2F18049B9F5963918BF21
:104DF000B2F1804F1BD0A2F18049B9F580691CBF88
:104E0000A2F18049B9F5006911D0A2F18049B9F544
:104E10009A391CBFA2F18049B9F5A03907D0A2F197
:104E20008049B9F5A83918BF43F0010303D123F035
:104E3000030343EA080304EA051423F0F0032343C1
:104E400027F00A0406F00A052C43936114620268F5
:104E5000936923F00C03936102689369896819438D
:104E600027E000E027E00268D1E90065CC68176A16
:104E700027F010071762D2F81880176A28F44078D4
:104E800048EA052503EA043325F470452B43A025A1
:104E900027F0A00405EA06152C439361146202680A
:104EA000936923F44063936102689369896843EAD4
:104EB0000121916184E7D1E90063CD68176A27F485
:104EC00080771762D769D2F8208027F0030704EAB9
:104ED00005143B4323F0F00323434FF4206528F4EB
:104EE000206405EA06252C43D36114620268D36965
:104EF00023F00C03D3610268D369896819435DE725
:104F0000002804BF0120704710B5044690F83D000A
:104F100028B9002084F83C00204600F00CF802205C
:104F200084F83D00211D206801F048F8012084F834
:104F30003D00002010BD704770B50446006801694F
:104F40004FF0000511F0020F1CBFC16811F0020FF5
:104F500013D06FF002010161012020772068806981
:104F600010F0030F204602D0FFF7E8FE04E000F047
:104F700099F8204600F097F825772068016911F02C
:104F8000040F1CBFC16811F0040F13D06FF00401AF
:104F90000161022020772068806910F4407F20465C
:104FA00002D0FFF7CBFE04E000F07CF8204600F0D2
:104FB0007AF825772068016911F0080F1CBFC168D5
:104FC00011F0080F13D06FF0080101610420207761
:104FD0002068C06910F0030F204602D0FFF7AEFE34
:104FE00004E000F05FF8204600F05DF825772068C7
:104FF000016911F0100F1CBFC16811F0100F13D020
:105000006FF010010161082020772068C06910F45A
:10501000407F204602D0FFF791FE04E000F042F806
:10502000204600F040F825772068016911F0010F53
:105030001CBFC16811F0010F05D06FF001010161C3
:10504000204600F031F82068016911F0800F1CBF84
:10505000C16811F0800F05D06FF08001016120461A
:10506000FFF7E8FA2068016911F0400F1CBFC16822
:1050700011F0400F05D06FF040010161204600F0B3
:1050800048F92068016911F0200F1ABFC16811F0BA
:10509000200F70BD6FF0200101612046BDE8704017
:1050A000FFF7C9BA704770472DE9F0437A4F0021E6
:1050B0002DED028B81B06A46F86806F023F8774C34
:1050C00094F8BF03DFF8D891DFF8D88101260025D6
:1050D000002867D084F8BF537348FCF743FD0028CD
:1050E00000F0CE8084F8B95301F018F9C4F89003A9
:1050F000E08804EB8000C0682169401AFBF7D4F90E
:1051000041EC180BE088401EFBF7BDF953EC182B5F
:10511000FBF74AF941EC180BD4F89003A188D9F8B1
:105120000020491C51434843FBF7BEF953EC182BB0
:10513000FBF7C8F841EC100B84EDE00B94EDE00BAD
:1051400001F062F894F8BB0328B96089E08084F824
:10515000BD5384F8BB63E088D4F89013B0FBF1F240
:1051600001FB120161B184F8BD53D4F89013B0FB78
:10517000F1F0D4F89013D4F8902300FB0120E080E4
:105180004948FDF7C2FDE38804F11002474946484B
:10519000FDF723FF00236A4645A1D8F8000005F07B
:1051A00023FF6DE094F8BF03012869D084F8BF6342
:1051B0004248FCF7D7FC002862D084F8BF6384F82B
:1051C000BA5301F04DF9C4F89403208904EB800030
:1051D000D0F8C401D4F8C811401AFBF765F941ECC6
:1051E000180B2089401EFBF74EF953EC182BFBF7E8
:1051F000DBF841EC180BD4F89403A188D9F800200F
:10520000491C51434843FBF74FF953EC182BFBF76C
:1052100059F841EC100B84EDE20B94EDE20B01F038
:1052200093F894F8BC0328B9A089208184F8BC6362
:1052300084F8BE532089D4F89413B0FBF1F201FB3B
:10524000120161B184F8BE53D4F89413B0FBF1F0AD
:10525000D4F89413D4F8942300FB0120208117483C
:10526000FDF753FD238904F5E47215491348FDF752
:10527000B4FE00236A4613A1D8F8000005F0B4FE7E
:1052800000236A461946F86805F0AEFE01B0BDEC91
:10529000028BBDE8F0830000A4010020A8F20020EA
:1052A00000000020F80000203C03002034000040F3
:1052B0004749634461746153656E64008003002054
:1052C000380000404C49634461746153656E64006A
:1052D00070B5044690F83C00012804BF022070BD60
:1052E000012584F83C50022084F83D00204601F05E
:1052F00079F92068C16821F04001C1602068C16867
:1053000021F48041C16084F83D50002084F83C00C5
:1053100070BD7047002804BF0120704710B50446D7
:1053200090F8690028B9002084F86800204600F051
:1053300029F8242084F869002068016821F001011F
:105340000160204601F0D6FA012808BF10BD606A4E
:1053500000281CBF204601F02FFA2068416821F484
:10536000904141602068816821F02A0181602068B5
:10537000016841F0010101602046BDE8104001F0E4
:1053800088BA000010B50068154C86B0A0421CBF5A
:1053900006B010BD1348C16941F40031C161C06954
:1053A000694600F4003005900C2000900220019026
:1053B0000120029003200390072004904FF09040BA
:1053C000FDF768FF206840F02000206000220621E1
:1053D0002620FEF7F5F82620FEF7E6F806B010BD09
:1053E00000440040001002407047704770B51848F4
:1053F00086B04FF0A0410160164E4FF480314160FD
:10540000B16800240461C461446281604FF480612A
:105410000163012505628910C460C1620421C0E9ED
:105420000514C0E90D54FCF779FF06F110000A4994
:10543000007851F82000CDE900050394F06802904F
:105440000494694605940248FCF7A0FC06B070BDC0
:10545000600400200C00002094B7000870B51848C4
:1054600086B016490160174E09024160B1680024F8
:105470000461C461446281604FF48061016301256D
:1054800005628910C460C1620421C0E90514C0E945
:105490000D54FCF743FF06F110000B49407851F81A
:1054A0002000CDE900050394F06802900494694659
:1054B00005940348FCF76AFC06B070BD000100507B
:1054C000B40400200C000020CCB7000870B51848C8
:1054D00086B016490160174E89014160B168002409
:1054E0000461C461446281604FF4806101630125FD
:1054F00005628910C460C1620421C0E90514C0E9D5
:105500000D54FCF70BFF06F110000B49807851F8A1
:105510002000CDE900050394F068029004946946E8
:1055200005940348FCF732FC06B070BD000400503F
:10553000080500200C000020F4B7000870B51948D9
:1055400086B017490160184E4FF480314160B16850
:1055500000240461C461446281604FF4806101638E
:10556000012505628910C460C1620421C0E90514E7
:10557000C0E90D54FCF7D2FE06F110000B49C078CB
:1055800051F82000CDE900050394F06802900494DE
:10559000694605940348FCF7F9FB06B070BD0000AE
:1055A000000500505C0500200C00002004B8000835
:1055B00000B50E4983B00C4808600846FDF77AFA3A
:1055C000042000900A4800226946006801900748BC
:1055D000FDF746FA14200090102269460348FDF7B3
:1055E0003FFA03B000BD000000740040C403002077
:1055F00008000020094881B0416941F00201416181
:10560000416901F002010091416941F001014161EC
:10561000406900F00100009001B0704700100240A6
:10562000294810B5416986B041F4002141614169C2
:1056300001F400210591416941F480014161416912
:1056400001F480010591416941F4003141614169F2
:1056500001F400310591416941F4802141614069C3
:10566000002400F4802005904FF40050009017486B
:10567000CDE9010469461648FDF70CFE0C200090A8
:105680000220CDE901040720CDE9034069464FF02F
:105690009040FDF7FFFD4FF48070CDE9000401203C
:1056A000029069464FF09040FDF7F4FD4FF4007012
:1056B00000901120CDE9010469464FF09040FDF7BC
:1056C000E9FD06B010BD00000010024000001210FD
:1056D0000008004830B51A4800248DB04FF08045CE
:1056E000C0E90054611EC0E9024104618461FEF713
:1056F000F1FF6814CDE90604089406A9104809943E
:10570000FFF738FAA81300903020CDE9010469466C
:105710000B480394FFF7DCFD0A940AA908480C948F
:10572000FEF78AFFE86840F48070E860A86940F0FE
:105730000300A861286A40F0010028620DB030BD66
:105740007802002030B5254800258DB04FF0804408
:10575000C0E90045691EC0E90251802105618161EF
:10576000FEF7B8FFA014089008A91C48FFF702FA3A
:105770001A48FFF7C5FB049504A918480695FEF7DB
:105780005BFF0120CDE900500295002269461348D5
:105790000395FFF7D5FA042269461048FFF7D0FABF
:1057A000E06840F48070E060A06940F00100A06112
:1057B000A06940F48070A061206A40F0010020627E
:1057C000206A40F010002062E06840F40070E06061
:1057D000E06840F48060E0600DB030BD78020020E9
:1057E00010B50E4888B00C490024C0E9001484604C
:1057F000C4600461FEF76EFF4FF48050049004A96A
:105800000648FFF7B7F92020009069460294034844
:10581000FEF712FF08B010BD00040040B8010020E0
:1058200070B52048204C88B01D49016094F8B82319
:1058300040F2E731032A08BF41600AD094F8B83338
:1058400041F61F42012B1ABF94F8B833022B426075
:1058500000D1C1604FF0000585604FF08006866181
:1058600005611048FEF736FF94F8B80303280CBF13
:105870004FF400504FF4805004A904900948FFF7FA
:1058800079F92020009094F8B80302280CBF029503
:10589000029669460348FEF7CFFE08B070BD0000CF
:1058A00000080040B8020020A8F2002010B50C4803
:1058B00084B00A490160002440F2FF714460C0E9ED
:1058C00003148460FEF706FF2020009069460294CE
:1058D0000348FEF7B1FE04B010BD00000010004008
:1058E000F801002010B50C4884B00A49016000247A
:1058F00040F2FF714460C0E903148460FEF7EAFEE1
:1059000020200090694602940348FEF795FE04B0FB
:1059100010BD00000014004038020020084807496C
:1059200001604FF4E1314160002181600C22C160CF
:10593000C0E904128161C161FFF7ECBC0044004082
:10594000C006002009494868022200F4701002EBEA
:1059500090404A68C96A02F4C03201F00F01044B5A
:10596000491CB3FBF1F148437047000000100240AE
:1059700000127A0088B000221421052005F08CF86E
:105980005C4FB862042005F05FF8386304F058FA01
:10599000DFF864B1594E4FF0060A4FF000084FF09F
:1059A000010900235A1E03A9B86A05F0B2F84FF0A6
:1059B000FF31386B05F0EDFB9DF80C0032280CD060
:1059C000332811D0342849D035287DD0362804BF5B
:1059D00096F82000062878D088E096F82000002865
:1059E00018BF86F820A081E096F8200035460528EB
:1059F0001CBF95F82000002878D004F009F9C7F8FA
:105A00000C80CDF80480FBF7DFF8A86801A900F04E
:105A1000E3FD0198FBF768F95FF0000495F82100B9
:105A2000A04206D9EA6B05EB8400416A2046FBF7E9
:105A300069F8601CC4B2042CF0D30198E86095F8B2
:105A4000200006281CBF95F8200004284ED085F8B9
:105A50002090C7F8188004F0DDF847E096F82000A1
:105A600001281CBF96F8200002283FD096F820009D
:105A700003281CBF96F82000042837D0C7F80C80F4
:105A8000CDF80880FBF7A0F8B06802A900F0A4FDEB
:105A90000298FBF729F9002496F82100A04206D9C4
:105AA000F26B06EB8400416A2046FBF72BF8601C82
:105AB000C4B2042CF0D30298F06086F8209004F071
:105AC000A9F800235A1E02E007E00BE00EE00CA14B
:105AD000DBF8000005F046F908E004F099F886F8D4
