:020000040800F2
:1000000078FB002059020008610200086302000822
:10001000650200086702000869020008000000008D
:10002000000000000000000000000000A90100081E
:100030006D02000800000000ED0100083D650008A9
:1000400073020008730200087302000873020008BC
:1000500073020008730200087302000873020008AC
:10006000730200087302000873020008730200089C
:10007000451C0008730200087302000873020008A0
:10008000730200087302000873020008730200087C
:10009000730200087302000873020008730200086C
:1000A000730200087302000873020008730200085C
:1000B00073020008730200083D660008730200081E
:1000C000730200087302000873020008730200083C
:1000D00073020008730200081D790008730200080B
:1000E000730200087302000873020008730200081C
:1000F000730200087302000873020008730200080C
:1001000073020008000000000000000073020008F5
:1001100073020008730200087302000873020008EB
:1001200073020008730200087302000873020008DB
:1001300073020008730200080000000000000000C5
:100140007302000873020008730200080000000038
:10015000000000000000000000000000000000009F
:10016000730200087302000873020008730200089B
:10017000730200087302000873020008730200088B
:100180007302000873020008000000000000000075
:1001900073020008DFF80CD000F066FB004800474F
:1001A000959D000878FB0020234B19680868B0E88B
:1001B000F04F80F309884FF0000080F311887047FA
:1001C0000000000003480068006880F3088862B6F9
:1001D00000DF00BF08ED00E0DFF80C00016841F42B
:1001E00070010160704700BF88ED00E0EFF3098007
:1001F000114B1A681EF0100F08BF20ED108A20E97D
:10020000F04F106008B44FF0500080F311880BF0ED
:10021000E7FD4FF0000080F3118808BC19680868FA
:10022000B0E8F04F1EF0100F08BFB0EC108A80F35A
:100230000988704700BF00BF98000020EFF31180CD
:100240004FF0500181F31188704780F31188704797
:10025000EFF30580704700000648804706480047D6
:10026000FEE7FEE7FEE7FEE7FEE7FEE7FEE7FEE766
:10027000FEE7FEE7D56500089501000840EA0103A6
:100280009B0703D009E008C9121F08C0042AFAD24C
:1002900003E011F8013B00F8013B521EF9D2704710
:1002A000D2B201E000F8012B491EFBD270470022B8
:1002B000F6E710B513460A4604461946FFF7F0FF65
:1002C000204610BD2DE9FE4F81EA030404F00044EE
:1002D00021F0004100944FF0000B23F0004350EA5E
:1002E00001045ED052EA03045BD0C3F30A54C1F3A5
:1002F0000A552C44A4F2F3340194A0FB0254C1F338
:10030000130141F48011C3F3130343F4801301FB81
:10031000024400FB034E840A970A44EA815447EAE8
:100320008357A4FB076802958D0A05FB07854FEAF2
:10033000932C04FB0C542705029D4FEA065847EA0C
:100340001637B5EB08056EEB070C870E920E47EAE1
:10035000811742EA8312A7FB0201B6EB0B0164EBA3
:1003600000042B0D43EA0C335E1844EB1C50DA46B4
:100370005146E7FB0201C5F313044FEA0B3343EA8E
:1003800014534FEA0432019C43EA0603A4F10C041F
:100390000294009CCDE900B400F042F903B0BDE83E
:1003A000F08F00200146F9E72DE9F04D81EA0304C2
:1003B00004F0004B21F0004514464FF0000A23F0F2
:1003C000004150EA050220D054EA01021DD0C5F3D5
:1003D0000A570246C5F31303C1F31300C1F30A56CB
:1003E00040F4801543F48013A7EB0608101BD64693
:1003F00008F2FD3873EB050002D308F1010801E0B3
:1004000092185B41B8F1000F03DA00200146BDE805
:10041000F08D00204FF48011064684460EE0171B35
:1004200073EB050705D3121B63EB050306434CEA88
:10043000010C49084FEA300092185B4150EA01076D
:10044000EDD152EA030012D082EA040083EA0501EA
:10045000084305D0101BAB4106D20122002306E061
:1004600000224FF0004302E06FF0010253101AEB3C
:1004700006004CEB085110EB0A0041EB0B01BDE804
:10048000F04D00F0BEB80EB5C10F80EAE070084430
:10049000CA07002140F233438DE80E000A460B469E
:1004A00000F0BEF803B000BD0EB540F2334102913A
:1004B0000021CDE900110A460B4600F0B1F803B067
:1004C00000BDC1F30A5210B5C1F3130140F2FF336E
:1004D00041F480119A4201DA002010BD40F233430A
:1004E0009A42A2F2334203DC524200F07AF810BD85
:1004F000904010BD30B5041E71F1000404DB4FF0D4
:100500000044404264EB0101141E73F1000405DB5A
:100510001C464FF00043524263EB04038B4208BF7A
:10052000824230BD30B5041E71F1000404DB4FF08F
:100530000044404264EB0101141E73F1000405DB2A
:100540001C464FF00043524263EB0403994208BF3C
:10055000904230BD30B50B460146002020220124D8
:1005600009E021FA02F59D4205D303FA02F5491B81
:1005700004FA02F52844151EA2F10102F1DC30BD97
:100580002DE9F05F0546002092469B4688460646C8
:10059000814640241BE0284641464746224600F05B
:1005A00020F853465A46C01A914110D311461846B6
:1005B000224600F06BF92D1A67EB01084F462246E0
:1005C0000120002100F062F917EB00094E41201EC6
:1005D000A4F10104DFDC484631462A464346BDE823
:1005E000F09F202A04DB203A21FA02F00021704714
:1005F00021FA02F3D040C2F120029140084319468B
:10060000704710B5141E73F1000408DA401C41F164
:10061000000192185B411A4301D120F0010010BD86
:100620002DE9F04D92469B4611B1B1FA81F202E0FC
:10063000B0FA80F22032904600F028F904460F46C6
:1006400040EA0A0041EA0B0153465A46084313D0D8
:10065000114653EA010019D0C8F140025046FFF795
:10066000C0FF05460E4650465946424600F00EF978
:10067000084305D0012004E020463946BDE8F08D4E
:100680000020054346EAE0762C4337430A98630589
:10069000E40AA0EB08000022FD0A44EA47540A30AD
:1006A00002D500200146E9E7010510196941DDE99D
:1006B000084500196941BDE8F04DA2E72DE9FE4F5C
:1006C000804681EA0300C00F0C46009021F00041F3
:1006D00023F00045B8EB0200A94105D2404621466F
:1006E00090461C460B46024623F00040104347D07C
:1006F000270DC7F30A00C3F30A510290401A019074
:1007000040286BDAC3F3130040F4801B0098924634
:1007100020B10023D2EB030A63EB0B0B019859467F
:10072000C0F14002504600F0B1F806460D46504672
:100730005946019A00F0B9F810EB08006141002415
:1007400087EA115284EAE7731A4340D0009A62B3F1
:10075000019A012A4FEA075215DC001B61EB0201E6
:100760004FF0004202EA0752CDE90042001C41F579
:10077000801132462B46FFF753FF03B0BDE8F08FE0
:1007800040462146F9E7001B61EB0201001C41F5E0
:10079000801300185B412018A2F5001747EB0301F6
:1007A00040EAD570B6196D4111E06D084FEA360682
:1007B00045EAC0754FEA0752001B61EB0201001CBD
:1007C00041F5801149084FEA300000195141324685
:1007D0002B4603B0BDE8F04FFFF713BF009801228E
:1007E00040000023D0EB020263EBE0730098214647
:1007F0004FEAE074B8EB000061EB0401E9E783F035
:1008000000435BE781F0004158E770B521F00043F9
:1008100003430CD0C1F30A550024D5EB040564EB67
:100820000403D617AD1AB34102DB0020014670BDA8
:10083000201841EB025170BDC1F30A52C1F31301FC
:1008400040F2FF3341F480119A4202DA002001465F
:10085000704740F233439A42A2F2334202DC5242E2
:10086000FFF7BFBE00F012B8064C074D06E0E06887
:1008700040F0010394E8070098471034AC42F6D3E7
:10088000FFF78CFC18CF000838CF0008202A04DBC3
:10089000203A00FA02F1002070479140C2F1200393
:1008A00020FA03F3194390407047202A06DBCB1748
:1008B000203A41FA02F043EAE07306E041FA02F31B
:1008C000D040C2F1200291400843194670472DE9FB
:1008D000F04D00231A461B1A8A4103DB0020014613
:1008E000BDE8F08DC1F30A52C1F3130141F4801544
:1008F0004FF0000BD10702D100186D41521E0027A6
:10090000044640F2FF11384601EB620A3E4680463B
:10091000024600204FF48011FFF763FEC2197141B7
:10092000BB1846EB0100B4EB030C75EB000C04D3D1
:10093000E41A65EB000517460E46241908F101007C
:100940006D4180463428E3DDF91946EB0600091BAA
:10095000A84103D24FF0FF32134601E000221346B4
:100960001BEB070046EB0A51BDE8F04DFFF749BE0F
:1009700070B58C1810F8015B15F0070301D110F861
:10098000013B2A1106D110F8012B03E010F8016B8E
:1009900001F8016B5B1EF9D12B0705D40023521E11
:1009A0000DD401F8013BFAE710F8013BCB1A921C79
:1009B00003E013F8015B01F8015B521EF9D5A14277
:1009C000D8D3002070BD000070B504460020226816
:1009D000936813F00C0F5ED0D36813F0007F05D03E
:1009E000E369012B04BFA369012B0BD0602922D03E
:1009F0002068826812F0040F1BD0826812F0020F88
:100A000013D016E013680C2113F0400F08BF234BDE
:100A100008D101E0984230D2D2F800C0401C1CF04E
:100A2000400FF7D040201060E2E7826842F01002E9
:100A300082600C2914D02068826812F0080F07D059
:100A4000826812F0020F03D1826842F020028260B5
:100A5000602908BF082504D06C2908BF0C2500D0E8
:100A6000042502F071FE064620688068284212D0F4
:100A700002F06AFE801B0B2809D9606C40F0100060
:100A80006064A06C40F00100A064012070BD20688B
:100A900080682842ECD1002070BD0000009409005D
:100AA0000246406A416C11F0500F03D0C06B016BDD
:100AB00010460847416C41F4007141640168C968FF
:100AC00011F4406F04BFC16900290BD1416C21F4BE
:100AD00080714164416C11F4805F03D1416C41F03D
:100AE0000101416401F05EBC406A416C41F040018B
:100AF0004164816C41F00401816401F03FBD406AB2
:100B000001F051BC70B52C4C96B015460E4630B174
:100B1000012812D0022821D0032830D03FE04422FF
:100B200025496846FFF7AAFB606C1190A06C1290F3
:100B3000E06C216D1390149131E044221F49684606
:100B4000FFF79CFB1D48416C1191806C1290D4F80A
:100B5000A000D4F8A4101390149120E04422184966
:100B60006846FFF78BFB1648416C1191806C129020
:100B7000D4F8F400D4F8F810139014910FE0442244
:100B800010496846FFF77AFB0E48416C1191806C62
:100B90001290D4F84801D4F84C1113901491002EFF
:100BA00012BF002D16B070BD2A463146684601F0CE
:100BB000A3FF16B070BD000070050020C405002022
:100BC000180600206C06002010B50F4802F03EF811
:100BD0000E4802F03BF80E4802F038F80D4802F0DB
:100BE00035F80021084801F0AFF90021074801F06D
:100BF000ABF90021064801F0A7F9BDE8104000213B
:100C0000044801F0A1B9000070050020C4050020CF
:100C1000180600206C06002070B504460068816844
:100C200001F0030101292BD1016811F0010F27D038
:100C3000816801F00D01012913D1816841F00201A1
:100C4000816021680320086002F07EFD054620686F
:100C5000806810F0010F13D002F076FD401B0228CF
:100C600009D9606C40F010006064A06C40F0010095
:100C7000A064012070BD2068806810F0010FEBD1E6
:100C8000002070BD70B504460068816801F0030162
:100C9000012903D1016811F0010F23D181686FF39D
:100CA0009E1181B9816841F00101816002F04CFD23
:100CB00005462068006810F0010F13D102F044FDD2
:100CC000401B022809D9606C40F010006064A06CE1
:100CD00040F00100A064012070BD2068006810F0A1
:100CE000010FEBD0002070BD70B5214C0646A06806
:100CF000002808BF0C250AD0082808BF0A2506D0FE
:100D0000102808BF082502D0182808BF062503F0C0
:100D100079FAB0FBF6F0401B401EB0F5167F88BF95
:100D2000072017D8B52828BF062013D23D2828BF92
:100D300005200FD2132828BF04200BD2072828BF74
:100D4000032007D2042828BF022003D202282CBF88
:100D500001200020E060074801F078FF04F078FEF1
:100D600004F0B0FE04F0E8FEBDE8704004F01EBFE1
:100D70000C00002070050020F0B5404D00212DED45
:100D8000048B81B06A4628690BF036FC3C4C94F821
:100D9000B8033C4E0127012804D094F8B803042876
:100DA00046D061E005F0FEFD84F8A003B4F8980396
:100DB000B4F89A13401C491C4843FFF764FB41EC0C
:100DC000180B31480068FFF76FFB53EC182BFFF747
:100DD000EBFA41EC190B94F8A003FFF765FB41EC2B
:100DE000180BD4F8A403FFF75FFB53EC192BFFF7A4
:100DF00069FA53EC182BFFF765FA41EC100B84ED00
:100E0000EC0B94EDEC0B05F0E3FD94F8B90360B145
:100E100002F09AFC2968401AD22806D900236A46B3
:100E20001AA130680BF05AFB1EE084F8B9731BE07E
:100E300094F8B90370B102F087FC2968401A64285D
:100E400008D200236A4615A130680BF047FB06F074
:100E5000F3F809E094F8B9030028E6D000236A46C5
:100E600011A130680BF03AFB00236A461946286945
:100E70000BF034FB01B0BDEC048BF0BDA4010020ED
:100E8000B8F30020F80000200400002047457472E9
:100E90004461746153656E64000000004F526566E2
:100EA0005761726E696E670047526566446174618E
:100EB00053656E640000000010B50021084801F081
:100EC00043F80021074801F03FF80021064801F0EF
:100ED0003BF8BDE810400021044801F035B800009F
:100EE00070050020C4050020180600206C060020B4
:100EF0008AB00022142105200BF048F86B4DDFF872
:100F0000B081DFF8B091DFF8B0B1DFF8B0A16C4E7E
:100F10006C4F6D4C286000235A1E01A928680BF005
:100F200072F89DF804003128F5D100BF9DF8190032
:100F30008DF818009DF81A008DF819009DF81B0017
:100F40008DF81A009DF800008DF81B00684608F027
:100F500029F90028DFD19DF800003A2818BF3B2866
:100F6000E4D19DF81800DDF8191040EA0120A0EB4B
:100F7000080140457CD013DC10EB090039D010EBA0
:100F80000B012ED05148081836D05149C84217D10C
:100F900052480A1500234FA100680BF05DF9BAE72B
:100FA00011EB0A0051D0A0F18371B1F521612BD072
:100FB0004B48081871D0A0F6FC00B0F5C02F6FD0D8
:100FC000464800235A1E47A100680BF045F96846C1
:100FD00008F0E8F800289ED19DF800003B28F6D1E3
:100FE00099E73E4800235A1E40A100680BF034F9EF
:100FF00091E70AF041F88EE7384800235A1E3DA1D8
:1010000000680BF029F986E7052108A808F0ECF83C
:1010100004280CD39DF82000DDF8211040EA0120BF
:10102000801909D0F84218BF01203BD10BE00028FD
:1010300018BF354807D0F5E7284800235A1E334922
:1010400000680BF009F920462CE0052108A808F0FB
:10105000CBF804280DD39DF82000DDF8211040EADC
:10106000012080190AD0F84218BF02201AD1EAE7FD
:101070000CE0002818BF2448E5D0F4E71748002307
:101080005A1E234900680BF0E7F8DCE709F0C4FBBF
:1010900009F0E8FE3FE700E002E009F0DBF901E0DB
:1010A00008F06EFF09F0DEFE35E70000F4000020D6
:1010B0004F534350AEBAACDE090105E20C04F6FC16
:1010C000BDB9B8C0FEF702E0454E445FF3FEFBFF3A
:1010D00003FDF2FF43736869656C6400F80000204B
:1010E0000C1405F54539393900000000305F4944DA
:1010F0004E0000003953656E6453797374566572FF
:1011000073696F6E00000000020C0B204CAE0008EB
:10111000689F0008A2B004F01DFFFD49002401F5FE
:101120000070224601604FF400718180C480048108
:1011300084721E2105200AF029FFF64D2860042044
:101140000AF0FCFE6860F4A00DF1580C0FC88CE8A2
:101150000F00F5A0D0E9001280681A91CDE91B209C
:10116000EC4C00235A1E0DA920680AF04CFF4FF0EA
:10117000FF3160680BF087FA9DF8340030283DD0CD
:1011800031284AD0322808BF002000F00B814728C0
:1011900000F021814C2800F0A1814F2800F02A8224
:1011A000332800F03282342800F03C82352800F0E9
:1011B0004982442800F08282422800F09982432824
:1011C00000F0E082362800F0E482502800F0198315
:1011D000372808BFD7A000F01D81382808BFD7A046
:1011E00000F01881392800F02283492800F0588344
:1011F00041280CBFD3A00DA800F00CB9D1A008F075
:1012000084F8D2A008F081F808F0BEFD002818BFCD
:10121000D3A040F0FF8000F03EBB08F0A9FD0428F9
:1012200040F0398308F092FD054608F09BFD044626
:1012300008F050FD064600F081FE824609F038FFB6
:10124000010E8DF85C10010C8DF85D10010A8DF80F
:101250005E108DF85F00082E14D908F08FFD074648
:1012600008F080FD804608F077FD08FB00F0A7EB52
:10127000104005EB4000B0FBF5F105FB11006400E8
:10128000009011E008F07AFD074608F06BFD8046FB
:1012900008F062FD08FB00F0A7EB10402844B0FB0B
:1012A000F5F105FB110000908DF86060200C8DF8C1
:1012B0006100200A8DF862008DF867A000988DF813
:1012C00063402044A84283BF00982F1AA4EB07086C
:1012D000274698BF4FF000080024BAF1000F4DD9FF
:1012E000204608F017FD814604F1010B8DF866B029
:1012F000102116A807F0F6FFB7F5804F18D900980F
:101300003C46002609EB000505EB86304FF4804192
:1013100007F0E8FF701CA4F58044C6B2B4F5804F16
:10132000F2D8002C1CBF05EB8630A1B204D105E039
:1013300027B10098B9B2484407F0D4FFB8F5804F00
:1013400084BF4546002425D909EB84304FF4804101
:1013500007F0C8FF601CA5F58045C4B2B5F5804F05
:10136000F2D8002D1CBFA9B209EB843002D000BF17
:1013700007F0B8FF0BF0FF045445B1D37DA007F090
:10138000C4FF814800235A1E7CA100680AF064FF54
:1013900000F081BAB8F1000F1CBF1FFA88F148466F
:1013A000E6D1E7E700F13101441C8DF86C10E0B2A2
:1013B00008F0AAFA010C8DF87110010A8DF872106C
:1013C0008DF873000C211AA807F08CFFE0B20228F8
:1013D000E8D300F060BA6D4C94F8B80301280DD042
:1013E00094F8B803042819D094F8B803022823D03D
:1013F00094F8B803032837D000F04DBA64A007F082
:1014000084FF94EDEC0B64A153EC102B05A806F0BF
:1014100093FAF8E007F079FF00F03DBA60A007F01A
:1014200074FFD4F8A42360A105A806F085FA05A8E6
:1014300007F06BFF00F02FBA94F8BA03002840F0D1
:101440002A825BA007F061FF94EDE00B52A153EC00
:10145000102B05A806F070FA05A807F056FF01202A
:1014600084F8BA0300F017BA94F8BF0305282DD208
:10147000DFE800F02C030C1521004FA007F045FF1A
:1014800002224FA105A806F057FA1FE04EA007F070
:101490003CFF02224AA105A806F04EFA16E04CA035
:1014A00007F033FF94EDE00B4BA153EC102B05A894
:1014B00006F042FA0AE04BA007F027FF94EDE20B9A
:1014C00045A153EC102B05A806F036FA05A807F045
:1014D0001CFF002084F8BF0300F0DDB92B4C94F80A
:1014E000BB03002840F0D78140A007F00EFF94ED29
:1014F000E20B29A153EC102B05A806F01DFA05A854
:1015000007F003FF012084F8BB0300F0C4B900001A
:10151000984B0020F80000204F53435F7979797988
:10152000787878784348307847454E5F7843485F0D
:1015300046787878475F4E5800000000475F4F4B71
:101540000000000041434B5F0000000053544D3346
:1015500032463330332D4E75636C656F00000000EA
:10156000202B20536869656C64204C454F20563011
:101570002E310000535F4F4B000000003244617475
:101580006153656E7400000094010020B8F30020E0
:101590004554524400000000253031362E36660096
:1015A0005245464400000000253031306400000000
:1015B0004943314400000000544D4F5400000000E6
:1015C00025303264000000004551554C00000000F9
:1015D0004255463100000000253031362E3132664A
:1015E00000000000425546320000000049433244EA
:1015F00000000000AFA007F088FE0222AFF2400119
:1016000005A806F099F905A804E7AC4807F07DFEA7
:1016100002F0DAFD07F084FE02F0F4FD07F080FE30
:10162000A748F7E6A74807F070FE4FF4007007F0F0
:1016300077FE4FF4E13007F073FEA34807F065FE34
:10164000A248E7E6A24807F060FEA24807F068FE5D
:1016500049F6404007F064FE042007F061FE0020D8
:101660008DF8000010F0FF0008BF9B480BD0012848
:1016700008BF9A4807D0022808BF994803D003281A
:1016800008BF984801D107F040FE9DF80000401CBB
:10169000C0B28DF800000428E4D340F6E44007F01F
:1016A0003FFE9148008807F03BFE684609F0F0FCD9
:1016B0009DF8001007F016FE00F0EDB88B4807F01B
:1016C00024FE8B4807F021FE8A4807F01EFE894859
:1016D00007F01BFE884807F018FE884807F015FE43
:1016E000844807F012FE834807F00FFE824891E617
:1016F000834807F00AFE022007F0F2FD042007F0FD
:10170000EFFD022007F0ECFD012007F0E9FD7D4F21
:101710007D4E002507F1240807F14C0907F15C0A0A
:101720007A4807F0F2FD705D0024002805D81FE01C
:10173000002C1CBF764807F0E8FD002D08BF57F8C5
:1017400024000ED0012D08BF58F8240009D0022D26
:1017500008BF59F8240004D0032D08BF5AF824000C
:1017600001D107F0D2FD601CC4B2705DA042DFD889
:10177000681CC5B2042DD3D3644807F0C6FD654884
:1017800048E600BF08F000FB002814BF6248634829
:1017900040E6634807F0B9FD624807F0C1FD4FF429
:1017A000FA6007F0BDFD0C2007F0BAFD022007F03B
:1017B000B7FD002405E024B1012C08BF5A4801D030
:1017C00002E05A4807F0A1FD601CC4B2022CF2D31B
:1017D00008F0DAFA28B1564807F086FD41F21D30CC
:1017E00004E0002007F09CFD40F6E44007F098FD7F
:1017F00040F6E44007F094FD4FF4966007F090FD4A
:1018000049E04C4807F081FD022007F089FD0024E3
:1018100005E024B1012C08BF474801D002E0474849
:1018200007F073FD601CC4B2022CF2D333E04448CD
:1018300007F06BFD434807F068FD434807F065FD7E
:10184000424807F062FD424807F05FFD414807F05B
:101850005CFD414807F059FD562007F041FD01F0BD
:101860006FFF302404EB1060C0B207F039FD2E206A
:1018700007F036FD01F064FF04EB1040C0B207F042
:101880002FFD2E2007F02CFD01F05AFF04EB102055
:10189000C0B207F025FD314840680AF093FE5FE4CE
:1018A0002E4800235A1E0DA900680AF0ACFB0DA8B3
:1018B000B0E500005741524E000000003CB900085E
:1018C00044B9000838B6000840B6000848B6000819
:1018D00004B8000800093D0010B8000818B8000856
:1018E00020B8000828B80008BAF7FF1F8CB6000817
:1018F00094B60008A0B60008A4B60008A8B6000870
:10190000D0B80008000100208CCD0008E0B8000825
:10191000E4B80008E8B8000808B9000810B90008E1
:1019200020B7000880841E0034B700082CB70008D8
:10193000D9ECFFFF70B7000880B7000878B700083F
:10194000C0B90008C8B90008D8B90008E0B9000853
:10195000E8B90008F4B90008FCB90008F800002054
:1019600086B00022142105200AF010FB894DE860A2
:1019700004200AF0E3FA2861874CE86841F61F4B1F
:1019800041F26F7620B301274FF002084FF00409AF
:101990004FF0030A00235A1E6946E8680AF033FB39
:1019A0004FF0FF3128690AF06EFE9DF800003128E3
:1019B0000FD0322826D033283DD0342854D03528B3
:1019C0006BD036287ED0372874D0382873D0DCE02E
:1019D000FEE794F8B80305280FD2DFE800F00E0305
:1019E000060C090005F040FD07E005F04BFD04E0A2
:1019F00005F056FD01E005F061FD84F8B87305F0CF
:101A000059FCC2E094F8B80305280FD2DFE800F0D3
:101A10000E03060C090005F027FD07E005F032FD76
:101A200004E005F03DFD01E005F048FD84F8B883D1
:101A300005F092FCA9E094F8B80305280FD2DFE87E
:101A400000F00E03060C090005F00EFD07E005F09E
:101A500019FD04E005F024FD01E005F02FFD84F8F8
:101A6000B89305F093FC90E094F8B80305280FD2E2
:101A7000DFE800F00E03060C090005F0F5FC07E0B6
:101A800005F000FD04E005F00BFD01E005F016FD9A
:101A900084F8B8A305F0C8FC77E094F8B8030528EB
:101AA00073D2DFE800F07209030C090005F038F981
:101AB0006BE007E018E02CE005F008F865E005F0C1
:101AC0009FFB62E094F8B80305285ED2DFE800F0DF
:101AD0005D060309060005F053F956E005F026F807
:101AE00053E005F0C5FB50E094F8B80305284CD24C
:101AF000DFE800F04B03060C090005F0B5FC44E0FC
:101B000005F0C0FC41E005F0CBFC3EE005F0D6FC62
:101B10003BE0B4F8A803B0F57A7F04BFA4F89AB309
:101B200042F20F7029D008DC642816D0B0F5FA7F95
:101B300008BFA4F89A6317D021E000F67840B0F50A
:101B4000005004BF4EF65F20A4F89A030CD000F6B4
:101B50007840B0F5005F0AD011E0A4F89AB340F2E3
:101B6000E730A4F898030AE0A4F8986307E048F681
:101B70009F40A4F89A0344F61F60A4F89803B4F8B1
:101B80009A13B4F8980304F05BFE28690AF01AFD72
:101B900000E70000A4010020B8F300200149002064
:101BA0000860704708000020014902200860704763
:101BB0000800002010B5446A204601F0AAF8012070
:101BC000207110BD10B5446A204601F078F801205C
:101BD000207110BD10B5446A206940F004002061F6
:101BE000204601F098F80120207110BD10B5446A1C
:101BF000206940F004002061204601F062F80120D5
:101C0000207110BD406A01F085B810B5406A01F03E
:101C100057F810BDF8B515460E46002410B101283E
:101C200008BF10242146064801F07AF900200090F0
:101C30002B4632462146024801F0EAF8F8BD000082
:101C4000D4040020014801F017BA00000804002065
:101C500010B5284C96B0012806D0022812D00328CF
:101C600021D0042830D03FE0442222496846FEF7C4
:101C700005FB606C1190A06C1290E06C216D1390CC
:101C8000149131E044221C496846FEF7F7FA1A48DD
:101C9000416C1191806C1290D4F8A000D4F8A4107B
:101CA0001390149120E0442214496846FEF7E6FAA6
:101CB0001248416C1191806C1290D4F8F400D4F861
:101CC000F810139014910FE044220D496846FEF776
:101CD000D5FA0B48416C1191806C1290D4F84801F0
:101CE000D4F84C11139014910F980068406816B006
:101CF00080B210BD70050020C40500201806002029
:101D00006C06002010B50E490E4C88420BD10846D7
:101D100001F02DF9E38804F11002BDE810400A49F2
:101D2000074801F08CBA094801F021F9238904F52C
:101D3000E472BDE810400649044801F080BA000092
:101D40004C040020B8F30020340000409004002030
:101D500038000040C16B0A6890F84030022098407B
:101D6000104204BF00207047034A92F8B823022AA9
:101D700008BF486001207047B8F3002000B585B067
:101D800004F062FC0021094801F0BEF81021074868
:101D900001F0BAF8302000900020019002906946CE
:101DA0004FF0904001F0A8FB05B000BDD404002026
:101DB00000B5154985B013480860084600F0ACFF2F
:101DC00004200090114800226946006801900E48E6
:101DD00000F078FF14200090102269460A4800F0B5
:101DE00071FF30200090032001900020029069468E
:101DF0004FF0904001F080FB05B05DF804EB04F07B
:101E000031BC000000740040D40400200800002011
:101E100086B00022142105200AF0B8F8DFF81481FA
:101E20004549A1F12C04C8F8000021604FF47A70F4
:101E30006060E060A06020610126A6756062208479
:101E4000A161002727750C20208500235A1E6946B2
:101E5000D8F800000AF0D7F89DF80000312818BF24
:101E60003228F2D0332808BF207DEED0342809D0A4
:101E700035284AD0362858D0372804BF667504F074
:101E8000FFFBE2E7207D0028DFD1607D012808BF4D
:101E9000002505D0607D002808BF002520D032E055
:101EA00004EB8509D9F804000022294605F024F93D
:101EB000A07DA84208D904EB4500028CD9F818107F
:101EC0002846FFF7A7FE04E0002211462846FFF748
:101ED000A1FE681CC5B2022DE2D3FFF769FF12E034
:101EE00004EB850040680022294605F005F9A07D35
:101EF000A84284BF284604F02FFD681CC5B2022DFD
:101F0000EED304F067F826759FE7207D01289CD169
:101F1000607D012805D0607D002808BF04F02EF800
:101F200001E0FFF72BFF27758FE7677504F0D8FBFB
:101F30008BE70000A0010020E4EB0020014890F8AE
:101F40002100704774EB00202DE9F041044690F821
:101F500040000D46012804BF0220BDE8F0814FF08B
:101F6000010884F840802046FEF756FE06004FF038
:101F7000000718BF012604D084F840703046BDE841
:101F8000F081C4F844802068816821F0804181603C
:101F9000012D04D12068816841F080418160206872
:101FA000816841F00041816001F0CEFB0546206868
:101FB000806810F0004F14D001F0C6FB401B0A28C7
:101FC0000AD9606C20F0020040F01000606484F8D0
:101FD00040700120BDE8F0812068806810F0004F5B
:101FE000EAD1606C20F0020040F001006064C3E7B9
:101FF0002DE9F00198B04FF0000CCDF808C090F832
:1020000040206446012A01BF022018B0BDE8F0015B
:102010007047012780F840700268936813F0040F3E
:1020200040F05D814B681F25052B0CD2166B03EB2E
:1020300043035B009D4026EA05050E6806FA03F39C
:102040002B4313632CE00A2B0DD2566B5B1F03EB63
:1020500043035B009D4026EA05050E6806FA03F37C
:102060002B4353631CE00F2B0DD2966B0A3B03EB03
:1020700043035B009D4026EA05050E6806FA03F35C
:102080002B4393630CE0D66B0F3B03EB43035B00E6
:102090009D4026EA05050E6806FA03F32B43D36339
:1020A000026893684FF0070513F00C0F64D10B68BA
:1020B0000A2B0ED396690A3B03EB430305FA03F898
:1020C00026EA0806D1F8088008FA03F3334393613F
:1020D0000CE0566903EB430305FA03F826EA080609
:1020E000D1F8088008FA03F33343536102684B695F
:1020F000D668D1F81080C6F3C1067600B340A14E71
:10210000B8F1010F3FD0B8F1020F49D0B8F1030F79
:1021100053D0B8F1040F5DD0136E0E7803F0F8437E
:10212000B3EB866F03D1136E23F00043136602688E
:10213000536E0E7803F0F843B3EB866F03D1536E02
:1021400023F0004353660268936E0E7803F0F84361
:10215000B3EB866F03D1936E23F00043936602685E
:10216000D36E0E7803F0F843B3EB866F04BFD36EE3
:1021700023F0004300D1D3660268936803F00303A1
:10218000012B37D132E0D2F8608008EA060691F8D8
:10219000008043EA8863334343F000431366EBE770
:1021A000D2F8648008EA060691F8008043EA886362
:1021B000334343F000435366DEE7D2F8688008EA11
:1021C000060691F8008043EA8863334343F00043F6
:1021D0009366D1E7D2F86C8008EA060691F8008091
:1021E00043EA8863334343F00043C4E7136813F0C2
:1021F000010F7AD1CB68012BD2F8B03006D00D7820
:1022000007FA05F5AB43C2F8B03022E00E7807FAC2
:1022100006F63343C2F8B0300A6803680A2A0CD3C2
:102220009E69093A02EB4202954026EA05058E684E
:1022300006FA02F22A439A610BE05E69521C02EB35
:102240004202954026EA05058E6806FA02F22A4304
:102250005A6103684C4DB3F1A04F16BFAB424B4AD5
:102260004B4A0968102908D011290BD0122904BF44
:10227000966816F4800F09D037E0966816F4000FC0
:1022800033D103E0966816F0807F2ED1B3F1A04FD2
:102290000FD0AB4204BF4FF0A04503950AD03D4D8F
:1022A0003D4EAB4208BF039604D0B34218BF03941F
:1022B00000D103959D6805F00305012D03D11D682C
:1022C00015F0010F0BD1039DB5B1AD6805F0030505
:1022D000012D11D1039D2D6815F0010F0CD0416C1B
:1022E00041F0200141644FF0010C80F8404018B0EB
:1022F0006046BDE8F0017047102909D0112933D09C
:10230000122904BF916841F48001EED19160ECE79D
:10231000B3F1A04FE9D1916841F4000191601F49E8
:102320001F4A0968B1FBF2F101EB810149000291FA
:102330000091DAD0B1F1004F1ED20029D8BF0021A0
:1023400005DD11F0010102D0029A521E0292009A9C
:10235000491C521C9142C8DA029B891C5B1E5B1E01
:1023600002939142F8DBC0E7B3F1A04F04BF91683C
:1023700041F08071B9D1C9E70299491E0291FCD19F
:10238000B3E7000000F0FF8300010050000300509D
:10239000000700500004005000050050900000208D
:1023A00040420F0070477047002804BF012070476B
:1023B00070B50446406C96B040F0020060646C2139
:1023C0002046FEF701FB05004FF0000640F0BC8000
:1023D0002068C16841F40011C1602046FEF71CFC72
:1023E000050018BF012540F0AF800120606420681F
:1023F00041686FF30A014160216840F2FF70086094
:102400002068816821F0E04181602068816841F0A6
:10241000005181602068C1684E4A1140C160206847
:1024200041696FF3DD0141612068816901F0784104
:1024300081612068016A01F0F02101622068416A2F
:1024400001F0FF2141622068816A01F0FF21816271
:102450002068016B404A114001632068426B3F498C
:102460000A4042632068826B114081632068C16B1F
:1024700021F0DF0121F4E061C16321680A6E384870
:1024800002400A6621684A6E02404A6621688A6EE6
:1024900002408A662168CA6E1040C8662068D0F87B
:1024A000A0106FF31201C0F8A0102068D0F8A4109B
:1024B0006FF31201C0F8A4102068D0F8B0106FF3C9
:1024C0001201C0F8B0102068D0F8B41021F07F11CC
:1024D000C0F8B4102068234AB0F1A04F1ABF904250
:1024E00021492249B0F1A04F0FD0904204BF4FF0D4
:1024F000A04200920AD01E4A1E4B904208BF009391
:1025000004D0984218BF009600D10092826802F071
:102510000302012A03D1006810F0010F0FD10098C7
:1025200048B1806800F00300012804D100980068D9
:1025300010F0010F03D188680F4A104088602046D0
:1025400000F08CF9A664666484F8406016B02846F2
:1025500070BD000004800080300882E0200882E026
:1025600000F0FF030001005000070050000300507E
:102570000004005000050050E0103CFE70470000D1
:1025800070B598B04FF0000604003546029602BFC1
:10259000012018B070BD606C10F0100F606C03D09B
:1025A00010F0100F69D06DE000284BD1A5642565AF
:1025B000E56484F84050204600F052F920688068B5
:1025C00010F0805F3ED12046FEF726FB0646606C89
:1025D00010F0100F08BF002E34D1606C20F488502A
:1025E00040F0020060642068816821F04051816001
:1025F0002068816841F0805181608F488F49006870
:10260000B0FBF1F000EB800040000290009019D088
:10261000B0F1004F80F00B810028D8BF002005DD0D
:1026200010F0010002D00299491E02910099401C4D
:10263000491C884206DA029A801C521E521E0292DF
:102640008842F8DB2068816811F0805F03D08068E1
:1026500010F0005F0BD0606C20F0020040F0100022
:102660006064A06C40F00100A064606C0AE0606CE3
:1026700010F0100F08BF002E04D12068816811F0FF
:10268000040F0AD0606C20F0020040F0100060647B
:102690004FF0010618B0304670BD616C21F48071B6
:1026A00041F002016164DFF898C1B0F1A04F1ABF98
:1026B000604564496449654B654AB0F1A04F08BF65
:1026C000CDF808C00ED0604504BF4FF0A04CCDF847
:1026D00008C007D0904208BF029303D098420CBFB5
:1026E00002920295D0F808C00CF0030CBCF1010F67
:1026F00003D1006810F0010F13D1029848B180682F
:1027000000F00300012804D10298006810F0010FC6
:1027100007D18868D4F804C020F4403040EA0C00A7
:102720008860D4E902100143A06B012814BF4FF464
:10273000805C4FF0000CE0694CEA403C41EA0C013F
:10274000D4F824C0BCF1010F0AD1E8B3606C20F0CA
:10275000020040F020006064A06C40F00100A06422
:10276000E06A01282DD0D4F800C094451CBF9C45D8
:1027700020F4805022D1B0F5307F08BF4FF4E070D4
:102780001CD0B0F5807F08BF4FF4307016D0B0F584
:10279000E07F08BF4FF4807010D0B0F58A5F08BFAB
:1027A0004FF470700AD0B0F5845F08BF4FF4A0708A
:1027B00004D0B0F5865F08BF4FF4C0700843216BAA
:1027C00001432068826800E003E012F00C0F15D18D
:1027D00008E0208DDFF87CC00CEB4040084340F45B
:1027E0008031BDE7C26822F0020222F48042C2605A
:1027F000A069626B800340EA420001432068C2681E
:10280000154B1A401143C160206901282068016BF3
:1028100021F00F0102D1226A521E11430163A56407
:10282000606C20F0020040F00100606432E7029822
:10283000401E0290FCD105E79000002040420F00AE
:102840000001005000070050000300500005005038
:10285000000400500000FEFF07C0F0FF70470000BA
:102860002DE9F04F93490446A1F11006D0F800C0BD
:1028700033688F480322802700255B1C87B04FF404
:1028800080684FF480794FF0200ABCF1A04F1ED031
:10289000ACF1A04BBBF5807B15D0A1F11003ACF1DE
:1028A000A04B5B685B1CBBF5806B7CD0ACF1A04B94
:1028B000BBF5A06B1CBF07B0BDE8F08F7360012BA8
:1028C00040F0C980B9E03360012B4BD13CE033606C
:1028D000012B0DD1436943F080534361436903F0F9
:1028E00080530593C36A23F4F87343F48073C3627F
:1028F0000878714931F81010CDE900126F4902953E
:1029000051F82000694600F0F7FDDFF8B8B16C48D7
:10291000CBE90005CBE90257B068102813BF18288F
:10292000CBF81450CBF81050CBE904984FF400507A
:10293000CBE906A0634800F005FCC4F83CB0CBF836
:10294000244007B0BDE8F08F436943F080534361F2
:10295000436903F080530593C36A23F4F87343F487
:102960008073C3624878584931F81010CDE90012DD
:102970005649029551F82000694600F0BDFDDFF888
:1029800054B15348CBE90005CBE90257B068102891
:1029900013BF1828CBF81450CBF81050CBE904988B
:1029A0004FF4005000E00BE0CBE906A0494800F0EE
:1029B000C9FBC4F83CB0CBF8244007B0BDE8F08FA9
:1029C0007360012B0DD1436943F0005343614369A8
:1029D00003F000530593C36A23F4785343F4005380
:1029E000C36288783C4931F81010CDE900123B49A8
:1029F000029551F82000694600F07EFDDFF8E4B052
:102A00003748CBE90005CBE90257B068102813BF5F
:102A10001828CBF81450CBF81050CBE904984FF499
:102A20000050CBE906A02F4800F08CFBC4F83CB066
:102A3000CBF8244007B0BDE8F08F436943F0005362
:102A40004361436903F000530593C36A23F4785349
:102A500043F40053C362C878234931F81010CDE91C
:102A600000122249029551F82000694600F044FD09
:102A7000DFF880B01E48CBE90005CBE90257B0680B
:102A8000102813BF1828CBF81450CBF81050CBE9FE
:102A900004984FF40050CBE906A0164800F052FB12
:102AA000C4F83CB0CBF8244007B0BDE8F08F00007C
:102AB000001002401C000020A8CC000820000020CC
:102AC00008000240C0060020E0CC000844000020BE
:102AD000080402400407002098CC00086C00002085
:102AE0005804024048070020A0CC00087C000020C9
:102AF0001C0402408C0700202DE9F05F04460068AA
:102B00008B469246816811F0040F18BF022502D04F
:102B10002846BDE8F09F94F84010012904BF022028
:102B2000BDE8F09F0121DFF80C91434F84F840107D
:102B30004FF0A048B0F1A04F16BFB842D8F8080334
:102B4000D9F8000010F01F0F4FF000061CBF012540
:102B500084F84060DCD12046FEF794F8050018BFE9
:102B600084F84060D4D1606C20F0010020F46060F3
:102B700040F4807060642068B0F1A04F1ABFB84282
:102B8000D9F80010D8F8081311F01F0F1EBFB0F1CC
:102B9000A04FA0F1A041B1F5806142D0616C41F439
:102BA00080116164B8420EBFD8F80C002348006859
:102BB00010F0007F05D0606C20F4005040F480508D
:102BC0006064606C10F4805F08BFA66403D0A06CE2
:102BD00020F00600A06484F84060E16B1848886229
:102BE000E16B1848C862E16B1748086321681C2034
:102BF00008602068416841F0100141602068C168A8
:102C000041F00101C1602068534600F140015A467D
:102C1000E06B00F04FFB2068816841F004018160A7
:102C200076E7616C21F480116164C06810F0007F68
:102C3000C1D1C6E708070050000100500C04005045
:102C4000A10A0008FF0A0008E90A000870B5044656
:102C500090F84000012804BF022070BD012084F8D4
:102C600040006C212046FDF7AFFE050022D1206810
:102C7000C16821F00101C160E06B00F078F9051E28
:102C800003D0606C40F0400060642068416821F02F
:102C900010014160204604D1FDF7BEFF050009D1B7
:102CA00002E0FDF7B9FF05E0606C20F4885040F0C9
:102CB00001006064002084F84000284670BD704721
:102CC000704770474379012B04BF0220704730B42E
:102CD0004FF0010C80F805C00223037103681C68E3
:102CE00040F6FE759540AC43D1E90051294391402F
:102CF0002143196001680B68C02404FA02F223EA38
:102D000002020A6080F804C00021417130BC08460C
:102D10007047704770477047002804BF0120704714
:102D200070B504460079002518B96571204600F099
:102D300007F802202071256101202071002070BD5C
:102D40002DE9F04F0546006887B0A0F18041B1F54C
:102D5000E8411CBF07B0BDE8F08F2848C16941F0C9
:102D60000051C161C069002600F00050059030207C
:102D700000900320CDE9010669464FF0904000F035
:102D8000BBFB204C4FF480791D481027C4F81090ED
:102D9000C4E900074FF4806A2020C4E905A00002BE
:102DA000E0614FF08008C4E90268204600F0CAF9EB
:102DB000DFF854B0AC606562DBF8000040F400500E
:102DC000CBF8000044341148C4F81090C4E900075F
:102DD0002020C4E905A00002E061C4E902682046A1
:102DE00000F0B0F9EC606562DBF8000040F4804070
:102DF000CBF8000007B0BDE8F08F000000100240E3
:102E000030000240E804002000000140440002407D
:102E10002DE9F04104460D4694466179002206985A
:102E2000012904BF0220BDE8F0810126667102215C
:102E30002171002D32D0E7682D49B962E7682D492C
:102E4000F962E7682C49396321680F6847F08057B9
:102E50000F60002804BF206800F114020AD0042883
:102E600004BF206800F1180204D0082804BF2068BD
:102E700000F11C022068016841F0005101606146C8
:102E8000E06800F017FA002060712068016806FA17
:102E900005F2114301600020BDE8F081A7681749E1
:102EA000B962A7681649F962A768164939632168AB
:102EB0000F6847F480570F60002804BF206800F1B6
:102EC00008020AD0042804BF206800F10C0204D0D4
:102ED000082804BF206800F110022068016841F44E
:102EE000005101606146A06800F0E4F9CBE7000002
:102EF000C51B00080B1C0008ED1B0008B51B0008D3
:102F0000051C0008D51B00080368D3F800C0012287
:102F100002FA01F12CEA01011960027100207047E8
:102F200070B50446006802684FF480538B409A43A2
:102F3000026020680268012505FA01F39A430260E5
:102F400069B1E06800F013F821680A6822F00052C5
:102F50000A6000281ABF04212171257170BDA06884
:102F600000F005F821680A6822F40052F0E70168D1
:102F70000A6822F00E020A6001680A6822F0010263
:102F80000A6090F84020C36B012101FA02F25A60F6
:102F900080F82110002180F820100846704710B5F5
:102FA00090F821100024022903D004218163012418
:102FB00019E001680A6822F00E020A6001680A68D6
:102FC00022F001020A6090F84020C36B012101FA4F
:102FD00002F25A6080F82110002180F82010416B25
:102FE000002918BF8847204610BD0000002804BFF4
:102FF0000120704701680A6822F001020A60026835
:103000000021116002685160026891600268D1601D
:10301000DFF84CC00268134B624509D2DFF848C0A4
:103020006244A3FB02321209920002640F4A08E0D4
:10303000DFF83CC06244A3FB023212099200026432
:103040000C4AC26390F84020012303FA02F2C36BDA
:103050005A60816380F8211080F8201000207047AA
:1030600008040240CDCCCCCCF8FFFDBF00000240EC
:10307000F8FBFDBF00040240F0B4C16BD1F800C002
:1030800001680B68046C042202FA04F515EA0C0FBF
:1030900018BF13F0040F12D00B6813F0200F03D1E8
:1030A0000B6823F004030B6090F8401002FA01F162
:1030B000C26B5160C16A002942D1F0BC7047022640
:1030C00006FA04F212EA0C0F4FF000054FF001026D
:1030D00018BF13F0020F15D00B6813F0200F05D1A5
:1030E0000B6823F00A030B6080F8212090F8401051
:1030F000C26B06FA01F1516080F82050816AF9B97B
:10310000F0BC7047082606FA04F414EA0C0F12BF4C
:1031100013F0080FF0BC70470B6823F00E030B6030
:1031200090F84010C36B02FA01F15960826380F895
:10313000212080F82050016B002904BFF0BC7047AB
:10314000F0BC0847002804BF0120704710B40221DA
:1031500080F8211002681168D0E9013C43EA0C03B1
:10316000D0E903C44CEA040C43EA0C03D0F814C0C1
:103170006FF30D1143EA0C03D0F818C043EA0C03B7
:10318000D0F81CC043EA0C0319431160124B0168CC
:10319000124A994208D2124B1944A2FB0121090993
:1031A000890001640F4907E00F4B1944A2FB01217C
:1031B0000909890001640D49C16300218162C1626E
:1031C000016341638163012280F8212080F820108F
:1031D00010BC08467047000008040240CDCCCCCC9F
:1031E000F8FFFDBF00000240F8FBFDBF00040240F5
:1031F00090F820C00023BCF1010F04BF02207047EB
:103200004FF0010C80F820C090F821C0BCF1010FF4
:103210000FD1002908BF82620CD0012908BFC26209
:1032200008D0022908BF026304D0032908BF426303
:1032300000D00123002180F820101846704770B498
:1032400090F820404FF0000C012C02BF022070BC0F
:103250007047012480F8204090F821600025012E5D
:103260001CBF80F820504FF0020C02D070BC6046AA
:103270007047022680F82160856305682E6826F075
:1032800001062E6090F84050AC40C56B6C6004683D
:1032900063604368102B036803BF9A600268D160C3
:1032A00099601CBF0168CA600068016841F00101B3
:1032B0000160DBE770B490F820404FF0000C012C67
:1032C00002BF022070BC7047012480F8204090F8B3
:1032D00021600025012E1CBF80F820504FF0020C09
:1032E00002D070BC60467047022680F8216085637A
:1032F00005682E6826F001062E6090F84050AC401C
:10330000C56B6C60046863604368102B036803BF7F
:103310009A600268D16099601CBF0168CA60C16A86
:10332000002901680A6818BF42F00E0206D142F077
:103330000A020A6001680A6822F004020A60006852
:10334000016841F001010160CBE790F820200023E3
:10335000012A04BF02207047012280F8202090F843
:1033600021C00022BCF1010F13D1052911D2DFE8E1
:1033700001F0030507090B0082620BE0C26209E05D
:10338000026307E0426305E08262C2620263426355
:1033900000E0012380F820201846704731B500F086
:1033A000D3F9044600F0D0F90099001B8842F9D304
:1033B00038BD00000022002908BF70472DE9F04FFA
:1033C000DFF82CB101274FF003084FF00F0C0BF181
:1033D000040E00BF07FA02F515EA01037DD0066866
:1033E000540008FA04F4A6430660D60800EB8606EB
:1033F000D6F820904FEA427A4FEADA6A0CFA0AFAD3
:1034000029EA0A09C6F820908668A64386604668BD
:1034100026EA05054560C56825EA0404C46022F073
:10342000030404F1804505F58035D5F8089094072C
:10343000260F0CFA06F404EA0909B0F1904F08BF10
:103440004FF0000A30D0A0F1904ABAF5806A08BF68
:103450004FF0010A28D0A0F1904ABAF5006A08BFDF
:103460004FF0020A20D0A0F1904ABAF5406A08BF96
:103470004FF0030A18D0A0F1904ABAF5805A08BF5D
:103480004FF0040A10D0A0F1904ABAF5A05A08BF34
:103490004FF0050A08D0A0F1904ABAF5C05A0CBF07
:1034A0004FF0060A4FF0070A0AFA06F64E4518D101
:1034B000AE6826EA0404AC60DBF800409C43CBF81D
:1034C0000040DEF800409C43CEF80040094C2568DF
:1034D0009D432560241D256800E002E025EA0303E2
:1034E0002360521C31FA02F37FF474AFBDE8F08F11
:1034F00000040140080401400B680022002B08BFB3
:1035000070472DE9F84F844EDFF810E201274FF0A5
:10351000030A4FF00F0800BF0B6807FA02F52B40B3
:1035200000F0F380D1F804C0BCF1020F18BFBCF169
:10353000120F15D14FEAD20C00EB8C09D9F82040BC
:103540004FEA427C4FEADC6C08FA0CFB24EA0B04DD
:10355000D1F810B00BFA0CFC4CEA040CC9F820C0EE
:10356000D0F800904FEA420C91F804B00AFA0CF43B
:103570000BF0030B29EA04090BFA0CFB4BEA0909CF
:10358000C0F80090D1F80490B9F1010F18BFB9F15B
:10359000020F05D0B9F1110F18BFB9F1120F18D1F0
:1035A000D0F80890D1F80CB029EA04090BFA0CFB0A
:1035B0004BEA0909C0F80890D0F8049029EA0505FB
:1035C00091F80490C9F3001909FA02F949EA0505CE
:1035D0004560C56825EA04048D6805FA0CFC4CEAD0
:1035E000040CC0F80CC0D1F804C01CF0805F7CD083
:1035F000D6F818C04CF0010CC6F818C0D6F818C0A0
:103600000CF0010CCDF800C022F0030C0CF1804C42
:103610000CF5803CDCF808504FEA82744FEA1474D1
:1036200008FA04F925EA0905B0F1904F08BF4FF0F8
:10363000000930D0A0F19049B9F5806908BF4FF07A
:10364000010928D0A0F19049B9F5006908BF4FF0F1
:10365000020920D0A0F19049B9F5406908BF4FF0A8
:10366000030918D0A0F19049B9F5805908BF4FF06F
:10367000040910D0A0F19049B9F5A05908BF4FF046
:10368000050908D0A0F19049B9F5C0590CBF4FF019
:1036900006094FF0070909FA04F42C43CCF8084056
:1036A000DEF800C04C682CEA030C14F4803F18BF0D
:1036B0004CEA030CCEF800C0194CD4F800C04D6899
:1036C0002CEA030C15F4003F18BF4CEA030CC4F8B5
:1036D00000C0144CD4F800C04D682CEA030C15F45B
:1036E000801F18BF4CEA030C00E00EE0C4F800C0D5
:1036F0000D4CD4F800C04D682CEA030C15F4001FE3
:1037000018BF4CEA030CC4F800C00B68521CD3402D
:103710007FF402AFBDE8F88F0010024000040140C2
:1037200004040140080401400C0401400069084001
:1037300018BF01207047002A14BF81618162704761
:103740004FF0827070470000014800687047000029
:103750009400002002480168491C01607047000085
:1037600094000020074810B5016841F01001016085
:10377000032000F089F80F2000F006F800F018F898
:10378000002010BD0020024010B5044607484FF449
:103790007A720068B0FBF2F001F068F8002221466E
:1037A000501E00F03FF8002010BD000090000020E7
:1037B000094808B5816941F001018161806900F023
:1037C00001000090032000F05FF80022BDE80840EF
:1037D0001146501E00F026B80010024000F01F01F4
:1037E000012202FA01F14009800000F1E020C0F856
:1037F0008012704700F01F01012202FA01F1400916
:10380000800000F1E020C0F88011704700F01F0137
:10381000012202FA01F14009800000F1E020C0F825
:1038200000117047174B10B41B68C3F30223C3F198
:10383000070CBCF1040F88BF4FF0040C1C1D072CB3
:1038400034BF0023DB1E012404FA0CFCACF1010C94
:103850000CEA0101994004FA03F35B1E1A4011437C
:1038600000284FEA0111A1BF00F1E02080F8001408
:1038700010BC704700F00F0000F1E02080F8141D2C
:1038800010BC70470CED00E0074900F007000A6823
:103890004FF6FF031A4042EA002040F0FD7040F06E
:1038A00080600860704700000CED00E070B5F949D9
:1038B00086B0034691E876108DE87610F74900202F
:1038C000DFF8D4C30A68F649B3F5805F00F087815A
:1038D00054DC202B77D038DC042B75D01ADC012B7C
:1038E00073D0022B1CBF06B070BD0A6B12F44032BD
:1038F0006CD0B2F5403F6BD0B2F5803F67D0B2F5E7
:10390000003F1CBF06B070BD096A11F0020F6FD1F5
:1039100006B070BD082B6CD0102B1CBF06B070BD5C
:103920000A6B12F4400251D0B2F5400F76D0B2F5D6
:10393000800F4CD0B2F5000F1CBF06B070BD096AF5
:1039400011F0020F70D106B070BD402B67D06D46EC
:10395000802B73D0B3F5807F71D0B3F5007F1CBF8F
:1039600006B070BD496801F40001B1F5000F02BF57
:10397000CC4806B070BD51B306B070BDB3F5001FA2
:1039800070D037DCB3F5003F6DD022DCB3F5005FBB
:103990006AD0B3F5803F1CBF06B070BD0A6A02F45E
:1039A0004072B2F5807F3BD0B2F5007F3FD0B2F5D8
:1039B000407F1CBF06B070BD096811F4003F18BFFE
:1039C000B94806B070BD9CE061E039E057E053E0D3
:1039D00058E0B3F5802F71D0B3F5801FF1D10B6B98
:1039E00003F08073B3F1807F69D0002B3DD0E8E70E
:1039F0001AE065E0B3F5800F75D0B3F5000F73D012
:103A0000B3F1807F71D0B3F1007FDAD10B6B03F497
:103A10000043B3F5004F69D03BB3D2E76CE07CE0E4
:103A2000096A11F0020FCCD04FF40040C9E7496A8F
:103A300011F0020F18BF49F64040C2E799E0B4E028
:103A40000A6B12F003020AD0032A0FD0012A13D006
:103A5000022AB6D1096A11F0020FE5D1B1E700F0F0
:103A6000D1FBAEE70DE170E0CCE09CE0096811F01D
:103A7000020FA6D06046A4E700F0DCFBA1E700F04F
:103A8000A9FB9EE7096811F0020FF3D199E70A6BD1
:103A900012F44022F3D0B2F5402F0AD0B2F5802FB5
:103AA000EAD0B2F5002F8CD1096A11F0020FBBD118
:103AB00087E7096811F0020FDCD182E739E09CE06A
:103AC0000A6B12F44012DAD0B2F5401F0FD0B2F5F3
:103AD000801FD1D0B2F5001F7FF473AF096A11F0D7
:103AE000020FA1D16DE79BE0A8E0B5E0C3E0096853
:103AF00011F0020FBED164E7096811F0020FB9D1CD
:103B00005FE70A6B12F0100202D0102AB4D058E717
:103B1000096811F0020FADD153E70A6B12F02002D1
:103B200002D0202AA8D04CE7096811F0020FA1D1D9
:103B300047E70A6B12F0400202D0402A9CD040E7CF
:103B4000096811F0020F95D13BE70A6812F0007F77
:103B50003FF437AF486800F48000B0F5800F05D01F
:103B600002F064FA00EB400040082AE702F05EFA37
:103B700027E7CB6A13F4F87415D0096811F0007FB9
:103B80003FF41FAF02F052FA4FF4F87191FAA1F12D
:103B9000B1FA81F124FA01F101F00F0135F81110A9
:103BA000B0FBF1F00DE710460BE7CB6A13F4785445
:103BB000F9D0096811F0007F3FF403AF02F036FA44
:103BC0004FF4785191FAA1F1B1FA81F124FA01F19F
:103BD00001F00F0135F81110B0FBF1F0F1E60B6BBD
:103BE00003F48073B3F5807F02D0002BDBD0E8E6CE
:103BF000096811F0007FB9D1E3E6096811F0007F90
:103C0000B4D1DEE60B6B03F40073B3F5007F02D092
:103C1000002BC8D0D5E6096811F0007FA6D1D0E608
:103C20000B6B03F48063B3F5806F02D0002BBAD026
:103C3000C7E6096811F0007F98D1C2E60B6B03F468
:103C40000063B3F5006F02D0002BACD0B9E6096871
:103C500011F0007F8AD1B4E60B6B03F40053B3F587
:103C6000005F02D0002B9ED0ABE6096811F0007F08
:103C70007FF47CAFA5E6096811F0007F7FF476AF92
:103C80009FE60B6B03F00073B3F1007F0ED0002BA7
:103C900089D096E674CD000800127A0090000020CA
:103CA00000100240ADDEADDE90D00300096811F0D7
:103CB000007F7FF45BAF84E62DE9F84F044600688F
:103CC000AF4D10F4803F7DD0E8694FF0000910F04F
:103CD000805F09D1E86940F08050E861E8694FF001
:103CE000010900F080500090A64E306810F4807FEB
:103CF00013D1306840F480703060FFF725FD07462F
:103D0000306810F4807F08D1FFF71EFDC01B6428C7
:103D10005AD8306810F4807FF6D0286A10F44070CA
:103D200055D0A18801F44071814250D0286A012702
:103D3000390491FAA1F2B2FA82F2920002F18442BD
:103D400002F5840220F44070C2F8007491FAA1F1E7
:103D50000022B1FA81F1890001F1844101F5840169
:103D6000C1F80024286210F0010F30D0FFF7ECFCFE
:103D70008046022641F2883A96FAA6F0B0FA80F020
:103D800040F04000B7EB501F08BF28680AD096FAF1
:103D9000A6F0B0FA80F040F04000B6EB501F0CBF28
:103DA000286A686A96FAA6F1B1FA81F101F01F015A
:103DB00007FA01F108420AD1FFF7C6FCA0EB0800A0
:103DC000504500E010E0D7D90320BDE8F88F286AFD
:103DD000616820F4407008432862B9F1000F03D0F5
:103DE000E86920F08050E861207810F0010F05D0DC
:103DF000286BA16820F0030008432863207810F0A6
:103E0000020F05D0286BE16820F440300843286396
:103E1000207810F0040F05D0286B216920F4402091
:103E200008432863207810F0200F05D0286BE16943
:103E300020F0100008432863206810F4003F05D0EC
:103E40006868616D20F4800008436860207810F095
:103E5000400F05D0286B216A20F02000084328631A
:103E6000206810F4802F05D0286B616A20F0400094
:103E700008432863207810F0080F05D0286B61698B
:103E800020F4401008432863207810F0100F05D06C
:103E9000286BA16920F4400008432863208810F4AF
:103EA000007F05D06868216B20F40000084368603B
:103EB000207810F0800F05D0E86AA16A20F4F8702D
:103EC0000843E862208810F4807F05D0E86AE16A40
:103ED00020F478500843E862208810F4805F05D011
:103EE000286B616B20F4807008432863208810F4ED
:103EF000005F05D0286B216C20F400700843286314
:103F0000206810F4801F05D0286BA16B20F0807012
:103F100008432863206810F4001F05D0286BE16B6C
:103F200020F0007008432863206810F4800F05D04B
:103F3000286B616C20F4806008432863206810F4CB
:103F4000000F05D0286BA16C20F4006008432863A3
:103F5000206810F0807F05D0286BE16C20F40050C1
:103F600008432863206810F0007F05D0286B216D7E
:103F700020F40040084328630020BDE8F88F0000CB
:103F800000100240007000402DE9F047DFF81C826D
:103F900005460E46D8F8000000F00700B0420CD2EB
:103FA000D8F8000020F007003043C8F80000D8F827
:103FB000000000F00700B04270D128787C4C10F06F
:103FC000020F05D06068A96820F0F0000843606027
:103FD000287810F0010F71D068680121012831D0D4
:103FE000022845D0022393FAA3F2B2FA82F242F0F9
:103FF000200252090CBF626A226893FAA3F3B3FA53
:1040000083F303F01F0399400A427DD0616821F0D9
:10401000030108436060FFF797FB0746686841F2B9
:10402000883901283BD00228606800F00C0046D097
:10403000002856D0FFF788FBC01B48454DD9032008
:10404000BDE8F0874FF4003292FAA2F3B3FA83F39B
:1040500043F020035B0914BF2368636A92FAA2F25B
:10406000B2FA82F202F01F0291400B424CD0CDE72F
:104070004FF0007292FAA2F3B3FA83F343F02003F5
:104080005B0914BF2368636A92FAA2F2B2FA82F261
:1040900002F01F0291400B4236D0B7E734E060686F
:1040A00000F00C0004281CD0FFF74EFBC01B484555
:1040B000C5D8606800F00C000428F5D111E008288C
:1040C0000FD000BFFFF740FBC01B4845B7D8606862
:1040D00000F00C000828F5D103E0606810F00C0F28
:1040E000A8D1D8F8000000F00700B0420FD9D8F8E6
:1040F000000020F007003043C8F80000D8F80000A6
:1041000000F00700B04202D00120BDE8F087287817
:1041100010F0040F05D06068E96820F4E0600843FF
:104120006060287810F0080F06D06068296920F4D4
:10413000605040EAC100606061681E4801F00C02F6
:10414000042A1ED0082A1CD14FF4701393FAA3F34B
:1041500001F47012B3FA83F3DA40174B9A5CE36A06
:104160004FF00F0C9CFAACFC03F00F03BCFA8CFC74
:1041700023FA0CF3DFF844C01CF80330B0FBF3F073
:1041800050436168F02292FAA2F201F0F001B2FA13
:1041900082F2D1400A4A515CC8400A4908600F20A7
:1041A000FFF7F2FA0020BDE8F0870000002002408F
:1041B0000010024000127A0054CD000864CD0008BF
:1041C0003CCD0008900000200148006870470000C6
:1041D0009000002008480949006849684FF4E062EF
:1041E00092FAA2F201F4E061B2FA82F2D140044AFA
:1041F000515CC84070470000900000200010024051
:104200004CCD000808480949006849684FF46052DD
:1042100092FAA2F201F46051B2FA82F2D140044A59
:10422000515CC84070470000900000200010024020
:104230004CCD0008164B5968164801F00C02042AB0
:1042400008BF7047082A18BF704701F470124FF476
:10425000701C9CFAACFCBCFA8CFC22FA0CF2DFF865
:1042600038C0DB6A1CF802204FF00F0C9CFAACFC43
:1042700003F00F03BCFA8CFC23FA0CF3DFF81CC02C
:1042800001F480311CF80330B0FBF3F05043704769
:104290000010024000127A0054CD000864CD0008DE
:1042A0002DE9F84F04460078FF4D10F0010F4FF054
:1042B00001063CD06868770400F00C0004281ED08A
:1042C000686800F00C00082805D1686800F4C03068
:1042D000B0F5803F13D06068B0F5803F04BF286818
:1042E00040F4803037D010B1B0F5A02F56D02868F8
:1042F00020F480302860286820F480202BE097FA92
:10430000A7F0B0FA80F040F02000400914BF286800
:10431000686A97FAA7F1B1FA81F101F01F0106FA74
:1043200001F1084203D06068002800F08D822078F7
:104330004FF0000910F0020F4FF002077DD06868BF
:104340004FF0F80A10F00C0F78D0686800F00C00FD
:1043500008284BD050E02860606838B3FFF7F4F9C4
:104360004FEA000897FAA7F0B0FA80F040F020007A
:10437000400914BF2868686A97FAA7F1B1FA81F179
:1043800001F01F0106FA01F10842D0D1FFF7DCF974
:10439000A0EB08006428E5D900F0FDB9286840F4D6
:1043A00080202860286840F48030D4E7FFF7CCF9FB
:1043B0004FEA000897FAA7F0B0FA80F040F020002A
:1043C000400914BF2868686A97FAA7F1B1FA81F129
:1043D00001F01F0106FA01F10842A8D0FFF7B4F975
:1043E000A0EB08006428E5D900F0D5B9686800F4AE
:1043F000C030B0F5004F30D0E068002896FAA6F043
:10440000B0FA80F04FEA800000F1844000F58400AB
:104410007ED00660FFF798F94FEA000897FAA7F0F8
:10442000B0FA80F040F02000400914BF2868686AA4
:1044300097FAA7F1B1FA81F101E033E00DE001F064
:104440001F0106FA01F108421FD1FFF77DF9A0EB29
:1044500008000228E2D900F09EB997FAA7F0B0FA56
:1044600080F040F02000400914BF2868686A97FA7D
:10447000A7F1B1FA81F101F01F0106FA01F108423A
:104480001CBFE068012840F0DF8128689AFAAAF290
:104490002169B2FA82F220F0F80001FA02F140EA52
:1044A00001002860207810F0080F7CD06069002897
:1044B00096FAA6F0B0FA80F04FEA800000F184404E
:1044C00000F584004FD0C0F88064FFF73DF98046C6
:1044D00097FAA7F0B0FA80F040F06000B6EB501FFA
:1044E00008BF28680AD097FAA7F0B0FA80F040F029
:1044F0006000B7EB501F0CBF286A686A97FAA7F1F3
:10450000B1FA81F101F01F0106FA01F1084200E061
:1045100008E056D1FFF718F9A0EB08000228D7D918
:1045200000F039B9C0F80090FFF70EF94FEA000823
:1045300097FAA7F0B0FA80F040F02000400914BFCD
:104540002868686A97FAA7F1B1FA81F101F01F01B2
:1045500006FA01F10842A5D0FFF7F6F8A0EB080033
:104560000228E5D917E1C0F88094FFF7EDF88046FE
:1045700097FAA7F0B0FA80F040F06000B6EB501F59
:1045800008BF28680AD097FAA7F0B0FA80F040F088
:104590006000B7EB501F0CBF286A686A97FAA7F152
:1045A000B1FA81F100E00CE001F01F0106FA01F11F
:1045B000084206D0FFF7C8F8A0EB08000228D7D9B8
:1045C000E9E0207810F0040F72D0E8694FF0000B9A
:1045D00010F0805F09D1E86940F08050E861E86937
:1045E0004FF0010B00F080500090DFF8C080D8F849
:1045F000000010F4807F18D1D8F8000040F48070DB
:10460000C8F80000FFF7A0F88246D8F8000010F4C0
:10461000807F0AD1FFF798F8A0EB0A0064284AD8F7
:10462000D8F8000010F4807FF4D0A068012804BFFF
:10463000286A40F0010009D008B105283CD0286A5A
:1046400020F001002862286A20F004002862A06897
:1046500041F2883A68B3FFF777F8804697FAA7F0F7
:10466000B0FA80F040F04000B6EB501F08BF286859
:104670000AD097FAA7F0B0FA80F040F04000B7EB0C
:10468000501F0CBF286A686A97FAA7F1B1FA81F146
:1046900001F01F0106FA01F1084240D1FFF754F87A
:1046A000A0EB0800504505E00010024000700040FB
:1046B0003CE009E0D2D96EE0286A40F004002862AC
:1046C000286A40F00100C1E7FFF73EF84FEA000812
:1046D00097FAA7F0B0FA80F040F04000B6EB501F18
:1046E00008BF28680AD097FAA7F0B0FA80F040F027
:1046F0004000B7EB501F0CBF286A686A97FAA7F111
:10470000B1FA81F101F01F0106FA01F1084206D069
:10471000FFF71AF8A0EB08005045D9D93BE0BBF1F0
:10472000000F03D0E86920F08050E861A069A8B3C9
:10473000696801F00C0108297ED04FF080780228CA
:1047400098FAA8F0B0FA80F04FEA800000F18440B7
:1047500000F584004FF00077C0F800901FD0FEF7FE
:10476000F3FF044697FAA7F0B0FA80F040F020007B
:10477000400914BF2968696A97FAA7F0B0FA80F077
:1047800000F01F0006FA00F0014260D0FEF7DCFFE7
:10479000001B0228E6D90320BDE8F88F57E0FEF79A
:1047A000D3FF814697FAA7F0B0FA80F040F02000DE
:1047B000400914BF2868686A97FAA7F1B1FA81F135
:1047C00001F01F0106FA01F1084206D0FEF7BCFF16
:1047D000A0EB09000228E5D9DDE7E86A616A20F06C
:1047E0000F000843E862D4E907100843696821F420
:1047F00076110843686098FAA8F0B0FA80F080005B
:1048000000F1844000F584000660FEF79DFF044639
:1048100097FAA7F0B0FA80F040F02000400914BFEA
:104820002868686A97FAA7F1B1FA81F101F01F01CF
:1048300006FA01F1084200E006E008D1FEF784FF25
:10484000001B0228E4D9A6E70120BDE8F88F00206C
:10485000BDE8F88F4FF0E021042808690CBF40F054
:10486000040020F00400086170470000411EB1F10F
:10487000807F24BF012070474FF0E0204161054A4E
:10488000F02182F8141D00218161072101610020BF
:10489000704700000FE000E07047704790F83C2040
:1048A000012A04BF02207047012280F83C20CA6818
:1048B0008B6822F440721A434B6822F480621A43D8
:1048C0000B6822F400621A430B6922F480521A43E7
:1048D0004B6922F400521A4322F480438A6A13433C
:1048E00023F400431A430B8B22F4702242EA034361
:1048F0000268A2F1804CBCF5963C1FBFA2F1804C2F
:10490000BCF59A3CA2F1804CBCF5A83C0FD1B1F8A3
:1049100024C023F4700343EA0C53D1F81CC023F0E5
:10492000807343EA0C03096A23F000730B4353645A
:10493000002180F83C100846704790F83C20012A7E
:1049400004BF0220704710B4012280F83C200268A6
:104950005368D2F808C0A2F18044B4F596341FBF62
:10496000A2F18044B4F59A34A2F18044B4F5A8349D
:1049700003D14C6823F4700323430C6823F07003C5
:10498000896823432CF0800C41EA0C0153600268D3
:104990009160002180F83C1010BC0846704710B5AB
:1049A0000446022084F83D002068016A41F2111299
:1049B000114207D1016A9210114203D1016821F01E
:1049C00001010160204600F021F8002084F83D003C
:1049D00084F83C0010BD002804BF0120704710B5CA
:1049E000044690F83D0028B9002084F83C00204699
:1049F00000F0F4F8022084F83D00211D206801F049
:104A000045FF012084F83D00002010BD2DE9F04154
:104A1000064600686B4CA0F18041B1F5A03103D18E
:104A2000A06920F48030A06167494A7D6748684DDD
:104A3000012A0DD13268824203D1E26922F01002CC
:104A4000E2613268AA4203D1E26922F02002E26107
:104A5000497D39BB3168A1F18042B2F5963203D16C
:104A6000A16921F40061A1613168A1F18042B2F530
:104A7000806203D1E16921F00201E1613168814284
:104A800006D1E06920F01000E061306AFEF7AEFA6E
:104A90003068A84206D1E06920F02000E061306A69
:104AA000FEF7A4FA30684B4FB0F1804F5AD197F817
:104AB000B8034FF0804501281CBF97F8B8030428BD
:104AC00008D097F8B80302281CBF97F8B80303284A
:104AD0001DD043E04FF001014FF09040FEF76AFC1B
:104AE0000C20FEF787FE00213B48FEF72EFC306AC3
:104AF000FEF77CFAE86820F48070E860A86920F08E
:104B00000300A861286A20F00100286226E0032142
:104B10004FF09040FEF74EFCB06AFEF767FA706AFD
:104B2000FEF764FAA86920F00100A861A86920F4E2
:104B30008070A861286A20F001002862286A20F0AD
:104B400010002862E86820F40070E860E86820F44B
:104B50008060E860286820F008002860E06920F0A4
:104B60000100E0613068A0F18041B1F5006118BF3B
:104B7000BDE8F08197F8B80304280CD097F8B80383
:104B800002281CBF97F8B80303280BD097F8B80386
:104B900001280BD00FE04FF480714FF09040FEF7EA
:104BA00009FC08E01E20FEF725FE04E001214FF07D
:104BB0009040FEF7FFFBE06920F00400E061BDE8F3
:104BC000F081000000100240B8EB0020001000400F
:104BD00000140040B8F30020080400202DE9F04F35
:104BE00004460068F64DA0F1804187B0B1F5A031D0
:104BF00007D1A86940F48030A861A86900F480302A
:104C00000590F048417DF04F012918D12168B94243
:104C100007D1E96941F01001E961E96901F010018A
:104C200005912268A2F18041B1F5A05107D1E9694F
:104C300041F02001E961E96901F020010591407D21
:104C400000264FF0030A4FF4005B4FF002090028E2
:104C50007ED12068A0F18041B1F5963114D1A869C8
:104C600040F40060A861A869029600F40060059015
:104C70004FF40070CDE900090620CDE903A0694694
:104C80004FF09040FEF738FC20684FF01008A0F17C
:104C90008041B1F5806112D1E86940F00200E8611D
:104CA000E869CDF80CA0CDF80080CDE9019600F0C0
:104CB0000200CDE904906946C448FEF71DFC216856
:104CC000A1F18040B0F5805025D1E86940F0100096
:104CD000E861E869BF4F00F010000590BC48C7E9E3
:104CE00000088020C7E902604000386180007861D8
:104CF0002020C7E9060B3846FEF724FAB248C168FF
:104D000041F48071C1604FEAB030016841F4005154
:104D1000016027627C622168A1F18040B0F5A0505B
:104D200021D1E86940F02000E861E869AB4F00F06C
:104D300020000590A848C7E900088020C7E9026064
:104D400040003861800078612020C7E9060B00E050
:104D500009E03846FEF7F6F9A148016841F4807190
:104D6000016027627C622068B0F1804F7DD19D4F49
:104D700097F8B8034FF0010801281CBF97F8B80353
:104D8000042873D097F8B80302281FBF97F8B80318
:104D9000032807B0BDE8F08FE86940F00100E86142
:104DA000E869CDE900A900F00100CDE90480CDE972
:104DB000026A69464FF09040FEF79EFB8B488A4995
:104DC000C0E900168749866091F8B813022906BF2A
:104DD0008021C160C6604FF4007107468800C7E9B2
:104DE00004108000C7E906608048FEF7ABF9A762AF
:104DF00027637C627F4F7E48DFF8E8B1C7E9000691
:104E0000BE609BF8B803022806BF8020F860FE60F1
:104E10004FF4007038618000C7E905068000F86132
:104E20007448FEF78FF967627C629BF8B80302282A
:104E30001CBFABF80680ABF808807DD08BF8908360
:104E40008BF891834FF08040816921F00C018161E2
:104E5000816921F00C018161816921F440618161E6
:104E6000816921F44061816101E006E033E0ABF843
:104E700004604FF0FF30CBF800002068A0F18041C3
:104E8000B1F500611CBF07B0BDE8F08FE86940F0E4
:104E90000400E861E86900F004000590514890F8CA
:104EA000B81304297CD090F8B81302291FBF90F8DA
:104EB000B803032807B0BDE8F08F4FF000024FF0B1
:104EC00009014FF01E00FEF7ADFC1E20FEF79EFC10
:104ED00007B0BDE8F08FE86940F00100E861E869DB
:104EE000029600F0010005900120CDE90009CDE90E
:104EF00003A069464FF09040FEF7FEFADFF8FC8011
:104F00003D48C8E900064015C8F80860C8E90360D4
:104F10008000C8F814002020C8E9060B4046FEF7C0
:104F200011F9C4F82080364A00214046C8F82440D0
:104F3000FEF75EF9002200E024E009210C20FEF7D4
:104F400071FC0C20FEF762FC97F8B81340F2E730D2
:104F500001290DD0A7F89A0342F20F70A7F8980321
:104F6000012087F8A003C7F8A46387F8B96384E732
:104F700041F61F41A7F89A13A7F898036420A7F8F1
:104F8000A803EDE7ABF80690ABF808908BF8BA836E
:104F90008BF8BB838BF8BD838BF8BE834EE7FFE7AE
:104FA0004FF48070CDE9000902960A20CDE903A0F4
:104FB00069464FF09040FEF79FFA07B0BDE8F08FCA
:104FC00000100240B8EB0020001000400004004830
:104FD000300002400003002044000240440300204F
:104FE0000C140040B8F30020800002409004002020
:104FF000580002404C0400201C000240080400201D
:10500000790D0008022180F83D1001680A6842F01D
:1050100001020A60012180F83D10002070470168FC
:10502000CA6842F00102CA600068016841F00101EB
:10503000016000207047022180F83D1001680A6A73
:1050400041F211131A4207D10A6A9B101A4203D186
:105050000A6822F001020A60012180F83D10002058
:1050600070470168CA6822F00102CA600068016ADC
:1050700041F21112114207D1016A9210114203D17B
:10508000016821F0010101600020704790F83C2088
:10509000012A0DBF0220012380F83C30704730B454
:1050A000022280F83D200268D2F808C02CF0770C6C
:1050B0002CF4803C2CF47F4CC2F808C00A68502ABB
:1050C00047D00CDC202A7DD004DC002A7BD0102ABB
:1050D0007AD0B7E0302A78D0402A78D0B2E0602A7F
:1050E00054D0702A0DD0B2F5805F03D0B2F5005FC6
:1050F0001DD0A7E001688A6822F0070222F48032FE
:1051000042E00268D1F804C08C68C96895684CEA2E
:10511000012125F47F4521432943916001688A6874
:1051200022F0770222F4803242F077022CE002680B
:10513000D1F804C08C68C96895684CEA012125F44F
:105140007F4521432943916001688A6842F4804287
:105150001AE00268D1F804C0C968146A156A25F01B
:1051600001051562956924F00A0425F0F00545EA69
:10517000011144EA0C0C9161C2F820C001688A68F0
:1051800022F0700242F057028A605BE00268D1F8B8
:1051900004C0CC68116A21F0100111629569116A8E
:1051A00025F4704545EA043421F0A00141EA0C11D0
:1051B0009461116201688A6822F0700242F067020D
:1051C0008A603FE02FE01EE025E034E0FFE7026860
:1051D000D1F804C0CC68116A156A25F00105156282
:1051E000956921F00A0125F0F00545EA041441EA29
:1051F0000C019461116201688A6822F0700242F029
:1052000047028A601EE001688A6822F0700242F05C
:1052100007028A6016E001688A6822F0700242F094
:1052200017028A600EE001688A6822F0700242F07C
:1052300027028A6006E001688A6822F0700242F064
:1052400037028A6080F83D30002180F83C1030BC85
:10525000084670477047000090F83C30012B04BFAF
:10526000022070472DE9F0034FF0010C80F83CC09C
:10527000022380F83D30F024002A36D02302042A8D
:105280007DD0082A026879D0D1E90065CC68176A18
:1052900027F480571762D2F81C80176A28F44078E8
:1052A00048EA052503EA043325F470452B434FF4FF
:1052B000204527F4204405EA06352C43D3611462C7
:1052C0000268D36923F44063D3610268D3698968B3
:1052D00043EA0121C2F81C1080F83DC0002180F88B
:1052E0003C10BDE8F003084670470268D1E9006849
:1052F000CD68136A23F0010313629369176AA2F160
:105300008049B9F5963918BFB2F1804F1BD0A2F190
:105310008049B9F580691CBFA2F18049B9F50069DF
:1053200011D0A2F18049B9F59A391CBFA2F1804988
:10533000B9F5A03907D0A2F18049B9F5A83918BF4D
:1053400043F0010303D123F0030343EA080304EA13
:10535000051423F0F003234327F00A0406F00A059E
:105360002C43936114620268936923F00C039361E8
:10537000026893698968194327E000E027E0026822
:10538000D1E90065CC68176A27F010071762D2F8D8
:105390001880176A28F4407848EA052503EA0433A0
:1053A00025F470452B43A02527F0A00405EA061537
:1053B0002C43936114620268936923F44063936100
:1053C00002689369896843EA0121916184E7D1E920
:1053D0000063CD68176A27F480771762D769D2F81F
:1053E000208027F0030704EA05143B4323F0F00371
:1053F00023434FF4206528F4206405EA06252C4356
:10540000D36114620268D36923F00C03D36102688C
:10541000D369896819435DE7002804BF01207047FC
:1054200010B5044690F83D0028B9002084F83C00EF
:10543000204600F00CF8022084F83D00211D206871
:1054400001F024FA012084F83D00002010BD7047CF
:1054500070B50446006801694FF0000511F0020FB5
:105460001CBFC16811F0020F13D06FF0020101617F
:10547000012020772068806910F0030F204602D0B9
:10548000FFF7E8FE04E000F099F8204600F0C0F9CC
:1054900025772068016911F0040F1CBFC16811F065
:1054A000040F13D06FF004010161022020772068FF
:1054B000806910F4407F204602D0FFF7CBFE04E065
:1054C00000F07CF8204600F0A3F9257720680169F8
:1054D00011F0080F1CBFC16811F0080F13D06FF056
:1054E00008010161042020772068C06910F0030FD3
:1054F000204602D0FFF7AEFE04E000F05FF8204641
:1055000000F086F925772068016911F0100F1CBFA3
:10551000C16811F0100F13D06FF010010161082065
:1055200020772068C06910F4407F204602D0FFF742
:1055300091FE04E000F042F8204600F069F925777A
:105540002068016911F0010F1CBFC16811F0010F43
:1055500005D06FF001010161204600F0DFF92068FD
:10556000016911F0800F1CBFC16811F0800F05D0D8
:105570006FF0800101612046FFF78EF92068016914
:1055800011F0400F1CBFC16811F0400F05D06FF043
:1055900040010161204600F0EEF92068016911F038
:1055A000200F1ABFC16811F0200F70BD6FF02001ED
:1055B00001612046BDE87040FFF76FB970470000F9
:1055C0002DE9F05F044690F83C000D4601280DBF20
:1055D0000220012684F83C60BDE8F09F022084F898
:1055E0003D000C2A4ED006DCA2B1042A24D0082AA1
:1055F00036D000F0DDB87249724BDFF8CCC1734F82
:10560000DFF8CC81DFF8CC91102A4FD0142A7CD05F
:1056100000F0CEB8206801F0D5FB2068816941F028
:10562000080181612068816921F00401816120689D
:1056300081692A69114311E0206801F01DFC20688E
:10564000816941F4006181612068816921F4806190
:105650008161206881692A6941EA02218161A7E0AC
:10566000206801F059FC2068C16941F00801C1615E
:105670002068C16921F00401C1612068C1692A69FB
:10568000114311E0206801F097FC2068C16941F4E2
:105690000061C1612068C16921F48061C161206835
:1056A000C1692A6941EA0221C16181E02068026A78
:1056B00022F480320262D0F820A04268D0F854B0C0
:1056C000D5F800E02BF0700B2BF4803B4EEA0B0B6F
:1056D000B5F808E02AF4003A4AEA0E4A884218BFB0
:1056E000984207D0604518BFB84203D0404518BF64
:1056F000484504D122F480316A6941EA02224260BD
:10570000C0F854B06968816500E011E0C0F820A0DD
:105710002068416D41F0080141652068416D21F02C
:10572000040141652068416D2A6941EA02013EE0B9
:105730002068026A22F480120262D0F820B0426827
:10574000D0F854A0D5F800E02AF4E04A2AF0807A94
:105750004AEA0E2AB5F808E02BF4001B4BEA0E5B70
:10576000884218BF984207D0604518BFB84203D09E
:10577000404518BF484504D122F480216A6941EAB6
:1057800082224260C0F854A06968C165C0F820B0A8
:105790002068416D41F4006141652068416D21F44C
:1057A000806141652068416D2A6941EA02214165B5
:1057B00084F83D604FF0000084F83C00BDE8F09FA5
:1057C000002C0140003401400040014000440140F1
:1057D0000048014000500140002804BF01207047EC
:1057E00010B5044690F83D0028B9002084F83C002C
:1057F000204600F00CF8022084F83D00211D2068AE
:1058000001F044F8012084F83D00002010BD7047ED
:1058100070470268012303FA01F1136A8B43136294
:10582000136A194311620168A1F18042B2F5963200
:105830001CBFA1F18042B2F59A3213D0A1F180428F
:10584000B2F5A0321CBFA1F18042B2F5A23209D05C
:10585000A1F18042B2F5A4321CBFA1F18042B2F5A1
:10586000A83203D14A6C42F400424A6400680168DD
:1058700041F0010101600020704730B4026801234B
:105880004FF0000C156A03FA01F425EA04041462CF
:10589000146A0CFA01F121431162016841F2111CF2
:1058A000A1F1804440F24442B4F596341CBFA1F10A
:1058B0008044B4F59A3413D0A1F18044B4F5A034F7
:1058C0001CBFA1F18044B4F5A23409D0A1F18044F9
:1058D000B4F5A4341CBFA1F18044B4F5A8340AD1B6
:1058E0000C6A14EA0C0F04BF0C6A144203D14C6C0E
:1058F00024F400444C6401680C6A14EA0C0F04BFE1
:10590000D1F820C01CEA020F03D10A6822F001027C
:105910000A6080F83D3030BC00207047044890F8A1
:10592000B803022801D003F013BF03F045BD000007
:10593000B8F3002070B5044690F83C00012804BF7D
:10594000022070BD012584F83C50022084F83D00FF
:10595000204601F0E7FB2068C16821F04001C160EA
:105960002068C16821F48041C16084F83D50002066
:1059700084F83C0070BD7047002804BF01207047C8
:1059800010B5044690F8690028B9002084F8680032
:10599000204600F029F8242084F869002068016876
:1059A00021F001010160204601F034FE012808BF0A
:1059B00010BD606A00281CBF204601F08DFD2068E4
:1059C000416821F4904141602068816821F02A01FA
:1059D00081602068016841F0010101602046BDE856
:1059E000104001F0E6BD000010B50068154C86B00F
:1059F000A0421CBF06B010BD1348C16941F400317C
:105A0000C161C069694600F4003005900C20009027
:105A100002200190012002900320039007200490AF
:105A20004FF09040FDF768FD206840F020002060B6
:105A3000002206212620FDF7F5FE2620FDF7E6FED2
:105A400006B010BD0044004000100240704770478F
:105A500070B5194886B04FF0A0410160174E4FF461
:105A600080314160B16800240461C4614462816096
:105A70004FF480610163012505624FF46071C460D9
:105A8000C1620421C0E90514C0E90D54FCF778FD9A
:105A900006F110000A49007851F82000CDE9000510
:105AA0000394F06802900494694605940248FCF758
:105AB0009FFA06B070BD0000700500200C000020A9
:105AC000BCCC000870B5194886B017490160184E63
:105AD00009024160B16800240461C46144628160CC
