:020000040800F2
:1000000080F900205902000861020008630200081C
:10001000650200086702000869020008000000008D
:10002000000000000000000000000000A90100081E
:100030006D02000800000000ED010008E54700081F
:1000400073020008730200087302000873020008BC
:1000500073020008730200087302000873020008AC
:10006000730200087302000873020008730200089C
:10007000730200087302000873020008730200088C
:10008000730200087302000873020008730200087C
:10009000730200087302000873020008730200086C
:1000A000730200087302000873020008730200085C
:1000B000730200087302000873020008730200084C
:1000C000730200087302000873020008730200083C
:1000D0007302000873020008D94E0008730200087A
:1000E000730200087302000873020008730200081C
:1000F000730200087302000873020008730200080C
:1001000073020008000000000000000073020008F5
:1001100073020008730200087302000873020008EB
:1001200073020008730200087302000873020008DB
:1001300073020008730200080000000000000000C5
:100140007302000873020008730200080000000038
:10015000000000000000000000000000000000009F
:10016000730200087302000873020008730200089B
:10017000730200087302000873020008730200088B
:100180007302000873020008000000000000000075
:1001900073020008DFF80CD000F0F0FA00480047C6
:1001A0005564000880F90020234B19680868B0E8FE
:1001B000F04F80F309884FF0000080F311887047FA
:1001C0000000000003480068006880F3088862B6F9
:1001D00000DF00BF08ED00E0DFF80C00016841F42B
:1001E00070010160704700BF88ED00E0EFF3098007
:1001F000114B1A681EF0100F08BF20ED108A20E97D
:10020000F04F106008B44FF0500080F3118807F0F1
:10021000CDFD4FF0000080F3118808BC1968086814
:10022000B0E8F04F1EF0100F08BFB0EC108A80F35A
:100230000988704700BF00BF9C000020EFF31180C9
:100240004FF0500181F31188704780F31188704797
:10025000EFF30580704700000648804706480047D6
:10026000FEE7FEE7FEE7FEE7FEE7FEE7FEE7FEE766
:10027000FEE7FEE76D4800089501000840EA01032B
:100280009B0703D009E008C9121F08C0042AFAD24C
:1002900003E011F8013B00F8013B521EF9D2704710
:1002A000D2B201E000F8012B491EFBD270470022B8
:1002B000F6E710B513460A4604461946FFF7F0FF65
:1002C000204610BD0EB540F2334102910021CDE928
:1002D00000110A460B4600F03AF803B000BDC1F326
:1002E0000A5210B5C1F3130140F2FF3341F48011FB
:1002F0009A4201DA002010BD40F233439A42A2F242
:10030000334203DC524200F003F810BD904010BDB0
:10031000202A04DB203A21FA02F00021704721FA5A
:1003200002F3D040C2F120029140084319467047C1
:1003300010B5141E73F1000408DA401C41F10001ED
:1003400092185B411A4301D120F0010010BD2DE944
:10035000F04D92469B4611B1B1FA81F202E0B0FA3B
:1003600080F22032904600F01BFA04460F4640EA25
:100370000A0041EA0B0153465A46084313D011467E
:1003800053EA010019D0C8F140025046FFF7C0FF00
:1003900005460E4650465946424600F001FA0843CB
:1003A00005D0012004E020463946BDE8F08D00204C
:1003B000054346EAE0762C4337430A986305E40A8E
:1003C000A0EB08000022FD0A44EA47540A3002D597
:1003D00000200146E9E7010510196941DDE90845FA
:1003E00000196941BDE8F04DA2E72DE9FE4F8046B6
:1003F00081EA0300C00F0C46009021F0004123F079
:100400000045B8EB0200A94105D24046214690467E
:100410001C460B46024623F00040104347D0270DF0
:10042000C7F30A00C3F30A510290401A0190402812
:100430006BDAC3F3130040F4801B0098924620B19E
:100440000023D2EB030A63EB0B0B01985946C0F172
:100450004002504600F0A4F906460D465046594663
:10046000019A00F0ACF910EB08006141002487EA22
:10047000115284EAE7731A4340D0009A62B3019A9A
:10048000012A4FEA075215DC001B61EB02014FF015
:10049000004202EA0752CDE90042001C41F58011FA
:1004A00032462B46FFF753FF03B0BDE8F08F4046BE
:1004B0002146F9E7001B61EB0201001C41F58013A6
:1004C00000185B412018A2F5001747EB030140EA32
:1004D000D570B6196D4111E06D084FEA360645EA50
:1004E000C0754FEA0752001B61EB0201001C41F589
:1004F000801149084FEA30000019514132462B461D
:1005000003B0BDE8F04FFFF713BF00980122400091
:100510000023D0EB020263EBE073009821464FEA20
:10052000E074B8EB000061EB0401E9E783F00043FD
:100530005BE781F0004158E72DE9FE4F81EA0304B3
:1005400004F0004421F0004100944FF0000B23F030
:10055000004350EA01045ED052EA03045BD0C3F3C7
:100560000A54C1F30A552C44A4F2F3340194A0FBBD
:100570000254C1F3130141F48011C3F3130343F494
:10058000801301FB024400FB034E840A970A44EAED
:10059000815447EA8357A4FB076802958D0A05FB3F
:1005A00007854FEA932C04FB0C542705029D4FEA64
:1005B000065847EA1637B5EB08056EEB070C870EB1
:1005C000920E47EA811742EA8312A7FB0201B6EBBB
:1005D0000B0164EB00042B0D43EA0C335E1844EB73
:1005E0001C50DA465146E7FB0201C5F313044FEAFB
:1005F0000B3343EA14534FEA0432019C43EA0603E7
:10060000A4F10C040294009CCDE900B4FFF79FFE16
:1006100003B0BDE8F08F00200146F9E72DE9F04D69
:1006200081EA030404F0004B21F0004514464FF02A
:10063000000A23F0004150EA050220D054EA0102EA
:100640001DD0C5F30A570246C5F31303C1F31300C7
:10065000C1F30A5640F4801543F48013A7EB060853
:10066000101BD64608F2FD3873EB050002D308F1E3
:10067000010801E092185B41B8F1000F03DA002095
:100680000146BDE8F08D00204FF4801106468446F7
:100690000EE0171B73EB050705D3121B63EB050375
:1006A00006434CEA010C49084FEA300092185B41BE
:1006B00050EA0107EDD152EA030012D082EA0400A9
:1006C00083EA0501084305D0101BAB4106D2012285
:1006D000002306E000224FF0004302E06FF0010229
:1006E00053101AEB06004CEB085110EB0A0041EBDB
:1006F0000B01BDE8F04DFFF71BBE70B521F00043C4
:1007000003430CD0C1F30A550024D5EB040564EB78
:100710000403D617AD1AB34102DB0020014670BDB9
:10072000201841EB025170BD0EB5C10F80EAE07098
:100730000844CA07002140F233438DE80E000A4600
:100740000B46FFF704FE03B000BD000030B5041EE9
:1007500071F1000404DB4FF00044404264EB0101FE
:10076000141E73F1000405DB1C464FF00043524297
:1007700063EB0403994208BF904230BD064C074D1D
:1007800006E0E06840F0010394E807009847103461
:10079000AC42F6D3FFF702FDC88D0008E88D0008D3
:1007A000202A04DB203A00FA02F100207047914031
:1007B000C2F1200320FA03F3194390407047202A26
:1007C00006DBCB17203A41FA02F043EAE07306E079
:1007D00041FA02F3D040C2F1200291400843194689
:1007E00070472DE9F04D00231A461B1A8A4103DB9E
:1007F00000200146BDE8F08DC1F30A52C1F3130198
:1008000041F480154FF0000BD10702D100186D4163
:10081000521E0027044640F2FF11384601EB620ADF
:100820003E468046024600204FF48011FFF770FDDF
:10083000C2197141BB1846EB0100B4EB030C75EB18
:10084000000C04D3E41A65EB000517460E46241984
:1008500008F101006D4180463428E3DDF91946EBCB
:100860000600091BA84103D24FF0FF32134601E0F6
:10087000002213461BEB070046EB0A51BDE8F04D82
:10088000FFF756BD70B58C1810F8015B15F0070323
:1008900001D110F8013B2A1106D110F8012B03E019
:1008A00010F8016B01F8016B5B1EF9D12B0705D421
:1008B0000023521E0DD401F8013BFAE710F8013B6A
:1008C000CB1A921C03E013F8015B01F8015B521E86
:1008D000F9D5A142D8D3002070BD00002DE9F04128
:1008E000044600680022836813F00C0F60D0836810
:1008F0004FF0040613F0007F05D0E369012B04BF1D
:10090000A369012B0BD0602922D02068826812F0E5
:10091000040F1BD0826812F0020F13D016E0036898
:100920000C2113F0400F08BF234B08D101E09A427D
:1009300031D2D0F800C0521C1CF0400FF7D040223A
:100940000260E2E7826842F0100282600C2914D053
:100950002068826812F0080F07D0826812F0020F38
:1009600003D1826842F020028260602908BF082516
:1009700004D06C2908BF0C2500D0042502F03CFAF5
:10098000074620688068284212D000BF02F034FA7F
:10099000C01B0B2808D984F84560A06C40F001000A
:1009A000A0640120BDE8F081206880682842EDD174
:1009B0000020BDE8F081000000940900406A90F832
:1009C000451004291CBF90F84510352907D090F830
:1009D000451025290CBF3521152180F8451001F05F
:1009E00009BA406A042180F84510816C41F0040185
:1009F000816401F0EBBA406A01F0FDB92DE9F043E2
:100A0000834C93B015460E4638B101283AD00228DF
:100A100071D003286ED000F0EDB820686168A2683C
:100A2000E368D4F810C06769D4F81880D4F81C9033
:100A30000090019102920393CDF810C00597CDF874
:100A40001880CDF81C90D4F820C0626AA06AE36ACE
:100A5000216B676BD4F83880CDF820C009920A90DA
:100A60000B930C910D97CDF83880E06B0F9069498E
:100A700010A804F03FFA94F845008DF84500A06CEA
:100A80001290B7E0E06C216D626DA36DD4F85CC08C
:100A9000276ED4F86480D4F8689000900191029297
:100AA0000393CDF810C00597CDF81880CDF81C90B1
:100AB000E06E216F626FA36FD4F87CC0D4F88070B1
:100AC000D4F88440089009910A920B93CDF830C075
:100AD0000D970E94504CE06B0F9004F1400110A85C
:100AE00004F008FA94F845008DF84500A06C1290C7
:100AF00080E000E03FE0D4F89800D4F89C10D4F8EF
:100B0000A020D4F8A430D4F8A8C0D4F8AC70D4F89D
:100B1000B080D4F8B4900090019102920393CDF884
:100B200010C00597CDF81880CDF81C90D4F8B80007
:100B3000D4F8BC10D4F8C020D4F8C430D4F8C8C05D
:100B4000D4F8CC70D4F8D040089009910A920B9355
:100B5000CDF830C00D970E94304CE06B0F9004F13F
:100B6000400110A804F0C6F994F845008DF845003E
:100B7000A06C12903EE0D4F8E400D4F8E810D4F869
:100B8000EC20D4F8F030D4F8F4C0D4F8F870D4F8ED
:100B9000FC80D4F800910090019102920393CDF86B
:100BA00010C00597CDF81880CDF81C90D4F804013A
:100BB000D4F80811D4F80C21D4F81031D4F814C1A9
:100BC000D4F81871D4F81C41089009910A920B933B
:100BD000CDF830C00D970E94114CE06B0F9004F1DE
:100BE000400110A804F086F994F845008DF84500FE
:100BF000A06C1290002E12BF002D13B0BDE8F08340
:100C00002A463146684601F02BFC13B0BDE8F0835C
:100C1000E402002024030020300300207C03002095
:100C2000C803002010B50F4801F080FC0E4801F009
:100C30007DFC0E4801F07AFC0D4801F077FC0021A4
:100C4000084800F099FE0021074800F095FE0021B9
:100C5000064800F091FEBDE810400021044800F075
:100C60008BBE0000E4020020300300207C03002043
:100C7000C803002070B504460068816801F00301D4
:100C800001292BD1016811F0010F27D081680426BA
:100C900001F00D01012914D1816841F00201816048
:100CA00021680320086002F0A7F8054620688068E4
:100CB00010F0010F12D000BF02F09EF8401B022876
:100CC00007D984F84560A06C40F00100A0640120C1
:100CD00070BD2068806810F0010FEDD1002070BD5C
:100CE00070B504460068816801F00301012903D151
:100CF000016811F0010F23D1816804266FF39E1162
:100D000089B9816841F00101816002F075F80546FA
:100D10002068006810F0010F12D100BF02F06CF8DB
:100D2000401B022807D984F84560A06C40F0010000
:100D3000A064012070BD2068006810F0010FEDD0A4
:100D4000002070BD70B5214C0646A068002808BF81
:100D50000C250AD0082808BF0A2506D0102808BF8D
:100D6000082502D0182808BF062502F0F5FBB0FBC5
:100D7000F6F0401B401EB0F5167F88BF072017D83D
:100D8000B52828BF062013D23D2828BF05200FD242
:100D9000132828BF04200BD2072828BF032007D21E
:100DA000042828BF022003D202282CBF01200020E3
:100DB000E060074801F0BAFB03F0F4F803F02AF909
:100DC00003F060F9BDE8704003F094B9040000201E
:100DD000E402002010B50021084800F0CDFD0021FC
:100DE000074800F0C9FD0021064800F0C5FDBDE838
:100DF00010400021044800F0BFBD0000E4020020C4
:100E0000300300207C030020C80300208AB00022A9
:100E10001421052007F0A0F85B4FDFF870A1DFF880
:100E200070B1DFF870815C4EDFF870915C4C5D4D05
:100E3000386000235A1E01A9386807F0CAF89DF8E7
:100E400004003128F5D100BF9DF819008DF8180075
:100E50009DF81A008DF819009DF81B008DF81A00F6
:100E60009DF800008DF81B00684605F00DF800287D
:100E7000DFD19DF800003A2818BF3B28E4D19DF847
:100E80001810DDF8190041EA0020A0EB0A015045D6
:100E900059D00BDC10EB0B0125D04348081829D0A2
:100EA0004249C8420FD105F027FD09E0A1F52161B3
:100EB000B1F1837125D03E48C14204D105F0B2FBA7
:100EC00006F040F8B5E700235A1E3AA1286807F05B
:100ED000A9F9684604F0D8FF0028AAD19DF80000BF
:100EE0003B28F6D1A5E700235A1E34A1286807F055
:100EF00099F99EE700235A1E32A1286807F092F95B
:100F000097E7052108A804F0DFFF04280ED39DF819
:100F10002000DDF8211040EA012010EB08000AD083
:100F200010EB090F18BF0120CAD10AE0002818BF32
:100F3000304606D0F4E700235A1E2749286807F0F8
:100F400071F92046BCE7052108A804F0BDFF04287C
:100F50000ED39DF82000DDF8211040EA012010EBAF
:100F600008000AD010EB090F18BF0220A8D1E8E74B
:100F7000002818BF3046E4D0F4E700235A1E174972
:100F8000286807F04FF9DCE7F8000020434F4D5385
:100F9000B7BBB1C0BDB9B8C0020C0B20FEF702E070
:100FA000454E445FFC000020F3FEFBFF07F20EEF0E
:100FB0000C1405F54539393900000000305F49440B
:100FC0004E0000003953656E645379737456657230
:100FD00073696F6E000000002C6F00080C6600083B
:100FE00092B003F07BF9FE49002401F5007022461F
:100FF00001604FF400718180C480048184721E21DD
:10100000052006F0A9FFF74D2860042006F07CFFBC
:101010006860F5A00DF1280C0FC88CE80F00F6A051
:10102000D0E9001280680E91CDE90F20ED4C00232D
:101030005A1E02A9206806F0CCFF4FF0FF3160680D
:1010400007F0C0FA9DF8080030282BD0312831D0A5
:10105000322808BF002000F0F380332800F0098117
:10106000342800F01381352800F02381422800F055
:101070005C81362800F0A281372808BFE1A000F08B
:101080001481382808BFE1A000F00F81392800F052
:101090001982492800F04F8241280CBFDDA002A828
:1010A00000F003B9DBA004F089FFDCA004F086FFA8
:1010B00000F03CBA05F0C2F9042840F0378205F090
:1010C000ABF9054605F0B4F9044605F069F90646A2
:1010D00000F04CFC824606F049F8010E8DF82C1009
:1010E000010C8DF82D10010A8DF82E108DF82F00AF
:1010F000082E14D905F0A8F9074605F099F980469D
:1011000005F090F908FB00F0A7EB104005EB40005C
:10111000B0FBF5F105FB11006400009011E005F053
:1011200093F9074605F084F9804605F07BF908FB42
:1011300000F0A7EB10402844B0FBF5F105FB1100CF
:1011400000908DF83060200C8DF83100200A8DF869
:10115000320000988DF8334020448DF837A0A84223
:1011600083BF00982F1AA4EB0708274698BF4FF0BB
:1011700000080024BAF1000F4ED9204605F030F9DE
:10118000814604F1010B8DF836B010210AA804F055
:1011900013FFB7F5804F19D900983C46002609EB9C
:1011A000000500BF05EB86304FF4804104F004FFDA
:1011B000701CA4F58044C6B2B4F5804FF2D8002C60
:1011C0001CBF05EB8630A1B204D105E027B1009821
:1011D000B9B2484404F0F0FEB8F5804F84BF4546EC
:1011E000002425D909EB84304FF4804104F0E4FE5B
:1011F000601CA5F58045C4B2B5F5804FF2D8002D2E
:101200001CBFA9B209EB843002D000BF04F0D4FEA9
:101210000BF0FF045445B0D385A004F0CFFE8948FD
:1012200000235A1E84A1006806F0FCFF00F07EB97E
:10123000B8F1000F1CBF1FFA88F14846E6D1E7E776
:1012400000F13101441C8DF83C10E0B204F0EEFED8
:10125000010C8DF84110010A8DF842108DF8430001
:101260000C210EA804F0A8FEE0B20228E8D300F09A
:101270005DB9754804F0A2FE02F02EF904F0A9FE53
:1012800002F06AF904F0A5FE70480EE0704804F020
:1012900095FE4FF4007004F09CFE4FF4E13004F032
:1012A00098FE6C4804F08AFE6B4804F087FE00F05C
:1012B0003DB96A4804F082FE694804F08AFE4CF2A7
:1012C000503004F086FE042004F083FE00208DF8E8
:1012D000000000BF10F0FF0008BF62480BD00128DB
:1012E00008BF614807D0022808BF604803D0032820
:1012F00008BF5F4801D104F061FE9DF80000401C6A
:10130000C0B28DF800000428E4D340F6E44004F0B5
:1013100060FE5848008804F05CFE684605F020FF37
:101320009DF8001004F048FE00E1534804F046FE2A
:10133000022004F03FFE042004F03CFE022004F0F2
:1013400039FE012004F036FE4C4F4D4E002507F1CA
:10135000240807F14C0907F15C0A4A4804F02EFE04
:10136000705D0024002805D81FE0002C1CBF4648F3
:1013700004F024FE002D08BF57F824000ED0012DE4
:1013800008BF58F8240009D0022D08BF59F82400DE
:1013900004D0032D08BF5AF8240001D104F00EFE3A
:1013A000601CC4B2705DA042DFD8681CC5B2042DB9
:1013B000D3D3344804F002FE344876E7344804F0CE
:1013C000FDFD344804F005FE4FF4FA6004F001FE20
:1013D0000C2004F0FEFD022004F0FBFD002461E07F
:1013E00050260020FC0000204F53435F7979797923
:1013F000787878784348307847454E5F7843485F3F
:1014000046787878475F4E5800000000475F4F4BA2
:101410000000000041434B5F0000000053544D3377
:1014200032463330332D4E75636C656F000000001B
:10143000535F4F4B00000000324461746153656E8E
:101440007400000098010020087900081079000855
:10145000F87600080077000808770008FC77000895
:1014600000093D0008780008107800081878000886
:1014700020780008BAF7FF1FC87800080401002090
:10148000608C0008D8780008DC780008E078000854
:101490006477000880841E0024B1012C08BF2A480C
:1014A00001D002E0294804F089FD601CC4B2022C7E
:1014B000F2D340F6E44004F08CFD4FF4966004F063
:1014C00088FD33E0224804F079FD224804F076FDDF
:1014D000214804F073FD214804F070FD204804F019
:1014E0006DFD204804F06AFD1F4804F067FD56209A
:1014F00004F060FD01F07CFC302404EB1060C0B20D
:1015000004F058FD2E2004F055FD01F071FC04EBB1
:101510001040C0B204F04EFD2E2004F04BFD01F04F
:1015200067FC04EB1020C0B204F044FD0F48406893
:1015300007F02EF87AE50D4800235A1E02A900682C
:1015400006F047FD02A8B0E678770008707700083B
:101550008C79000894790008A4790008AC79000817
:10156000B4790008C0790008C8790008FC000020A0
:101570000149002008607047000000200149022056
:10158000086070470000002010B5446A204601F052
:101590002AF80120207110BD10B5446A204600F0E1
:1015A000F8FF0120207110BD10B5446A206940F099
:1015B00004002061204601F018F80120207110BDC0
:1015C00010B5446A206940F004002061204600F014
:1015D000E2FF0120207110BD406A01F005B810B58E
:1015E000406A00F0D7FF10BDF8B515460E4600243E
:1015F00010B1012808BF10242146064801F0F4F874
:10160000002000902B4632462146024801F066F841
:10161000F8BD000060020020F0B5784C93B00128BE
:1016200007D0022834D0032865D004287DD000F0EC
:10163000DFB820686168A268E368D4F810C0656903
:10164000A669E7690090019102920393CDF810C05A
:10165000059506960797D4F820C0626AA06AE36AE7
:10166000216B656BA66BCDF820C009920A900B9395
:101670000C910D950E96E06B0F90614910A803F048
:1016800039FC94F845008DF84500A06C1290AFE04D
:10169000E06C216D626DA36DD4F85CC0256E666E42
:1016A000A76E0090019102920393CDF810C00595AA
:1016B00006960797E06E216F626FA36FD4F87CC027
:1016C000D4F88050D4F88440089009910A920B9382
:1016D000CDF830C00D950E944A4CE06B0F9004F19C
:1016E000400110A803F006FC94F845008DF8450071
:1016F000A06C12907CE0D4F89800D4F89C10D4F838
:10170000A020D4F8A430D4F8A8C0D4F8AC50D4F8B1
:10171000B060D4F8B4700090019102920393CDF8B8
:1017200010C005950696079700E024E0D4F8B800AD
:10173000D4F8BC10D4F8C020D4F8C430D4F8C8C051
:10174000D4F8CC50D4F8D040089009910A920B9369
:10175000CDF830C00D950E942B4CE06B0F9004F13A
:10176000400110A803F0C6FB94F845008DF8450031
:10177000A06C12903CE0D4F8E400D4F8E810D4F85F
:10178000EC20D4F8F030D4F8F4C0D4F8F850D4F801
:10179000FC60D4F800710090019102920393CDF89F
:1017A00010C0059506960797D4F80401D4F80811DF
:1017B000D4F80C21D4F81031D4F814C1D4F818514D
:1017C000D4F81C41089009910A920B93CDF830C0CF
:1017D0000D950E940D4CE06B0F9004F1400110A894
:1017E00003F088FB94F845008DF84500A06C12903A
:1017F00010980068406813B080B2F0BDE402002089
:1018000024030020300300207C030020C8030020B4
:1018100000B585B003F05EF80021094800F0D8FF5C
:101820001021074800F0D4FF3020009000200190E4
:10183000029069464FF0904001F0D6F905B000BD26
:101840006002002000B5154985B0134808600846BD
:1018500000F0CCFE04200090114800226946006888
:1018600001900E4800F098FE142000901022694666
:101870000A4800F091FE30200090032001900020E3
:10188000029069464FF0904001F0AEF905B05DF866
:1018900004EB03F02DB8000000740040600200204B
:1018A0000000002086B000221421052006F054FB21
:1018B0002C4F2D49A1F12C04386021604FF47A702F
:1018C0006060E060A06020614FF0010884F815803E
:1018D00060622084A1614FF0000984F814900C200C
:1018E000208500235A1E6946386806F072FB9DF871
:1018F0000000312818BF3228F3D0332808BF207DDC
:10190000EFD0342809D0352804BF207D0128E8D144
:10191000FFF77EFF84F81490E3E7207D002808BFDE
:101920000025DED104EB850670680022294603F00D
:10193000AFF8607DA84207D904EB4500028CB1697D
:101940002846FFF751FE04E0002211462846FFF723
:101950004BFE681CC5B2022DE4D3FFF773FF84F879
:101960001480BEE7A4010020ACED0020014890F8EF
:10197000210070473CED00202DE9F041044690F82D
:1019800044000D46012804BF0220BDE8F0814FF05D
:10199000010884F844802046FFF76CF900270646CA
:1019A00001282DD084F845802068816821F080418D
:1019B0008160012D04D12068816841F080418160FF
:1019C0002068816841F00041816001F015FA054608
:1019D0002068806810F0004F12D000BF01F00CFAB0
:1019E000401B0A2807D9042084F8450084F8447075
:1019F0000120BDE8F0812068806810F0004FEDD133
:101A000084F844703046BDE8F081000090F844202E
:101A10004FF0000C012A04BF022070472DE9F003AB
:101A200093B04FF0010880F84480026893684FF04B
:101A3000040413F0040F4FF0000540F0A7814B6839
:101A40001F26052B14D2176B03EB43035B0006FA2A
:101A500003F327EA030313630B790A6803EB4303D9
:101A60005B0002FA03F30268166B3343136347E02B
:101A70000A2B16D2576B5B1F03EB43035B0006FA7E
:101A800003F327EA030353630B790A685B1F03EB35
:101A900043035B0002FA03F30268566B334353635C
:101AA0002EE00F2B16D2976B0A3B03EB43035B0030
:101AB00006FA03F327EA030393630B790A680A3BE8
:101AC00003EB43035B0002FA03F30268966B3343B4
:101AD000936315E0D76B0F3B03EB43035B0006FA00
:101AE00003F327EA0303D3630B790A680F3B03EB85
:101AF00043035B0002FA03F30268D66B3343D363FC
:101B0000026893684FF0070613F00C0F6FD10B6853
:101B10000A2B14D997690A3B03EB430306FA03F334
:101B200027EA030393610B788A680A3B03EB4303BC
:101B300002FA03F3026897693B43936111E0576926
:101B400003EB430306FA03F327EA030353610B781D
:101B50008A6803EB430302FA03F3026857693B43C5
:101B6000536102684B69D768D1F81090C7F3C10779
:101B70007F00BB40994FB9F1010F3FD0B9F1020F7F
:101B80004CD0B9F1030F59D0B9F1040F66D0136EE0
:101B90000F7803F0F843B3EB876F03D1136E23F094
:101BA000004313660268536E0F7803F0F843B3EBFB
:101BB000876F03D1536E23F0004353660268936E20
:101BC0000F7803F0F843B3EB876F03D1936E23F0E4
:101BD000004393660268D36E0F7803F0F843B3EBCB
:101BE000876F04BFD36E23F0004300D1D366026831
:101BF000936803F00303012B43D13EE0D2F86090D9
:101C000009EA070717660268176E91F8009043F01B
:101C1000004347EA89673B431366E8E7D2F86490DC
:101C200009EA070757660268576E91F8009043F07B
:101C3000004347EA89673B435366D8E7D2F8689088
:101C400009EA070797660268976E91F8009043F0DB
:101C5000004347EA89673B439366C8E7D2F86C9034
:101C600009EA0707D7660268D76E91F8009043F03B
:101C7000004347EA89673B43B8E7136813F0010F55
:101C800051D1CB68012BD2F8B03006D00E7808FACB
:101C900006F6B343C2F8B03032E00F7808FA07F71F
:101CA0003B43C2F8B0300A6803680A2A14D99F6916
:101CB000093A02EB420206FA02F227EA02029A61AC
:101CC0000B788A68093B03EB430302FA03F30268CB
:101CD00096693343936113E05F69521C02EB420241
:101CE00006FA02F227EA02025A610B788A685B1C44
:101CF00003EB430302FA03F302685669334353616B
:101D00000368374EB3F1A04F16BFB342354A364A87
:101D10000968102908D011290BD0122904BF97682F
:101D200017F4800F09D035E0976817F4000F31D110
:101D300003E0976817F0807F2CD1B3F1A04F0FD04C
:101D4000B34204BF4FF0A04600960AD0274E284F5A
:101D5000B34208BF009704D0BB4218BF009500D122
:101D600000969E6806F00306012E03D11E6816F049
:101D7000010F0BD1009EA6B1B66806F00306012E36
:101D80000FD1009E366816F0010F0AD080F845404A
:101D90004FF0010C80F8445013B06046BDE8F003EA
:101DA0007047102908D011290FD01229F2D191685B
:101DB00041F480019160EDE7B3F1A04F04BF916859
:101DC00041F40001E6D19160E4E7B3F1A04F04BF14
:101DD000916841F08071DDD1F5E7000000F0FF83EC
:101DE00000010050000300500007005000040050A4
:101DF0000005005070477047002804BF012070475D
:101E000070B5044694B0022084F845006C21204649
:101E1000FEF764FD00260546012800F0BD8020681D
:101E2000C16841F40011C1602046FEF723FF05465A
:101E3000012800F0B180012084F845002068416845
:101E40006FF30A014160216840F2FF70086020686A
:101E5000816821F0E04181602068816841F0005193
:101E600081602068C1684F4A1140C16020684169A3
:101E70006FF3DD0141612068816901F07841816182
:101E80002068016A01F0F02101622068416A01F0D6
:101E9000FF2141622068816A01F0FF218162206890
:101EA000016B414A114001632068426B3F490A407F
:101EB00042632068826B114081632068C16B21F00E
:101EC000DF0121F4E061C16321680A6E38480240F5
:101ED0000A6621684A6E02404A6621688A6E02409C
:101EE0008A662168CA6E1040C8662068D0F8A010C3
:101EF0006FF35201C0F8A0102068D0F8A4106FF35F
:101F00005201C0F8A4102068D0F8B0106FF352014D
:101F1000C0F8B0102068D0F8B41021F07F11C0F8DC
:101F2000B4102068234AB0F1A04F16BF9042224956
:101F30002249B0F1A04F0FD0904204BF4FF0A04211
:101F400000920AD01E4A1F4B904208BF009304D053
:101F5000984218BF009600D10092826802F00302F6
:101F6000012A03D1006810F0010F0FD1009848B189
:101F7000806800F00300012804D10098006810F088
:101F8000010F03D18868104A10408860204600F095
:101F900033F9A66484F8456084F8446014B0284698
:101FA00070BD000004800080300882E0200882E0DC
:101FB00000F0FF0300010050000300500007005034
:101FC0000004005000050050E0D03CFE70470000C7
:101FD00070B594B004004FF0000502BF012014B0AA
:101FE00070BD94F845000226C8B9204600F006F9F5
:101FF0002068806810F0805F11D12046FEF73AFE1D
:10200000054601280BD084F845602068816821F0DE
:10201000405181602068816841F080518160206872
:10202000816801F040520421B2F1805F06D084F84B
:102030004510A26C42F00102A264012594F84520EB
:10204000042A03D0826812F0040F05D084F84510EA
:10205000012514B0284670BD84F84560DFF87CC1C6
:10206000B0F1A04F1ABF60455D495E495E4B5F4AC3
:102070000026B0F1A04F08BFCDF800C00ED06045DB
:1020800004BF4FF0A04CCDF800C007D0904208BF6D
:10209000009303D098420CBF00920096D0F808C07D
:1020A0000CF0030CBCF1010F03D1006810F0010F1C
:1020B00015D1009848B1806800F00300012804D1D0
:1020C0000098006810F0010F09D1886820F44030B2
:1020D00088608868D4F804C040EA0C0088602068F2
:1020E000C168DFF80CC101EA0C01C160D4E902103B
:1020F0000143A06B012814BF4FF4805C4FF0000C2B
:10210000E0694CEA403C41EA0C01D4F824C0BCF13F
:10211000010F08BF002807D1208DDFF8D8C00CEBD5
:102120004040084340F48031E06A01282DD0D4F8C3
:1021300000C094451CBF9C4520F4805022D1B0F5CE
:10214000307F08BF4FF4E0701CD0B0F5807F08BF2F
:102150004FF4307016D0B0F5E07F08BF4FF48070B8
:1021600010D0B0F58A5F08BF4FF470700AD0B0F598
:10217000845F08BF4FF4A07004D0B0F5865F08BF3D
:102180004FF4C0700843216B01432068826812F04D
:102190000C0F0BD1C26822F0020222F48042C2600E
:1021A000A069626B800340EA420001432068C26874
:1021B0001143C1602068016B21F00F0101632069A8
:1021C000012805D12068016B226A521E1143016368
:1021D000A664012084F845003BE7000000010050A0
:1021E000000700500003005000050050000400509C
:1021F00007C0F0FF0000FEFF704700002DE9F04F20
:1022000086490446A1F11006D0F800C03268824821
:10221000032380270025521C85B04FF480684FF4BB
:1022200080794FF0200ABCF1A04F19D0ACF1A04B3F
:10223000BBF5807B10D0A1F110025268521CBBF597
:10224000407B7ED0BBF5807B1CBF05B0BDE8F08F26
:102250007260012A74D1ABE03260012A43D138E0C8
:102260003260012A09D1426942F080524261C26A59
:1022700022F4F87242F48072C2620878684931F838
:102280001010CDE900136749029551F82000694606
:1022900000F0AAFCDFF894B16348CBE90005CBE974
:1022A0000257B068102813BF1828CBF81450CBF889
:1022B0001050CBE904984FF40050CBE906A05B48DE
:1022C00000F028FCC4F840B0CBF8244005B0BDE8CD
:1022D000F08F426942F080524261C26A22F4F87281
:1022E00042F48072C2624878514931F81010CDE949
:1022F00000135049029551F82000694600F074FC23
:10230000DFF838B14C48CBE90005CBE90257B0689B
:10231000102813BF1828CBF81450CBF81050CBE975
:1023200004984FF40050CBE906A0444800F0F2FBBB
:10233000C4F840B0CBF8244005B0BDE8F08F00E011
:1023400040E07260012A09D1426942F000524261C4
:10235000C26A22F4785242F40052C2628878384944
:1023600031F81010CDE900133649029551F82000DC
:10237000694600F039FCDFF8D4B03348CBE90005FA
:10238000CBE90257B068102813BF1828CBF81450B7
:10239000CBF81050CBE904984FF40050CBE906A0DD
:1023A0002A4800F0B7FBC4F840B0CBF82440C3E79C
:1023B000426942F000524261C26A22F4785242F409
:1023C0000052C262C878224931F81010CDE90013DA
:1023D0002049029551F82000694600F005FCDFF81D
:1023E0007CB01D48CBE90005CBE90257B068102846
:1023F00013BF1828CBF81450CBF81050CBE9049831
:102400004FF40050CBE906A0144800F083FBC4F859
:1024100040B0CBF824408FE70010024014000020A9
:102420009C8B0008180000200800024014040020C3
:10243000D48B00083C000020080402404C0400201B
:102440008C8B0008640000205804024084040020A3
:10245000948B0008740000201C040240BC0400207F
:102460002DE9F041044690F84400174688460128BB
:1024700004BF0220BDE8F081012084F844002068F8
:10248000B0F1A04F19BFA0F1A041B1F580714FF09C
:10249000A040D0F808031CBF2048006810F01F0FB0
:1024A0004FF0000618BF012505D000BF84F8446036
:1024B0002846BDE8F0812046FEF712FC05460128BB
:1024C000F4D094F8450022280CBF3220122084F862
:1024D0004500A664216C12488862216C1148C862CC
:1024E000216C1148086321681C200860206841683D
:1024F00041F0100141602068C16841F00101C160F4
:1025000020683B4600F140014246206C00F02EFB63
:102510002068816841F004018160C7E70807005026
:10252000BD090008F7090008E309000870B5044672
:1025300090F84400012804BF022070BD012684F8F1
:1025400044606C212046FEF7C9F905001CD12068C3
:10255000C16821F00101C160206C00F061F9051E25
:102560001CBF042084F845002068416821F0100158
:102570004160204606D1FEF77DFB050008BF84F8C8
:10258000456001E0FEF776FB002084F84400284611
:1025900070BD7047704770474379012B04BF02201C
:1025A000704730B44FF0010C80F805C0022303716E
:1025B00003681C6840F6FE759540AC43D1E90051B4
:1025C000294391402143196001680B68C02404FA33
:1025D00002F223EA02020A6080F804C0002141717D
:1025E00030BC08467047704770477047002804BFEA
:1025F0000120704710B504460079002804BF20462A
:1026000000F008F8022020710020206101202071D4
:10261000002010BD2DE9F04F0546006885B0A0F1FF
:102620008041B1F5E8411CBF05B0BDE8F08F2648F8
:10263000C16941F00051C1613020009003200026A3
:10264000CDE9010669464FF0904000F0CDFA204CEC
:102650004FF480791D481027C4F81090C4E9000792
:102660004FF4806A2020C4E905A00002E0614FF029
:102670008008C4E90268204600F04CFADFF854B044
:10268000AC606562DBF8000040F40050CBF800005D
:1026900038341148C4F81090C4E900072020C4E978
:1026A00005A00002E061C4E90268204600F032FAA9
:1026B000EC606562DBF8000040F48040CBF800007D
:1026C00005B0BDE8F08F000000100240300002406D
:1026D0007402002000000140440002402DE9F04156
:1026E00004460D469446617900220698012904BFEC
:1026F0000220BDE8F0810126667102212171002DC2
:1027000031D0E7682C49B962E7682C49F962E7687B
:102710002B49396321680F6847F080570F60002804
:1027200004BF206800F114020AD0042804BF206806
:1027300000F1180204D0082804BF206800F11C0230
:102740002068016841F0005101606146E06800F0D6
:102750000DFA2068016806FA05F2114301600020B5
:102760006071BDE8F081A7681649B962A76816498B
:10277000F962A7681549396321680F6847F48057E3
:102780000F60002804BF206800F108020AD0042866
:1027900004BF206800F10C0204D0082804BF2068A0
:1027A00000F110022068016841F4005101606146A7
:1027B000A06800F0DBF9CCE799150008DF150008E8
:1027C000C115000889150008D9150008A9150008C9
:1027D0000368D3F800C0012202FA01F12CEA0101DA
:1027E000196002710020704770B5044600680268E5
:1027F0004FF480538B409A430260206802680125A1
:1028000005FA01F39A43026000290CBFA068E06852
:1028100000F006F800281ABF04212171257170BD4F
:1028200070B504460068016821F00101016000F004
:10283000E3FA0546206800684FF0000610F0010F2B
:1028400015D000BF00F0D8FA401BB0F57A7F09D947
:10285000606B40F020006063032084F8210084F85E
:10286000206070BD2068006810F0010FEAD10120DF
:1028700084F8210084F82060002070BD002819BF72
:1028800090F821100229012070472DE9F04F0168CE
:102890000A6822F001020A600268002111600268E1
:1028A0005160026891600268D1608D4A01688D4B69
:1028B000DFF834C28D4C8E4D8E4E8F4FDFF83C8248
:1028C000DFF83C92DFF83CA2DFF83CB2914227D916
:1028D00099420ED0614510D0A14212D0A94215D024
:1028E000B14216D0B94208BF4FF4001113D0414590
:1028F00001D102210FE0494501D120210BE05145D2
:1029000002D14FF4007106E0594502D14FF4005155
:1029100001E04FF40031DFF8F4E1CEF800102BE0D5
:10292000994213D0614515D0A14217D0A9421AD0BF
:10293000B1421BD0B94208BF4FF4001118D09142E8
:1029400008BF4FF0007113D0414501D102210FE0C3
:10295000494501D120210BE0514502D14FF40071CE
:1029600006E0594502D14FF4005101E04FF4003127
:10297000DFF89CE1CEF804100168914227D9994212
:102980000ED0614510D0A14212D0A94215D0B1425B
:1029900016D0B94208BF4FF4000113D0414501D110
:1029A00008210FE0494501D180210BE0514502D1BA
:1029B0004FF4006106E0594502D14FF4004101E0B7
:1029C0004FF40021DFF844E1CEF800102BE09942EB
:1029D00013D0614515D0A14217D0A9421AD0B142F7
:1029E0001BD0B94208BF4FF4000118D0914208BF74
:1029F0004FF0006113D0414501D108210FE0494556
:102A000001D180210BE0514502D14FF4006106E075
:102A1000594502D14FF4004101E04FF40021DFF8A5
:102A2000F0E0CEF804100168914225D999420ED009
:102A3000614510D0A14212D0A94215D0B14216D0A2
:102A4000B94208BF4FF4800113D0414501D10421A0
:102A50000FE0494501D140210BE0514502D14FF42F
:102A6000806106E0594502D14FF4804101E04FF406
:102A70008021264A116029E0994213D0614515D082
:102A8000A14217D0A9421AD0B1421BD0B94208BF07
:102A90004FF4800118D0914208BF4FF0806113D0ED
:102AA000414501D104210FE0494501D140210BE00E
:102AB000514502D14FF4806106E0594502D14FF4EF
:102AC000804101E04FF48021114A516000214163AF
:102AD00080F8211080F820100846BDE8F08F000033
:102AE00080000240080002401C000240300002400A
:102AF00044000240580002406C00024008040240BA
:102B00001C04024030040240440402400404024019
:102B100000000240002804BF0120704710B40221C9
:102B200080F8211002681168D0E9013C43EA0C03E7
:102B3000D0E903C44CEA040C43EA0C03D0F814C0F7
:102B40006FF30D1143EA0C03D0F818C043EA0C03ED
:102B5000D0F81CC043EA0C03194311600021416303
:102B6000012180F8211010BC0020704790F820C08F
:102B7000BCF1010F04BF0220704710B44FF0010CEC
:102B800080F820C04FF0020C80F821C0D0F800C0BF
:102B9000DCF8004024F00104CCF80040D0F800C07C
:102BA000CCF804304368102B036803BF9A600268B6
:102BB000D16099601CBF0168CA6001680A6842F070
:102BC00002020A6001680A6842F004020A600168B1
:102BD0000A6842F008020A600068016841F00101D9
:102BE000016010BC002070472DE9F04F00227B4EA1
:102BF000DFF8ECE101274FF0030A4FF00F0800BFA8
:102C00000B6807FA02F42340A34240F0E080D1F8B9
:102C100004C0BCF1020F18BFBCF1120F15D14FEA6E
:102C2000D20C00EB8C05D5F820904FEA427C4FEA9D
:102C3000DC6C08FA0CFB29EA0B09D1F810B00BFA8E
:102C40000CFC4CEA090CC5F820C0D0F800904FEA03
:102C5000420C91F804B00AFA0CF50BF0030B29EAC8
:102C600005090BFA0CFB4BEA0909C0F80090D1F8F2
:102C70000490B9F1010F18BFB9F1020F05D0B9F1F5
:102C8000110F18BFB9F1120F18D1D0F80890D1F870
:102C90000CB029EA05090BFA0CFB4BEA0909C0F84C
:102CA0000890D0F8049029EA040491F80490C9F33C
:102CB000001909FA02F949EA04044460C468AC4303
:102CC0008D6805FA0CFC4CEA040CC0F80CC0D1F875
:102CD00004C01CF0805F7AD0D6F818C04CF0010C0C
:102CE000C6F818C022F0030C0CF1804C0CF5803CA7
:102CF000DCF808509407240F08FA04F925EA0905BE
:102D0000B0F1904F08BF4FF0000928D0A0F19049D2
:102D1000B9F5806908BF4FF0010920D0A0F19049B2
:102D2000B9F5006908BF4FF0020918D0A0F1904929
:102D3000B9F5406908BF4FF0030910D0A0F19049E0
:102D4000B9F5805908BF4FF0040908D0A0F19049A7
:102D5000B9F5A0590CBF4FF005094FF0060909FA63
:102D600004F42C43CCF80840DEF800C04C682CEA90
:102D7000030C14F4803F18BF4CEA030CCEF800C0DB
:102D8000184CD4F800C04D682CEA030C15F4003F31
:102D900018BF4CEA030CC4F800C0134CD4F800C0B0
:102DA0004D682CEA030C15F4801F18BF4CEA030C85
:102DB000C4F800C00D4CD4F800C04D682CEA030CD8
:102DC00015F4001F18BF4CEA030CC4F800C0521CD5
:102DD000102AFFF415AFBDE8F08F0000001002408C
:102DE0000004014004040140080401400C040140B7
:102DF0000048704700010101014800687047000069
:102E00009800002002480168491C016070470000DA
:102E100098000020074810B5016841F010010160DA
:102E2000032000F077F8002000F006F800F016F814
:102E3000002010BD0020024010B5044600F04CFBFD
:102E40004FF47A72B0FBF2F000F0BAFE0022214695
:102E5000501E00F02DF8002010BD0000074810B5EE
:102E6000816941F001018161032000F053F80022E3
:102E7000BDE810401146501E00F01AB80010024084
:102E800000F01F01012202FA01F14009800000F167
:102E9000E020C0F88012704700F01F01012202FA02
:102EA00001F14009800000F1E020C0F800117047F6
:102EB000174B10B41B68C3F30223C3F1070CBCF11A
:102EC000040F88BF4FF0040C1C1D072C34BF0023D7
:102ED000DB1E012404FA0CFCACF1010C0CEA01012C
:102EE000994004FA03F35B1E1A40114300284FEA8D
:102EF0000111A1BF00F1E02080F8001410BC704760
:102F000000F00F0000F1E02080F8141D10BC7047A5
:102F10000CED00E0074900F007000A684FF6FF03D8
:102F20001A4042EA002040F0FD7040F080600860E6
:102F3000704700000CED00E02DE9F0470446006802
:102F4000AA4D10F4803F7DD0E86940F08050E861E0
:102F5000A74E306840F480703060FFF74DFF0746A1
:102F6000306810F4807F08D1FFF746FFC01B64284B
:102F700046D8306810F4807FF6D0286AA18800F423
:102F8000407001F440710127884207D0286A9949AE
:102F900020F440700F6000220A6028626068B0F57B
:102FA000807F52D1FFF728FF8046022696FAA6F0CE
:102FB000B0FA80F040F04000B7EB501F08BF28681F
:102FC0000AD096FAA6F0B0FA80F040F04000B6EBD6
:102FD000501F0CBF286A686A96FAA6F1B1FA81F10F
:102FE00001F01F0107FA01F1084208BF41F28839D8
:102FF0002BD100BFFFF700FFA0EB0800484502D926
:103000000320BDE8F08796FAA6F0B0FA80F040F011
:103010004000B7EB501F08BF28680AD096FAA6F008
:10302000B0FA80F040F04000B6EB501F0CBF286AA9
:10303000686A96FAA6F1B1FA81F101F01F0107FA68
:1030400001F100E007E00842D4D0286A616820F46A
:10305000407008432862207810F0010F05D0286BDB
:10306000A16820F0030008432863207810F0020FC5
:1030700005D0286BE16820F44030084328632078AD
:1030800010F0040F05D0286B216920F4402008437C
:103090002863207810F0200F05D0286BE16920F01C
:1030A000100008432863206810F4003F05D06868CA
:1030B000616D20F4800008436860207810F0400FB4
:1030C00005D0286B216A20F020000843286320687F
:1030D00010F4802F05D0286B616A20F0400008436F
:1030E0002863207810F0080F05D0286B616920F460
:1030F000401008432863207810F0100F05D0286B8B
:10310000A16920F4400008432863208810F4007F60
:1031100005D06868216B20F40000084368602078BF
:1031200010F0800F05D0E86AA16A20F4F870084317
:10313000E862208810F4807F05D0E86AE16A20F414
:1031400078500843E862208810F4805F05D0286B2F
:10315000616B20F4807008432863208810F4005FBE
:1031600005D0286B216C20F4007008432863206888
:1031700010F4801F05D0286BA16B20F080700843ED
:103180002863206810F4001F05D0286BE16B20F045
:10319000007008432863206810F4800F05D0286B66
:1031A000616C20F4806008432863206810F4000FED
:1031B00005D0286BA16C20F40060084328632068C8
:1031C00010F0807F05D0286BE16C20F4005008439C
:1031D0002863206810F0007F05D0286B216D20F453
:1031E0000040084328630020BDE8F087001002403B
:1031F00000700040400442422DE9F047DFF8D092D1
:1032000005468846D9F80000B24C00F007010120BD
:10321000420443064FF0020C41F2883741457BD20D
:10322000D9F8001021F0070141EA0801C9F800109F
:10323000D9F8001001F00701414540F02A812978B2
:1032400011F0020F05D06168AE6821F0F001314342
:103250006160297811F0010F00F01E816968012971
:1032600032D0022944D09CFAACF2B2FA82F242F097
:10327000200252090CBF626A22689CFAACF3B3FACE
:1032800083F303F01F039840024200F0028160685C
:1032900020F0030008436060FFF7AEFD0646686853
:1032A00001283AD00228606800F00C0045D00028C0
:1032B00000F0F280FFF7A0FD801BB8427ED8606866
:1032C00010F00C0FF6D1E7E092FAA2F3B3FA83F311
:1032D00043F020035B0914BF2368636A92FAA2F2E9
:1032E000B2FA82F202F01F029040034267D0CEE7AA
:1032F00093FAA3F2B2FA82F242F02002520914BF0A
:103300002268626A93FAA3F3B3FA83F303F01F030C
:103310009840024253D0BAE71DE0606800F00C000C
:1033200004286FD0FFF768FD801BB84253D860684F
:1033300000F00C000428F5D1AEE0082862D000BFF0
:10334000FFF75AFD801BB84245D8606800F00C00BA
:103350000828F5D1A0E0297811F0020F05D06168A6
:10336000AE6821F0F00131436160297811F0010F5E
:103370005DD06968012931D0022944D09CFAACF2B1
:10338000B2FA82F242F0200252090CBF626A22684D
:103390009CFAACF3B3FA83F303F01F0398400242A4
:1033A00077D0606820F0030008436060FFF724FDD9
:1033B0000646686801283BD0022801E00BE068E07F
:1033C000606800F00C0044D088B300BFFFF714FD24
:1033D000801BB8424BD90320BDE8F08792FAA2F3D4
:1033E000B3FA83F343F020035B0914BF2368636AD5
:1033F00092FAA2F2B2FA82F202F01F029040034265
:1034000047D0CEE748E093FAA3F2B2FA82F242F054
:103410002002520914BF2268626A93FAA3F3B3FA36
:1034200083F303F01F039840024232D0B9E722E051
:10343000606800F00C0004281DD000BFFFF7DCFC22
:10344000801BB842C7D8606800F00C000428F5D192
:1034500011E008280FD000BFFFF7CEFC801BB84258
:10346000B9D8606800F00C000828F5D103E0606866
:1034700010F00C0FAAD1D9F8000020F0070040EAA4
:103480000800C9F80000D9F8000000F00700404526
:1034900002D00120BDE8F087287810F0040F05D095
:1034A0006068E96820F4E06008436060287810F004
:1034B000080F06D06068296920F4605040EAC10016
:1034C00060600020FFF7B8FC0020BDE8F087000036
:1034D000002002400010024010B500F063F80849D7
:1034E0004968F02292FAA2F201F0F001B2FA82F2F7
:1034F000D140044A515CC8400349086010BD000037
:1035000000100240308C00088400002010B500F04C
:1035100049F80E494A68F02393FAA3F302F0F00247
:10352000B3FA83F322FA03F3094AD35CD840094B78
:10353000186049684FF4E06393FAA3F301F4E06183
:10354000B3FA83F3D940515CC84010BD001002406B
:10355000308C00088400002010B500F023F80E49DC
:103560004A68F02393FAA3F302F0F002B3FA83F36C
:1035700022FA03F3094AD35CD840094B1860496822
:103580004FF4605393FAA3F301F46051B3FA83F359
:10359000D940515CC84010BD00100240308C00087A
:1035A00084000020164B5968164801F00C02042ACA
:1035B00008BF7047082A18BF704701F470124FF413
:1035C000701C9CFAACFCBCFA8CFC22FA0CF2DFF802
:1035D00038C0DB6A1CF802204FF00F0C9CFAACFCE0
:1035E00003F00F03BCFA8CFC23FA0CF3DFF81CC0C9
:1035F00001F480311CF80330B0FBF3F05043704706
:103600000010024000127A00408C0008508C000824
:103610002DE9F05F04460078FF4D10F0010F4FF0E8
:10362000000A4FF0010671D06868770400F00C00C2
:1036300004282DD0686800F00C00082805D16868BF
:1036400000F4C030B0F5803F22D085F802A0FFF72B
:10365000D3FB814641F2883897FAA7F0B0FA80F0A0
:1036600040F02000400914BF2868686A97FAA7F163
:10367000B1FA81F101F01F0106FA01F1084220D0F0
:10368000FFF7BAFBA0EB09004045E5D900F035BAD9
:1036900097FAA7F0B0FA80F040F02000400914BF7C
:1036A0002868686A97FAA7F1B1FA81F101F01F0161
:1036B00006FA01F108421CBF6068012846D000F0FC
:1036C0006EBA2079A8706068012820D0FFF794FBBB
:1036D0004FEA000997FAA7F0B0FA80F040F0200016
:1036E000400914BF2868686A97FAA7F1B1FA81F116
:1036F00001F01F0106FA01F1084227D0FFF77CFB19
:10370000A0EB09004045E5D900F0F7B91EE0FFF74E
:1037100073FB814697FAA7F0B0FA80F040F02000E2
:10372000400914BF2868686A97FAA7F1B1FA81F1D5
:1037300001F01F0106FA01F1084207D1FFF75CFB17
:10374000A0EB09004045E5D900F0D7B92078DFF8B3
:10375000CCB210F0020F4FF0020763D068684FF050
:10376000F80910F00C0F2FD0686800F00C00082842
:1037700005D1686800F4C030B0F5004F24D0E0688F
:1037800000287CD0CBF80060FFF736FB4FEA00083A
:1037900097FAA7F0B0FA80F040F02000400914BF7B
:1037A0002868686A97FAA7F1B1FA81F101F01F0160
:1037B00006FA01F108422AD1FFF71EFBA0EB080030
:1037C0006428E5D900F099B997FAA7F0B0FA80F02B
:1037D00040F02000400914BF2868686A97FAA7F1F2
:1037E000B1FA81F101F01F0106FA01F108421CBF94
:1037F000E068012840F0D381286899FAA9F221698C
:10380000B2FA82F220F0F8009140084309E02868FB
:1038100099FAA9F220F0F8012069B2FA82F29040F8
:1038200008432860207810F0080F7DD07C4861693B
:1038300031B30660FFF7E0FA4FEA000897FAA7F005
:10384000B0FA80F040F06000B6EB501F08BF286867
:103850000AD097FAA7F0B0FA80F040F06000B7EB1A
:10386000501F0CBF286A686A97FAA7F1B1FA81F174
:1038700001F01F0106FA01F1084258D101E008E009
:1038800027E0FFF7B9FAA0EB08006428D6D900F0CA
:1038900034B9CBF800A0FFF7AFFA804697FAA7F04B
:1038A000B0FA80F040F02000400914BF2868686A30
:1038B00097FAA7F1B1FA81F101F01F0106FA01F1BF
:1038C0000842AFD0FFF798FAA0EB08006428E5D9CA
:1038D00013E1C0F800A0FFF78FFA804697FAA7F02F
:1038E000B0FA80F040F06000B6EB501F08BF2868C7
:1038F0000AD097FAA7F0B0FA80F040F06000B7EB7A
:10390000501F0CBF286A686A97FAA7F1B1FA81F1D3
:1039100001F01F0106FA01F1084208D0FFF76CFA26
:10392000A0EB0800642800E001E0D7D9E5E02078AA
:1039300010F0040F78D0E86940F08050E861DFF8BB
:10394000E490D9F8000040F48070C9F80000FFF757
:1039500053FA8046D9F8000010F4807F0BD100BFE5
:10396000FFF74AFAA0EB0800642871D8D9F80000E4
:1039700010F4807FF4D0286A20F005002862FFF759
:103980003BFA814641F2883897FAA7F0B0FA80F006
:1039900040F04000B6EB501F08BF28680AD097FAE5
:1039A000A7F0B0FA80F040F04000B7EB501F0CBF1A
:1039B000286A686A97FAA7F1B1FA81F101F01F014C
:1039C00006FA01F1084206D0FFF716FAA0EB09004B
:1039D0004045D9D991E0286AA16820F00500084344
:1039E0002862A068012834D0FFF706FA4FEA0009E0
:1039F00097FAA7F0B0FA80F040F04000B6EB501F05
:103A000008BF286814D097FAA7F0B0FA80F040F009
:103A10004000B7EB501F08E0001002400000424297
:103A200080044242007000403DE00CBF286A686A92
:103A300097FAA7F1B1FA81F101F01F0106FA01F13D
:103A4000084230D0FFF7D8F9A0EB09004045CFD9A4
:103A500053E0FFF7D1F9814697FAA7F0B0FA80F06A
:103A600040F04000B6EB501F08BF28680AD097FA14
:103A7000A7F0B0FA80F040F04000B7EB501F0CBF49
:103A8000286A686A97FAA7F1B1FA81F101F01F017B
:103A900006FA01F1084206D1FFF7AEF9A0EB0900E2
:103AA0004045D9D929E0A069E8B3696801F00C0163
:103AB000082974D04FF000770228CBF860A01FD0FF
:103AC000FFF79AF94FEA000497FAA7F0B0FA80F0EE
:103AD00040F02000400914BF2868686A97FAA7F1EF
:103AE000B1FA81F101F01F0106FA01F1084259D043
:103AF000FFF782F9001B6428E6D90320BDE8F09F98
:103B0000FFF77AF94FEA000897FAA7F0B0FA80F0C9
:103B100040F02000400914BF2868686A97FAA7F1AE
:103B2000B1FA81F100E03DE001F01F0106FA01F178
:103B3000084206D0FFF760F9A0EB08006428E3D93B
:103B4000DBE7E86A616A20F00F000843E862D4E925
:103B500007100843696821F4761108436860CBF8C0
:103B60006060FFF749F9044697FAA7F0B0FA80F0D1
:103B700040F02000400914BF2868686A97FAA7F14E
:103B8000B1FA81F101F01F0106FA01F1084209D1F1
:103B9000FFF732F9001B6428E6D9AEE7FFE7012002
:103BA000BDE8F09F0020BDE8F09F4FF0E021042821
:103BB00008690CBF40F0040020F004000861704761
:103BC000411EB1F1807F24BF012070474FF0E020FB
:103BD0004161054AF02182F8141D0021816107210D
:103BE00001610020704700000FE000E090F83820ED
:103BF000012A04BF0220704710B4012280F8382047
:103C000002685368D2F808C0A2F18044B4F5963433
:103C10001FBFA2F18044B4F59A34A2F18044B4F5F8
:103C2000A83403D14C6823F4700323430C6823F0B9
:103C30007003896823432CF0800C41EA0C01536027
:103C400002689160002180F8381010BC0846704767
:103C5000002804BF0120704710B5044690F83900D1
:103C6000002804BF204600F00DF8022084F8390037
:103C7000211D206800F056FE012084F83900002044
:103C800010BD000002681049A2F18043B3F58063C3
:103C900003D1CA6942F00202CA610268A2F18043FC
:103CA000B3F5805303D1CA6942F01002CA610068BB
:103CB000A0F18042B2F5A05218BF7047C86940F029
:103CC0002000C8617047000000100240022180F807
:103CD000391001680A6842F001020A60012180F887
:103CE000391000207047022180F8391001680A6AF3
:103CF00041F211131A4207D10A6A9B101A4203D1EA
:103D00000A6822F001020A60012180F839100020BF
:103D1000704790F83820012A0DBF0220012380F857
:103D20003830704730B4022280F839200268D2F867
:103D300008C02CF0770C2CF4803C2CF47F4CC2F89B
:103D400008C00A68502A47D00CDC202A7DD004DC49
:103D5000002A7BD0102A7AD0B7E0302A78D0402AC7
:103D600078D0B2E0602A54D0702A0DD0B2F5805FCE
:103D700003D0B2F5005F1DD0A7E001688A6822F089
:103D8000070222F4803242E00268D1F804C08C6855
:103D9000C96895684CEA012125F47F4521432943F0
:103DA000916001688A6822F0770222F4803242F042
:103DB00077022CE00268D1F804C08C68C968956865
:103DC0004CEA012125F47F45214329439160016894
:103DD0008A6842F480421AE00268D1F804C0C968D7
:103DE000146A156A25F001051562956924F00A0424
:103DF00025F0F00545EA011144EA0C0C9161C2F886
:103E000020C001688A6822F0700242F057028A607E
:103E10005BE00268D1F804C0CC68116A21F010019F
:103E200011629569116A25F4704545EA043421F060
:103E3000A00141EA0C119461116201688A6822F0C4
:103E4000700242F067028A603FE02FE01EE025E04A
:103E500034E0FFE70268D1F804C0CC68116A156A43
:103E600025F001051562956921F00A0125F0F0059C
:103E700045EA041441EA0C019461116201688A6800
:103E800022F0700242F047028A601EE001688A68F0
:103E900022F0700242F007028A6016E001688A6828
:103EA00022F0700242F017028A600EE001688A6810
:103EB00022F0700242F027028A6006E001688A68F8
:103EC00022F0700242F037028A6080F83930002117
:103ED00080F8381030BC08467047002804BF012025
:103EE000704710B5044690F86900002804BF2046CA
:103EF00000F028F8022084F869002068016821F0A9
:103F000001010160204600F071FE012808BF10BDCC
:103F1000606A00281CBF204600F0D0FD2068416880
:103F200021F4904141602068816821F02A0181607C
:103F30002068016841F0010101602046BDE81040A1
:103F400000F029BE10B50068134C86B0A0421CBF1B
:103F500006B010BD1148C16941F40031C1610C20A7
:103F6000009002200190012002900320039007207E
:103F7000049069464FF09040FEF736FE206840F00E
:103F800020002060002206212620FEF791FF262037
:103F9000FEF782FF06B010BD004400400010024052
:103FA0007047704770B5184886B04FF0A041016067
:103FB000164E4FF480314160B16800240461C46141
:103FC000446281604FF480610163012505628910BC
:103FD000C460C1620421C0E90514C0E90D54FDF7B5
:103FE000F7FF06F110000A49007851F82000CDE9EA
:103FF00000050394F0680290049469460594024811
:10400000FDF704FD06B070BDE402002004000020AE
:10401000B08B000870B5184886B016490160174E7D
:1040200009024160B16800240461C4614462816096
:104030004FF480610163012505628910C460C1628B
:104040000421C0E90514C0E90D54FDF7C1FF06F1D4
:1040500010000B49407851F82000CDE90005039489
:10406000F06802900494694605940348FDF7CEFC7D
:1040700006B070BD00010050300300200400002095
:10408000E88B000870B5184886B016490160174ED5
:1040900089014160B16800240461C46144628160A7
:1040A0004FF480610163012505628910C460C1621B
:1040B0000421C0E90514C0E90D54FDF789FF06F19C
:1040C00010000B49807851F82000CDE900050394D9
:1040D000F06802900494694605940348FDF796FC45
:1040E00006B070BD000400507C03002004000020D6
:1040F000108C000870B5194886B017490160184E39
:104100004FF480314160B16800240461C4614462AD
:1041100081604FF480610163012505628910C460EC
:10412000C1620421C0E90514C0E90D54FDF750FF38
:1041300006F110000B49C07851F82000CDE90005C8
:104140000394F06802900494694605940348FDF7CF
:104150005DFC06B070BD000000050050C8030020E3
:1041600004000020208C000800B50E4983B00C48E4
:1041700008600846FEF73AFA042000900A48002238
:104180006946006801900748FEF706FA142000907F
:10419000102269460348FEF7FFF903B000BD000096
:1041A00000740040600200200000002004484169C3
:1041B00041F002014161416941F0010141617047F3
:1041C00000100240164810B5416986B041F4002144
:1041D0004161416941F480014161416941F400312B
:1041E0004161416941F4802141614FF400500090E8
:1041F0000C480024CDE9010469460B48FEF7F4FCA5
:104200000C2000900220CDE901040720CDE90340F5
:1042100069464FF09040FEF7E7FC06B010BD000085
:1042200000100240000012100008004810B50E48AF
:1042300088B00C490024C0E900148460C4600461A3
:10424000FFF706FD4FF48050049004A90648FFF7DD
:1042500060FD20200090694602940348FFF7C6FCE9
:1042600008B010BD00040040AC01002010B50C489F
:1042700084B00A490160002440F2FF714460C0E943
:1042800003148460FFF7E4FC202000906946029448
:104290000348FFF7ABFC04B010BD00000010004065
:1042A000E801002010B50C4884B00A4901600024E0
:1042B00040F2FF714460C0E903148460FFF7C8FC5A
:1042C00020200090694602940348FFF78FFC04B059
:1042D00010BD0000001400402402002008480749D7
:1042E00001604FF4E1314160002181600C22C16026
:1042F000C0E904128161C161FFF7EFBD00440040D5
:10430000F404002088B000221421052003F024FECC
:104310005C4FB862042003F0F7FD386303F02CF81B
:10432000DFF864B1594E4FF0060A4FF000084FF025
:10433000010900235A1E03A9B86A03F04AFE4FF090
:10434000FF31386B04F03EF99DF80C0032280CD098
:10435000332811D0342849D035287DD0362804BFE1
:1043600096F82000062878D088E096F820000028EB
:1043700018BF86F820A081E096F820003546052871
:104380001CBF95F82000002878D002F0E5FEC7F8A1
:104390000C80CDF80480FCF745FCA86801A900F06A
:1043A00087FB0198FCF7CEFC5FF0000495F8210034
:1043B000A04206D9EA6B05EB8400416A2046FCF76F
:1043C0001DFB601CC4B2042CF0D30198E86095F882
:1043D000200006281CBF95F8200004284ED085F840
:1043E0002090C7F8188002F0B9FE47E096F8200048
:1043F00001281CBF96F8200002283FD096F8200024
:1044000003281CBF96F82000042837D0C7F80C807A
:10441000CDF80880FCF706FCB06802A900F048FB64
:104420000298FCF78FFC002496F82100A04206D9E0
:10443000F26B06EB8400416A2046FCF7DFFA601C51
:10444000C4B2042CF0D30298F06086F8209002F0F9
:1044500085FE00235A1E02E007E00BE00EE00CA1EF
:10446000DBF8000003F0DEFE08E002F075FE86F8DF
:10447000208003E002F072FE86F82090386B04F092
:1044800087F856E770010020FC0000203CED00207A
:10449000534D504C00000000C14DDFF80883C24C62
:1044A0004FF0020A4FF6FF7601274FF0030B4FF053
:1044B000000900BF95F8200001281FBF95F82000D3
:1044C000022895F82000032802D003F05DFBF1E7F5
:1044D0004FF0FF31206B04F075F8E068206195F82B
:1044E0004000FDF799F8E96B091AE160E86B4A1E94
:1044F0001044EA6BB0FBF2F302FB1300606195F825
:104500002020012A0AD095F82020022A5FD095F8B1
:104510002000032800F0B38000F031B96A8B082A2C
:1045200095F8402005EB8202126A9ABF20F0010044
:10453000105C32F810002080E88AAA8B5043000CEF
:1045400060802A692B8BF31A5A4307EB1242626090
:104550002A692B8B89B25A43120CA260238A9BB220
:10456000994224BFC91A89B204D2D5F83CC061442B
:10457000C91A89B2A3691944A161914240F2FF802E
:104580002A7D1AB922881032824215D32A7D012A47
:1045900003D12288103A82420EDC687D012803D1C3
:1045A0002869B1EB800F07D8687D022840F0E780CA
:1045B0002869884280F0E38085F820A000235A1EF5
:1045C0007AA1D8F8000003F02DFE00F0D8B88AB226
:1045D000218A89B28A4224BF511A89B203D2EB6B75
:1045E0001A44511A89B2A2691144A1616A8B082A3E
:1045F00095F8402005EB8202126A9ABF20F0010371
:10460000D25C32F810202280EA8AAB8B5A43120C1B
:1046100062802B69B5F818C0A6EB0C0C03FB0CF3F9
:1046200007EB134363602B69B5F818C003FB0CF369
:104630001B0CA3602B7D13B92388934212D82B7DCA
:10464000012B02D1238893420CD36A7D012A03D126
:104650002A69B1EB820F05D86A7D022A7ED12A69C8
:104660008A427BD2C4E9069185F820B00023E0623B
:104670005A1E50A1D8F8000003F0D4FD7FE0208A34
:1046800089B280B2814224BF081A80B203D2EA6B99
:104690001144081A80B2A1690844A06195F820105D
:1046A00003296CD16168884269D302F055FD687DA9
:1046B000294601281CBF487D02281CD0488B0828A9
:1046C000087D28D9002891F8400001EB8000026A9B
:1046D000E06A32F8103062880FD0934232D200BFC5
:1046E00091F8403001EB83031B6A401E33F8103011
:1046F0009342F5D325E0E06A26E0934222D900BF39
:1047000091F8403001EB83031B6A401E33F81030F0
:104710009342F5D815E0002891F8400001EB8000A5
:10472000026AE06A135C62882DD093420AD200BF0D
:1047300091F8403001EB83031B6A401E1B5C9342DF
:10474000F6D3E062401CE0624860042081F820005B
:10475000E1692162A0696062084400E00FE0B0F501
:10476000801F28BFC4F81890C4F818900023C4F81C
:104770001C905A1E11A1D8F8000003F053FD206BC5
:1047800003F006FF96E69342DCD900BF91F8403073
:1047900001EB83031B6A401E1B5C9342F6D8D0E7F3
:1047A0003CED0020FC00002070010020534D504CD7
:1047B0000000000054524947000000003144617479
:1047C0006152656164795F5F000000004FF4C8705A
:1047D00001F0AEFEFFF7E5FB282001F0A9FEFFF790
:1047E000DFFBF3E710B504F019F8002818BF03F059
:1047F00079FBBDE81040FEF705BB70B5A6B00120FF
:104800000525CDE9160502260004CDE91C604FF40C
:10481000E0100024CDE91E0416A8FEF7F9FE700290
:10482000CDE92240CDE92056022120A82494FEF7AC
:10483000E3FC4FF4C0700090F0010A9040010B902F
:104840006846FEF779FBFEF747FE4FF47A71B0FB3E
:10485000F1F0FFF7B5F90420FFF7A7F900221146A0
:10486000501EFEF725FB26B070BD000014480168FD
:1048700041F4700101601348016841F001010160D9
:104880004168114A11404160016821F4102121F072
:1048900080710160016821F480210160416821F488
:1048A000FE014160C16A21F00F01C162016B074A3C
:1048B00011400163002181600549C0030860704711
:1048C00088ED00E0001002400CC07FF8CCFC00FF37
:1048D00008ED00E010B50448FFF705FABDE8104008
:1048E0000248FFF700BA0000E8010020240200207F
:1048F00010B50448FFF7EAF9BDE810400248FFF799
:10490000E5B90000E8010020240200200148FFF77B
:10491000EAB90000AC0100200148FFF7D7B9000058
:10492000AC0100202DE9F0030268254B254DDFF88E
:104930009890DFF898C0264C984218BFB0F1804F8D
:1049400007D0A84218BF484503D0604518BFA04211
:1049500003D14E6822F0700232431E4E1E4FDFF824
:104960007C80984218BFB0F1804F0CD0A84218BF8D
:10497000484508D0604518BFB04204D0B8421CBFBB
:104980004045A04203D1CD6822F440722A43026020
:104990008A68C2620A688262984218BF604507D07E
:1049A000B04218BFB84203D0404518BFA04201D161
:1049B0000969016301214161BDE8F003704700000E
:1049C000002C014000040040000800400034014079
:1049D00000500140004001400044014000480140B7
:1049E0002DE9F0479146884605460026FEF7B4FDBE
:1049F0004000B0FBF5F0401C5FEA500C08BF6C258E
:104A000007D0BCF5803F1ADA0027ACF1010084B270
:104A10003D46B9F1000F08D0FEF79EFD791C621CDF
:104A20005143B0FBF1F0C9F80000C8F804704046EB
:104A3000C8F80C40FFF70CF92846BDE8F0874FF0A6
:104A4000FF304FEA1C44010C621C94B29CFBF4F250
:104A500095B205FB14C383423CBF184626468C42E0
:104A600004D1BCFBF6F085B2B4B201E0002BEBD16F
:104A7000AC429CBF601E87B2A5F1010084BF87B223
:104A8000601E84B2002B14BF6B250025C1E7000017
:104A900031B101291CBF002070470349FFF7A0BFB7
:104AA0000249FFF79DBF000024020020E80100201A
:104AB0000A460149FFF794BFAC01002090F824108A
:104AC00011F0010F06D001684A68836A22F40032AF
:104AD0001A434A6090F8241011F0020F06D00168C2
:104AE0004A68C36A22F480321A434A6090F824105C
:104AF00011F0040F06D001684A68036B22F480228B
:104B00001A434A6090F8241011F0080F06D001688B
:104B10004A68436B22F400421A434A6090F824101A
:104B200011F0100F06D001688A68836B22F480525E
:104B30001A438A6090F8241011F0200F06D0016803
:104B40008A68C36B22F400521A438A6090F82410DA
:104B500011F0400F11D001684A68036C22F48012F2
:104B60001A434A60016CB1F5801F06D101684A689A
:104B7000436C22F4C0021A434A6090F8241011F0EA
:104B8000800F08BF704701684A68806C22F40022D9
:104B900010434860704770B50025044680F86A509D
:104BA0000068006810F0080F08D06FF07E43002204
:104BB0004FF40011204600F017F968B9206800682A
:104BC00010F0040F0AD06FF07E4300224FF48001F2
:104BD000204600F009F908B1032070BD012084F8D7
:104BE000690084F86850002070BD000070B504466C
:104BF00010202369A268D4F81CC01A4363690021FD
:104C000043EA0C03134322680D46D2F800C0724EEB
:104C10000CEA060C4CEA0303136022685368D4F8CC
:104C20000CC023F4405343EA0C035360236AA26987
:104C30001A432368D3F808C02CF4306C4CEA020203
:104C40009A602268654BA2F1804CBCF59C3C0CD06C
:104C50001CF5744C16D0BCF5806C21D0BCF5806C72
:104C60002CD0BCF5806C37D04BE01B6B13F00303EA
:104C700008BF012045D0012B40D0022B40D0032B90
:104C80003AD03EE01B6B13F4403333D0B3F5803F92
:104C900034D0B3F5003F33D0B3F5403F2CD030E0F3
:104CA0001B6B13F4402325D0B3F5802F26D0B3F52A
:104CB000002F25D0B3F5402F1ED022E01B6B13F43C
:104CC000401317D0B3F5801F18D0B3F5001F17D0CD
:104CD000B3F5401F10D014E01B6B13F4400309D050
:104CE000B3F5800F0AD0B3F5000F09D0B3F5400F2C
:104CF00002D006E0002004E0022002E0042000E0F0
:104D00000820E369B3F5004F08D0092860D2DFE836
:104D100000F03740495F4F5F5F5F5800092826D297
:104D2000DFE800F0050C1325162525251E00FEF7EB
:104D3000EDFB61684000B0FBF1F016E0FEF70CFC03
:104D400061684000B0FBF1F00FE0254960680AE0BF
:104D5000FEF728FC61684000B0FBF1F081B207E08B
:104D600060684FF48031B1FBF0F081B200E00125C2
:104D700021F00F00C1F3420108432168C86028E018
:104D8000FEF7C4FB6168B0FBF1F0216880B2C86037
:104D90001FE0FEF7E1FB6168B0FBF1F0216880B233
:104DA000C86016E00F496068B1FBF0F080B20DE01A
:104DB000FEF7F8FB6168B0FBF1F0216880B2C860D3
:104DC00007E060684FF40041B1FBF0F0D06000E014
:104DD0000125284670BD0000F369FFEF0010024076
:104DE0000024F40000127A002DE9F0471D46924697
:104DF0000E460446FEF700F8074620684FF000080C
:104E00004FF00309C069BAF1000F26EA000001D093
:104E100088B13AE098B300BFB5F1FF3F05D09DB12E
:104E2000FDF7EAFFC01BA8420ED82068C06936EA29
:104E30000000F1D129E0B5F1FF3F21D025B1FDF708
:104E4000DBFFC01BA8421BD92068016821F080014C
:104E500001602068016821F020010160206801687C
:104E600021F4807101602068816821F00101816076
:104E700084F8699084F868800320BDE8F08704E036
:104E80002068C06936EA0000D5D00020BDE8F08770
:104E900010B400291CBF084A084C09D010F801CBF7
:104EA000136813F0800FFBD0A4F800C0491EF5D1A1
:104EB00010BC0020704700001C4400402844004003
:104EC00003490A6812F0800FFBD00249088070473E
:104ED0001C44004028440040054810B50088C0B27A
:104EE00001F066F8BDE810402620FDF7C9BF0000BC
:104EF000244400400A6802600B790371704703B4D0
:104F000001984100009850EAC12018BF04204A0DC2
:104F100018BF40F0010040F2FF72B2EB515F08BFD2
:104F200040F00200012808BF052002B070470000D1
:104F30002DE9F04D2DED040B2DED0E8B96B0DDE936
:104F40002550279CDDF890A025F0004624F000486D
:104F5000BAF1000F14BF0121002101EB4502FC4909
:104F600053184A1093422AD3002814BF0123002368
:104F700003EB44030B44F7498B4220D358EA00016A
:104F80009FEDF59B76D0DFF8D8B35D4503D1BAF13C
:104F9000000F05D188E0BAF1000F08BF002100D052
:104FA000012101EB450111F5001F08D8002814BFAD
:104FB0000121002101EB440111F5001F0BD99DEDEA
:104FC000261B9DED240B16B0BDEC0E8B04B0BDE886
:104FD000F04D00F069BE0027002DBCBFE1498845B7
:104FE00021DAE1498845A8BF02271CDAC3451ADC4B
:104FF000DE4901EB2851142908DDC1F1340220FA01
:1050000002F101FA02F282420DD108E058B9C1F171
:10501000140228FA02F101FA02F2424503D101F02A
:105020000101C1F1020756EA0A0124D1002C22DA5B
:10503000002D18BF022F01D0012F0AD0022000F04E
:105040007FFE16B0BDEC0E8B04B0BDE8F04D00F055
:1050500013BE022000F074FE00F00EFE51EC100BA7
:1050600081F0004141EC100B16B0BDEC0E8B04B08A
:10507000BDE8F08D18E09FEDBEAB9FEDBF8B002823
:1050800071D1B848804522D105F1804010F58010DB
:1050900008BFBAF1000F07D0B3450ADC002CA8BF47
:1050A0009DED260BE0DA0DE0B0EE490AF0EE690A5C
:1050B000DAE7002C06DA9DED260B51EC100B81F09F
:1050C00000416FE0AE48784490ED000BCCE7D84546
:1050D0004DD1002C48DA2EB186423AD1BAF1000FF8
:1050E00042D126E0BAF1000F13D0022000F028FED2
:1050F00000F0F6FD8DED020B9DED240B8DED000B08
:1051000010EE900A039961F31E0003909DED020BCF
:10511000AAE78DED02AB9DED240B1AEE901A10EE6E
:10512000900A8DED000B61F31E0003909DED020BC4
:105130009AE78DED028B9DED240B18EE901A10EE80
:10514000900A8DED000B61F31E0003909DED020BA4
:105150008AE709DA9DED240B51EC190B53EC102B67
:10516000FBF75CFA1EE020E09DED240B7CE7864215
:105170001BDAB4F1804F0DD0A4F10050B0F1FF5014
:1051800013D1002D11DB9DED240B51EC100B02F01F
:105190001FFC07E09DED240B53EC102B51EC100B82
:1051A00000F0C2BC41EC100B5EE79DED240B51EC0E
:1051B000100B00F01FFFBAF1000FCDE90E0142D134
:1051C0009FED710B46B3A6F1E040B0F17F600CD0CB
:1051D0005E4538D1002D00DAA7B3022F0CBF0120A5
:1051E0004FF0FF30FBF7A0FADCE7002D01DD002CCB
:1051F0000DDA002D01DD002C1FDB002D16DA002C4E
:1052000014DB012F08BF9FED620B3FF42DAFB0EE12
:105210004A0AF0EE6A0A27E7022F18BF002D0CD0C9
:10522000012F0AD1002DFFF61FAF06E0002DB8BFF9
:10523000002C08DA012F3FF417AFB0EE480AF0EE69
:10524000680A11E71BE0012000EBE57050EA070156
:1052500015D0791EB0EE498AF0EE698A084308BF7E
:105260009FED4D8B4E480025804570DD4D494E48E1
:10527000884514DDB0420DDB002C19DB2FE0012046
:1052800000F05EFD16B0BDEC0E8B04B0BDE8F04D35
:1052900000F016BDB34502DC002C09DC1FE086429D
:1052A00002DA002C1BDA03E05E452BDD002C16DD54
:1052B000022000F045FD00F013FD8DED020B53ECD4
:1052C0001A2B51EC180BFBF737F9CDE900010399C4
:1052D000019861F31E0003909DED020BC4E60220CD
:1052E00000F02EFD00F00CFD10EE901A18EE900A62
:1052F0008DED020B8DED008B61F31E0003909DED93
:10530000020BB1E69DED0E0B53EC192B51EC100B7B
:10531000FBF70CF99FED260BCDE9080153EC102BA0
:105320009DED080B51EC100BFBF706F99FED221BCE
:1053300053EC112BFBF7FDF89DED081B53EC112BE3
:10534000FBF7FAF89FED1E1B53EC112B3CE08CE0B1
:10535000FFFF1F00FFFF0F00000000000000F03FF4
:105360000000F03F0000F07F0000404301FCFFFF21
:10537000000000000000F07F0000000000000000BE
:105380003E3C000000000000000000000000008023
:10539000000000000000F0FF000000000000F0BF6F
:1053A0000000E0410000F043FFFFEF3F000000007D
:1053B000000000000000D03F555555555555D53FCC
:1053C000000000000000E03FFBF7B3F89DED080B84
:1053D00041EC1A0B53EC102B51EC100BFBF7ACF813
:1053E00053EC1A2BFBF7A8F841EC1A0B9FEDFE0BC0
:1053F00053EC102B9DED080B51EC100BFBF79CF8B8
:1054000041EC1B0B9FEDFA0B51EC1A0B53EC102BDC
:10541000FBF792F841EC1A0B9FEDF70B53EC102BB6
:105420009DED080B51EC100BFBF786F853EC1A2B93
:10543000FBF77CF841EC1A0B51EC1B0B53EC1A2BCD
:10544000FAF7D3FF0690CDE906519DED060B53EC1C
:105450001B2B51EC100BFBF769F853EC1A2BFBF7E5
:1054600068F841EC100B00F0A1B90020B6F5801FE0
:105470000EDA9FEDE30B53EC102B9DED0E0B51EC70
:10548000100BFBF759F8CDE90E016FF034000E4612
:1054900000EB2650A0F2FF37C6F31300DA4940F0C4
:1054A0007F6646F040568842D8BF002408DDD749C1
:1054B0008142C8BF012403DC0024A6F580167F1CAE
:1054C000D348784400EBC4000F9690ED00CB9DEDDF
:1054D0000E0B53EC1C2B51EC100BFBF727F89DED3A
:1054E0000E0B41EC1B0B53EC1C2B51EC100BFAF781
:1054F0007CFF41EC100B51EC190B53EC102BFBF71C
:105500008DF841EC1D0B51EC1B0B53EC1D2BFBF7E5
:1055100013F841EC1A0BBF488DED10AB7844109591
:1055200090ED000B4FF0005040EA660000EB844025
:105530008DED080B00F5002009909DED080B53EC54
:105540001C2B51EC100BFAF7F1FF9DED0E1B53ECE9
:10555000112BFAF7EEFF41EC100B53EC102B9DEDE5
:10556000100B51EC100BFAF7E7FF9DED080B41EC27
:105570001C0B53EC102B9DED100B51EC100BFAF79C
:10558000DBFF53EC1B2BFAF7D4FF53EC1C2BFAF781
:10559000CDFF53EC1D2BFAF7CFFF41EC1C0B53EC66
:1055A0001A2B51EC1A0BFAF7C7FF41EC1B0B9A4868
:1055B0000621B0EE4B0AF0EE6B0A784400F0E0FAF8
:1055C000B0EE401AF0EE601AB0EE41DAF0EE61DAB9
:1055D00053EC1B2B51EC1B0BFAF7AEFF53EC1D2BBE
:1055E000FAF7AAFF9DED100B41EC1B0B53EC1A2BA5
:1055F00051EC100BFAF7F9FE53EC1C2BFAF79CFF59
:1056000053EC1B2BFAF7F1FE9DED100B41EC1B0B3D
:1056100053EC102B51EC100BFAF78EFF41EC1D0BE5
:105620009FED7FEB53EC1E2BFAF7DFFE53EC1B2BA9
:10563000FAF7DBFE0890CDE908519DED080B53EC1D
:105640001E2B51EC100BFAF771FF53EC1D2BFAF7E0
:105650006DFF53EC1B2BFAF76CFF9DED080B41EC33
:105660001D0B53EC102B9DED100B51EC100BFAF7AA
:1056700063FF41EC1B0B53EC1A2B51EC1D0BFAF79B
:105680005BFF9DED080B41EC1A0B53EC102B51EC1A
:105690001C0BFAF751FF53EC1A2BFAF7A6FE41EC5C
:1056A0001A0B51EC1B0B53EC1A2BFAF79EFE0C90C5
:1056B000CDE90C519DED0C0B53EC1B2B51EC100B59
:1056C000FAF734FF53EC1A2BFAF733FF41EC1B0BBC
:1056D0009FED550B53EC102B9DED0C0B51EC100B6B
:1056E000FAF72AFF41EC1A0B9FED510B51EC1B0B03
:1056F00053EC102BFAF720FF41EC1B0B9FED4E0BE8
:1057000053EC102B9DED0C0B51EC100BFAF714FF22
:1057100053EC1B2BFAF769FE41EC100B4848784418
:1057200000EBC40090ED001B51EC100B53EC112B5F
:10573000FAF75BFE41EC1B0B3846FAF7F5FFCDE9B3
:10574000080153EC1B2B51EC1A0BFAF74EFE41ECFF
:10575000100B3C48784400EBC40090ED00CB51ECBA
:10576000100B53EC1C2BFAF740FE9DED081B53EC7D
:10577000112BFAF73AFE0690CDE906519DED080B84
:1057800053EC102B9DED060B51EC100BFAF7CEFEEF
:1057900053EC1C2BFAF7CAFE53EC1A2BFAF7C6FE91
:1057A00053EC1B2BFAF7C5FE41EC100B9DED261BAD
:1057B00053EC102B8DED001B00959DED260B51EC4D
:1057C000100BFAF7B9FE9DED000B41EC1A0B53ECF0
:1057D000102B9DED260B51EC100BFAF7A7FE9DED5B
:1057E000061B53EC112B2FE0000000604715F73F1C
:1057F000FE822B654715F73F44DF5DF80BAE543E44
:1058000000000000000040438E9803007AB60B00B1
:10581000BA370000E8370000F23600000000000050
:105820000000000000000840000000E009C7EE3F53
:10583000FD033ADC09C7EE3FF5015B14E02F3EBEE5
:105840007E35000038350000FAF776FE53EC1A2B4F
:10585000FAF7CBFD9DED060B41EC1A0B53EC102B28
:105860009DED000B51EC100BFAF766FECDE90C0133
:105870009DED0C0B51EC1A0B53EC102BFAF7B5FD08
:10588000CDE902010C46AA498C422FDB611A08437C
:1058900018D19DED0C0B53EC102B9DED020B51EC30
:1058A000100BFAF743FE41EC1B0B9FEDA30B51ECE1
:1058B0001A0B53EC102BFAF798FD53EC1B2BFAF74D
:1058C00045FF2DD2022000F03BFA00F009FA10EE5D
:1058D000901A18EE900A8DED020B8DED008B61F39E
:1058E0001E0003909DED020BFFF7BEBB944A24F00F
:1058F0000041914214D39349214408437FF4EFAC13
:105900009DED0C0B53EC102B9DED020B51EC100B8D
:10591000FAF70CFE53EC1A2BFAF718FF7FF6DFAC00
:1059200024F000408849894A002601EB2051824238
:105930002BDA481C4FF4801121FA00F02044844AED
:10594000C0F30A517A44A1F2FF3192ED000B814A73
:105950008DED080BCA4020EA0202C0F3130040F4A8
:105960008010C1F1140120FA01F60992002CB8BF91
:1059700076429DED080B53EC102B9DED0C0B51EC7A
:10598000100BFAF7D3FDCDE90C019DED0C0B51EC9A
:105990001A0B53EC102BFAF728FD9FED6F0B0890B4
:1059A000CDE9085153EC102B9DED080B51EC100B79
:1059B000FAF7C2FD41EC1B0B9FED690B53EC102B6A
:1059C0009DED080B51EC100BFAF7B6FD9DED0C0B9D
:1059D00041EC1C0B53EC102B9DED080B51EC100B04
:1059E000FAF7A4FD53EC1A2BFAF7A3FD9FED5E1B0B
:1059F00053EC112BFAF7A0FD53EC1C2BFAF7F5FC36
:105A000041EC1A0B51EC1B0B53EC1A2BFAF7EDFC83
:105A1000CDE902019DED020B53EC1B2B51EC100B59
:105A2000FAF784FD53EC1A2BFAF783FD9DED020B78
:105A300041EC1A0B53EC102B51EC100BFAF77CFDD8
:105A4000CDE908014A489DED080B0521784400F096
:105A500097F89DED081B51EC100B53EC112BFAF746
:105A60006BFD9DED021B53EC112BFAF762FDCDE9A6
:105A700006019DED020B53EC1A2B51EC100BFAF7BB
:105A80005BFD53EC1A2BFAF7B0FC9FED3B0B41EC9E
:105A90001A0B53EC102B9DED060B51EC100BFAF783
:105AA00045FD9DED060B41EC1B0B53EC102B9DEDC2
:105AB000020B51EC100BFAF73FFD53EC1B2BFAF7DE
:105AC000ADFD53EC1A2BFAF731FD9DED021B53ECA3
:105AD000112BFAF72BFD53EC192BFAF72AFDCDE920
