:020000040800F2
:1000000058EF00205902000861020008630200084E
:10001000650200086702000869020008000000008D
:10002000000000000000000000000000A90100081E
:100030006D02000800000000ED010008355B0008BB
:1000400073020008730200087302000873020008BC
:1000500073020008730200087302000873020008AC
:10006000730200087302000873020008730200089C
:10007000F11C00087302000873020008151D000837
:10008000730200083D1D0008730200087302000897
:10009000730200087302000873020008730200086C
:1000A000730200087302000873020008730200085C
:1000B000730200087302000873020008730200084C
:1000C000730200087302000873020008730200083C
:1000D00073020008730200085169000873020008E7
:1000E000730200087302000873020008730200081C
:1000F000730200087302000873020008730200080C
:1001000073020008000000000000000073020008F5
:1001100073020008730200087302000873020008EB
:1001200073020008730200087302000873020008DB
:1001300073020008730200080000000000000000C5
:100140007302000873020008730200080000000038
:10015000000000000000000000000000000000009F
:10016000730200087302000873020008730200089B
:10017000730200087302000873020008730200088B
:100180007302000873020008000000000000000075
:1001900073020008DFF80CD000F066FB004800474F
:1001A000DD89000858EF0020234B19680868B0E883
:1001B000F04F80F309884FF0000080F311887047FA
:1001C0000000000003480068006880F3088862B6F9
:1001D00000DF00BF08ED00E0DFF80C00016841F42B
:1001E00070010160704700BF88ED00E0EFF3098007
:1001F000114B1A681EF0100F08BF20ED108A20E97D
:10020000F04F106008B44FF0500080F311880AF0EE
:10021000FDF94FF0000080F3118808BC19680868E8
:10022000B0E8F04F1EF0100F08BFB0EC108A80F35A
:100230000988704700BF00BF98000020EFF31180CD
:100240004FF0500181F31188704780F31188704797
:10025000EFF30580704700000648804706480047D6
:10026000FEE7FEE7FEE7FEE7FEE7FEE7FEE7FEE766
:10027000FEE7FEE7C95B00089501000840EA0103BC
:100280009B0703D009E008C9121F08C0042AFAD24C
:1002900003E011F8013B00F8013B521EF9D2704710
:1002A000D2B201E000F8012B491EFBD270470022B8
:1002B000F6E710B513460A4604461946FFF7F0FF65
:1002C000204610BD2DE9FE4F81EA030404F00044EE
:1002D00021F0004100944FF0000B23F0004350EA5E
:1002E00001045ED052EA03045BD0C3F30A54C1F3A5
:1002F0000A552C44A4F2F3340194A0FB0254C1F338
:10030000130141F48011C3F3130343F4801301FB81
:10031000024400FB034E840A970A44EA815447EAE8
:100320008357A4FB076802958D0A05FB07854FEAF2
:10033000932C04FB0C542705029D4FEA065847EA0C
:100340001637B5EB08056EEB070C870E920E47EAE1
:10035000811742EA8312A7FB0201B6EB0B0164EBA3
:1003600000042B0D43EA0C335E1844EB1C50DA46B4
:100370005146E7FB0201C5F313044FEA0B3343EA8E
:1003800014534FEA0432019C43EA0603A4F10C041F
:100390000294009CCDE900B400F042F903B0BDE83E
:1003A000F08F00200146F9E72DE9F04D81EA0304C2
:1003B00004F0004B21F0004514464FF0000A23F0F2
:1003C000004150EA050220D054EA01021DD0C5F3D5
:1003D0000A570246C5F31303C1F31300C1F30A56CB
:1003E00040F4801543F48013A7EB0608101BD64693
:1003F00008F2FD3873EB050002D308F1010801E0B3
:1004000092185B41B8F1000F03DA00200146BDE805
:10041000F08D00204FF48011064684460EE0171B35
:1004200073EB050705D3121B63EB050306434CEA88
:10043000010C49084FEA300092185B4150EA01076D
:10044000EDD152EA030012D082EA040083EA0501EA
:10045000084305D0101BAB4106D20122002306E061
:1004600000224FF0004302E06FF0010253101AEB3C
:1004700006004CEB085110EB0A0041EB0B01BDE804
:10048000F04D00F0BEB80EB5C10F80EAE070084430
:10049000CA07002140F233438DE80E000A460B469E
:1004A00000F0BEF803B000BD0EB540F2334102913A
:1004B0000021CDE900110A460B4600F0B1F803B067
:1004C00000BDC1F30A5210B5C1F3130140F2FF336E
:1004D00041F480119A4201DA002010BD40F233430A
:1004E0009A42A2F2334203DC524200F07AF810BD85
:1004F000904010BD30B5041E71F1000404DB4FF0D4
:100500000044404264EB0101141E73F1000405DB5A
:100510001C464FF00043524263EB04038B4208BF7A
:10052000824230BD30B5041E71F1000404DB4FF08F
:100530000044404264EB0101141E73F1000405DB2A
:100540001C464FF00043524263EB0403994208BF3C
:10055000904230BD30B50B460146002020220124D8
:1005600009E021FA02F59D4205D303FA02F5491B81
:1005700004FA02F52844151EA2F10102F1DC30BD97
:100580002DE9F05F0546002092469B4688460646C8
:10059000814640241BE0284641464746224600F05B
:1005A00020F853465A46C01A914110D311461846B6
:1005B000224600F06BF92D1A67EB01084F462246E0
:1005C0000120002100F062F917EB00094E41201EC6
:1005D000A4F10104DFDC484631462A464346BDE823
:1005E000F09F202A04DB203A21FA02F00021704714
:1005F00021FA02F3D040C2F120029140084319468B
:10060000704710B5141E73F1000408DA401C41F164
:10061000000192185B411A4301D120F0010010BD86
:100620002DE9F04D92469B4611B1B1FA81F202E0FC
:10063000B0FA80F22032904600F028F904460F46C6
:1006400040EA0A0041EA0B0153465A46084313D0D8
:10065000114653EA010019D0C8F140025046FFF795
:10066000C0FF05460E4650465946424600F00EF978
:10067000084305D0012004E020463946BDE8F08D4E
:100680000020054346EAE0762C4337430A98630589
:10069000E40AA0EB08000022FD0A44EA47540A30AD
:1006A00002D500200146E9E7010510196941DDE99D
:1006B000084500196941BDE8F04DA2E72DE9FE4F5C
:1006C000804681EA0300C00F0C46009021F00041F3
:1006D00023F00045B8EB0200A94105D2404621466F
:1006E00090461C460B46024623F00040104347D07C
:1006F000270DC7F30A00C3F30A510290401A019074
:1007000040286BDAC3F3130040F4801B0098924634
:1007100020B10023D2EB030A63EB0B0B019859467F
:10072000C0F14002504600F0B1F806460D46504672
:100730005946019A00F0B9F810EB08006141002415
:1007400087EA115284EAE7731A4340D0009A62B3F1
:10075000019A012A4FEA075215DC001B61EB0201E6
:100760004FF0004202EA0752CDE90042001C41F579
:10077000801132462B46FFF753FF03B0BDE8F08FE0
:1007800040462146F9E7001B61EB0201001C41F5E0
:10079000801300185B412018A2F5001747EB0301F6
:1007A00040EAD570B6196D4111E06D084FEA360682
:1007B00045EAC0754FEA0752001B61EB0201001CBD
:1007C00041F5801149084FEA300000195141324685
:1007D0002B4603B0BDE8F04FFFF713BF009801228E
:1007E00040000023D0EB020263EBE0730098214647
:1007F0004FEAE074B8EB000061EB0401E9E783F035
:1008000000435BE781F0004158E770B521F00043F9
:1008100003430CD0C1F30A550024D5EB040564EB67
:100820000403D617AD1AB34102DB0020014670BDA8
:10083000201841EB025170BDC1F30A52C1F31301FC
:1008400040F2FF3341F480119A4202DA002001465F
:10085000704740F233439A42A2F2334202DC5242E2
:10086000FFF7BFBE00F012B8064C074D06E0E06887
:1008700040F0010394E8070098471034AC42F6D3E7
:10088000FFF78CFC10B7000830B70008202A04DB03
:10089000203A00FA02F1002070479140C2F1200393
:1008A00020FA03F3194390407047202A06DBCB1748
:1008B000203A41FA02F043EAE07306E041FA02F31B
:1008C000D040C2F1200291400843194670472DE9FB
:1008D000F04D00231A461B1A8A4103DB0020014613
:1008E000BDE8F08DC1F30A52C1F3130141F4801544
:1008F0004FF0000BD10702D100186D41521E0027A6
:10090000044640F2FF11384601EB620A3E4680463B
:10091000024600204FF48011FFF763FEC2197141B7
:10092000BB1846EB0100B4EB030C75EB000C04D3D1
:10093000E41A65EB000517460E46241908F101007C
:100940006D4180463428E3DDF91946EB0600091BAA
:10095000A84103D24FF0FF32134601E000221346B4
:100960001BEB070046EB0A51BDE8F04DFFF749BE0F
:1009700070B58C1810F8015B15F0070301D110F861
:10098000013B2A1106D110F8012B03E010F8016B8E
:1009900001F8016B5B1EF9D12B0705D40023521E11
:1009A0000DD401F8013BFAE710F8013BCB1A921C79
:1009B00003E013F8015B01F8015B521EF9D5A14277
:1009C000D8D3002070BD000070B504460020226816
:1009D000936813F00C0F5ED0D36813F0007F05D03E
:1009E000E369012B04BFA369012B0BD0602922D03E
:1009F0002068826812F0040F1BD0826812F0020F88
:100A000013D016E013680C2113F0400F08BF234BDE
:100A100008D101E0984230D2D2F800C0401C1CF04E
:100A2000400FF7D040201060E2E7826842F01002E9
:100A300082600C2914D02068826812F0080F07D059
:100A4000826812F0020F03D1826842F020028260B5
:100A5000602908BF082504D06C2908BF0C2500D0E8
:100A6000042502F029FE064620688068284212D03C
:100A700002F022FE801B0B2809D9606C40F01000A8
:100A80006064A06C40F00100A064012070BD20688B
:100A900080682842ECD1002070BD0000009409005D
:100AA0000246406A416C11F0500F03D0C06B016BDD
:100AB00010460847416C41F4007141640168C968FF
:100AC00011F4406F04BFC16900290BD1416C21F4BE
:100AD00080714164416C11F4805F03D1416C41F03D
:100AE0000101416401F07ABC406A416C41F040016F
:100AF0004164816C41F00401816401F05BBD406A96
:100B000001F06DBC70B52C4C96B015460E4630B158
:100B1000012812D0022821D0032830D03FE04422FF
:100B200025496846FFF7AAFB606C1190A06C1290F3
:100B3000E06C216D1390149131E044221F49684606
:100B4000FFF79CFB1D48416C1191806C1290D4F80A
:100B5000A000D4F8A4101390149120E04422184966
:100B60006846FFF78BFB1648416C1191806C129020
:100B7000D4F8F400D4F8F810139014910FE0442244
:100B800010496846FFF77AFB0E48416C1191806C62
:100B90001290D4F84801D4F84C1113901491002EFF
:100BA00012BF002D16B070BD2A463146684601F0CE
:100BB000BFFF16B070BD000058040020AC04002038
:100BC000000500205405002010B50F4802F05AF827
:100BD0000E4802F057F80E4802F054F80D4802F0A3
:100BE00051F80021084801F0CBF90021074801F035
:100BF000C7F90021064801F0C3F9BDE81040002103
:100C0000044801F0BDB9000058040020AC040020E5
:100C1000000500205405002070B504460068816876
:100C200001F0030101292BD1016811F0010F27D038
:100C3000816801F00D01012913D1816841F00201A1
:100C4000816021680320086002F036FD05462068B7
:100C5000806810F0010F13D002F02EFD401B022817
:100C600009D9606C40F010006064A06C40F0010095
:100C7000A064012070BD2068806810F0010FEBD1E6
:100C8000002070BD70B504460068816801F0030162
:100C9000012903D1016811F0010F23D181686FF39D
:100CA0009E1181B9816841F00101816002F004FD6B
:100CB00005462068006810F0010F13D102F0FCFC1B
:100CC000401B022809D9606C40F010006064A06CE1
:100CD00040F00100A064012070BD2068006810F0A1
:100CE000010FEBD0002070BD70B5214C0646A06806
:100CF000002808BF0C250AD0082808BF0A2506D0FE
:100D0000102808BF082502D0182808BF062503F0C0
:100D100031FAB0FBF6F0401B401EB0F5167F88BFDD
:100D2000072017D8B52828BF062013D23D2828BF92
:100D300005200FD2132828BF04200BD2072828BF74
:100D4000032007D2042828BF022003D202282CBF88
:100D500001200020E060074801F094FF04F0FCF956
:100D600004F032FA04F068FABDE8704004F09CBA6E
:100D70000C0000205804002030B5274D00212DED37
:100D8000048B81B06A4668680AF04CF8234C94F8EA
:100D90004A0001282FD104F0E1FF84F83400208EAE
:100DA000618E401C491C4843FFF76DFB41EC180B5A
:100DB0001B480068FFF778FB53EC182BFFF7F4FA99
:100DC00041EC180B94F83400FFF76EFB41EC190B63
:100DD000A06BFFF769FB53EC182BFFF773FA53EC8A
:100DE000192BFFF76FFA41EC100B84ED100B94ED0B
:100DF000100B04F0C9FF00236A461946686809F021
:100E000083FF0C4800236A4606A1006809F07CFFB6
:100E100001B0BDEC048B30BDA401002008EB002024
:100E200004000020474574724461746153656E6428
:100E300000000000F800002070B5334E00212DEDB9
:100E4000028B82B06A46706809F0ECFF2F4C0025D7
:100E500084F8485005F0CCF8A0622069E1882A1F88
:100E600002EB8101405821690968401AFFF71CFB19
:100E700041EC180BE088401EFFF705FB53EC182BE4
:100E8000FFF792FA41EC180BA06AA188204A491C8E
:100E9000126851434843FFF707FB53EC182BFFF749
:100EA00011FA41EC100B84ED060B94ED060B05F0E6
:100EB00015F8E088A16AB0FBF1F201FB120191B1D3
:100EC00084F84950A16AB0FBF1F0A16AA26A00FB64
:100ED0000120E080206909F047FA2561E088800060
:100EE00008F0A2FC206100236A461946706809F0E8
:100EF0000BFF0B4800236A4606A1006809F004FFB7
:100F000002B0BDEC028B70BDA401002008EB0020F4
:100F1000000000204749634461746153656E6400BA
:100F2000F800002070B5344D00212DED028B82B009
:100F30006A46686809F076FF304C012684F84860FC
:100F400005F0F8F8E06260692189721F02EB810107
:100F5000405861690968401AFFF7A6FA41EC180B7E
:100F60002089401EFFF78FFA53EC182BFFF71CFA6D
:100F700041EC180BE06AA188214A491C12685143D0
:100F80004843FFF791FA53EC182BFFF79BF941EC1C
:100F9000100B84ED080B94ED080B05F03FF8208949
:100FA000E16AB0FBF1F201FB120199B184F84960EA
:100FB000E16AB0FBF1F0E16AE26A00FB0120208106
:100FC000606909F0D1F9002060612089800008F093
:100FD0002BFC606100236A461946686809F094FE9C
:100FE0000B4800236A4607A1006809F08DFE02B095
:100FF000BDEC028B70BD0000A401002008EB0020B6
:10100000000000204749634461746153656E6400C9
:10101000F800002010B50021084800F0B1FF0021C1
:10102000074800F0ADFF0021064800F0A9FFBDE829
:1010300010400021044800F0A3BF00005804002025
:10104000AC04002000050020540500208AB00022D6
:101050001421052009F0B0FB6B4DDFF8B081DFF8FB
:10106000B091DFF8B0B1DFF8B0A16C4E6C4F6D4CB1
:10107000286000235A1E01A9286809F0DAFB9DF8B0
:1010800004003128F5D100BF9DF819008DF8180033
:101090009DF81A008DF819009DF81B008DF81A00B4
:1010A0009DF800008DF81B00684607F097F80028AF
:1010B000DFD19DF800003A2818BF3B28E4D19DF805
:1010C0001800DDF8191040EA0120A0EB08014045A6
:1010D0007CD013DC10EB090039D010EB0B012ED0C3
:1010E0005148081836D05149C84217D152480A15FC
:1010F00000234FA1006809F0C5FCBAE711EB0A0014
:1011000051D0A0F18371B1F521612BD04B48081863
:1011100071D0A0F6FC00B0F5C02F6FD04648002378
:101120005A1E47A1006809F0ADFC684607F056F862
:1011300000289ED19DF800003B28F6D199E73E4853
:1011400000235A1E40A1006809F09CFC91E708F0BA
:10115000E5FB8EE7384800235A1E3DA1006809F0E0
:1011600091FC86E7052108A807F05AF804280CD35B
:101170009DF82000DDF8211040EA0120801909D0F7
:10118000F84218BF01203BD10BE0002818BF3548BA
:1011900007D0F5E7284800235A1E3349006809F0B4
:1011A00071FC20462CE0052108A807F039F8042836
:1011B0000DD39DF82000DDF8211040EA01208019B0
:1011C0000AD0F84218BF02201AD1EAE70CE0002842
:1011D00018BF2448E5D0F4E7174800235A1E2349D6
:1011E000006809F04FFCDCE707F068FF08F08CFAB4
:1011F0003FE700E002E007F0F5FD01E007F0E4FC66
:1012000008F082FA35E70000F40000204F53435005
:10121000AEBAACDE090105E20C04F6FCBDB9B8C0FB
:10122000FEF702E0454E445FF3FEFBFF03FDF2FFD5
:1012300043736869656C6400F80000200C1405F5C0
:101240004539393900000000305F49444E00000044
:101250003953656E645379737456657273696F6E32
:1012600000000000020C0B20F0960008B08B000874
:1012700092B004F0C3F9F849002401F50070224649
:1012800001604FF400718180C480048184721E214A
:10129000052009F091FAF14D2860042009F064FA64
:1012A000EFA168600FC90DF1280C8CE80F00F0A0C9
:1012B000D0E9001280680E91CDE90F20E74C0023A1
:1012C0005A1E02A9206809F0B4FA4FF0FF31606895
:1012D00009F0EFFD9DF80800302835D0312842D0C4
:1012E000322808BF002000F00381472800F0198150
:1012F000332800F09381342800F09D81352800F0D8
:101300001982442800F05182422800F05382432879
:1013100000F09A82362800F09E82372808BFD7A0B6
:1013200000F02481382808BFD6A000F01F8139289A
:1013300000F0C982492800F0FF82412808BFD3A0ED
:1013400040F0018300F012B9D0A006F0FAFFD1A05E
:1013500006F0F7FF07F03CFB002818BFD2A040F0D2
:10136000058100F0E4BA07F027FB042840F0DF8293
:1013700007F010FB054607F019FB044607F0CEFA0C
:10138000064600F0F7FD824608F0E4FA010E8DF8FB
:101390002C10010C8DF82D10010A8DF82E108DF8EF
:1013A0002F00082E14D907F00DFB074607F0FEFAB0
:1013B000804607F0F5FA08FB00F0A7EB104005EBBC
:1013C0004000B0FBF5F105FB11006400009011E056
:1013D00007F0F8FA074607F0E9FA804607F0E0FA66
:1013E00008FB00F0A7EB10402844B0FBF5F105FB2B
:1013F000110000908DF83060200C8DF83100200A2B
:101400008DF8320000988DF8334020448DF837A0D5
:10141000A84283BF00982F1AA4EB0708274698BF5D
:101420004FF000080024BAF1000F4DD9204607F014
:1014300095FA814604F1010B8DF836B010210AA807
:1014400006F06CFFB7F5804F18D900983C4600268F
:1014500009EB000505EB86304FF4804106F05EFF96
:10146000701CA4F58044C6B2B4F5804FF2D8002CAD
:101470001CBF05EB8630A1B204D105E027B100986E
:10148000B9B2484406F04AFFB8F5804F84BF4546DC
:10149000002425D909EB84304FF4804106F03EFF4B
:1014A000601CA5F58045C4B2B5F5804FF2D8002D7B
:1014B0001CBFA9B209EB843002D000BF06F02EFF9A
:1014C0000BF0FF045445B1D37CA006F03AFF8048EE
:1014D00000235A1E7BA1006809F0D4FA00F027BA55
:1014E000B8F1000F1CBF1FFA88F14846E6D1E7E7C4
:1014F00000F13101441C8DF83C10E0B207F052F8C5
:10150000010C8DF84110010A8DF842108DF843004E
:101510000C210EA806F002FFE0B20228E8D300F08A
:1015200006BA6C4C94F84A00012809D094F84A0095
:10153000032812D094F84A0002281BD000F0F7B913
:1015400065A006F0FEFE94ED100B65A153EC102B88
:1015500002A805F00BFA00F0F6B963A006F0F1FE60
:10156000A26B63A102A805F001FA02A806F0E9FE49
:1015700000F0DDB994F8480020B194F84800012843
:1015800012D022E05BA006F0DCFE94ED060B54A125
:1015900053EC102B594805F0E9F9584806F0D1FEF4
:1015A000022084F8480010E055A006F0CAFE94ED31
:1015B000080B4BA153EC102B504805F0D7F94F48BE
:1015C00006F0BFFE022084F8480094F8490028B1D4
:1015D00094F84900012811D000F0A9B94AA006F0FA
:1015E000B0FEE2884AA1454805F0C0F9434806F03C
:1015F000A8FE022084F8490000F099B946A006F040
:10160000A0FE228942A13D4805F0B0F93B4806F012
:1016100098FE022084F8490000F089B9404806F09D
:1016200090FE02F089FD06F097FE02F0A3FD06F0A1
:1016300093FE3C489AE73C4806F083FE4FF4007066
:1016400006F08AFE4FF4E13006F086FE374806F0D9
:1016500078FE37488AE70000B0420020F8000020FA
:101660004F53435F7979797978787878434830783F
:1016700047454E5F7843485F46787878475F4E58D5
:1016800000000000475F4F4B0000000041434B5FEC
:101690000000000053544D3332463330332D4E7525
:1016A000636C656F00000000202B20536869656C37
:1016B00064204C454F2056302E310000535F4F4B75
:1016C00000000000324461746153656E74000000D4
:1016D0009401002008EB00204554524420000000F3
:1016E0002530392E3966200052454644200000003E
:1016F000256420004943314420000000BC44002000
:101700004943324420000000494331422000000098
:101710002568752000000000494332422000000087
:1017200068A1000870A10008E09E0008E89E00087B
:10173000F09E0008854806F004FE854806F00CFE81
:1017400049F6404006F008FE042006F005FE0020A1
:101750008DF8000010F0FF0008BF7E480BD0012874
:1017600008BF7D4807D0022808BF7C4803D0032863
:1017700008BF7B4801D106F0E4FD9DF80000401C45
:10178000C0B28DF800000428E4D340F6E44006F02F
:10179000E3FD7448008806F0DFFD684608F0CAF8EB
:1017A0009DF8001006F0BAFDC1E06F4806F0C9FDD3
:1017B0006E48DBE66E4806F0C4FD022006F0ACFD84
:1017C000042006F0A9FD022006F0A6FD012006F087
:1017D000A3FD684F684E002507F1240807F14C0966
:1017E00007F15C0A654806F0ACFD705D0024002836
:1017F00005D81FE0002C1CBF614806F0A2FD002D9B
:1018000008BF57F824000ED0012D08BF58F8240057
:1018100009D0022D08BF59F8240004D0032D08BFB9
:101820005AF8240001D106F08CFD601CC4B2705D32
:10183000A042DFD8681CC5B2042DD3D34F4806F0B0
:1018400080FD504892E600BF07F0C2F8002814BFA0
:101850004D484E488AE64E4806F073FD4D4806F066
:101860007BFD4FF4FA6006F077FD0C2006F074FD66
:10187000022006F071FD002405E024B1012C08BF10
:10188000454801D002E0454806F05BFD601CC4B24B
:10189000022CF2D307F09CF828B1414806F040FD35
:1018A00041F21D3004E0002006F056FD40F6E44011
:1018B00006F052FD40F6E44006F04EFD4FF496600F
:1018C00006F04AFD33E0374806F03BFD364806F0A7
:1018D00038FD364806F035FD354806F032FD35480E
:1018E00006F02FFD344806F02CFD344806F029FDA3
:1018F000562006F011FD01F0DBFE302404EB1060F1
:10190000C0B206F009FD2E2006F006FD01F0D0FE63
:1019100004EB1040C0B206F0FFFC2E2006F0FCFCE9
:1019200001F0C6FE04EB1020C0B206F0F5FC24481E
:10193000406809F05DFAC1E4214800235A1E02A95B
:10194000006808F076FF02A810E6000030A000084A
:1019500000093D003CA0000844A000084CA000087D
:1019600054A00008BAF7FF1F0C9F0008149F00083E
:10197000FCA000080001002084B500080CA10008AC
:1019800010A1000814A1000834A100083CA100081F
:10199000949F000880841E00A89F0008A09F000854
:1019A000D9ECFFFFECA10008F4A1000804A2000894
:1019B0000CA2000814A2000820A2000828A2000817
:1019C000F800002086B000221421052008F0F4FE63
:1019D000924D2860042008F0C7FE6860286800283F
:1019E00044D08F4C012784F84A7041F61F49A4F86F
:1019F000329042F20F7BA4F830B04FF47A70A08797
:101A00000026A66384F83470A680701E206004202F
:101A1000E0802081A762E7624FF0020884F84880E6
:101A200084F8498004F0AAFCDFF8F8B14FF0030A0B
:101A300000235A1E6946286808F0FBFE4FF0FF316C
:101A4000686809F036FA9DF8000031280FD0322876
:101A500023D0332837D034284BD035285AD03628D5
:101A600069D037287ED038287DD0D3E0FEE794F8BF
:101A70004A0068B1012806D0022807D0032808BF11
:101A800004F036FD04E004F01FFD01E004F02AFD3F
:101A900084F84A7004F072FCBCE094F84A0068B123
:101AA000012806D0022807D0032808BF04F020FD33
:101AB00004E004F009FD01E004F014FD84F84A801C
:101AC00004F0A6FCA6E094F84A0068B1012806D00C
:101AD000022807D0032808BF04F00AFD04E004F040
:101AE000F3FC01E004F0FEFC84F84AA004F0A8FC3A
:101AF00090E094F84A00002844D0012807D002283A
:101B000002D0032803D085E004F02AFB82E004F031
:101B1000B9F97FE094F84A0000287BD0012807D06B
:101B2000022802D0032803D074E004F039FB71E0EE
:101B300004F0C2F96EE0A08F0A2804BFA4F8329026
:101B400063201AD0642804BFA4F8329040F2E73032
:101B500013D0B0F57A7F04BFA4F8329042F20F7030
:101B60000BD001E00FE032E0A0F51C51103905D197
:101B700048F69F40608644F61F602086618E208E66
:101B800004F07EF846E06089A16AB0FBF1F201FB47
:101B900012000028608906D0A16AB0FBF1F0A16AAA
:101BA000A26A00FB0120E08084F84960206908F007
:101BB000DBFB2661E088800007F036FE2061002311
:101BC0005A1E19A1DBF8000008F05CFF22E0A08992
:101BD000E16AB0FBF1F201FB12000028A08906D0F7
:101BE000E16AB0FBF1F0E16AE26A00FB01202081CA
:101BF00084F84970606908F0B7FB6661208980004D
:101C000007F012FE606100235A1E0BA1DBF80000F2
:101C100008F038FF686809F0EBF809E7A401002034
:101C200008EB0020F80000204749634275666665AE
:101C3000723153656E64000047496342756666659C
:101C4000723253656E6400000149002008607047DD
:101C500008000020014902200860704708000020A9
:101C600010B5446A204601F070F80120207110BDC3
:101C700010B5446A204601F03EF80120207110BDE5
:101C800010B5446A206940F004002061204601F04C
:101C90005EF80120207110BD10B5446A206940F043
:101CA00004002061204601F028F80120207110BDB9
:101CB000406A01F04BB810B5406A01F01DF810BD44
:101CC000F8B515460E46002410B1012808BF1024AF
:101CD0002146064801F040F9002000902B4632468C
:101CE0002146024801F0B0F8F8BD0000BC03002016
:101CF00010B5054801F0DCF9BDE810400123034AA6
:101D00000349014801F0B7BAF002002040EB00207F
:101D10003400004010B5064801F0CAF90548C388F0
:101D20000269BDE810400449014801F0A4BA00006E
:101D30003403002008EB00203400004010B50648B2
:101D400001F0B6F9054803894269BDE8104004492D
:101D5000014801F090BA00007803002008EB002051
:101D60003800004010B5284C96B0012806D0022853
:101D700012D0032821D0042830D03FE04422224949
:101D80006846FEF77BFA606C1190A06C1290E06CD4
:101D9000216D1390149131E044221C496846FEF7EE
:101DA0006DFA1A48416C1191806C1290D4F8A00021
:101DB000D4F8A4101390149120E0442214496846EA
:101DC000FEF75CFA1248416C1191806C1290D4F8C5
:101DD000F400D4F8F810139014910FE044220D4948
:101DE0006846FEF74BFA0B48416C1191806C1290DB
:101DF000D4F84801D4F84C11139014910F9800684E
:101E0000406816B080B210BD58040020AC04002019
:101E1000000500205405002000B585B003F008FF40
:101E20000021094801F08CF81021074801F088F8DA
:101E30003020009000200190029069464FF09040C1
:101E400001F012FB05B000BDBC03002000B5154930
:101E500085B013480860084600F07AFF042000901F
:101E6000114800226946006801900E4800F046FFC4
:101E700014200090102269460A4800F03FFF3020ED
:101E80000090032001900020029069464FF090409E
:101E900001F0EAFA05B05DF804EB03F0D7BE0000EC
:101EA00000740040BC0300200800002086B000221F
:101EB0001421052008F080FC2C4F2D49A1F12C04A1
:101EC000386021604FF47A706060E060A06020614B
:101ED0004FF0010884F8158060622084A1614FF002
:101EE000000984F814900C20208500235A1E6946AE
:101EF000386808F09EFC9DF80000312818BF322891
:101F0000F3D0332808BF207DEFD0342809D03528FE
:101F100004BF207D0128E8D1FFF77EFF84F81490EC
:101F2000E3E7207D002808BF0025DED104EB85060D
:101F300070680022294604F09DF9607DA84207D907
:101F400004EB4500028CB1692846FFF7B9FE04E0B6
:101F5000002211462846FFF7B3FE681CC5B2022DC9
:101F6000E4D3FFF773FF84F81480BEE7A0010020DC
:101F700038E30020014890F821007047C8E20020B3
:101F80002DE9F041044690F840000D46012804BFB9
:101F90000220BDE8F0814FF0010884F8408020461F
:101FA000FEF73AFE06004FF0000718BF012604D0E6
:101FB00084F840703046BDE8F081C4F84480206861
:101FC000816821F080418160012D04D12068816801
:101FD00041F0804181602068816841F0004181606A
:101FE00001F06AFB05462068806810F0004F14D0AD
:101FF00001F062FB401B0A280AD9606C20F0020045
:1020000040F01000606484F840700120BDE8F08169
:102010002068806810F0004FEAD1606C20F0020068
:1020200040F001006064C3E72DE9F00198B04FF083
:10203000000CCDF808C090F840206446012A01BF8A
:10204000022018B0BDE8F0017047012780F8407009
:102050000268936813F0040F40F05D814B681F2500
:10206000052B0CD2166B03EB43035B009D4026EA65
:1020700005050E6806FA03F32B4313632CE00A2BC5
:102080000DD2566B5B1F03EB43035B009D4026EABA
:1020900005050E6806FA03F32B4353631CE00F2B70
:1020A0000DD2966B0A3B03EB43035B009D4026EA8F
:1020B00005050E6806FA03F32B4393630CE0D66B19
:1020C0000F3B03EB43035B009D4026EA05050E68CA
:1020D00006FA03F32B43D363026893684FF00705B6
:1020E00013F00C0F64D10B680A2B0ED396690A3BD0
:1020F00003EB430305FA03F826EA0806D1F8088043
:1021000008FA03F3334393610CE0566903EB43038E
:1021100005FA03F826EA0806D1F8088008FA03F35E
:102120003343536102684B69D668D1F81080C6F317
:10213000C1067600B340A14EB8F1010F3FD0B8F10F
:10214000020F49D0B8F1030F53D0B8F1040F5DD09E
:10215000136E0E7803F0F843B3EB866F03D1136E62
:1021600023F0004313660268536E0E7803F0F843C1
:10217000B3EB866F03D1536E23F0004353660268BE
:10218000936E0E7803F0F843B3EB866F03D1936E32
:1021900023F0004393660268D36E0E7803F0F84391
:1021A000B3EB866F04BFD36E23F0004300D1D36638
:1021B0000268936803F00303012B37D132E0D2F8B1
:1021C000608008EA060691F8008043EA886333439A
:1021D00043F000431366EBE7D2F8648008EA060692
:1021E00091F8008043EA8863334343F00043536629
:1021F000DEE7D2F8688008EA060691F8008043EA34
:102200008863334343F000439366D1E7D2F86C8090
:1022100008EA060691F8008043EA8863334343F0F6
:102220000043C4E7136813F0010F7AD1CB68012B88
:10223000D2F8B03006D00D7807FA05F5AB43C2F8F6
:10224000B03022E00E7807FA06F63343C2F8B03019
:102250000A6803680A2A0CD39E69093A02EB420213
:10226000954026EA05058E6806FA02F22A439A612D
:102270000BE05E69521C02EB4202954026EA05051E
:102280008E6806FA02F22A435A6103684C4DB3F194
:10229000A04F16BFAB424B4A4B4A0968102908D0E1
:1022A00011290BD0122904BF966816F4800F09D0AB
:1022B00037E0966816F4000F33D103E0966816F005
:1022C000807F2ED1B3F1A04F0FD0AB4204BF4FF0AF
:1022D000A04503950AD03D4D3D4EAB4208BF039645
:1022E00004D0B34218BF039400D103959D6805F054
:1022F0000305012D03D11D6815F0010F0BD1039DBE
:10230000B5B1AD6805F00305012D11D1039D2D6810
:1023100015F0010F0CD0416C41F0200141644FF0E9
:10232000010C80F8404018B06046BDE8F0017047ED
:10233000102909D0112933D0122904BF916841F422
:102340008001EED19160ECE7B3F1A04FE9D1916843
:1023500041F4000191601F491F4A0968B1FBF2F185
:1023600001EB8101490002910091DAD0B1F1004FF7
:102370001ED20029D8BF002105DD11F0010102D0D5
:10238000029A521E0292009A491C521C9142C8DACB
:10239000029B891C5B1E5B1E02939142F8DBC0E727
:1023A000B3F1A04F04BF916841F08071B9D1C9E782
:1023B0000299491E0291FCD1B3E7000000F0FF83AF
:1023C00000010050000300500007005000040050BE
:1023D000000500509000002040420F0070477047F9
:1023E000002804BF0120704770B50446406C96B0C9
:1023F00040F0020060646C212046FEF7E5FA05001B
:102400004FF0000640F0BC802068C16841F4001124
:10241000C1602046FEF700FC050018BF012540F012
:10242000AF8001206064206841686FF30A01416059
:10243000216840F2FF7008602068816821F0E04167
:1024400081602068816841F0005181602068C16826
:102450004E4A1140C160206841696FF3DD0141615E
:102460002068816901F0784181612068016A01F08A
:10247000F02101622068416A01F0FF214162206879
:10248000816A01F0FF2181622068016B404A11409E
:1024900001632068426B3F490A4042632068826BB7
:1024A000114081632068C16B21F0DF0121F4E061FC
:1024B000C16321680A6E384802400A6621684A6E84
:1024C00002404A6621688A6E02408A662168CA6EA6
:1024D0001040C8662068D0F8A0106FF31201C0F851
:1024E000A0102068D0F8A4106FF31201C0F8A41057
:1024F0002068D0F8B0106FF31201C0F8B010206857
:10250000D0F8B41021F07F11C0F8B4102068234A2D
:10251000B0F1A04F1ABF904221492249B0F1A04F1B
:102520000FD0904204BF4FF0A04200920AD01E4A42
:102530001E4B904208BF009304D0984218BF0096EB
:1025400000D10092826802F00302012A03D10068E0
:1025500010F0010F0FD1009848B1806800F003001F
:10256000012804D10098006810F0010F03D1886899
:102570000F4A10408860204600F08CF9A66466641B
:1025800084F8406016B0284670BD000004800080CA
:10259000300882E0200882E000F0FF0300010050D4
:1025A00000070050000300500004005000050050D8
:1025B000E0103CFE7047000070B598B04FF0000688
:1025C00004003546029602BF012018B070BD606C51
:1025D00010F0100F606C03D010F0100F69D06DE098
:1025E00000284BD1A5642565E56484F84050204659
:1025F00000F052F92068806810F0805F3ED12046DC
:10260000FEF70AFB0646606C10F0100F08BF002EA4
:1026100034D1606C20F4885040F00200606420687F
:10262000816821F0405181602068816841F08051CB
:1026300081608F488F490068B0FBF1F000EB8000AB
:1026400040000290009019D0B0F1004F80F00B8153
:102650000028D8BF002005DD10F0010002D002994B
:10266000491E02910099401C491C884206DA029AD0
:10267000801C521E521E02928842F8DB206881683C
:1026800011F0805F03D0806810F0005F0BD0606CA9
:1026900020F0020040F010006064A06C40F00100E7
:1026A000A064606C0AE0606C10F0100F08BF002E90
:1026B00004D12068816811F0040F0AD0606C20F00A
:1026C000020040F0100060644FF0010618B0304680
:1026D00070BD616C21F4807141F002016164DFF82A
:1026E00098C1B0F1A04F1ABF604564496449654B79
:1026F000654AB0F1A04F08BFCDF808C00ED06045C4
:1027000004BF4FF0A04CCDF808C007D0904208BFDE
:10271000029303D098420CBF02920295D0F808C0F1
:102720000CF0030CBCF1010F03D1006810F0010F95
:1027300013D1029848B1806800F00300012804D149
:102740000298006810F0010F07D18868D4F804C01F
:1027500020F4403040EA0C008860D4E902100143C4
:10276000A06B012814BF4FF4805C4FF0000CE069AF
:102770004CEA403C41EA0C01D4F824C0BCF1010F02
:102780000AD1E8B3606C20F0020040F020006064E1
:10279000A06C40F00100A064E06A01282DD0D4F8BC
:1027A00000C094451CBF9C4520F4805022D1B0F558
:1027B000307F08BF4FF4E0701CD0B0F5807F08BFB9
:1027C0004FF4307016D0B0F5E07F08BF4FF4807042
:1027D00010D0B0F58A5F08BF4FF470700AD0B0F522
:1027E000845F08BF4FF4A07004D0B0F5865F08BFC7
:1027F0004FF4C0700843216B01432068826800E0F9
:1028000003E012F00C0F15D108E0208DDFF87CC03A
:102810000CEB4040084340F48031BDE7C26822F031
:10282000020222F48042C260A069626B800340EA27
:10283000420001432068C268154B1A401143C16031
:10284000206901282068016B21F00F0102D1226A62
:10285000521E11430163A564606C20F0020040F039
:102860000100606432E70298401E0290FCD105E747
:102870009000002040420F0000010050000700506F
:102880000003005000050050000400500000FEFF4F
:1028900007C0F0FF704700002DE9F04F9349044650
:1028A000A1F11006D0F800C033688F4803228027BA
:1028B00000255B1C87B04FF480684FF480794FF09F
:1028C000200ABCF1A04F1ED0ACF1A04BBBF5807B21
:1028D00015D0A1F11003ACF1A04B5B685B1CBBF5FC
:1028E000806B7CD0ACF1A04BBBF5A06B1CBF07B0DC
:1028F000BDE8F08F7360012B40F0C980B9E0336010
:10290000012B4BD13CE03360012B0DD1436943F0E7
:1029100080534361436903F080530593C36A23F4F2
:10292000F87343F48073C3620878714931F810106A
:10293000CDE900126F49029551F82000694600F078
:1029400093FDDFF8B8B16C48CBE90005CBE902573D
:10295000B068102813BF1828CBF81450CBF81050CB
:10296000CBE904984FF40050CBE906A0634800F08F
:1029700005FCC4F83CB0CBF8244007B0BDE8F08FAC
:10298000436943F080534361436903F080530593E7
:10299000C36A23F4F87343F48073C36248785849D8
:1029A00031F81010CDE900125649029551F8200077
:1029B000694600F059FDDFF854B15348CBE90005F2
:1029C000CBE90257B068102813BF1828CBF8145071
:1029D000CBF81050CBE904984FF4005000E00BE026
:1029E000CBE906A0494800F0C9FBC4F83CB0CBF8DD
:1029F000244007B0BDE8F08F7360012B0DD143690F
:102A000043F000534361436903F000530593C36AE5
:102A100023F4785343F40053C36288783C4931F877
:102A20001010CDE900123B49029551F8200069468B
:102A300000F01AFDDFF8E4B03748CBE90005CBE938
:102A40000257B068102813BF1828CBF81450CBF8E1
:102A50001050CBE904984FF40050CBE906A02F4862
:102A600000F08CFBC4F83CB0CBF8244007B0BDE8C4
:102A7000F08F436943F000534361436903F000530F
:102A80000593C36A23F4785343F40053C362C878B0
:102A9000234931F81010CDE900122249029551F86E
:102AA0002000694600F0E0FCDFF880B01E48CBE96A
:102AB0000005CBE90257B068102813BF1828CBF8DF
:102AC0001450CBF81050CBE904984FF40050CBE9E8
:102AD00006A0164800F052FBC4F83CB0CBF82440E6
:102AE00007B0BDE8F08F0000001002401C0000207D
:102AF000A0B400082000002008000240A805002023
:102B0000D8B400084400002008040240EC0500206E
:102B100090B400086C0000205804024030060020E9
:102B200098B400087C0000201C04024074060020B9
:102B30002DE9F05F044600688B469246816811F0EB
:102B4000040F18BF022502D02846BDE8F09F94F874
:102B50004010012904BF0220BDE8F09F0121DFF8E9
:102B60000C91434F84F840104FF0A048B0F1A04FB3
:102B700016BFB842D8F80803D9F8000010F01F0FAC
:102B80004FF000061CBF012584F84060DCD12046D0
:102B9000FEF778F8050018BF84F84060D4D1606C67
:102BA00020F0010020F4606040F4807060642068D0
:102BB000B0F1A04F1ABFB842D9F80010D8F80813E6
:102BC00011F01F0F1EBFB0F1A04FA0F1A041B1F551
:102BD000806142D0616C41F480116164B8420EBFE3
:102BE000D8F80C002348006810F0007F05D0606C16
:102BF00020F4005040F480506064606C10F4805FFA
:102C000008BFA66403D0A06C20F00600A06484F87E
:102C10004060E16B18488862E16B1848C862E16B5C
:102C20001748086321681C2008602068416841F04B
:102C3000100141602068C16841F00101C160206855
:102C4000534600F140015A46E06B00F014FB206847
:102C5000816841F00401816076E7616C21F48011A4
:102C60006164C06810F0007FC1D1C6E7080700505A
:102C7000000100500C040050A10A0008FF0A0008DF
:102C8000E90A000870B5044690F84000012804BF26
:102C9000022070BD012084F840006C212046FDF721
:102CA00093FE050022D12068C16821F00101C160B6
:102CB000E06B00F078F9051E03D0606C40F0400036
:102CC00060642068416821F010014160204604D111
:102CD000FDF7A2FF050009D102E0FDF79DFF05E029
:102CE000606C20F4885040F001006064002084F89B
:102CF0004000284670BD7047704770474379012BEC
:102D000004BF0220704730B44FF0010C80F805C0BA
:102D10000223037103681C6840F6FE759540AC43BE
:102D2000D1E90051294391402143196001680B68A2
:102D3000C02404FA02F223EA02020A6080F804C006
:102D40000021417130BC084670477047704770479A
:102D5000002804BF0120704770B5044600790025A3
:102D600018B96571204600F007F80220207125612E
:102D700001202071002070BD2DE9F04F054600684C
:102D800087B0A0F18041B1F5E8411CBF07B0BDE8B4
:102D9000F08F2848C16941F00051C161C069002627
:102DA00000F000500590302000900320CDE901068E
:102DB00069464FF0904000F057FB204C4FF480796B
:102DC0001D481027C4F81090C4E900074FF4806A2A
:102DD0002020C4E905A00002E0614FF08008C4E9AA
:102DE0000268204600F0CAF9DFF854B0AC606562B2
:102DF000DBF8000040F40050CBF8000044341148E8
:102E0000C4F81090C4E900072020C4E905A000021E
:102E1000E061C4E90268204600F0B0F9EC60656248
:102E2000DBF8000040F48040CBF8000007B0BDE8BC
:102E3000F08F00000010024030000240D00300205C
:102E400000000140440002402DE9F04104460D46D7
:102E50009446617900220698012904BF0220BDE84A
:102E6000F0810126667102212171002D32D0E768C0
:102E70002D49B962E7682D49F962E7682C49396341
:102E800021680F6847F080570F60002804BF206852
:102E900000F114020AD0042804BF206800F11802CF
:102EA00004D0082804BF206800F11C0220680168D3
:102EB00041F0005101606146E06800F0DCF900205B
:102EC00060712068016806FA05F211430160002074
:102ED000BDE8F081A7681749B962A7681649F96289
:102EE000A7681649396321680F6847F480570F6057
:102EF000002804BF206800F108020AD0042804BF9B
:102F0000206800F10C0204D0082804BF206800F1FA
:102F100010022068016841F4005101606146A06818
:102F200000F0A9F9CBE70000711C0008B71C0008ED
:102F3000991C0008611C0008B11C0008811C0008D5
:102F40000368D3F800C0012202FA01F12CEA010162
:102F5000196002710020704770B50446006802686D
:102F60004FF480538B409A43026020680268012529
:102F700005FA01F39A43026069B1E06800F013F8C2
:102F800021680A6822F000520A6000281ABF042152
:102F90002171257170BDA06800F005F821680A68EC
:102FA00022F40052F0E701680A6822F00E020A607B
:102FB00001680A6822F001020A6090F84020C36BA1
:102FC000012101FA02F25A6080F82110002180F8F4
:102FD00020100846704710B590F8211000240229EF
:102FE00003D004218163012419E001680A6822F0FA
:102FF0000E020A6001680A6822F001020A6090F875
:103000004020C36B012101FA02F25A6080F82110BE
:10301000002180F82010416B002918BF8847204606
:1030200010BD0000002804BF0120704701680A6835
:1030300022F001020A6002680021116002685160FA
:10304000026891600268D160DFF84CC00268134BDF
:10305000624509D2DFF848C06244A3FB023212097C
:10306000920002640F4A08E0DFF83CC06244A3FB10
:1030700002321209920002640C4AC26390F84020A6
:10308000012303FA02F2C36B5A60816380F82110B6
:1030900080F820100020704708040240CDCCCCCC32
:1030A000F8FFFDBF00000240F8FBFDBF0004024036
:1030B000F0B4C16BD1F800C001680B68046C042245
:1030C00002FA04F515EA0C0F18BF13F0040F12D022
:1030D0000B6813F0200F03D10B6823F004030B607F
:1030E00090F8401002FA01F1C26B5160C16A0029E8
:1030F00042D1F0BC7047022606FA04F212EA0C0F25
:103100004FF000054FF0010218BF13F0020F15D069
:103110000B6813F0200F05D10B6823F00A030B6036
:1031200080F8212090F84010C26B06FA01F151603E
:1031300080F82050816AF9B9F0BC7047082606FA79
:1031400004F414EA0C0F12BF13F0080FF0BC704720
:103150000B6823F00E030B6090F84010C36B02FA6B
:1031600001F15960826380F8212080F82050016BC2
:10317000002904BFF0BC7047F0BC0847002804BF1A
:103180000120704710B4022180F8211002681168F4
:10319000D0E9013C43EA0C03D0E903C44CEA040C37
:1031A00043EA0C03D0F814C06FF30D1143EA0C038B
:1031B000D0F818C043EA0C03D0F81CC043EA0C0353
:1031C00019431160124B0168124A994208D2124BFE
:1031D0001944A2FB01210909890001640F4907E094
:1031E0000F4B1944A2FB01210909890001640D4913
:1031F000C16300218162C162016341638163012275
:1032000080F8212080F8201010BC0846704700008C
:1032100008040240CDCCCCCCF8FFFDBF000002403A
:10322000F8FBFDBF0004024090F820C00023BCF171
:10323000010F04BF022070474FF0010C80F820C03E
:1032400090F821C0BCF1010F0FD1002908BF8262A4
:103250000CD0012908BFC26208D0022908BF02634E
:1032600004D0032908BF426300D00123002180F865
:1032700020101846704770B490F820404FF0000CB2
:10328000012C02BF022070BC7047012480F820404E
:1032900090F821600025012E1CBF80F820504FF0CF
:1032A000020C02D070BC60467047022680F8216094
:1032B000856305682E6826F001062E6090F8405060
:1032C000AC40C56B6C60046863604368102B036896
:1032D00003BF9A600268D16099601CBF0168CA6030
:1032E000C16A002901680A6818BF42F00E0206D1BF
:1032F00042F00A020A6001680A6822F004020A60C9
:103300000068016841F001010160CBE731B500F0D0
:10331000D3F9044600F0D0F90099001B8842F9D394
:1033200038BD00000022002908BF70472DE9F04F8A
:10333000DFF82CB101274FF003084FF00F0C0BF111
:10334000040E00BF07FA02F515EA01037DD00668F6
:10335000540008FA04F4A6430660D60800EB86067B
:10336000D6F820904FEA427A4FEADA6A0CFA0AFA63
:1033700029EA0A09C6F820908668A643866046684E
:1033800026EA05054560C56825EA0404C46022F004
:10339000030404F1804505F58035D5F808909407BD
:1033A000260F0CFA06F404EA0909B0F1904F08BFA1
:1033B0004FF0000A30D0A0F1904ABAF5806A08BFF9
:1033C0004FF0010A28D0A0F1904ABAF5006A08BF70
:1033D0004FF0020A20D0A0F1904ABAF5406A08BF27
:1033E0004FF0030A18D0A0F1904ABAF5805A08BFEE
:1033F0004FF0040A10D0A0F1904ABAF5A05A08BFC5
:103400004FF0050A08D0A0F1904ABAF5C05A0CBF97
:103410004FF0060A4FF0070A0AFA06F64E4518D191
:10342000AE6826EA0404AC60DBF800409C43CBF8AD
:103430000040DEF800409C43CEF80040094C25686F
:103440009D432560241D256800E002E025EA030372
:103450002360521C31FA02F37FF474AFBDE8F08FA1
:1034600000040140080401400B680022002B08BF43
:1034700070472DE9F84F844EDFF810E201274FF036
:10348000030A4FF00F0800BF0B6807FA02F52B4044
:1034900000F0F380D1F804C0BCF1020F18BFBCF1FA
:1034A000120F15D14FEAD20C00EB8C09D9F820404D
:1034B0004FEA427C4FEADC6C08FA0CFB24EA0B046E
:1034C000D1F810B00BFA0CFC4CEA040CC9F820C07F
:1034D000D0F800904FEA420C91F804B00AFA0CF4CC
:1034E0000BF0030B29EA04090BFA0CFB4BEA090960
:1034F000C0F80090D1F80490B9F1010F18BFB9F1EC
:10350000020F05D0B9F1110F18BFB9F1120F18D180
:10351000D0F80890D1F80CB029EA04090BFA0CFB9A
:103520004BEA0909C0F80890D0F8049029EA05058B
:1035300091F80490C9F3001909FA02F949EA05055E
:103540004560C56825EA04048D6805FA0CFC4CEA60
:10355000040CC0F80CC0D1F804C01CF0805F7CD013
:10356000D6F818C04CF0010CC6F818C0D6F818C030
:103570000CF0010CCDF800C022F0030C0CF1804CD3
:103580000CF5803CDCF808504FEA82744FEA147462
:1035900008FA04F925EA0905B0F1904F08BF4FF089
:1035A000000930D0A0F19049B9F5806908BF4FF00B
:1035B000010928D0A0F19049B9F5006908BF4FF082
:1035C000020920D0A0F19049B9F5406908BF4FF039
:1035D000030918D0A0F19049B9F5805908BF4FF000
:1035E000040910D0A0F19049B9F5A05908BF4FF0D7
:1035F000050908D0A0F19049B9F5C0590CBF4FF0AA
:1036000006094FF0070909FA04F42C43CCF80840E6
:10361000DEF800C04C682CEA030C14F4803F18BF9D
:103620004CEA030CCEF800C0194CD4F800C04D6829
:103630002CEA030C15F4003F18BF4CEA030CC4F845
:1036400000C0144CD4F800C04D682CEA030C15F4EB
:10365000801F18BF4CEA030C00E00EE0C4F800C065
:103660000D4CD4F800C04D682CEA030C15F4001F73
:1036700018BF4CEA030CC4F800C00B68521CD340BE
:103680007FF402AFBDE8F88F001002400004014053
:1036900004040140080401400C0401400069084092
:1036A00018BF01207047002A14BF816181627047F2
:1036B0004FF08270704700000148006870470000BA
:1036C0009400002002480168491C01607047000016
:1036D00094000020074810B5016841F01001016016
:1036E000032000F089F80F2000F006F800F018F829
:1036F000002010BD0020024010B5044607484FF4DA
:103700007A720068B0FBF2F001F068F800222146FE
:10371000501E00F03FF8002010BD00009000002077
:10372000094808B5816941F001018161806900F0B3
:1037300001000090032000F05FF80022BDE808407F
:103740001146501E00F026B80010024000F01F0184
:10375000012202FA01F14009800000F1E020C0F8E6
:103760008012704700F01F01012202FA01F14009A6
:10377000800000F1E020C0F88011704700F01F01C8
:10378000012202FA01F14009800000F1E020C0F8B6
:1037900000117047174B10B41B68C3F30223C3F129
:1037A000070CBCF1040F88BF4FF0040C1C1D072C44
:1037B00034BF0023DB1E012404FA0CFCACF1010C25
:1037C0000CEA0101994004FA03F35B1E1A4011430D
:1037D00000284FEA0111A1BF00F1E02080F8001499
:1037E00010BC704700F00F0000F1E02080F8141DBD
:1037F00010BC70470CED00E0074900F007000A68B4
:103800004FF6FF031A4042EA002040F0FD7040F0FE
:1038100080600860704700000CED00E070B5F94969
:1038200086B0034691E876108DE87610F7490020BF
:10383000DFF8D4C30A68F649B3F5805F00F08781EA
:1038400054DC202B77D038DC042B75D01ADC012B0C
:1038500073D0022B1CBF06B070BD0A6B12F440324D
:103860006CD0B2F5403F6BD0B2F5803F67D0B2F577
:10387000003F1CBF06B070BD096A11F0020F6FD186
:1038800006B070BD082B6CD0102B1CBF06B070BDED
:103890000A6B12F4400251D0B2F5400F76D0B2F567
:1038A000800F4CD0B2F5000F1CBF06B070BD096A86
:1038B00011F0020F70D106B070BD402B67D06D467D
:1038C000802B73D0B3F5807F71D0B3F5007F1CBF20
:1038D00006B070BD496801F40001B1F5000F02BFE8
:1038E000CC4806B070BD51B306B070BDB3F5001F33
:1038F00070D037DCB3F5003F6DD022DCB3F5005F4C
:103900006AD0B3F5803F1CBF06B070BD0A6A02F4EE
:103910004072B2F5807F3BD0B2F5007F3FD0B2F568
:10392000407F1CBF06B070BD096811F4003F18BF8E
:10393000B94806B070BD9CE061E039E057E053E063
:1039400058E0B3F5802F71D0B3F5801FF1D10B6B28
:1039500003F08073B3F1807F69D0002B3DD0E8E79E
:103960001AE065E0B3F5800F75D0B3F5000F73D0A2
:10397000B3F1807F71D0B3F1007FDAD10B6B03F428
:103980000043B3F5004F69D03BB3D2E76CE07CE075
:10399000096A11F0020FCCD04FF40040C9E7496A20
:1039A00011F0020F18BF49F64040C2E799E0B4E0B9
:1039B0000A6B12F003020AD0032A0FD0012A13D097
:1039C000022AB6D1096A11F0020FE5D1B1E700F081
:1039D000D1FBAEE70DE170E0CCE09CE0096811F0AE
:1039E000020FA6D06046A4E700F0DCFBA1E700F0E0
:1039F000A9FB9EE7096811F0020FF3D199E70A6B62
:103A000012F44022F3D0B2F5402F0AD0B2F5802F45
:103A1000EAD0B2F5002F8CD1096A11F0020FBBD1A8
:103A200087E7096811F0020FDCD182E739E09CE0FA
:103A30000A6B12F44012DAD0B2F5401F0FD0B2F583
:103A4000801FD1D0B2F5001F7FF473AF096A11F067
:103A5000020FA1D16DE79BE0A8E0B5E0C3E00968E3
:103A600011F0020FBED164E7096811F0020FB9D15D
:103A70005FE70A6B12F0100202D0102AB4D058E7A8
:103A8000096811F0020FADD153E70A6B12F0200262
:103A900002D0202AA8D04CE7096811F0020FA1D16A
:103AA00047E70A6B12F0400202D0402A9CD040E760
:103AB000096811F0020F95D13BE70A6812F0007F08
:103AC0003FF437AF486800F48000B0F5800F05D0B0
:103AD00001F0A8FD00EB400040082AE701F0A2FD3C
:103AE00027E7CB6A13F4F87415D0096811F0007F4A
:103AF0003FF41FAF01F096FD4FF4F87191FAA1F178
:103B0000B1FA81F124FA01F101F00F0135F8111039
:103B1000B0FBF1F00DE710460BE7CB6A13F47854D5
:103B2000F9D0096811F0007F3FF403AF01F07AFD8E
:103B30004FF4785191FAA1F1B1FA81F124FA01F12F
:103B400001F00F0135F81110B0FBF1F0F1E60B6B4D
:103B500003F48073B3F5807F02D0002BDBD0E8E65E
:103B6000096811F0007FB9D1E3E6096811F0007F20
:103B7000B4D1DEE60B6B03F40073B3F5007F02D023
:103B8000002BC8D0D5E6096811F0007FA6D1D0E699
:103B90000B6B03F48063B3F5806F02D0002BBAD0B7
:103BA000C7E6096811F0007F98D1C2E60B6B03F4F9
:103BB0000063B3F5006F02D0002BACD0B9E6096802
:103BC00011F0007F8AD1B4E60B6B03F40053B3F518
:103BD000005F02D0002B9ED0ABE6096811F0007F99
:103BE0007FF47CAFA5E6096811F0007F7FF476AF23
:103BF0009FE60B6B03F00073B3F1007F0ED0002B38
:103C000089D096E66CB5000800127A00900000207A
:103C100000100240ADDEADDE90D00300096811F067
:103C2000007F7FF45BAF84E62DE9F84F044600681F
:103C3000AF4D10F4803F7DD0E8694FF0000910F0DF
:103C4000805F09D1E86940F08050E861E8694FF091
:103C5000010900F080500090A64E306810F4807F7B
:103C600013D1306840F480703060FFF725FD0746BF
:103C7000306810F4807F08D1FFF71EFDC01B642858
:103C80005AD8306810F4807FF6D0286A10F440705B
:103C900055D0A18801F44071814250D0286A012793
:103CA000390491FAA1F2B2FA82F2920002F184424E
:103CB00002F5840220F44070C2F8007491FAA1F178
:103CC0000022B1FA81F1890001F1844101F58401FA
:103CD000C1F80024286210F0010F30D0FFF7ECFC8F
:103CE0008046022641F2883A96FAA6F0B0FA80F0B1
:103CF00040F04000B7EB501F08BF28680AD096FA82
:103D0000A6F0B0FA80F040F04000B6EB501F0CBFB8
:103D1000286A686A96FAA6F1B1FA81F101F01F01EA
:103D200007FA01F108420AD1FFF7C6FCA0EB080030
:103D3000504500E010E0D7D90320BDE8F88F286A8D
:103D4000616820F4407008432862B9F1000F03D085
:103D5000E86920F08050E861207810F0010F05D06C
:103D6000286BA16820F0030008432863207810F036
:103D7000020F05D0286BE16820F440300843286327
:103D8000207810F0040F05D0286B216920F4402022
:103D900008432863207810F0200F05D0286BE169D4
:103DA00020F0100008432863206810F4003F05D07D
:103DB0006868616D20F4800008436860207810F026
:103DC000400F05D0286B216A20F0200008432863AB
:103DD000206810F4802F05D0286B616A20F0400025
:103DE00008432863207810F0080F05D0286B61691C
:103DF00020F4401008432863207810F0100F05D0FD
:103E0000286BA16920F4400008432863208810F43F
:103E1000007F05D06868216B20F4000008436860CB
:103E2000207810F0800F05D0E86AA16A20F4F870BD
:103E30000843E862208810F4807F05D0E86AE16AD0
:103E400020F478500843E862208810F4805F05D0A1
:103E5000286B616B20F4807008432863208810F47D
:103E6000005F05D0286B216C20F4007008432863A4
:103E7000206810F4801F05D0286BA16B20F08070A3
:103E800008432863206810F4001F05D0286BE16BFD
:103E900020F0007008432863206810F4800F05D0DC
:103EA000286B616C20F4806008432863206810F45C
:103EB000000F05D0286BA16C20F400600843286334
:103EC000206810F0807F05D0286BE16C20F4005052
:103ED00008432863206810F0007F05D0286B216D0F
:103EE00020F40040084328630020BDE8F88F00005C
:103EF00000100240007000402DE9F047DFF81C82FE
:103F000005460E46D8F8000000F00700B0420CD27B
:103F1000D8F8000020F007003043C8F80000D8F8B7
:103F2000000000F00700B04270D128787C4C10F0FF
:103F3000020F05D06068A96820F0F00008436060B7
:103F4000287810F0010F71D068680121012831D064
:103F5000022845D0022393FAA3F2B2FA82F242F089
:103F6000200252090CBF626A226893FAA3F3B3FAE3
:103F700083F303F01F0399400A427DD0616821F06A
:103F8000030108436060FFF797FB0746686841F24A
:103F9000883901283BD00228606800F00C0046D028
:103FA000002856D0FFF788FBC01B48454DD9032099
:103FB000BDE8F0874FF4003292FAA2F3B3FA83F32C
:103FC00043F020035B0914BF2368636A92FAA2F2EC
:103FD000B2FA82F202F01F0291400B424CD0CDE7C0
:103FE0004FF0007292FAA2F3B3FA83F343F0200386
:103FF0005B0914BF2368636A92FAA2F2B2FA82F2F2
:1040000002F01F0291400B4236D0B7E734E06068FF
:1040100000F00C0004281CD0FFF74EFBC01B4845E5
:10402000C5D8606800F00C000428F5D111E008281C
:104030000FD000BFFFF740FBC01B4845B7D86068F2
:1040400000F00C000828F5D103E0606810F00C0FB8
:10405000A8D1D8F8000000F00700B0420FD9D8F876
:10406000000020F007003043C8F80000D8F8000036
:1040700000F00700B04202D00120BDE8F0872878A8
:1040800010F0040F05D06068E96820F4E060084390
:104090006060287810F0080F06D06068296920F465
:1040A000605040EAC100606061681E4801F00C0287
:1040B000042A1ED0082A1CD14FF4701393FAA3F3DC
:1040C00001F47012B3FA83F3DA40174B9A5CE36A97
:1040D0004FF00F0C9CFAACFC03F00F03BCFA8CFC05
:1040E00023FA0CF3DFF844C01CF80330B0FBF3F004
:1040F00050436168F02292FAA2F201F0F001B2FAA4
:1041000082F2D1400A4A515CC8400A4908600F2037
:10411000FFF7F2FA0020BDE8F0870000002002401F
:104120000010024000127A004CB500085CB500088F
:1041300034B5000890000020014800687047000076
:104140009000002008480949006849684FF4E0627F
:1041500092FAA2F201F4E061B2FA82F2D140044A8A
:10416000515CC840704700009000002000100240E1
:1041700044B5000808480949006849684FF460528E
:1041800092FAA2F201F46051B2FA82F2D140044AEA
:10419000515CC840704700009000002000100240B1
:1041A00044B50008164B5968164801F00C02042A61
:1041B00008BF7047082A18BF704701F470124FF407
:1041C000701C9CFAACFCBCFA8CFC22FA0CF2DFF8F6
:1041D00038C0DB6A1CF802204FF00F0C9CFAACFCD4
:1041E00003F00F03BCFA8CFC23FA0CF3DFF81CC0BD
:1041F00001F480311CF80330B0FBF3F050437047FA
:104200000010024000127A004CB500085CB50008AE
:104210002DE9F84F04460078FF4D10F0010F4FF0E4
:1042200001063CD06868770400F00C0004281ED01A
:10423000686800F00C00082805D1686800F4C030F8
:10424000B0F5803F13D06068B0F5803F04BF2868A8
:1042500040F4803037D010B1B0F5A02F56D0286888
:1042600020F480302860286820F480202BE097FA22
:10427000A7F0B0FA80F040F02000400914BF286891
:10428000686A97FAA7F1B1FA81F101F01F0106FA05
:1042900001F1084203D06068002800F08D82207888
:1042A0004FF0000910F0020F4FF002077DD0686850
:1042B0004FF0F80A10F00C0F78D0686800F00C008E
:1042C00008284BD050E02860606838B3FFF7F4F955
:1042D0004FEA000897FAA7F0B0FA80F040F020000B
:1042E000400914BF2868686A97FAA7F1B1FA81F10A
:1042F00001F01F0106FA01F10842D0D1FFF7DCF905
:10430000A0EB08006428E5D900F0FDB9286840F466
:1043100080202860286840F48030D4E7FFF7CCF98B
:104320004FEA000897FAA7F0B0FA80F040F02000BA
:10433000400914BF2868686A97FAA7F1B1FA81F1B9
:1043400001F01F0106FA01F10842A8D0FFF7B4F905
:10435000A0EB08006428E5D900F0D5B9686800F43E
:10436000C030B0F5004F30D0E068002896FAA6F0D3
:10437000B0FA80F04FEA800000F1844000F584003C
:104380007ED00660FFF798F94FEA000897FAA7F089
:10439000B0FA80F040F02000400914BF2868686A35
:1043A00097FAA7F1B1FA81F101E033E00DE001F0F5
:1043B0001F0106FA01F108421FD1FFF77DF9A0EBBA
:1043C00008000228E2D900F09EB997FAA7F0B0FAE7
:1043D00080F040F02000400914BF2868686A97FA0E
:1043E000A7F1B1FA81F101F01F0106FA01F10842CB
:1043F0001CBFE068012840F0DF8128689AFAAAF221
:104400002169B2FA82F220F0F80001FA02F140EAE2
:1044100001002860207810F0080F7CD06069002827
:1044200096FAA6F0B0FA80F04FEA800000F18440DE
:1044300000F584004FD0C0F88064FFF73DF9804656
:1044400097FAA7F0B0FA80F040F06000B6EB501F8A
:1044500008BF28680AD097FAA7F0B0FA80F040F0B9
:104460006000B7EB501F0CBF286A686A97FAA7F183
:10447000B1FA81F101F01F0106FA01F1084200E0F2
:1044800008E056D1FFF718F9A0EB08000228D7D9A9
:1044900000F039B9C0F80090FFF70EF94FEA0008B4
:1044A00097FAA7F0B0FA80F040F02000400914BF5E
:1044B0002868686A97FAA7F1B1FA81F101F01F0143
:1044C00006FA01F10842A5D0FFF7F6F8A0EB0800C4
:1044D0000228E5D917E1C0F88094FFF7EDF880468F
:1044E00097FAA7F0B0FA80F040F06000B6EB501FEA
:1044F00008BF28680AD097FAA7F0B0FA80F040F019
:104500006000B7EB501F0CBF286A686A97FAA7F1E2
:10451000B1FA81F100E00CE001F01F0106FA01F1AF
:10452000084206D0FFF7C8F8A0EB08000228D7D948
:10453000E9E0207810F0040F72D0E8694FF0000B2A
:1045400010F0805F09D1E86940F08050E861E869C7
:104550004FF0010B00F080500090DFF8C080D8F8D9
:10456000000010F4807F18D1D8F8000040F480706B
:10457000C8F80000FFF7A0F88246D8F8000010F451
:10458000807F0AD1FFF798F8A0EB0A0064284AD888
:10459000D8F8000010F4807FF4D0A068012804BF90
:1045A000286A40F0010009D008B105283CD0286AEB
:1045B00020F001002862286A20F004002862A06828
:1045C00041F2883A68B3FFF777F8804697FAA7F088
:1045D000B0FA80F040F04000B6EB501F08BF2868EA
:1045E0000AD097FAA7F0B0FA80F040F04000B7EB9D
:1045F000501F0CBF286A686A97FAA7F1B1FA81F1D7
:1046000001F01F0106FA01F1084240D1FFF754F80A
:10461000A0EB0800504505E000100240007000408B
:104620003CE009E0D2D96EE0286A40F0040028623C
:10463000286A40F00100C1E7FFF73EF84FEA0008A2
:1046400097FAA7F0B0FA80F040F04000B6EB501FA8
:1046500008BF28680AD097FAA7F0B0FA80F040F0B7
:104660004000B7EB501F0CBF286A686A97FAA7F1A1
:10467000B1FA81F101F01F0106FA01F1084206D0FA
:10468000FFF71AF8A0EB08005045D9D93BE0BBF181
:10469000000F03D0E86920F08050E861A069A8B35A
:1046A000696801F00C0108297ED04FF0807802285B
:1046B00098FAA8F0B0FA80F04FEA800000F1844048
:1046C00000F584004FF00077C0F800901FD0FEF78F
:1046D000F3FF044697FAA7F0B0FA80F040F020000C
:1046E000400914BF2968696A97FAA7F0B0FA80F008
:1046F00000F01F0006FA00F0014260D0FEF7DCFF78
:10470000001B0228E6D90320BDE8F88F57E0FEF72A
:10471000D3FF814697FAA7F0B0FA80F040F020006E
:10472000400914BF2868686A97FAA7F1B1FA81F1C5
:1047300001F01F0106FA01F1084206D0FEF7BCFFA6
:10474000A0EB09000228E5D9DDE7E86A616A20F0FC
:104750000F000843E862D4E907100843696821F4B0
:1047600076110843686098FAA8F0B0FA80F08000EB
:1047700000F1844000F584000660FEF79DFF0446CA
:1047800097FAA7F0B0FA80F040F02000400914BF7B
:104790002868686A97FAA7F1B1FA81F101F01F0160
:1047A00006FA01F1084200E006E008D1FEF784FFB6
:1047B000001B0228E4D9A6E70120BDE8F88F0020FD
:1047C000BDE8F88F4FF0E021042808690CBF40F0E5
:1047D000040020F00400086170470000411EB1F1A0
:1047E000807F24BF012070474FF0E0204161054ADF
:1047F000F02182F8141D0021816107210161002050
:10480000704700000FE000E090F83C20012A04BF50
:104810000220704710B4012280F83C2002685368DF
:10482000D2F808C0A2F18044B4F596341FBFA2F1BB
:104830008044B4F59A34A2F18044B4F5A83403D18D
:104840004C6823F4700323430C6823F070038968D9
:1048500023432CF0800C41EA0C0153600268916004
:10486000002180F83C1010BC0846704710B5044683
:10487000022084F83D002068016A41F211121142C1
:1048800007D1016A9210114203D1016821F00101A0
:104890000160204600F022F8002084F83D0084F8F2
:1048A0003C0010BD002804BF0120704710B504462D
:1048B00090F83D0028B9002084F83C00204600F024
:1048C0008DF8022084F83D00211D206801F0E0F9F8
:1048D000012084F83D00002010BD000070B50546A1
:1048E00000683C4CA0F18041B1F5806103D1E069E2
:1048F00020F00200E0612868A0F18041B1F580510C
:1049000003D1E06920F01000E0612868A0F1804147
:10491000B1F5A05103D1E06920F02000E0612868E2
:104920002D4EB0F1804F2DD196F84A0001281CBFC2
:1049300096F84A0003283DD096F84A00022818BF8E
:1049400070BDE06920F00100E06103214FF090406C
:10495000FEF7E8FCA86AFEF765FB286BFEF762FB32
:10496000686AFEF75FFB0F20FEF7FCFE1120FEF7E2
:10497000F9FE306905F0F8FC706905F0F5FC0020DF
:10498000306170612868A0F18041B1F5006118BF05
:1049900070BDE06920F00400E06196F84A00032849
:1049A00018BF70BD4FF48071BDE870404FF090406B
:1049B000FEF7B8BCE06920F00100E06101214FF092
:1049C0009040FEF7AFFC286AFEF72CFB0C20FEF7A8
:1049D000C9FED7E70010024008EB00202DE9F04F98
:1049E000044600688A4DA0F1804187B0B1F580612E
:1049F00007D1E86940F00200E861E86900F00200D0
:104A000005902068A0F18041B1F5805107D1E86997
:104A100040F01000E861E86900F01000059020689F
:104A2000A0F18041B1F5A05107D1E86940F0200024
:104A3000E861E86900F02000059020680026754FC5
:104A40004FF0020A4FF00309B0F1804F7CD197F884
:104A50004A1001204FF4007B01291CBF97F84A102F
:104A600003297CD097F84A1002291CBF07B0BDE883
:104A7000F08FE96941F00101E961E969CDE9009A46
:104A800001F00101CDE90401CDE9026969464FF069
:104A90009040FEF7E9FCDFF884815F484FF0200B7F
:104AA000C8E900068020C8E902608000C8F810004C
:104AB0008000C8E9050B8000C8F81C004046FEF7DE
:104AC0005DFBC4F82880C4F83080C8F82440A8F101
:104AD00044085348C8E900068020C8E90260800005
:104AE000C8F810008000C8E9050B8000C8F81C0059
:104AF0004046FEF743FBC4F824804A4A0021404662
:104B0000C8F82440FEF790FB474A002108F1440012
:104B1000FEF78AFB002209210F20FEF73BFE0F2043
:104B2000FEF72CFE002209211120FEF733FE112092
:104B3000FEF724FEF888800004F076FE386138899C
:104B4000800004F071FE78612068A0F18041B1F529
:104B500000611CBF07B0BDE8F08FE86900E01DE010
:104B600040F00400E861E86900F00400059097F85F
:104B70004A0003281CBF07B0BDE8F08F4FF48070D7
:104B8000CDE9000A02960A20CDE9039069464FF06C
:104B90009040FEF769FC07B0BDE8F08FE96941F08D
:104BA0000101E961E969CDE9000A01F00101CDE9FE
:104BB0000401CDE9026969464FF09040FEF754FCCC
:104BC000DFF86C801948C8E90006C8F80860C0140E
:104BD000C8F80C60C8E904B02020C8F8180000022A
:104BE000C8F81C004046FEF7C9FAC4F82080114AF4
:104BF00000214046C8F82440FEF716FB0022092198
:104C00000C20FEF7C7FD0C20FEF7B8FD9CE7000066
:104C10000010024008EB00208000024078030020D2
:104C200058000240390E0008250F00081C00024001
:104C3000F0020020790D0008022180F83D10016883
:104C40000A6842F001020A60012180F83D1000204C
:104C50007047022180F83D1001680A6A41F2111381
:104C60001A4207D10A6A9B101A4203D10A6822F03D
:104C700001020A60012180F83D100020704790F881
:104C80003C20012A0DBF0220012380F83C307047F0
:104C900030B4022280F83D200268D2F808C02CF01F
:104CA000770C2CF4803C2CF47F4CC2F808C00A68C6
:104CB000502A47D00CDC202A7DD004DC002A7BD08F
:104CC000102A7AD0B7E0302A78D0402A78D0B2E0E3
:104CD000602A54D0702A0DD0B2F5805F03D0B2F5AF
:104CE000005F1DD0A7E001688A6822F0070222F465
:104CF000803242E00268D1F804C08C68C9689568C7
:104D00004CEA012125F47F45214329439160016844
:104D10008A6822F0770222F4803242F077022CE097
:104D20000268D1F804C08C68C96895684CEA012112
:104D300025F47F4521432943916001688A6842F444
:104D400080421AE00268D1F804C0C968146A156A82
:104D500025F001051562956924F00A0425F0F00597
:104D600045EA011144EA0C0C9161C2F820C00168C7
:104D70008A6822F0700242F057028A605BE00268A3
:104D8000D1F804C0CC68116A21F010011162956954
:104D9000116A25F4704545EA043421F0A00141EA86
:104DA0000C119461116201688A6822F0700242F06D
:104DB00067028A603FE02FE01EE025E034E0FFE775
:104DC0000268D1F804C0CC68116A156A25F00105A3
:104DD0001562956921F00A0125F0F00545EA0414F1
:104DE00041EA0C019461116201688A6822F0700244
:104DF00042F047028A601EE001688A6822F0700271
:104E000042F007028A6016E001688A6822F07002A8
:104E100042F017028A600EE001688A6822F0700290
:104E200042F027028A6006E001688A6822F0700278
:104E300042F037028A6080F83D30002180F83C1053
:104E400030BC08467047000090F83C30012B04BF8E
:104E5000022070472DE9F0034FF0010C80F83CC0B0
:104E6000022380F83D30F024002A36D02302042AA1
:104E70007DD0082A026879D0D1E90065CC68176A2C
:104E800027F480571762D2F81C80176A28F44078FC
:104E900048EA052503EA043325F470452B434FF413
:104EA000204527F4204405EA06352C43D3611462DB
:104EB0000268D36923F44063D3610268D3698968C7
:104EC00043EA0121C2F81C1080F83DC0002180F89F
:104ED0003C10BDE8F003084670470268D1E900685D
:104EE000CD68136A23F0010313629369176AA2F174
:104EF0008049B9F5963918BFB2F1804F1BD0A2F1A5
:104F00008049B9F580691CBFA2F18049B9F50069F3
:104F100011D0A2F18049B9F59A391CBFA2F180499C
:104F2000B9F5A03907D0A2F18049B9F5A83918BF61
:104F300043F0010303D123F0030343EA080304EA27
:104F4000051423F0F003234327F00A0406F00A05B2
:104F50002C43936114620268936923F00C039361FC
:104F6000026893698968194327E000E027E0026836
:104F7000D1E90065CC68176A27F010071762D2F8EC
:104F80001880176A28F4407848EA052503EA0433B4
:104F900025F470452B43A02527F0A00405EA06154B
:104FA0002C43936114620268936923F44063936114
:104FB00002689369896843EA0121916184E7D1E934
:104FC0000063CD68176A27F480771762D769D2F833
:104FD000208027F0030704EA05143B4323F0F00385
:104FE00023434FF4206528F4206405EA06252C436A
:104FF000D36114620268D36923F00C03D3610268A1
:10500000D369896819435DE7002804BF0120704710
:1050100010B5044690F83D0028B9002084F83C0003
:10502000204600F00CF8022084F83D00211D206885
:1050300000F02EFE012084F83D00002010BD7047D6
:1050400070B5044690F83C00012804BF022070BDF2
:10505000012584F83C50022084F83D00204601F0F0
:105060001FF92068C16821F04001C1602068C16853
:1050700021F48041C16084F83D50002084F83C0058
:1050800070BD002804BF0120704710B5044690F899
:10509000690028B9002084F86800204600F028F84C
:1050A000242084F869002068016821F00101016072
:1050B000204601F0C9FA012808BF10BD606A002827
:1050C0001CBF204601F022FA2068416821F490417B
:1050D00041602068816821F02A01816020680168B0
:1050E00041F0010101602046BDE8104001F07BBAAB
:1050F00010B50068154C86B0A0421CBF06B010BDAC
:105100001348C16941F40031C161C069694600F4C6
:10511000003005900C2000900220019001200290A8
:1051200003200390072004904FF09040FEF79CF975
:10513000206840F020002060002206212620FEF793
:1051400029FB2620FEF71AFB06B010BD00440040E4
:10515000001002407047704770B5184886B04FF095
:10516000A0410160164E4FF480314160B1680024C7
:105170000461C461446281604FF480610163012570
:1051800005628910C460C1620421C0E90514C0E948
:105190000D54FDF711FA06F110000A49007851F894
:1051A0002000CDE900050394F0680290049469465C
:1051B00005940248FCF738FF06B070BD5804002083
:1051C0000C000020B4B4000870B5184886B0164929
:1051D0000160174E09024160B16800240461C46196
:1051E000446281604FF4806101630125056289108A
:1051F000C460C1620421C0E90514C0E90D54FDF783
:10520000DBF906F110000B49407851F82000CDE998
:1052100000050394F06802900494694605940348DD
:10522000FCF702FF06B070BD00010050AC04002086
:105230000C000020ECB4000870B5184886B0164980
:105240000160174E89014160B16800240461C461A6
:10525000446281604FF48061016301250562891019
:10526000C460C1620421C0E90514C0E90D54FDF712
:10527000A3F906F110000B49807851F82000CDE920
:1052800000050394F068029004946946059403486D
:10529000FCF7CAFE06B070BD0004005000050020F7
:1052A0000C00002014B5000870B5194886B01749E5
:1052B0000160184E4FF480314160B16800240461F0
:1052C000C461446281604FF480610163012505621D
:1052D0008910C460C1620421C0E90514C0E90D54FD
:1052E000FDF76AF906F110000B49C07851F820006B
:1052F000CDE900050394F068029004946946059492
:105300000348FCF791FE06B070BD00000005005098
:10531000540500200C00002024B5000800B50E49FB
:1053200083B00C4808600846FDF712FD0420009089
:105330000A4800226946006801900748FDF7DEFC34
:1053400014200090102269460348FDF7D7FC03B0F3
:1053500000BD000000740040BC03002008000020D5
:10536000094881B0416941F002014161416901F0A0
:1053700002010091416941F001014161406900F081
:105380000100009001B0704700100240294810B59C
:10539000416986B041F400214161416901F4002175
:1053A0000591416941F480014161416901F4800145
:1053B0000591416941F400314161416901F40031D5
:1053C0000591416941F4802141614069002400F464
:1053D000802005904FF4005000901748CDE901045B
:1053E00069461648FEF740F80C2000900220CDE9EF
:1053F00001040720CDE9034069464FF09040FEF7D5
:1054000033F84FF48070CDE9000401200290694622
:105410004FF09040FEF728F84FF4007000901120F4
:10542000CDE9010469464FF09040FEF71DF806B043
:1054300010BD0000001002400000121000080048DB
:1054400030B51A4800248DB04FF08045C0E90054B3
:10545000611EC0E9024104618461FFF723FA681408
:10546000CDE90604089406A910480994FFF707FC43
:10547000A81300903020CDE9010469460B4803943D
:10548000FFF7DEFD0A940AA908480C94FFF7BCF95F
:10549000E86840F48070E860A86940F00300A86103
:1054A000286A40F0010028620DB030BD7002002073
:1054B00030B5254800258DB04FF08044C0E9004547
:1054C000691EC0E90251802105618161FFF7EAF997
:1054D000A014089008A91C48FFF7D1FB1A48FFF751
:1054E00093FD049504A918480695FFF78DF901204E
:1054F000CDE9005002950022694613480395FFF755
:10550000A3FC042269461048FFF79EFCE06840F4C3
:105510008070E060A06940F00100A061A06940F4E3
:105520008070A061206A40F001002062206A40F093
:1055300010002062E06840F40070E060E06840F431
:105540008060E0600DB030BD7002002010B50E48E4
:1055500088B00C490024C0E900148460C460046170
:10556000FFF7A0F94FF48050049004A90648FFF714
:1055700086FB20200090694602940348FFF744F917
:1055800008B010BD00040040B001002010B50C4868
:1055900084B00A490160002440F2FF714460C0E910
:1055A00003148460FFF77EF920200090694602947E
:1055B0000348FFF729F904B010BD000000100040B7
:1055C000F001002010B50C4884B00A4901600024A5
:1055D00040F2FF714460C0E903148460FFF762F990
:1055E00020200090694602940348FFF70DF904B0AB
:1055F00010BD000000140040300200200848074998
:1056000001604FF4E1314160002181600C22C160F2
:10561000C0E904128161C161FFF733BD004400405D
:10562000B806002009494868022200F4701002EB15
:1056300090404A68C96A02F4C03201F00F01044B7D
:10564000491CB3FBF1F148437047000000100240D1
:1056500000127A0088B000221421052005F0ACF871
:105660005C4FB862042005F07FF8386304F078FAE4
:10567000DFF864B1594E4FF0060A4FF000084FF0C2
:10568000010900235A1E03A9B86A05F0D2F84FF0A9
:10569000FF31386B05F00DFC9DF80C0032280CD062
:1056A000332811D0342849D035287DD0362804BF7E
:1056B00096F82000062878D088E096F82000002888
:1056C00018BF86F820A081E096F82000354605280E
:1056D0001CBF95F82000002878D004F027F9C7F8FF
:1056E0000C80CDF80480FBF76FFAA86801A900F0E0
:1056F000D1FD0198FBF7F8FA5FF0000495F821005E
:10570000A04206D9EA6B05EB8400416A2046FBF70C
:10571000F9F9601CC4B2042CF0D30198E86095F844
:10572000200006281CBF95F8200004284ED085F8DC
:105730002090C7F8188004F0FBF847E096F82000A6
:1057400001281CBF96F8200002283FD096F82000C0
:1057500003281CBF96F82000042837D0C7F80C8017
:10576000CDF80880FBF730FAB06802A900F092FD8E
:105770000298FBF7B9FA002496F82100A04206D956
:10578000F26B06EB8400416A2046FBF7BBF9601C14
:10579000C4B2042CF0D30298F06086F8209004F094
:1057A000C7F800235A1E02E007E00BE00EE00CA150
:1057B000DBF8000005F066F908E004F0B7F886F8B9
:1057C000208003E004F0B4F886F82090386B05F0F0
:1057D0000FFB56E76C010020F8000020C8E2002013
:1057E000534D504C00000000C14DDFF80883C24CFF
:1057F0004FF0020A4FF6FF7601274FF0030B4FF0F0
:10580000000900BF95F8200001281FBF95F820006F
:10581000022895F82000032802D004F0E5FDF1E706
:105820004FF0FF31206B05F044FBE068206195F8F4
:105830004000FCF797FAE96B091AE160E86B4A1E31
:105840001044EA6BB0FBF2F302FB1300606195F8C1
:105850002020012A0AD095F82020022A5FD095F84E
:105860002000032800F0B38000F031B96A8B082AC9
:1058700095F8402005EB8202126A9ABF20F00100E1
:10588000105C32F810002080E88AAA8B5043000C8C
:1058900060802A692B8BF31A5A4307EB124262602D
:1058A0002A692B8B89B25A43120CA260238A9BB2BD
:1058B000994224BFC91A89B204D2D5F83CC06144C8
:1058C000C91A89B2A3691944A161914240F2FF80CB
:1058D0002A7D1AB922881032824215D32A7D012AE4
:1058E00003D12288103A82420EDC687D012803D160
:1058F0002869B1EB800F07D8687D022840F0E78067
:105900002869884280F0E38085F820A000235A1E91
:105910007AA1D8F8000005F0B5F800F0D8B88AB23E
:10592000218A89B28A4224BF511A89B203D2EB6B11
:105930001A44511A89B2A2691144A1616A8B082ADA
:1059400095F8402005EB8202126A9ABF20F001030D
:10595000D25C32F810202280EA8AAB8B5A43120CB8
:1059600062802B69B5F818C0A6EB0C0C03FB0CF396
:1059700007EB134363602B69B5F818C003FB0CF306
:105980001B0CA3602B7D13B92388934212D82B7D67
:10599000012B02D1238893420CD36A7D012A03D1C3
:1059A0002A69B1EB820F05D86A7D022A7ED12A6965
:1059B0008A427BD2C4E9069185F820B00023E062D8
:1059C0005A1E50A1D8F8000005F05CF87FE0208A4C
:1059D00089B280B2814224BF081A80B203D2EA6B36
:1059E0001144081A80B2A1690844A06195F82010FA
:1059F00003296CD16168884269D303F097FF687D01
:105A0000294601281CBF487D02281CD0488B082845
:105A1000087D28D9002891F8400001EB8000026A37
:105A2000E06A32F8103062880FD0934232D200BF61
:105A300091F8403001EB83031B6A401E33F81030AD
:105A40009342F5D325E0E06A26E0934222D900BFD5
:105A500091F8403001EB83031B6A401E33F810308D
:105A60009342F5D815E0002891F8400001EB800042
:105A7000026AE06A135C62882DD093420AD200BFAA
:105A800091F8403001EB83031B6A401E1B5C93427C
:105A9000F6D3E062401CE0624860042081F82000F8
:105AA000E1692162A0696062084400E00FE0B0F59E
:105AB000801F28BFC4F81890C4F818900023C4F8B9
:105AC0001C905A1E11A1D8F8000004F0DBFF206BD7
:105AD00005F08EF996E69342DCD900BF91F840308C
