:020000040800F2
:10000000E8FC0020590200086102000863020008B1
:10001000650200086702000869020008000000008D
:10002000000000000000000000000000A90100081E
:100030006D02000800000000ED0100085B4D0008A3
:1000400073020008730200087302000873020008BC
:1000500073020008730200087302000873020008AC
:10006000730200087302000873020008730200089C
:10007000730200087302000873020008730200088C
:10008000730200087302000873020008730200087C
:10009000730200087302000873020008730200086C
:1000A000730200087302000873020008730200085C
:1000B000730200087302000873020008730200084C
:1000C000730200087302000873020008730200083C
:1000D00073020008730200084D56000873020008FE
:1000E000730200087302000873020008730200081C
:1000F000730200087302000873020008730200080C
:1001000073020008000000000000000073020008F5
:1001100073020008730200087302000873020008EB
:1001200073020008730200087302000873020008DB
:1001300073020008730200080000000000000000C5
:100140007302000873020008730200080000000038
:10015000000000000000000000000000000000009F
:10016000730200087302000873020008730200089B
:10017000730200087302000873020008730200088B
:100180007302000873020008000000000000000075
:1001900073020008DFF80CD000F0F0FA00480047C6
:1001A000096C0008E8FC0020234B19680868B0E8D7
:1001B000F04F80F309884FF0000080F311887047FA
:1001C0000000000003480068006880F3088862B6F9
:1001D00000DF00BF08ED00E0DFF80C00016841F42B
:1001E00070010160704700BF88ED00E0EFF3098007
:1001F000114B1A681EF0100F08BF20ED108A20E97D
:10020000F04F106008B44FF0500080F3118808F0F0
:10021000E5FA4FF0000080F3118808BC19680868FF
:10022000B0E8F04F1EF0100F08BFB0EC108A80F35A
:100230000988704700BF00BF08010020EFF311805C
:100240004FF0500181F31188704780F31188704797
:10025000EFF30580704700000648804706480047D6
:10026000FEE7FEE7FEE7FEE7FEE7FEE7FEE7FEE766
:10027000FEE7FEE7ED4D00089501000840EA0103A6
:100280009B0703D009E008C9121F08C0042AFAD24C
:1002900003E011F8013B00F8013B521EF9D2704710
:1002A000D2B201E000F8012B491EFBD270470022B8
:1002B000F6E710B513460A4604461946FFF7F0FF65
:1002C000204610BD0EB540F2334102910021CDE928
:1002D00000110A460B4600F03AF803B000BDC1F326
:1002E0000A5210B5C1F3130140F2FF3341F48011FB
:1002F0009A4201DA002010BD40F233439A42A2F242
:10030000334203DC524200F003F810BD904010BDB0
:10031000202A04DB203A21FA02F00021704721FA5A
:1003200002F3D040C2F120029140084319467047C1
:1003300010B5141E73F1000408DA401C41F10001ED
:1003400092185B411A4301D120F0010010BD2DE944
:10035000F04D92469B4611B1B1FA81F202E0B0FA3B
:1003600080F22032904600F01BFA04460F4640EA25
:100370000A0041EA0B0153465A46084313D011467E
:1003800053EA010019D0C8F140025046FFF7C0FF00
:1003900005460E4650465946424600F001FA0843CB
:1003A00005D0012004E020463946BDE8F08D00204C
:1003B000054346EAE0762C4337430A986305E40A8E
:1003C000A0EB08000022FD0A44EA47540A3002D597
:1003D00000200146E9E7010510196941DDE90845FA
:1003E00000196941BDE8F04DA2E72DE9FE4F8046B6
:1003F00081EA0300C00F0C46009021F0004123F079
:100400000045B8EB0200A94105D24046214690467E
:100410001C460B46024623F00040104347D0270DF0
:10042000C7F30A00C3F30A510290401A0190402812
:100430006BDAC3F3130040F4801B0098924620B19E
:100440000023D2EB030A63EB0B0B01985946C0F172
:100450004002504600F0A4F906460D465046594663
:10046000019A00F0ACF910EB08006141002487EA22
:10047000115284EAE7731A4340D0009A62B3019A9A
:10048000012A4FEA075215DC001B61EB02014FF015
:10049000004202EA0752CDE90042001C41F58011FA
:1004A00032462B46FFF753FF03B0BDE8F08F4046BE
:1004B0002146F9E7001B61EB0201001C41F58013A6
:1004C00000185B412018A2F5001747EB030140EA32
:1004D000D570B6196D4111E06D084FEA360645EA50
:1004E000C0754FEA0752001B61EB0201001C41F589
:1004F000801149084FEA30000019514132462B461D
:1005000003B0BDE8F04FFFF713BF00980122400091
:100510000023D0EB020263EBE073009821464FEA20
:10052000E074B8EB000061EB0401E9E783F00043FD
:100530005BE781F0004158E72DE9FE4F81EA0304B3
:1005400004F0004421F0004100944FF0000B23F030
:10055000004350EA01045ED052EA03045BD0C3F3C7
:100560000A54C1F30A552C44A4F2F3340194A0FBBD
:100570000254C1F3130141F48011C3F3130343F494
:10058000801301FB024400FB034E840A970A44EAED
:10059000815447EA8357A4FB076802958D0A05FB3F
:1005A00007854FEA932C04FB0C542705029D4FEA64
:1005B000065847EA1637B5EB08056EEB070C870EB1
:1005C000920E47EA811742EA8312A7FB0201B6EBBB
:1005D0000B0164EB00042B0D43EA0C335E1844EB73
:1005E0001C50DA465146E7FB0201C5F313044FEAFB
:1005F0000B3343EA14534FEA0432019C43EA0603E7
:10060000A4F10C040294009CCDE900B4FFF79FFE16
:1006100003B0BDE8F08F00200146F9E72DE9F04D69
:1006200081EA030404F0004B21F0004514464FF02A
:10063000000A23F0004150EA050220D054EA0102EA
:100640001DD0C5F30A570246C5F31303C1F31300C7
:10065000C1F30A5640F4801543F48013A7EB060853
:10066000101BD64608F2FD3873EB050002D308F1E3
:10067000010801E092185B41B8F1000F03DA002095
:100680000146BDE8F08D00204FF4801106468446F7
:100690000EE0171B73EB050705D3121B63EB050375
:1006A00006434CEA010C49084FEA300092185B41BE
:1006B00050EA0107EDD152EA030012D082EA0400A9
:1006C00083EA0501084305D0101BAB4106D2012285
:1006D000002306E000224FF0004302E06FF0010229
:1006E00053101AEB06004CEB085110EB0A0041EBDB
:1006F0000B01BDE8F04DFFF71BBE70B521F00043C4
:1007000003430CD0C1F30A550024D5EB040564EB78
:100710000403D617AD1AB34102DB0020014670BDB9
:10072000201841EB025170BD0EB5C10F80EAE07098
:100730000844CA07002140F233438DE80E000A4600
:100740000B46FFF704FE03B000BD000030B5041EE9
:1007500071F1000404DB4FF00044404264EB0101FE
:10076000141E73F1000405DB1C464FF00043524297
:1007700063EB0403994208BF904230BD064C074D1D
:1007800006E0E06840F0010394E807009847103461
:10079000AC42F6D3FFF702FDE49600080497000888
:1007A000202A04DB203A00FA02F100207047914031
:1007B000C2F1200320FA03F3194390407047202A26
:1007C00006DBCB17203A41FA02F043EAE07306E079
:1007D00041FA02F3D040C2F1200291400843194689
:1007E00070472DE9F04D00231A461B1A8A4103DB9E
:1007F00000200146BDE8F08DC1F30A52C1F3130198
:1008000041F480154FF0000BD10702D100186D4163
:10081000521E0027044640F2FF11384601EB620ADF
:100820003E468046024600204FF48011FFF770FDDF
:10083000C2197141BB1846EB0100B4EB030C75EB18
:10084000000C04D3E41A65EB000517460E46241984
:1008500008F101006D4180463428E3DDF91946EBCB
:100860000600091BA84103D24FF0FF32134601E0F6
:10087000002213461BEB070046EB0A51BDE8F04D82
:10088000FFF756BD70B58D1810F8014B14F0030238
:1008900001D110F8012B231106D110F8013B03E020
:1008A00010F8016B01F8016B521EF9D1ABB110F8D1
:1008B000012B04F00C048A1A0C2C03D0A2EB841236
:1008C0009B1C08E010F8014BA2EB0422F8E712F899
:1008D000014B01F8014B5B1EF9D5A942D4D300208E
:1008E00070BD00002DE9F04104460D460027B846D2
:1008F00000262068806800F00C0008B1012000E0AC
:10090000002000286AD02068806800F00070F0B1F4
:10091000E06901281BD1A069012818D10C250DE040
:100920002F48864209D3042084F84500A06C40F08B
:100930000100A0640120BDE8F081761C20680068F9
:10094000C0F380100028EBD0402021680860602DA3
:100950000FD02068806800F0040050B120688068E3
:1009600000F0020028B92068806840F0100021687B
:1009700088600C2D0FD02068806800F0080050B10E
:100980002068806800F0020028B92068806840F084
:10099000200021688860602D03D06C2D03D10C27C6
:1009A00003E0082701E0042700BF00BF02F032FA8D
:1009B00080460EE002F02EFAA0EB08000B2808D9C2
:1009C000042084F84500A06C40F00100A0640120E0
:1009D000B1E72068806838400028EBD10020AAE702
:1009E0000094090070B505466C6A94F84500042827
:1009F0000ED094F8450035280AD094F845002528F3
:100A000003D1352084F8450002E0152084F8450024
:100A1000204601F037F870BD70B505466C6A0420B9
:100A200084F84500A06C40F00400A064204601F06A
:100A300053F970BD70B50446656A284601F023F885
:100A400070BD000070B594B006460C46154636B130
:100A5000012E1CD0022E32D0032E60D147E03C2262
:100A6000344901A8FFF70AFC3248C06B10903148A6
:100A7000016C119190F844008DF848002D4890F8D1
:100A800045008DF849002B48806C139047E03C22CC
:100A9000294901A8FFF7F2FB2748C06B10902648B0
:100AA000016C119190F844008DF84800224890F8AC
:100AB00045008DF849002048806C13902FE03C22BF
:100AC0001E4901A8FFF7DAFB1C48C06B10901B48B9
:100AD000016C119190F844008DF84800174890F887
:100AE00045008DF849001548806C139017E03C22B2
:100AF000134901A8FFF7C2FB1148C06B10901048C2
:100B0000016C119190F844008DF848000C4890F861
:100B100045008DF849000A48806C139000BF00BF63
:100B20002CB125B12A46214601A801F0A5FB14B03D
:100B300070BD0000500600209C060020E806002042
:100B40003407002010B5074801F00AFC064801F000
:100B500007FC064801F004FC054801F001FC00F028
:100B6000F5F810BD500600209C060020E806002085
:100B70003407002070B5044600252068806800F026
:100B80000300012806D12068006800F0010008B1C8
:100B9000012000E0002070B32068806800F00D00A4
:100BA000012800D100E0002050B100BF206880681B
:100BB00040F002002168886003202168086008E096
:100BC000042084F84500A06C40F00100A0640120DE
:100BD00070BD02F01FF905460EE002F01BF9401B44
:100BE000022809D9042084F84500A06C40F00100D7
:100BF000A0640120ECE705E02068806800F00100B7
:100C00000028EAD10020E3E770B5044600252068FB
:100C1000806800F00300012806D12068006800F019
:100C2000010008B1012000E0002078BB2068806846
:100C30001749084008B9012000E0002040B904200D
:100C400084F84500A06C40F00100A064012070BD54
:100C50002068806840F001002168886002F0DAF8BE
:100C600005460DE002F0D6F8401B022808D9042002
:100C700084F84500A06C40F00100A0640120E6E784
:100C80002068006800F001000028EBD00020DEE7BB
:100C90003F00008070B506462948006830B108283A
:100CA00006D0102806D0182808D105E00C2505E04C
:100CB0000A2503E0082501E0062500BF00BF02F079
:100CC00041FDB0FBF6F0401B441EB4F5167F03D97E
:100CD00007201C49086026E0B52C03D306201949DB
:100CE000086020E03D2C03D30520164908601AE077
:100CF000132C03D304201349086014E0072C03D3FA
:100D00000320104908600EE0042C03D302200D4993
:100D1000086008E0022C03D301200A49086002E0C1
:100D2000002008490860084801F01AFB03F06CFB3A
:100D300003F0ACFB03F0ECFB03F02CFC70BD0000F7
:100D4000E4000020E80000205006002010B500213B
:100D5000074800F0E5FB0021064800F0E1FB002118
:100D6000054800F0DDFB0021044800F0D9FB10BD70
:100D7000500600209C060020E806002034070020D2
:100D800088B000221421052007F027FE4C49086096
:100D900095E000235A1E03A94948006807F04BFE5E
:100DA0009DF80C003128F3D100BF9DF805008DF8A7
:100DB00004009DF806008DF805009DF807008DF8E9
:100DC00006009DF800008DF80700684605F028FC35
:100DD00004463CB99DF800003A2803D09DF8000075
:100DE0003B28E2D1002C6AD19DF8070000069DF84F
:100DF000061040EA01409DF8051040EA01209DF8E8
:100E0000041008432F4A811A904231D00ADC2E493F
:100E1000084478B12D490844D8B12D490844002828
:100E20003BD12CE02B480844D8B12B49084400287A
:100E300033D12BE000235A1E28A12A48006807F06E
:100E4000D6FE00235A1E28A12648006807F0CFFED0
:100E500034E000235A1E29A12248006807F0C7FE8B
:100E60002CE006F0F7FB0546284606F029FC25E0B5
:100E700005F066FF0546284606F022FC1EE006F057
:100E8000D7F80546284606F01BFC17E005F08EFF54
:100E90000546284606F014FC10E000235A1E1CA14B
:100EA0001048006807F0A3FE00BF684605F0B8FBD5
:100EB00018B99DF800003B28F7D100BF00BF68E7D4
:100EC0003C020020434F4D53B7BBB1C0F3FEFBFFC4
:100ED00007F20EEFF0F5F9FE0C1405F541434B5FF8
:100EE000000000001803002053544D3332463330C5
:100EF000332D4E75636C656F000000003953656ECD
:100F0000645379737456657273696F6E00000000E4
:100F1000453939390000000094B005F015FC002275
:100F20001E21052007F059FDB3490860042007F091
:100F300029FDB2490860B2A30FCBCDE90A23CDE960
:100F40000801B3A207CA8DE8070054E100235A1E26
:100F50000CA9A948006807F06EFD4FF0FF31A748C3
:100F6000006807F044FF9DF83000312871D105F08A
:100F70001FFE04286ED105F009FE039005F012FE55
:100F8000814605F0C3FD059000F0C4FA049006F018
:100F900031FE0446200E8DF82400200C8DF825002B
:100FA000200A8DF82600E0B28DF827000598082861
:100FB00016DD05F003FE834605F0F4FD824605F0DC
:100FC000EBFD0AFB00FAABEB1A40039901EB400181
:100FD0000398B1FBF0F200FB12144FEA490911E04B
:100FE00005F0ECFD834605F0DDFD824605F0D4FDFD
:100FF0000AFB00FAABEB1A4103980144B1FBF0F293
:1010000000FB12140598C0B28DF828004FEA194071
:101010008DF829004FEA19208DF82A0009F0FF0009
:101020008DF82B000498C0B28DF82F0004EB090155
:101030000398814207D90398001B07900798A9EBF2
:101040000000069003E0CDF81C90002006900027D9
:1010500058E065E0CBE0384605F07CFD8046781C22
:10106000C0B28DF82E00102108A805F08BFB079860
:10107000B0F5804F1AD9079E00250BE008EB04015C
:1010800001EB85304FF4804105F07CFB681CC5B254
:10109000A6F58046B6F5804FF0D87EB108EB040285
:1010A00002EB8530B1B205F06DFB07E0079828B17F
:1010B000079A91B208EB040005F064FB0698B0F5BE
:1010C000804F16D9069E002509E008EB85304FF4C5
:1010D000804105F057FB681CC5B2A6F58046B6F501
:1010E000804FF2D866B1B1B208EB853005F04AFB0B
:1010F00006E0069820B1069881B2404605F042FB12
:10110000781CC7B204988742A5DB44A005F042FBD7
:1011100000235A1E43A14648006807F068FD66E0B8
:101120009DF8300032281DD1002718E007F131006A
:10113000C0B28DF80400791CC8B205F06BFB044600
:10114000200C8DF80900200A8DF80A00E0B28DF815
:101150000B000C21684605F015FB781CC7B2022F66
:10116000E4DB44E09DF83000332802D107F08AF830
:101170003DE09DF83000342802D106F0CBFF36E088
:101180009DF83000352802D107F020F82FE09DF8B7
:101190003000362802D106F0DDFF28E09DF830004F
:1011A000372803D123A005F0F5FA20E09DF83000A0
:1011B000382803D121A005F0EDFA18E09DF83000A1
:1011C000392802D107F07AF811E09DF8300049285B
:1011D0000AD100235A1E0CA90748006807F02BFC0F
:1011E0000CA805F0D7FA02E00CA805F0D3FA0348E2
:1011F000006807F0DFFDA9E6180300201C030020AB
:101200004F53435F797979797878787843483078A3
:1012100047454E5F7843485F46787878535F4F4B39
:1012200000000000324461746153656E7400000078
:10123000F8030020475F4E5800000000475F4F4B07
:101240000000000000B585B0302000900020019023
:10125000029069464FF0904001F0F2FC05B000BDED
:1012600000B585B03020009003200190002002904E
:1012700069464FF0904001F0E3FC05B000BD00006E
:101280000020014908607047000000200220014949
:10129000086070470000002070B50446656A284663
:1012A00001F0CAF80120287170BD70B50446656A66
:1012B000284601F091F80120287170BD70B50546EF
:1012C0006C6A206940F004002061204601F0B6F805
:1012D0000120207170BD70B505466C6A206940F030
:1012E00004002061204601F079F80120207170BDD2
:1012F00070B50446656A284601F09FF870BD70B568
:101300000446656A284601F068F870BDF8B50446E1
:101310000D461646002714B1012C04D101E0002728
:1013200001E0102700BF00BF3946064801F0A2F9CE
:10133000002033462A4639460090024801F0FCF866
:10134000F8BD0000CC05002010B594B00446012C77
:1013500006D0022C1CD0032C32D0042C60D147E0E4
:101360003C22334901A8FEF789FF3148C06B109039
:101370002F48016C119190F844008DF848002C48DA
:1013800090F845008DF849002948806C139047E09B
:101390003C22284901A8FEF771FF2648C06B109037
:1013A0002448016C119190F844008DF848002148C0
:1013B00090F845008DF849001E48806C13902FE08E
:1013C0003C221D4901A8FEF759FF1B48C06B109035
:1013D0001948016C119190F844008DF848001648A6
:1013E00090F845008DF849001348806C139017E081
:1013F0003C22124901A8FEF741FF1048C06B109033
:101400000E48016C119190F844008DF848000B488B
:1014100090F845008DF849000848806C139000BF93
:1014200000BF11980068406880B214B010BD000081
:10143000500600209C060020E8060020340700200B
:1014400010B5046863604468102C04D10468A2607D
:101450000468E16003E00468A1600468E26010BD14
:1014600010B503F001FD0021044801F0F7F8102148
:10147000024801F0F3F8FFF7E5FE10BDCC050020AF
:1014800010B503F0CBF8FFF7EBFE03F0F9FC10BD4D
:1014900086B000221421052007F09FFA1B4908603E
:1014A00005F010FB31E000235A1E01A9174800681F
:1014B00007F0C1FA9DF80400312826D09DF80400F9
:1014C000322822D09DF80400332802D11048007D34
:1014D0001BE09DF8040034280AD10D48007DA0B916
:1014E00005F0A0F9FFF7CCFF0120094908750CE0D1
:1014F0009DF80400352808D10548007D012804D155
:10150000FFF7AEFF002002490875CCE70C0500206C
:10151000ECF00020014890F821007047A8F000206E
:101520002DE9F04104460E46002700BF94F8440020
:10153000012802D10220BDE8F081012084F8440096
:1015400000BF2046FFF716FB0746012F30D00120D1
:1015500084F845002068806820F080402168886019
:10156000012E05D12068806840F0804021688860A5
:101570002068806840F000402168886001F04AFCE3
:1015800005460EE001F046FC401B0A2809D904205C
:1015900084F8450000BF002084F8440000BF01200B
:1015A000C9E72068806800F000400028EAD100E028
:1015B000012700BF002084F8440000BF3846BAE786
:1015C000F0B593B0024600260025C868012800D077
:1015D00000E000BF00BF92F84400012802D10220C1
:1015E00013B0F0BD012082F8440000BF106880688D
:1015F000C0F38000002878D14868052818D2106808
:10160000006B0F7907EB47074FEA470C1F2707FAD4
:101610000CF7B843176838630F7907EB47077F006B
:101620000868B84017683F6B38431768386355E05F
:1016300048680A281AD21068406B0F797F1F07EBA1
:1016400047074FEA470C1F2707FA0CF7B8431768FC
:1016500078630F797F1F07EB47077F000868B84062
:1016600017687F6B38431768786337E048680F283E
:101670001AD21068806B0F790A3F07EB47074FEAD1
:10168000470C1F2707FA0CF7B8431768B8630F79A0
:101690000A3F07EB47077F000868B8401768BF6B31
:1016A00038431768B86319E01068C06B0F790F3FB3
:1016B00007EB47074FEA470C1F2707FA0CF7B84319
:1016C0001768F8630F790F3F07EB47077F0008683B
:1016D000B8401768FF6B38431768F8631068806874
:1016E00000F00C0010B1012001E0B3E1002000285F
:1016F00077D108680A2817D9106880690F780A3FDF
:1017000007EB470C072707FA0CF7B8431768B861CF
:101710000F780A3F07EB47078868B8401768BF692A
:1017200038431768B86114E0106840690F7807EB18
:10173000470C072707FA0CF7B843176878610F784A
:1017400007EB47078868B84017687F693843176810
:10175000786148691768FF68C7F3C1077F0000FA1E
:1017600007F40869012806D0022816D0032826D0DD
:10177000042849D136E01068006EBC4F3840176825
:1017800038661068006E0F784FF0004C4CEA87679F
:1017900027433843176838666FE01068406EB34FD0
:1017A0003840176878661068476E08784FF0004C2C
:1017B0004CEA806020430743106847665DE010688C
:1017C000806EAA4F38401768B8661068806E0F7830
:1017D0004FF0004C4CEA8767274338431768B866D8
:1017E0004BE04BE01068C06EA04F38401768F866B9
:1017F0001068C06E0F784FF0004C4CEA87672743A3
:1018000038431768F86638E01068006E00F0F8405A
:101810000F78B0EB876F05D11068006E20F00040A4
:10182000176838661068406E00F0F8400F78B0EB2B
:10183000876F05D11068406E20F000401768786609
:101840001068806E00F0F8400F78B0EB876F05D11C
:101850001068806E20F000401768B8661068C06E8F
:1018600000F0F8400F78B0EB876F05D11068C06EBC
:1018700020F000401768F86600BF00BF106880685D
:1018800000F00300012806D11068006800F0010094
:1018900008B1012000E00020002877D1C8680128A5
:1018A0000CD01068D0F8B00091F800C0012707FAFA
:1018B0000CF7B8431768C7F8B0003EE01068D0F8DE
:1018C000B00091F800C0012707FA0CF738431768F9
:1018D000C7F8B00008680A2818D91068876908781E
:1018E000093800EB400C072000FA0CF08743106821
:1018F00087610878093800EB40008F6807FA00F02C
:101900001768BF6938431768B86116E01068406906
:101910000F787F1C07EB470C072707FA0CF7B84333
:10192000176878610F787F1C07EB47078868B84015
:1019300017687F693843176878611068B0F1A04F65
:1019400003D04B4F1068B84201D14A4800E04A48E2
:1019500003460868102803D1986800F4000070B1AD
:101960000868112803D1986800F0807038B10868C1
:10197000122873D1986800F4800000286ED1106896
:10198000B0F1A04F03D13A48009018E05BE0384F27
:101990001068B84203D14FF0A04000900FE0374FDD
:1019A0001068B84202D13648009008E0344F106801
:1019B000B84202D13148009001E000200090106848
:1019C000806800F00300012806D11068006800F06C
:1019D000010008B1012000E00020A8BB009870B110
:1019E0000098806800F00300012806D10098006884
:1019F00000F0010008B1012000E0002020BB0868D1
:101A000010280DD11068B0F1A04F09D1986840F4AA
:101A10000000986000E06D1CB5F5347FFBD31DE03D
:101A20000868112808D11068B0F1A04F04D1986857
:101A300040F08070986011E0086812280ED1986814
:101A400040F48000986009E0FFE7042082F8450038
:101A5000012603E0042082F84500012600BF002093
:101A600082F8440000BF3046BAE5000000F0FF8372
:101A70000001005000030050000700500004005017
:101A8000000500507047704770B594B004460025BB
:101A900014B9012014B070BD022084F845006C21F7
:101AA0002046FEF71FFF0546012D10D02068C068B4
:101AB00040F400102168C8602046FFF75BF8054637
:101AC000012D03D0012084F8450000E00125012DFF
:101AD0007ED0206840686FF30A002168486040F2B9
:101AE000FF70216808602068806820F0E04021686D
:101AF00088602068806840F0005021688860206815
:101B0000C0686A4908402168C8602068406968491F
:101B10000840216848612068806900F078402168A9
:101B200088612068006A00F0F0202168086220685F
:101B3000406A00F0FF20216848622068806A00F057
:101B4000FF20216888622068006B5A49084021689C
:101B500008632068406B5749103908402168486382
:101B60002068806B534910390840216888632068D9
:101B7000C06B40F2DF7188432168C8632068006E43
:101B80004D490840216808662068406E4A4908406F
:101B9000216848662068806E474908402168886649
:101BA0002068C06E444908402168C8662068D0F8A3
:101BB000A000424908402168C1F8A0002068D0F880
:101BC000A4003E4908402168C1F8A400206800E054
:101BD00064E0D0F8B000394908402168C1F8B0008D
:101BE0002068D0F8B40020F07F102168C1F8B4005C
:101BF0002068B0F1A04F03D031492068884201D15C
:101C0000304800E0304806462068B0F1A04F02D1CD
:101C10002B48019017E02A492068884203D14FF0F1
:101C2000A04001900FE029492068884202D128484D
:101C3000019008E026492068884202D1234801909B
:101C400001E0002001902068806800F00300012876
:101C500006D12068006800F0010008B1012000E012
:101C60000020A0B9019870B10198806800F00300CD
:101C7000012806D10198006800F0010008B1012098
:101C800000E0002018B9B06812490840B060204652
:101C900000F068F90020A06484F8450000BF00202F
:101CA00084F8440000BF2846F4E600000480008069
:101CB000070000C0300882E000F0FF030100F8FFD9
:101CC00000010050000300500007005000040050C5
:101CD00000050050E0D03CFE704700002DE9F041C7
:101CE00094B0044600270025A8461CB9012014B072
:101CF000BDE8F08194F8450010BB204600F034F9AF
:101D00002068806800F08050D0B92046FEF732FF8E
:101D10000746012F14D0022084F84500206880680F
:101D200020F04050216888602068806840F0805032
:101D30002168886001E008F10108B8F5347FFAD322
:101D40002068806800F04050B0F1805F07D0042028
:101D500084F84500A06C40F00100A064012794F8CD
:101D6000450004287ED020688068C0F380000028E9
:101D700078D1022084F845002068B0F1A04F03D04C
:101D800072492068884201D1714800E071480646D6
:101D90002068B0F1A04F02D16C48019017E06B4968
:101DA0002068884203D14FF0A04001900FE06A49BB
:101DB0002068884202D16948019008E0674920689C
:101DC000884202D16448019001E00020019020681F
:101DD000806800F00300012806D12068006800F048
:101DE000010008B1012000E00020C0B9019870B1E5
:101DF0000198806800F00300012806D1019800686E
:101E000000F0010008B1012000E0002038B9B068FE
:101E100020F44030B060B06861680843B06020686A
:101E2000C0684F4908402168C860A06B012802D0F3
:101E30004FF4805100E00021E06941EA4030E16860
:101E40000843A16808430543606A012808D1E06996
:101E500030B9208D401E4FF4803141EA40400543A7
:101E6000E06A00E06CE0012839D03B4920688842F4
:101E700003D03A49206888422BD1E06AB0F5307F20
:101E800002D14FF4E07027E0E06AB0F5807F02D124
:101E90004FF4307020E0E06AB0F5E07F02D14FF4FB
:101EA000807019E0E06AB0F58A5F02D14FF470707B
:101EB00012E0E06AB0F5845F02D14FF4A0700BE04D
:101EC000E06AB0F5865F02D14FF4C07004E0E06ACA
:101ED00002E0E06A20F48050216B0843054320684B
:101EE000806800F00C0008B1012000E0002060B91B
:101EF0002068C06844F2020188432168C860A06974
:101F00008103606B41EA400005432068C0682843B4
:101F10002168C8602068006B20F00F00216808630A
:101F20002069012806D12068006B216A491E0843F8
:101F3000216808630020A064012084F8450003E0C4
:101F4000042084F8450001273846D0E600010050FF
:101F5000000300500007005000040050000500502E
:101F600007C0F0FF7047000010B586B00446206837
:101F7000B0F1A04F50D1AA480068401CA8490860A1
:101F80000846006801280CD1A648406940F08050FE
:101F9000A44948610846C06A20F4F87040F4807093
:101FA000C862A1480078A14931F8100001900320CF
:101FB0000290002003909C4909789D4A52F8210024
:101FC00001A900F03DFE9B489B4908600020486045
:101FD0000021994881608021C160984800681028DC
:101FE00003D096480068182804D100219248416126
:101FF000016105E04FF480618F4841618910016102
:1020000020218D4881610902C16100F0B9FD00BF46
:1020100089482064446200E189492068884250D19F
:102020007F480068401C7E49086008460068012817
:102030000CD17C48406940F080507A49486108469C
:10204000C06A20F4F87040F48070C8627648407826
:102050007C4931F810000190032002900020039089
:1020600071494978784A52F8210001A900F0E8FD49
:1020700076487749086000204860002174488160F4
:102080008021C1606D480068102803D06B4800684B
:10209000182804D100216E484161016105E04FF428
:1020A00080616B484161891001612021684881612C
:1020B0000902C16100F064FD00BF6548206444620C
:1020C000ABE064492068884251D163480068401CF5
:1020D000614908600846006801280CD151484069F0
:1020E00040F000504F4948610846C06A20F47850DB
:1020F00040F40050C8624C488078584931F81000CC
:102100000190032002900020039047498978544AA7
:1021100052F8210001A900F093FD4C48503051497C
:1021200008600020486000214E4881608021C16025
:1021300042480068102803D040480068182804D19D
:10214000002148484161016105E04FF48061454844
:102150004161891001612021424881610902C16108
:1021600000F00EFD00BF3F482064446255E03E4948
:102170002068884251D138480068401C36490860C0
:102180000846006801280CD12648406940F00050FC
:10219000244948610846C06A20F4785040F4005051
:1021A000C8622148C078314931F8100001900320FD
:1021B0000290002003901C49C9782D4A52F8210052
:1021C00001A900F03DFD214814302A490860002093
:1021D00048600021274881608021C160174800685D
:1021E000102803D015480068182804D10021214880
:1021F0004161016105E04FF480611E484161891031
:10220000016120211B4881610902C16100F0B8FC15
:1022100000BF18482064446200BF06B010BD000033
:10222000DC00002000100240EC00002004940008B4
:10223000040000200800024080070020E400002085
:10224000000100503C9400084C00002008040240AB
:10225000B807002000040050E00000207894000837
:102260009C000020F007002000050050909400081A
:10227000BC000020280800202DE9F04104460D464E
:102280001646002700BF94F84400012802D102201E
:10229000BDE8F081012084F8440000BF2068B0F15F
:1022A000A04F03D028492068884204D127480068FD
:1022B00000F01F0003E02648006800F01F0000281F
:1022C00039D12046FEF7A0FC0746012F34D094F800
:1022D0004500222803D1322084F8450002E0122074
:1022E00084F845000020A0641A48216C88621A48CE
:1022F000216CC8621948216C08631C2021680860A1
:102300002068406840F01000216848602068C0687C
:1023100040F001002168C860226802F140013346A4
:102320002A46206C00F050FC2068806840F00400D1
:102330002168886000E0012700BF002084F8440085
:1023400000BF3846A4E70000000100500803005019
:1023500008070050E5090008350A0008190A0008B6
:1023600070B50446002500BF94F84400012801D14F
:10237000022070BD012084F8440000BF6C2120467B
:10238000FEF7B0FA054605BB2068C06820F00100E2
:102390002168C860206C00F092F9054615B1042050
:1023A00084F845002068406820F0100021684860EB
:1023B00025B92046FEF7DEFB054602E02046FEF783
:1023C000D9FB15B9012084F8450000BF002084F82E
:1023D000440000BF2846CCE770477047704770B58F
:1023E00003460024002500BF5879012801D10220AE
:1023F00070BD0120587100BF022018711868046870
:1024000040F6FE7090408443D1E9000640EA06059C
:1024100005FA02F004431868046018680668C020D2
:1024200090408643186806600120187100BF0020A4
:10243000587100BF00BFDBE770477047704710B5A9
:1024400004460CB9012010BD207910B9204600F0D7
:1024500009F8022020710020206101202071002055
:10246000F1E7000010B586B004462D492068884287
:1024700053D12C48C06940F000502A49C86130202F
:102480000190032002900020039001A94FF090409A
:1024900000F0D6FB24482549086010204860002140
:1024A000224881608021C160490001618900416149
:1024B000202181610902C16100F062FB00BF1B485D
:1024C000A060446200BF00BF1948006840F400509B
:1024D0001749086000BF14481430164908601020DE
:1024E00048600021134881608021C160490001617A
:1024F00089004161202181610902C16100F040FB36
:1025000000BF0C48E060446200BF00BF084800689C
:1025100040F480400649086000BF06B010BD0000CE
:10252000007400400010024030000240E00500202E
:1025300000000140180600202DE9F04704460D4632
:1025400016469846089F4FF0000900BF60790128A1
:1025500002D10220BDE8F0870120607100BF022097
:1025600020714DB93748A16888623748A168C862B0
:102570003648A168086308E03548E1688862354854
:10258000E168C8623448E1680863CDB92068006832
:1025900040F480502168086027B1042F06D0082F2E
:1025A0000CD107E0206800F1080908E0206800F17C
:1025B0000C0904E0206800F1100900E000BF19E0F8
:1025C0002068006840F080502168086027B1042F1F
:1025D00006D0082F0CD107E0206800F1140908E0AC
:1025E000206800F1180904E0206800F11C0900E0EF
:1025F00000BF00BF65B92068006840F40050216842
:10260000086043464A463146A06800F0DDFA0BE018
:102610002068006840F000502168086043464A4640
:102620003146E06800F0D0FA206800680121A94036
:1026300008432168086000BF0020607100BF00BF30
:1026400088E7000099120008F1120008BD12000886
:10265000AB120008FF120008D712000802461068EB
:10266000006801238B4098431368186001201071A3
:102670000020704770B504460D46002620680068AB
:102680004FF48051A94088432168086020680168A0
:102690000120A84081432068016025B9A06800F0AE
:1026A0000EF8064603E0E06800F009F8064616B1A9
:1026B0000420207101E001202071304670BD70B50A
:1026C000044600252068006820F0010021680860A9
:1026D00000F0A0FB054613E000F09CFB401BB0F5AA
:1026E0007A7F0DD9606B40F020006063032084F88E
:1026F000210000BF002084F8200000BF032070BD2F
:102700002068006800F001000028E5D1012084F86D
:10271000210000BF002084F8200000BF00BFEEE7CA
:10272000014609B90120704791F82100022801D122
:102730000120F8E70868006820F001000A681060CE
:1027400000200A6810600A6850600A6890600A6891
:10275000D060F94A0868904254D9F74A783A086834
:10276000904201D1022049E0F34A643A086890425D
:1027700001D1202042E0F04A503A0868904201D14D
:1027800040153BE0EC4A3C3A0868904202D14FF4D5
:10279000005033E0E84A283A0868904202D14FF4EA
:1027A00000302BE0E44A143A0868904202D14FF41A
:1027B000001023E0E04A0868904201D180041DE047
:1027C000DE4A0868904201D1022017E0DB4A143249
:1027D0000868904201D1202010E0D84A28320868C9
:1027E000904201D1401509E0D44A3C320868904239
:1027F00002D14FF4005001E04FF40030CF4A121FD5
:10280000106053E0CC4A783A0868904201D1022027
:1028100049E0C94A643A0868904201D1202042E068
:10282000C54A503A0868904201D140153BE0C24A7F
:102830003C3A0868904202D14FF4005033E0BE4A5F
:10284000283A0868904202D14FF400302BE0BA4A8F
:10285000143A0868904202D14FF4001023E0B64ABF
:102860000868904201D180041DE0B44A0868904293
:1028700001D1022017E0B14A14320868904201D118
:10288000202010E0AD4A28320868904201D140155E
:1028900009E0AA4A3C320868904202D14FF4005045
:1028A00001E04FF40030A44A803A5060A24A086820
:1028B000904254D9A04A783A0868904201D1082041
:1028C00049E09D4A643A0868904201D1802042E084
:1028D000994A503A0868904201D1C0143BE0964AA8
:1028E0003C3A0868904202D14FF4004033E0924AEB
:1028F000283A0868904202D14FF400202BE08E4A1B
:10290000143A0868904202D14FF4000023E08A4A4A
:102910000868904201D100051DE0884A086890428D
:1029200001D1082017E0854A14320868904201D18D
:10293000802010E0814A28320868904201D1C014FA
:1029400009E07E4A3C320868904202D14FF40040D0
:1029500001E04FF40020794A121F106053E0764ADC
:10296000783A0868904201D1082049E0724A643AF6
:102970000868904201D1802042E06F4A503A0868CE
:10298000904201D1C0143BE06B4A3C3A0868904247
:1029900002D14FF4004033E0674A283A0868904279
:1029A00002D14FF400202BE0634A143A08689042A9
:1029B00002D14FF4000023E05F4A0868904201D141
:1029C00000051DE05D4A0868904201D1082017E02B
:1029D0005A4A14320868904201D1802010E0574AC8
:1029E00028320868904201D1C01409E0534A3C32B1
:1029F0000868904202D14FF4004001E04FF40020FB
:102A00004D4A803A50604C4A0868904254D94A4A2C
:102A1000783A0868904201D1042049E0464A643A75
:102A20000868904201D1402042E0434A503A086889
:102A3000904201D100153BE03F4A3C3A0868904281
:102A400002D14FF4804033E03B4A283A0868904274
:102A500002D14FF480202BE0374A143A08689042A4
:102A600002D14FF4800023E0334A0868904201D13C
:102A7000C0041DE0314A0868904201D1042017E0EB
:102A80002E4A14320868904201D1402010E02B4AAF
:102A900028320868904201D1001509E0274A3C32EB
:102AA0000868904202D14FF4804001E04FF480204A
:102AB000224A121F106055E01F4A783A0868904277
:102AC00001D104204CE01C4A643A0868904201D1CC
:102AD000402045E0184A503A0868904201D100155C
:102AE0003EE0154A3C3A0868904202D14FF48040DB
:102AF00036E0114A283A0868904202D14FF480200B
:102B00002EE00D4A143A0868904202D14FF480003A
:102B100026E0094A0868904201D1C00420E0074A33
:102B20000868904201D104201AE0044A143208686F
:102B3000904205D1402013E080000240080402408A
:102B40000D4A0868904201D1001509E00A4A143282
:102B50000868904202D14FF4804001E04FF4802099
:102B6000064A50600020486381F8210000BF81F8C8
:102B7000200000BF00BFD6E5300402400000024044
:102B80000146002209B901207047022081F8210086
:102B90000868026843F6F0708243D1E901031843E4
:102BA000CB6818430B6918434B6918438B6918436A
:102BB000CB69184302430868026000204863012083
:102BC00081F821000020DFE72DE9F04104460D46A1
:102BD00016461F4600BF94F82000012802D10220AB
:102BE000BDE8F081012084F8200000BF022084F8B5
:102BF00021002068006820F00100216808603B4641
:102C0000324629462046FEF71BFC2068006840F04B
:102C10000200216808602068006840F00400216814
:102C200008602068006840F008002168086020689B
:102C3000006840F00100216808600020D0E7000033
:102C4000F0B503460A460025002400200021C9E013
:102C5000012606FA01F5166806EA0504AC426FD1B2
:102C60005668022E02D05668122E13D1CF0803F1F7
:102C7000200656F827004E07F70E0F26BE40B04339
:102C80004F07FF0E1669BE403043CF0803F1200600
:102C900046F8270018684F000326BE40B043167957
:102CA00006F003064F00BE40304318605668012E00
:102CB00008D05668022E05D05668112E02D05668EC
:102CC000122E13D198684F000326BE40B0434F0028
:102CD000D668BE4030439860586801268E40B043A5
:102CE0001679C6F300168E4030435860D8684F00FE
:102CF0000326BE40B0434F009668BE403043D860C4
:102D0000566806F08056B6F1805F6AD1374EB669D4
:102D100046F00106354FBE614FEAB7368F0856F8C8
:102D200027008E07370F0F26BE40B043B3F1904FF8
:102D300001D100261AE02E4EB34202D1012615E041
:102D40004FE02C4EB34201D102260FE02A4EB3428F
:102D500001D103260AE0294EB34201D1042605E041
:102D6000274EB34201D1052600E006268F073F0F0C
:102D7000BE403043234E8F0846F82700224E30686D
:102D8000A043566806F48036B6F5803F00D1204354
:102D90001D4E3060361D3068A043566806F400367C
:102DA000B6F5003F00D12043174E361D3060361D6A
:102DB0003068A043566806F48016B6F5801F00D12F
:102DC0002043114E08363060361D3068A0435668E7
:102DD00006F40016B6F5001F00D120430A4E0C364B
:102DE0003060491C1029FFF433AFF0BD00100240E1
:102DF0000004004800080048000C0048001000488B
:102E000000140048080001400004014000487047D9
:102E10000001010101480068704700000401002022
:102E200002480068401C0149086070470401002006
:102E300010B50848006840F01000064908600320FB
:102E400000F088F8002000F007F800F017F80020E4
:102E500010BD00000020024070B5044600F040FCA8
:102E60004FF47A71B0FBF1F5284601F003F9002226
:102E70002146501E00F02FF8002070BD10B5074805
:102E8000806940F0010005498861032000F062F884
:102E900000221146501E00F01EF810BD0010024026
:102EA00000BF00F01F0201219140034A430942F88C
:102EB000231000BF7047000080E200E000BF00F078
:102EC0001F02012191404209920002F1E022C2F862
:102ED000001100BF70472DE9F05F80460D46164691
:102EE000002701F079FC074639462A46334601F0AF
:102EF0000700C0F1070ABAF1040F02D94FF0040A23
:102F000001E0C0F1070AD14600F1040ABAF1070F47
:102F100002D24FF0000A01E0A0F1030AD4464FF0BC
:102F2000010A0AFA09FAAAF1010A0AEA020A0AFAE5
:102F30000CFA4FF0010B0BFA0CFBABF1010B0BEA97
:102F4000030B4AEA0B042146404601F04DFCBDE864
:102F5000F09F000000BF00F00702064B19684FF613
:102F6000FF031940044B0B4343EA0221014B196054
:102F700000BF70470CED00E00000FA0570B5044694
:102F800000250026206800F48030B0F5803F75D120
:102F9000C348C06940F08050C149C861C148006859
:102FA00040F48070BF490860FFF734FF054606E033
:102FB000FFF730FF401B642801D9032070BDB948DA
:102FC000006800F480700028F2D0B548006A00F470
:102FD0004070A18801F4407188420AD0B048006A6C
:102FE00020F440760120B049086000200860AC4819
:102FF00006626068B0F5807F38D1FFF70BFF0546A9
:1030000008E0FFF707FF401B41F28831884201D9F1
:103010000320D3E74020022191FAA1F1B1FA81F116
:1030200008430121B1EB501F02D19D4800680FE019
:103030004020022191FAA1F1B1FA81F10843022165
:10304000B1EB501F02D19648006A01E09448406AF3
:103050004021022292FAA2F2B2FA82F2114301F066
:103060001F020121914008400028CAD08C48006A04
:1030700020F440706168084389490862207800F0B4
:10308000010038B18648006B20F00300A1680843B6
:1030900083490863207800F00200022807D18048A5
:1030A000006B20F44030E16808437D4908632078D4
:1030B00000F00400042807D17948006B20F4402078
:1030C0002169084376490863207800F02000202811
:1030D00007D17348006B20F01000E1690843704984
:1030E0000863206800F40030B0F5003F07D16C4859
:1030F000406820F48000616D084369494860207889
:1031000000F04000402807D16548006B20F0200007
:10311000216A084362490863206800F48020B0F502
:10312000802F07D15E48006B20F04000616A0843A1
:103130005B490863207800F00800082807D1584848
:10314000006B20F4401061690843554908632078FA
:1031500000F01000102807D15148006B20F4400007
:10316000A16908434E490863208800F40070B0F557
:10317000007F07D14A48406820F40000216B0843D3
:1031800047494860207800F08000802807D14448F3
:10319000C06A20F4F870A16A08434149C8622088D7
:1031A00000F48070B0F5807F07D13D48C06A20F4FC
:1031B0007850E16A08433A49C862208800F4805098
:1031C000B0F5805F07D13648006B20F48070616BEA
:1031D000084333490863208800F40050B0F5005FCD
:1031E00007D12F48006B20F40070216C08432C4954
:1031F0000863206800F48010B0F5801F07D12848CC
:10320000006B20F08070A16B08432549086320689B
:1032100000F40010B0F5001F07D12148006B20F02A
:103220000070E16B08431E490863206800F48000C9
:10323000B0F5800F07D11A48006B20F48060616CF4
:10324000084317490863206800F40000B0F5000F38
:1032500007D11348006B20F40060A16C08431049AB
:103260000863206800F08070B0F1807F07D10C48BF
:10327000006B20F40050E16C0843094908632068A2
:1032800000F00070B0F1007F07D10548006B20F41A
:103290000040216D08430249086300208EE60000CB
:1032A00000100240007000404004424270B50446E5
:1032B0000D460026F748006800F00700A84270D2CB
:1032C000F448006820F007002843F24908600846E7
:1032D000006800F00700A84201D0012070BD2078EE
:1032E00000F00200022807D1EB48406820F0F0000F
:1032F000A1680843E8494860207800F001000028F0
:103300006FD0606801282DD12020010391FAA1F12E
:10331000B1FA81F108430121B1EB501F02D1DE481F
:1033200000680FE02020010391FAA1F1B1FA81F1C8
:1033300008430221B1EB501F02D1D748006A01E0D7
:10334000D548406A20210A0392FAA2F2B2FA82F228
:10335000114301F01F02012191400840002861D172
:103360000120BBE7606802282DD12020010591FAD9
:10337000A1F1B1FA81F108430121B1EB501F02D153
:10338000C548006810E02020010591FAA1F1B1FACA
:1033900081F108430221B1EB501F03D1BE48006AFE
:1033A00002E083E0BC48406A20210A0592FAA2F2BA
:1033B000B2FA82F2114301F01F020121914008404C
:1033C00078BB01208AE72020022191FAA1F1B1FA0D
:1033D00081F108430121B1EB501F03D1AE480068D1
:1033E00010E05BE12020022191FAA1F1B1FA81F114
:1033F00008430221B1EB501F02D1A748006A01E047
:10340000A548406A2021022292FAA2F2B2FA82F280
:10341000114301F01F0201219140084008B9012029
:103420005CE7FFE79C48406820F0030061680843C0
:1034300099494860FFF7EEFC06466068012810D104
:1034400008E0FFF7E7FC801B41F28831884201D990
:10345000032043E79048406800F00C000428F0D1B6
:103460001CE16068022810D108E0FFF7D3FC801B44
:1034700041F28831884201D903202FE7864840680D
:1034800000F00C000828F0D108E108E0FFF7C2FCCA
:10349000801B41F28831884201D903201EE77E4813
:1034A000406800F00C000028F0D1F7E0207800F030
:1034B0000200022807D17848406820F0F000A16897
:1034C000084375494860207800F0010000286ED05C
:1034D000606801282CD12020010391FAA1F1B1FAF2
:1034E00081F108430121B1EB501F02D16A48006805
:1034F0000FE02020010391FAA1F1B1FA81F1084314
:103500000221B1EB501F02D16348006A01E062481A
:10351000406A20210A0392FAA2F2B2FA82F211431F
:1035200001F01F0201219140084088BB0120D5E62F
:10353000606802282DD12020010591FAA1F1B1FA8D
:1035400081F108430121B1EB501F02D152480068BC
:103550000FE02020010591FAA1F1B1FA81F10843B1
:103560000221B1EB501F02D14B48006A01E04A48EA
:10357000406A20210A0592FAA2F2B2FA82F21143BD
:1035800001F01F0201219140084008B90120A5E681
:103590002DE02020022191FAA1F1B1FA81F1084336
:1035A0000121B1EB501F03D13B48006810E061E0FE
:1035B0002020022191FAA1F1B1FA81F10843022100
:1035C000B1EB501F02D13448006A01E03248406A32
:1035D0002021022292FAA2F2B2FA82F2114301F001
:1035E0001F0201219140084008B9012076E62A48CF
:1035F000406820F003006168084327494860FFF7EE
:1036000009FC06466068012810D108E0FFF702FCBB
:10361000801B41F28831884201D903205EE61E48B2
:10362000406800F00C000428F0D123E06068022814
:1036300010D108E0FFF7EEFB801B41F28831884291
:1036400001D903204AE61448406800F00C0008281D
:10365000F0D10FE008E0FFF7DDFB801B41F288317D
:10366000884201D9032039E60B48406800F00C007D
:103670000028F0D10748006820F0070028430549DA
:1036800008600846006800F00700A84206D0012044
:1036900024E600000020024000100240207800F0E4
:1036A0000400042807D10D48406820F4E060E16878
:1036B00008430A494860207800F00800082808D12B
:1036C0000648406820F46050216940EAC10003497F
:1036D00048600020FFF7C0FB0020FFE5001002401B
:1036E00010B500F045F80949496801F0F001F022F1
:1036F00092FAA2F2B2FA82F2D140054A515CC84075
:10370000044908600846006810BD0000001002402F
:10371000AC940008F000002010B5FFF7E1FF074966
:10372000496801F4E0614FF4E06292FAA2F2B2FA61
:1037300082F2D140024A515CC84010BD00100240E4
:10374000AC94000810B5FFF7CBFF0749496801F4B6
:1037500060514FF4605292FAA2F2B2FA82F2D14072
:10376000024A515CC84010BD00100240AC940008F1
:1037700070B5002100220023002400201D4D69683F
:1037800001F00C057DB3042D02D0082D2CD101E0F1
:1037900019482CE001F470154FF4701696FAA6F64D
:1037A000B6FA86F6F540154E735D124DED6A05F0DA
:1037B0000F050F2696FAA6F6B6FA86F6F540104ED5
:1037C000725D01F48035B5F5803F05D10A4DB5FB3A
:1037D000F2F505FB03F404E0074DB5FBF2F505FB3C
:1037E00003F4204603E000E000BF034800BF00BF31
:1037F00070BD00000010024000127A00BC94000866
:10380000CC94000870B504460025207800F0010033
:1038100000286FD0FC48406800F00C0004280CD051
:10382000F948406800F00C00082837D1F648406895
:1038300000F4C030B0F5803F30D12020010391FA70
:10384000A1F1B1FA81F108430121B1EB501F02D17E
:10385000ED4800680FE02020010391FAA1F1B1FAD0
:1038600081F108430221B1EB501F02D1E648006A02
:1038700001E0E548406A20210A0392FAA2F2B2FA76
:1038800082F2114301F01F020121914008400028FB
:10389000BFD060680128BCD0012070BD0020DA498B
:1038A0008870FFF7B7FA054608E0FFF7B3FA401B48
:1038B00041F28831884201D90320EEE7202001033C
:1038C00091FAA1F1B1FA81F108430121B1EB501F46
:1038D00002D1CD48006810E02020010391FAA1F147
:1038E000B1FA81F108430221B1EB501F03D1C64860
:1038F000006A02E088E0C448406A20210A0392FA84
:10390000A2F2B2FA82F2114301F01F0201219140AA
:1039100008400028C9D12079BB4988706068012817
:1039200039D1FFF777FA054608E0FFF773FA401B35
:1039300041F28831884201D90320AEE720200103FB
:1039400091FAA1F1B1FA81F108430121B1EB501FC5
:1039500002D1AD4800680FE02020010391FAA1F1E7
:10396000B1FA81F108430221B1EB501F02D1A64800
:10397000006A01E0A448406A20210A0392FAA2F2F8
:10398000B2FA82F2114301F01F0201219140084076
:103990000028CAD038E0FFF73DFA054608E0FFF7F7
:1039A00039FA401B41F28831884201D9032074E77B
:1039B0002020010391FAA1F1B1FA81F1084301211C
:1039C000B1EB501F02D1904800680FE020200103A6
:1039D00091FAA1F1B1FA81F108430221B1EB501F34
:1039E00002D18948006A01E08748406A20210A0321
:1039F00092FAA2F2B2FA82F2114301F01F020121FF
:103A0000914008400028CAD1207800F00200022826
:103A10004FD17D48406800F00C0060B17A484068A2
:103A200000F00C00082845D17748406800F4C03009
:103A3000B0F5004F3ED12020022191FAA1F1B1FA58
:103A400081F108430121B1EB501F02D16E4800689B
:103A50000FE02020022191FAA1F1B1FA81F108438F
:103A60000221B1EB501F02D16748006A01E06648AD
:103A7000406A2021022292FAA2F2B2FA82F21143A3
:103A800001F01F0201219140084020B1E0680128A7
:103A900001D0012001E75C48006820F0F800F8221E
:103AA00092FAA2F2B2FA82F2216991400843564991
:103AB000086086E0E068E0B3012054490860FFF741
:103AC000A9F9054606E0FFF7A5F9401B642801D9CE
:103AD0000320E2E62020022191FAA1F1B1FA81F15E
:103AE00008430121B1EB501F02D1474800680FE0A5
:103AF0002020022191FAA1F1B1FA81F108430221BB
:103B0000B1EB501F02D14048006A01E03E48406AD4
:103B10002021022292FAA2F2B2FA82F2114301F0BB
:103B20001F020121914008400028CCD0364800688F
:103B300000E00CE020F0F800F82292FAA2F2B2FACB
:103B400082F22169914008432F49086039E0002042
:103B50002E490860FFF75EF9054606E0FFF75AF9BF
:103B6000401B642801D9032097E62020022191FA06
:103B7000A1F1B1FA81F108430121B1EB501F02D14B
:103B8000214800680FE02020022191FAA1F1B1FA4A
:103B900081F108430221B1EB501F02D11A48006A9B
:103BA00001E01948406A2021022292FAA2F2B2FAF8
:103BB00082F2114301F01F020121914008400028C8
:103BC000CCD1207800F0080008287DD1606978B356
:103BD00001200F490860FFF71DF9054606E0FFF7D1
:103BE00019F9401B642801D9032056E66020022100
:103BF00091FAA1F1B1FA81F108430121B1EB501F13
:103C000008D10148006816E000100240000042425E
:103C1000800442426020022191FAA1F1B1FA81F1BF
:103C200008430221B1EB501F03D1F848006A02E0BB
:103C300010E0F648406A6021022292FAA2F2B2FA3B
:103C400082F2114301F01F02012191400840002837
:103C5000C5D039E00020EE490860FFF7DBF80546E3
:103C600006E0FFF7D7F8401B642801D9032014E6CB
:103C70006020022191FAA1F1B1FA81F108430121FA
:103C8000B1EB501F02D1E14800680FE06020022133
:103C900091FAA1F1B1FA81F108430221B1EB501F71
:103CA00002D1DA48006A01E0D848406A6021022265
:103CB00092FAA2F2B2FA82F2114301F01F0201213C
:103CC000914008400028CCD1207800F0040004285E
:103CD00073D1CE48C06940F08050CC49C861CD480E
:103CE000006840F48070CB490860FFF793F8054600
:103CF00006E0FFF78FF8401B642801D90320CCE5CC
:103D0000C448006800F480700028F2D0BF48006A00
:103D100020F00500BD490862FFF77CF8054608E081
:103D2000FFF778F8401B41F28831884201D903201F
:103D3000B3E54020022191FAA1F1B1FA81F10843E3
:103D40000121B1EB501F02D1B04800680FE04020C4
:103D5000022191FAA1F1B1FA81F108430221B1EBFC
:103D6000501F02D1A948006A01E0A848406A4021DA
:103D7000022292FAA2F2B2FA82F2114301F01F0279
:103D80000121914008400028CAD1A048006A20F0D3
:103D90000500A16808439D490862A06801283AD13E
:103DA000FFF738F8054609E0FFF734F8401B41F209
:103DB0008831884202D903206FE565E04020022166
:103DC00091FAA1F1B1FA81F108430121B1EB501F41
:103DD00002D18E4800680FE04020022191FAA1F143
:103DE000B1FA81F108430221B1EB501F02D187489B
:103DF000006A01E08548406A4021022292FAA2F25C
:103E0000B2FA82F2114301F01F02012191400840F1
:103E10000028C9D038E0FEF7FDFF054608E0FEF7B0
:103E2000F9FF401B41F28831884201D9032034E573
:103E30004020022191FAA1F1B1FA81F10843012158
:103E4000B1EB501F02D1714800680FE04020022101
:103E500091FAA1F1B1FA81F108430221B1EB501FAF
:103E600002D16A48006A01E06848406A40210222A3
:103E700092FAA2F2B2FA82F2114301F01F0201217A
:103E8000914008400028CAD1A069002872D05F483C
:103E9000406800F00C0008286DD0A06902286BD1A2
:103EA00000205D490866FEF7B5FF054606E0FEF70F
:103EB000B1FF401B642801D90320EEE42020010556
:103EC00091FAA1F1B1FA81F108430121B1EB501F40
:103ED00002D14E4800680FE02020010591FAA1F1BF
:103EE000B1FA81F108430221B1EB501F02D14748DA
:103EF000006A01E04548406A20210A0592FAA2F2D0
:103F0000B2FA82F2114301F01F02012191400840F0
:103F10000028CCD100BF3D48C06A20F00F00616A84
:103F200008433A49C862D4E9071008433749496849
:103F300021F4761108433549486000BF0120364915
:103F40000866FEF767FF054606E0FEF763FF401BC5
:103F5000642801D90320A0E42020010591FAA1F1F1
:103F6000B1FA81F108430121B1EB501F05D1274877
:103F7000006812E065E062E01EE02020010591FA91
:103F8000A1F1B1FA81F108430221B1EB501F02D136
:103F90001E48006A01E01D48406A20210A0592FA85
:103FA000A2F2B2FA82F2114301F01F020121914004
:103FB00008400028C9D044E0002017490866FEF7F1
:103FC00029FF054606E0FEF725FF401B642801D9BE
:103FD000032062E42020010591FAA1F1B1FA81F1F8
:103FE00008430121B1EB501F02D10848006817E0D7
:103FF0002020010591FAA1F1B1FA81F108430221D3
:10400000B1EB501F0AD10148006A09E000100240DC
:104010008004424200700040000042420A48406A68
:1040200020210A0592FAA2F2B2FA82F2114301F0BB
:104030001F020121914008400028C4D101E0012065
:104040002BE4002029E4000000100240042808D1DD
:104050004FF0E021096941F004014FF0E0221161C5
:1040600007E04FF0E021096921F004014FF0E02260
:104070001161704770B504462546681EB0F1807F17
:1040800001D301200FE0681E4FF0E02148610F21AD
:104090004FF0FF3000F0A8FB00204FF0E0218861D6
:1040A00007200861002070BD30B502460B4600BFF6
:1040B00092F83800012801D1022030BD012082F899
:1040C000380000BF1068416810688468114D10689E
:1040D000A84207D0104D1068A84203D00F4D1068B9
:1040E000A84203D121F470015868014321F0700106
:1040F0001868014324F08004986804431068416004
:104100001068846000BF002082F8380000BF00BF44
:10411000D3E70000002C0140003401400050014072
:1041200010B504460CB9012010BD94F8390010B93F
:10413000204600F00DF8022084F83900211D206887
:1041400000F0BAFE012084F839000020ECE70000FE
:104150000F4A0168914205D10E49C96941F0020137
:104160000C4AD1610C4A0168914205D10949C969DB
:1041700041F01001074AD161084A0168914205D116
:104180000449C96941F02001024AD1617047000029
:1041900000040040001002400010004000140040E5
:1041A0000146022081F839000868006840F00100EB
:1041B0000A681060012081F839000020704701462C
:1041C000022081F8390000BF0868006A41F211122C
:1041D000104050B90868006A9210104028B9086869
:1041E000006820F001000A68106000BF012081F81B
:1041F00039000020704700002DE9F04104460D46CB
:10420000002600BF94F83800012802D10220BDE842
:10421000F081012084F8380000BF022084F83900C2
:10422000206886684148064026F47F4620688660FC
:10423000286850283CD00CDC202861D004DC002801
:1042400054D0102866D156E030285ED0402861D185
:1042500042E0602836D070280ED0B0F5805F03D0E1
:10426000B0F5005F56D116E0206880682F497031A4
:104270000840216888604EE0D5E902136A6820682A
:1042800000F07EFE206886682848064046F07706E3
:10429000206886603FE0D5E902136A68206800F074
:1042A0006FFE2068806840F480402168886032E0BA
:1042B000EA686968206800F00FFF5021206800F06C
:1042C0006BFE28E0EA686968206800F01AFF602148
:1042D000206800F061FE1EE0EA686968206800F06E
:1042E000FBFE4021206800F057FE14E0002120680A
:1042F00000F052FE0FE01021206800F04DFE0AE0B1
:104300002021206800F048FE05E03021206800F000
:1043100043FE00E000BF00BF012084F8390000BF69
:10432000002084F8380000BF00BF70E788FFFEFF60
:1043300010B504460CB9012010BDA06900B100E021
:1043400000BF94F8690010B9204600F02BF8022055
:1043500084F869002068006820F001002168086086
:10436000204600F089FF012800D1E5E7606A10B11E
:10437000204600F0DCFE2068406820F49040216870
:1043800048602068806820F02A00216888602068E2
:10439000006840F0010021680860204600F03CFF02
:1043A000CAE7000010B586B0044614492068884268
:1043B00022D11348C06940F400301149C8610C2073
:1043C0000190022002900120039003200490072016
:1043D000059001A94FF09040FEF732FC07480068B5
:1043E00040F0200005490860002206212620FEF743
:1043F00072FD2620FEF762FD06B010BD00440040AD
:10440000001002407047704700B587B04FF0A040E1
:10441000194908604FF48030486018480168164810
:10442000816000210161C16141624FF480610163DB
:104430008910C1620021C160012101624163042130
:104440004161002181618163FDF748FC0C480078DF
:104450000C4951F8200001900120029000200490A6
:1044600009480068039000200590069001A90248C1
:10447000FDF7A6F807B000BD50060020E4000020BC
:10448000EC00002018940008E800002000B587B078
:1044900019481A490860000248601948016817481D
:1044A000816000210161C16141624FF4806101635B
:1044B0008910C1620021C1600121016241630421B0
:1044C0004161002181618163FDF708FC0D4840785E
:1044D0000D4951F820000190012002900020049025
:1044E0000A480068039000200590069001A903483F
:1044F000FDF766F807B000BD000100509C060020E3
:10450000E4000020EC00002050940008E8000020A7
:1045100000B587B019481A490860800148601948F9
:1045200001681748816000210161C16141624FF457
:10453000806101638910C1620021C16001210162B3
:10454000416304214161002181618163FDF7C6FB64
:104550000D4880780D4951F820000190012002900B
:10456000002004900A4800680390002005900690FF
:1045700001A90348FDF724F807B000BD000400506E
:10458000E8060020E4000020EC00002080940008F1
:10459000E800002000B587B01A481B4908604FF4B6
:1045A0008030486019480168174881600021016126
:1045B000C16141624FF4806101638910C1620021D1
:1045C000C1600121016241630421416100218161D7
:1045D0008163FDF783FB0E48C0780E4951F8200037
:1045E000019001200290002004900B480068039085
:1045F00000200590069001A90348FCF7E1FF07B0F1
:1046000000BD00000005005034070020E400002039
:10461000EC00002098940008E80000201CB50C482D
:104620000C4908600846FDF70AFF042000900A487C
:1046300000680190002269460648FDF7D0FE14206C
:104640000090102269460348FDF7C9FE1CBD00001A
:1046500000740040CC05002000000020054840699F
:1046600040F00200034948610846406940F00100FB
:10467000486170470010024000B585B01748406996
:1046800040F40020154948610846406940F4800024
:1046900048610846406940F4003048610846406976
:1046A00040F4802048614FF4005000900C48019085
:1046B0000020029069460B48FEF7C2FA0C200090D9
:1046C0000220019000200290039007200490694688
:1046D0004FF09040FEF7B4FA05B000BD0010024064
:1046E000000012100008004800B587B00E480F49BE
:1046F00008600020486000210C488160C1600161B1
:10470000FFF70EFD4FF48050039003A90748FFF711
:1047100073FD202000900020029069460348FFF7B7
:10472000C3FC07B000BD00000004004018050020D5
:104730000EB50C480C49086040F2FF710A48C16090
:104740000020094948600021074801618160FFF7A6
:10475000E7FC202000900020029069460248FFF705
:10476000A3FC0EBD00100040540500200EB50C48FF
:104770000C49086040F2FF710A48C16000200949F5
:1047800048600021074801618160FFF7C9FC2020D3
:1047900000900020029069460248FFF785FC0EBD9C
:1047A000001400409005002010B509480949086030
:1047B0004FF4E1304860002106488160C16001612A
:1047C0000C21416100218161C161FFF7B1FD10BD84
:1047D000004400406008002002480068C0F3022046
:1047E000704700000CED00E010B5002807DA0A075A
:1047F000140E054A00F00F031B1FD45403E00A07F0
:10480000130E024A135410BD18ED00E000E400E05E
:1048100086B000221421052004F0DFF84849086022
:10482000042004F0AFF84749086003F0B5FA85E0CA
:1048300000235A1E01A94248006804F0FCF84FF01A
:10484000FF314048006804F0D2FA9DF80400322895
:1048500008D13D4890F8200020B106203A4981F85F
:10486000200067E09DF80400332821D1364890F8F5
:10487000200005285ED0344890F82000002859D048
:1048800003F0A8F903F0BCF92F4890F8200006289F
:1048900050D02D4890F8200004284BD001202A4900
:1048A00081F8200000202949086003F097F941E0D1
:1048B0009DF80400342823D1234890F820000128D3
:1048C0001ED0214890F82000022819D01E4890F8E8
:1048D0002000032814D01C4890F8200004280FD092
:1048E00003F08EF90120184981F8200003F076F9D1
:1048F00000235A1E16A11848006804F078F919E040
:104900009DF80400352806D103F064F900200E4913
:1049100081F820000EE09DF8040036280AD10A48EC
:1049200090F82000062805D103F058F90120064927
:1049300081F820000348006804F03CFA78E70000A2
:10494000F803002010040020A8F000202404002018
:10495000534D504C0000000018030020C1E1E14815
:1049600090F82000012809D0DE4890F820000228A5
:1049700004D0DC4890F8200003287DD14FF0FF31AF
:10498000D948006804F033FAD8480068D84908606C
:10499000D44991F84000FCF7D7FCD249C96B081AFA
:1049A000D2490860CF48C06B09680844401ECD4911
:1049B000C96BB0FBF1F201FB1200CE490860C94897
:1049C00090F82000012867D1C648408B082812DCE7
:1049D000C44890F84000401EC249243151F82000DC
:1049E000C4490968490830F81100C34908800846DD
:1049F000007808800DE0BB4890F84000401EB9499F
:104A0000243151F82000BB49096830F81100BA4937
:104A1000088003F0E9FCB64A128891B2B34A1288C2
:104A200090B203F0C7F8B54909680844B349086073
:104A300008460068B249096888422CD9A948007D17
:104A400030B9AD4800881030AE490988884217DB7C
:104A5000A448007D012806D1A74800881038A9493C
:104A6000098888420CDC9F48407D012813D19D486D
:104A70000069A249096800E031E1B1EB800FDCD99F
:104A80000220984981F820000023C21E9EA1A04860
:104A9000006804F0ACF81DE1924890F8200002286C
:104AA00068D1934A128891B2904A128890B203F06A
:104AB00081F8924909680844904908608948408B08
:104AC000082812DC874890F84000401E85492431B0
:104AD00051F8200087490968490830F811008649D3
:104AE00008800846007808800DE07E4890F8400075
:104AF000401E7C49243151F820007E49096830F875
:104B000011007D49088003F06FFC7648007D28B9CC
:104B1000794800887B490988884214DC7148007D07
:104B2000012805D1744800887649098888420ADB43
:104B30006C48407D0128AED16A4800696F49096818
:104B4000B1EB800FA7D96D4800687249086000205A
:104B50006A4908600320634981F8200065480068BD
:104B60006D49086000235A1E6CA16948006804F072
:104B70003EF8AFE05B4890F8200003288BD15C4AF8
:104B8000128891B2594A128890B203F013F85B4927
:104B90000968084459490860524890F820000328E1
:104BA000E7D1084600685F4909688842E1D303F00D
:104BB00011F84C48407D012867D04A48408B0828AE
:104BC00030DD4848007DB0B904E053480068401E1D
:104BD00051490860434890F84000401E4149243143
:104BE00051F820004C49096830F8110045490988FE
:104BF0008842EADC44E004E047480068401E464939
:104C00000860384890F84000401E3649243151F879
:104C100020004149096830F811003A490988884262
:104C2000EADB2DE02F48007DA8B904E03A4800688F
:104C3000401E394908602B4890F84000401E294921
:104C4000243151F8200034490968405C2D49098815
:104C50008842EBDC14E004E02F480068401E2E4937
:104C60000860204890F84000401E1E49243151F849
:104C7000200029490968405C224909888842EBDB09
:104C800025480068401C24490860234800681549ED
:104C90004860042081F820001E480068224908600E
:104CA00016480068214908601F48006809680844E0
:104CB000B0F5801F02D300201049086000200F4982
:104CC0000860144908600023421E19A110480068BA
:104CD00003F08DFF0448006804F06CF801E003F075
:104CE00077FC3CE6A8F0002010040020140400200B
:104CF000180400201C0400202004002024040020AC
:104D00000C04002004040020534D504C000000000F
:104D100018030020280400200004002054524947B2
:104D200000000000080400202C04002030040020B3
:104D3000314461746152656164795F5F0000000015
:104D400000BF4FF4C87001F0CAFFFFF75CFB2820DA
:104D500001F0C5FFFFF756FBF3E710B504F046F985
:104D600008B103F0FFFDFEF75BF810BD10B5A6B06B
:104D700001201C9005201D9002202290C1031CA838
:104D8000C1614FF4E011016200214162FEF73AFD7A
:104D90000520179002201890002019904FF4806091
:104DA0001A9000201B90022117A8FEF77FFA4FF4FB
:104DB000C07001904FF480700B9040010C9001A8DE
:104DC000FEF7DCF8FEF78CFC4FF47A71B0FBF1F4DF
:104DD0002046FFF74FF90420FFF738F9002211466B
:104DE000501EFEF778F826B010BD00001948006884
:104DF00040F47000174908601748006840F001004F
:104E0000154908600846406814490840124948603E
:104E100008460068124908400F49086008460068C3
:104E200020F4802008600846406820F4FE004860B6
:104E30000846C06A20F00F00C8620846006B0949A6
:104E400008400549086300208860C803014980398B
:104E50000860704788ED00E0001002400CC07FF849
:104E6000FFFFF6FECCFC00FF10B50348FFF7A7F9E3
:104E70000248FFF7A4F910BD54050020900500205A
:104E800010B50348FFF78CF90248FFF789F910BD08
:104E9000540500209005002010B50248FFF78FF957
:104EA00010BD00001805002010B50248FFF778F982
:104EB00010BD00001805002000220268284B98420F
:104EC0000ED0B0F1804F0BD0264B984208D0264B25
:104ED000984205D0254B984202D0254B984203D1E9
:104EE00022F070024B681A431D4B984217D0B0F164
:104EF000804F14D01B4B984211D01B4B98420ED0C0
:104F00001A4B98420BD01B4B984208D01A4B984230
:104F100005D01A4B984202D0154B984203D122F487
:104F20004072CB681A4302608B68C3620B6883626D
:104F30000B4B98420ED00D4B98420BD00D4B984224
:104F400008D00D4B984205D00C4B984202D0084B2C
:104F5000984201D10B69036301234361704700004C
:104F6000002C0140000400400008004000340140D3
:104F70000050014000400140004401400048014011
:104F800030B50C460021816821F47F4142EA0325B7
:104F900025432943816030BD0A460021816821F004
:104FA000700142F007031943816070472DE9F05FFB
:104FB00081460F4690464FF0000A4FF0FF0BFEF778
:104FC000C1FB4000B0FBF9F0401C440814B94FF09D
:104FD0006C0B45E0B4F5803F04DA0025601E86B214
:104FE000AB463DE04FF0FF3213464FF6FF7C0CEA34
:104FF000244018E000F1010C1FFA8CF094FBF0FC47
:105000001FFA8CF101FB10429A4201D213468246EC
:105010004FF6FF7C604506D1B4FBFAFC1FFA8CF119
:105020001FFA8AF001E0002AE4D100BF884208DDBF
:10503000A1F1010C1FFA8CF5A0F1010C1FFA8CF6FE
:1050400007E0A0F1010C1FFA8CF5A1F1010C1FFA89
:105050008CF612B14FF06B0B01E04FF0000B00BF6C
:10506000B8F1000F09D0FEF76DFB0146681C721CF9
:105070005043B1FBF0F0C8F80000FE607D60384698
:10508000FFF74EF85846BDE8F09F000070B50546A2
:105090000C4616462CB9324607492846FFF786FFCC
:1050A00070BD012C05D1324604492846FFF77EFF2A
:1050B000F6E70020F4E700005405002090050020EA
:1050C00070B505460C46224602492846FFF76EFF9A
:1050D00070BD00001805002030B50B4614460021B5
:1050E0000022026A056A25F001050562816921F046
:1050F000F00141EA041122F00A021A4381610262BE
:1051000030BD30B50B46144600210022056A25F05B
:10511000100505628169026A21F4704141EA043197
:1051200022F0A00242EA03128161026230BD90F8CF
:10513000241001F0010139B10168496821F40031FE
:10514000826A11430268516090F8241001F0020154
:1051500039B10168496821F48031C26A114302689B
:10516000516090F8241001F0040139B101684968D8
:1051700021F48021026B11430268516090F82410E1
:1051800001F0080139B10168496821F40041426B1E
:1051900011430268516090F8241001F0100139B1F8
:1051A0000168896821F48051826B11430268916023
:1051B00090F8241001F0200139B10168896821F4C8
:1051C0000051C26B11430268916090F8241001F005
:1051D000400199B10168496821F48011026C1143C2
:1051E00002685160016CB1F5801F07D10168496800
:1051F00021F4C001426C11430268516090F8241000
:1052000001F0800139B10168496821F40021826C04
:10521000114302685160704710B50446002084F8BD
:105220006A002068006800F00800082809D16FF0C3
:105230007E4300228104204600F072F908B1032069
:1052400010BD2068006800F00400042809D16FF048
:105250007E4300220105204600F062F908B10320D8
:10526000EEE7012084F8690000BF002084F86800A0
:1052700000BF00BFE4E700002DE9F0470446002529
:1052800010260027A846A9462169A068084361693D
:105290000843E16940EA0105206800689749084031
:1052A0002843216808602068406820F44050E16885
:1052B000084321684860216AA06940EA0105206826
:1052C000806820F4306028432168886000BF8C49E2
:1052D0002068884214D18B48006B00F0030030B185
:1052E000012808D0022808D0032808D101E00126AF
:1052F00005E0022603E0042601E0082600BF6FE077
:1053000081492068884217D17E48006B00F4403004
:1053100048B1B0F5803F0AD0B0F5003F09D0B0F5F4
:10532000403F08D101E0002605E0022603E0042604
:1053300001E0082600BF53E074492068884217D175
:105340007048006B00F4402048B1B0F5802F0AD0BF
:10535000B0F5002F09D0B0F5402F08D101E00026AC
:1053600005E0022603E0042601E0082600BF37E03E
:1053700067492068884217D16248006B00F44010EA
:1053800048B1B0F5801F0AD0B0F5001F09D0B0F5C4
:10539000401F08D101E0002605E0022603E00426B4
:1053A00001E0082600BF1BE05A492068884217D157
:1053B0005448006B00F4400048B1B0F5800F0AD0AB
:1053C000B0F5000F09D0B0F5400F08D101E000267C
:1053D00005E0022603E0042601E0082600BF00BF26
:1053E00000BFE069B0F5004F46D1042E24D005DCA3
:1053F0004EB1012E10D0022E2FD116E0082E24D04F
:10540000102E2AD12AE0FEF787F940006168B0FB30
:10541000F1F01FFA80F824E0FEF794F9400061688B
:10542000B0FBF1F01FFA80F81BE03B496068B1FB6C
:10543000F0F01FFA80F814E0FEF79AF94000616876
:10544000B0FBF1F01FFA80F80BE04FF48031606898
:10545000B1FBF0F01FFA80F803E000BF4FF0010944
:1054600000BF00BF4FF6F07008EA0007C8F3420023
:1054700007432068C7603DE0042E25D005DC4EB10F
:10548000012E10D0022E30D116E0082E25D0102E7D
:105490002BD12BE0FEF740F96168B0FBF1F080B250
:1054A0002168C86025E0FEF74DF96168B0FBF1F0B6
:1054B00080B22168C8601CE018496068B1FBF0F058
:1054C00080B22168C86014E0FEF752F96168B0FB51
:1054D000F1F080B22168C8600BE04FF400416068D1
:1054E000B1FBF0F02168C86003E000BF4FF0010994
:1054F00000BF00BF4846BDE8F0870000F369FFEF3A
:1055000000380140001002400044004000480040C4
:10551000004C0040005000400024F40000127A00CB
:105520002DE9F04104460E4617461D46FDF772FC74
:1055300080469FBB2BE0681C48B32DB1FDF76AFC89
:10554000A0EB0800A84222D92068006820F0800063
:10555000216808602068006820F020002168086049
:105560002068006820F480702168086020688068E6
:1055700020F0010021688860032084F8690000BFE2
:10558000002084F8680000BF0320BDE8F081206897
:10559000C0693040B04202D1012001E003E00020A8
:1055A0000028C8D035E02AE0681C40B32DB1FDF7D3
:1055B00031FCA0EB0800A84221D92068006820F047
:1055C0008000216808602068006820F020002168C1
:1055D00008602068006820F48070216808602068F6
:1055E000806820F0010021688860032084F8690049
:1055F00000BF002084F8680000BF0320C5E72068D2
:10560000C0693040B04201D1012000E000200028F4
:10561000CAD10020B9E710B502460B4604E012F8E3
:10562000010B00F005F85B1E002BF8D1002010BD27
:1056300000BF0549096801F080010029F9D002493D
:105640000C310880704700001C44004010B505482C
:105650000088C4B2204601F089F82620FDF720FC1E
:1056600010BD00002444004003B40198410000989C
:1056700050EAC12018BF04204A0D18BF40F00100B5
:1056800040F2FF72B2EB515F08BF40F00200012808
:1056900008BF052002B070472DE9F04D2DED040B39
:1056A0002DED0E8B96B0DDE92550279CDDF890A0FE
:1056B00025F0004624F00048BAF1000F14BF012184
:1056C000002101EB4502FC4953184A1093422AD3AA
:1056D000002814BF0123002303EB44030B44F749C4
:1056E0008B4220D358EA00019FEDF59B76D0DFF87E
:1056F000D8B35D4503D1BAF1000F05D188E0BAF106
:10570000000F08BF002100D0012101EB450111F578
:10571000001F08D8002814BF0121002101EB44011B
:1057200011F5001F0BD99DED261B9DED240B16B026
:10573000BDEC0E8B04B0BDE8F04D00F069BE002753
:10574000002DBCBFE149884521DAE1498845A8BF61
:1057500002271CDAC3451ADCDE4901EB2851142963
:1057600008DDC1F1340220FA02F101FA02F28242AC
:105770000DD108E058B9C1F1140228FA02F101FA7A
:1057800002F2424503D101F00101C1F1020756EADC
:105790000A0124D1002C22DA002D18BF022F01D0DB
:1057A000012F0AD0022000F07FFE16B0BDEC0E8B58
:1057B00004B0BDE8F04D00F013BE022000F074FE0E
:1057C00000F00EFE51EC100B81F0004141EC100B8B
:1057D00016B0BDEC0E8B04B0BDE8F08D18E09FED67
:1057E000BEAB9FEDBF8B002871D1B848804522D158
:1057F00005F1804010F5801008BFBAF1000F07D006
:10580000B3450ADC002CA8BF9DED260BE0DA0DE0C5
:10581000B0EE490AF0EE690ADAE7002C06DA9DEDEF
:10582000260B51EC100B81F000416FE0AE4878443C
:1058300090ED000BCCE7D8454DD1002C48DA2EB1C5
:1058400086423AD1BAF1000F42D126E0BAF1000FF8
:1058500013D0022000F028FE00F0F6FD8DED020BC3
:105860009DED240B8DED000B10EE900A039961F372
:105870001E0003909DED020BAAE78DED02AB9DED9E
:10588000240B1AEE901A10EE900A8DED000B61F3C6
:105890001E0003909DED020B9AE78DED028B9DEDAE
:1058A000240B18EE901A10EE900A8DED000B61F3A8
:1058B0001E0003909DED020B8AE709DA9DED240B93
:1058C00051EC190B53EC102BFAF7A8FE1EE020E068
:1058D0009DED240B7CE786421BDAB4F1804F0DD09E
:1058E000A4F10050B0F1FF5013D1002D11DB9DED5C
:1058F000240B51EC100B02F03FFD07E09DED240B53
:1059000053EC102B51EC100B00F0C2BC41EC100B0F
:105910005EE79DED240B51EC100B00F05DFFBAF13A
:10592000000FCDE90E0142D19FED710B46B3A6F1F8
:10593000E040B0F17F600CD05E4538D1002D00DA38
:10594000A7B3022F0CBF01204FF0FF30FAF7ECFE97
:10595000DCE7002D01DD002C0DDA002D01DD002C2F
:105960001FDB002D16DA002C14DB012F08BF9FED82
:10597000620B3FF42DAFB0EE4A0AF0EE6A0A27E759
:10598000022F18BF002D0CD0012F0AD1002DFFF6D9
:105990001FAF06E0002DB8BF002C08DA012F3FF43E
:1059A00017AFB0EE480AF0EE680A11E71BE00120DD
:1059B00000EBE57050EA070115D0791EB0EE498A78
:1059C000F0EE698A084308BF9FED4D8B4E480025D5
:1059D000804570DD4D494E48884514DDB0420DDBF1
:1059E000002C19DB2FE0012000F05EFD16B0BDECAD
:1059F0000E8B04B0BDE8F04D00F016BDB34502DCDF
:105A0000002C09DC1FE0864202DA002C1BDA03E0DE
:105A10005E452BDD002C16DD022000F045FD00F078
:105A200013FD8DED020B53EC1A2B51EC180BFAF70A
:105A300083FDCDE900010399019861F31E000390F5
:105A40009DED020BC4E6022000F02EFD00F00CFDDF
:105A500010EE901A18EE900A8DED020B8DED008B72
:105A600061F31E0003909DED020BB1E69DED0E0B60
:105A700053EC192B51EC100BFAF758FD9FED260B48
:105A8000CDE9080153EC102B9DED080B51EC100BE8
:105A9000FAF752FD9FED221B53EC112BFAF749FD4B
:105AA0009DED081B53EC112BFAF746FD9FED1E1BD5
:105AB00053EC112B3CE08CE0FFFF1F00FFFF0F00B9
:105AC000000000000000F03F0000F03F0000F07F09
:105AD0000000404301FCFFFF000000000000F07FD9
