:020000040800F2
:10000000E0FF0020590200086102000863020008B6
:10001000650200086702000869020008000000008D
:10002000000000000000000000000000A90100081E
:100030006D02000800000000ED0100082D6D0008B1
:1000400073020008730200087302000873020008BC
:1000500073020008730200087302000873020008AC
:10006000730200087302000873020008730200089C
:10007000FD1D0008730200087302000873020008E7
:1000800073020008091E00087302000873020008CA
:10009000730200087302000873020008730200086C
:1000A000730200087302000873020008730200085C
:1000B00073020008730200082D6E00087302000826
:1000C000730200087302000873020008730200083C
:1000D0007302000873020008698D000873020008AB
:1000E000730200087302000873020008730200081C
:1000F000730200087302000873020008730200080C
:1001000073020008000000000000000073020008F5
:1001100073020008730200087302000873020008EB
:1001200073020008730200087302000873020008DB
:1001300073020008730200080000000000000000C5
:100140007302000873020008730200080000000038
:10015000000000000000000000000000000000009F
:10016000730200087302000873020008730200089B
:10017000730200087302000873020008730200088B
:100180007302000873020008000000000000000075
:1001900073020008DFF80CD000F066FB004800474F
:1001A00085B50008E0FF0020234B19680868B0E817
:1001B000F04F80F309884FF0000080F311887047FA
:1001C0000000000003480068006880F3088862B6F9
:1001D00000DF00BF08ED00E0DFF80C00016841F42B
:1001E00070010160704700BF88ED00E0EFF3098007
:1001F000114B1A681EF0100F08BF20ED108A20E97D
:10020000F04F106008B44FF0500080F311880DF0EB
:100210005FFD4FF0000080F3118808BC1968086882
:10022000B0E8F04F1EF0100F08BFB0EC108A80F35A
:100230000988704700BF00BFA0000020EFF31180C5
:100240004FF0500181F31188704780F31188704797
:10025000EFF30580704700000648804706480047D6
:10026000FEE7FEE7FEE7FEE7FEE7FEE7FEE7FEE766
:10027000FEE7FEE7C56D00089501000840EA0103AE
:100280009B0703D009E008C9121F08C0042AFAD24C
:1002900003E011F8013B00F8013B521EF9D2704710
:1002A000D2B201E000F8012B491EFBD270470022B8
:1002B000F6E710B513460A4604461946FFF7F0FF65
:1002C000204610BD2DE9FE4F81EA030404F00044EE
:1002D00021F0004100944FF0000B23F0004350EA5E
:1002E00001045ED052EA03045BD0C3F30A54C1F3A5
:1002F0000A552C44A4F2F3340194A0FB0254C1F338
:10030000130141F48011C3F3130343F4801301FB81
:10031000024400FB034E840A970A44EA815447EAE8
:100320008357A4FB076802958D0A05FB07854FEAF2
:10033000932C04FB0C542705029D4FEA065847EA0C
:100340001637B5EB08056EEB070C870E920E47EAE1
:10035000811742EA8312A7FB0201B6EB0B0164EBA3
:1003600000042B0D43EA0C335E1844EB1C50DA46B4
:100370005146E7FB0201C5F313044FEA0B3343EA8E
:1003800014534FEA0432019C43EA0603A4F10C041F
:100390000294009CCDE900B400F042F903B0BDE83E
:1003A000F08F00200146F9E72DE9F04D81EA0304C2
:1003B00004F0004B21F0004514464FF0000A23F0F2
:1003C000004150EA050220D054EA01021DD0C5F3D5
:1003D0000A570246C5F31303C1F31300C1F30A56CB
:1003E00040F4801543F48013A7EB0608101BD64693
:1003F00008F2FD3873EB050002D308F1010801E0B3
:1004000092185B41B8F1000F03DA00200146BDE805
:10041000F08D00204FF48011064684460EE0171B35
:1004200073EB050705D3121B63EB050306434CEA88
:10043000010C49084FEA300092185B4150EA01076D
:10044000EDD152EA030012D082EA040083EA0501EA
:10045000084305D0101BAB4106D20122002306E061
:1004600000224FF0004302E06FF0010253101AEB3C
:1004700006004CEB085110EB0A0041EB0B01BDE804
:10048000F04D00F0BEB80EB5C10F80EAE070084430
:10049000CA07002140F233438DE80E000A460B469E
:1004A00000F0BEF803B000BD0EB540F2334102913A
:1004B0000021CDE900110A460B4600F0B1F803B067
:1004C00000BDC1F30A5210B5C1F3130140F2FF336E
:1004D00041F480119A4201DA002010BD40F233430A
:1004E0009A42A2F2334203DC524200F07AF810BD85
:1004F000904010BD30B5041E71F1000404DB4FF0D4
:100500000044404264EB0101141E73F1000405DB5A
:100510001C464FF00043524263EB04038B4208BF7A
:10052000824230BD30B5041E71F1000404DB4FF08F
:100530000044404264EB0101141E73F1000405DB2A
:100540001C464FF00043524263EB0403994208BF3C
:10055000904230BD30B50B460146002020220124D8
:1005600009E021FA02F59D4205D303FA02F5491B81
:1005700004FA02F52844151EA2F10102F1DC30BD97
:100580002DE9F05F0546002092469B4688460646C8
:10059000814640241BE0284641464746224600F05B
:1005A00020F853465A46C01A914110D311461846B6
:1005B000224600F06BF92D1A67EB01084F462246E0
:1005C0000120002100F062F917EB00094E41201EC6
:1005D000A4F10104DFDC484631462A464346BDE823
:1005E000F09F202A04DB203A21FA02F00021704714
:1005F00021FA02F3D040C2F120029140084319468B
:10060000704710B5141E73F1000408DA401C41F164
:10061000000192185B411A4301D120F0010010BD86
:100620002DE9F04D92469B4611B1B1FA81F202E0FC
:10063000B0FA80F22032904600F028F904460F46C6
:1006400040EA0A0041EA0B0153465A46084313D0D8
:10065000114653EA010019D0C8F140025046FFF795
:10066000C0FF05460E4650465946424600F00EF978
:10067000084305D0012004E020463946BDE8F08D4E
:100680000020054346EAE0762C4337430A98630589
:10069000E40AA0EB08000022FD0A44EA47540A30AD
:1006A00002D500200146E9E7010510196941DDE99D
:1006B000084500196941BDE8F04DA2E72DE9FE4F5C
:1006C000804681EA0300C00F0C46009021F00041F3
:1006D00023F00045B8EB0200A94105D2404621466F
:1006E00090461C460B46024623F00040104347D07C
:1006F000270DC7F30A00C3F30A510290401A019074
:1007000040286BDAC3F3130040F4801B0098924634
:1007100020B10023D2EB030A63EB0B0B019859467F
:10072000C0F14002504600F0B1F806460D46504672
:100730005946019A00F0B9F810EB08006141002415
:1007400087EA115284EAE7731A4340D0009A62B3F1
:10075000019A012A4FEA075215DC001B61EB0201E6
:100760004FF0004202EA0752CDE90042001C41F579
:10077000801132462B46FFF753FF03B0BDE8F08FE0
:1007800040462146F9E7001B61EB0201001C41F5E0
:10079000801300185B412018A2F5001747EB0301F6
:1007A00040EAD570B6196D4111E06D084FEA360682
:1007B00045EAC0754FEA0752001B61EB0201001CBD
:1007C00041F5801149084FEA300000195141324685
:1007D0002B4603B0BDE8F04FFFF713BF009801228E
:1007E00040000023D0EB020263EBE0730098214647
:1007F0004FEAE074B8EB000061EB0401E9E783F035
:1008000000435BE781F0004158E770B521F00043F9
:1008100003430CD0C1F30A550024D5EB040564EB67
:100820000403D617AD1AB34102DB0020014670BDA8
:10083000201841EB025170BDC1F30A52C1F31301FC
:1008400040F2FF3341F480119A4202DA002001465F
:10085000704740F233439A42A2F2334202DC5242E2
:10086000FFF7BFBE00F012B8064C074D06E0E06887
:1008700040F0010394E8070098471034AC42F6D3E7
:10088000FFF78CFC50EE000870EE0008202A04DB15
:10089000203A00FA02F1002070479140C2F1200393
:1008A00020FA03F3194390407047202A06DBCB1748
:1008B000203A41FA02F043EAE07306E041FA02F31B
:1008C000D040C2F1200291400843194670472DE9FB
:1008D000F04D00231A461B1A8A4103DB0020014613
:1008E000BDE8F08DC1F30A52C1F3130141F4801544
:1008F0004FF0000BD10702D100186D41521E0027A6
:10090000044640F2FF11384601EB620A3E4680463B
:10091000024600204FF48011FFF763FEC2197141B7
:10092000BB1846EB0100B4EB030C75EB000C04D3D1
:10093000E41A65EB000517460E46241908F101007C
:100940006D4180463428E3DDF91946EB0600091BAA
:10095000A84103D24FF0FF32134601E000221346B4
:100960001BEB070046EB0A51BDE8F04DFFF749BE0F
:1009700070B58C1810F8015B15F0070301D110F861
:10098000013B2A1106D110F8012B03E010F8016B8E
:1009900001F8016B5B1EF9D12B0705D40023521E11
:1009A0000DD401F8013BFAE710F8013BCB1A921C79
:1009B00003E013F8015B01F8015B521EF9D5A14277
:1009C000D8D3002070BD000070B504460020226816
:1009D000936813F00C0F5ED0D36813F0007F05D03E
:1009E000E369012B04BFA369012B0BD0602922D03E
:1009F0002068826812F0040F1BD0826812F0020F88
:100A000013D016E013680C2113F0400F08BF234BDE
:100A100008D101E0984230D2D2F800C0401C1CF04E
:100A2000400FF7D040201060E2E7826842F01002E9
:100A300082600C2914D02068826812F0080F07D059
:100A4000826812F0020F03D1826842F020028260B5
:100A5000602908BF082504D06C2908BF0C2500D0E8
:100A6000042502F059FF064620688068284212D00B
:100A700002F052FF801B0B2809D9606C40F0100077
:100A80006064A06C40F00100A064012070BD20688B
:100A900080682842ECD1002070BD0000009409005D
:100AA0000246406A416C11F0500F03D0C06B016BDD
:100AB00010460847416C41F4007141640168C968FF
:100AC00011F4406F04BFC16900290BD1416C21F4BE
:100AD00080714164416C11F4805F03D1416C41F03D
:100AE0000101416401F046BD406A416C41F04001A2
:100AF0004164816C41F00401816401F027BE406AC9
:100B000001F039BD70B52C4C96B015460E4630B18B
:100B1000012812D0022821D0032830D03FE04422FF
:100B200025496846FFF7AAFB606C1190A06C1290F3
:100B3000E06C216D1390149131E044221F49684606
:100B4000FFF79CFB1D48416C1191806C1290D4F80A
:100B5000A000D4F8A4101390149120E04422184966
:100B60006846FFF78BFB1648416C1191806C129020
:100B7000D4F8F400D4F8F810139014910FE0442244
:100B800010496846FFF77AFB0E48416C1191806C62
:100B90001290D4F84801D4F84C1113901491002EFF
:100BA00012BF002D16B070BD2A463146684602F0CD
:100BB0008BF816B070BD00005C070020B007002065
:100BC000040800205808002010B50F4802F026F94C
:100BD0000E4802F023F90E4802F020F90D4802F009
:100BE0001DF90021084801F097FA0021074801F09B
:100BF00093FA0021064801F08FFABDE81040002169
:100C0000044801F089BA00005C070020B00700200A
:100C1000040800205808002070B504460068816868
:100C200001F0030101292BD1016811F0010F27D038
:100C3000816801F00D01012913D1816841F00201A1
:100C4000816021680320086002F066FE0546206886
:100C5000806810F0010F13D002F05EFE401B0228E6
:100C600009D9606C40F010006064A06C40F0010095
:100C7000A064012070BD2068806810F0010FEBD1E6
:100C8000002070BD70B504460068816801F0030162
:100C9000012903D1016811F0010F23D181686FF39D
:100CA0009E1181B9816841F00101816002F034FE3A
:100CB00005462068006810F0010F13D102F02CFEE9
:100CC000401B022809D9606C40F010006064A06CE1
:100CD00040F00100A064012070BD2068006810F0A1
:100CE000010FEBD0002070BD70B5214C0646A06806
:100CF000002808BF0C250AD0082808BF0A2506D0FE
:100D0000102808BF082502D0182808BF062503F0C0
:100D100061FBB0FBF6F0401B401EB0F5167F88BFAC
:100D2000072017D8B52828BF062013D23D2828BF92
:100D300005200FD2132828BF04200BD2072828BF74
:100D4000032007D2042828BF022003D202282CBF88
:100D500001200020E060074802F060F805F0C0F9CB
:100D600005F0F8F905F030FABDE8704005F066BA14
:100D7000140000205C070020F0B53D4D00212DED52
:100D8000048B81B06A46E8680DF0AEFB394C94F8EC
:100D9000B803394E0127012804D094F8B803042879
:100DA00040D05BE006F060FA84F8A003B4F8980342
:100DB000B4F89A13401C491C4843FFF764FB41EC0C
:100DC000180B2E480068FFF76FFB53EC182BFFF74A
:100DD000EBFA41EC180B94F8A003FFF765FB41EC2C
:100DE000190BD4F8A403FFF75FFB53EC182BFFF7A4
:100DF00069FA53EC192BFFF765FA41EC100B84EDFF
:100E0000EC0B94EDEC0B06F045FA94F8B90330B115
:100E100000236A461AA130680DF0D8FA1EE084F863
:100E2000B9731BE094F8B90370B10DF0DFFC2969C8
:100E3000401A642808D200236A4615A130680DF0D4
:100E4000C5FA06F08FFF09E094F8B9030028E6D050
:100E500000236A4611A130680DF0B8FA00236A46F3
:100E60001946E8680DF0B2FA01B0BDEC048BF0BD94
:100E7000AC010020E8F70020000100200C00002059
:100E8000474574724461746153656E6400000000EC
:100E90004F5265665761726E696E670047526566AC
:100EA0004461746153656E640000000001680A6962
:100EB00012F0010F1ABFCA6812F0010F70476FF0ED
:100EC00001020A6109F05ABE10B50021084801F07C
:100ED00023F90021074801F01FF90021064801F01D
:100EE0001BF9BDE810400021044801F015B90000CD
:100EF0005C070020B00700200408002058080020EC
:100F00008AB00022142105200CF0B8FF734C744EF7
:100F1000744FDFF8D491DFF8D4A1DFF8D481DFF883
:100F2000D4B1754D206000235A1E01A920680CF031
:100F3000E2FF9DF804003128F5D100BF9DF81900AB
:100F40008DF818009DF81A008DF819009DF81B0007
:100F50008DF81A009DF800008DF81B00684609F016
:100F600049FB0028DFD19DF800003A2818BF3B2834
:100F7000E4D19DF81800DDF8191040EA0121A1EB39
:100F80000600B1427CD01BDCA1EB0700B94253D074
:100F90000DDC11EB09004CD05849C84237D15A48F2
:100FA0004A17002356A100680DF0CEF8BBE710EBFE
:100FB0000A0049D05549C84229D10BF079F886E09A
:100FC000A0EB0801404547D019DC10EB0B0173D0B2
:100FD0004F48C1421BD1052108A809F02DFB042868
:100FE0005CD39DF82000DDF8211040EA0120401973
:100FF00059D04849C84218BF022068D15AE0464833
:1010000008185FD0A0F6FC00B0F5C02F5DD03E48B8
:1010100000235A1E41A100680DF096F8684609F0B9
:10102000E9FA00287FF47FAF9DF800003B28F5D156
:1010300079E70BF097FE76E7334800235A1E39A173
:1010400000680DF081F86EE72F4800235A1E3AA180
:1010500000680DF079F866E7052108A809F0ECFAB8
:1010600004280ED39DF82000DDF8211040EA01206D
:1010700040190BD02749C84218BF012027D119E0D9
:101080001BE0002818BF2E4814D0F3E71E480023A9
:101090005A1E2C4900680DF057F80BE0002818BFC5
:1010A000274807D0A5E7184800235A1E264900689C
:1010B0000DF04AF825480AE00CE00BF025F90BF09A
:1010C00047FD30E70AF0F8FD01E00AF069FB0BF09C
:1010D0003FFD28E70BF002FCF9E70000FC000020D0
:1010E0004F5343505645523FAEBAACDE03FDF2FFBC
:1010F00004061004FCF9F4FFBDB9B8C0090105E20B
:10110000305F49444E0000000001002007F917FE3F
:10111000100A01FDFEF702E00C1405F545393939D6
:10112000000000003953656E64537973745665721C
:1011300073696F6E0000000043736869656C64003A
:10114000020C0B2038CB000888B70008454E445FDE
:101150009AB005F097FAF749002401F5007022468D
:1011600001604FF400718180C480048184721E216B
:1011700005200CF083FEF04D286004200CF056FE94
:101180006860EEA00DF1380C0FC88CE80F00EFA2DC
:10119000D2E9000192681492CDE91201E64C0023D5
:1011A0005A1E06A920680CF0A6FE4FF0FF316068B9
:1011B0000DF0E1F99DF81800302843D0312850D0C7
:1011C000322808BF002000F01581472800F02B814D
:1011D0004F2800F032824C2800F03A82332800F089
:1011E0005382342800F05D82352800F06A8244285A
:1011F00000F0A482422800F0C182432800F0088356
:10120000362800F00C83502800F04183572800F066
:101210005483592800F07583372808BFCEA000F00A
:101220002B81382808BFCEA000F02681392800F095
:101230009B83492800F0D28341280CBFCAA006A88E
:1012400000F01AB9C8A009F088FAC9A009F085FA17
:101250000AF000F9002818BFCAA040F00D8100F084
:10126000B7BB0AF0EBF8042840F0B2830AF0D4F8D8
:1012700005460AF0DDF804460AF092F8064600F04A
:1012800045FF82460BF08AFD010E8DF83C10010CE3
:101290008DF83D10010A8DF83E108DF83F00082EA4
:1012A00014D90AF0D1F807460AF0C2F880460AF0CD
:1012B000B9F808FB00F0A7EB104005EB4000B0FBCD
:1012C000F5F105FB11006400009011E00AF0BCF894
:1012D00007460AF0ADF880460AF0A4F808FB00F0D3
:1012E000A7EB10402844B0FBF5F105FB110000907E
:1012F0008DF84060200C8DF84100200A8DF84200E6
:1013000000988DF8434020448DF847A0A84283BF41
:101310000098A5EB0008A4EB0809A04698BF4FF081
:1013200000090024BAF1000F50D920460AF058F8FD
:10133000064604F1010B8DF846B010210EA809F005
:10134000F9F9B8F5804F17D90098002744463518A9
:1013500005EB87304FF4804109F0ECF9781CA4F5D7
:101360008044C7B2B4F5804FF2D8002C1CBF05EB07
:101370008730A1B207D108E0B8F1000F05D000987E
:101380001FFA88F1304409F0D5F9B9F5804F84BFD0
:101390004D46002426D900BF06EB84304FF480412F
:1013A00009F0C8F9601CA5F58045C4B2B5F5804FB9
:1013B000F2D8002D1CBFA9B206EB843002D000BFCA
:1013C00009F0B8F90BF0FF045445AED372A009F050
:1013D000C4F9764800235A1E71A100680CF0B4FECF
:1013E00000F0F6BAB9F1000F1CBF1FFA89F13046C0
:1013F000E6D1E7E700F13101441C8DF84C10E0B272
:1014000009F0CEFD010C8DF85110010A8DF8521033
:101410008DF853000C2112A809F08CF9E0B20228D3
:10142000E8D300F0D5BA624C94F8B80301280DD087
:1014300094F8B803042815D094F8B80302281FD0F4
:1014400094F8B803032862D000F0C2BA59A009F09A
:1014500084F994EDEC0B59A153EC102B594807F08B
:1014600091FCF3E058A009F078F9D4F8A42358A12E
:10147000544807F087FC534809F06FF900F0A8BA08
:1014800094F8BC03B8B194EDE00B53A153EC102BCE
:101490004C4807F077FC94EDE20B51A153EC102B74
:1014A000684607F06FFC51A009F057F9454809F06C
:1014B00054F96846E0E794F8BA0380B94DA009F002
:1014C0004CF994EDE00B3DA153EC102B3D4807F097
:1014D00059FC3C4809F041F9012084F8BA0394F81A
:1014E000BB03002840F0748244A009F036F994ED63
:1014F000E20B32A153EC102B324807F043FC314889
:1015000009F02BF9012084F8BB0300F061BA94F8CC
:10151000BD0368B1012802D002287BD085E039A044
:1015200009F01BF9022239A1264807F02BFC7CE0C8
:101530007BE06FE0AC4F0020000100204F53435F81
:1015400079797979787878784348307847454E5F6B
:101550007843485F46787878475F4E58000000002F
:10156000475F4F4B0000000041434B5F000000000D
:1015700053544D3332463330332D4E75636C656FA3
:1015800000000000202B20536869656C64204C45E6
:101590004F2056302E310000535F4F4B00000000AB
:1015A000324461746153656E740000009C01002038
:1015B000E8F7002045545244000000002530313641
:1015C0002E366600B8510020524546440000000007
:1015D00025303130640000002530362E336600009F
:1015E000253031352E31326600000000445554312B
:1015F00000000000494331440000000049433244E8
:1016000000000000544D4F540000000025303264AB
:1016100000000000F6A009F0A0F894EDE00BF6A1A0
:1016200053EC102BF74807F0ADFBF64809F095F89E
:10163000002084F8BD0300F0CBB9F3A009F08DF8C9
:101640000222AFF23801EF4807F09CFBED4813E7A8
:10165000EF4CA07C38B9EFA009F07FF8206809F0C2
:1016600087F80120A074EDA009F077F8A089400068
:1016700009F07EF8EBA009F070F8A1894FF6FF7031
:1016800000EA4101A06855E0E84809F066F802F078
:1016900083FE09F06DF802F09DFE09F069F8E44858
:1016A000EAE6E44809F059F84FF4007009F060F8F0
:1016B0004FF4E13009F05CF8DF4809F04EF8DF48FC
:1016C000DAE6DF4809F049F8DE4809F051F849F652
:1016D000404009F04DF8042009F04AF800208DF848
:1016E000000000BF10F0FF0008BFD7480BD0012852
:1016F00008BFD64807D0022808BFD54803D0032822
:1017000008BFD44801D109F028F89DF80000401C1A
:10171000C0B28DF800000428E4D340F6E44009F09C
:1017200027F8CD48008809F023F868460BF026FB1F
:101730009DF8001008F0FEFF00F04AB9C74809F014
:101740000CF8C74809F014F8C64809F011F8C64863
:1017500009F003F8C54809F000F8C44808F0FDFF97
:10176000C34808F0FAFFC34808F0F7FFBF4808F085
:10177000F4FFBE4808F0F1FFBD487DE6BE4808F022
:10178000ECFF022008F0D4FF042008F0D1FF022073
:1017900008F0CEFF012008F0CBFFB84FB84E00256F
:1017A00007F1240807F14C0907F15C0AB54808F075
:1017B000D4FF705D0024002805D81FE0002C1CBF5A
:1017C000B14808F0CAFF002D08BF57F824000ED01A
:1017D000012D08BF58F8240009D0022D08BF59F880
:1017E000240004D0032D08BF5AF8240001D108F0CA
:1017F000B4FF601CC4B2705DA042DFD8681CC5B2E3
:10180000042DD3D39F4808F0A8FFA04834E600BFBA
:1018100009F020FE002814BF9D489E482CE69E48F3
:1018200008F09BFF9D4808F0A3FF4FF4FA6008F012
:101830009FFF0C2008F09CFF022008F099FF002475
:1018400005E024B1012C08BF954801D002E095487D
:1018500008F083FF601CC4B2022CF2D309F0FAFD39
:1018600028B1914808F068FF41F21D3004E00020E3
:1018700008F07EFF40F6E44008F07AFF40F6E440CE
:1018800008F076FF4FF4966008F072FFA0E08748FA
:1018900008F063FF022008F06BFF002405E024B18C
:1018A000012C08BF824801D002E0824808F055FFB1
:1018B000601CC4B2022CF2D38AE07F4808F04DFFCE
:1018C000684808F055FF7D4808F052FF042008F0F2
:1018D0004FFF00240DE064B1012C08BF784809D007
:1018E000022C08BF774805D0032C08BF764801D0EA
:1018F00002E0764808F031FF601CC4B2042CEAD341
:1019000066E0734808F029FF564808F031FF544854
:1019100008F02EFF6F4808F02BFF44F6206008F017
:1019200027FF082008F024FF002407E0082C0CD231
:10193000DFE804F00406081012141618664802E0E6
:10194000664800E0664808F008FF601CC4B2082C36
:10195000ECD33DE06348F6E76348F4E76348F2E719
:101960006348F0E76348EEE7634808F0F6FE634833
:1019700008F0F3FE624808F0F0FE624808F0EDFE61
:10198000614808F0EAFE614808F0E7FE604808F0A8
:10199000E4FE562008F0CCFE01F0BAFF302404EB40
:1019A0001060C0B208F0C4FE2E2008F0C1FE01F0A5
:1019B000AFFF04EB1040C0B208F0BAFE2E2008F0D2
:1019C000B7FE01F0A5FF04EB1020C0B208F0B0FE96
:1019D000504840680CF06EFDFFF7E0BB4D48002317
:1019E0005A1E06A900680CF086FA06A844E5000015
:1019F0005449444100000000253031362E31326612
:101A000000000000B85100205741524E0000000075
:101A1000CCFB00204C415450000000004C41444C91
:101A2000000000004C4144540000000078D700083A
:101A300080D7000828D3000830D3000838D3000826
:101A4000C4D5000800093D00D0D50008D8D500084D
:101A5000E0D50008E8D50008BAF7FF1F88D30008D2
:101A60000044950800A24A0498D30008A4D30008B3
:101A7000A8D30008ACD3000890D6000808010020C5
:101A8000A4EC0008A0D60008A4D60008A8D6000838
:101A9000C8D60008D0D6000824D4000880841E00D0
:101AA00038D4000830D40008D9ECFFFF74D4000803
:101AB00084D400087CD4000824D70008A086010044
:101AC0003CD7000844D700084CD7000834D700089A
:101AD000F4D400080051250208D5000810D50008EC
:101AE00018D5000820D5000828D5000830D50008F2
:101AF00038D5000840D50008FCD7000804D80008F5
:101B000014D800081CD8000824D8000830D80008D1
:101B100038D800080001002086B0002214210520DA
:101B20000CF0ACF9894DA86004200CF07FF9E86056
:101B3000874CA86841F61F4B41F26F7620B301270E
:101B40004FF002084FF004094FF0030A00235A1E19
:101B50006946A8680CF0CFF94FF0FF31E8680CF047
:101B60000AFD9DF8000031280FD0322826D03328F6
:101B70003DD0342854D035286BD036287ED0372835
:101B800074D0382873D0DCE0FEE794F8B803052859
:101B90000FD2DFE800F00E03060C090006F070FE1D
:101BA00007E006F07BFE04E006F086FE01E006F0AA
:101BB00091FE84F8B87306F033FDC2E094F8B803E0
:101BC00005280FD2DFE800F00E03060C090006F02E
:101BD00057FE07E006F062FE04E006F06DFE01E04D
:101BE00006F078FE84F8B88306F070FDA9E094F85A
:101BF000B80305280FD2DFE800F00E03060C090039
:101C000006F03EFE07E006F049FE04E006F054FE52
:101C100001E006F05FFE84F8B89306F071FD90E0F5
:101C200094F8B80305280FD2DFE800F00E03060C85
:101C3000090006F025FE07E006F030FE04E006F09D
:101C40003BFE01E006F046FE84F8B8A306F0BAFDBC
:101C500077E094F8B803052873D2DFE800F0720942
:101C6000030C090005F0F6FD6BE007E018E02CE03E
:101C700005F08EFB65E006F01BFB62E094F8B8030C
:101C800005285ED2DFE800F05D060309060005F0D6
:101C900019FE56E005F0AAFB53E006F0CFFB50E03A
:101CA00094F8B80305284CD2DFE800F04B03060C8B
:101CB000090006F0E5FD44E006F0F0FD41E006F025
:101CC000FBFD3EE006F006FE3BE0B4F8A803B0F5ED
:101CD0007A7F04BFA4F89AB342F20F7029D008DCCF
:101CE000642816D0B0F5FA7F08BFA4F89A6317D01D
:101CF00021E000F67840B0F5005004BF4EF65F20BA
:101D0000A4F89A030CD000F67840B0F5005F0AD032
:101D100011E0A4F89AB340F2E730A4F898030AE07F
:101D2000A4F8986307E048F69F40A4F89A0344F6A5
:101D30001F60A4F89803B4F89A13B4F8980305F058
:101D4000C9F9E8680CF0B6FB00E70000AC01002020
:101D5000E8F70020014900200860704710000020CB
:101D600001490220086070471000002010B5446A45
:101D7000204601F0B6F80120207110BD10B5446A6C
:101D8000204601F084F80120207110BD10B5446A8E
:101D9000206940F004002061204601F0A4F80120F1
:101DA000207110BD10B5446A206940F00400206124
:101DB000204601F06EF80120207110BD406A01F04C
:101DC00091B810B5406A01F063F810BDF8B515463A
:101DD0000E46002410B1012808BF102421460648F1
:101DE00001F086F9002000902B4632462146024839
:101DF00001F0F6F8F8BD0000C0060020014801F02F
:101E000023BA0000F4050020014801F01DBA0000CB
:101E10002004002010B5284C96B0012806D00228D6
:101E200012D0032821D0042830D03FE04422224998
:101E30006846FEF723FA606C1190A06C1290E06C7B
:101E4000216D1390149131E044221C496846FEF73D
:101E500015FA1A48416C1191806C1290D4F8A000C8
:101E6000D4F8A4101390149120E044221449684639
:101E7000FEF704FA1248416C1191806C1290D4F86C
:101E8000F400D4F8F810139014910FE044220D4997
:101E90006846FEF7F3F90B48416C1191806C129083
:101EA000D4F84801D4F84C11139014910F9800689D
:101EB000406816B080B210BD5C070020B00700205B
:101EC000040800205808002010B50E490E4C884226
:101ED0000BD1084601F033F9E38804F11002BDE8A4
:101EE00010400A49074801F092BA094801F027F961
:101EF000238904F5E472BDE810400649044801F066
:101F000086BA000038060020E8F7002034000040C0
:101F10007C06002038000040C16B0A6890F8403011
:101F20000220984010421ABF4860012000207047EC
:101F300000B585B004F0AEFF0021094801F0CCF8EF
:101F40001021074801F0C8F83020009000200190CF
:101F5000029069464FF0904001F0B6FB05B000BD1D
:101F6000C006002000B5154985B013480860084632
:101F700000F0BAFF04200090114800226946006872
:101F800001900E4800F086FF142000901022694650
:101F90000A4800F07FFF30200090032001900020CD
:101FA000029069464FF0904001F08EFB05B05DF85D
:101FB00004EB04F07DBF000000740040C006002068
:101FC0001000002086B00022142105200BF056FFDF
:101FD000DFF830814C49A1F12C04C8F800002160E1
:101FE0004FF47A706060E060A06020610126A67501
:101FF00060622084A161002727750C2020850023C2
:102000005A1E6946D8F800000BF075FF9DF80000D5
:10201000312818BF3228F2D0332808BF207DEED0F7
:10202000342810D0352851D036285FD0372861D0D9
:102030003828E4D1607D012860D0607D002808BF89
:1020400004F074FFDBE7207D0028D8D1607D0128F3
:1020500008BF002505D0607D002808BF002520D0DE
:1020600032E004EB8509D9F804000022294605F086
:10207000D9FEA07DA84208D904EB4500028CD9F80E
:1020800018102846FFF7A2FE04E000221146284659
:10209000FFF79CFE681CC5B2022DE2D3FFF762FF7A
:1020A00012E004EB850040680022294605F0BAFEE4
:1020B000A07DA84284BF284605F0B0F8681CC5B2D0
:1020C000022DEED304F01EFB267598E7207D012833
:1020D00095D1607D012805D0607D002808BF04F0FF
:1020E000E5FA01E0FFF724FF277588E7677504F03C
:1020F00041FF84E7667504F0E9FE80E704F0AEFE78
:102100007DE70000A801002018F00020014890F8A9
:1021100021007047A8EF00202DE9F041044690F817
:1021200040000D46012804BF0220BDE8F0814FF0B9
:10213000010884F840802046FEF76EFD06004FF04F
:10214000000718BF012604D084F840703046BDE86F
:10215000F081C4F844802068816821F0804181606A
:10216000012D04D12068816841F0804181602068A0
:10217000816841F00041816001F0CEFB0546206896
:10218000806810F0004F14D001F0C6FB401B0A28F5
:102190000AD9606C20F0020040F01000606484F8FE
:1021A00040700120BDE8F0812068806810F0004F89
:1021B000EAD1606C20F0020040F001006064C3E7E7
:1021C0002DE9F00198B04FF0000CCDF808C090F860
:1021D00040206446012A01BF022018B0BDE8F0018A
:1021E0007047012780F840700268936813F0040F6D
:1021F00040F05D814B681F25052B0CD2166B03EB5D
:1022000043035B009D4026EA05050E6806FA03F3CA
:102210002B4313632CE00A2B0DD2566B5B1F03EB91
:1022200043035B009D4026EA05050E6806FA03F3AA
:102230002B4353631CE00F2B0DD2966B0A3B03EB31
:1022400043035B009D4026EA05050E6806FA03F38A
:102250002B4393630CE0D66B0F3B03EB43035B0014
:102260009D4026EA05050E6806FA03F32B43D36367
:10227000026893684FF0070513F00C0F64D10B68E8
:102280000A2B0ED396690A3B03EB430305FA03F8C6
:1022900026EA0806D1F8088008FA03F3334393616D
:1022A0000CE0566903EB430305FA03F826EA080637
:1022B000D1F8088008FA03F33343536102684B698D
:1022C000D668D1F81080C6F3C1067600B340A14E9F
:1022D000B8F1010F3FD0B8F1020F49D0B8F1030FA8
:1022E00053D0B8F1040F5DD0136E0E7803F0F843AD
:1022F000B3EB866F03D1136E23F0004313660268BD
:10230000536E0E7803F0F843B3EB866F03D1536E30
:1023100023F0004353660268936E0E7803F0F8438F
:10232000B3EB866F03D1936E23F00043936602688C
:10233000D36E0E7803F0F843B3EB866F04BFD36E11
:1023400023F0004300D1D3660268936803F00303CF
:10235000012B37D132E0D2F8608008EA060691F806
:10236000008043EA8863334343F000431366EBE79E
:10237000D2F8648008EA060691F8008043EA886390
:10238000334343F000435366DEE7D2F8688008EA3F
:10239000060691F8008043EA8863334343F0004324
:1023A0009366D1E7D2F86C8008EA060691F80080BF
:1023B00043EA8863334343F00043C4E7136813F0F0
:1023C000010F7AD1CB68012BD2F8B03006D00D784E
:1023D00007FA05F5AB43C2F8B03022E00E7807FAF1
:1023E00006F63343C2F8B0300A6803680A2A0CD3F1
:1023F0009E69093A02EB4202954026EA05058E687D
:1024000006FA02F22A439A610BE05E69521C02EB63
:102410004202954026EA05058E6806FA02F22A4332
:102420005A6103684C4DB3F1A04F16BFAB424B4A03
:102430004B4A0968102908D011290BD0122904BF72
:10244000966816F4800F09D037E0966816F4000FEE
:1024500033D103E0966816F0807F2ED1B3F1A04F00
:102460000FD0AB4204BF4FF0A04503950AD03D4DBD
:102470003D4EAB4208BF039604D0B34218BF03944D
:1024800000D103959D6805F00305012D03D11D685A
:1024900015F0010F0BD1039DB5B1AD6805F0030533
:1024A000012D11D1039D2D6815F0010F0CD0416C49
:1024B00041F0200141644FF0010C80F8404018B019
:1024C0006046BDE8F0017047102909D0112933D0CA
:1024D000122904BF916841F48001EED19160ECE7CC
:1024E000B3F1A04FE9D1916841F4000191601F4917
:1024F0001F4A0968B1FBF2F101EB81014900029129
:102500000091DAD0B1F1004F1ED20029D8BF0021CE
:1025100005DD11F0010102D0029A521E0292009ACA
:10252000491C521C9142C8DA029B891C5B1E5B1E2F
:1025300002939142F8DBC0E7B3F1A04F04BF91686A
:1025400041F08071B9D1C9E70299491E0291FCD1CD
:10255000B3E7000000F0FF830001005000030050CB
:1025600000070050000400500005005098000020B3
:1025700040420F0070477047002804BF0120704799
:1025800070B50446406C96B040F0020060646C2167
:102590002046FEF719FA05004FF0000640F0BC8017
:1025A0002068C16841F40011C1602046FEF734FB89
:1025B000050018BF012540F0AF800120606420684D
:1025C00041686FF30A014160216840F2FF700860C2
:1025D0002068816821F0E04181602068816841F0D5
:1025E000005181602068C1684E4A1140C160206876
:1025F00041696FF3DD0141612068816901F0784133
:1026000081612068016A01F0F02101622068416A5D
:1026100001F0FF2141622068816A01F0FF2181629F
:102620002068016B404A114001632068426B3F49BA
:102630000A4042632068826B114081632068C16B4D
:1026400021F0DF0121F4E061C16321680A6E38489E
:1026500002400A6621684A6E02404A6621688A6E14
:1026600002408A662168CA6E1040C8662068D0F8A9
:10267000A0106FF31201C0F8A0102068D0F8A410C9
:102680006FF31201C0F8A4102068D0F8B0106FF3F7
:102690001201C0F8B0102068D0F8B41021F07F11FA
:1026A000C0F8B4102068234AB0F1A04F1ABF90427E
:1026B00021492249B0F1A04F0FD0904204BF4FF002
:1026C000A04200920AD01E4A1E4B904208BF0093BF
:1026D00004D0984218BF009600D10092826802F0A0
:1026E0000302012A03D1006810F0010F0FD10098F6
:1026F00048B1806800F00300012804D10098006808
:1027000010F0010F03D188680F4A104088602046FE
:1027100000F08CF9A664666484F8406016B0284620
:1027200070BD000004800080300882E0200882E054
:1027300000F0FF03000100500007005000030050AC
:102740000004005000050050E0103CFE70470000FF
:1027500070B598B04FF0000604003546029602BFEF
:10276000012018B070BD606C10F0100F606C03D0C9
:1027700010F0100F69D06DE000284BD1A5642565DD
:10278000E56484F84050204600F052F920688068E3
:1027900010F0805F3ED12046FEF73EFA0646606CA0
:1027A00010F0100F08BF002E34D1606C20F4885058
:1027B00040F0020060642068816821F0405181602F
:1027C0002068816841F0805181608F488F4900689E
:1027D000B0FBF1F000EB800040000290009019D0B7
:1027E000B0F1004F80F00B810028D8BF002005DD3C
:1027F00010F0010002D00299491E02910099401C7C
:10280000491C884206DA029A801C521E521E02920D
:102810008842F8DB2068816811F0805F03D080680F
:1028200010F0005F0BD0606C20F0020040F0100050
:102830006064A06C40F00100A064606C0AE0606C11
:1028400010F0100F08BF002E04D12068816811F02D
:10285000040F0AD0606C20F0020040F010006064A9
:102860004FF0010618B0304670BD616C21F48071E4
:1028700041F002016164DFF898C1B0F1A04F1ABFC6
:10288000604564496449654B654AB0F1A04F08BF93
:10289000CDF808C00ED0604504BF4FF0A04CCDF875
:1028A00008C007D0904208BF029303D098420CBFE3
:1028B00002920295D0F808C00CF0030CBCF1010F95
:1028C00003D1006810F0010F13D1029848B180685D
:1028D00000F00300012804D10298006810F0010FF5
:1028E00007D18868D4F804C020F4403040EA0C00D6
:1028F0008860D4E902100143A06B012814BF4FF493
:10290000805C4FF0000CE0694CEA403C41EA0C016D
:10291000D4F824C0BCF1010F0AD1E8B3606C20F0F8
:10292000020040F020006064A06C40F00100A06450
:10293000E06A01282DD0D4F800C094451CBF9C4506
:1029400020F4805022D1B0F5307F08BF4FF4E07002
:102950001CD0B0F5807F08BF4FF4307016D0B0F5B2
:10296000E07F08BF4FF4807010D0B0F58A5F08BFD9
:102970004FF470700AD0B0F5845F08BF4FF4A070B8
:1029800004D0B0F5865F08BF4FF4C0700843216BD8
:1029900001432068826800E003E012F00C0F15D1BB
:1029A00008E0208DDFF87CC00CEB4040084340F489
:1029B0008031BDE7C26822F0020222F48042C26088
:1029C000A069626B800340EA420001432068C2684C
:1029D000154B1A401143C160206901282068016B22
:1029E00021F00F0102D1226A521E11430163A56436
:1029F000606C20F0020040F00100606432E7029851
:102A0000401E0290FCD105E79800002040420F00D4
:102A10000001005000070050000300500005005066
:102A2000000400500000FEFF07C0F0FF70470000E8
:102A30002DE9F04F93490446A1F11006D0F800C0EB
:102A400033688F480322802700255B1C87B04FF432
:102A500080684FF480794FF0200ABCF1A04F1ED05F
:102A6000ACF1A04BBBF5807B15D0A1F11003ACF10C
:102A7000A04B5B685B1CBBF5806B7CD0ACF1A04BC2
:102A8000BBF5A06B1CBF07B0BDE8F08F7360012BD6
:102A900040F0C980B9E03360012B4BD13CE033609A
:102AA000012B0DD1436943F080534361436903F027
:102AB00080530593C36A23F4F87343F48073C362AD
:102AC0000878714931F81010CDE900126F4902956C
:102AD00051F82000694600F0F7FDDFF8B8B16C4806
:102AE000CBE90005CBE90257B068102813BF1828BE
:102AF000CBF81450CBF81050CBE904984FF40050A9
:102B0000CBE906A0634800F005FCC4F83CB0CBF864
:102B1000244007B0BDE8F08F436943F08053436120
:102B2000436903F080530593C36A23F4F87343F4B5
:102B30008073C3624878584931F81010CDE900120B
:102B40005649029551F82000694600F0BDFDDFF8B6
:102B500054B15348CBE90005CBE90257B0681028BF
:102B600013BF1828CBF81450CBF81050CBE90498B9
:102B70004FF4005000E00BE0CBE906A0494800F01C
:102B8000C9FBC4F83CB0CBF8244007B0BDE8F08FD7
:102B90007360012B0DD1436943F0005343614369D6
:102BA00003F000530593C36A23F4785343F40053AE
:102BB000C36288783C4931F81010CDE900123B49D6
:102BC000029551F82000694600F07EFDDFF8E4B080
:102BD0003748CBE90005CBE90257B068102813BF8E
:102BE0001828CBF81450CBF81050CBE904984FF4C8
:102BF0000050CBE906A02F4800F08CFBC4F83CB095
:102C0000CBF8244007B0BDE8F08F436943F0005390
:102C10004361436903F000530593C36A23F4785377
:102C200043F40053C362C878234931F81010CDE94A
:102C300000122249029551F82000694600F044FD37
:102C4000DFF880B01E48CBE90005CBE90257B06839
:102C5000102813BF1828CBF81450CBF81050CBE92C
:102C600004984FF40050CBE906A0164800F052FB40
:102C7000C4F83CB0CBF8244007B0BDE8F08F0000AA
:102C80000010024024000020C0EB000828000020B3
:102C900008000240AC080020F8EB00084C000020BF
:102CA00008040240F0080020B0EB00087400002087
:102CB0005804024034090020B8EB000884000020CA
:102CC0001C040240780900202DE9F05F04460068EA
:102CD0008B469246816811F0040F18BF022502D07E
:102CE0002846BDE8F09F94F84010012904BF022057
:102CF000BDE8F09F0121DFF80C91434F84F84010AC
:102D00004FF0A048B0F1A04F16BFB842D8F8080362
:102D1000D9F8000010F01F0F4FF000061CBF01256E
:102D200084F84060DCD12046FDF7ACFF050018BFF9
:102D300084F84060D4D1606C20F0010020F4606021
:102D400040F4807060642068B0F1A04F1ABFB842B0
:102D5000D9F80010D8F8081311F01F0F1EBFB0F1FA
:102D6000A04FA0F1A041B1F5806142D0616C41F467
:102D700080116164B8420EBFD8F80C002348006887
:102D800010F0007F05D0606C20F4005040F48050BB
:102D90006064606C10F4805F08BFA66403D0A06C10
:102DA00020F00600A06484F84060E16B1848886257
:102DB000E16B1848C862E16B1748086321681C2062
:102DC00008602068416841F0100141602068C168D6
:102DD00041F00101C1602068534600F140015A46AC
:102DE000E06B00F04FFB2068816841F004018160D6
:102DF00076E7616C21F480116164C06810F0007F97
:102E0000C1D1C6E708070050000100500C04005073
:102E1000A10A0008FF0A0008E90A000870B5044684
:102E200090F84000012804BF022070BD012084F802
:102E300040006C212046FDF7C7FD050022D1206827
:102E4000C16821F00101C160E06B00F078F9051E56
:102E500003D0606C40F0400060642068416821F05D
:102E600010014160204604D1FDF7D6FE050009D1CE
:102E700002E0FDF7D1FE05E0606C20F4885040F0E0
:102E800001006064002084F84000284670BD70474F
:102E9000704770474379012B04BF0220704730B45C
:102EA0004FF0010C80F805C00223037103681C6811
:102EB00040F6FE759540AC43D1E90051294391405D
:102EC0002143196001680B68C02404FA02F223EA66
:102ED00002020A6080F804C00021417130BC08463B
:102EE0007047704770477047002804BF0120704743
:102EF00070B504460079002518B96571204600F0C8
:102F000007F802202071256101202071002070BD8A
:102F10002DE9F04F0546006887B0A0F18041B1F57A
:102F2000E8411CBF07B0BDE8F08F2848C16941F0F7
:102F30000051C161C069002600F0005005903020AA
:102F400000900320CDE9010669464FF0904000F063
:102F5000BBFB204C4FF480791D481027C4F810901B
:102F6000C4E900074FF4806A2020C4E905A00002EC
:102F7000E0614FF08008C4E90268204600F0CAF919
:102F8000DFF854B0AC606562DBF8000040F400503C
:102F9000CBF8000044341148C4F81090C4E900078D
:102FA0002020C4E905A00002E061C4E902682046CF
:102FB00000F0B0F9EC606562DBF8000040F480409E
:102FC000CBF8000007B0BDE8F08F00000010024011
:102FD00030000240D40600200000014044000240BE
:102FE0002DE9F04104460D46944661790022069889
:102FF000012904BF0220BDE8F0810126667102218B
:103000002171002D32D0E7682D49B962E7682D495A
:10301000F962E7682C49396321680F6847F08057E7
:103020000F60002804BF206800F114020AD00428B1
:1030300004BF206800F1180204D0082804BF2068EB
:1030400000F11C022068016841F0005101606146F6
:10305000E06800F017FA002060712068016806FA45
:1030600005F2114301600020BDE8F081A76817490F
:10307000B962A7681649F962A768164939632168D9
:103080000F6847F480570F60002804BF206800F1E4
:1030900008020AD0042804BF206800F10C0204D002
:1030A000082804BF206800F110022068016841F47C
:1030B000005101606146A06800F0E4F9CBE7000030
:1030C0007D1D0008C31D0008A51D00086D1D00081A
:1030D000BD1D00088D1D00080368D3F800C0012243
:1030E00002FA01F12CEA0101196002710020704717
:1030F00070B50446006802684FF480538B409A43D1
:10310000026020680268012505FA01F39A43026013
:1031100069B1E06800F013F821680A6822F00052F3
:103120000A6000281ABF04212171257170BDA068B2
:1031300000F005F821680A6822F40052F0E70168FF
:103140000A6822F00E020A6001680A6822F0010291
:103150000A6090F84020C36B012101FA02F25A6024
:1031600080F82110002180F820100846704710B523
:1031700090F821100024022903D004218163012446
:1031800019E001680A6822F00E020A6001680A6804
:1031900022F001020A6090F84020C36B012101FA7D
:1031A00002F25A6080F82110002180F82010416B53
:1031B000002918BF8847204610BD0000002804BF22
:1031C0000120704701680A6822F001020A60026863
:1031D0000021116002685160026891600268D1604C
:1031E000DFF84CC00268134B624509D2DFF848C0D3
:1031F0006244A3FB02321209920002640F4A08E003
:10320000DFF83CC06244A3FB023212099200026460
:103210000C4AC26390F84020012303FA02F2C36B08
:103220005A60816380F8211080F8201000207047D8
:1032300008040240CDCCCCCCF8FFFDBF000002401A
:10324000F8FBFDBF00040240F0B4C16BD1F800C030
:1032500001680B68046C042202FA04F515EA0C0FED
:1032600018BF13F0040F12D00B6813F0200F03D116
:103270000B6823F004030B6090F8401002FA01F190
:10328000C26B5160C16A002942D1F0BC704702266E
:1032900006FA04F212EA0C0F4FF000054FF001029B
:1032A00018BF13F0020F15D00B6813F0200F05D1D3
:1032B0000B6823F00A030B6080F8212090F840107F
:1032C000C26B06FA01F1516080F82050816AF9B9A9
:1032D000F0BC7047082606FA04F414EA0C0F12BF7B
:1032E00013F0080FF0BC70470B6823F00E030B605F
:1032F00090F84010C36B02FA01F15960826380F8C4
:10330000212080F82050016B002904BFF0BC7047D9
:10331000F0BC0847002804BF0120704710B4022108
:1033200080F8211002681168D0E9013C43EA0C03DF
:10333000D0E903C44CEA040C43EA0C03D0F814C0EF
:103340006FF30D1143EA0C03D0F818C043EA0C03E5
:10335000D0F81CC043EA0C0319431160124B0168FA
:10336000124A994208D2124B1944A2FB01210909C1
:10337000890001640F4907E00F4B1944A2FB0121AA
:103380000909890001640D49C16300218162C1629C
:10339000016341638163012280F8212080F82010BD
:1033A00010BC08467047000008040240CDCCCCCCCD
:1033B000F8FFFDBF00000240F8FBFDBF0004024023
:1033C00090F820C00023BCF1010F04BF0220704719
:1033D0004FF0010C80F820C090F821C0BCF1010F23
:1033E0000FD1002908BF82620CD0012908BFC26238
:1033F00008D0022908BF026304D0032908BF426332
:1034000000D00123002180F820101846704770B4C6
:1034100090F820404FF0000C012C02BF022070BC3D
:103420007047012480F8204090F821600025012E8B
:103430001CBF80F820504FF0020C02D070BC6046D8
:103440007047022680F82160856305682E6826F0A3
:1034500001062E6090F84050AC40C56B6C6004686B
:1034600063604368102B036803BF9A600268D160F1
:1034700099601CBF0168CA600068016841F00101E1
:103480000160DBE770B490F820404FF0000C012C95
:1034900002BF022070BC7047012480F8204090F8E1
:1034A00021600025012E1CBF80F820504FF0020C37
:1034B00002D070BC60467047022680F821608563A8
:1034C00005682E6826F001062E6090F84050AC404A
:1034D000C56B6C60046863604368102B036803BFAE
:1034E0009A600268D16099601CBF0168CA60C16AB5
:1034F000002901680A6818BF42F00E0206D142F0A6
:103500000A020A6001680A6822F004020A60006880
:10351000016841F001010160CBE790F82020002311
:10352000012A04BF02207047012280F8202090F871
:1035300021C00022BCF1010F13D1052911D2DFE80F
:1035400001F0030507090B0082620BE0C26209E08B
:10355000026307E0426305E08262C2620263426383
:1035600000E0012380F820201846704731B500F0B4
:10357000D3F9044600F0D0F90099001B8842F9D332
:1035800038BD00000022002908BF70472DE9F04F28
:10359000DFF82CB101274FF003084FF00F0C0BF1AF
:1035A000040E00BF07FA02F515EA01037DD0066894
:1035B000540008FA04F4A6430660D60800EB860619
:1035C000D6F820904FEA427A4FEADA6A0CFA0AFA01
:1035D00029EA0A09C6F820908668A64386604668EC
:1035E00026EA05054560C56825EA0404C46022F0A2
:1035F000030404F1804505F58035D5F8089094075B
:10360000260F0CFA06F404EA0909B0F1904F08BF3E
:103610004FF0000A30D0A0F1904ABAF5806A08BF96
:103620004FF0010A28D0A0F1904ABAF5006A08BF0D
:103630004FF0020A20D0A0F1904ABAF5406A08BFC4
:103640004FF0030A18D0A0F1904ABAF5805A08BF8B
:103650004FF0040A10D0A0F1904ABAF5A05A08BF62
:103660004FF0050A08D0A0F1904ABAF5C05A0CBF35
:103670004FF0060A4FF0070A0AFA06F64E4518D12F
:10368000AE6826EA0404AC60DBF800409C43CBF84B
:103690000040DEF800409C43CEF80040094C25680D
:1036A0009D432560241D256800E002E025EA030310
:1036B0002360521C31FA02F37FF474AFBDE8F08F3F
:1036C00000040140080401400B680022002B08BFE1
:1036D00070472DE9F84F844EDFF810E201274FF0D4
:1036E000030A4FF00F0800BF0B6807FA02F52B40E2
:1036F00000F0F380D1F804C0BCF1020F18BFBCF198
:10370000120F15D14FEAD20C00EB8C09D9F82040EA
:103710004FEA427C4FEADC6C08FA0CFB24EA0B040B
:10372000D1F810B00BFA0CFC4CEA040CC9F820C01C
:10373000D0F800904FEA420C91F804B00AFA0CF469
:103740000BF0030B29EA04090BFA0CFB4BEA0909FD
:10375000C0F80090D1F80490B9F1010F18BFB9F189
:10376000020F05D0B9F1110F18BFB9F1120F18D11E
:10377000D0F80890D1F80CB029EA04090BFA0CFB38
:103780004BEA0909C0F80890D0F8049029EA050529
:1037900091F80490C9F3001909FA02F949EA0505FC
:1037A0004560C56825EA04048D6805FA0CFC4CEAFE
:1037B000040CC0F80CC0D1F804C01CF0805F7CD0B1
:1037C000D6F818C04CF0010CC6F818C0D6F818C0CE
:1037D0000CF0010CCDF800C022F0030C0CF1804C71
:1037E0000CF5803CDCF808504FEA82744FEA147400
:1037F00008FA04F925EA0905B0F1904F08BF4FF027
:10380000000930D0A0F19049B9F5806908BF4FF0A8
:10381000010928D0A0F19049B9F5006908BF4FF01F
:10382000020920D0A0F19049B9F5406908BF4FF0D6
:10383000030918D0A0F19049B9F5805908BF4FF09D
:10384000040910D0A0F19049B9F5A05908BF4FF074
:10385000050908D0A0F19049B9F5C0590CBF4FF047
:1038600006094FF0070909FA04F42C43CCF8084084
:10387000DEF800C04C682CEA030C14F4803F18BF3B
:103880004CEA030CCEF800C0194CD4F800C04D68C7
:103890002CEA030C15F4003F18BF4CEA030CC4F8E3
:1038A00000C0144CD4F800C04D682CEA030C15F489
:1038B000801F18BF4CEA030C00E00EE0C4F800C003
:1038C0000D4CD4F800C04D682CEA030C15F4001F11
:1038D00018BF4CEA030CC4F800C00B68521CD3405C
:1038E0007FF402AFBDE8F88F0010024000040140F1
:1038F00004040140080401400C0401400069084030
:1039000018BF01207047002A14BF8161816270478F
:103910004FF0827070470000014800687047000057
:103920009C00002002480168491C016070470000AB
:103930009C000020074810B5016841F010010160AB
:10394000032000F089F80F2000F006F800F018F8C6
:10395000002010BD0020024010B5044607484FF477
:103960007A720068B0FBF2F001F068F8002221469C
:10397000501E00F03FF8002010BD0000980000200D
:10398000094808B5816941F001018161806900F051
:1039900001000090032000F05FF80022BDE808401D
:1039A0001146501E00F026B80010024000F01F0122
:1039B000012202FA01F14009800000F1E020C0F884
:1039C0008012704700F01F01012202FA01F1400944
:1039D000800000F1E020C0F88011704700F01F0166
:1039E000012202FA01F14009800000F1E020C0F854
:1039F00000117047174B10B41B68C3F30223C3F1C7
:103A0000070CBCF1040F88BF4FF0040C1C1D072CE1
:103A100034BF0023DB1E012404FA0CFCACF1010CC2
:103A20000CEA0101994004FA03F35B1E1A401143AA
:103A300000284FEA0111A1BF00F1E02080F8001436
:103A400010BC704700F00F0000F1E02080F8141D5A
:103A500010BC70470CED00E0074900F007000A6851
:103A60004FF6FF031A4042EA002040F0FD7040F09C
:103A700080600860704700000CED00E070B5F94907
:103A800086B0034691E876108DE87610F74900205D
:103A9000DFF8D4C30A68F649B3F5805F00F0878188
:103AA00054DC202B77D038DC042B75D01ADC012BAA
:103AB00073D0022B1CBF06B070BD0A6B12F44032EB
:103AC0006CD0B2F5403F6BD0B2F5803F67D0B2F515
:103AD000003F1CBF06B070BD096A11F0020F6FD124
:103AE00006B070BD082B6CD0102B1CBF06B070BD8B
:103AF0000A6B12F4400251D0B2F5400F76D0B2F505
:103B0000800F4CD0B2F5000F1CBF06B070BD096A23
:103B100011F0020F70D106B070BD402B67D06D461A
:103B2000802B73D0B3F5807F71D0B3F5007F1CBFBD
:103B300006B070BD496801F40001B1F5000F02BF85
:103B4000CC4806B070BD51B306B070BDB3F5001FD0
:103B500070D037DCB3F5003F6DD022DCB3F5005FE9
:103B60006AD0B3F5803F1CBF06B070BD0A6A02F48C
:103B70004072B2F5807F3BD0B2F5007F3FD0B2F506
:103B8000407F1CBF06B070BD096811F4003F18BF2C
:103B9000B94806B070BD9CE061E039E057E053E001
:103BA00058E0B3F5802F71D0B3F5801FF1D10B6BC6
:103BB00003F08073B3F1807F69D0002B3DD0E8E73C
:103BC0001AE065E0B3F5800F75D0B3F5000F73D040
:103BD000B3F1807F71D0B3F1007FDAD10B6B03F4C6
:103BE0000043B3F5004F69D03BB3D2E76CE07CE013
:103BF000096A11F0020FCCD04FF40040C9E7496ABE
:103C000011F0020F18BF49F64040C2E799E0B4E056
:103C10000A6B12F003020AD0032A0FD0012A13D034
:103C2000022AB6D1096A11F0020FE5D1B1E700F01E
:103C3000D1FBAEE70DE170E0CCE09CE0096811F04B
:103C4000020FA6D06046A4E700F0DCFBA1E700F07D
:103C5000A9FB9EE7096811F0020FF3D199E70A6BFF
:103C600012F44022F3D0B2F5402F0AD0B2F5802FE3
:103C7000EAD0B2F5002F8CD1096A11F0020FBBD146
:103C800087E7096811F0020FDCD182E739E09CE098
:103C90000A6B12F44012DAD0B2F5401F0FD0B2F521
:103CA000801FD1D0B2F5001F7FF473AF096A11F005
:103CB000020FA1D16DE79BE0A8E0B5E0C3E0096881
:103CC00011F0020FBED164E7096811F0020FB9D1FB
:103CD0005FE70A6B12F0100202D0102AB4D058E746
:103CE000096811F0020FADD153E70A6B12F0200200
:103CF00002D0202AA8D04CE7096811F0020FA1D108
:103D000047E70A6B12F0400202D0402A9CD040E7FD
:103D1000096811F0020F95D13BE70A6812F0007FA5
:103D20003FF437AF486800F48000B0F5800F05D04D
:103D300002F026FD00EB400040082AE702F020FDDB
:103D400027E7CB6A13F4F87415D0096811F0007FE7
:103D50003FF41FAF02F014FD4FF4F87191FAA1F196
:103D6000B1FA81F124FA01F101F00F0135F81110D7
:103D7000B0FBF1F00DE710460BE7CB6A13F4785473
:103D8000F9D0096811F0007F3FF403AF02F0F8FCAE
:103D90004FF4785191FAA1F1B1FA81F124FA01F1CD
:103DA00001F00F0135F81110B0FBF1F0F1E60B6BEB
:103DB00003F48073B3F5807F02D0002BDBD0E8E6FC
:103DC000096811F0007FB9D1E3E6096811F0007FBE
:103DD000B4D1DEE60B6B03F40073B3F5007F02D0C1
:103DE000002BC8D0D5E6096811F0007FA6D1D0E637
:103DF0000B6B03F48063B3F5806F02D0002BBAD055
:103E0000C7E6096811F0007F98D1C2E60B6B03F496
:103E10000063B3F5006F02D0002BACD0B9E609689F
:103E200011F0007F8AD1B4E60B6B03F40053B3F5B5
:103E3000005F02D0002B9ED0ABE6096811F0007F36
:103E40007FF47CAFA5E6096811F0007F7FF476AFC0
:103E50009FE60B6B03F00073B3F1007F0ED0002BD5
:103E600089D096E68CEC000800127A0098000020B9
:103E700000100240ADDEADDE90D00300096811F005
:103E8000007F7FF45BAF84E62DE9F84F04460068BD
:103E9000AF4D10F4803F7DD0E8694FF0000910F07D
:103EA000805F09D1E86940F08050E861E8694FF02F
:103EB000010900F080500090A64E306810F4807F19
:103EC00013D1306840F480703060FFF725FD07465D
:103ED000306810F4807F08D1FFF71EFDC01B6428F6
:103EE0005AD8306810F4807FF6D0286A10F44070F9
:103EF00055D0A18801F44071814250D0286A012731
:103F0000390491FAA1F2B2FA82F2920002F18442EB
:103F100002F5840220F44070C2F8007491FAA1F115
:103F20000022B1FA81F1890001F1844101F5840197
:103F3000C1F80024286210F0010F30D0FFF7ECFC2C
:103F40008046022641F2883A96FAA6F0B0FA80F04E
:103F500040F04000B7EB501F08BF28680AD096FA1F
:103F6000A6F0B0FA80F040F04000B6EB501F0CBF56
:103F7000286A686A96FAA6F1B1FA81F101F01F0188
:103F800007FA01F108420AD1FFF7C6FCA0EB0800CE
:103F9000504500E010E0D7D90320BDE8F88F286A2B
:103FA000616820F4407008432862B9F1000F03D023
:103FB000E86920F08050E861207810F0010F05D00A
:103FC000286BA16820F0030008432863207810F0D4
:103FD000020F05D0286BE16820F4403008432863C5
:103FE000207810F0040F05D0286B216920F44020C0
:103FF00008432863207810F0200F05D0286BE16972
:1040000020F0100008432863206810F4003F05D01A
:104010006868616D20F4800008436860207810F0C3
:10402000400F05D0286B216A20F020000843286348
:10403000206810F4802F05D0286B616A20F04000C2
:1040400008432863207810F0080F05D0286B6169B9
:1040500020F4401008432863207810F0100F05D09A
:10406000286BA16920F4400008432863208810F4DD
:10407000007F05D06868216B20F400000843686069
:10408000207810F0800F05D0E86AA16A20F4F8705B
:104090000843E862208810F4807F05D0E86AE16A6E
:1040A00020F478500843E862208810F4805F05D03F
:1040B000286B616B20F4807008432863208810F41B
:1040C000005F05D0286B216C20F400700843286342
:1040D000206810F4801F05D0286BA16B20F0807041
:1040E00008432863206810F4001F05D0286BE16B9B
:1040F00020F0007008432863206810F4800F05D07A
:10410000286B616C20F4806008432863206810F4F9
:10411000000F05D0286BA16C20F4006008432863D1
:10412000206810F0807F05D0286BE16C20F40050EF
:1041300008432863206810F0007F05D0286B216DAC
:1041400020F40040084328630020BDE8F88F0000F9
:1041500000100240007000402DE9F047DFF81C829B
:1041600005460E46D8F8000000F00700B0420CD219
:10417000D8F8000020F007003043C8F80000D8F855
:10418000000000F00700B04270D128787C4C10F09D
:10419000020F05D06068A96820F0F0000843606055
:1041A000287810F0010F71D068680121012831D002
:1041B000022845D0022393FAA3F2B2FA82F242F027
:1041C000200252090CBF626A226893FAA3F3B3FA81
:1041D00083F303F01F0399400A427DD0616821F008
:1041E000030108436060FFF797FB0746686841F2E8
:1041F000883901283BD00228606800F00C0046D0C6
:10420000002856D0FFF788FBC01B48454DD9032036
:10421000BDE8F0874FF4003292FAA2F3B3FA83F3C9
:1042200043F020035B0914BF2368636A92FAA2F289
:10423000B2FA82F202F01F0291400B424CD0CDE75D
:104240004FF0007292FAA2F3B3FA83F343F0200323
:104250005B0914BF2368636A92FAA2F2B2FA82F28F
:1042600002F01F0291400B4236D0B7E734E060689D
:1042700000F00C0004281CD0FFF74EFBC01B484583
:10428000C5D8606800F00C000428F5D111E00828BA
:104290000FD000BFFFF740FBC01B4845B7D8606890
:1042A00000F00C000828F5D103E0606810F00C0F56
:1042B000A8D1D8F8000000F00700B0420FD9D8F814
:1042C000000020F007003043C8F80000D8F80000D4
:1042D00000F00700B04202D00120BDE8F087287846
:1042E00010F0040F05D06068E96820F4E06008432E
:1042F0006060287810F0080F06D06068296920F403
:10430000605040EAC100606061681E4801F00C0224
:10431000042A1ED0082A1CD14FF4701393FAA3F379
:1043200001F47012B3FA83F3DA40174B9A5CE36A34
:104330004FF00F0C9CFAACFC03F00F03BCFA8CFCA2
:1043400023FA0CF3DFF844C01CF80330B0FBF3F0A1
:1043500050436168F02292FAA2F201F0F001B2FA41
:1043600082F2D1400A4A515CC8400A4908600F20D5
:10437000FFF7F2FA0020BDE8F087000000200240BD
:104380000010024000127A006CEC00087CEC00087F
:1043900054EC0008980000200148006870470000B5
:1043A0009800002008480949006849684FF4E06215
:1043B00092FAA2F201F4E061B2FA82F2D140044A28
:1043C000515CC84070470000980000200010024077
:1043D00064EC000808480949006849684FF46052D5
:1043E00092FAA2F201F46051B2FA82F2D140044A88
:1043F000515CC84070470000980000200010024047
:1044000064EC0008164B5968164801F00C02042AA7
:1044100008BF7047082A18BF704701F470124FF4A4
:10442000701C9CFAACFCBCFA8CFC22FA0CF2DFF893
:1044300038C0DB6A1CF802204FF00F0C9CFAACFC71
:1044400003F00F03BCFA8CFC23FA0CF3DFF81CC05A
:1044500001F480311CF80330B0FBF3F05043704797
:104460000010024000127A006CEC00087CEC00089E
:104470002DE9F84F04460078FF4D10F0010F4FF082
:1044800001063CD06868770400F00C0004281ED0B8
:10449000686800F00C00082805D1686800F4C03096
:1044A000B0F5803F13D06068B0F5803F04BF286846
:1044B00040F4803037D010B1B0F5A02F56D0286826
:1044C00020F480302860286820F480202BE097FAC0
:1044D000A7F0B0FA80F040F02000400914BF28682F
:1044E000686A97FAA7F1B1FA81F101F01F0106FAA3
:1044F00001F1084203D06068002800F08D82207826
:104500004FF0000910F0020F4FF002077DD06868ED
:104510004FF0F80A10F00C0F78D0686800F00C002B
:1045200008284BD050E02860606838B3FFF7F4F9F2
:104530004FEA000897FAA7F0B0FA80F040F02000A8
:10454000400914BF2868686A97FAA7F1B1FA81F1A7
:1045500001F01F0106FA01F10842D0D1FFF7DCF9A2
:10456000A0EB08006428E5D900F0FDB9286840F404
:1045700080202860286840F48030D4E7FFF7CCF929
:104580004FEA000897FAA7F0B0FA80F040F0200058
:10459000400914BF2868686A97FAA7F1B1FA81F157
:1045A00001F01F0106FA01F10842A8D0FFF7B4F9A3
:1045B000A0EB08006428E5D900F0D5B9686800F4DC
:1045C000C030B0F5004F30D0E068002896FAA6F071
:1045D000B0FA80F04FEA800000F1844000F58400DA
:1045E0007ED00660FFF798F94FEA000897FAA7F027
:1045F000B0FA80F040F02000400914BF2868686AD3
:1046000097FAA7F1B1FA81F101E033E00DE001F092
:104610001F0106FA01F108421FD1FFF77DF9A0EB57
:1046200008000228E2D900F09EB997FAA7F0B0FA84
:1046300080F040F02000400914BF2868686A97FAAB
:10464000A7F1B1FA81F101F01F0106FA01F1084268
:104650001CBFE068012840F0DF8128689AFAAAF2BE
:104660002169B2FA82F220F0F80001FA02F140EA80
:1046700001002860207810F0080F7CD060690028C5
:1046800096FAA6F0B0FA80F04FEA800000F184407C
:1046900000F584004FD0C0F88064FFF73DF98046F4
:1046A00097FAA7F0B0FA80F040F06000B6EB501F28
:1046B00008BF28680AD097FAA7F0B0FA80F040F057
:1046C0006000B7EB501F0CBF286A686A97FAA7F121
:1046D000B1FA81F101F01F0106FA01F1084200E090
:1046E00008E056D1FFF718F9A0EB08000228D7D947
:1046F00000F039B9C0F80090FFF70EF94FEA000852
:1047000097FAA7F0B0FA80F040F02000400914BFFB
:104710002868686A97FAA7F1B1FA81F101F01F01E0
:1047200006FA01F10842A5D0FFF7F6F8A0EB080061
:104730000228E5D917E1C0F88094FFF7EDF880462C
:1047400097FAA7F0B0FA80F040F06000B6EB501F87
:1047500008BF28680AD097FAA7F0B0FA80F040F0B6
:104760006000B7EB501F0CBF286A686A97FAA7F180
:10477000B1FA81F100E00CE001F01F0106FA01F14D
:10478000084206D0FFF7C8F8A0EB08000228D7D9E6
:10479000E9E0207810F0040F72D0E8694FF0000BC8
:1047A00010F0805F09D1E86940F08050E861E86965
:1047B0004FF0010B00F080500090DFF8C080D8F877
:1047C000000010F4807F18D1D8F8000040F4807009
:1047D000C8F80000FFF7A0F88246D8F8000010F4EF
:1047E000807F0AD1FFF798F8A0EB0A0064284AD826
:1047F000D8F8000010F4807FF4D0A068012804BF2E
:10480000286A40F0010009D008B105283CD0286A88
:1048100020F001002862286A20F004002862A068C5
:1048200041F2883A68B3FFF777F8804697FAA7F025
:10483000B0FA80F040F04000B6EB501F08BF286887
:104840000AD097FAA7F0B0FA80F040F04000B7EB3A
:10485000501F0CBF286A686A97FAA7F1B1FA81F174
:1048600001F01F0106FA01F1084240D1FFF754F8A8
:10487000A0EB0800504505E0001002400070004029
:104880003CE009E0D2D96EE0286A40F004002862DA
:10489000286A40F00100C1E7FFF73EF84FEA000840
:1048A00097FAA7F0B0FA80F040F04000B6EB501F46
:1048B00008BF28680AD097FAA7F0B0FA80F040F055
:1048C0004000B7EB501F0CBF286A686A97FAA7F13F
:1048D000B1FA81F101F01F0106FA01F1084206D098
:1048E000FFF71AF8A0EB08005045D9D93BE0BBF11F
:1048F000000F03D0E86920F08050E861A069A8B3F8
:10490000696801F00C0108297ED04FF080780228F8
:1049100098FAA8F0B0FA80F04FEA800000F18440E5
:1049200000F584004FF00077C0F800901FD0FEF72C
:10493000F3FF044697FAA7F0B0FA80F040F02000A9
:10494000400914BF2968696A97FAA7F0B0FA80F0A5
:1049500000F01F0006FA00F0014260D0FEF7DCFF15
:10496000001B0228E6D90320BDE8F88F57E0FEF7C8
:10497000D3FF814697FAA7F0B0FA80F040F020000C
:10498000400914BF2868686A97FAA7F1B1FA81F163
:1049900001F01F0106FA01F1084206D0FEF7BCFF44
:1049A000A0EB09000228E5D9DDE7E86A616A20F09A
:1049B0000F000843E862D4E907100843696821F44E
:1049C00076110843686098FAA8F0B0FA80F0800089
:1049D00000F1844000F584000660FEF79DFF044668
:1049E00097FAA7F0B0FA80F040F02000400914BF19
:1049F0002868686A97FAA7F1B1FA81F101F01F01FE
:104A000006FA01F1084200E006E008D1FEF784FF53
:104A1000001B0228E4D9A6E70120BDE8F88F00209A
:104A2000BDE8F88F4FF0E021042808690CBF40F082
:104A3000040020F00400086170470000411EB1F13D
:104A4000807F24BF012070474FF0E0204161054A7C
:104A5000F02182F8141D00218161072101610020ED
:104A6000704700000FE000E090F83C20012A04BFEE
:104A700002207047012280F83C20CA688B6822F42B
:104A800040721A434B6822F480621A430B6822F486
:104A900000621A430B6922F480521A434B6922F4D4
:104AA00000521A4322F480438A6A134323F40043DA
:104AB0001A430B8B22F4702242EA03430268A2F1EC
:104AC000804CBCF5963C1FBFA2F1804CBCF59A3CD3
:104AD000A2F1804CBCF5A83C0FD1B1F824C023F45E
:104AE000700343EA0C53D1F81CC023F0807343EAEF
:104AF0000C03096A23F000730B435364002180F810
:104B00003C100846704790F83C20012A04BF022060
:104B1000704710B4012280F83C2002685368D2F834
:104B200008C0A2F18044B4F596341FBFA2F18044BE
:104B3000B4F59A34A2F18044B4F5A83403D14C689A
:104B400023F4700323430C6823F070038968234324
:104B50002CF0800C41EA0C01536002689160002146
:104B600080F83C1010BC0846704710B5044602207F
:104B700084F83D002068016A41F21112114207D108
:104B8000016A9210114203D1016821F00101016014
:104B9000204600F021F8002084F83D0084F83C0015
:104BA00010BD002804BF0120704710B5044690F8DE
:104BB0003D0028B9002084F83C00204600F04CF964
:104BC000022084F83D00211D206802F0B3FA012084
:104BD00084F83D00002010BD2DE9F0410446006836
:104BE000904DA0F18041B1F5A03103D1A86920F426
:104BF0008030A8618C494A7D8C488D4E012A0DD1A8
:104C00002268824203D1EA6922F01002EA61226836
:104C1000B24203D1EA6922F02002EA61497D854F60
:104C200021BB2168B94203D1A96921F40061A961BE
:104C30002168A1F18042B2F5806203D1E96921F0D7
:104C40000201E9612168814206D1E86920F0100083
:104C5000E861206AFEF7B2FA2068B04206D1E8693E
:104C600020F02000E861206AFEF7A8FA2068A0F191
:104C70008041B1F59A310FD1A86920F40050A861A4
:104C8000606AFEF79BFAA06AFEF798FAE06AFEF700
:104C900095FA206BFEF792FA2068B84206D1A8690F
:104CA00020F40060A861206AFEF788FADFF88881A6
:104CB000206840452ED16148817B01292AD1E969CC
:104CC00021F00401E961017C5D48002914BF8021C5
:104CD0004021FEF757FC5B48016821F40071016038
:104CE000016821F4806101605748016821F00101E9
:104CF0000160016821F01001016000215348FEF7B6
:104D00000CFC206AFEF75AFA1120FEF75BFE1E200B
:104D1000FEF758FE20684E4FB0F1804F56D197F8FD
:104D2000B8034FF0804601281CBF97F8B803042849
:104D300008D097F8B80302281CBF97F8B8030328D7
:104D40001DD03FE04FF001014FF09040FEF71AFCFC
:104D50000C20FEF737FE00213E48FEF7DEFB206AFE
:104D6000FEF72CFAF06820F48070F060B06920F053
:104D70000300B061306A20F00100306222E00321BC
:104D80004FF09040FEF7FEFBA06AFEF717FA606A4C
:104D9000FEF714FAB06920F00100B061B06920F4A8
:104DA0008070B061306A20F001003062306A20F01B
:104DB00010003062F06820F40070F060F06820F4B9
:104DC0008060F060E86920F00100E86120684045FB
:104DD00018BFBDE8F08197F8B80304280CD097F805
:104DE000B80302281CBF97F8B80303280BD097F824
:104DF000B80301280BD00FE04FF480714FF09040C2
:104E0000FEF7C0FB08E01E20FEF7DCFD04E00121F8
:104E10004FF09040FEF7B6FBE86920F00400E8612F
:104E2000BDE8F08100100240ECEF002000100040CF
:104E300000140040002C014000080040CCFB002082
:104E4000000400480C080040200800402004002016
:104E5000E8F70020F40500202DE9F04F0446006833
:104E6000FE4DA0F1804187B0B1F5A03107D1A8690E
:104E700040F48030A861A86900F480300590F848BB
:104E8000417DDFF8E093012918D12168494507D118
:104E9000E96941F01001E961E96901F0100105914A
:104EA0002268A2F18041B1F5A05107D1E96941F032
:104EB0002001E961E96901F020010591407D0227A7
:104EC00000264FF0100B4FF0030A4FF40058002853
:104ED0007ED12168A1F18040B0F5963013D1A86948
:104EE00040F40060A861A869029600F40060059093
:104EF0003802CDE900070620CDE903A069464FF04E
:104F00009040FEF7E1FB2068A0F18041B1F580619F
:104F100012D1E86940F00200E861E869CDF800B01C
:104F2000CDF80CA0CDE9017600F00200CDE90470C7
:104F30006946CD48FEF7C8FB2168A1F18040B0F575
:104F4000805024D1E86940F01000E861E869DFF89A
:104F5000209300F010000590C448C9E9000B8020A0
:104F6000C9E902604000C9F810008000C9F81400C7
:104F70002020C9E906084846FEF7CCF9B948C168BF
:104F800041F48071C160C4F82090C9F824402168C0
:104F9000A1F18040B0F5A05026D1E86940F0200092
:104FA000E861E869DFF8D09200F020000590B14890
:104FB000C9E9000B8020C9E902604000C9F810006F
:104FC0008000C9F814002020C9E90608484600E01E
:104FD0000AE0FEF79FF9A948016841F48071016079
:104FE000C4F82090C9F824402168A1F18040B0F5B0
:104FF0009A307CD1A86940F40050A861A869029752
:1050000000F4005005904FF47070CDE900070420C3
:10501000CDE903A069469A48FEF756FBDFF868928F
:105020009848C9F800001020C9E901068020C9F895
:105030000C004000C9F810008000C9F814002020BE
:10504000C9E906084846FEF765F9DFF840B2DBF823
:10505000000040F40070CBF80000C4F82490C9F8B8
:10506000244009F144098A48C9F800001020C9E920
:1050700001068020C9F80C004000C9F8100080002B
:10508000C9F814002020C9E906084846FEF742F98D
:10509000DBF8000040F48060CBF80000C4F82890F2
:1050A000C9F8244009F144097A48C9F800001020E1
:1050B000C9E901068020C9F80C004000C9F81000B9
:1050C0008000C9F814002020C9E906084846FEF708
:1050D00021F9DBF8000040F40060CBF80000C4F8D0
:1050E0002C90C9F824406C4809F1440900E01DE007
:1050F000C9F800001020C9E901068020C9F80C0099
:105100004000C9F810008000C9F814002020C9E947
:1051100006084846FEF7FEF8DBF8000040F4805031
:10512000CBF80000C4F83090C9F824402168A1F100
:105130008040B0F596302CD1A86940F40060A86199
:10514000A869694600F4006005904FF47E508DE830
:10515000C1044548FEF7B8FADFF844914F48C9E961
:1051600000068020C9E902604000C9F810008000F4
:10517000C9F814002020C9E906084846FEF7CAF815
:105180004848016841F480710160C4F82090C9F872
:1051900024402168A1F18040B0F500604DD1424823
:1051A000807B012849D1E86940F00400E861E869A2
:1051B000CDE9027A00F0040005904020CDE9000717
:1051C000694629480497FEF77FFADFF8E4903748EC
:1051D000C9E900068015C9F80860C9E903608000C4
:1051E000C9F81C80C9E905064846FEF793F831481E
:1051F000016841F001010160016841F40071016042
:10520000016841F002010160C4F820902A4A00219F
:105210004846C9F82440FEF7D3F80022092111209E
:10522000FEF7E8FB1120FEF7D9FB002209211E2022
:10523000FEF7E0FB1E20FEF7D1FB2068DFF87CB014
:10524000B0F1804F7ED19BF8B813012001291CBF1B
:105250009BF8B813042976D032E000000010024019
:10526000ECEF002000100040000400483000024035
:105270001403002044000240580300200C14004096
:105280000008004830040240A40400200C3401400F
:1052900058040240080402401C0402405800024026
:1052A000DC0300200C2C0140CCFB002080000240DD
:1052B000200400200C080040695F0008E8F7002087
:1052C0009BF8B81302291FBF9BF8B813032907B036
:1052D000BDE8F08FE96941F00101E961E969CDE9D3
:1052E00000A701F00101CDE90401CDE9026A694698
:1052F0004FF09040FEF7E8F9DFF884915F48C9E984
:105300000006C9F808609BF8B803022806BF802091
:10531000C9F80C00C9F80C604FF40070C9F810000F
:105320008000C9F81C80C9E905065548FDF7F2FF61
:10533000C4F82890C9F82440DFF84C915148C9E9D5
:10534000000601E01DE050E0C9F808609BF8B803D2
:10535000022806BF8020C9F80C00C9F80C604FF481
:105360000070C9F810008000C9F81C80C9E9050662
:105370004548FDF7CFFFC4F82490C9F8244005F054
:10538000D1FB2168A1F18040B0F500601CBF07B0DF
:10539000BDE8F08F3D48807B00281CBF07B0BDE80A
:1053A000F08FE86940F00400E861E86900F004006B
:1053B00005909BF8B803042850D09BF8B803022846
:1053C0001FBF9BF8B803032807B0BDE8F08F4FF06C
:1053D00000024FF009014FF01E00FEF70BFB1E20EC
:1053E000FEF7FCFA07B0BDE8F08FE96941F0010172
:1053F000E961E969CDE9000701F00101CDE90401A6
:10540000CDE9026A69464FF09040FEF75DF9DFF89A
:1054100084901F48C9E900064015C9F80860C9E929
:1054200003608000C9F814002020C9E90608484636
:10543000FDF770FFC4F82090174A00214846C9F8CC
:105440002440FDF7BDFF002209210C20FEF7D2FA0F
:105450000C20FEF7C3FA05F0AFF992E74FF4807025
:10546000CDE9000702960A20CDE903A069464FF076
:105470009040FEF729F907B0BDE8F08F80000240A8
:105480007C0600205800024038060020CCFB00209B
:105490001C000240F4050020790D0008022180F86C
:1054A0003D1001680A6842F001020A60012180F89B
:1054B0003D10002070470168CA6842F00102CA60CE
:1054C0000068016841F0010101600020704702217D
:1054D00080F83D1001680A6A41F211131A4207D19F
:1054E0000A6A9B101A4203D10A6822F001020A607C
:1054F000012180F83D10002070470168CA6822F041
:105500000102CA600068016A41F21112114207D11A
:10551000016A9210114203D1016821F0010101607A
:105520000020704790F83C20012A0DBF0220012383
:1055300080F83C30704730B4022280F83D20026889
:10554000D2F808C02CF0770C2CF4803C2CF47F4C63
:10555000C2F808C00A68502A47D00CDC202A7DD047
:1055600004DC002A7BD0102A7AD0B7E0302A78D029
:10557000402A78D0B2E0602A54D0702A0DD0B2F51B
:10558000805F03D0B2F5005F1DD0A7E001688A6894
:1055900022F0070222F4803242E00268D1F804C00F
:1055A0008C68C96895684CEA012125F47F45214340
:1055B0002943916001688A6822F0770222F48032E0
:1055C00042F077022CE00268D1F804C08C68C96808
:1055D00095684CEA012125F47F45214329439160D8
:1055E00001688A6842F480421AE00268D1F804C077
:1055F000C968146A156A25F001051562956924F0D9
:105600000A0425F0F00545EA011144EA0C0C916109
:10561000C2F820C001688A6822F0700242F0570286
:105620008A605BE00268D1F804C0CC68116A21F09E
:10563000100111629569116A25F4704545EA043438
:1056400021F0A00141EA0C119461116201688A689D
:1056500022F0700242F067028A603FE02FE01EE015
:1056600025E034E0FFE70268D1F804C0CC68116A95
:10567000156A25F001051562956921F00A0125F0EA
:10568000F00545EA041441EA0C01946111620168D5
:105690008A6822F0700242F047028A601EE00168C8
:1056A0008A6822F0700242F007028A6016E0016800
:1056B0008A6822F0700242F017028A600EE00168E8
:1056C0008A6822F0700242F027028A6006E00168D0
:1056D0008A6822F0700242F037028A6080F83D301A
:1056E000002180F83C1030BC0846704790F83C30F0
:1056F000012B04BF022070472DE9F0034FF0010C8D
:1057000080F83CC0022380F83D30F024002A36D0D7
:105710002302042A7DD0082A026879D0D1E90065E5
:10572000CC68176A27F480571762D2F81C80176A72
:1057300028F4407848EA052503EA043325F4704547
:105740002B434FF4204527F4204405EA06352C432B
:10575000D36114620268D36923F44063D3610268A1
:10576000D369896843EA0121C2F81C1080F83DC062
:10577000002180F83C10BDE8F0030846704702683D
:10578000D1E90068CD68136A23F0010313629369BD
:10579000176AA2F18049B9F5963918BFB2F1804F66
:1057A0001BD0A2F18049B9F580691CBFA2F18049E4
:1057B000B9F5006911D0A2F18049B9F59A391CBF39
:1057C000A2F18049B9F5A03907D0A2F18049B9F515
:1057D000A83918BF43F0010303D123F0030343EAC0
:1057E000080304EA051423F0F003234327F00A0416
:1057F00006F00A052C43936114620268936923F052
:105800000C039361026893698968194327E000E0FB
:1058100027E00268D1E90065CC68176A27F0100715
:105820001762D2F81880176A28F4407848EA0525EC
:1058300003EA043325F470452B43A02527F0A00488
:1058400005EA06152C43936114620268936923F4F8
:105850004063936102689369896843EA0121916119
:1058600084E7D1E90063CD68176A27F4807717626F
:10587000D769D2F8208027F0030704EA05143B43D8
:1058800023F0F00323434FF4206528F4206405EA55
:1058900006252C43D36114620268D36923F00C03FC
:1058A000D3610268D369896819435DE7002804BFA2
:1058B0000120704710B5044690F83D0028B900203B
:1058C00084F83C00204600F00CF8022084F83D00EB
:1058D000211D206801F02EFC012084F83D000020ED
:1058E00010BD70472DE9F05F044690F83C00012898
:1058F0000DBF0220012584F83C50BDE8F09F022036
:1059000084F83D000C2A1ED008DCA2B1042A16D06F
:10591000082A04BF206802F081F97FE04348444B25
:10592000DFF810C1444E454FDFF81481102A0ED025
:10593000142A3FD072E0206802F0C6F86EE02068BA
:1059400002F01CF96AE0206802F0B8F966E022680B
:10595000D2F8209029F48039C2F82090D2F820A003
:10596000D2F80490D2F854B0D1F800E02BF0700BCC
:105970002BF4803B4EEA0B0BB1F808E02AF4003A16
:105980004AEA0E4A824218BF9A4207D0624518BFBF
:10599000B24203D0BA4218BF424504D14B6929F440
:1059A000803040EA0329C2F80490C2F854B0486835
:1059B000906531E02268D2F8209029F48019C2F86D
:1059C0002090D2F820A0D2F80490D2F854B0D1F8A8
:1059D00000E02BF4E04B2BF0807B4BEA0E2BB1F870
:1059E00008E02AF4001A4AEA0E5A824218BF9A4284
:1059F00007D0624518BFB24203D0BA4218BF424531
:105A000004D14B6929F4802040EA8329C2F804902C
:105A1000C2F854B04868D065C2F820A084F83D5060
:105A20004FF0000084F83C00BDE8F09F002C0140DE
:105A30000034014000400140004401400048014062
:105A400000500140002804BF0120704710B50446F3
:105A500090F83D0028B9002084F83C00204600F072
:105A60000CF8022084F83D00211D206801F062FB43
:105A7000012084F83D00002010BD7047002804BFBD
:105A80000120704770B5044690F83D000D4628B9D6
:105A9000002084F83C00204600F015F8022084F82D
:105AA0003D00211D206801F045FB2068016821F0C0
:105AB000080101602068016829430160012084F821
:105AC0003D00002070BD70472DE9F05F044690F85E
:105AD0003C000D4601280DBF0220012684F83C60E1
