:020000040800F2
:10000000E8F90020590200086102000863020008B4
:10001000650200086702000869020008000000008D
:10002000000000000000000000000000A90100081E
:100030006D02000800000000ED010008A545000861
:1000400073020008730200087302000873020008BC
:1000500073020008730200087302000873020008AC
:10006000730200087302000873020008730200089C
:10007000730200087302000873020008730200088C
:10008000730200087302000873020008730200087C
:10009000730200087302000873020008730200086C
:1000A000730200087302000873020008730200085C
:1000B000730200087302000873020008730200084C
:1000C000730200087302000873020008730200083C
:1000D0007302000873020008BD4C00087302000898
:1000E000730200087302000873020008730200081C
:1000F000730200087302000873020008730200080C
:1001000073020008000000000000000073020008F5
:1001100073020008730200087302000873020008EB
:1001200073020008730200087302000873020008DB
:1001300073020008730200080000000000000000C5
:100140007302000873020008730200080000000038
:10015000000000000000000000000000000000009F
:10016000730200087302000873020008730200089B
:10017000730200087302000873020008730200088B
:100180007302000873020008000000000000000075
:1001900073020008DFF80CD000F0F0FA00480047C6
:1001A000B5620008E8F90020234B19680868B0E838
:1001B000F04F80F309884FF0000080F311887047FA
:1001C0000000000003480068006880F3088862B6F9
:1001D00000DF00BF08ED00E0DFF80C00016841F42B
:1001E00070010160704700BF88ED00E0EFF3098007
:1001F000114B1A681EF0100F08BF20ED108A20E97D
:10020000F04F106008B44FF0500080F3118807F0F1
:1002100039FD4FF0000080F3118808BC19680868A8
:10022000B0E8F04F1EF0100F08BFB0EC108A80F35A
:100230000988704700BF00BF90000020EFF31180D5
:100240004FF0500181F31188704780F31188704797
:10025000EFF30580704700000648804706480047D6
:10026000FEE7FEE7FEE7FEE7FEE7FEE7FEE7FEE766
:10027000FEE7FEE7314600089501000840EA010369
:100280009B0703D009E008C9121F08C0042AFAD24C
:1002900003E011F8013B00F8013B521EF9D2704710
:1002A000D2B201E000F8012B491EFBD270470022B8
:1002B000F6E710B513460A4604461946FFF7F0FF65
:1002C000204610BD0EB540F2334102910021CDE928
:1002D00000110A460B4600F03AF803B000BDC1F326
:1002E0000A5210B5C1F3130140F2FF3341F48011FB
:1002F0009A4201DA002010BD40F233439A42A2F242
:10030000334203DC524200F003F810BD904010BDB0
:10031000202A04DB203A21FA02F00021704721FA5A
:1003200002F3D040C2F120029140084319467047C1
:1003300010B5141E73F1000408DA401C41F10001ED
:1003400092185B411A4301D120F0010010BD2DE944
:10035000F04D92469B4611B1B1FA81F202E0B0FA3B
:1003600080F22032904600F01BFA04460F4640EA25
:100370000A0041EA0B0153465A46084313D011467E
:1003800053EA010019D0C8F140025046FFF7C0FF00
:1003900005460E4650465946424600F001FA0843CB
:1003A00005D0012004E020463946BDE8F08D00204C
:1003B000054346EAE0762C4337430A986305E40A8E
:1003C000A0EB08000022FD0A44EA47540A3002D597
:1003D00000200146E9E7010510196941DDE90845FA
:1003E00000196941BDE8F04DA2E72DE9FE4F8046B6
:1003F00081EA0300C00F0C46009021F0004123F079
:100400000045B8EB0200A94105D24046214690467E
:100410001C460B46024623F00040104347D0270DF0
:10042000C7F30A00C3F30A510290401A0190402812
:100430006BDAC3F3130040F4801B0098924620B19E
:100440000023D2EB030A63EB0B0B01985946C0F172
:100450004002504600F0A4F906460D465046594663
:10046000019A00F0ACF910EB08006141002487EA22
:10047000115284EAE7731A4340D0009A62B3019A9A
:10048000012A4FEA075215DC001B61EB02014FF015
:10049000004202EA0752CDE90042001C41F58011FA
:1004A00032462B46FFF753FF03B0BDE8F08F4046BE
:1004B0002146F9E7001B61EB0201001C41F58013A6
:1004C00000185B412018A2F5001747EB030140EA32
:1004D000D570B6196D4111E06D084FEA360645EA50
:1004E000C0754FEA0752001B61EB0201001C41F589
:1004F000801149084FEA30000019514132462B461D
:1005000003B0BDE8F04FFFF713BF00980122400091
:100510000023D0EB020263EBE073009821464FEA20
:10052000E074B8EB000061EB0401E9E783F00043FD
:100530005BE781F0004158E72DE9FE4F81EA0304B3
:1005400004F0004421F0004100944FF0000B23F030
:10055000004350EA01045ED052EA03045BD0C3F3C7
:100560000A54C1F30A552C44A4F2F3340194A0FBBD
:100570000254C1F3130141F48011C3F3130343F494
:10058000801301FB024400FB034E840A970A44EAED
:10059000815447EA8357A4FB076802958D0A05FB3F
:1005A00007854FEA932C04FB0C542705029D4FEA64
:1005B000065847EA1637B5EB08056EEB070C870EB1
:1005C000920E47EA811742EA8312A7FB0201B6EBBB
:1005D0000B0164EB00042B0D43EA0C335E1844EB73
:1005E0001C50DA465146E7FB0201C5F313044FEAFB
:1005F0000B3343EA14534FEA0432019C43EA0603E7
:10060000A4F10C040294009CCDE900B4FFF79FFE16
:1006100003B0BDE8F08F00200146F9E72DE9F04D69
:1006200081EA030404F0004B21F0004514464FF02A
:10063000000A23F0004150EA050220D054EA0102EA
:100640001DD0C5F30A570246C5F31303C1F31300C7
:10065000C1F30A5640F4801543F48013A7EB060853
:10066000101BD64608F2FD3873EB050002D308F1E3
:10067000010801E092185B41B8F1000F03DA002095
:100680000146BDE8F08D00204FF4801106468446F7
:100690000EE0171B73EB050705D3121B63EB050375
:1006A00006434CEA010C49084FEA300092185B41BE
:1006B00050EA0107EDD152EA030012D082EA0400A9
:1006C00083EA0501084305D0101BAB4106D2012285
:1006D000002306E000224FF0004302E06FF0010229
:1006E00053101AEB06004CEB085110EB0A0041EBDB
:1006F0000B01BDE8F04DFFF71BBE70B521F00043C4
:1007000003430CD0C1F30A550024D5EB040564EB78
:100710000403D617AD1AB34102DB0020014670BDB9
:10072000201841EB025170BD0EB5C10F80EAE07098
:100730000844CA07002140F233438DE80E000A4600
:100740000B46FFF704FE03B000BD000030B5041EE9
:1007500071F1000404DB4FF00044404264EB0101FE
:10076000141E73F1000405DB1C464FF00043524297
:1007700063EB0403994208BF904230BD064C074D1D
:1007800006E0E06840F0010394E807009847103461
:10079000AC42F6D3FFF702FDB88C0008D88C0008F5
:1007A000202A04DB203A00FA02F100207047914031
:1007B000C2F1200320FA03F3194390407047202A26
:1007C00006DBCB17203A41FA02F043EAE07306E079
:1007D00041FA02F3D040C2F1200291400843194689
:1007E00070472DE9F04D00231A461B1A8A4103DB9E
:1007F00000200146BDE8F08DC1F30A52C1F3130198
:1008000041F480154FF0000BD10702D100186D4163
:10081000521E0027044640F2FF11384601EB620ADF
:100820003E468046024600204FF48011FFF770FDDF
:10083000C2197141BB1846EB0100B4EB030C75EB18
:10084000000C04D3E41A65EB000517460E46241984
:1008500008F101006D4180463428E3DDF91946EBCB
:100860000600091BA84103D24FF0FF32134601E0F6
:10087000002213461BEB070046EB0A51BDE8F04D82
:10088000FFF756BD70B58C1810F8015B15F0070323
:1008900001D110F8013B2A1106D110F8012B03E019
:1008A00010F8016B01F8016B5B1EF9D12B0705D421
:1008B0000023521E0DD401F8013BFAE710F8013B6A
:1008C000CB1A921C03E013F8015B01F8015B521E86
:1008D000F9D5A142D8D3002070BD000070B5044600
:1008E00000202268936813F00C0F5ED0D36813F0D9
:1008F000007F05D0E369012B04BFA369012B0BD056
:10090000602922D02068826812F0040F1BD0826810
:1009100012F0020F13D016E013680C2113F0400FF1
:1009200008BF234B08D101E0984230D2D2F800C072
:10093000401C1CF0400FF7D040201060E2E78268B6
:1009400042F0100282600C2914D02068826812F0F4
:10095000080F07D0826812F0020F03D1826842F0BC
:1009600020028260602908BF082504D06C2908BFD6
:100970000C2500D0042502F041F906462068806865
:10098000284212D002F03AF9801B0B2809D9606C7A
:1009900040F010006064A06C40F00100A0640120F1
:1009A00070BD206880682842ECD1002070BD000036
:1009B000009409000246406A416C11F0500F03D0C8
:1009C000C06B016B10460847416C41F400714164F3
:1009D0000168C96811F4406F04BFC16900290BD1D7
:1009E000416C21F480714164416C11F4805F03D14A
:1009F000416C41F00101416401F0F4B8406A416C7E
:100A000041F040014164816C41F00401816401F0D6
:100A1000D5B9406A01F0E7B870B52C4C96B01546D0
:100A20000E4630B1012812D0022821D0032830D040
:100A30003FE0442225496846FFF720FC606C119096
:100A4000A06C1290E06C216D1390149131E044225F
:100A50001F496846FFF712FC1D48416C1191806CDC
:100A60001290D4F8A000D4F8A4101390149120E0B0
:100A7000442218496846FFF701FC1648416C119161
:100A8000806C1290D4F8F400D4F8F81013901491FC
:100A90000FE0442210496846FFF7F0FB0E48416C16
:100AA0001191806C1290D4F84801D4F84C11139035
:100AB0001491002E12BF002D16B070BD2A4631468B
:100AC000684601F02FFC16B070BD0000FC0200204B
:100AD00050030020A4030020F803002010B50F48A5
:100AE00001F0CAFC0E4801F0C7FC0E4801F0C4FC3E
:100AF0000D4801F0C1FC0021084800F045FE00212E
:100B0000074800F041FE0021064800F03DFEBDE828
:100B100010400021044800F037BE0000FC02002015
:100B200050030020A4030020F803002070B5044601
:100B30000068816801F0030101292BD1016811F0DF
:100B4000010F27D0816801F00D01012913D18168BF
:100B500041F00201816021680320086002F04EF834
:100B600005462068806810F0010F13D002F046F8A7
:100B7000401B022809D9606C40F010006064A06C32
:100B800040F00100A064012070BD2068806810F072
:100B9000010FEBD1002070BD70B50446006881687C
:100BA00001F00301012903D1016811F0010F23D1E4
:100BB00081686FF39E1181B9816841F00101816004
:100BC00002F01CF805462068006810F0010F13D1F0
:100BD00002F014F8401B022809D9606C40F01000A4
:100BE0006064A06C40F00100A064012070BD20682A
:100BF000006810F0010FEBD0002070BD70B5214CE3
:100C00000646A068002808BF0C250AD0082808BF9F
:100C10000A2506D0102808BF082502D0182808BFCA
:100C2000062502F037FBB0FBF6F0401B401EB0F586
:100C3000167F88BF072017D8B52828BF062013D2F3
:100C40003D2828BF05200FD2132828BF04200BD22F
:100C5000072828BF032007D2042828BF022003D278
:100C600002282CBF01200020E060074801F004FCAE
:100C700003F048F803F07EF803F0B4F8BDE87040E4
:100C800003F0E8B804000020FC02002010B50021A9
:100C9000084800F079FD0021074800F075FD0021AB
:100CA000064800F071FDBDE810400021044800F046
:100CB0006BBD0000FC02002050030020A4030020B4
:100CC000F80300208AB000221421052007F0B0F8B4
:100CD000654DDFF89881DFF89891DFF898B1DFF87B
:100CE00098A1664E664F674C286000235A1E01A9E2
:100CF000286807F0DAF89DF804003128F5D100BF24
:100D00009DF819008DF818009DF81A008DF819004B
:100D10009DF81B008DF81A009DF800008DF81B004F
:100D2000684604F09DFF0028DFD19DF800003A28B6
:100D300018BF3B28E4D19DF81800DDF8191040EAEF
:100D40000120A0EB080140457DD013DC10EB090029
:100D50003AD010EB0B002FD04B49401837D04B49FD
:100D6000C84218D14C480A15002349A1006807F071
:100D7000C5F9BAE711EB0A0052D0A0F18371B1F5C1
:100D800021612CD04548C14205D105F07DFB00BF53
:100D900006F00AF8A9E7404800235A1E40A100685F
:100DA00007F0ACF9684604F05BFF00289DD19DF880
:100DB00000003B28F6D198E7374800235A1E3AA195
:100DC000006807F09BF990E706F0F8F88DE73248E5
:100DD00000235A1E36A1006807F090F985E7052127
:100DE00008A804F05DFF04280CD39DF82000DDF86E
:100DF000211040EA0120801909D0F84218BF0120D3
:100E0000C6D10BE0002818BF2E4807D0F5E72248CE
:100E100000235A1E2C49006807F070F92046B7E7F6
:100E2000052108A804F03CFF04280DD39DF82000FC
:100E3000DDF8211040EA012080190AD0F84218BFDD
:100E40000220A5D1EAE70CE0002818BF1D48E5D034
:100E5000F4E7114800235A1E1C49006807F04EF9B8
:100E6000DCE705F07BFC93E7EC0000204F53435098
:100E7000AEBAACDE090105E20C04F6FCBDB9B8C09F
:100E8000FEF702E0454E445FF3FEFBFF03FDF2FF79
:100E900043736869656C6400F00000200C1405F56C
:100EA0004539393900000000305F49444E000000E8
:100EB0003953656E645379737456657273696F6ED6
:100EC00000000000020C0B20906D00087064000808
:100ED00092B003F0E3F8FA49002401F500702246CD
:100EE00001604FF400718180C480048184721E21EE
:100EF000052006F09DFFF34D2860042006F070FFEA
:100F00006860F1A00DF1280C0FC88CE80F00F2A268
:100F1000D2E900109268CDE90E101092E94C00233E
:100F20005A1E02A9206806F0C0FF4FF0FF3160682A
:100F300007F0B4FA9DF8080030282ED031283BD0B5
:100F4000322808BF002000F0FD80332800F0138114
:100F5000342800F01D81352800F02D81422800F052
:100F60006681432800F00E82362800F0128237286E
:100F700008BFDCA000F01B81382808BFDBA000F010
:100F80001681392800F03D82492800F073824128FB
:100F90000CBFD8A002A800F00AB9D6A004F00BFF3D
:100FA000D6A004F008FF05F07FF900281CBFD8A0E8
:100FB00004F001FF00F059BA05F06AF9042840F086
:100FC000548205F053F9054605F05CF9044605F036
:100FD00011F9064600F0D2FB824606F00BF8010E2E
:100FE0008DF82C10010C8DF82D10010A8DF82E10A3
:100FF0008DF82F00082E14D905F050F9074605F09A
:1010000041F9804605F038F908FB00F0A7EB1040E5
:1010100005EB4000B0FBF5F105FB1100640000900A
:1010200011E005F03BF9074605F02CF9804605F084
:1010300023F908FB00F0A7EB10402844B0FBF5F1C2
:1010400005FB110000908DF83060200C8DF8310008
:10105000200A8DF8320000988DF8334020448DF836
:1010600037A0A84283BF00982F1AA4EB0708274691
:1010700098BF4FF000080024BAF1000F4ED9204667
:1010800005F0D8F8814604F1010B8DF836B0102137
:101090000AA804F07DFEB7F5804F19D900983C46A8
:1010A000002609EB000500BF05EB86304FF48041B8
:1010B00004F06EFE701CA4F58044C6B2B4F5804FF7
:1010C000F2D8002C1CBF05EB8630A1B204D105E09C
:1010D00027B10098B9B2484404F05AFEB8F5804FE1
:1010E00084BF4546002425D909EB84304FF4804164
:1010F00004F04EFE601CA5F58045C4B2B5F5804FE6
:10110000F2D8002D1CBFA9B209EB843002D000BF79
:1011100004F03EFE0BF0FF045445B0D381A004F070
:101120004AFE854800235A1E80A1006806F0E6FFAB
:1011300000F09BB9B8F1000F1CBF1FFA88F14846B8
:10114000E6D1E7E700F13101441C8DF83C10E0B234
:1011500004F096FE010C8DF84110010A8DF8421042
:101160008DF843000C210EA804F012FEE0B2022814
:10117000E8D300F07AB9714804F01DFE02F06CF873
:1011800004F024FE02F086F804F020FE6C480EE025
:101190006C4804F010FE4FF4007004F017FE4FF49A
:1011A000E13004F013FE684804F005FE674804F0DF
:1011B00002FE00F05AB9664804F0FDFD654804F0EF
:1011C00005FE4CF2503004F001FE042004F0FEFD58
:1011D00000208DF8000000BF10F0FF0008BF5E483F
:1011E0000BD0012808BF5D4807D0022808BF5C4823
:1011F00003D0032808BF5B4801D104F0DCFD9DF853
:101200000000401CC0B28DF800000428E4D340F672
:10121000E44004F0DBFD5448008804F0D7FD684644
:1012200005F0D8FE9DF8001004F0B2FD1DE14F4816
:1012300004F0C1FD022004F0A9FD042004F0A6FD85
:10124000022004F0A3FD012004F0A0FD484F494E08
:10125000002507F1240807F14C0907F15C0A46480C
:1012600004F0A9FD705D0024002805D81FE0002CC3
:101270001CBF424804F09FFD002D08BF57F8240012
:101280000ED0012D08BF58F8240009D0022D08BF48
:1012900059F8240004D0032D08BF5AF8240001D1C6
:1012A00004F089FD601CC4B2705DA042DFD8681CE8
:1012B000C5B2042DD3D3304804F07DFD304876E725
:1012C000BC260020F00000204F53435F79797979E4
:1012D000787878784348307847454E5F7843485F60
:1012E00046787878475F4E5800000000475F4F4BC4
:1012F0000000000041434B5F0000000053544D3399
:1013000032463330332D4E75636C656F000000003C
:10131000202B20536869656C64204C454F20563063
:101320002E310000535F4F4B0000000032446174C7
:101330006153656E740000008C010020E0770008A6
:10134000E877000880750008887500089075000827
:10135000A876000800093D00B4760008BC760008B5
:10136000C4760008CC760008BAF7FF1F747700082F
:10137000F8000020408B0008847700088877000878
:101380008C77000804F090FF002814BF3E483F48C7
:101390000DE73F4804F00FFD3E4804F017FD4FF401
:1013A000FA6004F013FD0C2004F010FD022004F09C
:1013B0000DFD002405E024B1012C08BF364801D002
:1013C00002E0364804F0F7FC601CC4B2022CF2D3F1
:1013D00004F06AFF28B1324804F0DCFC41F21D3011
:1013E00004E0002004F0F2FC40F6E44004F0EEFCDF
:1013F00040F6E44004F0EAFC4FF4966004F0E6FCAA
:1014000033E0284804F0D7FC274804F0D4FC2748F0
:1014100004F0D1FC264804F0CEFC264804F0CBFCB6
:10142000254804F0C8FC254804F0C5FC562004F00B
:10143000ADFC01F0DFFB302404EB1060C0B204F01F
:10144000A5FC2E2004F0A2FC01F0D4FB04EB10401C
:10145000C0B204F09BFC2E2004F098FC01F0CAFB03
:1014600004EB1020C0B204F091FC1548406806F06F
:10147000FBFF53E5124800235A1E02A9006806F03C
:1014800014FD02A893E60000AC770008B4770008CA
:101490000C76000880841E0020760008187600086C
:1014A000D9ECFFFF647800086C7800087C780008AD
:1014B000847800088C78000898780008A0780008E4
:1014C000F000002001490020086070470000002063
:1014D00001490220086070470000002010B5446AEE
:1014E000204601F02CF80120207110BD10B5446A8F
:1014F000204600F0FAFF0120207110BD10B5446AAB
:10150000206940F004002061204601F01AF8012013
:10151000207110BD10B5446A206940F004002061BC
:10152000204600F0E4FF0120207110BD406A01F068
:1015300007B810B5406A00F0D9FF10BDF8B51546E0
:101540000E46002410B1012808BF10242146064889
:1015500001F0FCF8002000902B463246214602485C
:1015600001F06CF8F8BD00006002002010B5284CB6
:1015700096B0012806D0022812D0032821D00428D2
:1015800030D03FE0442222496846FEF777FE606C87
:101590001190A06C1290E06C216D1390149131E0C9
:1015A00044221C496846FEF769FE1A48416C1191B5
:1015B000806C1290D4F8A000D4F8A4101390149169
:1015C00020E0442214496846FEF758FE1248416C58
:1015D0001191806C1290D4F8F400D4F8F8101390A4
:1015E00014910FE044220D496846FEF747FE0B4870
:1015F000416C1191806C1290D4F84801D4F84C11D0
:10160000139014910F980068406816B080B210BD16
:10161000FC02002050030020A4030020F803002057
:1016200000B585B003F038F80021094801F082F8D0
:101630001021074801F07EF8302000900020019032
:10164000029069464FF0904001F0B2F905B000BD3C
:101650006002002000B5154985B0134808600846AF
:1016600000F070FF042000901148002269460068D5
:1016700001900E4800F03CFF1420009010226946B3
:101680000A4800F035FF3020009003200190002030
:10169000029069464FF0904001F08AF905B05DF87C
:1016A00004EB03F007B80000007400406002002063
:1016B0000000002086B000221421052006F0B8FBAF
:1016C0002C4F2D49A1F12C04386021604FF47A7021
:1016D0006060E060A06020614FF0010884F8158030
:1016E00060622084A1614FF0000984F814900C20FE
:1016F000208500235A1E6946386806F0D6FB9DF8FF
:101700000000312818BF3228F3D0332808BF207DCD
:10171000EFD0342809D0352804BF207D0128E8D136
:10172000FFF77EFF84F81490E3E7207D002808BFD0
:101730000025DED104EB850670680022294603F0FF
:101740008DF8607DA84207D904EB4500028CB16991
:101750002846FFF7F3FE04E0002211462846FFF773
:10176000EDFE681CC5B2022DE4D3FFF773FF84F8C9
:101770001480BEE79801002018EE0020014890F880
:1017800021007047A8ED00202DE9F041044690F8B3
:1017900040000D46012804BF0220BDE8F0814FF053
:1017A000010884F840802046FFF7C0F906004FF09A
:1017B000000718BF012604D084F840703046BDE809
:1017C000F081C4F844802068816821F08041816004
:1017D000012D04D12068816841F08041816020683A
:1017E000816841F00041816001F008FA05462068F7
:1017F000806810F0004F14D001F000FA401B0A2856
:101800000AD9606C20F0020040F01000606484F897
:1018100040700120BDE8F0812068806810F0004F22
:10182000EAD1606C20F0020040F001006064C3E780
:101830002DE9F00198B04FF0000CCDF808C090F8F9
:1018400040206446012A01BF022018B0BDE8F00123
:101850007047012780F840700268936813F0040F06
:1018600040F05D814B681F25052B0CD2166B03EBF6
:1018700043035B009D4026EA05050E6806FA03F364
:101880002B4313632CE00A2B0DD2566B5B1F03EB2B
:1018900043035B009D4026EA05050E6806FA03F344
:1018A0002B4353631CE00F2B0DD2966B0A3B03EBCB
:1018B00043035B009D4026EA05050E6806FA03F324
:1018C0002B4393630CE0D66B0F3B03EB43035B00AE
:1018D0009D4026EA05050E6806FA03F32B43D36301
:1018E000026893684FF0070513F00C0F64D10B6882
:1018F0000A2B0ED396690A3B03EB430305FA03F860
:1019000026EA0806D1F8088008FA03F33343936106
:101910000CE0566903EB430305FA03F826EA0806D0
:10192000D1F8088008FA03F33343536102684B6926
:10193000D668D1F81080C6F3C1067600B340A14E38
:10194000B8F1010F3FD0B8F1020F49D0B8F1030F41
:1019500053D0B8F1040F5DD0136E0E7803F0F84346
:10196000B3EB866F03D1136E23F000431366026856
:10197000536E0E7803F0F843B3EB866F03D1536ECA
:1019800023F0004353660268936E0E7803F0F84329
:10199000B3EB866F03D1936E23F000439366026826
:1019A000D36E0E7803F0F843B3EB866F04BFD36EAB
:1019B00023F0004300D1D3660268936803F0030369
:1019C000012B37D132E0D2F8608008EA060691F8A0
:1019D000008043EA8863334343F000431366EBE738
:1019E000D2F8648008EA060691F8008043EA88632A
:1019F000334343F000435366DEE7D2F8688008EAD9
:101A0000060691F8008043EA8863334343F00043BD
:101A10009366D1E7D2F86C8008EA060691F8008058
:101A200043EA8863334343F00043C4E7136813F089
:101A3000010F7AD1CB68012BD2F8B03006D00D78E7
:101A400007FA05F5AB43C2F8B03022E00E7807FA8A
:101A500006F63343C2F8B0300A6803680A2A0CD38A
:101A60009E69093A02EB4202954026EA05058E6816
:101A700006FA02F22A439A610BE05E69521C02EBFD
:101A80004202954026EA05058E6806FA02F22A43CC
:101A90005A6103684C4DB3F1A04F16BFAB424B4A9D
:101AA0004B4A0968102908D011290BD0122904BF0C
:101AB000966816F4800F09D037E0966816F4000F88
:101AC00033D103E0966816F0807F2ED1B3F1A04F9A
:101AD0000FD0AB4204BF4FF0A04503950AD03D4D57
:101AE0003D4EAB4208BF039604D0B34218BF0394E7
:101AF00000D103959D6805F00305012D03D11D68F4
:101B000015F0010F0BD1039DB5B1AD6805F00305CC
:101B1000012D11D1039D2D6815F0010F0CD0416CE2
:101B200041F0200141644FF0010C80F8404018B0B2
:101B30006046BDE8F0017047102909D0112933D063
:101B4000122904BF916841F48001EED19160ECE765
:101B5000B3F1A04FE9D1916841F4000191601F49B0
:101B60001F4A0968B1FBF2F101EB810149000291C2
:101B70000091DAD0B1F1004F1ED20029D8BF002168
:101B800005DD11F0010102D0029A521E0292009A64
:101B9000491C521C9142C8DA029B891C5B1E5B1EC9
:101BA00002939142F8DBC0E7B3F1A04F04BF916804
:101BB00041F08071B9D1C9E70299491E0291FCD167
:101BC000B3E7000000F0FF83000100500003005065
:101BD000000700500004005000050050880000205D
:101BE00040420F0070477047002804BF0120704733
:101BF00070B50446406C96B040F0020060646C2101
:101C00002046FEF76BFE05004FF0000640F0BC805A
:101C10002068C16841F40011C1602046FEF786FFCC
:101C2000050018BF012540F0AF80012060642068E6
:101C300041686FF30A014160216840F2FF7008605B
:101C40002068816821F0E04181602068816841F06E
:101C5000005181602068C1684E4A1140C16020680F
:101C600041696FF3DD0141612068816901F07841CC
:101C700081612068016A01F0F02101622068416AF7
:101C800001F0FF2141622068816A01F0FF21816239
:101C90002068016B404A114001632068426B3F4954
:101CA0000A4042632068826B114081632068C16BE7
:101CB00021F0DF0121F4E061C16321680A6E384838
:101CC00002400A6621684A6E02404A6621688A6EAE
:101CD00002408A662168CA6E1040C8662068D0F843
:101CE000A0106FF31201C0F8A0102068D0F8A41063
:101CF0006FF31201C0F8A4102068D0F8B0106FF391
:101D00001201C0F8B0102068D0F8B41021F07F1193
:101D1000C0F8B4102068234AB0F1A04F1ABF904217
:101D200021492249B0F1A04F0FD0904204BF4FF09B
:101D3000A04200920AD01E4A1E4B904208BF009358
:101D400004D0984218BF009600D10092826802F039
:101D50000302012A03D1006810F0010F0FD100988F
:101D600048B1806800F00300012804D100980068A1
:101D700010F0010F03D188680F4A10408860204698
:101D800000F086F9A664666484F8406016B02846C0
:101D900070BD000004800080300882E0200882E0EE
:101DA00000F0FF0300010050000700500003005046
:101DB0000004005000050050E0103CFE7047000099
:101DC00070B598B04FF0000604003546029602BF89
:101DD000012018B070BD606C10F0100F62D1606C03
:101DE00000284BD1A5642565E56484F84050204661
:101DF00000F050F92068806810F0805F3ED12046E6
:101E0000FEF794FE0646606C00F0100151EA0600F1
:101E100034D1606C20F4885040F002006064206887
:101E2000816821F0405181602068816841F08051D3
:101E300081608E488E490068B0FBF1F000EB8000B5
:101E400040000290009019D0B0F1004F80F008815E
:101E50000028D8BF002005DD10F0010002D0029953
:101E6000491E02910099401C491C884206DA029AD8
:101E7000801C521E521E02928842F8DB2068816844
:101E800011F0805F03D0806810F0005F0AD0606CB2
:101E900020F0020040F010006064A06C40F00100EF
:101EA000A0640126606C00F01000304304D120686B
:101EB000816811F0040F09D0606C20F0020040F03E
:101EC00010006064012618B0304670BD616C21F4CA
:101ED000807141F002016164DFF898C1B0F1A04F58
:101EE0001ABF604564496549654B664AB0F1A04F29
:101EF00008BFCDF808C00ED0604504BF4FF0A04C1D
:101F0000CDF808C007D0904208BF029303D0984292
:101F10000CBF02920295D0F808C00CF0030CBCF183
:101F2000010F03D1006810F0010F13D1029848B1DE
:101F3000806800F00300012804D10298006810F0C6
:101F4000010F07D18868D4F804C020F4403040EA7B
:101F50000C008860D4E902100143A06B012814BF73
:101F60004FF4805C4FF0000CE0694CEA403C41EAE1
:101F70000C01D4F824C0BCF1010F0AD1E8B3606CA5
:101F800020F0020040F020006064A06C40F00100EE
:101F9000A064E06A01282DD0D4F800C094451CBF8D
:101FA0009C4520F4805022D1B0F5307F08BF4FF41B
:101FB000E0701CD0B0F5807F08BF4FF4307016D0B1
:101FC000B0F5E07F08BF4FF4807010D0B0F58A5FA5
:101FD00008BF4FF470700AD0B0F5845F08BF4FF4AB
:101FE000A07004D0B0F5865F08BF4FF4C0700843FE
:101FF000216B01432068826800E003E012F00C0FBF
:1020000015D108E0208DDFF880C00CEB404008437C
:1020100040F48031BDE7C26822F0020222F480421F
:10202000C260A069626B800340EA420001432068FD
:10203000C268164B1A401143C1602069012820680C
:10204000016B21F00F0102D1226A521E114301637C
:10205000A564606C20F0020040F00100606432E78B
:102060000298401E0290FCD108E700008800002082
:1020700040420F00000100500007005000030050D4
:1020800000050050000400500000FEFF07C0F0FFF4
:10209000704700002DE9F04F91490446A1F1100668
:1020A000D0F800C033688D480322802700255B1CD0
:1020B00087B04FF480684FF480794FF0200ABCF16C
:1020C000A04F1AD0ACF1A04BBBF5807B11D0A1F191
:1020D00010035B685B1CBBF5407B7DD0BBF5807B50
:1020E0001CBF07B0BDE8F08F7360012B40F0C980C2
:1020F000B9E03360012B4BD13CE03360012B0DD1B3
:10210000436943F080534361436903F0805305936F
:10211000C36A23F4F87343F48073C3620878714987
:1021200031F81010CDE900126F49029551F82000E6
:10213000694600F03DFCDFF8B8B16C48CBE900051A
:10214000CBE90257B068102813BF1828CBF81450F9
:10215000CBF81050CBE904984FF40050CBE906A01F
:10216000634800F079FBC4F83CB0CBF8244007B0DA
:10217000BDE8F08F436943F080534361436903F046
:1021800080530593C36A23F4F87343F48073C362E6
:102190004878584931F81010CDE900125649029597
:1021A00051F82000694600F003FCDFF854B15348B1
:1021B000CBE90005CBE90257B068102813BF1828F7
:1021C000CBF81450CBF81050CBE904984FF40050E2
:1021D000CBE906A04A4800E008E000F03DFBC4F867
:1021E0003CB0CBF8244007B0BDE8F08F7360012B02
:1021F0000DD1436943F000534361436903F0005339
:102200000593C36A23F4785343F40053C362887878
:102210003C4931F81010CDE900123B49029551F8C4
:102220002000694600F0C4FBDFF8E4B03748CBE992
:102230000005CBE90257B068102813BF1828CBF867
:102240001450CBF81050CBE904984FF40050CBE970
:1022500006A02F4800F000FBC4F83CB0CBF82440A7
:1022600007B0BDE8F08F436943F000534361436911
:1022700003F000530593C36A23F4785343F40053E7
:10228000C362C878234931F81010CDE90012224901
:10229000029551F82000694600F08AFBDFF880B013
:1022A0001E48CBE90005CBE90257B068102813BFE0
:1022B0001828CBF81450CBF81050CBE904984FF401
:1022C0000050CBE906A0164800F0C6FAC4F83CB0AE
:1022D000CBF8244007B0BDE8F08F000000100240AA
:1022E00014000020748A0008180000200800024032
:1022F0004C040020AC8A00083C0000200804024086
:1023000090040020648A0008640000205804024001
:10231000D40400206C8A0008740000201C040240D1
:10232000180500202DE9F05F044600688B469246B0
:10233000816811F0040F18BF022502D02846BDE8BD
:10234000F09F94F84010012904BF0220BDE8F09FDF
:102350000121DFF80C91434F84F840104FF0A04862
:10236000B0F1A04F16BFB842D8F80803D9F8000062
:1023700010F01F0F4FF000061CBF012584F84060CD
:10238000DCD12046FEF708FC050018BF84F8406049
:10239000D4D1606C20F0010020F4606040F48070C3
:1023A00060642068B0F1A04F1ABFB842D9F800109D
:1023B000D8F8081311F01F0F1EBFB0F1A04FA0F105
:1023C000A041B1F5806142D0616C41F4801161643B
:1023D000B8420EBFD8F80C002348006810F0007F08
:1023E00005D0606C20F4005040F480506064606C54
:1023F00010F4805F08BFA66403D0A06C20F0060034
:10240000A06484F84060E16B18488862E16B18486A
:10241000C862E16B1748086321681C2008602068C7
:10242000416841F0100141602068C16841F001013C
:10243000C1602068534600F140015A46E06B00F04D
:1024400061FA2068816841F00401816076E7616C7F
:1024500021F480116164C06810F0007FC1D1C6E72B
:1024600008070050000100500C040050B509000896
:10247000130A0008FD09000870B5044690F84000F2
:10248000012804BF022070BD012084F840006C21A7
:102490002046FEF723FA050022D12068C16821F00A
:1024A0000101C160E06B00F078F9051E03D0606C9B
:1024B00040F0400060642068416821F010014160F4
:1024C000204604D1FEF732FB050009D102E0FEF7F9
:1024D0002DFB05E0606C20F4885040F00100606442
:1024E000002084F84000284670BD70477047704750
:1024F0004379012B04BF0220704730B44FF0010C28
:1025000080F805C00223037103681C6840F6FE755D
:102510009540AC43D1E900512943914021431960D2
:1025200001680B68C02404FA02F223EA02020A607E
:1025300080F804C00021417130BC084670477047E4
:1025400070477047002804BF0120704770B50446EB
:102550000079002518B96571204600F007F80220BF
:102560002071256101202071002070BD2DE9F04F00
:102570000546006887B0A0F18041B1F5E8411CBF75
:1025800007B0BDE8F08F2848C16941F00051C16132
:10259000C069002600F00050059030200090032014
:1025A000CDE9010669464FF0904000F001FA204C59
:1025B0004FF480791D481027C4F81090C4E9000733
:1025C0004FF4806A2020C4E905A00002E0614FF0CA
:1025D0008008C4E90268204600F03EF9DFF854B0F4
:1025E000AC606562DBF8000040F40050CBF80000FE
:1025F00044341148C4F81090C4E900072020C4E90D
:1026000005A00002E061C4E90268204600F024F958
:10261000EC606562DBF8000040F48040CBF800001D
:1026200007B0BDE8F08F000000100240300002400B
:102630007402002000000140440002402DE9F041F6
:1026400004460D469446617900220698012904BF8C
:102650000220BDE8F0810126667102212171002D62
:1026600032D0E7682D49B962E7682D49F962E76819
:102670002C49396321680F6847F080570F600028A4
:1026800004BF206800F114020AD0042804BF2068A7
:1026900000F1180204D0082804BF206800F11C02D1
:1026A0002068016841F0005101606146E06800F077
:1026B00029F9002060712068016806FA05F21143CB
:1026C00001600020BDE8F081A7681749B962A768DA
:1026D0001649F962A7681649396321680F6847F4FB
:1026E00080570F60002804BF206800F108020AD05C
:1026F000042804BF206800F10C0204D0082804BF9D
:10270000206800F110022068016841F40051016066
:102710006146A06800F0F6F8CBE70000ED14000871
:102720003315000815150008DD1400082D150008E4
:10273000FD1400080368D3F800C0012202FA01F179
:102740002CEA0101196002710020704770B504463F
:10275000006802684FF480538B409A4302602068FF
:102760000268012505FA01F39A43026069B1E06845
:1027700000F013F821680A6822F000520A6000286D
:102780001ABF04212171257170BDA06800F005F801
:1027900021680A6822F40052F0E701680A6822F012
:1027A0000E020A6001680A6822F001020A6090F8CD
:1027B0004020C36B012101FA02F25A6080F8211017
:1027C000002180F82010084670470000002804BF50
:1027D0000120704701680A6822F001020A6002685D
:1027E0000021116002685160026891600268D16046
:1027F000DFF84CC00268134B624509D2DFF848C0CD
:102800006244A3FB02321209920002640F4A08E0FC
:10281000DFF83CC06244A3FB02321209920002645A
:102820000C4AC26390F84020012303FA02F2C36B02
:102830005A60816380F8211080F8201000207047D2
:1028400008040240CDCCCCCCF8FFFDBF0000024014
:10285000F8FBFDBF00040240002804BF01207047C0
:1028600010B4022180F8211002681168D0E9013CFF
:1028700043EA0C03D0E903C44CEA040C43EA0C031A
:10288000D0F814C06FF30D1143EA0C03D0F818C050
:1028900043EA0C03D0F81CC043EA0C03194311604F
:1028A000124B0168124A994208D2124B1944A2FBFA
:1028B00001210909890001640F4907E00F4B194400
:1028C000A2FB01210909890001640D49C1630021AE
:1028D0008162C162016341638163012280F821202A
:1028E00080F8201010BC0846704700000804024021
:1028F000CDCCCCCCF8FFFDBF00000240F8FBFDBF03
:102900000004024070B490F820404FF0000C012CFD
:1029100002BF022070BC7047012480F8204090F86C
:1029200021600025012E1CBF80F820504FF0020CC2
:1029300002D070BC60467047022680F82160856333
:1029400005682E6826F001062E6090F84050AC40D5
:10295000C56B6C60046863604368102B036803BF39
:102960009A600268D16099601CBF0168CA60C16A40
:10297000002901680A6818BF42F00E0206D142F031
:102980000A020A6001680A6822F004020A6000680C
:10299000016841F001010160CBE731B500F02EF98B
:1029A000044600F02BF90099001B8842F9D338BD8A
:1029B0000B680022002B08BF70472DE9F84F834EAB
:1029C000DFF80CE201274FF0030A4FF00F0800BFB9
:1029D0000B6807FA02F52B4000F0F180D1F804C033
:1029E000BCF1020F18BFBCF1120F15D14FEAD20C87
:1029F00000EB8C09D9F820404FEA427C4FEADC6CAE
:102A000008FA0CFB24EA0B04D1F810B00BFA0CFC0A
:102A10004CEA040CC9F820C0D0F800904FEA420CF0
:102A200091F804B00AFA0CF40BF0030B29EA04093C
:102A30000BFA0CFB4BEA0909C0F80090D1F804909E
:102A4000B9F1010F18BFB9F1020F05D0B9F1110F9B
:102A500018BFB9F1120F18D1D0F80890D1F80CB006
:102A600029EA04090BFA0CFB4BEA0909C0F80890A3
:102A7000D0F8049029EA050591F80490C9F30019EB
:102A800009FA02F949EA05054560C56825EA040422
:102A90008D6805FA0CFC4CEA040CC0F80CC0D1F8A7
:102AA00004C01CF0805F7DD0D6F818C04CF0010C3B
:102AB000C6F818C0D6F818C00CF0010CCDF800C04C
:102AC00022F0030C0CF1804C0CF5803CDCF8085033
:102AD0009407240F08FA04F925EA0905B0F1904F8C
:102AE00008BF4FF0000930D0A0F19049B9F58069D6
:102AF00008BF4FF0010928D0A0F19049B9F500694D
:102B000008BF4FF0020920D0A0F19049B9F5406903
:102B100008BF4FF0030918D0A0F19049B9F58059CA
:102B200008BF4FF0040910D0A0F19049B9F5A059A1
:102B300008BF4FF0050908D0A0F19049B9F5C05978
:102B40000CBF4FF006094FF0070909FA04F42C43B3
:102B5000CCF80840DEF800C04C682CEA030C14F4F2
:102B6000803F18BF4CEA030CCEF800C0194CD4F8D3
:102B700000C04D682CEA030C15F4003F18BF4CEA66
:102B8000030CC4F800C0144CD4F800C04D682CEA03
:102B9000030C15F4801F18BF4CEA030CC4F800C0E6
:102BA0000E4C00E00BE0D4F800C04D682CEA030C9A
:102BB00015F4001F18BF4CEA030CC4F800C00B68E2
:102BC000521CD3407FF404AFBDE8F88F00100240E0
:102BD0000004014004040140080401400C040140C9
:102BE0000069084018BF01207047002A14BF8161A6
:102BF000816270474FF082707047000001480068A2
:102C0000704700008C00002002480168491C0160E8
:102C1000704700008C000020074810B5016841F0A3
:102C200010010160032000F07DF80F2000F006F88D
:102C300000F018F8002010BD0020024010B5044636
:102C400007484FF47A720068B0FBF2F000F052FED1
:102C500000222146501E00F033F8002010BD000075
:102C600088000020094808B5816941F001018161AF
:102C7000806900F001000090032000F053F800226A
:102C8000BDE808401146501E00F01AB8001002407E
:102C900000F01F01012202FA01F14009800000F159
:102CA000E020C0F88012704700F01F01012202FAF4
:102CB00001F14009800000F1E020C0F800117047E8
:102CC000174B10B41B68C3F30223C3F1070CBCF10C
:102CD000040F88BF4FF0040C1C1D072C34BF0023C9
:102CE000DB1E012404FA0CFCACF1010C0CEA01011E
:102CF000994004FA03F35B1E1A40114300284FEA7F
:102D00000111A1BF00F1E02080F8001410BC704751
:102D100000F00F0000F1E02080F8141D10BC704797
:102D20000CED00E0074900F007000A684FF6FF03CA
:102D30001A4042EA002040F0FD7040F080600860D8
:102D4000704700000CED00E02DE9F84F04460068E4
:102D5000AF4D10F4803F7DD0E8694FF0000910F0CE
:102D6000805F09D1E86940F08050E861E8694FF080
:102D7000010900F080500090A64E306810F4807F6A
:102D800013D1306840F480703060FFF737FF07469A
:102D9000306810F4807F08D1FFF730FFC01B642833
:102DA0005AD8306810F4807FF6D0286A10F440704A
:102DB00055D0A18801F44071814250D0286A012782
:102DC000390491FAA1F2B2FA82F2920002F184423D
:102DD00002F5840220F44070C2F8007491FAA1F167
:102DE0000022B1FA81F1890001F1844101F58401E9
:102DF000C1F80024286210F0010F30D0FFF7FEFE6A
:102E00008046022641F2883A96FAA6F0B0FA80F09F
:102E100040F04000B7EB501F08BF28680AD096FA70
:102E2000A6F0B0FA80F040F04000B6EB501F0CBFA7
:102E3000286A686A96FAA6F1B1FA81F101F01F01D9
:102E400007FA01F108420AD1FFF7D8FEA0EB08000B
:102E5000504500E010E0D7D90320BDE8F88F286A7C
:102E6000616820F4407008432862B9F1000F03D074
:102E7000E86920F08050E861207810F0010F05D05B
:102E8000286BA16820F0030008432863207810F025
:102E9000020F05D0286BE16820F440300843286316
:102EA000207810F0040F05D0286B216920F4402011
:102EB00008432863207810F0200F05D0286BE169C3
:102EC00020F0100008432863206810F4003F05D06C
:102ED0006868616D20F4800008436860207810F015
:102EE000400F05D0286B216A20F02000084328639A
:102EF000206810F4802F05D0286B616A20F0400014
:102F000008432863207810F0080F05D0286B61690A
:102F100020F4401008432863207810F0100F05D0EB
:102F2000286BA16920F4400008432863208810F42E
:102F3000007F05D06868216B20F4000008436860BA
:102F4000207810F0800F05D0E86AA16A20F4F870AC
:102F50000843E862208810F4807F05D0E86AE16ABF
:102F600020F478500843E862208810F4805F05D090
:102F7000286B616B20F4807008432863208810F46C
:102F8000005F05D0286B216C20F400700843286393
:102F9000206810F4801F05D0286BA16B20F0807092
:102FA00008432863206810F4001F05D0286BE16BEC
:102FB00020F0007008432863206810F4800F05D0CB
:102FC000286B616C20F4806008432863206810F44B
:102FD000000F05D0286BA16C20F400600843286323
:102FE000206810F0807F05D0286BE16C20F4005041
:102FF00008432863206810F0007F05D0286B216DFE
:1030000020F40040084328630020BDE8F88F00004A
:1030100000100240007000402DE9F047DFF81C82EC
:1030200005460E46D8F8000000F00700B0420CD26A
:10303000D8F8000020F007003043C8F80000D8F8A6
:10304000000000F00700B04270D128787C4C10F0EE
:10305000020F05D06068A96820F0F00008436060A6
:10306000287810F0010F71D068680121012831D053
:10307000022845D0022393FAA3F2B2FA82F242F078
:10308000200252090CBF626A226893FAA3F3B3FAD2
:1030900083F303F01F0399400A427DD0616821F059
:1030A000030108436060FFF7A9FD0746686841F225
:1030B000883901283BD00228606800F00C0046D017
:1030C000002856D0FFF79AFDC01B48454DD9032074
:1030D000BDE8F0874FF4003292FAA2F3B3FA83F31B
:1030E00043F020035B0914BF2368636A92FAA2F2DB
:1030F000B2FA82F202F01F0291400B424CD0CDE7AF
:103100004FF0007292FAA2F3B3FA83F343F0200374
:103110005B0914BF2368636A92FAA2F2B2FA82F2E0
:1031200002F01F0291400B4236D0B7E734E06068EE
:1031300000F00C0004281CD0FFF760FDC01B4845C0
:10314000C5D8606800F00C000428F5D111E008280B
:103150000FD000BFFFF752FDC01B4845B7D86068CD
:1031600000F00C000828F5D103E0606810F00C0FA7
:10317000A8D1D8F8000000F00700B0420FD9D8F865
:10318000000020F007003043C8F80000D8F8000025
:1031900000F00700B04202D00120BDE8F087287897
:1031A00010F0040F05D06068E96820F4E06008437F
:1031B0006060287810F0080F06D06068296920F454
:1031C000605040EAC100606061681E4801F00C0276
:1031D000042A1ED0082A1CD14FF4701393FAA3F3CB
:1031E00001F47012B3FA83F3DA40174B9A5CE36A86
:1031F0004FF00F0C9CFAACFC03F00F03BCFA8CFCF4
:1032000023FA0CF3DFF844C01CF80330B0FBF3F0F2
:1032100050436168F02292FAA2F201F0F001B2FA92
:1032200082F2D1400A4A515CC8400A4908600F2026
:10323000FFF704FD0020BDE8F087000000200240F9
:103240000010024000127A00208B0008308B00082A
:10325000088B0008880000200148006870470000C3
:103260008800002008480949006849684FF4E06276
:1032700092FAA2F201F4E061B2FA82F2D140044A79
:10328000515CC840704700008800002000100240D8
:10329000188B000808480949006849684FF46052D3
:1032A00092FAA2F201F46051B2FA82F2D140044AD9
:1032B000515CC840704700008800002000100240A8
:1032C000188B0008164B5968164801F00C02042AA6
:1032D00008BF7047082A18BF704701F470124FF4F6
:1032E000701C9CFAACFCBCFA8CFC22FA0CF2DFF8E5
:1032F00038C0DB6A1CF802204FF00F0C9CFAACFCC3
:1033000003F00F03BCFA8CFC23FA0CF3DFF81CC0AB
:1033100001F480311CF80330B0FBF3F050437047E8
:103320000010024000127A00208B0008308B000849
:103330002DE9F84F04460078FF4D10F0010F4FF0D3
:1033400001063CD06868770400F00C0004281ED009
:10335000686800F00C00082805D1686800F4C030E7
:10336000B0F5803F13D06068B0F5803F04BF286897
:1033700040F4803037D010B1B0F5A02F56D0286877
:1033800020F480302860286820F480202BE097FA11
:10339000A7F0B0FA80F040F02000400914BF286880
:1033A000686A97FAA7F1B1FA81F101F01F0106FAF4
:1033B00001F1084203D06068002800F0898220787B
:1033C0004FF0000910F0020F4FF002077DD068683F
:1033D0004FF0F80A10F00C0F78D0686800F00C007D
:1033E00008284BD050E02860606838B3FFF706FC2F
:1033F0004FEA000897FAA7F0B0FA80F040F02000FA
:10340000400914BF2868686A97FAA7F1B1FA81F1F8
:1034100001F01F0106FA01F10842D0D1FFF7EEFBDF
:10342000A0EB08006428E5D900F0F9B9286840F459
:1034300080202860286840F48030D4E7FFF7DEFB66
:103440004FEA000897FAA7F0B0FA80F040F02000A9
:10345000400914BF2868686A97FAA7F1B1FA81F1A8
:1034600001F01F0106FA01F10842A8D0FFF7C6FBE0
:10347000A0EB08006428E5D900F0D1B9686800F431
:10348000C030B0F5004F30D0E068002896FAA6F0C2
:10349000B0FA80F04FEA800000F1844000F584002B
:1034A0007DD00660FFF7AAFB4FEA000897FAA7F065
:1034B000B0FA80F040F02000400914BF2868686A24
:1034C00097FAA7F1B1FA81F101E031E00DE001F0E6
:1034D0001F0106FA01F108421FD1FFF78FFBA0EB95
:1034E00008000228E2D900F09AB997FAA7F0B0FADA
:1034F00080F040F02000400914BF2868686A97FAFD
:10350000A7F1B1FA81F101F01F0106FA01F10842B9
:103510001CBFE068012840F0DB8128689AFAAAF213
:103520002169B2FA82F220F0F80091400843286045
:10353000207810F0080F7CD06069002896FAA6F079
:10354000B0FA80F04FEA800000F1844000F584007A
:103550004FD0C0F88064FFF751FB804697FAA7F080
:10356000B0FA80F040F06000B6EB501F08BF28684A
:103570000AD097FAA7F0B0FA80F040F06000B7EBFD
:10358000501F0CBF286A686A97FAA7F1B1FA81F157
:1035900001F01F0106FA01F1084258D100E007E0EE
:1035A000FFF72CFBA0EB08000228D7D900F037B9B1
:1035B000C0F80090FFF722FB4FEA000897FAA7F047
:1035C000B0FA80F040F02000400914BF2868686A13
:1035D00097FAA7F1B1FA81F101F01F0106FA01F1A2
:1035E0000842A5D0FFF70AFBA0EB08000228E5D9A6
:1035F00015E1C0F88094FFF701FB804697FAA7F029
:10360000B0FA80F040F06000B6EB501F08BF2868A9
:103610000AD097FAA7F0B0FA80F040F06000B7EB5C
:10362000501F0CBF286A686A97FAA7F1B1FA81F1B6
:1036300000E00CE001F01F0106FA01F1084206D09B
:10364000FFF7DCFAA0EB08000228D7D9E7E02078E2
:1036500010F0040F6FD0E8694FF0000B10F0805F9E
:1036600009D1E86940F08050E861E8694FF0010B4A
:1036700000F080500090DFF8C480D8F8000010F40B
:10368000807F18D1D8F8000040F48070C8F800009E
:10369000FFF7B4FA8246D8F8000010F4807F0AD110
:1036A000FFF7ACFAA0EB0A00642843D8D8F8000072
:1036B00010F4807FF4D0A068012804BF286A40F08D
:1036C000010009D008B105283BD0286A20F001008C
:1036D0002862286A20F004002862A06841F2883A33
:1036E00070B3FFF78BFA804697FAA7F0B0FA80F034
:1036F00040F04000B6EB501F08BF28680AD097FA88
:10370000A7F0B0FA80F040F04000B7EB501F0CBFBC
:10371000286A686A97FAA7F1B1FA81F101F01F01EE
:1037200006FA01F108423ED1FFF768FAA0EB080063
:103730005045D9D973E03DE00010024000700040D0
:1037400007E0286A40F004002862286A40F001007F
:10375000C2E7FFF753FA804697FAA7F0B0FA80F075
:1037600040F04000B6EB501F08BF28680AD097FA17
:10377000A7F0B0FA80F040F04000B7EB501F0CBF4C
:10378000286A686A97FAA7F1B1FA81F101F01F017E
:1037900006FA01F1084206D0FFF730FAA0EB080064
:1037A0005045D9D93BE0BBF1000F03D0E86920F0C8
:1037B0008050E861A069A8B3696801F00C0108298C
:1037C0007ED04FF08078022898FAA8F0B0FA80F006
:1037D0004FEA800000F1844000F584004FF000774C
:1037E000C0F800901FD0FFF709FA044697FAA7F037
:1037F000B0FA80F040F02000400914BF2968696ADF
:1038000097FAA7F0B0FA80F000F01F0006FA00F077
:10381000014260D0FFF7F2F9001B0228E6D903202D
:10382000BDE8F88F57E0FFF7E9F9814697FAA7F06E
:10383000B0FA80F040F02000400914BF2868686AA0
:1038400097FAA7F1B1FA81F101F01F0106FA01F12F
:10385000084206D0FFF7D2F9A0EB09000228E5D90B
:10386000DDE7E86A616A20F00F000843E862D4E906
:1038700007100843696821F476110843686098FAD4
:10388000A8F0B0FA80F0800000F1844000F58400D8
:103890000660FFF7B3F9044697FAA7F0B0FA80F094
:1038A00040F02000400914BF2868686A97FAA7F121
:1038B000B1FA81F101F01F0106FA01F1084200E0BE
:1038C00006E008D1FFF79AF9001B0228E4D9A6E721
:1038D0000120BDE8F88F0020BDE8F88F4FF0E0210F
:1038E000042808690CBF40F0040020F004000861BF
:1038F00070470000411EB1F1807F24BF0120704756
:103900004FF0E0204161054AF02182F8141D0021AA
:103910008161072101610020704700000FE000E095
:1039200090F83C20012A04BF0220704710B4012205
:1039300080F83C2002685368D2F808C0A2F18044A5
:10394000B4F596341FBFA2F18044B4F59A34A2F1C5
:103950008044B4F5A83403D14C6823F470032343A6
:103960000C6823F07003896823432CF0800C41EA33
:103970000C01536002689160002180F83C1010BC7B
:1039800008467047002804BF0120704710B5044660
:1039900090F83D0028B9002084F83C00204600F053
:1039A0000DF8022084F83D00211D206800F09CFEE7
:1039B000012084F83D00002010BD00000268174976
:1039C000A2F1804381B0B3F5806307D1CA6942F0A8
:1039D0000202CA61CA6902F0020200920268A2F100
:1039E0008043B3F5805307D1CA6942F01002CA611F
:1039F000CA6902F0100200920068A0F18042B2F59C
:103A0000A0521CBF01B07047C86940F02000C861D7
:103A1000C86900F02000009001B07047001002401B
:103A2000022180F83D1001680A6842F001020A6034
:103A3000012180F83D1000207047022180F83D10E0
:103A400001680A6A41F211131A4207D10A6A9B10EF
:103A50001A4203D10A6822F001020A60012180F8AB
:103A60003D100020704790F83C20012A0DBF022035
:103A7000012380F83C30704730B4022280F83D20AA
:103A80000268D2F808C02CF0770C2CF4803C2CF49F
:103A90007F4CC2F808C00A68502A47D00CDC202AA4
:103AA0007DD004DC002A7BD0102A7AD0B7E0302AFF
:103AB00078D0402A78D0B2E0602A54D0702A0DD055
:103AC000B2F5805F03D0B2F5005F1DD0A7E00168BA
:103AD0008A6822F0070222F4803242E00268D1F8BC
:103AE00004C08C68C96895684CEA012125F47F45BB
:103AF00021432943916001688A6822F0770222F409
:103B0000803242F077022CE00268D1F804C08C6861
:103B1000C96895684CEA012125F47F452143294372
:103B2000916001688A6842F480421AE00268D1F824
:103B300004C0C968146A156A25F001051562956903
:103B400024F00A0425F0F00545EA011144EA0C0CC2
:103B50009161C2F820C001688A6822F0700242F0C8
:103B600057028A605BE00268D1F804C0CC68116A31
:103B700021F0100111629569116A25F4704545EA3A
:103B8000043421F0A00141EA0C1194611162016832
:103B90008A6822F0700242F067028A603FE02FE0FC
:103BA0001EE025E034E0FFE70268D1F804C0CC68ED
:103BB000116A156A25F001051562956921F00A015F
:103BC00025F0F00545EA041441EA0C019461116204
:103BD00001688A6822F0700242F047028A601EE0A3
:103BE00001688A6822F0700242F007028A6016E0DB
:103BF00001688A6822F0700242F017028A600EE0C3
:103C000001688A6822F0700242F027028A6006E0AA
:103C100001688A6822F0700242F037028A6080F8F8
:103C20003D30002180F83C1030BC08467047002829
:103C300004BF0120704710B5044690F8690028B908
:103C4000002084F86800204600F028F8242084F83A
:103C500069002068016821F001010160204600F040
:103C6000B1FE012808BF10BD606A00281CBF2046B5
:103C700000F00AFE2068416821F49041416020680C
:103C8000816821F02A0181602068016841F001010A
:103C900001602046BDE8104000F063BE10B500682A
:103CA000154C86B0A0421CBF06B010BD1348C169B8
:103CB00041F40031C161C069694600F400300590EB
:103CC0000C2000900220019001200290032003901C
:103CD000072004904FF09040FEF76AFE206840F005
:103CE00020002060002206212620FEF7E9FF262082
:103CF000FEF7DAFF06B010BD00440040001002409D
:103D00007047704770B5184886B04FF0A041016009
:103D1000164E4FF480314160B16800240461C461E3
:103D2000446281604FF4806101630125056289105E
:103D3000C460C1620421C0E90514C0E90D54FEF756
:103D40003FF806F110000A49007851F82000CDE94B
:103D500000050394F06802900494694605940248B3
:103D6000FDF766FD06B070BDFC02002004000020D7
:103D7000888A000870B5184886B016490160174E49
:103D800009024160B16800240461C4614462816039
:103D90004FF480610163012505628910C460C1622E
:103DA0000421C0E90514C0E90D54FEF709F806F135
:103DB00010000B49407851F82000CDE9000503942C
:103DC000F06802900494694605940348FDF730FDBD
:103DD00006B070BD00010050500300200400002018
:103DE000C08A000870B5184886B016490160174EA1
:103DF00089014160B16800240461C461446281604A
:103E00004FF480610163012505628910C460C162BD
:103E10000421C0E90514C0E90D54FDF7D1FF06F1F6
:103E200010000B49807851F82000CDE9000503947B
:103E3000F06802900494694605940348FDF7F8FC85
:103E400006B070BD00040050A40300200400002050
:103E5000E88A000870B5194886B017490160184E05
:103E60004FF480314160B16800240461C461446250
:103E700081604FF480610163012505628910C4608F
:103E8000C1620421C0E90514C0E90D54FDF798FF93
:103E900006F110000B49C07851F82000CDE900056B
:103EA0000394F06802900494694605940348FDF772
:103EB000BFFC06B070BD000000050050F8030020F4
:103EC00004000020F88A000800B50E4983B00C48B1
:103ED00008600846FEF736FB042000900A480022DE
:103EE0006946006801900748FEF702FB1420009025
:103EF000102269460348FEF7FBFA03B000BD00003C
:103F0000007400406002002000000020094881B0D9
:103F1000416941F002014161416901F002010091F2
:103F2000416941F001014161406900F001000090E8
:103F300001B0704700100240294810B5416986B0B1
:103F400041F400214161416901F400210591416979
:103F500041F480014161416901F4800105914169A9
:103F600041F400314161416901F400310591416939
:103F700041F4802141614069002400F480200590D3
:103F80004FF4005000901748CDE9010469461648E7
:103F9000FEF70EFD0C2000900220CDE90104072061
:103FA000CDE9034069464FF09040FEF701FD4FF424
:103FB0008070CDE900040120029069464FF09040E6
:103FC000FEF7F6FC4FF4007000901120CDE90104DB
:103FD00069464FF09040FEF7EBFC06B010BD0000C4
:103FE00000100240000012100008004810B50E48F2
:103FF00088B00C490024C0E900148460C4600461E6
:10400000FFF7C0FC4FF48050049004A90648FFF766
:104010002AFD20200090694602940348FFF780FCA7
:1040200008B010BD00040040A001002010B50C48ED
:1040300084B00A490160002440F2FF714460C0E985
:1040400003148460FFF79EFC2020009069460294D0
:104050000348FFF765FC04B010BD000000100040ED
:10406000E001002010B50C4884B00A49016000242A
:1040700040F2FF714460C0E903148460FFF782FCE2
:1040800020200090694602940348FFF749FC04B0E1
:1040900010BD00000014004020020020084807491D
:1040A00001604FF4E1314160002181600C22C16068
:1040B000C0E904128161C161FFF7B9BD004400404D
:1040C0005C05002088B000221421052003F0B0FE1A
:1040D0005C4FB862042003F083FE386303F090F86D
:1040E000DFF864B1594E4FF0060A4FF000084FF068
:1040F000010900235A1E03A9B86A03F0D6FE4FF047
:10410000FF31386B04F0CAF99DF80C0032280CD04E
:10411000332811D0342849D035287DD0362804BF23
:1041200096F82000062878D088E096F8200000282D
:1041300018BF86F820A081E096F8200035460528B3
:104140001CBF95F82000002878D002F03FFFC7F888
:104150000C80CDF80480FCF7C1FCA86801A900F030
:104160008DFB0198FCF74AFD5FF0000495F82100F3
:10417000A04206D9EA6B05EB8400416A2046FCF7B1
:104180004BFC601CC4B2042CF0D30198E86095F895
:10419000200006281CBF95F8200004284ED085F882
:1041A0002090C7F8188002F013FF47E096F820002F
:1041B00001281CBF96F8200002283FD096F8200066
:1041C00003281CBF96F82000042837D0C7F80C80BD
:1041D000CDF80880FCF782FCB06802A900F04EFB25
:1041E0000298FCF70BFD002496F82100A04206D9A6
:1041F000F26B06EB8400416A2046FCF70DFC601C64
:10420000C4B2042CF0D30298F06086F8209002F03B
:10421000DFFE00235A1E02E007E00BE00EE00CA1D7
:10422000DBF8000003F06AFF08E002F0CFFE86F83A
:10423000208003E002F0CCFE86F82090386B04F07A
:1042400013F956E764010020F0000020A8ED0020DB
:10425000534D504C00000000C14DDFF80883C24CA4
:104260004FF0020A4FF6FF7601274FF0030B4FF095
:10427000000900BF95F8200001281FBF95F8200015
:10428000022895F82000032802D003F0E9FBF1E7AB
:104290004FF0FF31206B04F001F9E068206195F8E0
:1042A0004000FDF763F9E96B091AE160E86B4A1E0B
:1042B0001044EA6BB0FBF2F302FB1300606195F867
:1042C0002020012A0AD095F82020022A5FD095F8F4
:1042D0002000032800F0B38000F031B96A8B082A6F
:1042E00095F8402005EB8202126A9ABF20F0010087
:1042F000105C32F810002080E88AAA8B5043000C32
:1043000060802A692B8BF31A5A4307EB12426260D2
:104310002A692B8B89B25A43120CA260238A9BB262
:10432000994224BFC91A89B204D2D5F83CC061446D
:10433000C91A89B2A3691944A161914240F2FF8070
:104340002A7D1AB922881032824215D32A7D012A89
:1043500003D12288103A82420EDC687D012803D105
:104360002869B1EB800F07D8687D022840F0E7800C
:104370002869884280F0E38085F820A000235A1E37
:104380007AA1D8F8000003F0B9FE00F0D8B88AB2DC
:10439000218A89B28A4224BF511A89B203D2EB6BB7
:1043A0001A44511A89B2A2691144A1616A8B082A80
:1043B00095F8402005EB8202126A9ABF20F00103B3
:1043C000D25C32F810202280EA8AAB8B5A43120C5E
:1043D00062802B69B5F818C0A6EB0C0C03FB0CF33C
:1043E00007EB134363602B69B5F818C003FB0CF3AC
:1043F0001B0CA3602B7D13B92388934212D82B7D0D
:10440000012B02D1238893420CD36A7D012A03D168
:104410002A69B1EB820F05D86A7D022A7ED12A690A
:104420008A427BD2C4E9069185F820B00023E0627D
:104430005A1E50A1D8F8000003F060FE7FE0208AE9
:1044400089B280B2814224BF081A80B203D2EA6BDB
:104450001144081A80B2A1690844A06195F820109F
:1044600003296CD16168884269D302F0AFFD687D91
:10447000294601281CBF487D02281CD0488B0828EB
:10448000087D28D9002891F8400001EB8000026ADD
:10449000E06A32F8103062880FD0934232D200BF07
:1044A00091F8403001EB83031B6A401E33F8103053
:1044B0009342F5D325E0E06A26E0934222D900BF7B
:1044C00091F8403001EB83031B6A401E33F8103033
:1044D0009342F5D815E0002891F8400001EB8000E8
:1044E000026AE06A135C62882DD093420AD200BF50
:1044F00091F8403001EB83031B6A401E1B5C934222
:10450000F6D3E062401CE0624860042081F820009D
:10451000E1692162A0696062084400E00FE0B0F543
:10452000801F28BFC4F81890C4F818900023C4F85E
:104530001C905A1E11A1D8F8000003F0DFFD206B7B
:1045400003F092FF96E69342DCD900BF91F8403029
:1045500001EB83031B6A401E1B5C9342F6D8D0E735
:10456000A8ED0020F000002064010020534D504CC5
:1045700000000000545249470000000031446174BB
:104580006152656164795F5F000000004FF4C8709C
:1045900001F000FFFFF7B5FB282001F0FBFEFFF75D
:1045A000AFFBF3E710B504F0A5F8002818BF03F03F
:1045B00005FCBDE81040FEF727BB30B5A5B00120D3
:1045C00016904FF4A02002251790E803CDE91C5067
:1045D0004FF4E0100024CDE91E0416A8FEF7A8FE53
:1045E0000520CDE920056802CDE92240022120A85E
:1045F0002494FEF711FD4FF4C0700090E8010A907A
:1046000040010B906846FEF79FFBFEF725FE4FF436
:104610007A71B0FBF1F0FFF76DF90420FFF75EF956
:1046200000221146501EFEF74BFB25B030BD0000A6
:104630001448016841F4700101601348016841F0B9
:10464000010101604168114A11404160016821F493
:10465000102121F080710160016821F48021016046
:10466000416821F4FE014160C16A21F00F01C1627D
:10467000016B074A11400163002181600549C003B5
:104680000860704788ED00E0001002400CC07FF821
:10469000CCFC00FF08ED00E010B50448FFF7CDF9B1
:1046A000BDE810400248FFF7C8B90000E001002053
:1046B0002002002010B50448FFF7B2F9BDE8104011
:1046C0000248FFF7ADB90000E00100202002002001
:1046D0000148FFF7B2B90000A00100200148FFF730
:1046E0009FB90000A00100202DE9F0030268274BCC
:1046F000274DDFF8A090DFF8A0C0284C984218BFE3
:10470000B0F1804F07D0A84218BF484503D060459C
:1047100018BFA04203D14E6822F070023243204EEF
:10472000204FDFF88480984218BFB0F1804F0CD042
:10473000A84218BF484508D0604518BFB04204D011
:10474000B8421CBF4045A04203D1CD6822F440725C
:104750002A434D6922F080022A4302608A68C262BD
:104760000A688262984218BF604507D0B04218BFFD
:10477000B84203D0404518BFA04201D10969016386
:1047800001214161BDE8F00370470000002C0140A9
:104790000004004000080040003401400050014087
:1047A0000040014000440140004801402DE9F0472D
:1047B0009146884605460026FEF76CFD4000B0FB9A
:1047C000F5F0401C5FEA500C08BF6C2507D0BCF523
:1047D000803F1ADA0027ACF1010084B23D46B9F1FE
:1047E000000F08D0FEF756FD791C621C5143B0FB48
:1047F000F1F0C9F80000C8F804704046C8F80C4051
:10480000FFF7C0F82846BDE8F0874FF0FF304FEAC9
:104810001C44010C621C94B29CFBF4F295B205FBA3
:1048200014C383423CBF184626468C4204D1BCFBCD
:10483000F6F085B2B4B201E0002BEBD1AC429CBFE4
:10484000601E87B2A5F1010084BF87B2601E84B2EA
:10485000002B14BF6B250025C1E7000031B10129F1
:104860001CBF002070470349FFF7A0BF0249FFF7B4
:104870009DBF000020020020E00100200A460149FF
:10488000FFF794BFA001002090F8241011F0010F51
:1048900006D001684A68836A22F400321A434A60EB
:1048A00090F8241011F0020F06D001684A68C36A1C
:1048B00022F480321A434A6090F8241011F0040F59
:1048C00006D001684A68036B22F480221A434A60CA
:1048D00090F8241011F0080F06D001684A68436B65
:1048E00022F400421A434A6090F8241011F0100F8D
:1048F00006D001688A68836B22F480521A438A606A
:1049000090F8241011F0200F06D001688A68C36B5C
:1049100022F400521A438A6090F8241011F0400FDC
:1049200011D001684A68036C22F480121A434A606D
:10493000016CB1F5801F06D101684A68436C22F40E
:10494000C0021A434A6090F8241011F0800F08BF8B
:10495000704701684A68806C22F400221043486066
:104960007047F8B500250446C566FEF747F90746C7
:10497000206800686FF07E4610F0080F08D03B46B4
:1049800000224FF400112046009600F037F968B974
:104990002068006810F0040F0AD03B4600224FF454
:1049A00080012046009600F029F908B10320F8BDE7
:1049B000202084F8690084F86A0084F86850002098
:1049C000F8BD000070B5044610202369A268D4F831
:1049D0001CC01A436369002143EA0C031A4323688D
:1049E0000D46D3F800C0814E0CEA060C4CEA0202D8
:1049F0001A6022685368D4F80CC023F4405343EA89
:104A00000C035360236AA2691A432368D3F808C0D1
:104A10002CF4306C4CEA02029A602268744BA2F1CA
:104A2000804CBCF59C3C0CD01CF5744C16D0BCF5ED
:104A3000806C21D0BCF5806C2CD0BCF5806C37D05C
:104A40004BE01B6B13F0030308BF012045D0012B83
:104A500040D0022B40D0032B3AD03EE01B6B13F426
:104A6000403333D0B3F5803F34D0B3F5003F33D07B
:104A7000B3F5403F2CD030E01B6B13F4402325D01E
:104A8000B3F5802F26D0B3F5002F25D0B3F5402FF6
:104A90001ED022E01B6B13F4401317D0B3F5801F18
:104AA00018D0B3F5001F17D0B3F5401F10D014E095
:104AB0001B6B13F4400309D0B3F5800F0AD0B3F594
:104AC000000F09D0B3F5400F02D006E0002004E04B
:104AD000022002E0042000E00820E369B3F5004F63
:104AE00008D009287FD2DFE800F046525E7E677E5C
:104AF0007E7E7400092835D2DFE800F0050F1934F6
:104B0000213434342B00FEF7ADFB4100606801EB2B
:104B10005001B1FBF0F081B225E0FEF7BBFB410094
:104B2000606801EB5001B1FBF0F081B21BE031494C
:104B3000606801EB5001B1FBF0F081B213E0FEF7C9
:104B4000C1FB4100606801EB5001B1FBF0F081B2A4
:104B500009E060684FF4803101EB5001B1FBF0F0E7
:104B600081B200E0012521F00F00C1F342010843AA
:104B70002168C86038E0FEF775FB0146606801EB0C
:104B80005001B1FBF0F0216880B2C8602CE0FEF764
:104B900081FB0146606801EB5001B1FBF0F0216838
:104BA00080B2C86020E01449606801EB5001B1FB9D
:104BB000F0F080B2D06017E0FEF784FB0146606839
:104BC00001EB5001B1FBF0F0216880B2C8600BE04E
:104BD00009E060684FF4004101EB5001B1FBF0F0D7
:104BE00080B2D06000E00125284670BDF369FFEF78
:104BF000001002400024F40000127A002DE9F04178
:104C000004460068069F9846C06915460E4631EA7C
:104C100000000CBF01200020A84227D1B7F1FF3FC0
:104C20001BD02FB1FDF7EAFFA0EB0800B84214D962
:104C30002068016821F4D07101602068816821F04A
:104C400001018160202084F8690084F86A00002056
:104C500084F868000320BDE8F0812068C06936EA66
:104C600000000CBF01200020A842D7D00020BDE8E2
:104C7000F081000010B400291CBF084A084C09D07C
:104C800010F801CB136813F0800FFBD0A4F800C01C
:104C9000491EF5D110BC0020704700001C440040A4
:104CA0002844004003490A6812F0800FFBD00249F3
:104CB000088070471C44004028440040054810B557
:104CC0000088C0B201F060F8BDE810402620FDF772
:104CD000DFBF00002444004003B401984100009865
:104CE00050EAC12018BF04204A0D18BF40F001004F
:104CF00040F2FF72B2EB515F08BF40F002000128A2
:104D000008BF052002B070472DE9F04D2DED040BD2
:104D10002DED0E8B96B0DDE92550279CDDF890A097
:104D200025F0004624F00048BAF1000F14BF01211D
:104D3000002101EB4502FC4953184A1093422AD343
:104D4000002814BF0123002303EB44030B44F7495D
:104D50008B4220D358EA00019FEDF59B76D0DFF817
:104D6000D8B35D4503D1BAF1000F05D188E0BAF19F
:104D7000000F08BF002100D0012101EB450111F512
:104D8000001F08D8002814BF0121002101EB4401B5
:104D900011F5001F0BD99DED261B9DED240B16B0C0
:104DA000BDEC0E8B04B0BDE8F04D00F069BE0027ED
:104DB000002DBCBFE149884521DAE1498845A8BFFB
:104DC00002271CDAC3451ADCDE4901EB28511429FD
:104DD00008DDC1F1340220FA02F101FA02F2824246
:104DE0000DD108E058B9C1F1140228FA02F101FA14
:104DF00002F2424503D101F00101C1F1020756EA76
:104E00000A0124D1002C22DA002D18BF022F01D074
:104E1000012F0AD0022000F07FFE16B0BDEC0E8BF1
:104E200004B0BDE8F04D00F013BE022000F074FEA7
:104E300000F00EFE51EC100B81F0004141EC100B24
:104E400016B0BDEC0E8B04B0BDE8F08D18E09FED00
:104E5000BEAB9FEDBF8B002871D1B848804522D1F1
:104E600005F1804010F5801008BFBAF1000F07D09F
:104E7000B3450ADC002CA8BF9DED260BE0DA0DE05F
:104E8000B0EE490AF0EE690ADAE7002C06DA9DED89
:104E9000260B51EC100B81F000416FE0AE487844D6
:104EA00090ED000BCCE7D8454DD1002C48DA2EB15F
:104EB00086423AD1BAF1000F42D126E0BAF1000F92
:104EC00013D0022000F028FE00F0F6FD8DED020B5D
:104ED0009DED240B8DED000B10EE900A039961F30C
:104EE0001E0003909DED020BAAE78DED02AB9DED38
:104EF000240B1AEE901A10EE900A8DED000B61F360
:104F00001E0003909DED020B9AE78DED028B9DED47
:104F1000240B18EE901A10EE900A8DED000B61F341
:104F20001E0003909DED020B8AE709DA9DED240B2C
:104F300051EC190B53EC102BFBF770FB1EE020E03B
:104F40009DED240B7CE786421BDAB4F1804F0DD037
:104F5000A4F10050B0F1FF5013D1002D11DB9DEDF5
:104F6000240B51EC100B02F09FFC07E09DED240B8D
:104F700053EC102B51EC100B00F0C2BC41EC100BA9
:104F80005EE79DED240B51EC100B00F05DFFBAF1D4
:104F9000000FCDE90E0142D19FED710B46B3A6F192
:104FA000E040B0F17F600CD05E4538D1002D00DAD2
:104FB000A7B3022F0CBF01204FF0FF30FBF7B4FB6B
:104FC000DCE7002D01DD002C0DDA002D01DD002CC9
:104FD0001FDB002D16DA002C14DB012F08BF9FED1C
:104FE000620B3FF42DAFB0EE4A0AF0EE6A0A27E7F3
:104FF000022F18BF002D0CD0012F0AD1002DFFF673
:105000001FAF06E0002DB8BF002C08DA012F3FF4D7
:1050100017AFB0EE480AF0EE680A11E71BE0012076
:1050200000EBE57050EA070115D0791EB0EE498A11
:10503000F0EE698A084308BF9FED4D8B4E4800256E
:10504000804570DD4D494E48884514DDB0420DDB8A
:10505000002C19DB2FE0012000F05EFD16B0BDEC46
:105060000E8B04B0BDE8F04D00F016BDB34502DC78
:10507000002C09DC1FE0864202DA002C1BDA03E078
:105080005E452BDD002C16DD022000F045FD00F012
:1050900013FD8DED020B53EC1A2B51EC180BFBF7A3
:1050A0004BFACDE900010399019861F31E000390CA
:1050B0009DED020BC4E6022000F02EFD00F00CFD79
:1050C00010EE901A18EE900A8DED020B8DED008B0C
:1050D00061F31E0003909DED020BB1E69DED0E0BFA
:1050E00053EC192B51EC100BFBF720FA9FED260B1C
:1050F000CDE9080153EC102B9DED080B51EC100B82
:10510000FBF71AFA9FED221B53EC112BFBF711FA58
:105110009DED081B53EC112BFBF70EFA9FED1E1BA8
:1051200053EC112B3CE08CE0FFFF1F00FFFF0F0052
:10513000000000000000F03F0000F03F0000F07FA2
:105140000000404301FCFFFF000000000000F07F72
:105150000000000000000000563D000000000000BC
:105160000000000000000080000000000000F0FFD0
:10517000000000000000F0BF0000E0410000F0432C
:10518000FFFFEF3F00000000000000000000D03FE4
:10519000555555555555D53F000000000000E03FDE
:1051A000FBF7C7F99DED080B41EC1A0B53EC102BE4
:1051B00051EC100BFBF7C0F953EC1A2BFBF7BCF9C1
:1051C00041EC1A0B9FEDFE0B53EC102B9DED080BE1
:1051D00051EC100BFBF7B0F941EC1B0B9FEDFA0BF8
:1051E00051EC1A0B53EC102BFBF7A6F941EC1A0B00
:1051F0009FEDF70B53EC102B9DED080B51EC100BB2
:10520000FBF79AF953EC1A2BFBF790F941EC1A0BC8
:1052100051EC1B0B53EC1A2BFBF7E7F80690CDE98A
:1052200006519DED060B53EC1B2B51EC100BFBF7BD
:105230007DF953EC1A2BFBF77CF941EC100B00F0D5
:10524000A1B90020B6F5801F0EDA9FEDE30B53ECF9
:10525000102B9DED0E0B51EC100BFBF76DF9CDE90A
:105260000E016FF034000E4600EB2650A0F2FF371F
:10527000C6F31300DA4940F07F6646F04056884294
:10528000D8BF002408DDD7498142C8BF012403DC10
:105290000024A6F580167F1CD348784400EBC40098
:1052A0000F9690ED00CB9DED0E0B53EC1C2B51ECAB
:1052B000100BFBF73BF99DED0E0B41EC1B0B53EC78
:1052C0001C2B51EC100BFBF790F841EC100B51EC40
:1052D000190B53EC102BFBF7A1F941EC1D0B51EC12
:1052E0001B0B53EC1D2BFBF727F941EC1A0BBF48A6
:1052F0008DED10AB7844109590ED000B4FF0005001
:1053000040EA660000EB84408DED080B00F50020BC
:1053100009909DED080B53EC1C2B51EC100BFBF787
:1053200005F99DED0E1B53EC112BFBF702F941EC37
:10533000100B53EC102B9DED100B51EC100BFBF7E9
:10534000FBF89DED080B41EC1C0B53EC102B9DED75
:10535000100B51EC100BFBF7EFF853EC1B2BFBF78A
:10536000E8F853EC1C2BFBF7E1F853EC1D2BFBF793
:10537000E3F841EC1C0B53EC1A2B51EC1A0BFBF726
:10538000DBF841EC1B0B9A480621B0EE4B0AF0EE1D
:105390006B0A784400F0E0FAB0EE401AF0EE601AC2
:1053A000B0EE41DAF0EE61DA53EC1B2B51EC1B0B43
:1053B000FBF7C2F853EC1D2BFBF7BEF89DED100B6D
:1053C00041EC1B0B53EC1A2B51EC100BFBF70DF8B7
:1053D00053EC1C2BFBF7B0F853EC1B2BFBF705F839
:1053E0009DED100B41EC1B0B53EC102B51EC100BF3
:1053F000FBF7A2F841EC1D0B9FED7FEB53EC1E2B4E
:10540000FAF7F3FF53EC1B2BFAF7EFFF0890CDE907
:1054100008519DED080B53EC1E2B51EC100BFBF7C4
:1054200085F853EC1D2BFBF781F853EC1B2BFBF796
:1054300080F89DED080B41EC1D0B53EC102B9DEDFE
:10544000100B51EC100BFBF777F841EC1B0B53ECF6
:105450001A2B51EC1D0BFBF76FF89DED080B41EC7F
:105460001A0B53EC102B51EC1C0BFBF765F853ECAB
:105470001A2BFAF7BAFF41EC1A0B51EC1B0B53EC49
:105480001A2BFAF7B2FF0C90CDE90C519DED0C0BE5
:1054900053EC1B2B51EC100BFBF748F853EC1A2B79
:1054A000FBF747F841EC1B0B9FED550B53EC102B12
:1054B0009DED0C0B51EC100BFBF73EF841EC1A0B79
:1054C0009FED510B51EC1B0B53EC102BFBF734F8F9
:1054D00041EC1B0B9FED4E0B53EC102B9DED0C0B79
:1054E00051EC100BFBF728F853EC1B2BFAF77DFF60
:1054F00041EC100B4848784400EBC40090ED001BD1
:1055000051EC100B53EC112BFAF76FFF41EC1B0B16
:105510003846FBF709F9CDE9080153EC1B2B51EC98
:105520001A0BFAF762FF41EC100B3C48784400EB91
:10553000C40090ED00CB51EC100B53EC1C2BFAF790
:1055400054FF9DED081B53EC112BFAF74EFF06900C
:10555000CDE906519DED080B53EC102B9DED060B8C
:1055600051EC100BFAF7E2FF53EC1C2BFAF7DEFFBD
:1055700053EC1A2BFAF7DAFF53EC1B2BFAF7D9FF8F
:1055800041EC100B9DED261B53EC102B8DED001BF9
:1055900000959DED260B51EC100BFAF7CDFF9DED1C
:1055A000000B41EC1A0B53EC102B9DED260B51EC2C
:1055B000100BFAF7BBFF9DED061B53EC112B2FE0F0
:1055C000000000604715F73FFE822B654715F73F47
:1055D00044DF5DF80BAE543E000000000000404385
:1055E0008E9803007AB60B00D23800000039000014
:1055F0000A38000000000000000000000000084021
:10560000000000E009C7EE3FFD033ADC09C7EE3FAA
:10561000F5015B14E02F3EBE9636000050360000C8
:10562000FAF78AFF53EC1A2BFAF7DFFE9DED060B13
:1056300041EC1A0B53EC102B9DED000B51EC100BB1
:10564000FAF77AFFCDE90C019DED0C0B51EC1A0B2A
:1056500053EC102BFAF7C9FECDE902010C46AA491A
:105660008C422FDB611A084318D19DED0C0B53ECD3
:10567000102B9DED020B51EC100BFAF757FF41EC8C
:105680001B0B9FEDA30B51EC1A0B53EC102BFAF7ED
:10569000ACFE53EC1B2BFBF759F82DD2022000F087
:1056A0003BFA00F009FA10EE901A18EE900A8DED10
:1056B000020B8DED008B61F31E0003909DED020B3C
:1056C000FFF7BEBB944A24F00041914214D39349A2
:1056D000214408437FF4EFAC9DED0C0B53EC102BF1
:1056E0009DED020B51EC100BFAF720FF53EC1A2B37
:1056F000FBF72CF87FF6DFAC24F000408849894A9C
:10570000002601EB205182422BDA481C4FF4801115
:1057100021FA00F02044844AC0F30A517A44A1F2ED
:10572000FF3192ED000B814A8DED080BCA4020EA53
:105730000202C0F3130040F48010C1F1140120FAFA
:1057400001F60992002CB8BF76429DED080B53EC90
:10575000102B9DED0C0B51EC100BFAF7E7FECDE989
:105760000C019DED0C0B51EC1A0B53EC102BFAF7BE
:105770003CFE9FED6F0B0890CDE9085153EC102BC8
:105780009DED080B51EC100BFAF7D6FE41EC1B0B0C
:105790009FED690B53EC102B9DED080B51EC100B9A
:1057A000FAF7CAFE9DED0C0B41EC1C0B53EC102BD1
:1057B0009DED080B51EC100BFAF7B8FE53EC1A2BC9
:1057C000FAF7B7FE9FED5E1B53EC112BFAF7B4FE10
:1057D00053EC1C2BFAF709FE41EC1A0B51EC1B0B96
:1057E00053EC1A2BFAF701FECDE902019DED020BF5
:1057F00053EC1B2B51EC100BFAF798FE53EC1A2BC1
:10580000FAF797FE9DED020B41EC1A0B53EC102BAF
:1058100051EC100BFAF790FECDE908014A489DEDD6
:10582000080B0521784400F097F89DED081B51EC1A
:10583000100B53EC112BFAF77FFE9DED021B53EC7E
:10584000112BFAF776FECDE906019DED020B53EC24
:105850001A2B51EC100BFAF76FFE53EC1A2BFAF7D8
:10586000C4FD9FED3B0B41EC1A0B53EC102B9DED4F
:10587000060B51EC100BFAF759FE9DED060B41ECAF
:105880001B0B53EC102B9DED020B51EC100BFAF798
:1058900053FE53EC1B2BFAF7C1FE53EC1A2BFAF70D
:1058A00045FE9DED021B53EC112BFAF73FFE53EC26
:1058B000192BFAF73EFECDE9020101EB0650011566
:1058C0000029C8BF039015DC9DED020B324651EC58
:1058D000100BFAF712FFFFF7FFF9042808BF00F0DA
:1058E000FBF832469DED020B51EC100BFAF705FF69
:1058F000CDE902019DED020B51EC180B53EC102B7E
:10590000FAF71AFEFFF73ABB0000904000000000D3
:10591000FE822B654715973C00CC904000346F3FCA
:1059200001FCFFFF0000E03FD8340000FFFF0F0044
:1059300000000000432EE63F396CA80C615C20BEDD
:10594000EF39FAFE422EE63FA833000000000000C7
:10595000000000000000004070B504462DED028BF1
:105960004D1E00EBC500B0EE408AF0EE608A90ED6F
:10597000000B35F0060017D053EC182B51EC100B30
:10598000FAF7DAFD41EC100B6D1E04EBC50090ED4B
:10599000001B51EC100B53EC112BFAF726FD41ECD8
:1059A000100B35F00600E7D1022D36D0042D1CD0A7
:1059B000062D1CBFBDEC028B70BD53EC182B51ECB7
:1059C000100BFAF7B9FD94ED0A1B53EC112BFAF703
:1059D0000CFD53EC182BFAF7AFFD94ED081B53ECBC
:1059E000112BFAF702FD41EC100B53EC182B51EC84
:1059F000100BFAF7A1FD94ED061B53EC112BFAF7EF
:105A0000F4FC53EC182BFAF797FD94ED040B53ECD0
:105A1000102BFAF7EAFC41EC100B53EC182B51EC6D
:105A2000100BFAF789FD94ED021B53EC112BFAF7DA
:105A3000DCFC53EC182BFAF77FFD94ED001B53ECC4
:105A4000112BFAF7D2FCBDEC028B41EC100B70BDB0
:105A50009FED070B10B553EC102B9FED070B51EC8E
:105A6000100BFAF7DBFD41EC100B10BD000000003D
:105A70000000000000000000000000000000F03FF7
:105A800010B553EC112B51EC100BFAF7AEFC41ECB6
:105A9000100B10BD000000009FED050B10B553EC7E
:105AA000102B51EC100BFAF7B9FD41EC100B10BDA7
:105AB00000000000000000009FED050B10B553EC46
:105AC000102B51EC100BFAF737FD41EC100B10BD09
:105AD00000000000000000709FED050B10B553ECB6
