:020000040800F2
:10000000509E00204D0200085502000857020008CB
:10001000590200085B0200085D02000800000000B1
:100020000000000000000000000000009D0100082A
:100030006102000800000000E101000853640008AC
:1000400067020008670200086702000867020008EC
:1000500067020008670200086702000867020008DC
:1000600067020008670200086702000867020008CC
:1000700067020008670200086702000867020008BC
:1000800067020008670200086702000867020008AC
:10009000717C000867020008670200086702000818
:1000A000670200086702000867020008670200088C
:1000B000670200086702000867020008670200087C
:1000C000670200086702000867020008670200086C
:1000D0006702000867020008396D0008670200081F
:1000E000670200086702000867020008670200084C
:1000F000670200086702000867020008670200083C
:10010000000000000000000000000000670200087E
:10011000670200086702000867020008670200081B
:10012000670200086702000867020008670200080B
:1001300067020008670200080000000000000000DD
:10014000670200086702000867020008000000005C
:10015000000000000000000000000000000000009F
:1001600000000000000000006702000867020008AD
:10017000670200080000000000000000000000000E
:100180000000000067020008DFF80CD000F0F0FA71
:100190000048004719920008509E0020234B196820
:1001A0000868B0E8F04F80F309884FF0000080F352
:1001B000118870470000000003480068006880F361
:1001C000088862B600DF00BF08ED00E0DFF80C0031
:1001D000016841F470010160704700BF88ED00E0E4
:1001E000EFF30980114B1A681EF0100F08BF20EDC5
:1001F000108A20E9F04F106008B44FF0500080F3EF
:1002000011880AF0B3FD4FF0000080F3118808BC9C
:1002100019680868B0E8F04F1EF0100F08BFB0EC86
:10022000108A80F30988704700BF00BFA400002037
:10023000EFF311804FF0500181F31188704780F384
:1002400011887047EFF3058070470000064880472B
:1002500006480047FEE7FEE7FEE7FEE7FEE7FEE7AB
:10026000FEE7FEE7FEE7FEE7F56400088901000807
:1002700040EA01039B0703D009E008C9121F08C028
:10028000042AFAD203E011F8013B00F8013B521EA8
:10029000F9D27047D2B201E000F8012B491EFBD21F
:1002A00070470022F6E710B513460A460446194681
:1002B000FFF7F0FF204610BD0EB540F2334102912A
:1002C0000021CDE900110A460B4600F03AF803B0D0
:1002D00000BDC1F30A5210B5C1F3130140F2FF3360
:1002E00041F480119A4201DA002010BD40F23343FC
:1002F0009A42A2F2334203DC524200F003F810BDEE
:10030000904010BD202A04DB203A21FA02F000219F
:10031000704721FA02F3D040C2F120029140084315
:100320001946704710B5141E73F1000408DA401C1A
:1003300041F1000192185B411A4301D120F0010004
:1003400010BD2DE9F04D92469B4611B1B1FA81F2F4
:1003500002E0B0FA80F22032904600F01BFA044628
:100360000F4640EA0A0041EA0B0153465A46084349
:1003700013D0114653EA010019D0C8F1400250468B
:10038000FFF7C0FF05460E4650465946424600F06C
:1003900001FA084305D0012004E020463946BDE8B3
:1003A000F08D0020054346EAE0762C4337430A9857
:1003B0006305E40AA0EB08000022FD0A44EA475462
:1003C0000A3002D500200146E9E70105101969410C
:1003D000DDE9084500196941BDE8F04DA2E72DE9C6
:1003E000FE4F804681EA0300C00F0C46009021F0CA
:1003F000004123F00045B8EB0200A94105D2404678
:10040000214690461C460B46024623F0004010430E
:1004100047D0270DC7F30A00C3F30A510290401AD0
:10042000019040286BDAC3F3130040F4801B00985E
:10043000924620B10023D2EB030A63EB0B0B019829
:100440005946C0F14002504600F0A4F906460D4658
:1004500050465946019A00F0ACF910EB0800614192
:10046000002487EA115284EAE7731A4340D0009AC5
:1004700062B3019A012A4FEA075215DC001B61EBB7
:1004800002014FF0004202EA0752CDE90042001C8F
:1004900041F5801132462B46FFF753FF03B0BDE80C
:1004A000F08F40462146F9E7001B61EB0201001C7A
:1004B00041F5801300185B412018A2F5001747EBA7
:1004C000030140EAD570B6196D4111E06D084FEA9D
:1004D000360645EAC0754FEA0752001B61EB020180
:1004E000001C41F5801149084FEA300000195141C4
:1004F00032462B4603B0BDE8F04FFFF713BF00981C
:10050000012240000023D0EB020263EBE07300986D
:1005100021464FEAE074B8EB000061EB0401E9E723
:1005200083F000435BE781F0004158E72DE9FE4F7F
:1005300081EA030404F0004421F0004100944FF0EC
:10054000000B23F0004350EA01045ED052EA03049A
:100550005BD0C3F30A54C1F30A552C44A4F2F3341C
:100560000194A0FB0254C1F3130141F48011C3F3C1
:10057000130343F4801301FB024400FB034E840A7F
:10058000970A44EA815447EA8357A4FB0768029517
:100590008D0A05FB07854FEA932C04FB0C542705B5
:1005A000029D4FEA065847EA1637B5EB08056EEB91
:1005B000070C870E920E47EA811742EA8312A7FBC7
:1005C0000201B6EB0B0164EB00042B0D43EA0C3384
:1005D0005E1844EB1C50DA465146E7FB0201C5F3B6
:1005E00013044FEA0B3343EA14534FEA0432019CDD
:1005F00043EA0603A4F10C040294009CCDE900B484
:10060000FFF79FFE03B0BDE8F08F00200146F9E739
:100610002DE9F04D81EA030404F0004B21F0004580
:1006200014464FF0000A23F0004150EA050220D0A2
:1006300054EA01021DD0C5F30A570246C5F313035D
:10064000C1F31300C1F30A5640F4801543F480133C
:10065000A7EB0608101BD64608F2FD3873EB050021
:1006600002D308F1010801E092185B41B8F1000FD4
:1006700003DA00200146BDE8F08D00204FF4801120
:10068000064684460EE0171B73EB050705D3121BC5
:1006900063EB050306434CEA010C49084FEA3000BE
:1006A00092185B4150EA0107EDD152EA030012D0E3
:1006B00082EA040083EA0501084305D0101BAB4120
:1006C00006D20122002306E000224FF0004302E0A0
:1006D0006FF0010253101AEB06004CEB085110EBBF
:1006E0000A0041EB0B01BDE8F04DFFF71BBE70B5F2
:1006F00021F0004303430CD0C1F30A550024D5EB8D
:10070000040564EB0403D617AD1AB34102DB0020E5
:10071000014670BD201841EB025170BD0EB5C10FEE
:1007200080EAE0700844CA07002140F233438DE8B4
:100730000E000A460B46FFF704FE03B000BD0000A2
:1007400030B5041E71F1000404DB4FF00044404258
:1007500064EB0101141E73F1000405DB1C464FF02D
:100760000043524263EB0403994208BF904230BDFC
:10077000064C074D06E0E06840F0010394E80700EE
:1007800098471034AC42F6D3FFF702FD1CBA0008BC
:100790003CBA0008202A04DB203A00FA02F10020CB
:1007A00070479140C2F1200320FA03F319439040AF
:1007B0007047202A06DBCB17203A41FA02F043EAC1
:1007C000E07306E041FA02F3D040C2F1200291400A
:1007D0000843194670472DE9F04D00231A461B1AAD
:1007E0008A4103DB00200146BDE8F08DC1F30A52C7
:1007F000C1F3130141F480154FF0000BD10702D172
:1008000000186D41521E0027044640F2FF11384681
:1008100001EB620A3E468046024600204FF48011FA
:10082000FFF770FDC2197141BB1846EB0100B4EB34
:10083000030C75EB000C04D3E41A65EB00051746B6
:100840000E46241908F101006D4180463428E3DD8D
:10085000F91946EB0600091BA84103D24FF0FF32FD
:10086000134601E0002213461BEB070046EB0A513A
:10087000BDE8F04DFFF756BD70B58C1810F8015B60
:1008800015F0070301D110F8013B2A1106D110F829
:10089000012B03E010F8016B01F8016B5B1EF9D12D
:1008A0002B0705D40023521E0DD401F8013BFAE7B3
:1008B00010F8013BCB1A921C03E013F8015B01F81E
:1008C000015B521EF9D5A142D8D3002070BD0000B3
:1008D0002DE9F04104460D460027B8460026206861
:1008E000806800F00C0008B1012000E00020002822
:1008F0006AD02068806800F00070F0B1E0690128DB
:100900001BD1A069012818D10C250DE02F48864283
:1009100009D3042084F84500A06C40F00100A064D5
:100920000120BDE8F081761C20680068C0F38010CB
:100930000028EBD0402021680860602D0FD020688F
:10094000806800F0040050B12068806800F0020068
:1009500028B92068806840F01000216888600C2D5C
:100960000FD02068806800F0080050B120688068CF
:1009700000F0020028B92068806840F0200021685B
:100980008860602D03D06C2D03D10C2703E008276D
:1009900001E0042700BF00BF02F060FB80460EE0CC
:1009A00002F05CFBA0EB08000B2808D9042084F8B7
:1009B0004500A06C40F00100A0640120B1E7206870
:1009C000806838400028EBD10020AAE70094090095
:1009D00070B505466C6A94F8450004280ED094F86A
:1009E000450035280AD094F84500252803D1352044
:1009F00084F8450002E0152084F84500204601F007
:100A0000BFF870BD70B505466C6A042084F84500D7
:100A1000A06C40F00400A064204601F0DBF970BD3A
:100A200070B50446656A284601F0ABF870BD000059
:100A300070B594B006460C46154636B1012E1CD052
:100A4000022E32D0032E60D147E03C22344901A867
:100A5000FFF70EFC3248C06B10903148016C1191C9
:100A600090F844008DF848002D4890F845008DF826
:100A700049002B48806C139047E03C22294901A88B
:100A8000FFF7F6FB2748C06B10902648016C1191C8
:100A900090F844008DF84800224890F845008DF801
:100AA00049002048806C13902FE03C221E4901A889
:100AB000FFF7DEFB1C48C06B10901B48016C1191C6
:100AC00090F844008DF84800174890F845008DF8DC
:100AD00049001548806C139017E03C22134901A887
:100AE000FFF7C6FB1148C06B10901048016C1191C4
:100AF00090F844008DF848000C4890F845008DF8B7
:100B000049000A48806C139000BF00BF2CB125B18A
:100B10002A46214601A801F065FC14B070BD000012
:100B20009C030020E80300203404002080040020FF
:100B300010B5064801F0CAFC054801F0C7FC05489D
:100B400001F0C4FC044801F0C1FC10BD9C0300206E
:100B5000E8030020340400208004002070B504461F
:100B600000252068806800F00300012806D1206875
:100B7000006800F0010008B1012000E0002070B31F
:100B80002068806800F00D00012800D100E00020FE
:100B900050B100BF2068806840F002002168886082
:100BA00003202168086008E0042084F84500A06C58
:100BB00040F00100A064012070BD02F04FFA05462C
:100BC0000EE002F04BFA401B022809D9042084F8F9
:100BD0004500A06C40F00100A0640120ECE705E0B6
:100BE0002068806800F001000028EAD10020E3E7D7
:100BF00070B5044600252068806800F003000128D5
:100C000006D12068006800F0010008B1012000E072
:100C1000002078BB206880681749084008B9012087
:100C200000E0002040B9042084F84500A06C40F0AA
:100C30000100A064012070BD2068806840F00100C0
:100C40002168886002F00AFA05460DE002F006FA13
:100C5000401B022808D9042084F84500A06C40F00D
:100C60000100A0640120E6E72068006800F00100B0
:100C70000028EBD00020DEE73F00008070B506467C
:100C80002948006830B1082806D0102806D0182856
:100C900008D105E00C2505E00A2503E0082501E060
:100CA000062500BF00BF03F095FEB0FBF6F0401B29
:100CB000441EB4F5167F03D907201C49086026E0BE
:100CC000B52C03D306201949086020E03D2C03D33E
:100CD0000520164908601AE0132C03D30420134999
:100CE000086014E0072C03D30320104908600EE0CD
:100CF000042C03D302200D49086008E0022C03D322
:100D000001200A49086002E00020084908600848FC
:100D100001F0DCFB04F0BCFC04F0F4FC04F02CFD5E
:100D200004F064FD70BD00000C00002010000020E5
:100D30009C03002010B586B0044634B930484069A1
:100D400040F400102E4948613FE0012C06D12C48A8
:100D5000406940F400102A49486136E0022C06D16F
:100D60002748406940F40010254948612DE0032CD4
:100D700006D12348406940F400102149486124E02D
:100D8000042C06D11E48406940F400101C494861FB
:100D90001BE0052C06D11A48406940F400101849A0
:100DA000486112E0062C06D11548406940F4001055
:100DB0001349486109E0072C06D11148406940F405
:100DC00000100F49486100E000BF0E4830F81400E1
:100DD0000190012002900390032004900A4951F8E9
:100DE000240001A902F04AF8064A32F81410064A13
:100DF00052F82400002202F027F906B010BD0000CE
:100E000000100240E4B800086000002010B504465D
:100E1000044A32F81410044A52F82400002202F066
:100E200013F910BDE4B800086000002010B50446B6
:100E3000044A32F81410044A52F82400012202F045
:100E400003F910BDE4B80008600000200346042B3D
:100E500015D007DC7BB1012B0ED0022B0DD0032B5C
:100E600012D10BE0202B0BD0212B0AD0222B09D042
:100E7000232B09D107E008E007E006E005E004E0E5
:100E800003E002E001E000E000BF00BF0020704787
:100E90000020704710B5084808490860002208493A
:100EA0000648006806F054F806490448006806F051
:100EB00048F8002010BD0000180600201400002093
:100EC0007C0800203C08002070B504460D46002632
:100ED00000BF04E014F8010B07F012FF761C28682D
:100EE000B042F7D8024806F008F8002070BD0000B4
:100EF0001806002070B504460D4600262A462146F5
:100F00000548006806F024F80348006806F05FF81A
:100F10000646304670BD00001400002088B0002254
:100F2000142105200AF021F84C49086095E00023BF
:100F30005A1E03A9494800680AF045F89DF80C00BC
:100F40003128F3D100BF9DF805008DF804009DF80D
:100F500006008DF805009DF807008DF806009DF845
:100F600000008DF80700684607F014FE04463CB9FF
:100F70009DF800003A2803D09DF800003B28E2D1FC
:100F8000002C6AD19DF8070000069DF8061040EA83
:100F900001409DF8051040EA01209DF80410084327
:100FA0002F4A811A904231D00ADC2E49084478B188
:100FB0002D490844D8B12D49084400283BD12CE0E4
:100FC0002B480844D8B12B490844002833D12BE0E2
:100FD00000235A1E28A12A4800680AF0D0F80023EE
:100FE0005A1E28A1264800680AF0C9F834E00023F8
:100FF0005A1E29A1224800680AF0C1F82CE008F026
:1010000015FE0546284608F047FE25E008F09CF945
:101010000546284608F040FE1EE008F00DFB054698
:10102000284608F039FE17E008F0C4F905462846BE
:1010300008F032FE10E000235A1E1CA11048006880
:101040000AF09DF800BF684607F0A4FD18B99DF8A6
:1010500000003B28F7D100BF00BF68E70001002077
:10106000434F4D53B7BBB1C0F3FEFBFF07F20EEF8A
:10107000F0F5F9FE0C1405F541434B5F000000004C
:101080000401002053544D333246332D44697363B9
:101090006F766572790000003953656E6453797319
:1010A0007456657273696F6E0000000045393939F6
:1010B0000000000094B007F001FE00221E21052070
:1010C00009F053FFB3490860042009F023FFB24937
:1010D0000860B2A30FCBCDE90A23CDE90801B3A282
:1010E00007CA01AB07C353E100235A1E0CA9A94844
:1010F000006809F068FF4FF0FF31A74800680AF068
:101100003EF99DF8300031287ED108F059F80428C6
:101110007BD108F043F8049008F04CF8814607F0C2
:10112000FDFF059009F052F80446200E8DF82400CA
:10113000200C8DF82500200A8DF82600E0B28DF8ED
:1011400027000598082816DD08F040F8834608F0C7
:1011500031F8824608F028F80AFB00FAABEB1A4097
:10116000049901EB40010498B1FBF0F200FB12146A
:101170004FEA490911E008F029F8834608F01AF807
:10118000824608F011F80AFB00FAABEB1A4104980A
:101190000144B1FBF0F200FB12140598C0B28DF8C7
:1011A00028004FEA19408DF829004FEA19208DF8E0
:1011B0002A0009F0FF008DF82B0000F079FA8DF875
:1011C0002F0004EB09010498814207D90498001B01
:1011D00007900798A9EB0000069003E0CDF81C905B
:1011E00000200690002759E0384607F0BBFF8046F4
:1011F000781CC0B28DF82E00102108A807F0A6FDBB
:101200000798B0F5804F01E057E0BDE01AD9079E7E
:1012100000250BE008EB040101EB85304FF4804121
:1012200007F094FD681CC5B2A6F58046B6F5804F60
:10123000F0D87EB108EB040202EB8530B1B207F0C2
:1012400085FD07E0079828B1079A91B208EB0400E2
:1012500007F07CFD0698B0F5804F16D9069E002554
:1012600009E008EB85304FF4804107F06FFD681C02
:10127000C5B2A6F58046B6F5804FF2D866B1B1B2D8
:1012800008EB853007F062FD06E0069820B106986D
:1012900081B2404607F05AFD781CC7B200F008FA48
:1012A000B842A1DC44A007F06BFD00235A1E44A104
:1012B0004648006809F063FF66E09DF83000322878
:1012C0001DD1002718E007F13100C0B28DF80800E9
:1012D000791CC8B207F0A6FD0446200C8DF80D005D
:1012E000200A8DF80E00E0B28DF80F000C2101A845
:1012F00007F02CFD781CC7B2022FE4DB44E09DF818
:101300003000332802D109F085FA3DE09DF8300025
:10131000342802D109F0BAF936E09DF830003528BA
:1013200002D109F01FFA2FE09DF83000362802D1D3
:1013300009F0E0F928E09DF83000372803D124A017
:1013400007F01EFD20E09DF83000382803D122A0D0
:1013500007F016FD18E09DF83000392802D109F099
:1013600075FA11E09DF8300049280AD100235A1E71
:101370000CA90848006809F026FE0CA807F000FD3B
:1013800002E00CA807F0FCFC0348006809F0DAFF53
:10139000AAE6000004010020080100204F53435F2B
:1013A00079797979787878784348307847454E5F0D
:1013B0007843485F46787878535F4F4B00000000D1
:1013C000324461746153656E740000000C010020AA
:1013D000475F4E5800000000475F4F4B0000000081
:1013E00000B585B0302000900020019002200290CE
:1013F00069464FF0904001F041FD05B000BD00B5D9
:1014000085B03020009003200190002002906946B2
:101410004FF0904001F032FD05B000BD00200149C1
:1014200008607047000000200220014908607047F2
:101430000000002070B50446656A284601F0B2F845
:101440000120287170BD70B50446656A284601F018
:1014500079F80120287170BD70B505466C6A206965
:1014600040F004002061204601F09EF80120207128
:1014700070BD70B505466C6A206940F004002061BB
:10148000204601F061F80120207170BD70B504465E
:10149000656A284601F087F870BD70B50446656A34
:1014A000284601F050F870BDF8B504460D461646C2
:1014B000002714B1012C04D101E0002701E010271E
:1014C00000BF00BF3946064801F08AF900203346C4
:1014D0002A4639460090024801F0E4F8F8BD0000C1
:1014E0001803002010B594B00446012C06D0022C3D
:1014F0001CD0032C32D0042C60D147E03C2233496D
:1015000001A8FEF7B5FE3148C06B10902F48016C62
:10151000119190F844008DF848002C4890F845004F
:101520008DF849002948806C139047E03C222849F7
:1015300001A8FEF79DFE2648C06B10902448016C60
:10154000119190F844008DF84800214890F845002A
:101550008DF849001E48806C13902FE03C221D49F5
:1015600001A8FEF785FE1B48C06B10901948016C5E
:10157000119190F844008DF84800164890F8450005
:101580008DF849001348806C139017E03C221249F3
:1015900001A8FEF76DFE1048C06B10900E48016C5C
:1015A000119190F844008DF848000B4890F84500E0
:1015B0008DF849000848806C139000BF00BF119857
:1015C0000068406880B214B010BD00009C03002089
:1015D000E8030020340400208004002010B50468D3
:1015E00063604468102C04D10468A2600468E16060
:1015F00003E00468A1600468E26010BD10B504F067
:10160000B7FF0021044801F0DFF81021024801F083
:10161000DBF8FFF7E5FE10BD1803002010B504F05D
:1016200021F9FFF7ECFE04F0AFFF10BD86B00022F9
:101630001421052009F099FC1B49086007F04AFDB8
:1016400031E000235A1E01A91748006809F0BBFCCD
:101650009DF80400312826D09DF80400322822D0BD
:101660009DF80400332802D11048007D1BE09DF84E
:10167000040034280AD10D48007DA0B907F0DAFB38
:10168000FFF7CCFF0120094908750CE09DF8040024
:10169000352808D10548007D012804D1FFF7AEFFA9
:1016A000002002490875CCE7480100205092002034
:1016B000014890F82100704710920020F0B593B0D7
:1016C000024600260025C868012800D000E000BFBF
:1016D00000BF92F84400012802D1022013B0F0BDEF
:1016E000012082F8440000BF10688068C0F38000C9
:1016F000002878D14868052818D21068006B0F7947
:1017000007EB47074FEA470C1F2707FA0CF7B843C8
:10171000176838630F7907EB47077F000868B84000
:1017200017683F6B38431768386355E048680A28E4
:101730001AD21068406B0F797F1F07EB47074FEAFB
:10174000470C1F2707FA0CF7B843176878630F791F
:101750007F1F07EB47077F000868B84017687F6B5B
:1017600038431768786337E048680F281AD2106842
:10177000806B0F790A3F07EB47074FEA470C1F279B
:1017800007FA0CF7B8431768B8630F790A3F07EBFD
:1017900047077F000868B8401768BF6B3843176871
:1017A000B86319E01068C06B0F790F3F07EB47076C
:1017B0004FEA470C1F2707FA0CF7B8431768F8637E
:1017C0000F790F3F07EB47077F000868B84017689D
:1017D000FF6B38431768F8631068806800F00C00EE
:1017E00010B1012001E0B3E10020002877D10868A2
:1017F0000A2817D9106880690F780A3F07EB470C51
:10180000072707FA0CF7B8431768B8610F780A3F43
:1018100007EB47078868B8401768BF6938431768FF
:10182000B86114E0106840690F7807EB470C072790
:1018300007FA0CF7B843176878610F7807EB47078A
:101840008868B84017687F693843176878614869C5
:101850001768FF68C7F3C1077F0000FA07F408693B
:10186000012806D0022816D0032826D0042849D102
:1018700036E01068006EBC4F384017683866106854
:10188000006E0F784FF0004C4CEA876727433843CF
:10189000176838666FE01068406EB34F38401768BD
:1018A00078661068476E08784FF0004C4CEA80600C
:1018B00020430743106847665DE01068806EAA4FBA
:1018C00038401768B8661068806E0F784FF0004C8B
:1018D0004CEA8767274338431768B8664BE04BE00C
:1018E0001068C06EA04F38401768F8661068C06E68
:1018F0000F784FF0004C4CEA87672743384317684E
:10190000F86638E01068006E00F0F8400F78B0EB31
:10191000876F05D11068006E20F0004017683866A8
:101920001068406E00F0F8400F78B0EB876F05D17B
:101930001068406E20F00040176878661068806E6E
:1019400000F0F8400F78B0EB876F05D11068806E1B
:1019500020F000401768B8661068C06E00F0F840CC
:101960000F78B0EB876F05D11068C06E20F0004093
:101970001768F86600BF00BF1068806800F00300B9
:10198000012806D11068006800F0010008B10120AC
:1019900000E00020002877D1C86801280CD010682A
:1019A000D0F8B00091F800C0012707FA0CF7B8434F
:1019B0001768C7F8B0003EE01068D0F8B00091F8A2
:1019C00000C0012707FA0CF738431768C7F8B000C2
:1019D00008680A2818D9106887690878093800EB60
:1019E000400C072000FA0CF08743106887610878E4
:1019F000093800EB40008F6807FA00F01768BF69EC
:101A000038431768B86116E0106840690F787F1C8A
:101A100007EB470C072707FA0CF7B84317687861FC
:101A20000F787F1C07EB47078868B84017687F6905
:101A30003843176878611068B0F1A04F03D04B4F5E
:101A40001068B84201D14A4800E04A480346086895
:101A5000102803D1986800F4000070B108681128BC
:101A600003D1986800F0807038B10868122873D1EB
:101A7000986800F4800000286ED11068B0F1A04F83
:101A800003D13A48009018E05BE0384F1068B84244
:101A900003D14FF0A04000900FE0374F1068B842DC
:101AA00002D13648009008E0344F1068B84202D1A5
:101AB0003148009001E0002000901068806800F03C
:101AC0000300012806D11068006800F0010008B189
:101AD000012000E00020A8BB009870B10098806849
:101AE00000F00300012806D10098006800F0010012
:101AF00008B1012000E0002020BB086810280DD1AB
:101B00001068B0F1A04F09D1986840F400009860C7
:101B100000E06D1CB5F5347FFBD31DE0086811288B
:101B200008D11068B0F1A04F04D1986840F08070DF
:101B3000986011E0086812280ED1986840F480007F
:101B4000986009E0FFE7042082F84500012603E0E1
:101B5000042082F84500012600BF002082F84400DE
:101B600000BF3046BAE5000000F0FF8300010050DE
:101B70000003005000070050000400500005005012
:101B80007047704770B594B00446002514B9012021
:101B900014B070BD022084F845006C212046FEF789
:101BA00097FE0546012D10D02068C06840F4001053
:101BB0002168C8602046FEF7D1FF0546012D03D0FD
:101BC000012084F8450000E00125012D7ED0206829
:101BD00040686FF30A002168486040F2FF70216896
:101BE00008602068806820F0E040216888602068F4
:101BF000806840F00050216888602068C0686A49A9
:101C000008402168C8602068406968490840216828
:101C100048612068806900F0784021688861206808
:101C2000006A00F0F020216808622068406A00F035
:101C3000FF20216848622068806A00F0FF20216848
:101C400088622068006B5A49084021680863206850
:101C5000406B574910390840216848632068806B01
:101C6000534910390840216888632068C06B40F2EE
:101C7000DF7188432168C8632068006E4D490840C1
:101C8000216808662068406E4A4908402168486615
:101C90002068806E47490840216888662068C06EC9
:101CA000444908402168C8662068D0F8A00042492D
:101CB00008402168C1F8A0002068D0F8A4003E497F
:101CC00008402168C1F8A400206800E064E0D0F872
:101CD000B000394908402168C1F8B0002068D0F848
:101CE000B40020F07F102168C1F8B4002068B0F182
:101CF000A04F03D031492068884201D1304800E02C
:101D0000304806462068B0F1A04F02D12B48019020
:101D100017E02A492068884203D14FF0A040019083
:101D20000FE029492068884202D12848019008E044
:101D300026492068884202D12348019001E0002012
:101D400001902068806800F00300012806D1206817
:101D5000006800F0010008B1012000E00020A0B9F7
:101D6000019870B10198806800F00300012806D145
:101D70000198006800F0010008B1012000E0002097
:101D800018B9B06812490840B060204600F052F916
:101D90000020A06484F8450000BF002084F84400BF
:101DA00000BF2846F4E6000004800080070000C061
:101DB000300882E000F0FF030100F8FF000100504E
:101DC00000030050000700500004005000050050C0
:101DD000E0D03CFE704700002DE9F04194B004468D
:101DE00000270025A8461CB9012014B0BDE8F081E9
:101DF00094F8450010BB204600F098F920688068F0
:101E000000F08050D0B92046FEF7A8FE0746012F0B
:101E100014D0022084F845002068806820F04050EB
:101E2000216888602068806840F080502168886060
:101E300001E008F10108B8F5347FFAD32068806822
:101E400000F04050B0F1805F07D0042084F84500D6
:101E5000A06C40F00100A064012794F8450004281C
:101E60007ED020688068C0F38000002878D10220EE
:101E700084F845002068B0F1A04F03D0674920687E
:101E8000884201D1664800E0664806462068B0F105
:101E9000A04F02D16148019017E060492068884254
:101EA00003D14FF0A04001900FE05F4920688842C5
:101EB00002D15E48019008E05C492068884202D166
:101EC0005948019001E0002001902068806800F0EE
:101ED0000300012806D12068006800F0010008B165
:101EE000012000E00020C0B9019870B1019880681D
:101EF00000F00300012806D10198006800F00100FD
:101F000008B1012000E0002038B9B06820F440306A
:101F1000B060B06861680843B0602068C068444938
:101F200008402168C860A06B012802D04FF480519E
:101F300000E00021E06941EA4030E1680843A1681F
:101F400008430543606A012808D1E06930B9208D53
:101F5000401E4FF4803141EA40400543E06A00E012
:101F600055E0012822D030492068884203D02F490B
:101F70002068884216D1E06AB0F5307F02D14FF474
:101F8000E07010E0E06AB0F5807F02D14FF430706D
:101F900009E0E06AB0F5E07F02D14FF4807002E022
:101FA000E06A00E0E06A216B08430543206880682E
:101FB00000F00C0008B1012000E0002060B92068AA
:101FC000C06844F2020188432168C860A0698103A7
:101FD000606B41EA400005432068C06828432168DF
:101FE000C8602068006B20F00F002168086320693A
:101FF000012806D12068006B216A491E0843216828
:1020000008630020A064012084F8450003E0042058
:1020100084F8450001273846E7E60000000100503B
:10202000000300500007005000040050000500505D
:1020300007C0F0FF10B504462068B0F1A04F15D1DD
:1020400032480068401E314908600846006828B9D7
:102050002F48406920F080502D49486101212D48CA
:1020600000F0A4FE206C00F011FC4EE02A4920682C
:10207000884215D125480068401E2449086008465A
:10208000006828B92248406920F080502049486102
:102090000221204800F08AFE206C00F0F7FB34E0BB
:1020A0001E492068884216D11D480068401E1C4900
:1020B00008600846006828B91548406920F00050BB
:1020C000134948614FF48051164800F06FFE206CB0
:1020D00000F0DCFB19E014492068884215D1104853
:1020E0000068401E0E4908600846006828B9084884
:1020F000406920F00050064948614FF400510948FA
:1021000000F054FE206C00F0C1FB10BD0400002064
:102110000010024000080048000100500004005078
:1021200008000020000400480005005010B586B0EB
:1021300004462068B0F1A04F48D19B480068401C7D
:10214000994908600846006801280CD19748406901
:1021500040F08050954948610846C06A20F4F87004
:1021600040F48070C862012001900320029000209A
:10217000039001A98E4800F081FE8E488E490860C8
:102180000020486000218C4881608021C1608B481C
:102190000068102803D089480068182804D100215D
:1021A00085484161016105E04FF4806182484161E9
:1021B000891001612021804881610902C16100F01C
:1021C00095FD00BF7C4820644462EAE07C492068B9
:1021D000884248D174480068401C7349086008462A
:1021E000006801280CD17148406940F080506F4967
:1021F00048610846C06A20F4F87040F48070C862F4
:1022000002200190032002900020039001A9684859
:1022100000F034FE6B486C490860002048600021E3
:10222000694881608021C16064480068102803D03B
:1022300062480068182804D10021634841610161A7
:1022400005E04FF4806160484161891001612021FF
:102250005D4881610902C16100F048FD00BF5A4834
:10226000206444629DE05949206888424AD1584818
:102270000068401C564908600846006801280CD1D7
:102280004A48406940F00050484948610846C06AE1
:1022900020F4785040F40050C8624FF40050019090
:1022A000032002900020039001A94A4800F0E6FDB7
:1022B00044485030484908600020486000214648A2
:1022C00081608021C1603D480068102803D03B48F0
:1022D0000068182804D100213F484161016105E0F0
:1022E0004FF480613C4841618910016120213A48E6
:1022F00081610902C16100F0F9FC00BF3648206429
:1023000044624EE03549206888424AD1304800682E
:10231000401C2F4908600846006801280CD123485A
:10232000406940F00050214948610846C06A20F4E5
:10233000785040F40050C8624FF480500190032060
:1023400002900020039001A9224800F097FD1D484B
:102350001430234908600020486000212048816033
:102360008021C16015480068102803D01348006818
:10237000182804D100211A484161016105E04FF499
:1023800080611748416189100161202114488161F1
:102390000902C16100F0AAFC00BF11482064446238
:1023A00000BF06B010BD0000040000200010024075
:1023B0000008004808000240CC0400200C00002067
:1023C00000010050080402400405002000040050F1
:1023D00008000020000400483C05002000050050D3
:1023E000740500202DE9F04104460D4616460027ED
:1023F00000BF94F84400012802D10220BDE8F0811A
:10240000012084F8440000BF2068B0F1A04F03D041
:1024100028492068884204D12748006800F01F003E
:1024200003E02648006800F01F00002839D120464C
:10243000FEF7DEFB0746012F34D094F84500222832
:1024400003D1322084F8450002E0122084F84500D0
:102450000020A0641A48216C88621A48216CC86266
:102460001948216C08631C202168086020684068B6
:1024700040F01000216848602068C06840F001000A
:102480002168C860226802F1400133462A46206C68
:1024900000F050FC2068806840F0040021688860EB
:1024A00000E0012700BF002084F8440000BF384648
:1024B000A4E7000000010050080300500807005086
:1024C000D1090008210A0008050A000870B5044671
:1024D000002500BF94F84400012801D1022070BDFE
:1024E000012084F8440000BF6C212046FEF7F0F97B
:1024F000054605BB2068C06820F001002168C8605F
:10250000206C00F092F9054615B1042084F84500CE
:102510002068406820F010002168486025B92046F6
:10252000FEF71CFB054602E02046FEF717FB15B937
:10253000012084F8450000BF002084F8440000BF5B
:102540002846CCE770477047704770B503460024B3
:10255000002500BF5879012801D1022070BD01205B
:10256000587100BF022018711868046840F6FE70A8
:1025700090408443D1E9000640EA060505FA02F0DE
:1025800004431868046018680668C02090408643B9
:10259000186806600120187100BF0020587100BF44
:1025A00000BFDBE770477047704710B504460CB9B1
:1025B000012010BD207910B9204600F009F8022052
:1025C000207100202061012020710020F1E700002F
:1025D00010B586B004462D492068884253D12C4856
:1025E000C06940F000502A49C861302001900320A2
:1025F00002900020039001A94FF0904000F03EFCB3
:102600002448254908601020486000212248816044
:102610008021C160490001618900416120218161FF
:102620000902C16100F062FB00BF1B48A060446268
:1026300000BF00BF1948006840F400501749086007
:1026400000BF14481430164908601020486000216B
:10265000134881608021C1604900016189004161A6
:10266000202181610902C16100F040FB00BF0C48DC
:10267000E060446200BF00BF0848006840F480404A
:102680000649086000BF06B010BD0000007400409D
:1026900000100240300002402C03002000000140E6
:1026A000640300202DE9F04704460D46164698467F
:1026B000089F4FF0000900BF6079012802D1022075
:1026C000BDE8F0870120607100BF022020714DB984
:1026D0003748A16888623748A168C8623648A1684F
:1026E000086308E03548E16888623548E168C862F7
:1026F0003448E1680863CDB92068006840F4805030
:102700002168086027B1042F06D0082F0CD107E0FC
:10271000206800F1080908E0206800F10C0904E0D5
:10272000206800F1100900E000BF19E0206800688F
:1027300040F080502168086027B1042F06D0082F90
:102740000CD107E0206800F1140908E0206800F1CE
:10275000180904E0206800F11C0900E000BF00BF78
:1027600065B92068006840F400502168086043465D
:102770004A463146A06800F0DDFA0BE020680068A8
:1027800040F000502168086043464A463146E06800
:1027900000F0D0FA206800680121A94008432168B0
:1027A000086000BF0020607100BF00BF88E7000024
:1027B000351400088D140008591400084714000847
:1027C0009B14000873140008024610680068012377
:1027D0008B409843136818600120107100207047E7
:1027E00070B504460D460026206800684FF48051FD
:1027F000A940884321680860206801680120A8403A
:1028000081432068016025B9A06800F00EF80646F3
:1028100003E0E06800F009F8064616B104202071D4
:1028200001E001202071304670BD70B504460025DE
:102830002068006820F001002168086000F00EFCAC
:10284000054613E000F00AFC401BB0F57A7F0DD975
:10285000606B40F020006063032084F8210000BF1B
:10286000002084F8200000BF032070BD20680068AD
:1028700000F001000028E5D1012084F8210000BF0C
:10288000002084F8200000BF00BFEEE7014609B930
:102890000120704791F82100022801D10120F8E7BA
:1028A0000868006820F001000A68106000200A68CB
:1028B00010600A6850600A6890600A68D060F94A3F
:1028C0000868904254D9F74A783A0868904201D192
:1028D000022049E0F34A643A0868904201D120207E
:1028E00042E0F04A503A0868904201D140153BE07E
:1028F000EC4A3C3A0868904202D14FF4005033E071
:10290000E84A283A0868904202D14FF400302BE0A0
:10291000E44A143A0868904202D14FF4001023E0D0
:10292000E04A0868904201D180041DE0DE4A086850
:10293000904201D1022017E0DB4A1432086890422D
:1029400001D1202010E0D84A28320868904201D1F5
:10295000401509E0D44A3C320868904202D14FF455
:10296000005001E04FF40030CF4A121F106053E0D6
:10297000CC4A783A0868904201D1022049E0C94A1D
:10298000643A0868904201D1202042E0C54A503A9A
:102990000868904201D140153BE0C24A3C3A0868C1
:1029A000904202D14FF4005033E0BE4A283A086802
:1029B000904202D14FF400302BE0BA4A143A086832
:1029C000904202D14FF4001023E0B64A08689042CA
:1029D00001D180041DE0B44A0868904201D1022070
:1029E00017E0B14A14320868904201D1202010E06B
:1029F000AD4A28320868904201D1401509E0AA4A40
:102A00003C320868904202D14FF4005001E04FF48C
:102A10000030A44A803A5060A24A0868904254D9D3
:102A2000A04A783A0868904201D1082049E09D4ABE
:102A3000643A0868904201D1802042E0994A503AB5
:102A40000868904201D1C0143BE0964A3C3A0868BD
:102A5000904202D14FF4004033E0924A283A08688D
:102A6000904202D14FF400202BE08E4A143A0868BD
:102A7000904202D14FF4000023E08A4A0868904255
:102A800001D100051DE0884A0868904201D1082064
:102A900017E0854A14320868904201D1802010E086
:102AA000814A28320868904201D1C01409E07E4A68
:102AB0003C320868904202D14FF4004001E04FF4EC
:102AC0000020794A121F106053E0764A783A08686D
:102AD000904201D1082049E0724A643A0868904265
:102AE00001D1802042E06F4A503A0868904201D1FB
:102AF000C0143BE06B4A3C3A0868904202D14FF464
:102B0000004033E0674A283A0868904202D14FF407
:102B100000202BE0634A143A0868904202D14FF437
:102B2000000023E05F4A0868904201D100051DE0E3
:102B30005D4A0868904201D1082017E05A4A1432D1
:102B40000868904201D1802010E0574A2832086876
:102B5000904201D1C01409E0534A3C3208689042C7
:102B600002D14FF4004001E04FF400204D4A803A7A
:102B700050604C4A0868904254D94A4A783A0868EA
:102B8000904201D1042049E0464A643A08689042E4
:102B900001D1402042E0434A503A0868904201D1B6
:102BA00000153BE03F4A3C3A0868904202D14FF49E
:102BB000804033E03B4A283A0868904202D14FF403
:102BC00080202BE0374A143A0868904202D14FF433
:102BD000800023E0334A0868904201D1C0041DE020
:102BE000314A0868904201D1042017E02E4A14327D
:102BF0000868904201D1402010E02B4A2832086832
:102C0000904201D1001509E0274A3C320868904201
:102C100002D14FF4804001E04FF48020224A121F7D
:102C2000106055E01F4A783A0868904201D10420AC
:102C30004CE01C4A643A0868904201D1402045E0CB
:102C4000184A503A0868904201D100153EE0154AF2
:102C50003C3A0868904202D14FF4804036E0114A75
:102C6000283A0868904202D14FF480202EE00D4AA5
:102C7000143A0868904202D14FF4800026E0094AD5
:102C80000868904201D1C00420E0074A08689042D9
:102C900001D104201AE0044A14320868904205D198
:102CA000402013E080000240080402400D4A0868FA
:102CB000904201D1001509E00A4A14320868904296
:102CC00002D14FF4804001E04FF48020064A50606A
:102CD0000020486381F8210000BF81F8200000BF78
:102CE00000BFD6E530040240000002400146002249
:102CF00009B901207047022081F8210008680268A4
:102D000043F6F0708243D1E901031843CB681843BE
:102D10000B6918434B6918438B691843CB691843F7
:102D200002430868026000204863012081F8210006
:102D30000020DFE72DE9F04104460D4616461F4608
:102D400000BF94F82000012802D10220BDE8F081E4
:102D5000012084F8200000BF022084F821002068B0
:102D6000006820F00100216808603B463246294691
:102D70002046FEF733FC2068006840F0020021681E
:102D800008602068006840F004002168086020683E
:102D9000006840F00800216808602068006840F082
:102DA0000100216808600020D0E70000F0B502466D
:102DB0000B46002400210025002058E0012606FAD9
:102DC00000F403EA0401A14250D116684FEA400C16
:102DD000032707FA0CF7BE431660C70802F1200666
:102DE00056F8276047074FEAD76C0F2707FA0CF70A
:102DF000BE434FEAD00C02F1200747F82C609668DA
:102E00004FEA400C032707FA0CF7BE439660576859
:102E100001268640B7435760D6684FEA400C032727
:102E200007FA0CF7BE43D6608607370F0F2606FA5F
:102E300007F5104E870856F82770AF434FEA900CFD
:102E400046F82C700C4E36688E430B4F3E603E1D8C
:102E500036688E433F1D3E603E1D36688E433F1DE3
:102E60003E603E1D36688E433F1D3E60401C10286C
:102E7000A4D3F0BD0800014000040140F0B50346B2
:102E80000A460025002400200021C9E0012606FA98
:102E900001F5166806EA0504AC426FD15668022EA9
:102EA00002D05668122E13D1CF0803F1200656F82F
:102EB00027004E07F70E0F26BE40B0434F07FF0E08
:102EC0001669BE403043CF0803F1200646F82700BC
:102ED00018684F000326BE40B043167906F003067B
:102EE0004F00BE40304318605668012E08D0566827
:102EF000022E05D05668112E02D05668122E13D11C
:102F000098684F000326BE40B0434F00D668BE40CD
:102F100030439860586801268E40B0431679C6F356
:102F200000168E4030435860D8684F000326BE40DC
:102F3000B0434F009668BE403043D860566806F0F4
:102F40008056B6F1805F6AD1374EB66946F0010609
:102F5000354FBE614FEAB7368F0856F827008E0707
:102F6000370F0F26BE40B043B3F1904F01D100267A
:102F70001AE02E4EB34202D1012615E04FE02C4E4E
:102F8000B34201D102260FE02A4EB34201D10326FB
:102F90000AE0294EB34201D1042605E0274EB34290
:102FA00001D1052600E006268F073F0FBE403043C3
:102FB000234E8F0846F82700224E3068A0435668FB
:102FC00006F48036B6F5803F00D120431D4E3060B8
:102FD000361D3068A043566806F40036B6F5003F4B
:102FE00000D12043174E361D3060361D3068A04397
:102FF000566806F48016B6F5801F00D12043114EA6
:1030000008363060361D3068A043566806F4001656
:10301000B6F5001F00D120430A4E0C363060491C23
:103020001029FFF433AFF0BD001002400004004847
:1030300000080048000C0048001000480014004838
:1030400008000140000401400AB1018300E041830F
:103050007047000000487047000101010148006806
:1030600070470000A000002002480068401C014991
:1030700008607047A000002010B50848006840F0C4
:10308000100006490860032000F088F8002000F0D6
:1030900007F800F017F8002010BD000000200240E3
:1030A00070B5044601F064FC4FF47A71B0FBF1F5A1
:1030B000284602F021F900222146501E00F02FF888
:1030C000002070BD10B50748806940F00100054937
:1030D0008861032000F062F800221146501E00F0C3
:1030E0001EF810BD0010024000BF00F01F020121B9
:1030F0009140034A430942F8231000BF7047000083
:1031000080E200E000BF00F01F020121914042096F
:10311000920002F1E022C2F8001100BF70472DE9D1
:10312000F05F80460D461646002702F07DFC0746FC
:1031300039462A46334601F00700C0F1070ABAF1C2
:10314000040F02D94FF0040A01E0C0F1070AD1468A
:1031500000F1040ABAF1070F02D24FF0000A01E0B1
:10316000A0F1030AD4464FF0010A0AFA09FAAAF1BB
:10317000010A0AEA020A0AFA0CFA4FF0010B0BFAEA
:103180000CFBABF1010B0BEA030B4AEA0B042146E3
:10319000404602F051FCBDE8F09F000000BF00F087
:1031A0000702064B19684FF6FF031940044B0B4307
:1031B00043EA0221014B196000BF70470CED00E0AB
:1031C0000000FA0570B505460C4604F08000802822
:1031D00008D104F07F00C0EBC00605F1280000EB29
:1031E000860105E0C4EBC40605F5847000EB86019A
:1031F0001AB9002088728B8004E001208872CB808D
:10320000180C0881002070BD70B504460D46C5EB52
:10321000C50304F1280101EB83010A692946D4F8AA
:103220001C0204F067F970BD70B504460D46C5EB8D
:10323000C50304F5847101EB83010A692946D4F8BA
:103240001C0204F0B8F970BD70B502460B4603F0DD
:103250008000802808D103F07F00C0EBC00402F199
:10326000280000EB840107E003F07F00C0EBC004FE
:1032700002F5847000EB840103F07F00087003F016
:103280008000C009487000BF92F8E801012801D110
:10329000022070BD012082F8E80100BF887A002872
:1032A00057D1487850B30C786400106830F8140097
:1032B00000F0400078B10C786400106830F8140019
:1032C00048F68F74204048F2C00420430D786D000A
:1032D000146824F815000D786D00146834F8154052
:1032E00048F6BF7504EA050040F4004444F0800449
:1032F0000E787600156825F81640F7E00C78640023
:10330000106830F8140000F4804078B10C78640044
:10331000106830F8140048F68F7420404CF2800496
:1033200020430D786D00146824F815000D786D00A9
:10333000146834F815404BF68F7504EA050040F424
:10334000004444F080040E787600156825F8164095
:10335000CCE04878002864D10C786400106830F81C
:10336000140000F4804078B10C786400106830F8E4
:10337000140048F68F7420404CF2800420430D78EE
:103380006D00146824F815000C786400106830F89B
:10339000140000F0400078B10C786400106830F838
:1033A000140048F68F74204048F2C00420430D7882
:1033B0006D00146824F815000C786400106830F86B
:1033C000140048F68F74204048F2C00420430D7862
:1033D0006D00146824F815000D786D00146834F839
:1033E00015404BF68F7504EA050040F4004444F0A4
:1033F00080040E787600156825F816400D786D006B
:10340000146834F8154048F6BF7504EA050040F426
:10341000004444F080040E787600156825F81640C4
:1034200064E00C786400106830F8140000F4804008
:1034300078B10C786400106830F8140048F68F7486
:1034400020404CF2800420430D786D00146824F86D
:1034500015000C786400106830F8140000F040008B
:1034600078B10C786400106830F8140048F68F7456
:10347000204048F2C00420430D786D00146824F801
:1034800015000C786400106830F8140048F68F744A
:1034900020404CF2800420430D786D00146824F81D
:1034A00015000D786D00146834F8154048F6BF75A6
:1034B00004EA050040F4004444F080040E787600ED
:1034C000156825F816400D786D00146834F815401D
:1034D0004BF68F7504EA050040F4004444F0800484
:1034E0000E787600156825F8164000BF00BF002052
:1034F00082F8E80100BF00BFCBE670B502460B467C
:1035000003F08000802808D103F07F00C0EBC004E6
:1035100002F1280000EB840105E0C3EBC30402F5CF
:10352000847000EB84010020887003F07F00087035
:10353000C3F3C010487000BF92F8E801012801D120
:10354000022070BD012082F8E80100BF487870B306
:103550000C786400106830F8140000F0400078B176
:103560000C786400106830F8140048F68F7420401E
:1035700048F2C00420430D786D00146824F815004B
:103580000D786D00146834F8154048F6BF7504EAEC
:10359000050080F0100080F0200040F4004444F06A
:1035A00080040E787600156825F816402EE00C7819
:1035B0006400106830F8140000F4804078B10C7892
:1035C0006400106830F8140048F68F7420404CF204
:1035D000800420430D786D00146824F815000D78E0
:1035E0006D00146834F815404BF68F7504EA050039
:1035F00080F4805080F4005040F4004444F0800493
:103600000E787600156825F8164000BF00BF002030
:1036100082F8E80100BF00BF93E7024601F07F0097
:10362000C0EBC00302F5847000EB8300008B80B216
:1036300070472DE9F04104460D46002705F0800053
:10364000802808D105F07F00C0EBC00604F12800F7
:1036500000EB860107E005F07F00C0EBC00604F533
:10366000847000EB860105F07F00087005F0800093
:10367000C0094870CA60CB7000BF94F8E801012807
:1036800002D10220BDE8F081012084F8E80100BFEA
:10369000C87830B1012838D0022814D0032846D188
:1036A00021E00E787600206830F8160048F68F1674
:1036B000304040F4007691F800C04FEA4C0C20688E
:1036C00020F81C6033E00E787600206830F8160091
:1036D00048F68F16304091F800C04FEA4C0C26682F
:1036E00026F81C0023E00E787600206830F81600DB
:1036F00048F68F16304040F4C06091F800C04FEAA1
:103700004C0C266826F81C0011E00E787600206824
:1037100030F8160048F68F16304040F4806691F875
:1037200000C04FEA4C0C206820F81C6000BF00BFAE
:103730000E787600206830F8160048F68F76304014
:1037400048F2800630430E78304391F800C04FEACB
:103750004C0C266826F81C00887A00287CD1487812
:10376000E0B3888840104FEA400C2068B0F8506001
:10377000087806EBC000266806F5806646F810C09B
:103780000E787600206830F8160000F0400088B10E
:103790000E787600206830F8160048F68F763040B4
:1037A00048F2C006304391F800C04FEA4C0C26683E
:1037B00026F81C0091F800C04FEA4C0C266836F839
:1037C0001C6048F6BF7C06EA0C0080F0200040F444
:1037D000004646F0800691F8008000E006E04FEADF
:1037E0004808D4F800C02CF81860ABE18888401075
:1037F0004FEA400C2068B0F85060087806EBC00033
:10380000001D266806F5806646F810C02068B0F8EE
:1038100050C008780CEBC000801DD4F800C00CF537
:10382000806C0CEB4006D1F80CC0BCF13E0F19D9EE
:10383000D1F80CC0CCF34F1091F80CC00CF01F0C59
:10384000BCF1000F03D1A0F1010C1FFA8CF04FF472
:10385000004C4CEA802C00E04FE01FFA8CFCC6F8CC
:1038600000C014E0D1F80CC0CCF34F0091F80CC0AC
:103870000CF0010CBCF1000F03D000F1010C1FFA99
:103880008CF04FF6FF7C0CEA802CC6F800C00E7856
:103890007600206830F8160000F4804088B10E7879
:1038A0007600206830F8160048F68F7630404CF2EB
:1038B0008006304391F800C04FEA4C0C266826F889
:1038C0001C0091F800C04FEA4C0C266836F81C60CA
:1038D0004BF68F7C06EA0C0080F4805080F4005098
:1038E00040F4004646F0800691F800804FEA480810
:1038F000D4F800C02CF8186024E10E787600206817
:1039000030F8160040F4807048F68F76304048F268
:103910008006304391F800C04FEA4C0C266826F828
:103920001C00C88840104FEA400C2068B0F8506076
:10393000087806EBC000266806F5806646F810C0D9
:10394000088940104FEA400C2068B0F850600878B1
:1039500006EBC000001D266806F5806646F810C01C
:103960004878002879D10E787600206830F8160063
:1039700000F4804088B10E787600206830F8160098
:1039800048F68F7630404CF28006304391F800C004
:103990004FEA4C0C266826F81C000E78760020684A
:1039A00030F8160000F0400088B10E7876002068EC
:1039B00030F8160048F68F76304048F2C0063043A3
:1039C00091F800C04FEA4C0C266826F81C000E78CF
:1039D0007600206830F8160048F68F76304048F2BE
:1039E000C006304391F800C04FEA4C0C266826F818
:1039F0001C0091F800C04FEA4C0C266836F81C6099
:103A00004BF68F7C06EA0C0080F4805080F4005066
:103A100040F4004646F0800691F800804FEA4808DE
:103A2000D4F800C02CF8186091F800C04FEA4C0C94
:103A3000266836F81C6048F6BF7C06EA0C0040F4A5
:103A4000004646F0800691F800804FEA4808D4F816
:103A500000C02CF8186075E0FFE70E78760020684B
:103A600030F8160000F4804088B10E7876002068A7
:103A700030F8160048F68F7630404CF2800630431E
:103A800091F800C04FEA4C0C266826F81C000E780E
:103A90007600206830F8160000F0400088B10E78FB
:103AA0007600206830F8160048F68F76304048F2ED
:103AB000C006304391F800C04FEA4C0C266826F847
:103AC0001C000E787600206830F8160048F68F76D5
:103AD00030404CF28006304391F800C04FEA4C0C65
:103AE000266826F81C0091F800C04FEA4C0C2668A6
:103AF00036F81C6048F6BF7C06EA0C0040F400462D
:103B000046F0800691F800804FEA4808D4F800C0DB
:103B10002CF8186091F800C04FEA4C0C266836F873
:103B20001C604BF68F7C06EA0C0040F4004646F021
:103B3000800691F800804FEA4808D4F800C02CF8BD
:103B4000186000BF00BF002084F8E80100BF3846BD
:103B500098E5F0B504460D4605F07F00C0EBC006C1
:103B600004F5847000EB86010A614B6100208861D6
:103B7000487005F07F00087000BF94F8E801012844
:103B800001D10220F0BD012084F8E80100BFCE6819
:103B90004869B04204D9CB684869C01A486102E05C
:103BA0004B6900204861887A40BB2068B0F85070AB
:103BB000087807EBC000801D276807F5806707EBD2
:103BC00040063E2B0DD9C3F34F1003F01F070FB96A
:103BD000471EB8B24FF4004747EA8027BFB23760AC
:103BE0000BE0C3F34F0003F001070FB1471CB8B25D
:103BF0004FF6FF7707EA8027376039E0487840BB07
:103C00002068B0F85070087807EBC000801D276866
:103C100007F5806707EB40063E2B0DD9C3F34F1025
:103C200003F01F070FB9471EB8B24FF4004747EA29
:103C30008027BFB237600BE0C3F34F0003F00107EA
:103C40000FB1471CB8B24FF6FF7707EA80273760FD
:103C50000EE0487801280BD12068B0F85060087851
:103C600006EBC000801D266806F5806646F8103019
:103C70000F787F00266836F817604BF68F7706EAD4
:103C8000070080F4805080F4005040F4004646F075
:103C9000800691F800C04FEA4C0C276827F81C609A
:103CA00000BF002084F8E80100BF00BF6AE770B5DC
:103CB00002460B4600BF92F8E801012801D102201C
:103CC00070BD012082F8E80100BF03F08000802869
:103CD00008D103F07F00C0EBC00402F1280000EB24
:103CE000840105E0C3EBC30402F5847000EB84019A
:103CF0000120887003F07F000870C3F3C010487083
:103D00000878B0B90D786D00146834F815404BF69A
:103D1000BF7504EA050080F4805080F0100040F484
:103D2000004444F080040E787600156825F81640AB
:103D30002BE04878A0B10D786D00146834F8154078
:103D400048F6BF7504EA050080F0100040F4004416
:103D500044F080040E787600156825F8164014E0CB
:103D60000D786D00146834F815404BF68F7504EA31
:103D7000050080F4805040F4004444F080040E7844
:103D80007600156825F8164000BF00BF002082F8B5
:103D9000E80100BF00BF93E72DE9F04705460F4655
:103DA00090461E464FF0000907F07F00C0EBC001AF
:103DB00005F1280000EB8104C4F810806661002042
:103DC000A0610120607007F07F00207000BF95F8AF
:103DD000E801012802D10220BDE8F087012085F822
:103DE000E80100BFE1686069884204D9E66860695B
:103DF000801B606102E0666900206061A07A90B972
:103E0000B3B2A2882169286802F060F82868B0F887
:103E10005010207801EBC000801C296801F58061FA
:103E200041F8106072E0607840BB2868B0F850201C
:103E3000207802EBC000801D2A6802F5806202EB48
:103E400040013E2E0DD9C6F34F1006F01F020AB9ED
:103E5000421E90B24FF4004242EA802292B20A60BF
:103E60000BE0C6F34F0006F001020AB1421C90B20B
:103E70004FF6FF7202EA80220A600EE060780128A5
:103E80000BD12868B0F85010207801EBC000801DDD
:103E9000296801F5806141F810602178490028689F
:103EA00030F8110000F0400010B1B4F8089001E0C3
:103EB000B4F80690B3B221694A46286802F006F8C1
:103EC000607880B921784900286830F8110048F6F8
:103ED0008F71084048F2C0010843227852002968D7
:103EE00021F8120012E0607801280FD121784900F2
:103EF000286830F8110048F68F7108404CF28001B4
:103F0000084322785200296821F8120022785200D2
:103F1000296831F8121048F6BF7201EA020080F0F9
:103F2000100080F0200040F4004141F0800123782F
:103F30005B002A6822F8131000BF002085F8E80112
:103F400000BF00BF48E770B5044600252068B0F800
:103F5000440000F40040B0F5004F02D1204601F0CB
:103F60007FFD2068B0F8440000F48060B0F5806FF9
:103F70000BD14FF6FF302168A1F84400204600F035
:103F80002FF90021204600F064F92068B0F84400C1
:103F900000F48040B0F5804F04D14BF6FF702168EB
:103FA000A1F844002068B0F8440000F40050B0F5D7
:103FB000005F04D14DF6FF702168A1F8440020682D
:103FC000B0F8440000F48050B0F5805F14D1206850
:103FD000B0F8400020F004002168A1F840004FF440
:103FE0003D452068A0F84050204600F00FF94EF6FD
:103FF000FF702168A1F844002068B0F8440000F484
:104000000060B0F5006F1DD14FF2FF702168A1F87C
:1040100044002068B0F8400040F008002168A1F892
:1040200040002068B0F8400040F004002168A1F88A
:1040300040002068B0F84400C0F3003010B92046BA
:1040400000F034F92068B0F8440000F40070B0F5D6
:10405000007F07D14FF6FF502168A1F844002046A9
:1040600000F0F0F82068B0F8440000F48070B0F57B
:10407000807F04D14FF6FF602168A1F8440070BD35
:1040800070B50446002500260CB9012070BD022041
:1040900084F8E901204600F077F8002529E00121A5
:1040A000C5EBC50204F1280000EB82004170C5EBAE
:1040B000C50204F1280000F822500021C5EBC5021A
:1040C00000EB8200C170C5EBC50204F1280000EBD3
:1040D0008200C160C5EBC50204F1280000EB82003C
:1040E0000161C5EBC50204F1280000EB82004161CB
:1040F0006D1C6068A842D2D8002528E00021C5EBDD
:10410000C50204F5847000EB82004170C5EBC50266
:1041100004F5847000F82250C5EBC50200EB820064
:10412000C170C5EBC50204F5847000EB8200C1606C
:10413000C5EBC50204F5847000EB82000161C5EB9C
:10414000C50204F5847000EB820041616D1C60685B
:10415000A842D3D801202168A1F84000002021689E
:10416000A1F840002168A1F844002168A1F850009E
:104170004FF43D462068A0F84060002084F82400F9
:1041800084F8E90100BF81E710B586B00446124902
:10419000206888421DD11148C06940F400000F49D1
:1041A000C8614FF4C050019002200290002003909B
:1041B000032004900E20059001A94FF09040FEF7D7
:1041C0005DFE002205211420FEF7A9FF1420FEF752
:1041D00099FF06B010BD0000005C004000100240D6
:1041E00070B504460125A068022801D100BF01E096
:1041F000012500BF00BF2946D4F81C0203F0E0FAF5
:10420000D4F81C0203F0A2FA70BD000010B50446F9
:10421000A06950B10948006838B902F023F908488C
:10422000006820F006000649086000200349086085
:10423000D4F81C0203F0ACFA10BD000028000020E6
:1042400010ED00E010B50446D4F81C0203F0A7FA04
:1042500010BD024600BF92F8E801012801D10220FA
:104260007047012082F8E80100BF21B9802013685F
:10427000A3F84C0001E082F8241000BF002082F86F
:10428000E80100BF00BFEBE710B5044604F5F67186
:10429000D4F81C0203F0A2FA10BD10B504460121A7
:1042A0002046AFF30080002010BD000010B504468A
:1042B000D4F81C0203F0DBFAA06928B103480068B7
:1042C00040F006000149086010BD000010ED00E05C
:1042D00070B5044600250026206800F48030B0F553
:1042E000803F75D19248C06940F080509049C861C4
:1042F0009048006840F480708E490860FEF7AEFE7A
:10430000054606E0FEF7AAFE401B642801D90320FB
:1043100070BD8848006800F480700028F2D084489E
:10432000006A00F44070A18801F4407188420AD00C
:104330007F48006A20F4407601207F490860002011
:1043400008607B4806626068B0F5807F38D1FEF770
:1043500085FE054608E0FEF781FE401B41F28831EC
:10436000884201D90320D3E74020022191FAA1F12C
:10437000B1FA81F108430121B1EB501F02D16C4821
:1043800000680FE04020022191FAA1F1B1FA81F119
:1043900008430221B1EB501F02D16548006A01E0D9
:1043A0006348406A4021022292FAA2F2B2FA82F2F3
:1043B000114301F01F020121914008400028CAD09A
:1043C0005B48006A20F440706168084358490862FD
:1043D000207800F0010038B15548006B20F0030050
:1043E000A168084352490863207800F002000228BF
:1043F00007D14F48006B20F44030E16808434C4936
:104400000863207800F00400042807D14848006BB6
:1044100020F440202169084345490863207800F0D2
:104420002000202807D14248006B20F01000E169ED
:1044300008433F490863206800F40030B0F5003FAE
:1044400007D13B48406820F48000A16B08433849FD
:104450004860207800F04000402807D13448006BC5
:1044600020F02000216A084331490863207800F0D9
:104470000800082807D12E48006B20F4401061691D
:1044800008432B490863207800F01000102807D15A
:104490002748006B20F44000A169084324490863C1
:1044A000208800F40070B0F5007F07D120484068F4
:1044B00020F40000E16A08431D494860207800F0BC
:1044C0008000802807D11A48C06A20F4F870616A19
:1044D00008431749C862208800F48070B0F5807FD7
:1044E00007D11348C06A20F47850A16A08431049E4
:1044F000C862208800F48050B0F5805F07D10C4876
:10450000006B20F48070216B084309490863208800
:1045100000F40050B0F5005F07D10548006B20F4AF
:104520000070616B0843024908630020F0E6000058
:1045300000100240007000404004424270B5044642
:104540000D460026F748006800F00700A84270D228
:10455000F448006820F007002843F2490860084644
:10456000006800F00700A84201D0012070BD20784B
:1045700000F00200022807D1EB48406820F0F0006C
:10458000A1680843E8494860207800F0010000284D
:104590006FD0606801282DD12020010391FAA1F18C
:1045A000B1FA81F108430121B1EB501F02D1DE487D
:1045B00000680FE02020010391FAA1F1B1FA81F126
:1045C00008430221B1EB501F02D1D748006A01E035
:1045D000D548406A20210A0392FAA2F2B2FA82F286
:1045E000114301F01F02012191400840002861D1D0
:1045F0000120BBE7606802282DD12020010591FA37
:10460000A1F1B1FA81F108430121B1EB501F02D1B0
:10461000C548006810E02020010591FAA1F1B1FA27
:1046200081F108430221B1EB501F03D1BE48006A5B
:1046300002E083E0BC48406A20210A0592FAA2F217
:10464000B2FA82F2114301F01F02012191400840A9
:1046500078BB01208AE72020022191FAA1F1B1FA6A
:1046600081F108430121B1EB501F03D1AE4800682E
:1046700010E05BE12020022191FAA1F1B1FA81F171
:1046800008430221B1EB501F02D1A748006A01E0A4
:10469000A548406A2021022292FAA2F2B2FA82F2DE
:1046A000114301F01F0201219140084008B9012087
:1046B0005CE7FFE79C48406820F00300616808431E
:1046C00099494860FEF7CAFC06466068012810D187
:1046D00008E0FEF7C3FC801B41F28831884201D913
:1046E000032043E79048406800F00C000428F0D114
:1046F0001CE16068022810D108E0FEF7AFFC801BC7
:1047000041F28831884201D903202FE7864840686A
:1047100000F00C000828F0D108E108E0FEF79EFC4C
:10472000801B41F28831884201D903201EE77E4870
:10473000406800F00C000028F0D1F7E0207800F08D
:104740000200022807D17848406820F0F000A168F4
:10475000084375494860207800F0010000286ED0B9
:10476000606801282CD12020010391FAA1F1B1FA4F
:1047700081F108430121B1EB501F02D16A48006862
:104780000FE02020010391FAA1F1B1FA81F1084371
:104790000221B1EB501F02D16348006A01E0624878
:1047A000406A20210A0392FAA2F2B2FA82F211437D
:1047B00001F01F0201219140084088BB0120D5E68D
:1047C000606802282DD12020010591FAA1F1B1FAEB
:1047D00081F108430121B1EB501F02D1524800681A
:1047E0000FE02020010591FAA1F1B1FA81F108430F
:1047F0000221B1EB501F02D14B48006A01E04A4848
:10480000406A20210A0592FAA2F2B2FA82F211431A
:1048100001F01F0201219140084008B90120A5E6DE
:104820002DE02020022191FAA1F1B1FA81F1084393
:104830000121B1EB501F03D13B48006810E061E05B
:104840002020022191FAA1F1B1FA81F1084302215D
:10485000B1EB501F02D13448006A01E03248406A8F
:104860002021022292FAA2F2B2FA82F2114301F05E
:104870001F0201219140084008B9012076E62A482C
:10488000406820F003006168084327494860FEF74C
:10489000E5FB06466068012810D108E0FEF7DEFB64
:1048A000801B41F28831884201D903205EE61E4810
:1048B000406800F00C000428F0D123E06068022872
:1048C00010D108E0FEF7CAFB801B41F28831884214
:1048D00001D903204AE61448406800F00C0008287B
:1048E000F0D10FE008E0FEF7B9FB801B41F2883100
:1048F000884201D9032039E60B48406800F00C00DB
:104900000028F0D10748006820F007002843054937
:1049100008600846006800F00700A84206D00120A1
:1049200024E600000020024000100240207800F041
:104930000400042807D10D48406820F4E060E168D5
:1049400008430A494860207800F00800082808D188
:104950000648406820F46050216940EAC1000349DC
:1049600048600020FEF79CFB0020FFE5001002409D
:1049700010B500F045F80949496801F0F001F0224E
:1049800092FAA2F2B2FA82F2D140054A515CC840D2
:10499000044908600846006810BD0000001002408D
:1049A000F7B800088C00002010B5FFF7E1FF0749B9
:1049B000496801F4E0614FF4E06292FAA2F2B2FABF
:1049C00082F2D140024A515CC84010BD0010024042
:1049D000F7B8000810B5FFF7CBFF0749496801F4A5
:1049E00060514FF4605292FAA2F2B2FA82F2D140D0
:1049F000024A515CC84010BD00100240F7B80008E0
:104A000070B5002100240022002300201A4D69689F
:104A100001F00C0565B3042D02D0082D27D101E06B
:104A2000164827E001F470154FF4701696FAA6F6B2
:104A3000B6FA86F6F540124E725D0F4DED6A05F03E
:104A40000F050F2696FAA6F6B6FA86F6F5400D4E35
:104A5000745D01F480352DB1084DB5FBF4F505FB0F
:104A600002F302E0084D02FB05F3184602E000BF26
:104A7000024800BF00BF70BD0010024000127A0063
:104A800007B9000817B9000800093D0070B50446D1
:104A90000025207800F0010000286FD0F948406818
:104AA00000F00C0004280CD0F648406800F00C0020
:104AB000082837D1F348406800F48030B0F5803FD3
:104AC00030D12020010391FAA1F1B1FA81F108431C
:104AD0000121B1EB501F02D1EA4800680FE020200D
:104AE000010391FAA1F1B1FA81F108430221B1EB7E
:104AF000501F02D1E348006A01E0E248406A2021E9
:104B00000A0392FAA2F2B2FA82F2114301F01F02F2
:104B10000121914008400028BFD060680128BCD026
:104B2000012070BD0020D7498870FEF797FA05462E
:104B300008E0FEF793FA401B41F28831884201D920
:104B40000320EEE72020010391FAA1F1B1FA81F1EF
:104B500008430121B1EB501F02D1CA48006810E0A0
:104B60002020010391FAA1F1B1FA81F10843022159
:104B7000B1EB501F03D1C348006A02E090E0C14886
:104B8000406A20210A0392FAA2F2B2FA82F2114399
:104B900001F01F020121914008400028C9D120796D
:104BA000B84988700846C06A20F00F00A168084321
:104BB000B449C8626068012839D1FEF74FFA05464A
:104BC00008E0FEF74BFA401B41F28831884201D9D8
:104BD0000320A6E72020010391FAA1F1B1FA81F1A7
:104BE00008430121B1EB501F02D1A64800680FE035
:104BF0002020010391FAA1F1B1FA81F108430221C9
:104C0000B1EB501F02D19F48006A01E09D48406A05
:104C100020210A0392FAA2F2B2FA82F2114301F0C1
:104C20001F020121914008400028CAD038E0FEF759
:104C300015FA054608E0FEF711FA401B41F28831EB
:104C4000884201D903206CE72020010391FAA1F1E9
:104C5000B1FA81F108430121B1EB501F02D189481B
:104C600000680FE02020010391FAA1F1B1FA81F16F
:104C700008430221B1EB501F02D18248006A01E0D3
:104C80008048406A20210A0392FAA2F2B2FA82F224
:104C9000114301F01F020121914008400028CAD1B0
:104CA000207800F0020002284ED17648406800F0DB
:104CB0000C0050B17348406800F00C00082844D143
:104CC0007048406800F4803078BB2020022191FABF
:104CD000A1F1B1FA81F108430121B1EB501F02D1DA
:104CE000684800680FE02020022191FAA1F1B1FA92
:104CF00081F108430221B1EB501F02D16148006AE3
:104D000001E06048406A2021022292FAA2F2B2FA3F
:104D100082F2114301F01F0201219140084028B1A5
:104D20002069012802D00120FBE60EE0554800680A
:104D300020F0F800F82292FAA2F2B2FA82F2616947
:104D4000914008434F49086086E02069F0B3012094
:104D50004D490860FEF782F9054606E0FEF77EF948
:104D6000401B642801D90320DBE62020022191FAB0
:104D7000A1F1B1FA81F108430121B1EB501F02D139
:104D8000404800680FE02020022191FAA1F1B1FA19
:104D900081F108430221B1EB501F02D13948006A6A
:104DA00001E03848406A2021022292FAA2F2B2FAC7
:104DB00082F2114301F01F020121914008400028B6
:104DC000CCD03048006820F0F80000E00AE0F8227B
:104DD00092FAA2F2B2FA82F261699140084329493B
:104DE000086039E0002028490860FEF737F90546D9
:104DF00006E0FEF733F9401B642801D9032090E652
:104E00002020022191FAA1F1B1FA81F10843012198
:104E1000B1EB501F02D11B4800680FE02020022197
:104E200091FAA1F1B1FA81F108430221B1EB501FCF
:104E300002D11448006A01E01248406A202102228F
:104E400092FAA2F2B2FA82F2114301F01F0201219A
:104E5000914008400028CCD1207800F008000828B4
:104E60007ED1A06980B3012008490860FEF7F6F8FA
:104E700005460DE0FEF7F2F8401B642808D9032030
:104E80004FE600000010024000004242800442420F
:104E90006020022191FAA1F1B1FA81F108430121C8
:104EA000B1EB501F02D1FA48006810E060200221E7
:104EB00091FAA1F1B1FA81F108430221B1EB501F3F
:104EC00003D1F348006A02E010E0F148406A602133
:104ED000022292FAA2F2B2FA82F2114301F01F0208
:104EE0000121914008400028C4D039E00020E94960
:104EF0000860FEF7B3F8054606E0FEF7AFF8401B82
:104F0000642801D903200CE66020022191FAA1F166
:104F1000B1FA81F108430121B1EB501F02D1DC4805
:104F200000680FE06020022191FAA1F1B1FA81F14D
:104F300008430221B1EB501F02D1D548006A01E0BD
:104F4000D348406A6021022292FAA2F2B2FA82F2B7
:104F5000114301F01F020121914008400028CCD1EB
:104F6000207800F00400042873D1C948C06940F0DB
:104F70008050C749C861C848006840F48070C6497D
:104F80000860FEF76BF8054606E0FEF767F8401B81
:104F9000642801D90320C4E5BF48006800F480708C
:104FA0000028F2D0BA48006A20F00500B84908622B
:104FB000FEF754F8054608E0FEF750F8401B41F2B2
:104FC0008831884201D90320ABE54020022191FAC3
:104FD000A1F1B1FA81F108430121B1EB501F02D1D7
:104FE000AB4800680FE04020022191FAA1F1B1FA2C
:104FF00081F108430221B1EB501F02D1A448006A9D
:1050000001E0A348406A4021022292FAA2F2B2FAD9
:1050100082F2114301F01F02012191400840002853
:10502000CAD19B48006A20F00500E168084398490E
:105030000862E06801283AD1FEF710F8054609E059
:10504000FEF70CF8401B41F28831884202D9032058
:1050500067E565E04020022191FAA1F1B1FA81F102
:1050600008430121B1EB501F02D1894800680FE0CD
:105070004020022191FAA1F1B1FA81F10843022105
:10508000B1EB501F02D18248006A01E08048406ABB
:105090004021022292FAA2F2B2FA82F2114301F006
:1050A0001F020121914008400028C9D038E0FDF7D7
:1050B000D5FF054608E0FDF7D1FF401B41F28831DE
:1050C000884201D903202CE54020022191FAA1F168
:1050D000B1FA81F108430121B1EB501F02D16C48B4
:1050E00000680FE04020022191FAA1F1B1FA81F1AC
:1050F00008430221B1EB501F02D16548006A01E06C
:105100006348406A4021022292FAA2F2B2FA82F285
:10511000114301F01F020121914008400028CAD12B
:10512000E069002876D05A48406800F00C00082852
:1051300071D0E06902286FD1002058490866FDF758
:105140008DFF054606E0FDF789FF401B642801D965
:105150000320E6E42020010591FAA1F1B1FA81F1E2
:1051600008430121B1EB501F02D1494800680FE00C
:105170002020010591FAA1F1B1FA81F10843022141
:10518000B1EB501F02D14248006A01E04048406A3A
:1051900020210A0592FAA2F2B2FA82F2114301F03A
:1051A0001F020121914008400028CCD1D4E9081009
:1051B00008433749496821F4741108433449486069
:1051C000012036490866FDF749FF054606E0FDF770
:1051D00045FF401B642801D90320A2E420200105DB
:1051E00091FAA1F1B1FA81F108430121B1EB501F0D
:1051F00002D12748006812E02020010591FAA1F1B0
:10520000B1FA81F108430221B1EB501F05D12048CA
:10521000006A04E057E054E010E01D48406A202195
:105220000A0592FAA2F2B2FA82F2114301F01F02C9
:105230000121914008400028C9D044E000201749CE
:105240000866FDF70BFF054606E0FDF707FF401B6C
:10525000642801D9032064E42020010591FAA1F11A
:10526000B1FA81F108430121B1EB501F02D1084886
:10527000006817E02020010591FAA1F1B1FA81F14F
:1052800008430221B1EB501F0AD10148006A09E02E
:105290000010024080044242007000400000424280
:1052A0000A48406A20210A0592FAA2F2B2FA82F272
:1052B000114301F01F020121914008400028C4D190
:1052C00001E001202DE400202BE40000001002404A
:1052D000042808D14FF0E021096941F004014FF0A2
:1052E000E022116107E04FF0E021096921F004019B
:1052F0004FF0E0221161704770B504462546681EE4
:10530000B0F1807F01D301200FE0681E4FF0E02153
:1053100048610F214FF0FF3000F08EFB00204FF06E
:10532000E021886107200861002070BD30B5024689
:105330000B4600BF92F83800012801D1022030BD91
:10534000012082F8380000BF106841681068846846
:105350000F4D1068A84203D00E4D1068A84203D12B
:1053600021F470015868014321F07001186801436D
:1053700024F08004986804431068416010688460D9
:1053800000BF002082F8380000BF00BFD7E7000050
:10539000002C01400034014010B504460CB9012036
:1053A00010BD94F8390010B9204600F00DF8022025
:1053B00084F83900211D206801F002F9012084F8E9
:1053C00039000020ECE700000F4A0168914205D146
:1053D0000E49C96941F002010C4AD1610C4A0168C9
:1053E000914205D10949C96941F01001074AD161CB
:1053F000084A0168914205D10449C96941F0200178
:10540000024AD161704700000004004000100240D1
:1054100000100040001400400146022081F83900CD
:105420000868006840F001000A681060012081F8F7
:105430003900002070470146022081F8390000BF82
:105440000868006A41F21112104050B90868006AF9
:105450009210104028B90868006820F001000A681E
:10546000106000BF012081F8390000207047000063
:105470002DE9F04104460D46002600BF94F838009F
:10548000012802D10220BDE8F081012084F8380013
:1054900000BF022084F83900206886684148064031
:1054A00026F47F4620688660286850283CD00CDCB3
:1054B000202861D004DC002854D0102866D156E0A2
:1054C00030285ED0402861D142E0602836D0702874
:1054D0000ED0B0F5805F03D0B0F5005F56D116E076
:1054E000206880682F4970310840216888604EE04C
:1054F000D5E902136A68206801F0BAF82068866866
:105500002848064046F07706206886603FE0D5E9E7
:1055100002136A68206801F0ABF82068806840F4E4
:1055200080402168886032E0EA686968206801F09C
:105530004BF95021206801F0A7F828E0EA68696873
:10554000206801F056F96021206801F09DF81EE006
:10555000EA686968206801F037F94021206801F0A5
:1055600093F814E00021206801F08EF80FE010217C
:10557000206801F089F80AE02021206801F084F811
:1055800005E03021206801F07FF800E000BF00BF97
:10559000012084F8390000BF002084F8380000BFE3
:1055A00000BF70E788FFFEFF10B504460CB901206C
:1055B00010BDA06900B100E000BF94F8690010B907
:1055C000204600F02BF8022084F86900206800686B
:1055D00020F0010021680860204601F0C5F901288B
:1055E00000D1E5E7606A10B1204601F018F92068A3
:1055F000406820F49040216848602068806820F06E
:105600002A00216888602068006840F00100216855
:105610000860204601F078F9CAE7000010B586B0AE
:10562000044614492068884222D11348C06940F4D6
:1056300000301149C8610C20019002200290012025
:105640000390032004900720059001A94FF090409B
:10565000FDF714FC0748006840F020000549086089
:10566000002206212620FDF75AFD2620FDF74AFDDF
:1056700006B010BD004400400010024010B50020EC
:10568000FBF7C4FB10BD10B50020FBF7CFFB10BD2E
:1056900000B587B04FF0A040174908604FF4803044
:1056A0004860164801681448816000210161C161A9
:1056B00041624FF4806101638910C1620021C160C1
:1056C0000121016241630421416100218161816303
:1056D000FCF782FB0620019001200290002004903C
:1056E00007480068039000200590069001A9024831
:1056F000FBF7E4FF07B000BD9C0300200C00002076
:105700001000002000B587B0174818490860000253
:105710004860174801681548816000210161C16136
:1057200041624FF4806101638910C1620021C16050
:105730000121016241630421416100218161816392
:10574000FCF74AFB07200190012002900020049002
:1057500008480068039000200590069001A90348BE
:10576000FBF7ACFF07B000BD00010050E8030020CC
:105770000C0000201000002000B587B01748184921
:105780000860800148601748016815488160002161
:105790000161C16141624FF4806101638910C1629E
:1057A0000021C160012101624163042141610021A6
:1057B00081618163FCF710FB0520019001200290BC
:1057C000002004900848006803900020059006908F
:1057D00001A90348FBF772FF07B000BD00040050A9
:1057E000340400200C0000201000002000B587B019
:1057F0001848194908604FF480304860174801681C
:105800001548816000210161C16141624FF48061EE
:1058100001638910C1620021C160012101624163FD
:1058200004214161002181618163FCF7D5FA0320E5
:105830000190012002900020049009480068039024
:1058400000200590069001A90348FBF737FF07B039
:1058500000BD000000050050800400200C00002066
:10586000100000201CB50C480C4908600846FCF7E5
:105870009CFE042000900A480068019000226946BE
:105880000648FCF762FE1420009010226946034887
:10589000FCF75BFE1CBD00000074004018030020F4
:1058A000000000200548406940F0020003494861BB
:1058B0000846406940F0010048617047001002400E
:1058C00010B50020FBF736FA0D48406940F400108F
:1058D0000B4948610846406940F400204861084689
:1058E000406940F4800048610846406940F4003057
:1058F00048610846406940F48020486110BD0000BE
:105900000010024000B587B00E480F490860002023
:10591000486000210C488160C1600161FFF73CFDD7
:105920004FF48050039003A90748FFF7A1FD202002
:1059300000900020029069460348FFF7F7FC07B08B
:1059400000BD000000040040640200200EB50C48B9
:105950000C49086040F2FF710A48C1600020094903
:1059600048600021074801618160FFF715FD202094
:1059700000900020029069460248FFF7D7FC0EBD58
:1059800000100040A00200200EB50C480C49086031
:1059900040F2FF710A48C1600020094948600021B7
:1059A000074801618160FFF7F7FC2020009000208C
:1059B000029069460248FFF7B9FC0EBD0014004092
:1059C000DC02002010B50948094908604FF4E130B5
:1059D0004860002106488160C16001610C2141617D
:1059E00000218161C161FFF7DFFD10BD004400406F
:1059F000AC05002010B500220749084801F04DFD14
:105A00000749064801F061FF0649044801F092FA8F
:105A1000024802F023F810BD2C00002018060020D8
:105A20005C0100201800002002480068C0F302203A
:105A3000704700000CED00E010B5002807DA0A07F7
:105A4000140E054A00F00F031B1FD45403E00A078D
:105A5000130E024A135410BD18ED00E000E400E0FC
:105A60002DE9FC41054600270020009011E2BDF819
:105A7000040000F00F06002E7DD1BDF8040000F0F8
:105A8000100088BB2868008848F60F710840296814
:105A9000088005F128042868B0F85010207801EB40
:105AA000C000801C296801F5806131F81000C0F346
:105AB0000900A061A16920690844206100212846ED
:105AC000FDF7A2FB95F824000028CFDD60690028CF
:105AD000CCD195F8240040F080002968A1F84C0052
