:020000040800F2
:10000000289F00204D0200085502000857020008F2
:10001000590200085B0200085D02000800000000B1
:100020000000000000000000000000009D0100082A
:100030006102000800000000E1010008C74D00084F
:1000400067020008670200086702000867020008EC
:1000500067020008670200086702000867020008DC
:1000600067020008670200086702000867020008CC
:1000700067020008670200086702000867020008BC
:1000800067020008670200086702000867020008AC
:10009000655F000867020008670200086702000841
:1000A000670200086702000867020008670200088C
:1000B000670200086702000867020008670200087C
:1000C000670200086702000867020008670200086C
:1000D00067020008670200088954000867020008E8
:1000E000670200086702000867020008670200084C
:1000F000670200086702000867020008670200083C
:10010000000000000000000000000000670200087E
:10011000670200086702000867020008670200081B
:10012000670200086702000867020008670200080B
:1001300067020008670200080000000000000000DD
:10014000670200086702000867020008000000005C
:10015000000000000000000000000000000000009F
:1001600000000000000000006702000867020008AD
:10017000670200080000000000000000000000000E
:100180000000000067020008DFF80CD000F0F0FA71
:1001900000480047F5740008289F0020234B196889
:1001A0000868B0E8F04F80F309884FF0000080F352
:1001B000118870470000000003480068006880F361
:1001C000088862B600DF00BF08ED00E0DFF80C0031
:1001D000016841F470010160704700BF88ED00E0E4
:1001E000EFF30980114B1A681EF0100F08BF20EDC5
:1001F000108A20E9F04F106008B44FF0500080F3EF
:10020000118808F06BFD4FF0000080F3118808BCE6
:1002100019680868B0E8F04F1EF0100F08BFB0EC86
:10022000108A80F30988704700BF00BF14010020C6
:10023000EFF311804FF0500181F31188704780F384
:1002400011887047EFF3058070470000064880472B
:1002500006480047FEE7FEE7FEE7FEE7FEE7FEE7AB
:10026000FEE7FEE7FEE7FEE7554E0008F5740008DE
:1002700040EA01039B0703D009E008C9121F08C028
:10028000042AFAD203E011F8013B00F8013B521EA8
:10029000F9D27047D2B201E000F8012B491EFBD21F
:1002A00070470022F6E710B513460A460446194681
:1002B000FFF7F0FF204610BD0EB540F2334102912A
:1002C0000021CDE900110A460B4600F03AF803B0D0
:1002D00000BDC1F30A5210B5C1F3130140F2FF3360
:1002E00041F480119A4201DA002010BD40F23343FC
:1002F0009A42A2F2334203DC524200F003F810BDEE
:10030000904010BD202A04DB203A21FA02F000219F
:10031000704721FA02F3D040C2F120029140084315
:100320001946704710B5141E73F1000408DA401C1A
:1003300041F1000192185B411A4301D120F0010004
:1003400010BD2DE9F04D92469B4611B1B1FA81F2F4
:1003500002E0B0FA80F22032904600F01BFA044628
:100360000F4640EA0A0041EA0B0153465A46084349
:1003700013D0114653EA010019D0C8F1400250468B
:10038000FFF7C0FF05460E4650465946424600F06C
:1003900001FA084305D0012004E020463946BDE8B3
:1003A000F08D0020054346EAE0762C4337430A9857
:1003B0006305E40AA0EB08000022FD0A44EA475462
:1003C0000A3002D500200146E9E70105101969410C
:1003D000DDE9084500196941BDE8F04DA2E72DE9C6
:1003E000FE4F804681EA0300C00F0C46009021F0CA
:1003F000004123F00045B8EB0200A94105D2404678
:10040000214690461C460B46024623F0004010430E
:1004100047D0270DC7F30A00C3F30A510290401AD0
:10042000019040286BDAC3F3130040F4801B00985E
:10043000924620B10023D2EB030A63EB0B0B019829
:100440005946C0F14002504600F0A4F906460D4658
:1004500050465946019A00F0ACF910EB0800614192
:10046000002487EA115284EAE7731A4340D0009AC5
:1004700062B3019A012A4FEA075215DC001B61EBB7
:1004800002014FF0004202EA0752CDE90042001C8F
:1004900041F5801132462B46FFF753FF03B0BDE80C
:1004A000F08F40462146F9E7001B61EB0201001C7A
:1004B00041F5801300185B412018A2F5001747EBA7
:1004C000030140EAD570B6196D4111E06D084FEA9D
:1004D000360645EAC0754FEA0752001B61EB020180
:1004E000001C41F5801149084FEA300000195141C4
:1004F00032462B4603B0BDE8F04FFFF713BF00981C
:10050000012240000023D0EB020263EBE07300986D
:1005100021464FEAE074B8EB000061EB0401E9E723
:1005200083F000435BE781F0004158E72DE9FE4F7F
:1005300081EA030404F0004421F0004100944FF0EC
:10054000000B23F0004350EA01045ED052EA03049A
:100550005BD0C3F30A54C1F30A552C44A4F2F3341C
:100560000194A0FB0254C1F3130141F48011C3F3C1
:10057000130343F4801301FB024400FB034E840A7F
:10058000970A44EA815447EA8357A4FB0768029517
:100590008D0A05FB07854FEA932C04FB0C542705B5
:1005A000029D4FEA065847EA1637B5EB08056EEB91
:1005B000070C870E920E47EA811742EA8312A7FBC7
:1005C0000201B6EB0B0164EB00042B0D43EA0C3384
:1005D0005E1844EB1C50DA465146E7FB0201C5F3B6
:1005E00013044FEA0B3343EA14534FEA0432019CDD
:1005F00043EA0603A4F10C040294009CCDE900B484
:10060000FFF79FFE03B0BDE8F08F00200146F9E739
:100610002DE9F04D81EA030404F0004B21F0004580
:1006200014464FF0000A23F0004150EA050220D0A2
:1006300054EA01021DD0C5F30A570246C5F313035D
:10064000C1F31300C1F30A5640F4801543F480133C
:10065000A7EB0608101BD64608F2FD3873EB050021
:1006600002D308F1010801E092185B41B8F1000FD4
:1006700003DA00200146BDE8F08D00204FF4801120
:10068000064684460EE0171B73EB050705D3121BC5
:1006900063EB050306434CEA010C49084FEA3000BE
:1006A00092185B4150EA0107EDD152EA030012D0E3
:1006B00082EA040083EA0501084305D0101BAB4120
:1006C00006D20122002306E000224FF0004302E0A0
:1006D0006FF0010253101AEB06004CEB085110EBBF
:1006E0000A0041EB0B01BDE8F04DFFF71BBE70B5F2
:1006F00021F0004303430CD0C1F30A550024D5EB8D
:10070000040564EB0403D617AD1AB34102DB0020E5
:10071000014670BD201841EB025170BD0EB5C10FEE
:1007200080EAE0700844CA07002140F233438DE8B4
:100730000E000A460B46FFF704FE03B000BD0000A2
:1007400030B5041E71F1000404DB4FF00044404258
:1007500064EB0101141E73F1000405DB1C464FF02D
:100760000043524263EB0403994208BF904230BDFC
:10077000064C074D06E0E06840F0010394E80700EE
:1007800098471034AC42F6D3FFF702FDE498000816
:1007900004990008202A04DB203A00FA02F1002024
:1007A00070479140C2F1200320FA03F319439040AF
:1007B0007047202A06DBCB17203A41FA02F043EAC1
:1007C000E07306E041FA02F3D040C2F1200291400A
:1007D0000843194670472DE9F04D00231A461B1AAD
:1007E0008A4103DB00200146BDE8F08DC1F30A52C7
:1007F000C1F3130141F480154FF0000BD10702D172
:1008000000186D41521E0027044640F2FF11384681
:1008100001EB620A3E468046024600204FF48011FA
:10082000FFF770FDC2197141BB1846EB0100B4EB34
:10083000030C75EB000C04D3E41A65EB00051746B6
:100840000E46241908F101006D4180463428E3DD8D
:10085000F91946EB0600091BA84103D24FF0FF32FD
:10086000134601E0002213461BEB070046EB0A513A
:10087000BDE8F04DFFF756BD70B58C1810F8015B60
:1008800015F0070301D110F8013B2A1106D110F829
:10089000012B03E010F8016B01F8016B5B1EF9D12D
:1008A0002B0705D40023521E0DD401F8013BFAE7B3
:1008B00010F8013BCB1A921C03E013F8015B01F81E
:1008C000015B521EF9D5A142D8D3002070BD0000B3
:1008D0002DE9F041044600680022836813F00C0FF4
:1008E00052D083684FF004069B0105D5E369012BC4
:1008F00002D1A369012B23D060290CD02068826823
:10090000520706D58268920703D4826842F010022B
:1009100082600C290ED020688268120706D5826892
:10092000920703D4826842F020028260602916D0C8
:100930006C2912D05FF0040501F0D2FF07461FE0DA
:100940000C21124B02E09A4211D2521C0568ED4371
:100950006D06F8D440220260D0E70C25ECE70825AC
:10096000EAE700BF01F0BCFFC01B0B2808D984F8E0
:100970004560A06C40F00100A0640120BDE8F0815A
:10098000206880682842EDD10020F7E70094090034
:10099000406A90F8451004290AD090F8451035298E
:1009A00006D090F84510252904D0152180F845106F
:1009B00000F098BF3521F9E7406A042180F845101E
:1009C000816C41F00401816401F06EB8406A00F06E
:1009D0008ABF000070B594B014460D4638B12F4E52
:1009E000012819D0022831D0032824D13DE02B4919
:1009F0003C2280396846FFF73BFC2848803850F895
:100A00003C1F0F9141681091017A8DF84410417A92
:100A10008DF84510C0680DE020493C223439684605
:100A2000FFF726FC1D483438C16B0F91F168109117
:100A3000317C2AE01290002D06D0002C04D02246F2
:100A40002946684601F08AFA14B070BD13493C2269
:100A500018316846FFF70CFC10481830C16B0F9135
:100A6000B16D109196F85C100FE00C493C22643196
:100A70006846FFF7FDFB09486430C16B0F9100F138
:100A80001C014A6A109291F828108DF8441090F8D1
:100A900045108DF84510806CCCE70000F004002074
:100AA00010B5084801F0BEFA06484C3001F0BAFA19
:100AB0000448983001F0B6FA0248BDE81040E4302E
:100AC00001F0B0BA7004002070B504460068816877
:100AD00001F00301012924D10168C90721D08168EF
:100AE000042601F00D0101290FD1816841F00201B6
:100AF000816021680320086001F0F2FE05460CE0E9
:100B000001F0EEFE401B022807D984F84560A06C76
:100B100040F00100A064012070BD20688068C0071B
:100B2000EED1002070BD000070B5044600688168F9
:100B300001F00301012902D10168C90720D18168B0
:100B4000104A4FF0040611420DD1816841F00101B5
:100B5000816001F0C5FE05460DE000BF01F0C0FE5A
:100B6000401B022807D984F84560A06C40F00100C2
:100B7000A064012070BD20680068C043C007EDD1AB
:100B8000002070BD3F00008070B5224C0646A06872
:100B900030B1082806D0102806D0182807D105E063
:100BA0000C2504E00A2502E0082500E0062502F0F5
:100BB00005FFB0FBF6F0401B401EB0F5167F01D9D3
:100BC000072018E0B52801D3062014E03D2801D302
:100BD000052010E0132801D304200CE0072801D3DE
:100BE000032008E0042801D3022004E0022801D3F6
:100BF000012000E00020E060074801F013FA03F054
:100C000079FB03F0AFFB03F0E5FBBDE8704003F0B8
:100C100019BC0000040000207004002070B51749C2
:100C200086B004000DD0012C0BD0022C09D0032C6F
:100C300007D0042C05D0052C03D0062C01D0072C9E
:100C400003D1486940F4001048610D4E0D4D6946CE
:100C500036F81400009001200190029003200390C8
:100C600055F8240001F070FD36F8141055F82400F2
:100C7000002201F02BFE06B070BD00000010024003
:100C800034970008DC0000200449054A31F81010B0
:100C900052F82000002201F019BE0000349700082D
:100CA000DC0000200449054A31F8101052F82000F9
:100CB000012201F00BBE000034970008DC00002088
:100CC000002070470020704710B5084C06480022ED
:100CD0000749206004F0B6FC05492068403904F05B
:100CE000ABFC002010BD0000EC06002094000020AA
:100CF0005009002070B50E460546002405E000BFEF
:100D000015F8010B06F086F9641C3068A042F7D88C
:100D1000024804F075FC002070BD0000EC060020C5
:100D200010B5054C0A460146206804F08BFC20688B
:100D3000BDE8104004F0BCBC9400002010B50021B8
:100D4000094800F07DFB084800214C3000F078FB9A
:100D500005480021983000F073FB03480021BDE8EE
:100D60001040E43000F06CBB7004002088B000221A
:100D70001421052008F07AF83B4D3C4C4FF0FF362B
:100D800028600023324601A9286808F093F89DF8EE
:100D900004003128F5D100BF9DF819008DF8180026
:100DA0009DF81A008DF819009DF81B008DF81A00A7
:100DB0009DF800008DF81B00684606F0A3F8002897
:100DC000DFD19DF800003A2801D03B28E4D19DF8FE
:100DD0001800DDF8191040EA01202549421A88421E
:100DE0003FD012DC23494018CBD0234940182AD0E9
:100DF000224940182BD02249C84214D10023324640
:100E000020A1206808F01AF9BBE72048101825D067
:100E10001F4940181FD01F49C84204D106F020FCCA
:100E200006F0B2FFADE7002332461BA1206808F0B0
:100E300005F9684606F066F80028A2D19DF8000082
:100E40003B28F6D19DE70023324615A1D9E70023C0
:100E5000324615A1D5E706F071FFE1E706F0DAFBAF
:100E6000DEE706F005FDDBE77001002074010020DD
:100E70004F534350AEBAACDE090105E2F3FEFBFF6F
:100E800003FDF2FF43736869656C64000C04F6FCB3
:100E9000F0F5F9FE0C1405F545393939000000006C
:100EA000305F49444E0000003953656E64537973D6
:100EB0007456657273696F6E000000009AB006F098
:100EC0008BF800221E21052007F0D0FFA54C2060E2
:100ED000042007F0A3FFA4A360600FCB0DF1380C32
:100EE0008CE80F00A4A112AB07C983E80700002318
:100EF0005D1E2A4605A9206807F0DCFF29466068C8
:100F000008F07CF99DF8140030281AD031281DD043
:100F1000322878D0332877D0342876D0352875D049
:100F2000422874D0432873D0362872D0372871D025
:100F3000382870D039286FD049286ED041286DD01C
:100F400006E190A006F0A2F890A002E106F0AEFA49
:100F500004285DD106F098FA074606F0A1FA80460B
:100F600006F056FA824600F065FA814607F09EF8D0
:100F7000010E8DF83C10010C8DF83D10010A8DF822
:100F80003E108DF83F00BAF1080F14D906F094FA1C
:100F9000064606F085FA054606F07CFA4543A6EBC0
:100FA000154007EB4000B0FBF7F107FB11004FEADB
:100FB0004808009010E006F07FFA064606F070FA46
:100FC000054606F067FA4543A6EB15403844B0FBEA
:100FD000F7F107FB110000908DF840A04FEA184090
:100FE0008DF841004FEA18208DF8420000988DF8E6
:100FF000438040448DF84790B84210D900983D1A7C
:10100000A8EB05000DE06EE086E088E08AE08CE069
:10101000A1E08DE08FE090E091E093E09FE0454615
:1010200000208346002651E0304606F011FA761C77
:10103000804617968DF8466010210EA806F00CF831
:10104000B5F5804F17D900982E46002708EB000A07
:1010500008E000BF0AEB873005F0FEFF7F1CFFB2FF
:10106000A6F580464FF480418E42F3D856B10AEB84
:101070008730B1B204E02DB1009AA9B208EB0200AA
:1010800005F0EAFF4FF480405946834514D90E46D7
:101090000027824608E000BF08EB873005F0DCFF40
:1010A0007F1CFFB2A6F5804651468E42F4D85EB151
:1010B000B1B208EB873005E0BBF1000F04D01FFA96
:1010C0008BF1404605F0C8FF1798C6B24E45ABD32A
:1010D00033A005F0DBFF374800235A1E32A1006819
:1010E00007F0ACFF37E0002505F131008DF84C002A
:1010F0006D1CE8B206F01AF8010C8DF85110010AC7
:101100008DF852108DF853000C2112A805F0A4FFA1
:10111000EDB2022DE8D31EE007F08AFB1BE007F0DA
:101120006DFA18E007F0DEFA15E007F031FB12E087
:1011300007F09AFA0FE020A00BE021A009E007F0E9
:1011400093FB08E000235A1E05A9206807F0B2FEB1
:1011500005A805F09BFF606808F036F8C7E609A00F
:10116000F7E70000740100204F53435F79797979E4
:10117000787878784348307847454E5F7843485FC1
:101180004678787841434B5F0000000053544D335C
:101190003246332D446973636F76657279000000BF
:1011A000535F4F4B00000000324461746153656E21
:1011B0007400000010020020475F4E58000000003D
:1011C000475F4F4B0000000000B585B03020009015
:1011D000002001900220029069464FF0904001F0FB
:1011E000B3FA05B000BD00B585B0302000900320F3
:1011F00001900020029069464FF0904001F0A4FA5F
:1012000005B000BD014900200860704700000020C3
:1012100001490220086070470000002010B5446AB0
:10122000204600F059FF0120207110BD10B5446A1E
:10123000204600F02DFF0120207110BD10B5446A3A
:10124000206940F004002061204600F047FF0120A3
:10125000207110BD10B5446A206940F0040020617F
:10126000204600F017FF0120207110BD406A00F0F9
:1012700034BF10B5406A00F00CFF10BDF8B515463C
:101280000E46002410B1012800D110242146064842
:1012900001F01FF8002000902B46324621460248FC
:1012A00000F08CFFF8BD0000EC03002010B594B0F6
:1012B000012807D02C4C022819D003282CD0042850
:1012C00024D138E028493C2280396846FEF7D0FF17
:1012D0002548803850F83C1F0F9141681091017AE1
:1012E0008DF84410417A8DF84510C0680DE01E4914
:1012F0003C2234396846FEF7BBFF1B483438C16BCB
:101300000F91E1681091217C25E0129010980068FF
:10131000406814B080B210BD13493C2218316846B1
:10132000FEF7A6FF10481830C16B0F91A16D109108
:1013300094F85C100FE00C493C2264316846FEF7DB
:1013400097FF09486430C16B0F9100F11C014A6A94
:10135000109291F828108DF8441090F845108DF8EF
:101360004510806CD1E70000F004002010B504683F
:1013700063604368102B036803D099600068C26003
:1013800010BD9A600068C16010BD000010B503F088
:1013900095FD0021054800F091FF1021034800F061
:1013A0008DFFBDE81040FFF70FBF0000EC030020E9
:1013B00010B503F081F8FFF716FFBDE8104003F009
:1013C00089BD000086B000221421052007F04EFDE3
:1013D000164D286006F000F80126154C4FF0FF3836
:1013E0000027002342466946286807F063FD9DF800
:1013F00000003128F5D03228F3D033280AD0342821
:101400000AD03528EDD1207D0128EAD1FFF7BEFFB3
:101410002775E6E7207DE4E7207D0028E1D105F08F
:101420008DFEFFF7C5FF2675DBE700001C020020DC
:1014300028930020014890F821007047E492002092
:101440002DE9F041044690F844008846012814D064
:10145000012584F844502046FFF736FB0027064656
:1014600001282BD084F845502068816821F0804104
:101470008160B8F1010F03D007E00220BDE8F081E0
:101480002068816841F0804181602068816841F076
:101490000041816001F024FA05460BE001F020FADA
:1014A000401B0A2806D9042084F8450084F84470BB
:1014B0000120E3E7206880680028EFDB84F84470AF
:1014C0003046DBE72DE9F04390F84420002593B047
:1014D000012A22D0012780F8447003689A684FF0EF
:1014E00004065207A9467CD44A681F24052A18D24C
:1014F000D3F830C002EB4202520094402CEA040CB4
:10150000C3F830C00B790A6803EB43035B009A40D1
:1015100003681C6B22431A634BE0022013B0BDE842
:10152000F0830A2A16D2D3F834C0521F02EB4202CB
:10153000520094402CEA040CC3F834C00B790A68BA
:101540005B1F03EB43035B009A4003685C6B224321
:101550005A632EE00F2A16D2D3F838C00A3A02EBAB
:101560004202520094402CEA040CC3F838C00B79B4
:101570000A680A3B03EB43035B009A4003689C6BD9
:1015800022439A6315E0D3F83CC00F3A02EB4202C3
:10159000520094402CEA040CC3F83CC00B790A6852
:1015A0000F3B03EB43035B009A400368DC6B224371
:1015B000DA630268936813F00C0F4FF007037CD1D5
:1015C0000C680A2C19D9D2F818C00A3C04EB440460
:1015D00003FA04F42CEA040CC2F818C00A780A3A98
:1015E00000E04DE18C6802EB420294400268D2F8C0
:1015F00018C044EA0C04946114E0D2F814C004EB5F
:10160000440403FA04F42CEA040CC2F814C00A7867
:101610008C6802EB420294400268D2F814C044EA9B
:101620000C04546102684C69D2F80CC0D1F81080E7
:10163000CCF3C10C4FEA4C0C04FA0CF4DFF88CC26A
:10164000B8F1010F44D0B8F1020F55D0B8F1030F33
:1016500066D0B8F1040F78D0146E91F800C004F091
:10166000F844B4EB8C6F03D1146E24F0004414667C
:101670000268546E91F800C004F0F844B4EB8C6F2B
:1016800003D1546E24F0004454660268946E91F8BD
:1016900000C004F0F844B4EB8C6F03D1946E24F0D6
:1016A000004494660268D46E91F800C004F0F844D7
:1016B000B4EB8C6F05D1D46E00E002E024F000445E
:1016C000D4660268946804F00304012C54D150E0FD
:1016D000D2F8608008EA0C08C2F860800268D2F88C
:1016E00060C091F8008044F000444CEA886C4CEAF9
:1016F000040CC2F860C0E4E7D2F8648008EA0C0881
:10170000C2F864800268D2F864C091F8008044F0A6
:1017100000444CEA886C4CEA040CC2F864C0D0E780
:10172000D2F8688008EA0C08C2F868800268D2F82B
:1017300068C091F8008044F000444CEA886C4CEAA0
:10174000040CC2F868C0BCE7FFE7D2F86C8008EA76
:101750000C08C2F86C800268D2F86CC091F8008066
:1017600044F000444CEA886C4CEA040CC2F86CC0AB
:10177000A7E71468E4074AD1CC68012C06D052F8D8
:10178000B03F0C78A740BB4313602EE052F8B04F37
:1017900091F800C007FA0CF73C4314600A6804682B
:1017A0000A2A11D9A769093A02EB420293409F43E2
:1017B000A7610B788A68093B03EB43039A400368EF
:1017C0009C6922439A6110E06769521C02EB420255
:1017D00093409F4367610B788A685B1C03EB43036C
:1017E0009A4003685C6922435A6103684FF0A0473E
:1017F000374CBB4201D0A34201D1364A00E0364A01
:101800000968102904D0112907D012290AD03AE01A
:10181000D2F808C04FEA0C2C08E0D2F808C04FEA12
:10182000CC1C03E0D2F808C04FEA4C2CBCF1000FEE
:1018300029DBBB420DD0A34201D100970DE0274C1C
:10184000DFF89CC0A34202D1CDF800C005E063459B
:1018500001D1009401E0CDF800909C6804F00304ED
:10186000012C02D11C68E4070AD1009C7CB1A46859
:1018700004F00304012C0AD1009C2468E40706D07C
:1018800080F84560012580F84490284646E61029F6
:1018900008D0112913D01229F5D1916841F48001A3
:1018A0009160F0E7BB42EED1916841F40001916094
:1018B00001214FF43472491C9142FCD3E3E7BB424F
:1018C000E1D1916841F08071EAE7000000F0FF8308
:1018D00000010050000300500007005000040050B9
:1018E000000500507047704770B594B004007DD07B
:1018F000022084F845006C212046FEF7E9FF00260F
:101900000546012873D02068C16841F40011C16008
:101910002046FFF7D9F805460128F3D0012084F8C6
:101920004500206841686FF30A014160216840F278
:10193000FF7008602068816821F0E04181602068C4
:10194000816841F0005181602068C1684C4A1140B3
:10195000C160206841694B4A11404161206881693A
:1019600001F0784181612068016A01F0F021016293
:101970002068416A01F0FF2141622068816A01F01C
:10198000FF2181622068016B3F4A1140016320689A
:10199000426B3D4910390A4042632068826B0A401D
:1019A00082632068C16B40F2DF729143C16321689A
:1019B0000A6E364802400A6621684A6E02404A664C
:1019C00021688A6E02408A662168CA6E0240CA6631
:1019D000216851F8A02F4FEA706002400A60216828
:1019E00051F8A42F02400A60216801E014E043E0AE
:1019F00051F8B02F02400A60206850F8B41F21F05F
:101A00007F11016020684FF0A043214A984201D025
:101A1000904204D11F4903E0012014B070BD1E495B
:101A2000984209D0904203D01C4A1D4B904201D1EC
:101A3000009304E0984201D1009200E00096826891
:101A400002F00302012A02D10068C0070ED10098FB
:101A500040B1806800F00300012803D100980068BD
:101A6000C00703D188680F4A10408860204600F004
:101A700015F9A66484F8456084F844602846CCE7EC
:101A800004800080070000C0300882E000F0FF03FF
:101A900000010050000300500007005000040050F7
:101AA00000050050E0D03CFE70470000F0B54FF05C
:101AB000000593B004002E4604D094F84500022798
:101AC00018B121E0012013B0F0BD204600F038F934
:101AD00020688068C00017D42046FEF7F5FF054651
:101AE000012811D084F845702068816821F04051A8
:101AF00081602068816841F08051816001204FF44D
:101B00003471401C8842FCD320688168C1F30172A3
:101B10000421012A06D084F84510A26C42F001028B
:101B2000A264012594F84520042A6FD082685207E8
:101B30006CD484F845704FF0A04E514B704501D0E5
:101B4000984201D14F4900E04F49504F504A4FF061
:101B5000000C704501D100930EE0984202D1CDF8FF
:101B600000E009E0904201D1009705E0B84201D1C0
:101B7000009201E0CDF800C0836803F00303012B5D
:101B800002D10068C00712D1009840B1806800F00F
:101B90000300012803D100980068C00707D18868B6
:101BA00020F4403088608868636818438860206843
:101BB000C168384B1940C160D4E902100843A16BD9
:101BC000012902D04FF4805300E00023E16943EA89
:101BD00041331843636A3043012B07D131B9218D5A
:101BE0002D4B03EB4141014341F48030E16A01296F
:101BF00019D02368934201D0BB4211D14FF4307207
:101C00004FF4E073914202D1194609E033E04FF4FA
:101C10008076B14201D1114602E0994200D13146AD
:101C20000143206B084321688A6812F00C0F0AD127
:101C3000CA6844F202039A43CA60A169626B8903CD
:101C400041EA420108432168CA680243CA60206829
:101C5000016B21F00F0101632069012805D1206883
:101C6000016B226A521E11430163C4F848C001206F
:101C700084F8450002E084F845100125284622E753
:101C80000001005000030050000700500005005004
:101C90000004005007C0F0FF0000FEFF70B5214BAC
:101CA0000446056818682049204A401EB5F1A04F37
:101CB00005D01F4EB54211D1186040B10BE018603D
:101CC00018B9486920F080504861012104E0486952
:101CD00020F080504861022110461AE0114A154E4A
:101CE00015485268521EB54208D15A601AB94A695D
:101CF00022F000524A614FF480510AE00F4EB54283
:101D00000ED15A601AB94A6922F000524A614FF462
:101D1000005100F0C9FC206CBDE8704000F022BB0F
:101D200070BD0000040000200010024000080048C0
:101D3000000100500004005000040048000500505D
:101D40002DE9F04F7D4A0546A2F11006076830687C
:101D5000794903230024401C85B04FF080084FF4DC
:101D600080694FF4807A4FF0200BB7F1A04F07D075
:101D7000DFF8CCC167456BD13060012831D03AE043
:101D80003060012809D1486940F080504861C86A34
:101D900020F4F87040F48070C8621078694931F816
:101DA00010108DE81A006549091D51F82000694698
:101DB00000F0CAFC654F6448C7E90004C7E902485F
:101DC000B06810280AD0182808D0C7E904A900BFB5
:101DD0004FF40050C7E906B05C482FE07C613C61DD
:101DE000F6E7486940F080504861C86A20F4F8700E
:101DF00040F48070C86253495078383131F810107F
:101E00008DE81A004D49283151F82000694600F04C
:101E10009BFC4E4F4E483837C7E90004C7E90248DB
:101E2000B068102811D018280FD0C7E904A900BF46
:101E30004FF40050C7E906B04448383000F0E6FBE4
:101E40002F647D6205B0BDE8F08F7C613C61EFE7F7
:101E50003A48DFF800C110384068401C674533D16C
:101E60007060012809D1486940F000504861C86A93
:101E700020F4785040F40050C8623249907810390C
:101E800031F810108DE81A002C49503151F820001B
:101E9000694600F059FC2D4F2D4870375030C7E986
:101EA0000004C7E90248B06810280AD0182808D0F2
:101EB000C7E904A94FF40050C7E906B023487030C1
:101EC000BCE77C613C61F5E7DFF88CC06745B9D1C0
:101ED0007060012809D1486940F000504861C86A23
:101EE00020F4785040F40050C8621649D078083980
:101EF00031F810108DE81A001049603151F82000B7
:101F0000694600F021FC114F1148A8371430C7E989
:101F10000004C7E90248B06810280AD0182808D081
:101F2000C7E904A94FF40050C7E906B00748A83034
:101F300084E77C613C61F5E700100240140000205A
:101F4000000100509C96000808000240A0050020F7
:101F50000804024000040050000500502DE9F04143
:101F6000044690F844001746884601280DD0012009
:101F700084F8440020684FF0A041884202D0244AEF
:101F8000904205D1D1F8080304E00220BDE8F081B9
:101F9000204800684FF0000610F01F0F04D0012504
:101FA00084F844602846F1E72046FEF7BDFD05466B
:101FB0000128F5D094F84500222827D05FF01200C0
:101FC00084F84500A664216C13488862216C13488C
:101FD000C862216C1248086321681C2008602068D0
:101FE000416841F0100141602068C16841F0010181
:101FF000C16021683B4642464031206C00F028FB1E
:102000002068816841F004018160C9E73220D7E788
:10201000000100500807005091090008CD09000890
:10202000B909000870B5044690F84400012809D0A9
:10203000012684F844606C212046FEF749FC050027
:1020400002D020E0022070BD2068C16821F00101AB
:10205000C160206C00F05AF9051E03D04FF0040057
:1020600084F845002068416821F010014160204655
:1020700004D1FEF729FD050003D004E0FEF724FD9E
:1020800001E084F84560002084F84400284670BDD3
:1020900070477047704770B54379012B1AD00126FD
:1020A00046710223037105682C6840F6FE73934065
:1020B0009C43D1E900310B43934023432B600168DB
:1020C0000B68C0249440A3430B600671002141714A
:1020D000084670BD022070BD70477047704710B54C
:1020E000040002D0207910B104E0012010BD204688
:1020F00000F008F8022020710020206101202071EA
:10210000002010BD2DE9F04F05460068264985B036
:10211000884245D12548C16941F00051C161302054
:10212000009003200026CDE9010669464FF090405B
:1021300000F00AFB1F4C1E484FF01008C4E90008CD
:102140004FF4806B2020C4E905B00002E06104F187
:1021500008014FF080094FF4807A81E8400620465C
:1021600000F054FA144FAC606562386840F40050D7
:1021700038600F4838341430C4E900082020C4E91E
:1021800005B00002E06104F10801204681E8400644
:1021900000F03CFAEC606562386840F480403860DA
:1021A00005B0BDE8F08F0000007400400010024050
:1021B0003000024000040020000001402DE9F04101
:1021C00004460D461746617900220698012920D061
:1021D0000126667102212171F5B1D4F80CC0314994
:1021E000CCF82810D4F80CC02F49CCF82C10D4F817
:1021F0000CC02E49CCF830102168D1F800C04CF04A
:10220000805CC1F800C090B3042834D0082837D1CE
:1022100034E00220BDE8F081D4F808C02449CCF8AD
:102220002810D4F808C02349CCF82C10D4F808C0E2
:102230002149CCF830102168D1F800C04CF4805C02
:10224000C1F800C020B1042805D0082808D105E055
:102250002268083204E022680C3201E02268103261
:102260002068016841F400510160A0680EE0FFE7BA
:102270002268143204E02268183201E022681C321D
:102280002068016841F000510160E068394600F0C3
:10229000DFF920680168AE403143016000206071C1
:1022A000B8E700002D12000873120008551200084C
:1022B0001D1200086D1200083D12000810B50268DA
:1022C0001468012303FA01F18C43146003710020A8
:1022D00010BD70B50446006802684FF480538B400F
:1022E0009A43026020680268012505FA01F39A43C7
:1022F000026031B1E06800F009F820B104212171D9
:1023000070BDA068F7E7257170BD00002DE9F041B0
:1023100004460068016821F00101016000F0E0FA64
:10232000054600264FF47A7710E000BF00F0D8FA97
:10233000401BB8420AD954F8340F40F0200044F84A
:102340001409032060702670BDE8F08120680068E1
:10235000C007EBD1012084F8210084F82060002020
:10236000F2E700002DE9F04FF0B390F821100229B8
:102370003ED001680A6822F001020A60026800216A
:10238000116002685160026891600268D1609D4AE4
:102390009C4B9C4C9B4D9B4E9A4FDFF86882DFF81C
:1023A0006892DFF864A2DFF860B20168783A643BB3
:1023B000503C3C3D283E143FDFF84CC24FF4005ED9
:1023C00009F114090AF1280A0BF13C0B41452CD9FB
:1023D000914212D0994214D0A14216D0A94219D0EC
:1023E000B14219D0B94200E002E004D1910415E0F5
:1023F0000120BDE8F08F614501D102210EE0494581
:1024000001D120210AE0514502D14FF4007105E0CD
:10241000594501D1714601E04FF40031DFF8E88100
:10242000A8F10408C8F800102EE0914215D0994296
:1024300017D0A14219D0A9421CD0B1421CD0B94238
:1024400002D14FF4001119E0DFF8B881414502D103
:102450004FF0007112E0614501D102210EE04945C3
:1024600001D120210AE0514502D14FF4007105E06D
:10247000594501D1714601E04FF40031DFF8848104
:10248000A8F18008C8F80410DFF8788101684FF4DB
:10249000006E414528D991420ED0994210D0A142F8
:1024A00012D0A94214D0B14215D0B94202D14FF492
:1024B000000112E0614501D108210EE0494501D13A
:1024C00080210AE0514501D1714606E0594502D10B
:1024D0004FF4004101E04FF40021DFF82C81A8F116
:1024E0000408C8F800102EE0914215D0994217D088
:1024F000A14219D0A9421BD0B1421CD0B94202D18D
:102500004FF4000119E0DFF8FC80414502D14FF0A3
:10251000006112E0614501D108210EE0494501D179
:1025200080210AE0514501D1714606E0594502D1AA
:102530004FF4004101E04FF40021DFF8C880A8F11A
:102540008008C8F80410DFF8BC8001684FF4806E82
:10255000414525D991420ED0994210D0A14212D0C6
:10256000A94214D0B14215D0B94202D14FF4800132
:1025700012E0614501D104210EE0494501D140211D
:102580000AE0514501D1714606E0594502D14FF4A8
:10259000804101E04FF480211B4A121F116029E0A5
:1025A000914213D0994215D0A14217D0A94219D017
:1025B000B1421AD0B94202D14FF4800117E041452F
:1025C00002D14FF0806112E0614501D104210EE09B
:1025D000494501D140210AE0514501D1714606E04B
:1025E000594502D14FF4804101E04FF48021054A62
:1025F000803A51600021416380F8211080F820105A
:102600000846F6E6800002400804024030B5E8B112
:10261000022180F8211003681A6843F6F0718A439A
:10262000D0E901142143D0E903452C4321434469F7
:10263000214384692143C469214311431960002166
:102640004163012180F82110002030BD012030BD00
:1026500070B5044690F82000012823D0012084F8AA
:102660002000022084F821002068056825F001057B
:1026700005602046FEF77AFE2068016841F00201FD
:1026800001602068016841F0040101602068016870
:1026900041F0080101602068016841F0010101601A
:1026A000002070BD022070BD2DE9F04700224FF0E0
:1026B000010900BF09FA02F401EA0403A34239D177
:1026C000066857000325BD40AE430660D60800EB00
:1026D0008606D6F820C057074FEAD7684FF00F0A92
:1026E0000AFA08F72CEA070CC6F820C08668AE4341
:1026F00086604668A6434660C468AC43C4609407DD
:10270000250F0AFA05F40E4D22F003063544AE6893
:10271000A643AE600B4C25689D432560241D2568AB
:102720009D432560241D25689D432560241D256843
:102730009D432560521C102ABCD3BDE8F0870000E1
:1027400000000140000401402DE9F04FDFF85CB1CA
:1027500000224FF001084FF0030A4FF00F090BF170
:10276000040E00BF0B6808FA02F42340A3426ED1A6
:102770004D68022D01D0122D0ED1D50800EB850C2D
:10278000DCF820505607F70E09FA07F6B5430E6934
:10279000BE402E43CCF82060066855000F790AFA37
:1027A00005FC07F0030726EA0C06AF403743076035
:1027B0004E68012E05D0022E03D0112E01D0122E0C
:1027C0000ED18668CF6826EA0C06AF403743876093
:1027D0004668A6430C79C4F3001494403443446023
:1027E000C6688C6826EA0C06AC403443C4604C686A
:1027F000E40055D52E4CA56945F00105A5612D4C89
:1028000022F003052E19B46895072F0F09FA07F572
:10281000AC43B0F1904F04D0274DA84203D101251D
:1028200017E0002515E0254DA84201D1022510E052
:10283000234DA84201D103250BE0224DA84201D12E
:10284000042506E0204DA84202D1052501E027E03D
:102850000625BD402543B560DBF800405D464E6867
:102860009C43F60300D51C432C60DEF800407546FF
:102870004E689C43B60300D51C432C600B4D0835B5
:102880002C684E689C43F60200D51C432C60074D13
:102890000C352C684E689C43B60200D51C432C6056
:1028A000521C102AFFF45EAFBDE8F08F0004014017
:1028B00000100240000001400004004800080048E9
:1028C000000C004800100048001400480AB10183C1
:1028D00070474183704700000048704700010101C4
:1028E000014800687047000010010020024801689C
:1028F000491C01607047000010010020074810B516
:10290000016841F010010160032000F063F800202D
:1029100000F006F800F016F8002010BD002002407C
:1029200010B5044601F01AF84FF47A71B0FBF1F0DB
:1029300001F060FB00222146501E00F02BF8002021
:1029400010BD0000074810B5816941F001018161A7
:10295000032000F03FF80022BDE810401146501E51
:1029600000F018B80010024000F01F020121914051
:102970004009800000F1E020C0F88012704700F0AC
:102980001F02012191404009800000F1E020C0F8C1
:1029900000117047F0B40E4B1B680C46C3F30223C2
:1029A000C3F10705042D00D90425191D072901D2FB
:1029B000002300E0DB1E012606FA05F1491E214036
:1029C00099409E40761E16403143F0BC01F040BE57
:1029D0000CED00E0064900F0070208684FF6FF031F
:1029E000184040EA0220034A104308607047000084
:1029F0000CED00E00000FA0510B50C0607D501F05B
:102A00007F01C1EBC10100EB8100283005E0C1EB83
:102A1000C10100EB810000F5847099B232B101224E
:102A20008272C180190C0181002010BD00228272C7
:102A30008180F9E7C1EBC10200EB8202D0F81C02F1
:102A4000926B02F0C1BFC1EBC10200EB8202D0F871
:102A50001C02D2F8182103F007B82DE9F04301F069
:102A60007F03C3EBC3020C0600EB820201D52832C0
:102A700001E002F58472C9091370517090F8E811F1
:102A8000012946D0012180F8E811977A48F6BF76EF
:102A9000002F577848F280034BF68F7948F2C00434
:102AA0004CF2800548F68F7136D08FB31778D0F886
:102AB00000C03CF827805FEA484807D53CF82780EB
:102AC00008EA010848EA05082CF827801778D0F8AA
:102AD00000C03CF827805FEA486807D53CF82780AB
:102AE00008EA010848EA04082CF8278092F800C098
:102AF000076837F82C400C402C4327F82C401478FA
:102B0000056835F824103140194325F8241025E0D4
:102B100032E00220BDE8F083A7B11778056835F8E8
:102B200027C05FEA4C6C07D535F827C00CEA010CCA
:102B30004CEA040C25F827C01278046834F82210F7
:102B4000314011E01678046834F826707F0405D50A
:102B500034F826700F402F4324F82670127804684A
:102B600034F8221001EA0901194324F82210002147
:102B700080F8E8110846CDE792F800C0076837F8FA
:102B80002C805FEA484807D537F82C8008EA01080E
:102B900048EA050827F82C801778056835F827C01B
:102BA0005FEA4C6C07D535F827C00CEA010C4CEAFB
:102BB000040C25F827C01578D0F800C03CF8257023
:102BC0000F4027432CF825701578046834F8251039
:102BD00001EA0901194324F82510ADE7F0B50A060A
:102BE00001F07F0305D5C3EBC30200EB820228325C
:102BF00005E0C1EBC10200EB820202F58472002401
:102C000094701370C909517090F8E811012921D00E
:102C1000012180F8E811517803680029117848F6FD
:102C20008F7648F2800533F8217015D07F0607D5DE
:102C300033F82170374048F2C006374323F821703B
:102C40001278036833F8221048F6BF76314081F0DD
:102C5000300114E00220F0BD7F0407D533F8217065
:102C600037404CF28006374323F82170127803680E
:102C700033F822104BF68F76314081F440512943CE
:102C800023F8221080F8E8410020F0BD01F07F0118
:102C9000C1EBC10100EB8100B0F8200180B27047A8
:102CA0002DE9F04F01F07F05C5EBC5040E0600EBE2
:102CB000840401D5283401E004F58474C909257021
:102CC0006170E260E37090F8E81101290DD00121F4
:102CD00080F8E811E27848F68F114AB1012A21D034
:102CE000022A0DD0032A26D112E00220BDE8F08F7F
:102CF0002278036833F822500D4045F400710EE04D
:102D00002378026832F823500D4022F8235012E055
:102D10002278036833F822500D4045F4C06123F84F
:102D2000221008E02378026832F823500D4045F461
:102D3000806122F823102378066836F8235048F67D
:102D40008F710D4048F2800215431D4326F8235031
:102D5000A77A4FF4806348F6BF794BF68F7A48F232
:102D6000C0054CF28006EFB3D0F800802778C34648
:102D700038F827C048F280180CEA010C4CEA080C1D
:102D80002BF827C0E78827F0010C0768BB46B7F887
:102D9000507094F800809E4607EBC80703EB47038A
:102DA0004BF803C0238923F0010703689B46B3F85F
:102DB00050C094F80080042303EBC8039C440EEB3E
:102DC0004C0C4BF80C7063780768002B237837F8AD
:102DD00023C04FEA4C4C7DD0BCF1000F09DA37F824
:102DE00023C000E033E00CEA010C4CEA060C27F8A3
:102DF00023C02378076837F823C05FEA4C6C07D5F7
:102E000037F823C00CEA010C4CEA050C27F823C064
:102E10002578076837F825300B40334327F82530ED
:102E20002578036833F8251001EA0901114323F8D6
:102E300025102378056835F8231001EA0A011143AB
:102E400025F82310002180F8E81108464EE767783E
:102E50000FB3A68826F001070668B6F850C094F8AC
:102E600000800CEBC80C03EB4C03F750267803688A
:102E700033F826707F0605D533F826700F402F43B0
:102E800023F826702478036833F8241001EA090136
:102E900081F020017EE0A58825F001070568A9469C
:102EA000B5F850C094F80080042505EBC8056544CA
:102EB00003EB450C49F80C700568B5F8507094F8B0
:102EC00000C04FF0060808EBCC0C674403EB470347
:102ED0005F1900E02EE0E3683E2B0BD9C3F34F15DA
:102EE000DB0601D16D1EADB24FF4004343EA8523EA
:102EF0009BB209E0C3F34F05DB0701D06D1CADB2F7
:102F00004FF6FF7303EA85233B602378056835F8A5
:102F100023707F0405D535F823700F40374325F81B
:102F200023702478036833F8241001EA0A0181F43D
:102F300040512FE0BCF1000F07DA37F823C00CEA4C
:102F4000010C4CEA060C27F823C02378066836F8F3
:102F500023707F0605D536F823700F402F4326F8DF
:102F600023702378066836F823700F402F4326F825
:102F700023702378056835F8231001EA0A0181F4EB
:102F80004051114325F823102478036833F82410A6
:102F900001EA0901114323F8241053E72DE9F04316
:102FA00001F07F01C1EBC10400EB8404C4E94623B6
:102FB0000022C4F8202184F8092184F8081190F82F
:102FC000E81104F58474012909D0012180F8E81181
:102FD0006369E1688B4205D95B1A636104E00220F2
:102FE000BDE8F08319466261A77A06234FF4806535
:102FF0006E014FF6FF7927B1677817B1012F23D003
:103000002DE00768B7F850C094F8008003EBC803C0
:10301000634405EB4303DD193E290ED9C1F34F1379
:10302000C90607D046EA832189B201E009EA832173
:10303000296014E05B1E9BB2F4E7C1F34F03C9079C
:10304000F4D05B1C9BB2F1E70668B6F8507094F8B8
:1030500000C003EBCC033B4405EB4303F150237862
:10306000056835F823104BF68F74214081F44051E8
:1030700048F28004214325F8231080F8E82100203D
:10308000AEE730B590F8E821012A0CD0012480F891
:10309000E8410B0601F07F0207D5C2EBC20300EB4B
:1030A0008303283307E0022030BDC1EBC10300EBEE
:1030B000830303F58473C9099C701A70597048F230
:1030C000800352B10468002934F8221011D048F668
:1030D000BF75294081F0100110E0026811884BF69D
:1030E000BF74214081F4805181F010011943118097
:1030F00007E04BF68F75294081F48051194324F87D
:103100002210002180F8E811084630BD2DE9F04179
:10311000064601F07F00C0EBC00106EB81043834A5
:103120004FF00008A4E80C01012104F81B1C04F86E
:103130001C0D96F8E801012808D086F8E811E5682A
:103140006069A84205D9401B606105E00220BDE826
:10315000F0810546C4F81480A07A4FF4806728B146
:1031600061780620A1B1012936D03FE0ABB2A28838
:103170002169306801F03FFC3068B0F850102278C7
:10318000022303EBC202114407EB4101455056E014
:103190003168B1F8502023783E2D00EBC300104475
:1031A00007EB400001440BD9C5F34F10EA0601D1EB
:1031B000401E80B24FF4004242EA802080B209E013
:1031C000C5F34F00EA0701D0401C80B24FF6FF72F2
:1031D00002EA8020086009E03168B1F850202378C5
:1031E00000EBC300104407EB40000D50217830681D
:1031F00030F82110490601D5228900E0E288ABB2FF
:10320000216901F0F8FB617848F68F7011B101294E
:103210000BD014E02178326832F82130034048F2B4
:10322000C000034322F8213009E02278316831F8E8
:10323000223003404CF28000034321F822302178F1
:10324000326832F8210048F6BF73184080F0300031
:1032500048F28003184322F8210086F8E881002014
:1032600075E710B504460068B0F84400000402D5C4
:10327000204601F0FDF92068B0F8441049050AD550
:103280004FF6FF31A0F84410204600F0D9F8002195
:10329000204600F001F92068B0F84410490403D535
:1032A0004BF6FF71A0F844102068B0F84410890470
:1032B00003D54DF6FF71A0F844102068B0F8441013
:1032C000C90411D530F8401F21F0040101802168A4
:1032D0004FF43D40A1F84000204600F0BFF82168BF
:1032E0004EF6FF70A1F844002068B0F844100905BC
:1032F00018D54FF2FF71A0F84410206830F8401F35
:1033000041F008010180206830F8401F41F00401BD
:1033100001802068B0F84400C043C00402D52046B4
:1033200000F0DEF82068B0F84410890506D54FF6A5
:10333000FF51A0F84410204600F0AAF82068B0F829
:103340004410C90503D54FF6FF61A0F8441010BD25
:1033500070B504004FF0000508D0022084F8E901A0
:10336000204600F043F8012300200EE0012070BD4C
:10337000C5EBC50104EB810181F8293001F8285F14
:103380006D1CC870C860086148616168A942EFD8C7
:10339000002110E0C1EBC10204EB820282F80901B6
:1033A00082F8081182F80B01C2F81401C2F8180162
:1033B000491CC2F81C0162688A42EBD82168A1F856
:1033C00040302168A1F840002168A1F8440021683C
:1033D000A1F8500022684FF43D41A2F8401084F853
:1033E000240084F8E901002070BD000000B50068E9
:1033F000114985B088421CD11048C16941F40001CF
:10340000C1614FF4C0500090022001900020029052
:10341000032003900E20049069464FF09040FFF780
:1034200093F9002205211420FFF7B4FA1420FFF7C6
:10343000A6FA05B000BD0000005C0040001002408C
:1034400010B504460121D0F81C0202F0D7FBD4F8D5
:103450001C02BDE8104002F0A0BB000070B504469D
:103460008069094D40B1286830B901F0B7FC0748C0
:10347000016821F00601016000202860D4F81C02D8
:10348000BDE8704002F0A8BB9800002010ED00E0FD
:10349000D0F81C0202F0A6BB90F8E821012A0AD05D
:1034A000012280F8E82141B180F82410002180F841
:1034B000E811084670470220704702688021A2F890
:1034C0004C10F3E7D0F81C2200F5F671104602F01C
:1034D0009FBB10B50121AFF30080002010BD00009C
:1034E00010B50446D0F81C0202F0CDFBA0690028FC
:1034F00004D00348016841F00601016010BD0000DE
:1035000010ED00E02DE9F047044600686E4DC00361
:1035100062D5E86940F08050E8616C4E306840F454
:1035200080703060FFF7DCF9074604E0FFF7D8F958
:10353000C01B642825D83068C005F7D5286AA18843
:1035400000F4407001F440710126884207D0286AD7
:103550005F4920F440700E6000220A6028626068B3
:10356000B0F5807F32D1FFF7BBF9074641F28839C9
:103570004FF0020808E000BFFFF7B2F9C11B494550
:1035800002D90320BDE8F08798FAA8F1B1FA81F1D9
:1035900041F040014046B6EB511F01D129680BE0D4
:1035A00090FAA0F1B1FA81F141F04001B0EB511F66
:1035B00001D1296A00E0696A98FAA8F0B0FA80F0AF
:1035C00000F01F0206FA02F00142D5D0286A6168B5
:1035D00020F44070084328622078C00705D0286B8B
:1035E000A16820F00300084328632078800705D5F0
:1035F000286BE16820F440300843286320784007B6
:1036000005D5286B216920F44020084328632078E1
:10361000800605D5286BE16920F010000843286377
:103620002068800305D56868A16B20F480000843FA
:1036300068602078400605D5286B216A20F02000BC
:10364000084328632078000705D5286B616920F4BA
:103650004010084328632078C00605D5286BA1696F
:1036600020F44000084328632088800505D5686859
:10367000E16A20F40000084368602078000605D560
:10368000E86A616A20F4F8700843E8622088C0059F
:1036900005D5E86AA16A20F478500843E8622088DA
:1036A000C00405D5286B216B20F480700843286383
:1036B0002088800405D5286B616B20F400700843D6
:1036C000286300205EE70000001002400070004008
:1036D000400442422DE9F047DFF8789205460E4655
:1036E000D9F80000022300F0070701204104420638
:1036F000994C41F28838B74271D2D9F800C02CF009
:10370000070C4CEA060CC9F800C0D9F8007007F0A5
:103710000707B7426FD12E78B60705D56668AF6840
:1037200026F0F0063E4366602E78F60756D06E68A7
:10373000012E0BD0022E1ED093FAA3F1B1FA81F123
:1037400041F02001490924D0216823E091FAA1F237
:10375000B2FA82F242F02002520901D0226800E05F
:10376000626A91FAA1F1B1FA81F101F01F0188407A
:10377000024240D017E092FAA2F1B1FA81F141F091
:103780002001490901D0216800E0616A92FAA2F2A1
:1037900002E0616A93FAA3F2B2FA82F202F01F0227
:1037A0009040014227D0606820F003003043606001
:1037B000FFF796F806466868012809D002284746B0
:1037C00013D01EE0FFF78CF8801BB84201D992E0BD
:1037D00047466068C0F381000128F3D1A1E015E0FD
:1037E000FFF77EF8801BB84273D86068C0F3810091
:1037F0000228F5D195E092E0FFF772F8801BB842FD
:1038000079D8606810F00C0FF6D18AE02F78BF07E6
:1038100007D56768D5F808C027F0F00747EA0C0716
:1038200067602F78FF076DD06F68012F0BD0022FD4
:103830001ED093FAA3F1B1FA81F141F020014909B8
:1038400024D0216823E091FAA1F2B2FA82F242F088
:103850002002520901D0226800E0626A91FAA1F1C7
:10386000B1FA81F101F01F018840024257D017E000
:1038700092FAA2F1B1FA81F141F02001490901D097
:10388000216800E0616A92FAA2F202E0616A93FAAA
:10389000A3F2B2FA82F202F01F02904001423ED03F
:1038A000606820F0030038436060FFF719F80746AE
:1038B0006868012807D0022811D01FE0FFF710F830
:1038C000C11B414517D86068C0F381000128F5D1BC
:1038D00018E010E0FFF704F8C11B41450BD8606801
:1038E000C0F381000228F5D10CE000BFFEF7F8FF1D
:1038F000C11B414502D90320BDE8F087606810F084
:103900000C0FF3D1D9F8001021F007013143C9F8A9
:103910000010D9F8000000F00700B04201D00120EB
:10392000EAE72878400705D56068E96820F4E06098
:10393000084360602878000706D56068296920F48C
:10394000605040EAC10060600020FEF7E9FF0020FF
:10395000D2E70000002002400010024010B500F045
:1039600043F808494968F02292FAA2F201F0F00106
:10397000B2FA82F2D140044A515CC840034908605F
:1039800010BD00000010024044970008FC00002019
:1039900010B5FFF7E3FF074949684FF4E06292FA78
:1039A000A2F201F4E061B2FA82F2D140024A515C23
:1039B000C84010BD001002404497000810B5FFF742
:1039C000CDFF074949684FF4605292FAA2F201F420
:1039D0006051B2FA82F2D140024A515CC84010BD37
:1039E0000010024044970008144B10B55A68144860
:1039F00002F00C0104291DD008291BD14FF47014CA
:103A000094FAA4F402F47011B4FA84F4E1400D4C79
:103A1000DB6A615C0F2494FAA4F403F00F03B4FA98
:103A200084F4E340074C1034D203E35C03D5B0FBCD
:103A3000F3F0484310BD0448484310BD0010024055
:103A400000127A005497000800093D002DE9F05F4C
:103A500005460078FE4EC0074FF000084FF0010405
:103A600025D070686704C0F38100012807D0706812
:103A7000C0F3810002281BD17068C00318D597FAE3
:103A8000A7F0B0FA80F040F02000400901D0306883
:103A900000E0706A97FAA7F1B1FA81F101F01F0115
:103AA00004FA01F1084270D0686801287ED16CE008
:103AB00086F80280FEF714FF824641F2883905E05D
:103AC000FEF70EFFA0EB0A01494570D897FAA7F060
:103AD000B0FA80F040F02000400901D0306800E0EA
:103AE000706A97FAA7F1B1FA81F101F01F0104FAA7
:103AF00001F10842E4D12879B070F06AA96820F099
:103B00000F000843F0626868012803D0FEF7E8FE62
:103B1000824625E0FEF7E4FE824605E0FEF7E0FE81
:103B2000A0EB0A014945D0D897FAA7F0B0FA80F087
:103B300040F02000400901D0306800E0706A97FA38
:103B4000A7F1B1FA81F101F01F0104FA01F1084275
:103B5000E4D01AE0FEF7C4FEA0EB0A014945B4D850
:103B600097FAA7F0B0FA80F040F02000400901D0A9
:103B7000306800E0706A97FAA7F1B1FA81F101F0BC
:103B80001F0104FA01F10842E4D12878DFF8C49259
:103B900080074FF0020733D570684FF0F80B10F034
:103BA0000C0F0AD07068C0F3810001E097E037E1A4
:103BB000022826D17068C00323D497FAA7F0B0FA80
:103BC00080F040F02000400901D0306800E0706AC9
:103BD00097FAA7F1B1FA81F101F01F0104FA01F19E
:103BE000084202D02869012879D13068696920F03B
:103BF000F8029BFAABF0B0FA80F081400A433260E1
:103C000051E0286968B3C9F80040FEF769FE8246B2
:103C100006E000BFFEF764FEA0EB0A0064289ED811
:103C200097FAA7F0B0FA80F040F02000400901D0E8
:103C3000306800E0706A97FAA7F1B1FA81F101F0FB
:103C40001F0104FA01F10842E4D030689BFAABF29C
:103C50006969B2FA82F220F0F800914008433060BE
:103C600021E0C9F80080FEF73BFE824606E000BF77
:103C7000FEF736FEA0EB0A006428D0D897FAA7F02A
:103C8000B0FA80F040F02000400901D0306800E038
:103C9000706A97FAA7F1B1FA81F101F01F0104FAF5
:103CA00001F10842E4D1287800075ED56A48A96985
:103CB00069B30460FEF714FE824605E0FEF710FECD
:103CC000A0EB0A006428AAD897FAA7F0B0FA80F00F
:103CD00040F06000B4EB501F02D130680CE07AE194
:103CE00097FAA7F0B0FA80F040F06000B7EB501FF1
:103CF00001D1306A00E0706A97FAA7F1B1FA81F158
:103D000001F01F0104FA01F21042D7D02DE0C0F8F3
:103D10000080FEF7E5FD824606E000BFFEF7E0FD0D
:103D2000A0EB0A0064287BD897FAA7F0B0FA80F0DD
:103D300040F06000B4EB501F01D130680BE097FAFF
:103D4000A7F0B0FA80F040F06000B7EB501F01D14F
:103D5000306A00E0706A97FAA7F1B1FA81F101F0D8
:103D60001F0104FA01F21042D8D1287840076ED51D
:103D7000F06940F08050F061DFF8E0B0DBF800104F
:103D800041F48071CBF80010FEF7AAFD824605E0F1
:103D9000FEF7A6FDA0EB0A00642841D8DBF800007E
:103DA000C005F5D5306A20F005003062FEF798FDB9
:103DB000834641F2883A05E0FEF792FDA0EB0B0145
:103DC00051452DD897FAA7F0B0FA80F040F04000A6
:103DD000B4EB501F01D130680BE097FAA7F0B0FAAE
:103DE00080F040F04000B7EB501F01D1306A00E096
:103DF000706A97FAA7F1B1FA81F101F01F0104FA94
:103E000001F10842D8D1306AE96820F00500084382
:103E10003062E868012804D0FEF762FD83463DE089
:103E200082E0FEF75DFD834606E000BFFEF758FD29
:103E3000A0EB0B01514577D897FAA7F0B0FA80F0C4
:103E400040F04000B4EB501F0AD1306814E046E067
:103E500000100240000042428004424200700040D4
:103E600097FAA7F0B0FA80F040F04000B7EB501F8F
:103E700001D1306A00E0706A97FAA7F1B1FA81F1D6
:103E800001F01F0204FA02F10842CFD027E000BF80
:103E9000FEF726FDA0EB0B01514545D897FAA7F098
:103EA000B0FA80F040F04000B4EB501F01D1306810
:103EB0000BE097FAA7F0B0FA80F040F04000B7EBC3
:103EC000501F01D1306A00E0706A97FAA7F1B1FA89
:103ED00081F101F01F0204FA02F10842D8D1E86929
:103EE000E0B37168C1F38101022975D04FF000770A
:103EF0000228C9F8608003D0FEF7F2FC054653E0C3
:103F0000FEF7EEFC804605E0FEF7EAFCA0EB0800B9
:103F1000642846D897FAA7F0B0FA80F040F0200065
:103F2000400902D0306801E03BE0706A97FAA7F1DF
:103F3000B1FA81F101F01F0104FA01F10842E3D165
:103F4000D5E908100843716821F4741108437060C2
:103F5000C9F86040FEF7C4FC054606E039E000BF42
:103F6000FEF7BEFC401B64281BD897FAA7F0B0FAF6
:103F700080F040F02000400901D0306800E0706A15
:103F800097FAA7F1B1FA81F101F01F0104FA01F1EA
:103F90000842E5D01DE000BFFEF7A2FC401B6428EC
:103FA00002D90320BDE8F09F97FAA7F0B0FA80F09D
:103FB00040F02000400901D0306800E0706A97FAB4
:103FC000A7F1B1FA81F101F01F0104FA01F10842F1
:103FD000E2D10020E6E7FFE70120E3E74FF0E02130
:103FE0000428086903D020F004000861704740F0FD
:103FF0000400FAE710B5401EB0F1807F01D3012024
:1040000010BD4FF0E02460610F21601700F020FB2D
:104010000020A06107202061002010BD30B590F87D
:104020003820012A1FD0012280F838200268536806
:1040300094680E4DAA4202D00D4DAA4203D123F43A
:1040400070054B682B4323F070050B6889682B4380
:1040500024F080042143536002689160002180F8BD
:104060003810084630BD022030BD0000002C014051
:104070000034014010B5040003D094F8390010B1A9
:1040800004E0012010BD204600F00CF8022084F866
:104090003900211D206800F035FF012084F8390027
:1040A000002010BD0C4B02680C499A4203D1CA692A
:1040B00042F00202CA610A4B02689A4203D1CA69FD
:1040C00042F01002CA610068064A904203D1C869F2
:1040D00040F02000C861704700040040001002401A
:1040E0000010004000140040022180F839100168DF
:1040F0000A6842F001020A60012180F839100020AC
:104100007047022180F8391001680A6A41F21113E0
:104110001A4207D10A6A9B101A4203D10A6822F098
:1041200001020A60012180F8391000207047000068
:1041300070B5044690F83800012817D0012584F89E
:104140003850022084F8390022689068364E30409A
:1041500020F47F4090600868502839D00DDC20287A
:104160005BD005DC98B3102843D153E0022070BD2A
:10417000302855D040283CD141E0602830D070280C
:104180000CD0B0F5805F03D0B0F5005F31D112E004
:1041900020688168244A7032114016E0CB68D1E96A
:1041A0000121206800F002FF21688868304040F05B
:1041B000770088601DE0CB68D1E90121206800F01C
:1041C000F5FE2068816841F48041816011E01EE0C5
:1041D000CA684968206800F063FF5021206806E043
:1041E000CA684968206800F06CFF6021206800F010
:1041F000E7FE84F83950002084F8380070BDCA68A2
:104200004968206800F04CFF40212068EFE700215A
:104210002068ECE710212068E9E720212068E6E724
:1042200030212068E3E7000088FFFEFF10B504009E
:1042300003D094F8690010B104E0012010BD2046BD
:1042400000F026F8022084F869002068016821F057
:1042500001010160204600F0D3FF0128EED0606A22
:1042600010B1204600F03FFF2068416821F49041E2
:1042700041602068816821F02A018160206801681E
:1042800041F0010101602046BDE8104000F08FBF01
:1042900010B50068124C86B0A0421FD11148C16908
:1042A00041F40031C1610C200090022001900120F6
:1042B0000290032003900720049069464FF090403D
:1042C000FEF742FA206840F020002060002206211C
:1042D0002620FEF75FFB2620FEF751FB06B010BD3F
:1042E00000440040001002400020FCF7CDBC00203C
:1042F000FCF7D8BC70B5184886B04FF0A0410160FB
:10430000164E4FF480314160B16800240461C461ED
:10431000446281604FF48061016301250562891068
:10432000C460C1620421C0E90514C0E90D54FDF761
:10433000BDFB06F110000A49007851F82000CDE9D4
:1043400000050394F06802900494694605940248BD
:10435000FDF7B8F806B070BD70040020040000201E
:10436000B096000870B5184886B016490160174E1F
:1043700009024160B16800240461C4614462816043
:104380004FF480610163012505628910C460C16238
:104390000421C0E90514C0E90D54FDF787FB06F1BF
:1043A00010000B49407851F82000CDE90005039436
:1043B000F06802900494694605940348FDF782F87A
:1043C00006B070BD00010050BC04002004000020B5
:1043D000E896000870B5184886B016490160174E77
:1043E00089014160B16800240461C4614462816054
:1043F0004FF480610163012505628910C460C162C8
:104400000421C0E90514C0E90D54FDF74FFB06F186
:1044100010000B49807851F82000CDE90005039485
:10442000F06802900494694605940348FDF74AF841
:1044300006B070BD000400500805002004000020F4
:104440001097000870B5194886B017490160184EDA
:104450004FF480314160B16800240461C46144625A
:1044600081604FF480610163012505628910C46099
:10447000C1620421C0E90514C0E90D54FDF716FB23
:1044800006F110000B49C07851F82000CDE9000575
:104490000394F06802900494694605940348FDF77C
:1044A00011F806B070BD0000000500505405002052
:1044B00004000020209700081CB50D490B48086037
:1044C0000846FDF70CFE042000900A4800226946C9
:1044D000006801900648FDF7DEFD142000901022D0
:1044E00069460348FDF7D7FD1CBD0000007400407D
:1044F000EC030020000000200448416941F0020163
:104500004161416941F00101416170470010024081
:1045100010B50020FCF782FB0A48416941F4001104
:104520004161416941F400214161416941F48001E7
:104530004161416941F400314161416941F48021A7
:10454000416110BD0010024010B50E4888B00C4902
:104550000024C0E900148460C4600461FFF78AFD90
:104560004FF48050039003A90648FFF7E1FD202097
:104570000090694602940348FFF750FD08B010BD53
:1045800000040040380300203EB50B4809490024D0
:10459000016040F2FF714460C0E903148460FFF7DA
:1045A00069FD20200090694602940348FFF736FD1C
:1045B0003EBD000000100040740300203EB50B48D3
:1045C00009490024016040F2FF714460C0E903140E
:1045D0008460FFF74FFD2020009069460294034855
:1045E000FFF71CFD3EBD000000140040B00300209A
:1045F0000848074901604FF4E131416000218160C2
:104600000C22C160C0E904128161C161FFF70EBED6
:10461000004400408006002010B5002208490948E7
:1046200001F0AFF90849074801F051FB0749054877
:1046300000F0FAFFBDE81040024801F095BB000011
:104640009C000020EC060020FC02002084000020DA
:104650000907090E002806DA00F00F0000F1E0203B
:1046600080F8141D704700F1E02080F800147047B6
:104670002DE9FC5F4FF000080446ADF8008048F6D5
:104680000F7B4FF002094FF4806697E1BDF80410EC
:1046900011F00F072DD030F82710ADF80010BDF83D
:1046A000001009047AD530F8272040F68F710A40AF
:1046B00020F82720C7EBC70004EB800595F812010E
:1046C00005F5847500286AD02978206830F8212003
:1046D000B0F8503052047DD509EBC101194406EB06
:1046E0004101415AC1F309015FEA010A73D0EA8826
:1046F000D1E0BDF80410C9062AD4018801EA0B01F3
:104700000180206804F12805B0F850202B7809EBCF
:10471000C301114406EB4101405AC0F30900206473
:10472000A16B0844A06300212046FEF783F994F8AA
:1047300024000028A9D068690028A6D194F8240094
:10474000216840F08000A1F84C0084F8248035E115
:10475000018804F58475ADF80010BDF80010090556
:104760001ED5B0F850302A78062101EBC201194459
:1047700006EB4101405A04F5F671C0F30903AB6141
:10478000AA88206800F028F92068018840F68F7216
:10479000114001802046FEF795FE0FE1A1E054E0B4
:1047A000BDF800100904D2D5028840F68F710A4086
:1047B00002802068B0F850302A78062101EBC2014F
:1047C000194406EB4101405A83059B0DAB610BD0A8
:1047D000AA8801E052E062E02969206800F0FCF854
:1047E000A96928690844286100212046FEF72BF9B1
:1047F0002068B0F85010891D06EB41014218E868A6
:104800003E280BD9C0F34F11C00601D1491E89B211
:104810004FF4004040EA812080B209E0C0F34F012C
:10482000C00701D0491C89B24FF6FF7000EA812011
:104830001060216808884BF68F72104080F4405059
:1048400048F2800210430880B8E0D4F800C0BCF8F9
:1048500050102A78062000EBC200084406EB400006
:104860003CF80000C0F309005FEA000A23D00346C9
:10487000AA886046296900F0AFF81CE0062202EB26
:10488000C101194406EB4101415AC1F309015FEA34
:10489000010A04D02A895346296900F09DF8297835
:1048A000226832F8210048F68F73184048F2C0039E
:1048B000184322F82100A96901EB0A00A8612969BF
:1048C00001EB0A022A616B6913B1E968514504D909
:1048D00029782046FEF7B7F803E029782046FEF74E
:1048E0005DFBBDF80000000668D5C7EBC70004EB10
:1048F0008005206830F8271001EA0B0120F8271006
:1049000095F8320028350028206812D0297830F830
:104910002120B0F8503052061ED509EBC1011944D0
:1049200006EB4101405A83059B0DAB6124D0EA8818
:104930001EE0B0F850302A7809EBC201194406EBAA
:104940004101405A83059B0DAB6121D0AA8829699A
:10495000206800F050F81BE0062202EBC101194468
:1049600006EB4101405A83059B0DAB6104D02A89B7
:104970002969206800F03FF82978206830F8212064
:1049800048F68F731A404CF280031A4320F8212016
:104990002068B0F850302A7809EBC201194406EBC0
:1049A0004101405AC0F30900A86129690A182A6127
:1049B00029786B69204663B1FEF7A8FB2068B0F840
:1049C0004410ADF8041009043FF560AE0020BDE8C6
:1049D000FC9FFEF72FF8F1E75B1C00EB42005B0841
:1049E00000F5806006D000BF30F8042B21F8022BC0
:1049F0005B1EF9D1704710B55B1C00EB42005B08F1
:104A000000F5806009D011F8012B5B1E11F8014BF5
:104A100042EA042220F8042BF5D110BD86B0002212
:104A20001421052004F022FA394CA062042004F07D
:104A3000F5F9206303F058FC364E4FF0FF350027A0
:104A40004FF0010800232A466946A06A04F032FAB2
:104A50002946206B04F0D2FB9DF80000322808D0D4
:104A600033280BD0342822D035283ED0362841D0E8
:104A700049E096F82000B8B3062042E096F82000FE
:104A8000052840D096F8200070B303F005FB03F032
:104A900013FB96F82000062835D096F8200004284D
:104AA00031D086F82080A76103F0F8FA2BE096F861
:104AB0002000012827D096F82000022823D096F85D
:104AC000200003281FD096F8200004281BD003F0F4
:104AD000F3FA86F8208003F0E1FA114800232A4611
:104AE0000DA1006804F0AAFA0DE003F0D5FA86F8EB
:104AF000207008E096F82000062804D103F0CEFAD2
:104B0000404686F82000206B04F05EFB9AE7000028
:104B1000E8010020E4920020534D504C00000000BA
:104B200074010020964D974F974C4FF000084FF0BE
:104B3000FF3600BF95F8200001280AD095F8200024
:104B4000022806D095F82000032802D003F0E6FFE3
:104B5000F0E73146206B04F051FBE068206195F8E6
:104B60004000FCF7A3FBE96B081AE060E96B421E0A
:104B70000A44E96BB2FBF1F301FB1321616195F883
:104B80002020012A08D095F82010022945D095F858
:104B9000201003297ED0EEE0688B082895F84000AD
:104BA00005EB800004D8026A21F00100105C02E0ED
:104BB000006A30F81100208003F0E8FE208A81B2FC
:104BC000A08980B203F05EFAA1690844A061A168DF
:104BD0008842E0D9297D21B921886288103191422B
:104BE00014D3297D012904D121886288103991428A
:104BF0000CDC697D012903D12969B0EB810F05D84F
:104C0000697D022978D12969814275D2022085F80F
:104C10002000002332465DA1AAE0218A80B289B239
:104C200003F030FAA1690844A061688B082895F860
:104C3000400005EB8000006A616903D821F00101A2
:104C4000405C01E030F81100208003F09FFE287DD9
:104C500018B920886188884215D8287D012803D199
:104C60002088618888420ED3687D012804D1286994
:104C7000A169B1EB800F06D8687D02287BD1296934
:104C8000A069814277D2A069C4E90680032085F833
:104C9000200000E005E06069002332463DA1E062AB
:104CA00066E0218A80B289B203F0ECF9A169084478
:104CB000A06195F8201003295DD1616888425AD31C
:104CC00003F0EAF9687D01283CD0687D022839D0DC
:104CD000688B0828287D1BD900286188E06A01D0EC
:104CE0000CE0401E95F8402005EB8202126A32F873
:104CF00010208A42F5D823E03DE0401E95F8402080
:104D000005EB8202126A32F810208A42F5D317E0CE
:104D100000286188E06A01D00AE0401E95F8402032
:104D200005EB8202126A125C8A42F6D808E0401E45
:104D300095F8402005EB8202126A125C8A42F6D393
:104D4000401CE062E06A6860042085F82000E169A8
:104D50002162A06960620844B0F5801F01D3C4F8E5
:104D60001880C4F81880002332460CA1C4F81C80B7
:104D7000386804F063F9206B04F026FADAE60000E4
:104D8000E492002074010020E8010020534D504CB3
:104D90000000000054524947000000003144617493
:104DA0006152656164795F5F000000004FF4C87470
:104DB000204602F007FCFFF79AFA282002F002FCD6
:104DC000FFF792FAF4E710B504F028FB08B104F0FD
:104DD00013F8BDE81040FDF789BD000070B59EB026
:104DE0000024012005251194CDE90F0502260004B9
:104DF000CDE916604FF4E01018900FA8FEF726FEDC
:104E00007002CDE91B401D94CDE91956022119A865
:104E1000FEF760FC0E4800904012099040010A9095
:104E200003940E946846FEF76DFBFEF797FD4FF472
:104E30007A71B0FBF1F0FFF7DDF80420FFF7CEF850
:104E400000221146501EFDF7A5FD1EB070BD0000EA
:104E5000820102001448016841F4700101601348A6
:104E6000016841F0010101604168114A114041604F
:104E70000168104A11400160016821F4802101603D
:104E8000416821F4FE014160C16A21F00F01C16255
:104E9000016B094A11400163002181600249C0038E
:104EA000803908607047000088ED00E00010024083
:104EB0000CC07FF8FFFFF6FECCFC00FF10B50448E5
:104EC000FFF71FF90248BDE810403C30FFF719B961
:104ED0007403002010B50448FFF706F90248BDE846
:104EE00010403C30FFF700B9740300200148FFF781
:104EF00008B90000380300200148FFF7F5B80000AA
:104F0000380300202DE9F0430268214B214D224E49
:104F1000224C4FF08049984207D0484505D0A8421E
:104F200003D0B04201D0A04203D122F070074A68FA
:104F30003A431B4FDFF86CC0DFF86C8098420DD00D
:104F400048450BD0A84209D0B04207D0A04205D0B6
:104F5000B84203D0604501D0404503D122F44075EA
:104F6000CA682A4302608A68C2620A6882629842FA
:104F700007D0A04205D0B84203D0604501D04045DB
:104F800001D10969016301214161BDE8F08300009D
:104F9000002C0140000400400008004000340140A3
:104FA00000400140004401400048014010B58468C1
:104FB00042EA032224F47F440A432243826010BD64
:104FC000826822F070020A4342F007018160704754
:104FD0002DE9F04791460F4680460024FEF7EEFC8F
:104FE0004000B0FBF8F0401C410806D0B1F5803F0E
:104FF00005DA0025491E8EB227E06C2426E04FF02A
:10500000FF35080C2E0C401C80B291FBF0F293B2DD
:1050100003FB1012AA4201D215460446B04204D145
:10502000B1FBF4F083B2A0B201E0002AEBD19842C8
:1050300004D95B1E401E9DB286B203E0401E5B1E7B
:1050400085B29EB20AB16B2400E00024B9F1000FD2
:1050500009D0FEF7B3FC0146681C721C5043B1FB3B
:10506000F0F1C9F80010FE6038467D60FFF702F8E5
:105070002046BDE8F087000019B1012903D00020C7
:105080007047034901E002493C31FFF7A1BF00002E
:10509000740300200A460149FFF79ABF3803002035
:1050A00010B5036A046A24F001040462846924F0E0
:1050B000F00444EA021423F00A020A438461026203
:1050C00010BD10B5036A23F0100303628369046AFC
:1050D00023F4704343EA023224F0A00343EA0111AF
:1050E0008261016210BD90F82410C90706D00168E2
:1050F0004A68836A22F400321A434A6090F8241006
:10510000890706D501684A68C36A22F480321A43C7
:105110004A6090F82410490706D501684A68036B75
:1051200022F480221A434A6090F82410090706D519
:1051300001684A68436B22F400421A434A6090F8BF
:105140002410C90606D501688A68836B22F4805250
:105150001A438A6090F82410890606D501688A6887
:10516000C36B22F400521A438A6090F82410490657
:1051700011D501684A68036C22F480121A434A6010
:10518000016CB1F5801F06D101684A68436C22F4B6
:10519000C0021A434A6090F82410090606D5016837
:1051A0004A68806C22F4002202434A60704770B55E
:1051B0000025044680F86A50006800686FF07E465B
:1051C000000707D5334600224FF40011204600F0B7
:1051D000FBF858B920680068400709D5334600221B
:1051E0004FF48001204600F0EFF808B1032070BDB5
:1051F000012084F8690084F86850002070BD000028
:105200002DE9F041044610202369A268E6691A439B
:105210006369002133431A4323680D461E6849F22F
:105220000C67BE4316431E6022685368E66823F489
:10523000405333435360236AA2691A4323689E682C
:1052400026F4306616439E60574F2268574B06037C
:10525000BA420CD11B6B13F0030306D0012B4DD0C7
:10526000022B4DD0032B4CD146E0012049E0504F9A
:10527000BA420CD11B6B13F440333BD0B3423DD048
:10528000B3F5003F3CD0B3F5403F3AD134E0494F4D
:10529000BA420DD11B6B13F440232BD0B3F5802FF2
:1052A0002CD0B3F5002F2BD0B3F5402F29D123E01C
:1052B000414FBA420DD11B6B13F440131AD0B3F512
:1052C000801F1BD0B3F5001F1AD0B3F5401F18D1B3
:1052D00012E03A4FBA4214D11B6B13F4400309D0C9
:1052E000B3F5800F0AD0B3F5000F09D0B3F5400F26
:1052F00007D101E0002004E0022002E0042000E0E9
:105300000820E7694FF400439F4226D109281DD2A7
:10531000DFE800F00508101C151C1C1C1800FEF727
:1053200037FB01E0FEF74AFB61684000B0FBF1F09B
:1053300081B20CE022496068B1FBF0F0F8E7FEF7BB
:1053400053FBF1E76068B6FBF0F0F1E7012521F0CF
:105350000F00C1F3420108431AE0092820D2DFE818
:1053600000F005080B1F111F1F1F1A00FEF710FB8E
:105370000AE0FEF723FB07E012496068B1FBF0F09A
:1053800080B20BE0FEF730FB6168B0FBF1F080B259
:105390002168C86005E06068B3FBF0F0D06000E011
:1053A00001252846BDE8F081003801400010024088
:1053B0000044004000480040004C004000500040C5
:1053C0000024F40000127A002DE9F0471D469046B3
:1053D0000E460446FDF784FA07465FEA08004FF0E0
:1053E00000094FF0030808D030E0681C05D095B1E3
:1053F000FDF776FAC01BA8420DD82068C06936EACE
:105400000000F2D127E0681C20D025B1FDF768FA32
:10541000C01BA8421AD92068016821F080010160F0
:105420002068016821F0200101602068016821F4F2
:10543000807101602068816821F00101816084F839
:10544000698084F868900320BDE8F0872068C0690F
:1054500036EA0000D7D00020F6E710B50B46044628
:1054600004E014F8010B00F005F85B1E002BF8D1E6
:10547000002010BD03490A681206FCD501490C3111
:10548000088070471C440040054810B50088C0B231
:1054900001F0B6FDBDE810402620FDF765BA00001A
:1054A00024440040D0F8180220B10021C0F81411A3
:1054B000084670470220704770B50546D0F818427C
:1054C00000F007FBC4F80C01D5F8180248B1D5F874
:1054D0001C12D4F80401CA6804F5867190470020B4
:1054E00070BD022070BD70B504460025812100F01A
:1054F00064FA0121204600F060FA8221204600F083
:105500005CFAD4F8180250B1D4F81C0204F5067401
:1055100040688047206800F01FFD0020206028467A
:1055200070BD10B5D0E9864159B194F80001FF284B
:1055300007D08B6894F8012121469847FF2084F812
:105540000001002010BD00000A21018000487047C2
:10555000240200204321018000487047740200208B
:105560004321018000487047300200204321018020
:1055700000487047B80200202DE9F0410446007C45
:1055800000254FF4807670B340230222812120460B
:1055900000F0F2FA402302220121204600F0ECFA4A
:1055A000082303228221204600F0E6FA4FF48E7091
:1055B00000F0D4FCC4F81802F0B10746D4F81C027D
:1055C000006880470020C7F81401C7F81801207C44
:1055D000D7F8042190B140230121204600F0D6FAEB
:1055E0002846BDE8F081FFE73346022281212046AC
:1055F00000F0C2FA3346CEE70125F1E73346EBE788
:1056000010B5D0F8181269B1027C002AD1F8042133
:1056100005D04023012100F0B9FA002010BD4FF45D
:105620008073F7E7022010BD02460220002902D055
:105630000020C2F81C127047D0F81802C0F80411FC
:1056400000207047D0F81802C0F81021C0F80811E7
:105650000020704770B50646D0F8185208780C46FE
:1056600000F06001202921D1E288C2B100066078F3
:105670000AD5D6F81C128B6829469847E288294635
:10568000304600F069F811E085F80001A07985F84E
:105690000101E2882946304600F044F806E0D6F8D9
:1056A0001C12002260788B6811469847002070BD5C
:1056B00010B5D0F8181289B1D1F814210AB101201F
:1056C00010BD0122C1F81421B1F8102193B2D1F814
:1056D0000821812100F0E0FA002010BD022010BD59
:1056E00010B5D0F8142252689047002010BD134620
:1056F00010B50A46002100F049FA002010BD1346FB
:1057000010B50A46002100F0C7FA002010BD10B500
:105710000446802100F0A9FA2046BDE8104000218F
:1057200000F0A3BA10B50323C0F80821C0F8F43183
:10573000C0F80C2113460A46002100F027FA002089
:1057400010BD10B505210023C0F8F4111A46194602
:1057500000F01CFA002010BD10B502238261C0F8D1
:10576000F431C26113460A46002100F095FA002088
:1057700010BD10B504210023C0F8F4111A461946D3
:1057800000F08AFA002010BD10B50A46024903A0B5
:1057900000F0D4F8004810BD501B002043444320C3
:1057A000436F6E66696700001220088000487047EA
:1057B000BC00002010B50A46024903A000F0BEF864
:1057C000004810BD501B002043444320496E7465BF
:1057D000726661636500000004200880004870471D
:1057E000B800002010B50A46024903A000F0A6F850
:1057F000004810BD501B002053544D6963726F6503
:105800006C656374726F6E696373000010B50A464D
:10581000024903A000F092F8004810BD501B002080
:1058200053544D3332205669727475616C20436F46
:105830006D506F727400000010B50A46024903A053
:1058400000F07CF8004810BD501B00203030303094
:10585000303030303030314100000000F8B50446BF
:1058600048880D46010A08294BD2DFE801F04A04B6
:1058700009174A4A4048D4F81012207C0A6832E0DE
:10588000207C02260028D4F8140205D0C16A68469C
:1058900088470146467041E0816AF8E7C0B20628B1
:1058A0002FD2DFE800F003080D12171CD4F81012F5
:1058B000207C4A6817E0D4F81012207C8A6812E035
:1058C000D4F81012207CCA680DE0D4F81012207CA5
:1058D0000A6908E0D4F81012207C4A6903E0D4F881
:1058E0001012207C8A6969469047014616E0207CA8
:1058F00038B9D4F81402416B68468847F5E7207C34
:1059000020B129462046FFF702FFF8BDD4F8140263
:10591000016B68468847014607204870BDF80000C3
:105920000028F2D0EA88002AEFD0824200D902464D
:10593000ADF800202046FFF70FFFF8BD70B500233B
:1059400000281DD00446002502E06D1CEDB2641C49
:105950002678002EF9D1022404EB45041480CC549F
:105960005B1C0322CA5400245B1C06E0CA545B1C67
:10597000DAB28C54521CD3B2401C0278002AF5D102
:1059800070BD10B580B1D0F8143213B10023C0F847
:10599000143209B1C0F81012012180F8FC11027014
:1059A00000F09CF8002010BD022010BD10B5D0F80A
:1059B0002002FDF713F9002010BD10B5D0F8200229
:1059C000FDF74BF8002010BD2DE9F04117460446C5
:1059D00041B1D4F814024269EAB394F8FC010328F7
:1059E0003DD03EE0D4F8F411002504F11400022962
:1059F0002CD1D0E902639E4207D9F31A83609AB290
:105A000039462046FFF77BFE20E04068B0FBF3F10B
:105A100003FB110169B998420BD3D4F8F8118842FD
:105A200007D2002211462046FFF769FEC4F8F8515C
:105A30000CE0D4F81402C16829B194F8FC010328E1
:105A400001D1204688472046FFF77BFE94F80002EC
:105A5000012806D100E004E084F8005201E020466D
:105A600090470020BDE8F08170B51546044641B16D
:105A7000D4F8140282693AB394F8FC01032824D0C4
:105A800025E0D4F8F41104F5827003291FD1D0E980
:105A900002218A420BD9531A83600846834200D3FD
:105AA00003469AB229462046FFF721FE0FE0D4F8BC
:105AB0001402016929B194F8FC01032801D12046A0
:105AC00088472046FFF755FE01E02046904700201A
:105AD00070BDD0F82002FDF7D9B8000010B51C4900
