:020000040800F2
:10000000D02C00204D0200085502000857020008BD
:10001000590200085B0200085D02000800000000B1
:100020000000000000000000000000009D0100082A
:100030006102000800000000E10100080141000821
:1000400067020008670200086702000867020008EC
:1000500067020008670200086702000867020008DC
:1000600067020008670200086702000867020008CC
:1000700067020008670200086702000867020008BC
:1000800067020008670200086702000867020008AC
:10009000670200086702000867020008670200089C
:1000A000670200086702000867020008670200088C
:1000B00067020008670200080000000067020008ED
:1000C000670200080000000000000000670200084E
:1000D000000000006702000855470008670200089A
:1000E000670200086702000800000000000000002E
:1000F0000000000000000000000000000000000000
:1001000000000000000000000000000000000000EF
:1001100000000000000000006702000867020008FD
:1001200000000000000000000000000000000000CF
:1001300000000000000000000000000000000000BF
:1001400067020008670200080000000000000000CD
:10015000000000000000000000000000000000009F
:10016000000000000000000000000000000000008F
:10017000000000000000000000000000000000007F
:100180000000000067020008DFF80CD000F0F0FA71
:1001900000480047395C0008D02C0020234B196828
:1001A0000868B0E8F04F80F309884FF0000080F352
:1001B000118870470000000003480068006880F361
:1001C000088862B600DF00BF08ED00E0DFF80C0031
:1001D000016841F470010160704700BF88ED00E0E4
:1001E000EFF30980114B1A681EF0100F08BF20EDC5
:1001F000108A20E9F04F106008B44FF0500080F3EF
:10020000118807F0C1F94FF0000080F3118808BC95
:1002100019680868B0E8F04F1EF0100F08BFB0EC86
:10022000108A80F30988704700BF00BF4800002093
:10023000EFF311804FF0500181F31188704780F384
:1002400011887047EFF3058070470000064880472B
:1002500006480047FEE7FEE7FEE7FEE7FEE7FEE7AB
:10026000FEE7FEE7FEE7FEE77D41000889010008A2
:1002700040EA01039B0703D009E008C9121F08C028
:10028000042AFAD203E011F8013B00F8013B521EA8
:10029000F9D27047D2B201E000F8012B491EFBD21F
:1002A00070470022F6E710B513460A460446194681
:1002B000FFF7F0FF204610BD0EB540F2334102912A
:1002C0000021CDE900110A460B4600F03AF803B0D0
:1002D00000BDC1F30A5210B5C1F3130140F2FF3360
:1002E00041F480119A4201DA002010BD40F23343FC
:1002F0009A42A2F2334203DC524200F003F810BDEE
:10030000904010BD202A04DB203A21FA02F000219F
:10031000704721FA02F3D040C2F120029140084315
:100320001946704710B5141E73F1000408DA401C1A
:1003300041F1000192185B411A4301D120F0010004
:1003400010BD2DE9F04D92469B4611B1B1FA81F2F4
:1003500002E0B0FA80F22032904600F01BFA044628
:100360000F4640EA0A0041EA0B0153465A46084349
:1003700013D0114653EA010019D0C8F1400250468B
:10038000FFF7C0FF05460E4650465946424600F06C
:1003900001FA084305D0012004E020463946BDE8B3
:1003A000F08D0020054346EAE0762C4337430A9857
:1003B0006305E40AA0EB08000022FD0A44EA475462
:1003C0000A3002D500200146E9E70105101969410C
:1003D000DDE9084500196941BDE8F04DA2E72DE9C6
:1003E000FE4F804681EA0300C00F0C46009021F0CA
:1003F000004123F00045B8EB0200A94105D2404678
:10040000214690461C460B46024623F0004010430E
:1004100047D0270DC7F30A00C3F30A510290401AD0
:10042000019040286BDAC3F3130040F4801B00985E
:10043000924620B10023D2EB030A63EB0B0B019829
:100440005946C0F14002504600F0A4F906460D4658
:1004500050465946019A00F0ACF910EB0800614192
:10046000002487EA115284EAE7731A4340D0009AC5
:1004700062B3019A012A4FEA075215DC001B61EBB7
:1004800002014FF0004202EA0752CDE90042001C8F
:1004900041F5801132462B46FFF753FF03B0BDE80C
:1004A000F08F40462146F9E7001B61EB0201001C7A
:1004B00041F5801300185B412018A2F5001747EBA7
:1004C000030140EAD570B6196D4111E06D084FEA9D
:1004D000360645EAC0754FEA0752001B61EB020180
:1004E000001C41F5801149084FEA300000195141C4
:1004F00032462B4603B0BDE8F04FFFF713BF00981C
:10050000012240000023D0EB020263EBE07300986D
:1005100021464FEAE074B8EB000061EB0401E9E723
:1005200083F000435BE781F0004158E72DE9FE4F7F
:1005300081EA030404F0004421F0004100944FF0EC
:10054000000B23F0004350EA01045ED052EA03049A
:100550005BD0C3F30A54C1F30A552C44A4F2F3341C
:100560000194A0FB0254C1F3130141F48011C3F3C1
:10057000130343F4801301FB024400FB034E840A7F
:10058000970A44EA815447EA8357A4FB0768029517
:100590008D0A05FB07854FEA932C04FB0C542705B5
:1005A000029D4FEA065847EA1637B5EB08056EEB91
:1005B000070C870E920E47EA811742EA8312A7FBC7
:1005C0000201B6EB0B0164EB00042B0D43EA0C3384
:1005D0005E1844EB1C50DA465146E7FB0201C5F3B6
:1005E00013044FEA0B3343EA14534FEA0432019CDD
:1005F00043EA0603A4F10C040294009CCDE900B484
:10060000FFF79FFE03B0BDE8F08F00200146F9E739
:100610002DE9F04D81EA030404F0004B21F0004580
:1006200014464FF0000A23F0004150EA050220D0A2
:1006300054EA01021DD0C5F30A570246C5F313035D
:10064000C1F31300C1F30A5640F4801543F480133C
:10065000A7EB0608101BD64608F2FD3873EB050021
:1006600002D308F1010801E092185B41B8F1000FD4
:1006700003DA00200146BDE8F08D00204FF4801120
:10068000064684460EE0171B73EB050705D3121BC5
:1006900063EB050306434CEA010C49084FEA3000BE
:1006A00092185B4150EA0107EDD152EA030012D0E3
:1006B00082EA040083EA0501084305D0101BAB4120
:1006C00006D20122002306E000224FF0004302E0A0
:1006D0006FF0010253101AEB06004CEB085110EBBF
:1006E0000A0041EB0B01BDE8F04DFFF71BBE70B5F2
:1006F00021F0004303430CD0C1F30A550024D5EB8D
:10070000040564EB0403D617AD1AB34102DB0020E5
:10071000014670BD201841EB025170BD0EB5C10FEE
:1007200080EAE0700844CA07002140F233438DE8B4
:100730000E000A460B46FFF704FE03B000BD0000A2
:1007400030B5041E71F1000404DB4FF00044404258
:1007500064EB0101141E73F1000405DB1C464FF02D
:100760000043524263EB0403994208BF904230BDFC
:10077000064C074D06E0E06840F0010394E80700EE
:1007800098471034AC42F6D3FFF702FD0C85000801
:100790002C850008202A04DB203A00FA02F1002010
:1007A00070479140C2F1200320FA03F319439040AF
:1007B0007047202A06DBCB17203A41FA02F043EAC1
:1007C000E07306E041FA02F3D040C2F1200291400A
:1007D0000843194670472DE9F04D00231A461B1AAD
:1007E0008A4103DB00200146BDE8F08DC1F30A52C7
:1007F000C1F3130141F480154FF0000BD10702D172
:1008000000186D41521E0027044640F2FF11384681
:1008100001EB620A3E468046024600204FF48011FA
:10082000FFF770FDC2197141BB1846EB0100B4EB34
:10083000030C75EB000C04D3E41A65EB00051746B6
:100840000E46241908F101006D4180463428E3DD8D
:10085000F91946EB0600091BA84103D24FF0FF32FD
:10086000134601E0002213461BEB070046EB0A513A
:10087000BDE8F04DFFF756BD70B504460020226874
:10088000936813F00C0F5ED0D36813F0007F05D08F
:10089000E369012B04BFA369012B0BD0602922D08F
:1008A0002068826812F0040F1BD0826812F0020FD9
:1008B00013D016E013680C2113F0400F08BF234B30
:1008C00008D101E0984230D2D2F800C0401C1CF0A0
:1008D000400FF7D040201060E2E7826842F010023B
:1008E00082600C2914D02068826812F0080F07D0AB
:1008F000826812F0020F03D1826842F02002826007
:10090000602908BF082504D06C2908BF0C2500D039
:10091000042502F049F8064620688068284212D073
:1009200002F042F8801B0B2809D9606C40F01000DF
:100930006064A06C40F00100A064012070BD2068DC
:1009400080682842ECD1002070BD000000940900AE
:100950000246406A416C11F0500F03D0C06B016B2E
:1009600010460847416C41F4007141640168C96850
:1009700011F4406F04BFC16900290BD1416C21F40F
:1009800080714164416C11F4805F03D1416C41F08E
:100990000101416401F098B8406A416C41F04001A6
:1009A0004164816C41F00401816401F061B9406AE5
:1009B00001F08BB870B5194C96B015460E4610B1C3
:1009C00001280ED01DE0442214496846FFF750FC70
:1009D000606C1190A06C1290E06C216D13901491DA
:1009E0000FE044220E496846FFF742FC0C48416C78
:1009F0001191806C1290D4F8A000D4F8A410139038
:100A00001491002E12BF002D16B070BD2A4631463B
:100A1000684601F01DFB16B070BD00008C0200207E
:100A2000E002002010B5044801F0A4FBBDE810402E
:100A3000024801F09FBB00008C020020E002002071
:100A400070B504460068816801F0030101292BD1CB
:100A5000016811F0010F27D0816801F00D01012913
:100A600013D1816841F00201816021680320086090
:100A700001F09AFF05462068806810F0010F13D03E
:100A800001F092FF401B022809D9606C40F0100071
:100A90006064A06C40F00100A064012070BD20687B
:100AA000806810F0010FEBD1002070BD70B50446D6
:100AB0000068816801F00301012903D1016811F088
:100AC000010F23D181686FF39E1181B9816841F0D4
:100AD0000101816001F068FF05462068006810F0A0
:100AE000010F13D101F060FF401B022809D9606C8F
:100AF00040F010006064A06C40F00100A064012090
:100B000070BD2068006810F0010FEBD0002070BDB0
:100B100070B51F4C0646A068002808BF0C250AD0F7
:100B2000082808BF0A2506D0102808BF082502D0CB
:100B3000182808BF062502F0EBF9B0FBF6F0401BC1
:100B4000401EB0F5167F88BF072017D8B52828BFEC
:100B5000062013D23D2828BF05200FD2132828BF16
:100B600004200BD2072828BF032007D2042828BF5F
:100B7000022003D202282CBF01200020E06005489B
:100B800001F0F8FA02F004FFBDE8704002F038BF4F
:100B9000040000208C02002070B50446114886B085
:100BA000416941F48021416140690F4E00F4802089
:100BB000059036F81400009001200190002002906A
:100BC0000A4D0320039055F82400694601F0E4FD26
:100BD00036F8141055F82400002201F0DDFE06B0AE
:100BE00070BD000000100240A08300083C000020FF
:100BF0000449054A31F8101052F82000002201F093
:100C0000CBBE0000A08300083C0000200449054A38
:100C100031F8101052F82000012201F0BDBE000092
:100C2000A08300083C00002010B50021044800F01B
:100C300037FDBDE810400021024800F031BD000042
:100C40008C020020E00200208AB00022142105203E
:100C500006F070FD654DDFF89881DFF89891DFF8B8
:100C600098B1DFF898A1664E664F674C2860002364
:100C70005A1E01A9286806F09AFD9DF80400312843
:100C8000F5D100BF9DF819008DF818009DF81A00E5
:100C90008DF819009DF81B008DF81A009DF80000D2
:100CA0008DF81B00684604F0E1FC0028DFD19DF8B8
:100CB00000003A2818BF3B28E4D19DF81800DDF861
:100CC000191040EA0120A0EB080140457DD013DC5B
:100CD00010EB09003AD010EB0B002FD04B49401815
:100CE00037D04B49C84218D14C480A15002349A1B6
:100CF000006806F085FEBAE711EB0A0052D0A0F1B9
:100D00008371B1F521612CD04548C14205D105F070
:100D100077F800BF05F004FDA9E7404800235A1EFC
:100D200040A1006806F06CFE684604F09FFC0028B5
:100D30009DD19DF800003B28F6D198E73748002365
:100D40005A1E3AA1006806F05BFE90E705F0F2FD3E
:100D50008DE7324800235A1E36A1006806F050FE87
:100D600085E7052108A804F0A1FC04280CD39DF810
:100D70002000DDF8211040EA0120801909D0F84256
:100D800018BF0120C6D10BE0002818BF2E4807D09D
:100D9000F5E7224800235A1E2C49006806F030FE71
:100DA0002046B7E7052108A804F080FC04280DD3ED
:100DB0009DF82000DDF8211040EA012080190AD0BA
:100DC000F84218BF0220A5D1EAE70CE0002818BFBE
:100DD0001D48E5D0F4E7114800235A1E1C4900685D
:100DE00006F00EFEDCE705F075F993E7A40000209D
:100DF0004F534350AEBAACDE090105E20C04F6FCD9
:100E0000BDB9B8C0FEF702E0454E445FF3FEFBFFFC
:100E100003FDF2FF43736869656C6400B000002055
:100E20000C1405F54539393900000000305F49449C
:100E30004E0000003953656E6453797374566572C1
:100E400073696F6E00000000020C0B200867000839
:100E5000E85D000892B002F0C9FEFC49002401F5EB
:100E60008070224601604FF480718180C4800481CB
:100E700084721E21052006F05DFCF54DA86004205B
:100E800006F030FCE860F3A00DF1280C0FC88CE8E8
:100E90000F00F4A0D0E9001280680E91CDE90F2078
:100EA000EB4C00235A1E02A9A06806F080FC4FF00C
:100EB000FF31E06806F074FF9DF8080030282ED05E
:100EC000312834D0322808BF002000F0F5803328C4
:100ED00000F00B81342800F01581352800F02581C1
:100EE000422800F05E81432800F05B82362800F043
:100EF0009B81372808BFDEA000F01381382808BF87
:100F0000DDA000F00E81392800F01782492800F09A
:100F10004D8241280CBFDAA002A800F002B9D8A087
:100F200004F03EFCD8A004F03BFC00F03ABA04F018
:100F300077FE042840F0358204F060FE054604F098
:100F400069FE044604F01EFE064600F0A3FB82463E
:100F500005F002FD010E8DF82C10010C8DF82D10FE
:100F6000010A8DF82E108DF82F00082E14D904F0E8
:100F70005DFE074604F04EFE804604F045FE08FB89
:100F800000F0A7EB104005EB4000B0FBF5F105FBCE
:100F900011006400009011E004F048FE074604F0E0
:100FA00039FE804604F030FE08FB00F0A7EB10404D
:100FB0002844B0FBF5F105FB110000908DF830607E
:100FC000200C8DF83100200A8DF8320000988DF841
:100FD000334020448DF837A0A84283BF00982F1AD1
:100FE000A4EB0708274698BF4FF000080024BAF189
:100FF000000F4DD9204604F0E5FD814604F1010BB8
:101000008DF836B010210AA804F0C8FBB7F5804F60
:1010100018D900983C46002609EB000505EB863000
:101020004FF4804104F0BAFB701CA4F58044C6B2B2
:10103000B4F5804FF2D8002C1CBF05EB8630A1B26E
:1010400004D105E027B10098B9B2484404F0A6FBEA
:10105000B8F5804F84BF4546002425D909EB84307C
:101060004FF4804104F09AFB601CA5F58045C4B2A2
:10107000B5F5804FF2D8002D1CBFA9B209EB843022
:1010800002D000BF04F08AFB0BF0FF045445B1D33B
:1010900082A004F085FB864800235A1E81A10068C7
:1010A00006F0AEFC00F07DB9B8F1000F1CBF1FFACE
:1010B00088F14846E6D1E7E700F13101441C8DF89C
:1010C0003C10E0B204F0A4FB010C8DF84110010AC1
:1010D0008DF842108DF843000C210EA804F05EFB41
:1010E000E0B20228E8D300F05CB9724804F058FB83
:1010F00001F0F0FE04F05FFB01F00AFF04F05BFB7F
:101100006D480EE06D4804F04BFB4FF4807004F026
:1011100052FB4FF4E13004F04EFB694804F040FB11
:10112000684804F03DFB00F03CB9674804F038FB28
:10113000664804F040FB4FF47A7004F03CFB022058
:1011400004F039FB00208DF8000000BF10F0FF0014
:1011500009D0012808BF5E4809D0022814BF03281F
:101160005C4804D005E05C4804F01AFB01E004F0A0
:1011700017FB9DF80000401CC0B28DF8000002284B
:10118000E4D340F6E44004F016FB5448008804F031
:1011900012FB684605F0DAFB9DF8001004F0FEFA39
:1011A000FFE04F4804F0FCFA022004F0F5FA0020BA
:1011B00004F0F2FA4B4F4C4E002507F11C08A7F142
:1011C0001009A7F10C0A494804F0EAFA705D0024FE
:1011D000002805D81FE0002C1CBF454804F0E0FAA9
:1011E000002D08BF57F824000ED0012D08BF58F875
:1011F000240009D0022D08BF59F8240004D0032D83
:1012000008BF5AF8240001D104F0CAFA601CC4B225
:10121000705DA042DFD8681CC5B2022DD3D333481D
:1012200004F0BEFA33487CE7334804F0B9FA334897
:1012300004F0C1FA4FF4FA7004F0BDFA0C2004F087
:10124000BAFA022004F0B7FA00245FE01C21002063
:10125000A80000204F53435F7979797978787878BE
:101260004348307847454E5F7843485F4678787802
:10127000475F4E5800000000475F4F4B00000000E2
:1012800041434B5F0000000053544D33324633302E
:10129000332D4E75636C656F2D333200535F4F4BAA
:1012A00000000000324461746153656E74000000F8
:1012B00008010020E4700008EC700008D86E0008F7
:1012C000E06E0008E86E0008EC6F000800093D00C1
:1012D000F86F00080070000808700008BAF7FF1FD8
:1012E000A4700008B8000020DA830008B470000879
:1012F000B8700008BC700008546F000880841E009D
:1013000024B1012C08BF2E4801D002E02D4804F082
:1013100047FA601CC4B2022CF2D3002004F04BFA4E
:1013200040F6E44004F047FA40F6E44004F043FAA3
:101330004FF4966004F03FFA33E0234804F030FAAB
:10134000224804F02DFA224804F02AFA214804F039
:1013500027FA214804F024FA204804F021FA204812
:1013600004F01EFA562004F017FA01F01AFB30249C
:1013700004EB1060C0B204F00FFA2E2004F00CFA57
:1013800001F00FFB04EB1040C0B204F005FA2E2070
:1013900004F002FA01F005FB04EB1020C0B204F0E7
:1013A000FBF91048C06806F0E1FC79E50D48002320
:1013B0005A1E02A9806806F0FAF902A8B1E60000F8
:1013C000686F0008606F000868710008707100089D
:1013D0008071000888710008907100089C710008F5
:1013E000A4710008A800002001490220086070478D
:1013F0000000002001490020086070470000002024
:1014000010B5446A204600F026FF0120207110BD6F
:1014100010B5446A204600F0E6FE0120207110BDA0
:1014200010B5446A206940F004002061204600F0B5
:1014300014FF0120207110BD10B5446A206940F0EE
:1014400004002061204600F0D0FE0120207110BD74
:10145000406A00F001BF10B5406A00F0C5FE10BD43
:10146000F8B50F46002116460C4680B1012818BF7A
:10147000F8BD102529460A4801F004F833463A46DB
:1014800029460748CDF8004000F074FFF8BD054834
:1014900000F0F8FF214633463A4602480094F3E74D
:1014A000DC010020F001002010B5154C96B0012899
:1014B00002D002280ED01DE0442211496846FEF7F2
:1014C000D7FE606C1190A06C1290E06C216D1390AF
:1014D00014910FE044220B496846FEF7C9FE094803
:1014E000416C1191806C1290D4F8A000D4F8A41033
:1014F000139014910F980068406816B080B210BD28
:101500008C020020E002002000B585B002F06AFEE7
:101510001021094800F0AAFF0021084800F0A6FFAA
:101520006020009000200190029069464FF09040AA
:1015300001F032F905B000BDDC010020F00100200F
:1015400030B51E4D85B01C482860284600F086FE48
:101550001B4C1420009020680190102269462846F8
:1015600000F044FE2868016841F400310160143540
:1015700014482860284600F071FE0420009020687E
:10158000019000226946284600F030FE2868016874
:1015900041F00201016060200090032001900020D2
:1015A000029069464FF0904001F0F6F805B0BDE8B2
:1015B000304002F025BE000000740040DC01002035
:1015C000000000200098004086B000221421052071
:1015D00006F0B0F82D4F2E49A1F12C04386021609F
:1015E0004FF47A706060E060A06020614FF0010805
:1015F00084F81580FA2060622084A1614FF0000910
:1016000084F814900C20208500235A1E69463868FF
:1016100006F0CDF89DF80000312818BF3228F3D02D
:10162000332808BF207DEFD0342809D0352804BFE7
:10163000207D0128E8D1FFF767FF84F81490E3E7E5
:10164000207D002808BF0025DED100BF04EB850601
:1016500070680022294602F08BFE607DA84207D9FF
:1016600004EB4500028CB1692846FFF7F9FE04E05F
:10167000002211462846FFF7F3FE681CC5B2022D72
:10168000E4D3FFF75DFF84F81480BDE71401002068
:10169000DC260020014890F82100704774260020C5
:1016A0002DE9F041044690F840000D46012804BFA2
:1016B0000220BDE8F0814FF0010884F84080204608
:1016C000FFF7BEF906004FF0000718BF012604D04F
:1016D00084F840703046BDE8F081C4F8448020684A
:1016E000816821F080418160012D04D120688168EA
:1016F00041F0804181602068816841F00041816053
:1017000001F052F905462068806810F0004F14D0AF
:1017100001F04AF9401B0A280AD9606C20F0020047
:1017200040F01000606484F840700120BDE8F08152
:101730002068806810F0004FEAD1606C20F0020051
:1017400040F001006064C3E72DE9F00198B04FF06C
:10175000000CCDF808C090F840206446012A01BF73
:10176000022018B0BDE8F0017047012780F84070F2
:101770000268936813F0040F40F04A814B681F25FC
:10178000052B0CD2166B03EB43035B009D4026EA4E
:1017900005050E6806FA03F32B4313632CE00A2BAE
:1017A0000DD2566B5B1F03EB43035B009D4026EAA3
:1017B00005050E6806FA03F32B4353631CE00F2B59
:1017C0000DD2966B0A3B03EB43035B009D4026EA78
:1017D00005050E6806FA03F32B4393630CE0D66B02
:1017E0000F3B03EB43035B009D4026EA05050E68B3
:1017F00006FA03F32B43D363026893684FF007059F
:1018000013F00C0F64D10B680A2B0ED396690A3BB8
:1018100003EB430305FA03F826EA0806D1F808802B
:1018200008FA03F3334393610CE0566903EB430377
:1018300005FA03F826EA0806D1F8088008FA03F347
:101840003343536102684B69D668D1F81080C6F300
:10185000C1067600B340974EB8F1010F3FD0B8F102
:10186000020F49D0B8F1030F53D0B8F1040F5DD087
:10187000136E0E7803F0F843B3EB866F03D1136E4B
:1018800023F0004313660268536E0E7803F0F843AA
:10189000B3EB866F03D1536E23F0004353660268A7
:1018A000936E0E7803F0F843B3EB866F03D1936E1B
:1018B00023F0004393660268D36E0E7803F0F8437A
:1018C000B3EB866F04BFD36E23F0004300D1D36621
:1018D0000268936803F00303012B37D132E0D2F89A
:1018E000608008EA060691F8008043EA8863334383
:1018F00043F000431366EBE7D2F8648008EA06067B
:1019000091F8008043EA8863334343F00043536611
:10191000DEE7D2F8688008EA060691F8008043EA1C
:101920008863334343F000439366D1E7D2F86C8079
:1019300008EA060691F8008043EA8863334343F0DF
:101940000043C4E7136813F0010F67D1CB68012B84
:10195000D2F8B03006D00D7807FA05F5AB43C2F8DF
:10196000B03022E00E7807FA06F63343C2F8B03002
:101970000A6803680A2A0CD39E69093A02EB4202FC
:10198000954026EA05058E6806FA02F22A439A6116
:101990000BE05E69521C02EB4202954026EA050507
:1019A0008E6806FA02F22A435A610968424A1029EF
:1019B00008D011290BD0122904BF936813F4800FAB
:1019C00009D02BE0936813F4000F27D103E093684C
:1019D00013F0807F22D10368B3F1A04F0CBF374DC5
:1019E0004FF0A04503959D6805F00305012D03D137
:1019F0001D6815F0010F0BD1039DB5B1AD6805F061
:101A00000305012D11D1039D2D6815F0010F0CD098
:101A1000416C41F0200141644FF0010C80F84040DE
:101A200018B06046BDE8F0017047102909D01129AF
:101A300033D0122904BF916841F48001EED1916046
:101A4000ECE7B3F1A04FE9D1916841F40001916056
:101A50001B491C4A0968B1FBF2F101EB8101490005
:101A600002910091DAD0B1F1004F1ED20029D8BF07
:101A7000002105DD11F0010102D0029A521E0292EE
:101A8000009A491C531C9942C8DA029A891C521EBA
:101A9000521E02929942F8DBC0E7B3F1A04F04BF97
:101AA000916841F08071B9D1C9E70299491E02914C
:101AB000FCD1B3E700F0FF830003005000010050A9
:101AC0004000002040420F0070477047002804BFCC
:101AD0000120704770B50446406C96B040F002009B
:101AE00060646C212046FEF7C7FE05004FF000063B
:101AF00040F0AA802068C16841F40011C16020460E
:101B0000FEF79EFF050018BF01257DD1012060640E
:101B1000206841686FF30A014160216840F2FF705C
:101B200008602068816821F0E04181602068816858
:101B300041F0005181602068C168464A1140C1608F
:101B4000206841696FF3DD0141612068816901F01E
:101B5000784181612068016A01F0F021016220680A
:101B6000416A01F0FF2141622068816A01F0FF2192
:101B700081622068016B384A114001632068426B22
:101B800036490A4042632068826B114081632068B5
:101B9000C16B21F0DF0121F4E061C16321680A6EAD
:101BA0002F4802400A6621684A6E02404A66216850
:101BB0008A6E02408A662168CA6E1040C866206834
:101BC000D0F8A0106FF31201C0F8A0102068D0F870
:101BD000A4106FF31201C0F8A4102068D0F8B01060
:101BE0006FF31201C0F8B0102068D0F8B41021F0E3
:101BF0007F11C0F8B41020681A49B0F1A04F0CBF93
:101C0000194A4FF0A04200E01EE00092826802F004
:101C10000302012A03D1006810F0010F0FD10098D0
:101C200048B1806800F00300012804D100980068E2
:101C300010F0010F03D188680C4A104088602046DC
:101C400000F02CF9A664666484F8406016B028465B
:101C500070BD000004800080300882E0200882E02F
:101C600000F0FF030003005000010050E0103CFEB4
:101C70007047000070B596B04FF0000504002E4686
:101C8000029502BF012016B070BD606C10F0100FFD
:101C900062D1606C00284BD1A6642665E66484F8A6
:101CA0004060204600F030F92068806810F0805FC6
:101CB0003ED12046FEF7C4FE0546606C00F01001E0
:101CC00051EA050034D1606C20F4885040F00200E5
:101CD00060642068816821F04051816020688168DB
:101CE00041F080518160674867490068B0FBF1F0BE
:101CF00000EB800040000290009019D0B0F1004F3E
:101D000080F0BB800028D8BF002005DD10F0010066
:101D100002D00299491E02910099401C491C884238
:101D200006DA029A801C521E521E02928842F8DB8A
:101D30002068816811F0805F03D0806810F0005F38
:101D40000AD0606C20F0020040F010006064A06CCB
:101D500040F00100A0640125606C00F010002843F1
:101D600004D12068816811F0040F09D0606C20F064
:101D7000020040F010006064012516B0284670BDD6
:101D8000616C21F4807141F0020161643F49B0F15E
:101D9000A04F14BF4FF0A0423D4A0092826802F06B
:101DA0000302012A03D1006810F0010F11D100983D
:101DB00048B1806800F00300012804D10098006851
:101DC00010F0010F05D18868626820F4403010439C
:101DD0008860D4E902100843A16B012914BF4FF4B5
:101DE00080520022E16942EA41321043626A012ACC
:101DF0000AD1A9B1616C21F0020141F020016164B6
:101E0000A16C41F00101A164E16A012902D0226BB9
:101E10001143084321688A6812F00C0F14D107E0BF
:101E2000218D1C4A02EB4141084340F48030EBE72E
:101E3000CA6822F0020222F48042CA60A169626B81
:101E4000890341EA420108432168CA68124B1A40DB
:101E50001043C860206901282068016B21F00F0140
:101E600002D1226A521E11430163A664606C20F005
:101E7000020040F0010060647FE70298401E02907B
:101E8000FCD155E74000002040420F000003005005
:101E9000000100500000FEFF07C0F0FF10B5184B16
:101EA000044600685968174A491EB0F1A04F08D08F
:101EB000A0F1A04CBCF5807C18BF10BD5960A1B941
:101EC0000FE0596019B9506920F080505061082125
:101ED0004FF0904000F0D6FBE06BBDE8104000F002
:101EE00011BB506920F08050506110214FF090409C
:101EF00000F0C8FBE06BBDE8104000F003BB000041
:101F000004000020001002402DE9F04F474A064629
:101F10001546D0F800C06968434803238027002491
:101F2000491C87B04FF480684FF480794FF0200A45
:101F30004FF4005BBCF1A04F0BD0ACF1A04EBEF54E
:101F4000807E1CBF07B0BDE8F08F6960012945D1D4
:101F500036E0696001290DD1416941F0805141614C
:101F6000416901F080510591C16A21F4F87141F491
:101F70008071C16210782E4931F81010CDE900133C
:101F80002C49029451F82000694600F005FC2B48CA
:101F90002949C0E90014C0E90247A968102913BF04
:101FA000182944610461C0E9049804462348C4E93F
:101FB00006AB00F0D7FAF463666207B0BDE8F08FB5
:101FC000416941F080514161416901F080510591C1
:101FD000C16A21F4F87141F48071C16250781849E6
:101FE00031F81010CDE900131649029451F8200081
:101FF000694600F0D1FB15481349C0E90014C0E957
:102000000247A968102913BF182944610461C0E977
:10201000049804460D48C4E906AB00F0A3FAF46343
:10202000666207B0BDE8F08F001002400400002097
:102030006A830008140000200800024034030020D6
:1020400064830008300000201C0002407803002058
:102050002DE9F0470446006890468946806810F0F4
:10206000040F18BF022502D02846BDE8F08794F877
:102070004000012804BF0220BDE8F08701204FF096
:10208000A04784F84000D7F808034FF0000610F08E
:102090001F0F1CBF012584F84060E5D12046FEF7E4
:1020A00005FD050018BF84F84060DDD1606C20F0AC
:1020B000010020F4606040F480706064D7F8080389
:1020C00010F01F0F1CBF2068B0F1A04F42D0616C10
:1020D00041F480116164A0F1A041B1F5807109D192
:1020E000F86810F0007F05D0606C20F4005040F4D8
:1020F00080506064606C10F4805F08BFA66403D0F9
:10210000A06C20F00600A06484F84060E16B1648E3
:102110008862E16B1548C862E16B15480863216865
:102120001C2008602068416841F01001416020686F
:10213000C16841F00101C1602068434600F14001DF
:102140004A46E06B00F052FA2068816841F00401D1
:10215000816089E7606C20F4801060642068C0684A
:1021600010F0007FC0D1C5E751090008AF09000891
:102170009909000870B5044690F84000012804BF92
:10218000022070BD012084F840006C212046FEF73B
:1021900073FB050022D12068C16821F00101C160F4
:1021A000E06B00F096F9051E03D0606C40F0400033
:1021B00060642068416821F010014160204604D12C
:1021C000FEF73EFC050009D102E0FEF739FC05E010
:1021D000606C20F4885040F001006064002084F8B6
:1021E0004000284670BD7047704770474379012B07
:1021F00004BF0220704770B40124447102230371AC
:102200000368D3F800C0A3F1804640F6FE75B6F52A
:10221000E84601BF002A2CF4FF7C2CF4606CD1E965
:1022200000511FBF95402CEA050C0D6889682943B1
:10223000914041EA0C01196001680B684FF0C00C35
:102240000CFA02F223EA02020A60047100214171D1
:1022500070BC08467047704770477047002804BF3D
:102260000120704770B504460079002518B96571E2
:10227000204600F007F8022020712561012020711E
:10228000002070BD2DE9F04F026805460026334856
:1022900020270321A2F1804387B04FF010084FF0B0
:1022A00080094FF4807A4FF4806BB3F5E8432FD068
:1022B000B3F510531CBF07B0BDE8F08FC26942F000
:1022C0008062C261C069029600F080600590402083
:1022D000CDE9000169464FF0904000F05DFA214CD5
:1022E0001F4804F10802C4E900084FF40050C4E993
:1022F000067082E8400E204600F034F91A48016862
:1023000041F400410160AC60656207B0BDE8F08F48
:10231000C26942F00052C261C069009700F00050EB
:102320000590CDE9011669464FF0904000F034FA6F
:102330000F4C0E4804F10802C4E900084FF40050A5
:10234000C4E9067082E8400E204600F00BF906480A
:10235000016841F480410160EC60D5E70010024063
:1023600058000240480200200000014044000240A2
:10237000040200202DE9F04104460D46944661799F
:1023800000220698012904BF0220BDE8F081012641
:10239000667102212171002D32D0E7682D49B962A2
:1023A000E7682D49F962E7682C49396321680F68AD
:1023B00047F080570F60002804BF206800F1140226
:1023C0000AD0042804BF206800F1180204D00828AD
:1023D00004BF206800F11C022068016841F0005130
:1023E00001606146E06800F001F90020607120683A
:1023F000016806FA05F2114301600020BDE8F08192
:10240000A7681749B962A7681649F962A76816490B
:10241000396321680F6847F480570F60002804BFB4
:10242000206800F108020AD0042804BF206800F1E7
:102430000C0204D0082804BF206800F110022068B4
:10244000016841F4005101606146A06800F0CEF8D7
:10245000CBE70000111400085714000839140008D5
:102460000114000851140008211400080368D3F86F
:1024700000C0012202FA01F12CEA01011960027187
:102480000020704770B50446006802684FF480531E
:102490008B409A43026020680268012505FA01F327
:1024A0009A43026069B1E06800F013F821680A6895
:1024B00022F000520A6000281ABF04212171257100
:1024C00070BDA06800F005F821680A6822F4005287
:1024D000F0E701680A6822F00E020A6001680A68E3
:1024E00022F001020A6090F84020C36B012101FA3A
:1024F00002F25A6080F82110002180F8201008466E
:1025000070470000002804BF0120704701680A6876
:1025100022F001020A600268002111600268516025
:10252000026891600268D1600B4B02684FF0010CA9
:102530001A440A4BA3FB023212099300084AC0E96D
:102540000F230CFA03F35360816380F8211080F8A5
:102550002010002070470000F8FFFDBFCDCCCCCC90
:1025600000000240002804BF0120704710B402217F
:1025700080F8211002681168D0E9013C43EA0C039D
:10258000D0E903C44CEA040C43EA0C03D0F814C0AD
:102590006FF30D1143EA0C03D0F818C043EA0C03A3
:1025A000D0F81CC043EA0C03194311600C4A0168BF
:1025B00011440C4AA2FB01210909890001640A495E
:1025C000C16300218162C1620163416381630122B1
:1025D00080F8212080F8201010BC084670470000C9
:1025E000F8FFFDBFCDCCCCCC0000024070B490F819
:1025F00020404FF0000C012C02BF022070BC70473D
:10260000012480F8204090F821600025012E1CBF95
:1026100080F820504FF0020C02D070BC604670472A
:10262000022680F82160856305682E6826F0010681
:102630002E6090F84050AC40C56B6C6004686360DD
:102640004368102B036803BF9A600268D1609960E9
:102650001CBF0168CA60C16A002901680A6818BF06
:1026600042F00E0206D142F00A020A6001680A68CE
:1026700022F004020A600068016841F00101016073
:10268000CBE700000022002908BF70472DE9F04F7A
:10269000DFF8F8B001274FF003084FF00F0C0BF1F3
:1026A000040E00BF07FA02F515EA010367D00668B9
:1026B000540008FA04F4A6430660D60800EB860628
:1026C000D6F820904FEA427A4FEADA6A0CFA0AFA10
:1026D00029EA0A09C6F820908668A64386604668FB
:1026E00026EA05054560C56825EA0404C46022F0B1
:1026F000030404F1804505F58035D5F8089094076A
:10270000260F0CFA06F404EA0909B0F1904F08BF4D
:102710004FF0000A18D0A0F1904ABAF5806A08BFBD
:102720004FF0010A10D0A0F1904ABAF5006A08BF34
:102730004FF0020A08D0A0F1904ABAF5406A0CBFE7
:102740004FF0030A4FF0050A0AFA06F64E4516D175
:10275000AE6826EA0404AC600D4C25689D432560F4
:10276000DBF800409C43CBF80040DEF800409C437F
:10277000CEF80040074C256825EA03032360521C6D
:1027800031FA02F38ED1BDE8F08F0000040401405D
:10279000000401400C0401400B680022002B08BF1C
:1027A00070472DE9F84F774EDFF8DCE101274FF055
:1027B000030A4FF00F0800BF0B6807FA02F52B4021
:1027C0007ED0D1F804C0BCF1020F18BFBCF1120FCB
:1027D00015D14FEAD20C00EB8C04D4F820904FEACC
:1027E000427C4FEADC6C08FA0CFB29EA0B09D1F8B1
:1027F00010B00BFA0CFC4CEA090CC4F820C0D0F85D
:1028000000904FEA420C91F804B00AFA0CF40BF075
:10281000030B29EA04090BFA0CFB4BEA0909C0F87F
:102820000090D1F80490B9F1010F18BFB9F1020F6F
:1028300005D0B9F1110F18BFB9F1120F18D1D0F8A6
:102840000890D1F80CB029EA04090BFA0CFB4BEA0A
:102850000909C0F80890D0F8049029EA050591F814
:102860000490C9F3001909FA02F949EA050545601F
:10287000C56825EA04048D6805FA0CFC4CEA040CD2
:10288000C0F80CC0D1F804C01CF0805F73D0D6F83B
:1028900018C04CF0010CC6F818C0D6F818C00CF0DF
:1028A000010CCDF800C022F0030C0CF1804404F5BB
:1028B0008034D4F808C095072D0F08FA05F900E018
:1028C00059E02CEA090CB0F1904F08BF4FF0000915
:1028D00018D0A0F19049B9F5806908BF4FF00109FF
:1028E00010D0A0F19049B9F5006908BF4FF0020976
:1028F00008D0A0F19049B9F540690CBF4FF0030929
:102900004FF0050909FA05F545EA0C0CC4F808C0B2
:10291000DEF800C04C682CEA030C14F4803F18BFAA
:102920004CEA030CCEF800C0184CD4F800C04D6837
:102930002CEA030C15F4003F18BF4CEA030CC4F852
:1029400000C0134CD4F800C04D682CEA030C15F4F9
:10295000801F18BF4CEA030CC4F800C00D4CD4F81B
:1029600000C04D682CEA030C15F4001F18BF4CEA98
:10297000030CC4F800C00B68521CD3407FF41CAF9A
:10298000BDE8F88F0010024000040140040401403B
:10299000080401400C040140002A14BF81618162D7
:1029A00070474FF082707047014800687047000020
:1029B0004400002002480168491C01607047000083
:1029C00044000020074810B5016841F01001016083
:1029D000032000F07DF80F2000F006F800F018F852
:1029E000002010BD0020024010B5044607484FF4F7
:1029F0007A720068B0FBF2F000F0C6FD00222146BA
:102A0000501E00F033F8002010BD000040000020F0
:102A1000094808B5816941F001018161806900F0D0
:102A200001000090032000F053F80022BDE80840A8
:102A30001146501E00F01AB80010024000F01F01AD
:102A4000012202FA01F14009800000F1E020C0F803
:102A50008012704700F01F01012202FA01F14009C3
:102A6000800000F1E020C0F800117047174B10B44F
:102A70001B68C3F30223C3F1070CBCF1040F88BF2A
:102A80004FF0040C1C1D072C34BF0023DB1E012457
:102A900004FA0CFCACF1010C0CEA0101994004FAB7
:102AA00003F35B1E1A40114300284FEA0111A1BF36
:102AB00000F1E02080F8001410BC704700F00F0017
:102AC00000F1E02080F8141D10BC70470CED00E010
:102AD000074900F007000A684FF6FF031A4042EA70
:102AE000002040F0FD7040F08060086070470000FA
:102AF0000CED00E02DE9F84F044600685F4E10F43D
:102B0000803F7DD0F0694FF0000910F0805F09D15F
:102B1000F06940F08050F061F0694FF0010900F079
:102B200080500090564F386810F4807F13D1386879
:102B300040F480703860FFF737FF0546386810F4BE
:102B4000807F08D1FFF730FF401B64285AD83868CF
:102B500010F4807FF6D0306A10F4407055D0A18810
:102B600001F44071814250D0306A0127390491FA52
:102B7000A1F2B2FA82F2920002F1844202F58402DA
:102B800020F44070C2F8007491FAA1F10022B1FA69
:102B900081F1890001F1844101F58401C1F800242B
:102BA000306210F0010F30D0FFF7FEFE80460225A4
:102BB00041F2883A95FAA5F0B0FA80F040F0400072
:102BC000B7EB501F08BF30680AD095FAA5F0B0FAED
:102BD00080F040F04000B5EB501F0CBF306A706AC7
:102BE00095FAA5F1B1FA81F101F01F0107FA01F19F
:102BF00008420AD1FFF7D8FEA0EB0800504500E0DC
:102C000010E0D7D90320BDE8F88F306A616820F45E
:102C1000407008433062B9F1000F03D0F06920F032
:102C20008050F061207810F0010F05D0306BA16862
:102C300020F0030008433063207810F0200F05D007
:102C4000306BE16820F0100008433063207810F00A
:102C5000800F05D0F06A216920F4F8700843F06213
:102C6000208810F4805F05D0306B616920F480709B
:102C7000084330630020BDE8F88F000000100240D8
:102C8000007000402DE9F047DFF8289205460E4617
:102C9000D9F8000000F00700B0420CD2D9F80000CB
:102CA00020F007003043C9F80000D9F8000000F018
:102CB0000700B04270D128787F4C10F0020F05D089
:102CC0006068A96820F0F00008436060287810F080
:102CD000010F71D068680121012831D0022845D048
:102CE000022393FAA3F2B2FA82F242F020025209CE
:102CF0000CBF626A226893FAA3F3B3FA83F303F07A
:102D00001F0399400A427DD0616821F00301084306
:102D10006060FFF749FE0746686841F2883801287D
:102D20003BD00228606800F00C0046D0002856D046
:102D3000FFF73AFEC01B40454DD90320BDE8F087A0
:102D40004FF4003393FAA3F2B2FA82F242F0200277
:102D5000520914BF2268626A93FAA3F3B3FA83F3A9
:102D600003F01F0399400A424CD0CDE74FF00073A7
:102D700093FAA3F2B2FA82F242F02002520914BF8F
:102D80002268626A93FAA3F3B3FA83F303F01F0392
:102D900099400A4236D0B7E734E0606800F00C0092
:102DA00004281CD0FFF700FEC01B4045C5D8606852
:102DB00000F00C000428F5D111E008280FD000BF66
:102DC000FFF7F2FDC01B4045B7D8606800F00C006B
:102DD0000828F5D103E0606810F00C0FA8D1D9F8ED
:102DE000000000F00700B0420FD9D9F8000020F031
:102DF00007003043C9F80000D9F8000000F00700D0
:102E0000B04202D00120BDE8F087287810F0040F0E
:102E100005D06068E96820F4E060084360602878C5
:102E200010F0080F06D06068296920F4605040EA6D
:102E3000C10060606168214801F00C02042A01D0E1
:102E4000082A13D06168F02292FAA2F201F0F00190
:102E5000B2FA82F2D1401A4A515CC840194908605E
:102E60000F20FFF7C1FD0020BDE8F0874FF470137D
:102E700093FAA3F301F47012B3FA83F3DA40124B1E
:102E80009A5CE36A4FF00F0C9CFAACFC03F00F0362
:102E9000BCFA8CFC23FA0CF3DFF830C011F4803F4D
:102EA0001CF8033019BFB0FBF3F0504308485043FF
:102EB000C8E70000002002400010024000127A0023
:102EC000A283000840000020BA830008CA830008DB
:102ED00000093D00014800687047000040000020E4
:102EE00008480949006849684FF4E06292FAA2F282
:102EF00001F4E061B2FA82F2D140044A515CC84068
:102F0000704700004000002000100240B28300081B
:102F100008480949006849684FF4605292FAA2F2E1
:102F200001F46051B2FA82F2D140044A515CC840C7
:102F3000704700004000002000100240B2830008EB
:102F4000184B5968184801F00C02042A08BF704752
:102F5000082A18BF704701F470124FF4701C9CFAD5
:102F6000ACFCBCFA8CFC22FA0CF2DFF840C0DB6A45
:102F70001CF802204FF00F0C9CFAACFC03F00F037E
:102F8000BCFA8CFC23FA0CF3DFF824C011F4803F68
:102F90001CF8033019BFB0FBF3F050430548504311
:102FA000704700000010024000127A00BA83000847
:102FB000CA83000800093D002DE9F84F0446007857
:102FC000FF4D10F0010F4FF0010626D0686877041E
:102FD00000F00C00042808D0686800F00C000828F5
:102FE00060D1686810F4803F5CD097FAA7F0B0FA1F
:102FF00080F040F02000400914BF2868686A97FA02
:10300000A7F1B1FA81F101F01F0106FA01F10842BE
:1030100003D06068002800F0A68220784FF00009F5
:1030200010F0020F4FF0020778D068684FF0F80AEE
:1030300010F00C0F73D0686800F00C00082804BF73
:10304000686810F4803F6AD02069002896FAA6F0DC
:10305000B0FA80F04FEA800000F1844000F584006F
:1030600000F0F4800660FFF79FFC804697FAA7F017
:10307000B0FA80F040F02000400914BF2868686A68
:1030800097FAA7F1B1FA81F101F01F0106FA01F1F7
:1030900008426ED1FFF788FCA0EB08000228E5D9B2
:1030A00000F00FBA6068B0F5803F04BF286840F4B4
:1030B00080300AD010B1B0F5A02F31D0286820F4AC
:1030C00080302860286820F480202860E86AA168A1
:1030D00020F00F000843E862606848B3FFF764FC23
:1030E0004FEA000897FAA7F0B0FA80F040F020000D
:1030F000400914BF2868686A97FAA7F1B1FA81F10C
:1031000001F01F0106FA01F1084286D1FFF74CFCDD
:10311000A0EB08006428E5D900F0D3B958E029E015
:10312000286840F480202860286840F48030CCE78C
:10313000FFF73AFC4FEA000897FAA7F0B0FA80F0E0
:1031400040F02000400914BF2868686A97FAA7F188
:10315000B1FA81F101F01F0106FA01F108423FF4D2
:103160005CAFFFF721FCA0EB08006428E4D900F075
:10317000A8B922E097FAA7F0B0FA80F040F020005A
:10318000400914BF2868686A97FAA7F1B1FA81F17B
:1031900001F01F0106FA01F108421CBF2069012855
:1031A00040F0E18128689AFAAAF26169B2FA82F2E3
:1031B00020F0F8009140084309E028689AFAAAF242
:1031C00020F0F8016069B2FA82F29040084328606A
:1031D000207810F0080F7CD0A069002896FAA6F09D
:1031E000B0FA80F04FEA800000F1844000F58400DE
:1031F0004ED0C0F88064FFF7D7FB804697FAA7F05F
:10320000B0FA80F040F06000B6EB501F08BF2868AD
:103210000AD097FAA7F0B0FA80F040F06000B7EB60
:10322000501F0CBF286A686A97FAA7F1B1FA81F1BA
:1032300001F01F0106FA01F1084258D1FFF7B4FB73
:10324000A0EB08000228D9D900F03BB9C0F80090E3
:10325000FFF7AAFB4FEA000897FAA7F0B0FA80F050
:1032600040F02000400914BF2968696A97FAA7F066
:10327000B0FA80F000F01F0006FA00F00142A7D07B
:10328000FFF792FBA0EB08000228E5D900F019B97E
:10329000C0F88094FFF788FB4FEA000897FAA7F080
:1032A000B0FA80F040F06000B6EB501F08BF28680D
:1032B0000AD097FAA7F0B0FA80F040F06000B7EBC0
:1032C000501F0CBF286A686A97FAA7F1B1FA81F11A
:1032D00000E00CE001F01F0106FA01F1084206D0FF
:1032E000FFF762FBA0EB08000228D7D9E9E02078BD
:1032F00010F0040F63D0E8694FF0000B10F0805F0E
:1033000009D1E86940F08050E861E8694FF0010BAD
:1033100000F080500090DFF8AC80D8F8000010F486
:10332000807F18D1D8F8000040F48070C8F8000001
:10333000FFF73AFB8246D8F8000010F4807F0AD1EC
:10334000FFF732FBA0EB0A00642849D8D8F8000048
:1033500010F4807FF4D0E068012804BF286A40F0B0
:10336000010009D008B105283CD0286A20F00100EE
:103370002862286A20F004002862E06841F2883A56
:1033800078B3FFF711FB804697FAA7F0B0FA80F008
:1033900040F04000B6EB501F08BF28680AD097FAEB
:1033A000A7F0B0FA80F040F04000B7EB501F0CBF20
:1033B000286A686A97FAA7F1B1FA81F104E04BE054
:1033C000001002400070004001F01F0106FA01F1F8
:1033D00008423AD1FFF7E8FAA0EB08005045D3D9EC
:1033E0006FE007E0286A40F004002862286A40F095
:1033F0000100C1E7FFF7D8FA4FEA000897FAA7F0F3
:10340000B0FA80F040F04000B6EB501F08BF2868CB
:103410000AD097FAA7F0B0FA80F040F04000B7EB7E
:10342000501F0CBF286A686A97FAA7F1B1FA81F1B8
:1034300001F01F0106FA01F1084206D0FFF7B4FAC5
:10344000A0EB08005045D9D93BE0BBF1000F03D0F9
:10345000E86920F08050E861E069A8B3696801F08C
:103460000C0108297FD04FF0807A02289AFAAAF03E
:10347000B0FA80F04FEA800000F1844000F584004B
:103480004FF00077C0F800901FD0FFF78DFA044688
:1034900097FAA7F0B0FA80F040F02000400914BF7E
:1034A0002868686A97FAA7F1B1FA81F101F01F0163
:1034B00006FA01F1084259D0FFF776FA001B0228FC
:1034C000E6D90320BDE8F88F50E0FFF76DFA80469B
:1034D00097FAA7F0B0FA80F040F02000400914BF3E
:1034E0002868686A97FAA7F1B1FA81F101F01F0123
:1034F00006FA01F1084206D0FFF756FAA0EB0800E1
:103500000228E5D9DDE7D4E908100843696821F409
:103510007411084368609AFAAAF0B0FA80F080004B
:1035200000F1844000F584000660FFF73DFA044690
:1035300097FAA7F0B0FA80F040F02000400914BFDD
:103540002868686A97FAA7F1B1FA81F101F01F01C2
:1035500006FA01F1084209D1FFF726FA001B0228FA
:10356000E6D9AEE7FFE70120BDE8F88F0020BDE80F
:10357000F88F4FF0E021042808690CBF40F00400E8
:1035800020F0040008617047411EB1F1807F24BF24
:10359000012070474FF0E0204161054AF02182F898
:1035A000141D002181610721016100207047000086
:1035B0000FE000E090F83C20012A04BF0220704791
:1035C00010B4012280F83C2002685368D2F808C089
:1035D000A2F18044B4F5963403D14C6823F470030F
:1035E00023430C6823F07003896823432CF0800C7C
:1035F00041EA0C01536002689160002180F83C10A0
:1036000010BC08467047002804BF0120704710B561
:10361000044690F83D0028B9002084F83C0020467C
:1036200000F00CF8022084F83D00211D206800F015
:1036300001FE012084F83D00002010BD02681749FA
:10364000A2F1804381B0B3F5806307D1CA6942F02B
:103650000202CA61CA6902F0020200920268A2F183
:103660008043B3F5805307D1CA6942F01002CA61A2
:10367000CA6902F0100200920068A0F18042B2F51F
:10368000A0521CBF01B07047C86940F02000C8615B
:10369000C86900F02000009001B07047001002409F
:1036A000022180F83D1001680A6842F001020A60B8
:1036B000012180F83D1000207047022180F83D1064
:1036C00001680A6A41F211131A4207D10A6A9B1073
:1036D0001A4203D10A6822F001020A60012180F82F
:1036E0003D100020704790F83C20012A0DBF0220B9
:1036F000012380F83C30704730B4022280F83D202E
:103700000268D2F808C02CF0770C2CF4803C2CF422
:103710007F4CC2F808C00A68502A47D00CDC202A27
:103720007DD004DC002A7BD0102A7AD0B7E0302A82
:1037300078D0402A78D0B2E0602A54D0702A0DD0D8
:10374000B2F5805F03D0B2F5005F1DD0A7E001683D
:103750008A6822F0070222F4803242E00268D1F83F
:1037600004C08C68C96895684CEA012125F47F453E
:1037700021432943916001688A6822F0770222F48C
:10378000803242F077022CE00268D1F804C08C68E5
:10379000C96895684CEA012125F47F4521432943F6
:1037A000916001688A6842F480421AE00268D1F8A8
:1037B00004C0C968146A156A25F001051562956987
:1037C00024F00A0425F0F00545EA011144EA0C0C46
:1037D0009161C2F820C001688A6822F0700242F04C
:1037E00057028A605BE00268D1F804C0CC68116AB5
:1037F00021F0100111629569116A25F4704545EABE
:10380000043421F0A00141EA0C11946111620168B5
:103810008A6822F0700242F067028A603FE02FE07F
:103820001EE025E034E0FFE70268D1F804C0CC6870
:10383000116A156A25F001051562956921F00A01E2
:1038400025F0F00545EA041441EA0C019461116287
:1038500001688A6822F0700242F047028A601EE026
:1038600001688A6822F0700242F007028A6016E05E
:1038700001688A6822F0700242F017028A600EE046
:1038800001688A6822F0700242F027028A6006E02E
:1038900001688A6822F0700242F037028A6080F87C
:1038A0003D30002180F83C1030BC084670470028AD
:1038B00004BF0120704710B5044690F8690028B98C
:1038C000002084F86800204600F028F8242084F8BE
:1038D00069002068016821F001010160204600F0C4
:1038E000FBFD012808BF10BD606A00281CBF2046F0
:1038F00000F054FD2068416821F490414160206847
:10390000816821F02A0181602068016841F001018D
:1039100001602046BDE8104000F0ADBD10B5006864
:10392000164C86B0A0421CBF06B010BD1448C16939
:1039300041F40031C161C069694600F4003005906E
:1039400048F2040000900220019001200290032020
:103950000390072004904FF09040FEF71DFF206871
:1039600040F020002060002206212620FFF77EF88C
:103970002620FFF76FF806B010BD0000004400409D
:10398000001002400020FDF733B90020FDF73EB9DA
:1039900070B5184886B04FF0A0410160164E4FF444
:1039A00080314160B16800240461C4614462816077
:1039B0004FF480610163012505628910C460C16212
:1039C0000421C0E90514C0E90D54FEF753F930464F
:1039D0000A49007851F82000CDE900050394F06809
:1039E00002900494694605940248FDF7ADFE06B0C6
:1039F00070BD00008C0200200400002078830008C5
:103A000070B5184886B016490160174E090241602A
:103A1000B16800240461C461446281604FF4806134
:103A20000163012505628910C460C1620421C0E9F7
:103A30000514C0E90D54FEF71DF930460B494078D6
:103A400051F82000CDE900050394F0680290049439
:103A5000694605940348FDF777FE06B070BD000087
:103A600000010050E00200200400002094830008C0
:103A700010B50D4C84B00B4820602046FEF7EEFBDD
:103A800014200090094810226946006801902046E1
:103A9000FEF7ACFB2068016841F40031016004B01E
:103AA00010BD000000740040DC0100200000002078
:103AB00010B50D4C84B00B4820602046FEF7CEFBBD
:103AC00004200090094800226946006801902046C1
:103AD000FEF78CFB2068016841F00201016004B030
:103AE00010BD000000980040F00100200000002000
:103AF000054881B0416941F001014161406900F030
:103B00000100009001B070470010024008B500208D
:103B1000FDF742F80848416941F48001416141697B
:103B200001F480010091416941F400314161406933
:103B300000F40030009008BD0010024010B50E489F
:103B400088B00C490024C0E900148460C46004619A
:103B5000FFF759FD4FF48050049004A90648FFF781
:103B6000C2FD20200090694602940348FFF722FD21
:103B700008B010BD000400401C01002010B50C4826
:103B800084B00A490160002440F2FF714460C0E93A
:103B900003148460FFF737FD2020009069460294EB
:103BA0000348FFF707FD04B010BD000000100040FF
:103BB0005C01002010B50C4884B00A490160002463
:103BC00040F2FF714460C0E903148460FFF71BFDFD
:103BD00020200090694602940348FFF7EBFC04B0F4
:103BE00010BD0000001400409C0100200B480A4951
:103BF0004FF4005201604FF4E13141600021C0E90F
:103C000002120C22C0E904128161C161016210211B
:103C10004162FFF74CBE000000440040BC0300209E
:103C200088B000221421052003F084FD5C4FB862A7
:103C3000042003F057FD386302F08EFFDFF864B113
:103C4000594E4FF0060A4FF000084FF001090023CB
:103C50005A1E03A9B86A03F0AAFD4FF0FF31386B72
:103C600004F09EF89DF80C0032280CD0332811D0B7
:103C7000342849D035287DD0362804BF96F8200056
:103C8000062878D088E096F82000002818BF86F82B
:103C900020A081E096F82000354605281CBF95F845
:103CA0002000002878D002F04DFEC7F80C80CDF837
:103CB0000480FCF7B7FEA86801A900F069FB019831
:103CC000FCF726FF5FF0000495F82100A04206D91A
:103CD0006A6B05EB8400416A2046FCF76BFE601CB2
:103CE000C4B2022CF0D30198E86095F820000628B1
:103CF0001CBF95F8200004284ED085F82090C7F806
:103D0000188002F021FE47E096F8200001281CBF31
:103D100096F8200002283FD096F8200003281CBF08
:103D200096F82000042837D0C7F80C80CDF808801A
:103D3000FCF778FEB06802A900F02AFB0298FCF7B5
:103D4000E7FE002496F82100A04206D9726B06EB2C
:103D50008400416A2046FCF72DFE601CC4B2022C90
:103D6000F0D30298F06086F8209002F0EDFD002379
:103D70005A1E02E007E00BE00EE00CA1DBF80000A9
:103D800003F03EFE08E002F0DDFD86F8208003E04F
:103D900002F0DAFD86F82090386B03F0E7FF56E773
:103DA000E0000020B000002074260020534D504C4D
:103DB00000000000C14DDFF80883C24C4FF0020A3A
:103DC0004FF6FF7601274FF0030B4FF0000900BFBD
:103DD00095F8200001281FBF95F82000022895F8CB
:103DE0002000032802D003F0BDFAF1E74FF0FF31C5
:103DF000206B03F0D5FFE068206195F83800FDF7EF
:103E000053FB696B091AE160686B4A1E10446A6BC8
:103E1000B0FBF2F302FB1300606195F82020012A49
:103E20000AD095F82020022A5FD095F820000328B8
:103E300000F0B38000F031B96A8B082A95F8382079
:103E400005EB8202126A9ABF20F00100105C32F882
:103E500010002080E88AAA8B5043000C60802A69F9
:103E60002B8BF31A5A4307EB124262602A692B8BA1
:103E700089B25A43120CA260238A9BB2994224BF92
:103E8000C91A89B204D2D5F834C06144C91A89B2BA
:103E9000A3691944A161914240F2FF802A7D1AB9B9
:103EA00022881032824215D32A7D012A03D122882A
:103EB000103A82420EDC687D012803D12869B1EBFB
:103EC000800F07D8687D022840F0E7802869884283
:103ED00080F0E38085F820A000235A1E7AA1D8F84C
:103EE000000003F08DFD00F0D8B88AB2218A89B2B3
:103EF0008A4224BF511A89B203D26B6B1A44511AF9
:103F000089B2A2691144A1616A8B082A95F8382008
:103F100005EB8202126A9ABF20F00103D25C32F8EC
:103F200010202280EA8AAB8B5A43120C62802B69E4
:103F3000B5F818C0A6EB0C0C03FB0CF307EB13430E
:103F400063602B69B5F818C003FB0CF31B0CA3606E
:103F50002B7D13B92388934212D82B7D012B02D1DC
:103F6000238893420CD36A7D012A03D12A69B1EBDD
:103F7000820F05D86A7D022A7ED12A698A427BD2C5
:103F8000C4E9069185F820B00023E0625A1E50A1D2
:103F9000D8F8000003F034FD7FE0208A89B280B2B7
:103FA000814224BF081A80B203D26A6B1144081AF6
:103FB00080B2A1690844A06195F8201003296CD152
:103FC0006168884269D302F0BDFC687D29460128FA
:103FD0001CBF487D02281CD0488B0828087D28D9A2
:103FE000002891F8380001EB8000026AE06A32F89C
:103FF000103062880FD0934232D200BF91F838302F
:1040000001EB83031B6A401E33F810309342F5D353
:1040100025E0E06A26E0934222D900BF91F83830CB
:1040200001EB83031B6A401E33F810309342F5D82E
:1040300015E0002891F8380001EB8000026AE06A80
:10404000135C62882DD093420AD200BF91F83830B9
:1040500001EB83031B6A401E1B5C9342F6D3E062B4
:10406000401CE0624860042081F82000E169216280
:10407000A0696062084400E00FE0B0F5801F28BF2F
:10408000C4F81890C4F818900023C4F81C905A1E65
:1040900011A1D8F8000003F0B3FC206B03F066FE1A
:1040A00096E69342DCD900BF91F8383001EB8303E8
:1040B0001B6A401E1B5C9342F6D8D0E77426002092
:1040C000B0000020E0000020534D504C00000000E4
:1040D00054524947000000003144617461526561E7
:1040E00064795F5F000000004FF4C87001F00EFEBD
:1040F000FFF74BFC282001F009FEFFF743FCF3E734
:1041000010B503F079FF002818BF03F0D9FABDE815
:104110001040FEF74FBC70B596B002250126102066
:104120000095CDE9046000244FF46010CDE908400B
:1041300007956846FEF740FF0520CDE90A056802AD
:10414000CDE90C4002210AA80E94FEF79BFD10A8B1
:1041500010961294FEF7CEFCFEF7BCFE4FF47A7177
:10416000B0FBF1F0FFF710FA0420FFF702FA00228B
:104170001146501EFEF77AFC16B070BD1448016857
:1041800041F4700101601348016841F001010160D0
:104190004168114A11404160016821F4102121F069
:1041A00080710160016821F480210160416821F47F
:1041B000FE014160C16A21F00F01C162016B074A33
:1041C00011400163002181600549C0030860704708
:1041D00088ED00E0001002400CC07FF8CCFC00FF2E
:1041E00008ED00E010B50448FFF767FABDE810409D
:1041F0000248FFF762BA00005C0100209C01002029
:1042000010B50448FFF74CFABDE810400248FFF72C
:1042100047BA00005C0100209C0100200148FFF724
:104220004CBA00001C0100200148FFF739BA000019
:104230001C01002070B402681C4B1D4E98421CBF2C
:10424000B0F1804FB04205D1D1F804C022F0700225
:104250004CEA0202DFF85CC0174C184D984218BFB8
:10426000B0F1804F07D0B04218BF604503D0A042E4
:1042700018BFA84203D1CE6822F4407232434E697F
:1042800022F08002324302608A68C2620A68826257
:10429000984218BF604503D0A04218BFA84201D180
:1042A000096901630121416170BC7047002C014024
:1042B000000400400040014000440140004801402B
:1042C0002DE9F0479146884605460026FEF720FE78
:1042D0004000B0FBF5F0401C5FEA500C08BF6C25B5
:1042E00007D0BCF5803F1ADA0027ACF1010084B298
:1042F0003D46B9F1000F08D0FEF70AFE791C621C9A
:104300005143B0FBF1F0C9F80000C8F80470404612
:10431000C8F80C40FFF777F92846BDE8F0874FF062
:10432000FF304FEA1C44010C621C94B29CFBF4F277
:1043300095B205FB14C383423CBF184626468C4207
:1043400004D1BCFBF6F085B2B4B201E0002BEBD196
:10435000AC429CBF601E87B2A5F1010084BF87B24A
:10436000601E84B2002B14BF6B250025C1E700003E
:1043700031B101291CBF002070470349FFF7A0BFDE
:104380000249FFF79DBF00009C0100205C01002056
:104390000A460149FFF794BF1C01002090F8241041
:1043A00011F0010F06D001684A68836A22F40032D6
:1043B0001A434A6090F8241011F0020F06D00168E9
:1043C0004A68C36A22F480321A434A6090F8241083
:1043D00011F0040F06D001684A68036B22F48022B2
:1043E0001A434A6090F8241011F0080F06D00168B3
:1043F0004A68436B22F400421A434A6090F8241042
:1044000011F0100F06D001688A68836B22F4805285
:104410001A438A6090F8241011F0200F06D001682A
:104420008A68C36B22F400521A438A6090F8241001
:1044300011F0400F11D001684A68036C22F4801219
:104440001A434A60016CB1F5801F06D101684A68C1
:10445000436C22F4C0021A434A6090F8241011F011
:10446000800F08BF704701684A68806C22F4002200
:10447000104348607047F8B500250446C566FEF74E
:1044800093FA0746206800686FF07E4610F0080F28
:1044900008D03B4600224FF400112046009600F061
:1044A000F9F868B92068006810F0040F0AD03B469C
:1044B00000224FF480012046009600F0EBF808B18E
:1044C0000320F8BD202084F8690084F86A0084F88D
:1044D00068500020F8BD000070B504461020236924
:1044E000A268D4F81CC01A436369002143EA0C0394
:1044F0001A4323680D46D3F800C0624E0CEA060C3E
:104500004CEA02021A6022685368D4F80CC023F403
:10451000405343EA0C035360236AA26913432268A1
:10452000D2F808C02CF4306C4CEA03039360226884
:10453000A2F18043B3F59C3308D013F574431CBF3C
:10454000A2F18043B3F5904311D011E04E4B1B6BA9
:1045500013F003030BD0012B08BF042008D0022B5B
:1045600008BF082004D0032B08BF022000E0002071
:10457000E369B3F5004F08D009287FD2DFE800F0E7
:1045800046525E7E677E7E7E7400092835D2DFE863
:1045900000F0050F1934213434342B00FEF7A0FC51
:1045A0004100606801EB5001B1FBF0F081B225E001
:1045B000FEF7AEFC4100606801EB5001B1FBF0F08A
:1045C00081B21BE03149606801EB5001B1FBF0F0B2
:1045D00081B213E0FEF7B4FC4100606801EB5001CA
:1045E000B1FBF0F081B209E060684FF4803101EB7B
:1045F0005001B1FBF0F081B200E0012521F00F0085
:10460000C1F3420108432168C86038E0FEF768FC46
:104610000146606801EB5001B1FBF0F0216880B207
:10462000C8602CE0FEF774FC0146606801EB5001A5
:10463000B1FBF0F0216880B2C86020E014496068E6
:1046400001EB5001B1FBF0F080B2D06017E0FEF753
:1046500077FC0146606801EB5001B1FBF0F0216886
:1046600080B2C8600BE009E060684FF4004101EBE4
:104670005001B1FBF0F080B2D06000E00125284687
:1046800070BD0000F369FFEF001002400024F40049
:1046900000127A002DE9F04104460068069F984612
:1046A000C06915460E4631EA00000CBF012000200B
:1046B000A84227D1B7F1FF3F1BD02FB1FEF774F905
:1046C000A0EB0800B84214D92068016821F4D07129
:1046D00001602068816821F001018160202084F858
:1046E000690084F86A00002084F868000320BDE8AF
:1046F000F0812068C06936EA00000CBF012000206C
:10470000A842D7D00020BDE8F081000010B40029F5
:104710001CBF084A084C09D010F801CB136813F0ED
:10472000800FFBD0A4F800C0491EF5D110BC0020BA
:10473000704700001C4400402844004003490A68B8
:1047400012F0800FFBD00249088070471C440040E3
:1047500028440040054810B50088C0B201F01AF89E
:10476000BDE810402620FEF769B90000244400404F
:1047700003B401984100009850EAC12018BF0420FA
:104780004A0D18BF40F0010040F2FF72B2EB515FDA
:1047900008BF40F00200012808BF052002B07047A2
:1047A0002DE9F04D2DED040B2DED0E8B96B0DDE9CE
:1047B0002550279CDDF890A025F0004624F0004805
:1047C000BAF1000F14BF0121002101EB4502FC49A1
:1047D00053184A1093422AD3002814BF0123002300
:1047E00003EB44030B44F7498B4220D358EA000102
:1047F0009FEDF59B76D0DFF8D8B35D4503D1BAF1D4
:10480000000F05D188E0BAF1000F08BF002100D0E9
:10481000012101EB450111F5001F08D8002814BF44
:104820000121002101EB440111F5001F0BD99DED81
:10483000261B9DED240B16B0BDEC0E8B04B0BDE81D
:10484000F04D00F069BE0027002DBCBFE14988454E
:1048500021DAE1498845A8BF02271CDAC3451ADCE2
:10486000DE4901EB2851142908DDC1F1340220FA98
:1048700002F101FA02F282420DD108E058B9C1F109
:10488000140228FA02F101FA02F2424503D101F0C2
:104890000101C1F1020756EA0A0124D1002C22DAF3
:1048A000002D18BF022F01D0012F0AD0022000F0E6
:1048B0007FFE16B0BDEC0E8B04B0BDE8F04D00F0ED
:1048C00013BE022000F074FE00F00EFE51EC100B3F
:1048D00081F0004141EC100B16B0BDEC0E8B04B022
:1048E000BDE8F08D18E09FEDBEAB9FEDBF8B0028BB
:1048F00071D1B848804522D105F1804010F5801073
:1049000008BFBAF1000F07D0B3450ADC002CA8BFDE
:104910009DED260BE0DA0DE0B0EE490AF0EE690AF3
:10492000DAE7002C06DA9DED260B51EC100B81F036
:1049300000416FE0AE48784490ED000BCCE7D845DD
:104940004DD1002C48DA2EB186423AD1BAF1000F8F
:1049500042D126E0BAF1000F13D0022000F028FE69
:1049600000F0F6FD8DED020B9DED240B8DED000B9F
:1049700010EE900A039961F31E0003909DED020B67
:10498000AAE78DED02AB9DED240B1AEE901A10EE06
:10499000900A8DED000B61F31E0003909DED020B5C
:1049A0009AE78DED028B9DED240B18EE901A10EE18
:1049B000900A8DED000B61F31E0003909DED020B3C
:1049C0008AE709DA9DED240B51EC190B53EC102BFF
:1049D000FBF71EFE1EE020E09DED240B7CE78642E7
:1049E0001BDAB4F1804F0DD0A4F10050B0F1FF50AC
:1049F00013D1002D11DB9DED240B51EC100B02F0B7
:104A0000D5FB07E09DED240B53EC102B51EC100B64
:104A100000F0C2BC41EC100B5EE79DED240B51ECA5
:104A2000100B00F0D9FEBAF1000FCDE90E0142D112
:104A30009FED710B46B3A6F1E040B0F17F600CD062
:104A40005E4538D1002D00DAA7B3022F0CBF01203C
:104A50004FF0FF30FBF762FEDCE7002D01DD002C9C
:104A60000DDA002D01DD002C1FDB002D16DA002CE5
:104A700014DB012F08BF9FED620B3FF42DAFB0EEAA
:104A80004A0AF0EE6A0A27E7022F18BF002D0CD061
:104A9000012F0AD1002DFFF61FAF06E0002DB8BF91
:104AA000002C08DA012F3FF417AFB0EE480AF0EE01
:104AB000680A11E71BE0012000EBE57050EA0701EE
:104AC00015D0791EB0EE498AF0EE698A084308BF16
:104AD0009FED4D8B4E480025804570DD4D494E4879
:104AE000884514DDB0420DDB002C19DB2FE00120DE
:104AF00000F05EFD16B0BDEC0E8B04B0BDE8F04DCD
:104B000000F016BDB34502DC002C09DC1FE0864234
:104B100002DA002C1BDA03E05E452BDD002C16DDEB
:104B2000022000F045FD00F013FD8DED020B53EC6B
:104B30001A2B51EC180BFBF7F9FCCDE90001039996
:104B4000019861F31E0003909DED020BC4E6022064
:104B500000F02EFD00F00CFD10EE901A18EE900AF9
:104B60008DED020B8DED008B61F31E0003909DED2A
:104B7000020BB1E69DED0E0B53EC192B51EC100B13
:104B8000FBF7CEFC9FED260BCDE9080153EC102B73
:104B90009DED080B51EC100BFBF7C8FC9FED221BA1
:104BA00053EC112BFBF7BFFC9DED081B53EC112BB5
:104BB000FBF7BCFC9FED1E1B53EC112B3CE08CE083
:104BC000FFFF1F00FFFF0F00000000000000F03F8C
:104BD0000000F03F0000F07F0000404301FCFFFFB9
:104BE000000000000000F07F000000000000000056
:104BF000463B0000000000000000000000000080B4
:104C0000000000000000F0FF000000000000F0BF06
:104C10000000E0410000F043FFFFEF3F0000000014
:104C2000000000000000D03F555555555555D53F63
:104C3000000000000000E03FFBF775FC9DED080B55
:104C400041EC1A0B53EC102B51EC100BFBF76EFCE4
:104C500053EC1A2BFBF76AFC41EC1A0B9FEDFE0B91
:104C600053EC102B9DED080B51EC100BFBF75EFC89
:104C700041EC1B0B9FEDFA0B51EC1A0B53EC102B74
:104C8000FBF754FC41EC1A0B9FEDF70B53EC102B88
:104C90009DED080B51EC100BFBF748FC53EC1A2B65
:104CA000FBF73EFC41EC1A0B51EC1B0B53EC1A2B9F
:104CB000FBF795FB0690CDE906519DED060B53ECF5
:104CC0001B2B51EC100BFBF72BFC53EC1A2BFBF7B7
:104CD0002AFC41EC100B00F0A1B90020B6F5801FB2
:104CE0000EDA9FEDE30B53EC102B9DED0E0B51EC08
:104CF000100BFBF71BFCCDE90E016FF034000E46E4
:104D000000EB2650A0F2FF37C6F31300DA4940F05B
:104D10007F6646F040568842D8BF002408DDD74958
:104D20008142C8BF012403DC0024A6F580167F1C45
:104D3000D348784400EBC4000F9690ED00CB9DED76
:104D40000E0B53EC1C2B51EC100BFBF7E9FB9DED0C
:104D50000E0B41EC1B0B53EC1C2B51EC100BFBF717
:104D60003EFB41EC100B51EC190B53EC102BFBF7F5
:104D70004FFC41EC1D0B51EC1B0B53EC1D2BFBF7B7
:104D8000D5FB41EC1A0BBF488DED10AB7844109564
:104D900090ED000B4FF0005040EA660000EB8440BD
:104DA0008DED080B00F5002009909DED080B53ECEC
:104DB0001C2B51EC100BFBF7B3FB9DED0E1B53ECC2
:104DC000112BFBF7B0FB41EC100B53EC102B9DEDBE
:104DD000100B51EC100BFBF7A9FB9DED080B41EC00
:104DE0001C0B53EC102B9DED100B51EC100BFBF733
:104DF0009DFB53EC1B2BFBF796FB53EC1C2BFBF79B
:104E00008FFB53EC1D2BFBF791FB41EC1C0B53EC80
:104E10001A2B51EC1A0BFBF789FB41EC1B0B9A4840
:104E20000621B0EE4B0AF0EE6B0A784400F0E0FA8F
:104E3000B0EE401AF0EE601AB0EE41DAF0EE61DA50
:104E400053EC1B2B51EC1B0BFBF770FB53EC1D2B96
:104E5000FBF76CFB9DED100B41EC1B0B53EC1A2B7D
:104E600051EC100BFBF7BBFA53EC1C2BFBF75EFB72
:104E700053EC1B2BFBF7B3FA9DED100B41EC1B0B16
:104E800053EC102B51EC100BFBF750FB41EC1D0BBE
:104E90009FED7FEB53EC1E2BFBF7A1FA53EC1B2B82
:104EA000FBF79DFA0890CDE908519DED080B53ECF6
:104EB0001E2B51EC100BFBF733FB53EC1D2BFBF7B8
:104EC0002FFB53EC1B2BFBF72EFB9DED080B41EC4E
:104ED0001D0B53EC102B9DED100B51EC100BFBF741
:104EE00025FB41EC1B0B53EC1A2B51EC1D0BFBF774
:104EF0001DFB9DED080B41EC1A0B53EC102B51ECF4
:104F00001C0BFBF713FB53EC1A2BFBF768FA41EC75
:104F10001A0B51EC1B0B53EC1A2BFBF760FA0C909D
:104F2000CDE90C519DED0C0B53EC1B2B51EC100BF0
:104F3000FBF7F6FA53EC1A2BFBF7F5FA41EC1B0BD7
:104F40009FED550B53EC102B9DED0C0B51EC100B02
:104F5000FBF7ECFA41EC1A0B9FED510B51EC1B0BDC
:104F600053EC102BFBF7E2FA41EC1B0B9FED4E0BC1
:104F700053EC102B9DED0C0B51EC100BFBF7D6FAFC
:104F800053EC1B2BFBF72BFA41EC100B48487844F1
:104F900000EBC40090ED001B51EC100B53EC112BF7
:104FA000FBF71DFA41EC1B0B3846FBF7B7FBCDE9CD
:104FB000080153EC1B2B51EC1A0BFBF710FA41ECD8
:104FC000100B3C48784400EBC40090ED00CB51EC52
:104FD000100B53EC1C2BFBF702FA9DED081B53EC56
:104FE000112BFBF7FCF90690CDE906519DED080B5E
:104FF00053EC102B9DED060B51EC100BFBF790FAC8
:1050000053EC1C2BFBF78CFA53EC1A2BFBF788FAAA
:1050100053EC1B2BFBF787FA41EC100B9DED261B85
:1050200053EC102B8DED001B00959DED260B51ECE4
:10503000100BFBF77BFA9DED000B41EC1A0B53ECC8
:10504000102B9DED260B51EC100BFBF769FA9DED33
:10505000061B53EC112B2FE0000000604715F73FB3
:10506000FE822B654715F73F44DF5DF80BAE543EDB
:1050700000000000000040438E9803007AB60B0049
:10508000C2360000F0360000FA35000000000000D3
:105090000000000000000840000000E009C7EE3FEB
:1050A000FD033ADC09C7EE3FF5015B14E02F3EBE7D
:1050B0008634000040340000FBF738FA53EC1A2B1A
:1050C000FBF78DF99DED060B41EC1A0B53EC102B01
:1050D0009DED000B51EC100BFBF728FACDE90C010C
:1050E0009DED0C0B51EC1A0B53EC102BFBF777F9E1
:1050F000CDE902010C46AA498C422FDB611A084314
:1051000018D19DED0C0B53EC102B9DED020B51ECC7
:10511000100BFBF705FA41EC1B0B9FEDA30B51ECB9
:105120001A0B53EC102BFBF75AF953EC1B2BFBF724
:1051300007FB2DD2022000F03BFA00F009FA10EE36
:10514000901A18EE900A8DED020B8DED008B61F335
:105150001E0003909DED020BFFF7BEBB944A24F0A6
:105160000041914214D39349214408437FF4EFACAA
:105170009DED0C0B53EC102B9DED020B51EC100B25
:10518000FBF7CEF953EC1A2BFBF7DAFA7FF6DFAC1C
:1051900024F000408849894A002601EB20518242D0
:1051A0002BDA481C4FF4801121FA00F02044844A85
:1051B000C0F30A517A44A1F2FF3192ED000B814A0B
:1051C0008DED080BCA4020EA0202C0F3130040F440
:1051D0008010C1F1140120FA01F60992002CB8BF29
:1051E00076429DED080B53EC102B9DED0C0B51EC12
:1051F000100BFBF795F9CDE90C019DED0C0B51EC73
:105200001A0B53EC102BFBF7EAF89FED6F0B08908D
:10521000CDE9085153EC102B9DED080B51EC100B10
:10522000FBF784F941EC1B0B9FED690B53EC102B42
:105230009DED080B51EC100BFBF778F99DED0C0B75
:1052400041EC1C0B53EC102B9DED080B51EC100B9B
:10525000FBF766F953EC1A2BFBF765F99FED5E1B24
:1052600053EC112BFBF762F953EC1C2BFBF7B7F84F
:1052700041EC1A0B51EC1B0B53EC1A2BFBF7AFF85C
:10528000CDE902019DED020B53EC1B2B51EC100BF1
:10529000FBF746F953EC1A2BFBF745F99DED020B92
:1052A00041EC1A0B53EC102B51EC100BFBF73EF9B1
:1052B000CDE908014A489DED080B0521784400F02E
:1052C00097F89DED081B51EC100B53EC112BFBF7DD
:1052D0002DF99DED021B53EC112BFBF724F9CDE9C1
:1052E00006019DED020B53EC1A2B51EC100BFBF752
:1052F0001DF953EC1A2BFBF772F89FED3B0B41ECB9
:105300001A0B53EC102B9DED060B51EC100BFBF719
:1053100007F99DED060B41EC1B0B53EC102B9DED9B
:10532000020B51EC100BFBF701F953EC1B2BFBF7B5
:105330006FF953EC1A2BFBF7F3F89DED021B53ECBE
:10534000112BFBF7EDF853EC192BFBF7ECF8CDE93B
:10535000020101EB065001150029C8BF039015DCBE
:105360009DED020B324651EC100BFBF7C0F9FFF735
:10537000FFF9042808BF00F0FBF832469DED020B50
:1053800051EC100BFBF7B3F9CDE902019DED020BD7
:1053900051EC180B53EC102BFBF7C8F8FFF73ABB96
:1053A0000000904000000000FE822B654715973CEE
:1053B00000CC904000346F3F01FCFFFF0000E03F55
:1053C000C8320000FFFF0F0000000000432EE63F40
:1053D000396CA80C615C20BEEF39FAFE422EE63F24
:1053E00098310000000000000000000000000040B4
:1053F00070B504462DED028B4D1E00EBC500B0EEDE
:10540000408AF0EE608A90ED000B35F0060017D070
:1054100053EC182B51EC100BFBF788F841EC100BF8
:105420006D1E04EBC50090ED001B51EC100B53EC0E
:10543000112BFAF7D4FF41EC100B35F00600E7D141
:10544000022D36D0042D1CD0062D1CBFBDEC028BC6
:1054500070BD53EC182B51EC100BFBF767F894ED73
:105460000A1B53EC112BFAF7BAFF53EC182BFBF77E
:105470005DF894ED081B53EC112BFAF7B0FF41ECEB
:10548000100B53EC182B51EC100BFBF74FF894ED6D
:10549000061B53EC112BFAF7A2FF53EC182BFBF76A
:1054A00045F894ED040B53EC102BFAF798FF41EC00
:1054B000100B53EC182B51EC100BFBF737F894ED55
:1054C000021B53EC112BFAF78AFF53EC182BFBF756
:1054D0002DF894ED001B53EC112BFAF780FFBDEC77
:1054E000028B41EC100B70BD9FED070B10B553EC18
:1054F000102B9FED070B51EC100BFBF789F841ECDB
:10550000100B10BD000000000000000000000000B3
:10551000000000000000F03F10B553EC112B51ECDF
:10552000100BFAF75CFF41EC100B10BD00000000FF
:105530009FED050B10B553EC102B51EC100BFBF746
:1055400067F841EC100B10BD0000000000000000E7
:105550009FED050B10B553EC102B51EC100BFAF727
:10556000E5FF41EC100B10BD0000000000000070D2
:105570009FED050B10B553EC102B51EC100BFAF707
:10558000D5FF41EC100B10BD000000000000001022
:1055900002E008C8121F08C1002AFAD170477047FC
:1055A000002001E001C1121F002AFBD1704700005A
:1055B0000149086070470000180100200E4A10B52C
:1055C0001154FEF72BFE0D48FCF7D4FD0C48FCF7F8
:1055D000D1FD0A48FCF77AFA0948FCF777FA09483E
:1055E000FCF790FF0848FCF78DFFFEF7D1F9BDE806
:1055F0001040FEF705BA0000040000208C020020D5
:10560000E0020020340300207803002010B5044697
:10561000FEF704FE1048FCF7ADFD1048FCF7AAFDAC
:105620000F48082C08BF102103D00C2C0CBF002100
:1056300010BD81600848FCF749FA0848FCF746FAB3
:105640000848FCF75FFF0848FCF75CFFFEF7A0F98D
:10565000BDE81040FEF7D4B98C020020E002002023
:105660000400002034030020780300200E498A7AC9
:10567000002A04BF012070470B89D1F800C01CF834
:1056800003C080F800C0581CC0B20881022A08BFBD
:10569000012005D0012A02BFCA888242002000D121
:1056A00088720020704700001C2200202DE9F007BE
:1056B0000023002922D9154A4FF001089946D788BE
:1056C00015688446947A401CE4B11689022C15F8BA
:1056D00006A08CF800A006F1010C0CF0FF0CA2F85B
:1056E00008C008BF82F80A8004D0012C04BF6745B7
:1056F00082F80A905B1C9BB28B42E2D3BDE8F007B4
:10570000C8B27047BDE8F007D8B270471C2200202D
:10571000F8B51A4902260127CC88B1F808C0621CE6
:10572000D3B28A7A0D683B280FD0022A04BF012029
:10573000F8BD2855CB80002A08BF8F7203D0012AFC
:1057400004BF63458E720020F8BD022A08BF012401
:105750000AD02855CB80002A08BF8F7203D0012AB7
:1057600004BF63458E720024094800236A4604A1E1
:10577000006802F087FA2046F8BD00001C220020D5
:10578000315472795061727365436D64000000009A
:10579000A4000020FFF7BCBFFEF7D0BFFEF7B6BFE6
:1057A00000210378421C23B112F8013B491C002B55
:1057B000FAD1FEF7ABBF08B5010A8DF800008DF8ED
:1057C0000110010C8DF80210000E8DF803006846E0
:1057D0000421FEF79BFF08BD82B0CDE9000121F056
:1057E000004001909DED000B02B051EC100B704792
:1057F000064800235A1E02A1006802F001B9000009
:105800003747656E4E65787400000000B0000020D8
:10581000024901EB8000806870470000B02600203C
:10582000074800235A1E02A1006802F0E9B80000F0
:105830003253656E6447656E467265710000000004
:10584000B00000202DE9F34F484E834681B0307DF3
:105850000025474F4FF0010800285FD1012100F1DA
:105860000109327D09F0FF006524AAB9726A726AE3
:105870008A4238BF672409D306EB4000A0F81E8097
:105880004FF4FA713B48FAF70CFD002400235A1E2E
:105890003949386802F0B4F86019C5B209F0FF0060
:1058A0000228DBD3707D02214FF065093446327D3A
:1058B0008ABB02004FF0FA0A12D00123012A0FDB43
:1058C000401EBAFBF1FCC0B204EB4009B9F82090CD
:1058D000CC4502D24FF067091DE05B1C9342EFDD1F
:1058E0006175BAFBF1F06062224A0020636A04EB42
:1058F000800C434302EB4303CCF81830401CC0B289
:105900008842F3D34FF000094B464FF0FF321A495B
:10591000386802F075F809EB0500C5B2B16964207A
:10592000A1F800B07060706800216A46FEF720FDA3
:105930000E4A0099D16044190298F16908806420E8
:10594000B060B06841466A46FEF712FD074A00990A
:1059500011612044C4B200235A1E0849386802F07D
:105960004FF803B02046BDE8F08F0000B0260020BD
:1059700014010020DC260020845A00083C5B00084B
:1059800038B50C461B4B65218DF80010197D002998
:105990002CD103EB4201C98B04EB400CB1EB5C0F43
:1059A00026BF597D9142662013D303EB82014969DA
:1059B00001EB40002146FFF779FEA04208D168467E
:1059C000FFF754FE002804BF9DF800003B2803D0D9
:1059D0006D208DF8000009E000208DF800000346DE
:1059E000421E084804A1006802F00AF89DF8000071
:1059F00038BD0000B026002033496E76616C6964C2
:105A0000617465001401002038B50C4601460A4A4D
:105A10006920914288BF38BD084D45F82410601EAA
:105A2000C1B255F824006A46FEF7A2FC05EB8402D9
:105A30000099916038BD000080841E00B0260020CF
:105A40000E4A10B5137D6524ABB9536A536A83427D
:105A500038BF672408D302EB4101C8834FF4FA71C1
:105A60000748FAF71EFC0024094800235A1E05A126
:105A7000006801F0C5FF204610BD0000B0260020E0
:105A8000DC26002033496E76616C696461746500C0
:105A90001401002070B5204965244A7D0B7D002B40
:105AA00038D1022836D813004FF0FA0412D04FF044
:105AB000010C012B0EDB521EB4FBF0F5D2B201EB50
:105AC0004206368CB54201D2672070BD0CF1010C44
:105AD0009C45F0DD4875B4FBF0F24A6200220028D4
