:020000040800F2
:10000000582D00204D020008550200085702000834
:10001000590200085B0200085D02000800000000B1
:100020000000000000000000000000009D0100082A
:100030006102000800000000E10100088D43000893
:1000400067020008670200086702000867020008EC
:1000500067020008670200086702000867020008DC
:1000600067020008670200086702000867020008CC
:1000700067020008670200086702000867020008BC
:10008000DD140008E9140008670200086702000890
:10009000670200086702000867020008670200089C
:1000A000670200086702000867020008670200088C
:1000B00067020008670200080000000067020008ED
:1000C000670200080000000000000000670200084E
:1000D0000000000067020008414B000867020008AA
:1000E000670200086702000800000000000000002E
:1000F0000000000000000000000000000000000000
:1001000000000000000000000000000000000000EF
:1001100000000000000000006702000867020008FD
:1001200000000000000000000000000000000000CF
:1001300000000000000000000000000000000000BF
:1001400067020008670200080000000000000000CD
:10015000000000000000000000000000000000009F
:10016000000000000000000000000000000000008F
:10017000000000000000000000000000000000007F
:100180000000000067020008DFF80CD000F0F0FA71
:100190000048004799600008582D0020234B19683B
:1001A0000868B0E8F04F80F309884FF0000080F352
:1001B000118870470000000003480068006880F361
:1001C000088862B600DF00BF08ED00E0DFF80C0031
:1001D000016841F470010160704700BF88ED00E0E4
:1001E000EFF30980114B1A681EF0100F08BF20EDC5
:1001F000108A20E9F04F106008B44FF0500080F3EF
:10020000118807F02DFC4FF0000080F3118808BC26
:1002100019680868B0E8F04F1EF0100F08BFB0EC86
:10022000108A80F30988704700BF00BF4800002093
:10023000EFF311804FF0500181F31188704780F384
:1002400011887047EFF3058070470000064880472B
:1002500006480047FEE7FEE7FEE7FEE7FEE7FEE7AB
:10026000FEE7FEE7FEE7FEE7094400088901000813
:1002700040EA01039B0703D009E008C9121F08C028
:10028000042AFAD203E011F8013B00F8013B521EA8
:10029000F9D27047D2B201E000F8012B491EFBD21F
:1002A00070470022F6E710B513460A460446194681
:1002B000FFF7F0FF204610BD0EB540F2334102912A
:1002C0000021CDE900110A460B4600F03AF803B0D0
:1002D00000BDC1F30A5210B5C1F3130140F2FF3360
:1002E00041F480119A4201DA002010BD40F23343FC
:1002F0009A42A2F2334203DC524200F003F810BDEE
:10030000904010BD202A04DB203A21FA02F000219F
:10031000704721FA02F3D040C2F120029140084315
:100320001946704710B5141E73F1000408DA401C1A
:1003300041F1000192185B411A4301D120F0010004
:1003400010BD2DE9F04D92469B4611B1B1FA81F2F4
:1003500002E0B0FA80F22032904600F01BFA044628
:100360000F4640EA0A0041EA0B0153465A46084349
:1003700013D0114653EA010019D0C8F1400250468B
:10038000FFF7C0FF05460E4650465946424600F06C
:1003900001FA084305D0012004E020463946BDE8B3
:1003A000F08D0020054346EAE0762C4337430A9857
:1003B0006305E40AA0EB08000022FD0A44EA475462
:1003C0000A3002D500200146E9E70105101969410C
:1003D000DDE9084500196941BDE8F04DA2E72DE9C6
:1003E000FE4F804681EA0300C00F0C46009021F0CA
:1003F000004123F00045B8EB0200A94105D2404678
:10040000214690461C460B46024623F0004010430E
:1004100047D0270DC7F30A00C3F30A510290401AD0
:10042000019040286BDAC3F3130040F4801B00985E
:10043000924620B10023D2EB030A63EB0B0B019829
:100440005946C0F14002504600F0A4F906460D4658
:1004500050465946019A00F0ACF910EB0800614192
:10046000002487EA115284EAE7731A4340D0009AC5
:1004700062B3019A012A4FEA075215DC001B61EBB7
:1004800002014FF0004202EA0752CDE90042001C8F
:1004900041F5801132462B46FFF753FF03B0BDE80C
:1004A000F08F40462146F9E7001B61EB0201001C7A
:1004B00041F5801300185B412018A2F5001747EBA7
:1004C000030140EAD570B6196D4111E06D084FEA9D
:1004D000360645EAC0754FEA0752001B61EB020180
:1004E000001C41F5801149084FEA300000195141C4
:1004F00032462B4603B0BDE8F04FFFF713BF00981C
:10050000012240000023D0EB020263EBE07300986D
:1005100021464FEAE074B8EB000061EB0401E9E723
:1005200083F000435BE781F0004158E72DE9FE4F7F
:1005300081EA030404F0004421F0004100944FF0EC
:10054000000B23F0004350EA01045ED052EA03049A
:100550005BD0C3F30A54C1F30A552C44A4F2F3341C
:100560000194A0FB0254C1F3130141F48011C3F3C1
:10057000130343F4801301FB024400FB034E840A7F
:10058000970A44EA815447EA8357A4FB0768029517
:100590008D0A05FB07854FEA932C04FB0C542705B5
:1005A000029D4FEA065847EA1637B5EB08056EEB91
:1005B000070C870E920E47EA811742EA8312A7FBC7
:1005C0000201B6EB0B0164EB00042B0D43EA0C3384
:1005D0005E1844EB1C50DA465146E7FB0201C5F3B6
:1005E00013044FEA0B3343EA14534FEA0432019CDD
:1005F00043EA0603A4F10C040294009CCDE900B484
:10060000FFF79FFE03B0BDE8F08F00200146F9E739
:100610002DE9F04D81EA030404F0004B21F0004580
:1006200014464FF0000A23F0004150EA050220D0A2
:1006300054EA01021DD0C5F30A570246C5F313035D
:10064000C1F31300C1F30A5640F4801543F480133C
:10065000A7EB0608101BD64608F2FD3873EB050021
:1006600002D308F1010801E092185B41B8F1000FD4
:1006700003DA00200146BDE8F08D00204FF4801120
:10068000064684460EE0171B73EB050705D3121BC5
:1006900063EB050306434CEA010C49084FEA3000BE
:1006A00092185B4150EA0107EDD152EA030012D0E3
:1006B00082EA040083EA0501084305D0101BAB4120
:1006C00006D20122002306E000224FF0004302E0A0
:1006D0006FF0010253101AEB06004CEB085110EBBF
:1006E0000A0041EB0B01BDE8F04DFFF71BBE70B5F2
:1006F00021F0004303430CD0C1F30A550024D5EB8D
:10070000040564EB0403D617AD1AB34102DB0020E5
:10071000014670BD201841EB025170BD0EB5C10FEE
:1007200080EAE0700844CA07002140F233438DE8B4
:100730000E000A460B46FFF704FE03B000BD0000A2
:1007400030B5041E71F1000404DB4FF00044404258
:1007500064EB0101141E73F1000405DB1C464FF02D
:100760000043524263EB0403994208BF904230BDFC
:10077000064C074D06E0E06840F0010394E80700EE
:1007800098471034AC42F6D3FFF702FD048A000804
:10079000248A0008202A04DB203A00FA02F1002013
:1007A00070479140C2F1200320FA03F319439040AF
:1007B0007047202A06DBCB17203A41FA02F043EAC1
:1007C000E07306E041FA02F3D040C2F1200291400A
:1007D0000843194670472DE9F04D00231A461B1AAD
:1007E0008A4103DB00200146BDE8F08DC1F30A52C7
:1007F000C1F3130141F480154FF0000BD10702D172
:1008000000186D41521E0027044640F2FF11384681
:1008100001EB620A3E468046024600204FF48011FA
:10082000FFF770FDC2197141BB1846EB0100B4EB34
:10083000030C75EB000C04D3E41A65EB00051746B6
:100840000E46241908F101006D4180463428E3DD8D
:10085000F91946EB0600091BA84103D24FF0FF32FD
:10086000134601E0002213461BEB070046EB0A513A
:10087000BDE8F04DFFF756BD70B504460020226874
:10088000936813F00C0F5ED0D36813F0007F05D08F
:10089000E369012B04BFA369012B0BD0602922D08F
:1008A0002068826812F0040F1BD0826812F0020FD9
:1008B00013D016E013680C2113F0400F08BF234B30
:1008C00008D101E0984230D2D2F800C0401C1CF0A0
:1008D000400FF7D040201060E2E7826842F010023B
:1008E00082600C2914D02068826812F0080F07D0AB
:1008F000826812F0020F03D1826842F02002826007
:10090000602908BF082504D06C2908BF0C2500D039
:10091000042502F009F9064620688068284212D0B2
:1009200002F002F9801B0B2809D9606C40F010001E
:100930006064A06C40F00100A064012070BD2068DC
:1009400080682842ECD1002070BD000000940900AE
:100950000246406A416C11F0500F03D0C06B016B2E
:1009600010460847416C41F4007141640168C96850
:1009700011F4406F04BFC16900290BD1416C21F40F
:1009800080714164416C11F4805F03D1416C41F08E
:100990000101416401F0E2B8406A416C41F040015C
:1009A0004164816C41F00401816401F0ABB9406A9B
:1009B00001F0D5B870B5194C96B015460E4610B179
:1009C00001280ED01DE0442214496846FFF750FC70
:1009D000606C1190A06C1290E06C216D13901491DA
:1009E0000FE044220E496846FFF742FC0C48416C78
:1009F0001191806C1290D4F8A000D4F8A410139038
:100A00001491002E12BF002D16B070BD2A4631463B
:100A1000684601F06FFB16B070BD00008C0200202C
:100A2000E002002010B5044801F0F6FBBDE81040DC
:100A3000024801F0F1BB00008C020020E00200201F
:100A400070B504460068816801F0030101292BD1CB
:100A5000016811F0010F27D0816801F00D01012913
:100A600013D1816841F00201816021680320086090
:100A700002F05AF805462068806810F0010F13D084
:100A800002F052F8401B022809D9606C40F01000B7
:100A90006064A06C40F00100A064012070BD20687B
:100AA000806810F0010FEBD1002070BD70B50446D6
:100AB0000068816801F00301012903D1016811F088
:100AC000010F23D181686FF39E1181B9816841F0D4
:100AD0000101816002F028F805462068006810F0E6
:100AE000010F13D102F020F8401B022809D9606CD5
:100AF00040F010006064A06C40F00100A064012090
:100B000070BD2068006810F0010FEBD0002070BDB0
:100B100070B51F4C0646A068002808BF0C250AD0F7
:100B2000082808BF0A2506D0102808BF082502D0CB
:100B3000182808BF062502F0ABFAB0FBF6F0401B00
:100B4000401EB0F5167F88BF072017D8B52828BFEC
:100B5000062013D23D2828BF05200FD2132828BF16
:100B600004200BD2072828BF032007D2042828BF5F
:100B7000022003D202282CBF01200020E06005489B
:100B800001F04AFB03F072F8BDE8704003F0A6B82C
:100B9000040000208C02002070B50446114886B085
:100BA000416941F48021416140690F4E00F4802089
:100BB000059036F81400009001200190002002906A
:100BC0000A4D0320039055F82400694601F0A2FE67
:100BD00036F8141055F82400002201F09DFF06B0ED
:100BE00070BD0000001002408C8800083C0000200E
:100BF0000449054A31F8101052F82000002201F093
:100C00008BBF00008C8800083C0000200449054A86
:100C100031F8101052F82000012201F07DBF0000D1
:100C20008C8800083C00002010B50021044800F02A
:100C300081FDBDE810400021024800F07BBD0000AE
:100C40008C020020E00200208AB00022142105203E
:100C500006F0DCFF654DDFF89881DFF89891DFF84A
:100C600098B1DFF898A1664E664F674C2860002364
:100C70005A1E01A9286807F006F89DF804003128DB
:100C8000F5D100BF9DF819008DF818009DF81A00E5
:100C90008DF819009DF81B008DF81A009DF80000D2
:100CA0008DF81B00684604F0D9FE0028DFD19DF8BE
:100CB00000003A2818BF3B28E4D19DF81800DDF861
:100CC000191040EA0120A0EB080140457DD013DC5B
:100CD00010EB09003AD010EB0B002FD04B49401815
:100CE00037D04B49C84218D14C480A15002349A1B6
:100CF000006807F0F1F8BAE711EB0A0052D0A0F152
:100D00008371B1F521612CD04548C14205D105F070
:100D1000ABFA00BF05F06EFFA9E7404800235A1E5A
:100D200040A1006807F0D8F8684604F097FE002854
:100D30009DD19DF800003B28F6D198E73748002365
:100D40005A1E3AA1006807F0C7F890E706F05CF871
:100D50008DE7324800235A1E36A1006807F0BCF820
:100D600085E7052108A804F099FE04280CD39DF816
:100D70002000DDF8211040EA0120801909D0F84256
:100D800018BF0120C6D10BE0002818BF2E4807D09D
:100D9000F5E7224800235A1E2C49006807F09CF80A
:100DA0002046B7E7052108A804F078FE04280DD3F3
:100DB0009DF82000DDF8211040EA012080190AD0BA
:100DC000F84218BF0220A5D1EAE70CE0002818BFBE
:100DD0001D48E5D0F4E7114800235A1E1C4900685D
:100DE00007F07AF8DCE705F0DFFB93E7A4000020CA
:100DF0004F534350AEBAACDE090105E20C04F6FCD9
:100E0000BDB9B8C0FEF702E0454E445FF3FEFBFFFC
:100E100003FDF2FF43736869656C6400B000002055
:100E20000C1405F54539393900000000305F49449C
:100E30004E0000003953656E6453797374566572C1
:100E400073696F6E00000000020C0B20DC6B000861
:100E50005062000892B000221E21052006F0D6FE46
:100E6000FD4CA060042006F0A9FE4FF0FF31E060C9
:100E700007F002FA02F0F0FFF8494FF4807201F532
:100E80008070002501608280C58005818572F448EC
:100E900002F060FEE06807F0D5F9F2A00DF1280C31
:100EA0000FC88CE80F00F3A0D0E9001280680E9103
:100EB000CDE90F20E84C00235A1E02A9A06806F0D5
:100EC000E2FE4FF0FF31E06807F0D6F99DF8080028
:100ED00030283CD0312842D0322808BF002000F012
:100EE0000381472818BF4C2800F07182332800F096
:100EF0001481342800F01E81352800F02E8144280A
:100F000000F06582422800F06481432800F05F828F
:100F1000362800F0F98150281CBF5728592800F0C6
:100F20005682372808BFD6A000F01381382808BFA2
:100F3000D5A000F00E81392800F01582492800F074
:100F40004B8241280CBFD2A002A800F002B9D0A069
:100F500004F022FED0A004F01FFE00F038BA05F025
:100F60008FF8042840F0338205F078F8054605F044
:100F700081F8044605F036F8064600F0D5FB8246B7
:100F800005F054FF010E8DF82C10010C8DF82D107A
:100F9000010A8DF82E108DF82F00082E14D905F0B7
:100FA00075F8074605F066F8804605F05DF808FB21
:100FB00000F0A7EB104005EB4000B0FBF5F105FB9E
:100FC00011006400009011E005F060F8074605F09C
:100FD00051F8804605F048F808FB00F0A7EB1040F8
:100FE0002844B0FBF5F105FB110000908DF830604E
:100FF000200C8DF83100200A8DF8320000988DF811
:10100000334020448DF837A0A84283BF00982F1AA0
:10101000A4EB0708274698BF4FF000080024BAF158
:10102000000F4DD9204604F0FDFF814604F1010B6D
:101030008DF836B010210AA804F0ACFDB7F5804F4A
:1010400018D900983C46002609EB000505EB8630D0
:101050004FF4804104F09EFD701CA4F58044C6B29C
:10106000B4F5804FF2D8002C1CBF05EB8630A1B23E
:1010700004D105E027B10098B9B2484404F08AFDD4
:10108000B8F5804F84BF4546002425D909EB84304C
:101090004FF4804104F07EFD601CA5F58045C4B28C
:1010A000B5F5804FF2D8002D1CBFA9B209EB8430F2
:1010B00002D000BF04F06EFD0BF0FF045445B1D325
:1010C0007AA004F069FD7E4800235A1E79A10068C9
:1010D00006F002FF00F07BB9B8F1000F1CBF1FFA49
:1010E00088F14846E6D1E7E700F13101441C8DF86C
:1010F0003C10E0B204F088FD010C8DF84110010AAB
:101100008DF842108DF843000C210EA804F042FD2A
:10111000E0B20228E8D300F05AB96A4804F03CFD76
:1011200001F098FF04F043FD01F0B2FF04F03FFD31
:1011300065480EE0654804F02FFD4FF4807004F020
:1011400036FD4FF4613004F032FD614804F024FDB7
:10115000604804F021FD00F03AB95F4804F01CFD3E
:101160005E4804F024FD4FF47A7004F020FD022064
:1011700004F01DFD00208DF8000000BF10F0FF00FE
:1011800009D0012808BF564809D0022814BF0328F7
:10119000544804D005E0544804F0FEFC01E004F09B
:1011A000FBFC9DF80000401CC0B28DF80000022836
:1011B000E4D340F6E44004F0FAFC4C48008804F024
:1011C000F6FC684605F02CFE9DF8001004F0E2FCE9
:1011D000FDE0474804F0E0FC022004F0D9FC0020C8
:1011E00004F0D6FC434F444E002507F11C08A7F13C
:1011F0001009A7F10C0A414804F0CEFC705D0024F0
:10120000002805D81FE0002C1CBF3D4804F0C4FC9A
:10121000002D08BF57F824000ED0012D08BF58F844
:10122000240009D0022D08BF59F8240004D0032D52
:1012300008BF5AF8240001D104F0AEFC601CC4B20F
:10124000705DA042DFD8681CC5B2022DD3D32B48F5
:1012500004F0A2FC2B487CE7A8000020A421002079
:10126000BC0300204F53435F797979797878787897
:101270004348307847454E5F7843485F46787878F2
:10128000475F4E5800000000475F4F4B00000000D2
:1012900041434B5F0000000053544D33324633301E
:1012A000332D4E75636C656F2D333200535F4F4B9A
:1012B00000000000324461746153656E74000000E8
:1012C00008010020BC750008C4750008B073000850
:1012D000B8730008C0730008C474000800093D001A
:1012E000D0740008D8740008E0740008BAF7FF1F33
:1012F0007C750008B8000020C68800088C750008BE
:101300009075000894750008384804F045FC38488A
:1013100004F04DFC4FF4FA7004F049FC0C2004F08A
:1013200046FC022004F043FC002405E024B1012C1B
:1013300008BF304801D002E02F4804F02DFC601CAB
:10134000C4B2022CF2D3002004F031FC40F6E44099
:1013500004F02DFC40F6E44004F029FC4FF49660C4
:1013600004F025FC33E0254804F016FC244804F082
:1013700013FC244804F010FC234804F00DFC23481F
:1013800004F00AFC224804F007FC224804F004FCA4
:10139000562004F0FDFB01F0C4FB302404EB106088
:1013A000C0B204F0F5FB2E2004F0F2FB01F0B9FB13
:1013B00004EB1040C0B204F0EBFB2E2004F0E8FB7D
:1013C00001F0AFFB04EB1020C0B204F0E1FB1248C7
:1013D000C06806F037FF6DE50F4800235A1E02A9CA
:1013E000806806F050FC02A8B3E600002C740008E8
:1013F00080841E004074000838740008407600089D
:10140000487600085876000860760008687600087C
:10141000747600087C760008A800002001490220AC
:1014200008607047000000200149002008607047F4
:101430000000002010B5446A204600F061FF012042
:10144000207110BD10B5446A204600F01EFF012037
:10145000207110BD10B5446A206940F0040020617D
:10146000204600F04FFF0120207110BD10B5446AE6
:10147000206940F004002061204600F008FF0120B0
:10148000207110BD406A00F03CBF10B5406A00F00A
:10149000FDFE10BDF8B50F46002116460C4680B182
:1014A000012818BFF8BD102529460A4801F042F866
:1014B00033463A4629460748CDF8004000F0B2FFCF
:1014C000F8BD054801F036F8214633463A46024851
:1014D0000094F3E7DC010020F0010020014801F056
:1014E00099B800002C040020014801F093B80000D6
:1014F0007004002010B5154C96B0012802D00228C7
:101500000ED01DE0442211496846FEF7B1FE606C22
:101510001190A06C1290E06C216D139014910FE06B
:1015200044220B496846FEF7A3FE0948416C11911D
:10153000806C1290D4F8A000D4F8A41013901491E9
:101540000F980068406816B080B210BD8C02002071
:10155000E002002000B585B002F0A6FF1021094886
:1015600000F0DCFF0021084800F0D8FF6020009068
:1015700000200190029069464FF0904001F0CAF9B6
:1015800005B000BDDC010020F001002030B51E4D8B
:1015900085B01C482860284600F0B5FE1B4C14207E
:1015A00000902068019010226946284600F070FEE5
:1015B0002868016841F4003101601435144828603E
:1015C000284600F0A0FE0420009020680190002230
:1015D0006946284600F05CFE2868016841F0020177
:1015E0000160602000900320019000200290694675
:1015F0004FF0904001F08EF905B0BDE8304002F0A8
:1016000061BF000000740040DC01002000000020E9
:101610000098004086B000221421052006F0F6FA5A
:10162000DFF8E8803A49A1F12C04C8F800002160F5
:101630004FF47A706060E060A06020610127A775B8
:10164000FA2060622084A1614FF0000984F81490B0
:101650000C20208500235A1E6946D8F8000006F0A9
:1016600012FB9DF80000312818BF3228F2D0332831
:1016700008BF207DEED034280ED0352835D036284E
:10168000E8D037283DD03828E4D1607D012814BF48
:10169000607D02F0EDFEDDE7207D0028DAD1607D7F
:1016A000012814BF607D002501D02775D2E704EB27
:1016B000850670680022294602F0F4FFA07DA8424A
:1016C00007D904EB4500028CB1692846FFF7E2FE1A
:1016D00004E0002211462846FFF7DCFE681CC5B274
:1016E000022DE4D3FFF752FFDFE7207D0128B1D1BF
:1016F000607D012814BF607DFFF72CFF84F81490F3
:10170000A8E7677502F0ECFEA4E7000014010020D2
:1017100064270020034800684068C0F5807080B2EC
:10172000704700002C040020014890F82100704709
:10173000FC2600202DE9F041044690F840000D46BB
:10174000012804BF0220BDE8F0814FF0010884F8B1
:1017500040802046FFF774F906004FF0000718BFDD
:10176000012604D084F840703046BDE8F081C4F80A
:1017700044802068816821F080418160012D04D17E
:101780002068816841F0804181602068816841F073
:101790000041816001F0C8F905462068806810F0BA
:1017A000004F14D001F0C0F9401B0A280AD9606C20
:1017B00020F0020040F01000606484F840700120C6
:1017C000BDE8F0812068806810F0004FEAD1606CBD
:1017D00020F0020040F001006064C3E72DE9F00151
:1017E00098B04FF0000CCDF808C090F84020644647
:1017F000012A01BF022018B0BDE8F001704701279F
:1018000080F840700268936813F0040F40F04A813A
:101810004B681F25052B0CD2166B03EB43035B00B3
:101820009D4026EA05050E6806FA03F32B43136371
:101830002CE00A2B0DD2566B5B1F03EB43035B00BE
:101840009D4026EA05050E6806FA03F32B43536311
:101850001CE00F2B0DD2966B0A3B03EB43035B009E
:101860009D4026EA05050E6806FA03F32B439363B1
:101870000CE0D66B0F3B03EB43035B009D4026EA75
:1018800005050E6806FA03F32B43D36302689368D9
:101890004FF0070513F00C0F64D10B680A2B0ED321
:1018A00096690A3B03EB430305FA03F826EA0806A8
:1018B000D1F8088008FA03F3334393610CE05669CA
:1018C00003EB430305FA03F826EA0806D1F808807B
:1018D00008FA03F33343536102684B69D668D1F8C1
:1018E0001080C6F3C1067600B340974EB8F1010FE1
:1018F0003FD0B8F1020F49D0B8F1030F53D0B8F17F
:10190000040F5DD0136E0E7803F0F843B3EB866FCF
:1019100003D1136E23F0004313660268536E0E78F2
:1019200003F0F843B3EB866F03D1536E23F000430B
:1019300053660268936E0E7803F0F843B3EB866F3C
:1019400003D1936E23F0004393660268D36E0E7842
:1019500003F0F843B3EB866F04BFD36E23F000436C
:1019600000D1D3660268936803F00303012B37D1DB
:1019700032E0D2F8608008EA060691F8008043EA77
:101980008863334343F000431366EBE7D2F8648087
:1019900008EA060691F8008043EA8863334343F07F
:1019A00000435366DEE7D2F8688008EA060691F83D
:1019B000008043EA8863334343F000439366D1E7F2
:1019C000D2F86C8008EA060691F8008043EA886342
:1019D000334343F00043C4E7136813F0010F67D1AA
:1019E000CB68012BD2F8B03006D00D7807FA05F598
:1019F000AB43C2F8B03022E00E7807FA06F6334364
:101A0000C2F8B0300A6803680A2A0CD39E69093A02
:101A100002EB4202954026EA05058E6806FA02F2BC
:101A20002A439A610BE05E69521C02EB4202954028
:101A300026EA05058E6806FA02F22A435A61096809
:101A4000424A102908D011290BD0122904BF9368EB
:101A500013F4800F09D02BE0936813F4000F27D103
:101A600003E0936813F0807F22D10368B3F1A04FA5
:101A70000CBF374D4FF0A04503959D6805F0030559
:101A8000012D03D11D6815F0010F0BD1039DB5B1D8
:101A9000AD6805F00305012D11D1039D2D6815F0EA
:101AA000010F0CD0416C41F0200141644FF0010C5A
:101AB00080F8404018B06046BDE8F001704710293A
:101AC00009D0112933D0122904BF916841F4800153
:101AD000EED19160ECE7B3F1A04FE9D1916841F408
:101AE000000191601B491C4A0968B1FBF2F101EB4E
:101AF0008101490002910091DAD0B1F1004F1ED26C
:101B00000029D8BF002105DD11F0010102D0029AA1
:101B1000521E0292009A491C531C9942C8DA029A3A
:101B2000891C521E521E02929942F8DBC0E7B3F1A3
:101B3000A04F04BF916841F08071B9D1C9E7029903
:101B4000491E0291FCD1B3E700F0FF83000300506F
:101B5000000100504000002040420F0070477047D5
:101B6000002804BF0120704770B50446406C96B051
:101B700040F0020060646C212046FEF77DFE050007
:101B80004FF0000640F0AA802068C16841F40011BF
:101B9000C1602046FEF754FF050018BF01257DD126
:101BA00001206064206841686FF30A014160216888
:101BB00040F2FF7008602068816821F0E041816098
:101BC0002068816841F0005181602068C168464A00
:101BD0001140C160206841696FF3DD0141612068F7
:101BE000816901F0784181612068016A01F0F0218A
:101BF00001622068416A01F0FF2141622068816A28
:101C000001F0FF2181622068016B384A11400163B5
:101C10002068426B36490A4042632068826B11405B
:101C200081632068C16B21F0DF0121F4E061C163B1
:101C300021680A6E2F4802400A6621684A6E0240F7
:101C40004A6621688A6E02408A662168CA6E104020
:101C5000C8662068D0F8A0106FF31201C0F8A01079
:101C60002068D0F8A4106FF31201C0F8A410206807
:101C7000D0F8B0106FF31201C0F8B0102068D0F89F
:101C8000B41021F07F11C0F8B41020681A49B0F1E7
:101C9000A04F0CBF194A4FF0A04200E01EE0009296
:101CA000826802F00302012A03D1006810F0010FDC
:101CB0000FD1009848B1806800F00300012804D1DA
:101CC0000098006810F0010F03D188680C4A10409A
:101CD0008860204600F034F9A664666484F84060A9
:101CE00016B0284670BD000004800080300882E0F5
:101CF000200882E000F0FF030003005000010050C4
:101D0000E0103CFE7047000070B596B04FF0000642
:101D100004003546029602BF012016B070BD606C0B
:101D200010F0100F606C03D010F0100F69D06DE050
:101D300000284BD1A5642565E56484F84050204611
:101D400000F034F92068806810F0805F3ED12046B2
:101D5000FEF776FE0646606C10F0100F08BF002EEE
:101D600034D1606C20F4885040F002006064206838
:101D7000816821F0405181602068816841F0805184
:101D80008160694869490068B0FBF1F000EB8000B0
:101D900040000290009019D0B0F1004F80F0BE805A
:101DA0000028D8BF002005DD10F0010002D0029904
:101DB000491E02910099401C491C884206DA029A89
:101DC000801C521E521E02928842F8DB20688168F5
:101DD00011F0805F03D0806810F0005F0BD0606C62
:101DE00020F0020040F010006064A06C40F00100A0
:101DF000A064606C0AE0606C10F0100F08BF002E49
:101E000004D12068816811F0040F0AD0606C20F0C2
:101E1000020040F0100060644FF0010616B030463A
:101E200070BD616C21F4807141F002016164404930
:101E3000B0F1A04F14BF4FF0A0423E4A009282681A
:101E400002F00302012A03D1006810F0010F11D142
:101E5000009848B1806800F00300012804D1009880
:101E6000006810F0010F05D18868626820F44030E6
:101E700010438860D4E902100843A16B012914BF04
:101E80004FF480520022E16942EA41321043626A13
:101E9000012A0AD1A9B1616C21F0020141F02001AF
:101EA0006164A16C41F00101A164E16A012902D0E1
:101EB000226B1143084321688A6812F00C0F14D179
:101EC00007E0218D1C4A02EB4141084340F4803079
:101ED000EBE7CA6822F0020222F48042CA60A169DC
:101EE000626B890341EA420108432168CA68134BC7
:101EF0001A401043C860206901282068016B21F056
:101F00000F0102D1226A521E11430163A564606C65
:101F100020F0020040F0010060647FE70298401E5C
:101F20000290FCD152E700004000002040420F0028
:101F300000030050000100500000FEFF07C0F0FF4A
:101F400010B5184B044600685968174A491EB0F18D
:101F5000A04F08D0A0F1A04CBCF5807C18BF10BDEC
:101F60005960A1B90FE0596019B9506920F080504B
:101F7000506108214FF0904000F042FCE06BBDE85A
:101F8000104000F017BB506920F0805050611021C4
:101F90004FF0904000F034FCE06BBDE8104000F0E2
:101FA00009BB000004000020001002402DE9F04FA2
:101FB000474A06461546D0F800C0696843480323DF
:101FC00080270024491C87B04FF480684FF4807943
:101FD0004FF0200A4FF4005BBCF1A04F0BD0ACF1E6
:101FE000A04EBEF5807E1CBF07B0BDE8F08F6960D3
:101FF000012945D136E0696001290DD1416941F0DF
:1020000080514161416901F080510591C16A21F41B
:10201000F87141F48071C16210782E4931F81010C6
:10202000CDE900132C49029451F82000694600F0D4
:1020300071FC2B482949C0E90014C0E90247A9688E
:10204000102913BF182944610461C0E904980446AB
:102050002348C4E906AB00F043FBF463666207B0B3
:10206000BDE8F08F416941F080514161416901F063
:1020700080510591C16A21F4F87141F48071C16207
:102080005078184931F81010CDE900131649029420
:1020900051F82000694600F03DFC15481349C0E99D
:1020A0000014C0E90247A968102913BF1829446128
:1020B0000461C0E9049804460D48C4E906AB00F089
:1020C0000FFBF463666207B0BDE8F08F00100240BA
:1020D0000400002056880008140000200800024078
:1020E0003403002050880008300000201C0002400B
:1020F000780300202DE9F0470446006890468946A1
:10210000806810F0040F18BF022502D02846BDE8F1
:10211000F08794F84000012804BF0220BDE8F08752
:1021200001204FF0A04784F84000D7F808034FF093
:10213000000610F01F0F1CBF012584F84060E5D198
:102140002046FEF7B3FC050018BF84F84060DDD1DF
:10215000606C20F0010020F4606040F480706064E6
:10216000D7F8080310F01F0F1CBF2068B0F1A04F74
:1021700042D0616C41F480116164A0F1A041B1F5DD
:10218000807109D1F86810F0007F05D0606C20F4F0
:10219000005040F480506064606C10F4805F08BFB1
:1021A000A66403D0A06C20F00600A06484F8406010
:1021B000E16B16488862E16B1548C862E16B15480F
:1021C000086321681C2008602068416841F0100104
:1021D00041602068C16841F00101C1602068434648
:1021E00000F140014A46E06B00F0BEFA20688168C9
:1021F00041F00401816089E7606C20F48010606424
:102200002068C06810F0007FC0D1C5E75109000800
:10221000AF0900089909000870B5044690F840001D
:10222000012804BF022070BD012084F840006C2109
:102230002046FEF721FB050022D12068C16821F06D
:102240000101C160E06B00F09CF9051E03D0606CD9
:1022500040F0400060642068416821F01001416056
:10226000204604D1FEF7ECFB050009D102E0FEF7A1
:10227000E7FB05E0606C20F4885040F001006064EA
:10228000002084F84000284670BD704770477047B2
:102290004379012B04BF0220704770B401244471BC
:1022A000022303710368D3F800C0A3F1804640F60F
:1022B000FE75B6F5E84601BF002A2CF4FF7C2CF42D
:1022C000606CD1E900511FBF95402CEA050C0D68E8
:1022D000896845EA010101FA02F141EA0C0119603D
:1022E00001680B684FF0C00C0CFA02F223EA0202FC
:1022F0000A6004714FF00001417170BC08467047DC
:10230000704770477047002804BF0120704770B5C0
:1023100004460079002518B96571204600F008F8D8
:1023200002202071256101202071002070BD000075
:102330002DE9F04F02680546002634482027032186
:10234000A2F1804387B04FF010084FF080094FF49E
:10235000807A4FF4806BB3F5E84331D0A2F180432B
:10236000B3F518431CBF07B0BDE8F08FC26942F057
:102370008062C261C069029600F0806005904020D2
:10238000CDE9000169464FF0904000F0C3FA214CBE
:102390001F4804F10802C4E900084FF40050C4E9E2
:1023A000067082E8400E204600F09AF91A4801684B
:1023B00041F400410160AC60656207B0BDE8F08F98
:1023C000C26942F00052C261C069009700F000503B
:1023D0000590CDE9011669464FF0904000F09AFA59
:1023E0000F4C0E4804F10802C4E900084FF40050F5
:1023F000C4E9067082E8400E204600F071F90648F4
:10240000016841F480410160EC60D5E700100240B2
:1024100058000240480200200000014044000240F1
:10242000040200202DE9F04104460D4694466179EE
:1024300000220698012904BF0220BDE8F081012690
:10244000667102212171002D32D0E7682D49B962F1
:10245000E7682D49F962E7682C49396321680F68FC
:1024600047F080570F60002804BF206800F1140275
:102470000AD0042804BF206800F1180204D00828FC
:1024800004BF206800F11C022068016841F000517F
:1024900001606146E06800F067F900206071206823
:1024A000016806FA05F2114301600020BDE8F081E1
:1024B000A7681749B962A7681649F962A76816495B
:1024C000396321680F6847F480570F60002804BF04
:1024D000206800F108020AD0042804BF206800F137
:1024E0000C0204D0082804BF206800F11002206804
:1024F000016841F4005101606146A06800F034F9C0
:10250000CBE70000451400088B1400086D14000888
:102510003514000885140008551400080368D3F822
:1025200000C0012202FA01F12CEA010119600271D6
:102530000020704770B50446006802684FF480536D
:102540008B409A43026020680268012505FA01F376
:102550009A43026069B1E06800F013F821680A68E4
:1025600022F000520A6000281ABF0421217125714F
:1025700070BDA06800F005F821680A6822F40052D6
:10258000F0E701680A6822F00E020A6001680A6832
:1025900022F001020A6090F84020C36B012101FA89
:1025A00002F25A6080F82110002180F820100846BD
:1025B00070470000002804BF0120704701680A68C6
:1025C00022F001020A600268002111600268516075
:1025D000026891600268D1600B4B02684FF0010CF9
:1025E0001A440A4BA3FB023212099300084AC0E9BD
:1025F0000F230CFA03F35360816380F8211080F8F5
:102600002010002070470000F8FFFDBFCDCCCCCCDF
:1026100000000240F0B4C16BD1F800C001680B6843
:10262000046C042202FA04F515EA0C0F18BF13F02B
:10263000040F12D00B6813F0200F03D10B6823F0A6
:1026400004030B6090F8401002FA01F1C26B516074
:10265000C16A002942D1F0BC7047022606FA04F292
:1026600012EA0C0F4FF000054FF0010218BF13F0F3
:10267000020F15D00B6813F0200F05D10B6823F063
:102680000A030B6080F8212090F84010C26B06FA14
:1026900001F1516080F82050816AF9B9F0BC7047AF
:1026A000082606FA04F414EA0C0F12BF13F0080F00
:1026B000F0BC70470B6823F00E030B6090F84010DD
:1026C000C36B02FA01F15960826380F8212080F81F
:1026D0002050016B002904BFF0BC7047F0BC0847D4
:1026E000002804BF0120704710B4022180F8211097
:1026F00002681168D0E9013C43EA0C03D0E903C445
:102700004CEA040C43EA0C03D0F814C06FF30D112B
:1027100043EA0C03D0F818C043EA0C03D0F81CC0FD
:1027200043EA0C03194311600C4A016811440C4A36
:10273000A2FB01210909890001640A49C163002142
:102740008162C162016341638163012280F82120BB
:1027500080F8201010BC084670470000F8FFFDBF4D
:10276000CDCCCCCC0000024070B490F820404FF0AB
:10277000000C012C02BF022070BC7047012480F8BD
:10278000204090F821600025012E1CBF80F82050C9
:102790004FF0020C02D070BC60467047022680F8F1
:1027A0002160856305682E6826F001062E6090F88A
:1027B0004050AC40C56B6C60046863604368102B8C
:1027C000036803BF9A600268D16099601CBF01680A
:1027D000CA60C16A002901680A6818BF42F00E0287
:1027E00006D142F00A020A6001680A6822F0040277
:1027F0000A600068016841F001010160CBE7000058
:102800000022002908BF70472DE9F04FDFF8F8B02B
:1028100001274FF003084FF00F0C0BF1040E00BF1F
:1028200007FA02F515EA010367D00668540008FAB2
:1028300004F4A6430660D60800EB8606D6F820907E
:102840004FEA427A4FEADA6A0CFA0AFA29EA0A09E6
:10285000C6F820908668A6438660466826EA050585
:102860004560C56825EA0404C46022F0030404F14D
:10287000804505F58035D5F808909407260F0CFAA9
:1028800006F404EA0909B0F1904F08BF4FF0000ABE
:1028900018D0A0F1904ABAF5806A08BF4FF0010A3B
:1028A00010D0A0F1904ABAF5006A08BF4FF0020AB2
:1028B00008D0A0F1904ABAF5406A0CBF4FF0030A65
:1028C0004FF0050A0AFA06F64E4516D1AE6826EA1A
:1028D0000404AC600D4C25689D432560DBF8004086
:1028E0009C43CBF80040DEF800409C43CEF800400B
:1028F000074C256825EA03032360521C31FA02F3D2
:102900008ED1BDE8F08F00000404014000040140B6
:102910000C0401400B680022002B08BF70472DE912
:10292000F84F784EDFF8E0E101274FF0030A4FF04F
:102930000F0800BF0B6807FA02F52B407ED0D1F8D4
:1029400004C0BCF1020F18BFBCF1120F15D14FEA41
:10295000D20C00EB8C04D4F820904FEA427C4FEA72
:10296000DC6C08FA0CFB29EA0B09D1F810B00BFA61
:102970000CFC4CEA090CC4F820C0D0F800904FEAD7
:10298000420C91F804B00AFA0CF40BF0030B29EA9C
:1029900004090BFA0CFB4BEA0909C0F80090D1F8C6
:1029A0000490B9F1010F18BFB9F1020F05D0B9F1C8
:1029B000110F18BFB9F1120F18D1D0F80890D1F843
:1029C0000CB029EA04090BFA0CFB4BEA0909C0F820
:1029D0000890D0F8049029EA050591F80490C9F30D
:1029E000001909FA02F949EA05054560C56825EAB2
:1029F00004048D6805FA0CFC4CEA040CC0F80CC009
:102A0000D1F804C01CF0805F75D0D6F818C04CF027
:102A1000010CC6F818C0D6F818C00CF0010CCDF89F
:102A200000C022F0030C0CF1804404F58034D4F88B
:102A300008C04FEA82754FEA157500E05BE008FABE
:102A400005F92CEA090CB0F1904F08BF4FF00009CE
:102A500018D0A0F19049B9F5806908BF4FF001097D
:102A600010D0A0F19049B9F5006908BF4FF00209F4
:102A700008D0A0F19049B9F540690CBF4FF00309A7
:102A80004FF0050909FA05F545EA0C0CC4F808C031
:102A9000DEF800C04C682CEA030C14F4803F18BF29
:102AA0004CEA030CCEF800C0184CD4F800C04D68B6
:102AB0002CEA030C15F4003F18BF4CEA030CC4F8D1
:102AC00000C0134CD4F800C04D682CEA030C15F478
:102AD000801F18BF4CEA030CC4F800C00D4CD4F89A
:102AE00000C04D682CEA030C15F4001F18BF4CEA17
:102AF000030CC4F800C00B68521CD3407FF41AAF1B
:102B0000BDE8F88F001002400004014004040140B9
:102B1000080401400C040140002A14BF8161816255
:102B200070474FF08270704701480068704700009E
:102B30004400002002480168491C01607047000001
:102B400044000020074810B5016841F01001016001
:102B5000032000F07DF80F2000F006F800F018F8D0
:102B6000002010BD0020024010B5044607484FF475
:102B70007A720068B0FBF2F000F0CAFD0022214634
:102B8000501E00F033F8002010BD0000400000206F
:102B9000094808B5816941F001018161806900F04F
:102BA00001000090032000F053F80022BDE8084027
:102BB0001146501E00F01AB80010024000F01F012C
:102BC000012202FA01F14009800000F1E020C0F882
:102BD0008012704700F01F01012202FA01F1400942
:102BE000800000F1E020C0F800117047174B10B4CE
:102BF0001B68C3F30223C3F1070CBCF1040F88BFA9
:102C00004FF0040C1C1D072C34BF0023DB1E0124D5
:102C100004FA0CFCACF1010C0CEA0101994004FA35
:102C200003F35B1E1A40114300284FEA0111A1BFB4
:102C300000F1E02080F8001410BC704700F00F0095
:102C400000F1E02080F8141D10BC70470CED00E08E
:102C5000074900F007000A684FF6FF031A4042EAEE
:102C6000002040F0FD7040F0806008607047000078
:102C70000CED00E02DE9F84F044600685F4E10F4BB
:102C8000803F7DD0F0694FF0000910F0805F09D1DE
:102C9000F06940F08050F061F0694FF0010900F0F8
:102CA00080500090564F386810F4807F13D13868F8
:102CB00040F480703860FFF737FF0546386810F43D
:102CC000807F08D1FFF730FF401B64285AD838684E
:102CD00010F4807FF6D0306A10F4407055D0A1888F
:102CE00001F44071814250D0306A0127390491FAD1
:102CF000A1F2B2FA82F2920002F1844202F5840259
:102D000020F44070C2F8007491FAA1F10022B1FAE7
:102D100081F1890001F1844101F58401C1F80024A9
:102D2000306210F0010F30D0FFF7FEFE8046022522
:102D300041F2883A95FAA5F0B0FA80F040F04000F0
:102D4000B7EB501F08BF30680AD095FAA5F0B0FA6B
:102D500080F040F04000B5EB501F0CBF306A706A45
:102D600095FAA5F1B1FA81F101F01F0107FA01F11D
:102D700008420AD1FFF7D8FEA0EB0800504500E05A
:102D800010E0D7D90320BDE8F88F306A616820F4DD
:102D9000407008433062B9F1000F03D0F06920F0B1
:102DA0008050F061207810F0010F05D0306BA168E1
:102DB00020F0030008433063207810F0200F05D086
:102DC000306BE16820F0100008433063207810F089
:102DD000800F05D0F06A216920F4F8700843F06292
:102DE000208810F4805F05D0306B616920F480701A
:102DF000084330630020BDE8F88F00000010024057
:102E0000007000402DE9F047DFF8289205460E4695
:102E1000D9F8000000F00700B0420CD2D9F8000049
:102E200020F007003043C9F80000D9F8000000F096
:102E30000700B04270D128787F4C10F0020F05D007
:102E40006068A96820F0F00008436060287810F0FE
:102E5000010F71D068680121012831D0022845D0C6
:102E6000022393FAA3F2B2FA82F242F0200252094C
:102E70000CBF626A226893FAA3F3B3FA83F303F0F8
:102E80001F0399400A427DD0616821F00301084385
:102E90006060FFF749FE0746686841F288380128FC
:102EA0003BD00228606800F00C0046D0002856D0C5
:102EB000FFF73AFEC01B40454DD90320BDE8F0871F
:102EC0004FF4003393FAA3F2B2FA82F242F02002F6
:102ED000520914BF2268626A93FAA3F3B3FA83F328
:102EE00003F01F0399400A424CD0CDE74FF0007326
:102EF00093FAA3F2B2FA82F242F02002520914BF0E
:102F00002268626A93FAA3F3B3FA83F303F01F0310
:102F100099400A4236D0B7E734E0606800F00C0010
:102F200004281CD0FFF700FEC01B4045C5D86068D0
:102F300000F00C000428F5D111E008280FD000BFE4
:102F4000FFF7F2FDC01B4045B7D8606800F00C00E9
:102F50000828F5D103E0606810F00C0FA8D1D9F86B
:102F6000000000F00700B0420FD9D9F8000020F0AF
:102F700007003043C9F80000D9F8000000F007004E
:102F8000B04202D00120BDE8F087287810F0040F8D
:102F900005D06068E96820F4E06008436060287844
:102FA00010F0080F06D06068296920F4605040EAEC
:102FB000C10060606168214801F00C02042A01D060
:102FC000082A13D06168F02292FAA2F201F0F0010F
:102FD000B2FA82F2D1401A4A515CC84019490860DD
:102FE0000F20FFF7C1FD0020BDE8F0874FF47013FC
:102FF00093FAA3F301F47012B3FA83F3DA40124B9D
:103000009A5CE36A4FF00F0C9CFAACFC03F00F03E0
:10301000BCFA8CFC23FA0CF3DFF830C011F4803FCB
:103020001CF8033019BFB0FBF3F05043084850437D
:10303000C8E70000002002400010024000127A00A1
:103040008E88000840000020A6880008B688000886
:1030500000093D0001480068704700004000002062
:1030600008480949006849684FF4E06292FAA2F200
:1030700001F4E061B2FA82F2D140044A515CC840E6
:103080007047000040000020001002409E880008A9
:1030900008480949006849684FF4605292FAA2F260
:1030A00001F46051B2FA82F2D140044A515CC84046
:1030B0007047000040000020001002409E88000879
:1030C000184B5968184801F00C02042A08BF7047D1
:1030D000082A18BF704701F470124FF4701C9CFA54
:1030E000ACFCBCFA8CFC22FA0CF2DFF840C0DB6AC4
:1030F0001CF802204FF00F0C9CFAACFC03F00F03FD
:10310000BCFA8CFC23FA0CF3DFF824C011F4803FE6
:103110001CF8033019BFB0FBF3F05043054850438F
:10312000704700000010024000127A00A6880008D4
:10313000B688000800093D002DE9F84F04460078E4
:10314000FF4D10F0010F4FF0010626D0686877049C
:1031500000F00C00042808D0686800F00C00082873
:1031600060D1686810F4803F5CD097FAA7F0B0FA9D
:1031700080F040F02000400914BF2868686A97FA80
:10318000A7F1B1FA81F101F01F0106FA01F108423D
:1031900003D06068002800F0AA8220784FF0000970
:1031A00010F0020F4FF0020778D068684FF0F80A6D
:1031B00010F00C0F73D0686800F00C00082804BFF2
:1031C000686810F4803F6AD02069002896FAA6F05B
:1031D000B0FA80F04FEA800000F1844000F58400EE
:1031E00000F0F8800660FFF79FFC804697FAA7F092
:1031F000B0FA80F040F02000400914BF2868686AE7
:1032000097FAA7F1B1FA81F101F01F0106FA01F175
:1032100008426ED1FFF788FCA0EB08000228E5D930
:1032200000F013BA6068B0F5803F04BF286840F42E
:1032300080300AD010B1B0F5A02F31D0286820F42A
:1032400080302860286820F480202860E86AA1681F
:1032500020F00F000843E862606848B3FFF764FCA1
:103260004FEA000897FAA7F0B0FA80F040F020008B
:10327000400914BF2868686A97FAA7F1B1FA81F18A
:1032800001F01F0106FA01F1084286D1FFF74CFC5C
:10329000A0EB08006428E5D900F0D7B95CE029E08C
:1032A000286840F480202860286840F48030CCE70B
:1032B000FFF73AFC4FEA000897FAA7F0B0FA80F05F
:1032C00040F02000400914BF2868686A97FAA7F107
:1032D000B1FA81F101F01F0106FA01F108423FF451
:1032E0005CAFFFF721FCA0EB08006428E4D900F0F4
:1032F000ACB924E097FAA7F0B0FA80F040F02000D3
:10330000400914BF2868686A97FAA7F1B1FA81F1F9
:1033100001F01F0106FA01F108421CBF20690128D3
:1033200040F0E58128689AFAAAF26169B2FA82F25D
:1033300020F0F80001FA02F140EA01000BE02868F1
:103340009AFAAAF220F0F8016069B2FA82F200FA61
:1033500002F041EA00002860207810F0080F7CD0CD
:10336000A069002896FAA6F0B0FA80F04FEA800033
:1033700000F1844000F584004ED0C0F88064FFF76F
:10338000D3FB804697FAA7F0B0FA80F040F06000D7
:10339000B6EB501F08BF28680AD097FAA7F0B0FA1A
:1033A00080F040F06000B7EB501F0CBF286A686ADD
:1033B00097FAA7F1B1FA81F101F01F0106FA01F1C4
:1033C000084258D1FFF7B0FBA0EB08000228D9D97A
:1033D00000F03BB9C0F80090FFF7A6FB4FEA0008E9
:1033E00097FAA7F0B0FA80F040F02000400914BF2F
:1033F0002968696A97FAA7F0B0FA80F000F01F0018
:1034000006FA00F00142A7D0FFF78EFBA0EB080000
:103410000228E5D900F019B9C0F88094FFF784FBC1
:103420004FEA000897FAA7F0B0FA80F040F0600089
:10343000B6EB501F08BF28680AD097FAA7F0B0FA79
:1034400080F040F06000B7EB501F0CBF286A686A3C
:1034500097FAA7F1B1FA81F100E00CE001F01F0149
:1034600006FA01F1084206D0FFF75EFBA0EB080068
:103470000228D7D9E9E0207810F0040F5FD0E8697E
:103480004FF0000B10F0805F09D1E86940F08050E8
:10349000E861E8694FF0010B00F080500090DFF820
:1034A000A480D8F8000010F4807F18D1D8F800006C
:1034B00040F48070C8F80000FFF736FB8246D8F869
:1034C000000010F4807F0AD1FFF72EFBA0EB0A006A
:1034D000642849D8D8F8000010F4807FF4D0E06860
:1034E000012804BF286A40F0010009D008B105286E
:1034F0003CD0286A20F001002862286A20F00400ED
:103500002862E06841F2883A78B3FFF70DFB804605
:1035100097FAA7F0B0FA80F040F04000B6EB501FE9
:1035200008BF28680AD097FAA7F0B0FA80F040F0F8
:103530004000B7EB501F0CBF286A686A04E04FE0F8
:10354000001002400070004097FAA7F1B1FA81F133
:1035500001F01F0106FA01F108423AD1FFF7E4FA3F
:10356000A0EB08005045D3D96FE007E0286A40F08F
:1035700004002862286A40F00100C1E7FFF7D4FA8E
:103580004FEA000897FAA7F0B0FA80F040F0400048
:10359000B6EB501F08BF28680AD097FAA7F0B0FA18
:1035A00080F040F04000B7EB501F0CBF286A686AFB
:1035B00097FAA7F1B1FA81F101F01F0106FA01F1C2
:1035C000084206D0FFF7B0FAA0EB08005045D9D961
:1035D0003BE0BBF1000F03D0E86920F08050E861C8
:1035E000E069A8B3696801F00C0108297FD04FF0A9
:1035F000807A02289AFAAAF0B0FA80F04FEA8000A6
:1036000000F1844000F584004FF00077C0F800908E
:103610001FD0FFF789FA044697FAA7F0B0FA80F0B6
:1036200040F02000400914BF2868686A97FAA7F1A3
:10363000B1FA81F101F01F0106FA01F1084259D0F7
:10364000FFF772FA001B0228E6D90320BDE8F88FC5
:1036500050E0FFF769FA804697FAA7F0B0FA80F0D9
:1036600040F02000400914BF2868686A97FAA7F163
:10367000B1FA81F101F01F0106FA01F1084206D00A
:10368000FFF752FAA0EB08000228E5D9DDE7D4E9FC
:1036900008100843696821F47411084368609AFAB5
:1036A000AAF0B0FA80F0800000F1844000F58400B8
:1036B0000660FFF739FA044697FAA7F0B0FA80F0EF
:1036C00040F02000400914BF2868686A97FAA7F103
:1036D000B1FA81F101F01F0106FA01F1084209D1A6
:1036E000FFF722FA001B0228E6D9AEE7FFE7012028
:1036F000BDE8F88F0020BDE8F88F4FF0E0210428E6
:1037000008690CBF40F0040020F004000861704715
:10371000411EB1F1807F24BF012070474FF0E020AF
:103720004161054AF02182F8141D002181610721C1
:1037300001610020704700000FE000E090F83C209D
:10374000012A04BF0220704710B4012280F83C20F7
:1037500002685368D2F808C0A2F18044B4F59634E8
:1037600003D14C6823F4700323430C6823F07003E7
:10377000896823432CF0800C41EA0C0153600268F5
:103780009160002180F83C1010BC0846704700286A
:1037900004BF0120704710B5044690F83D0028B9D9
:1037A000002084F83C00204600F00CF8022084F849
:1037B0003D00211D206800F0D3FE012084F83D006B
:1037C000002010BD02681749A2F1804381B0B3F513
:1037D000806307D1CA6942F00202CA61CA6902F075
:1037E000020200920268A2F18043B3F5805307D130
:1037F000CA6942F01002CA61CA6902F0100200925E
:103800000068A0F18042B2F5A0521CBF01B0704721
:10381000C86940F02000C861C86900F0200000902D
:1038200001B0704700100240022180F83D1001688D
:103830000A6842F001020A60012180F83D10002070
:103840007047022180F83D1001680A6A41F21113A5
:103850001A4207D10A6A9B101A4203D10A6822F061
:1038600001020A60012180F83D100020704790F8A5
:103870003C20012A0DBF0220012380F83C30704714
:1038800030B4022280F83D200268D2F808C02CF043
:10389000770C2CF4803C2CF47F4CC2F808C00A68EA
:1038A000502A47D00CDC202A7DD004DC002A7BD0B3
:1038B000102A7AD0B7E0302A78D0402A78D0B2E007
:1038C000602A54D0702A0DD0B2F5805F03D0B2F5D3
:1038D000005F1DD0A7E001688A6822F0070222F489
:1038E000803242E00268D1F804C08C68C9689568EB
:1038F0004CEA012125F47F45214329439160016869
:103900008A6822F0770222F4803242F077022CE0BB
:103910000268D1F804C08C68C96895684CEA012136
:1039200025F47F4521432943916001688A6842F468
:1039300080421AE00268D1F804C0C968146A156AA6
:1039400025F001051562956924F00A0425F0F005BB
:1039500045EA011144EA0C0C9161C2F820C00168EB
:103960008A6822F0700242F057028A605BE00268C7
:10397000D1F804C0CC68116A21F010011162956978
:10398000116A25F4704545EA043421F0A00141EAAA
:103990000C119461116201688A6822F0700242F091
:1039A00067028A603FE02FE01EE025E034E0FFE799
:1039B0000268D1F804C0CC68116A156A25F00105C7
:1039C0001562956921F00A0125F0F00545EA041415
:1039D00041EA0C019461116201688A6822F0700268
:1039E00042F047028A601EE001688A6822F0700295
:1039F00042F007028A6016E001688A6822F07002CD
:103A000042F017028A600EE001688A6822F07002B4
:103A100042F027028A6006E001688A6822F070029C
:103A200042F037028A6080F83D30002180F83C1077
:103A300030BC084670477047002804BF012070471B
:103A400010B5044690F8690028B9002084F8680091
:103A5000204600F029F8242084F8690020680168D5
:103A600021F001010160204600F02AFF012808BF73
:103A700010BD606A00281CBF204600F029FE2068A7
:103A8000416821F4904141602068816821F02A0159
:103A900081602068016841F0010101602046BDE8B5
:103AA000104000F082BE00002DE9F041064600689B
:103AB00086B0A0F18041B1F588411CBF06B0BDE8D9
:103AC000F0812048C16941F40031C161C069694693
:103AD00000F40030059048F20400009002200190AC
:103AE0000120029003200390072004904FF09040A3
:103AF000FEF710FF154C14480025C4E90005802787
:103B0000C4E902574FF40058C4F81C8020202561F6
:103B1000C4E905502046FEF7E3FD7466666244344E
:103B20000B4820601020C4E90105C4E903756561F4
:103B3000C4E906582046FEF7D3FD3466666206B037
:103B4000BDE8F081001002406C0002402C0400200F
:103B50008000024070B5044690F86A0020283BD1EE
:103B6000002912BF002A012070BD94F868000128C6
:103B700032D0012084F868006165A4F8582000253F
:103B8000E566222084F86A00616E14481346886254
:103B9000616E1348C862616E12480863606E4563C7
:103BA0002068D4F854C000F124016246606EFEF72C
:103BB000DBFD84F868502068016841F48071016081
:103BC0002068816841F0010181602068816841F0CE
:103BD00040018160002070BD022070BD7748000860
:103BE000B74800080B480008704770470020FCF7F2
:103BF000FFBF0020FDF70AB8154E164C164D82B0D7
:103C0000012700BFFDF786FDE18888421DD000BF77
:103C10004FF0FF31E86804F02FFBE1882068405C3A
:103C20003B2806D1A77200236A460CA1306804F035
:103C300095FAA079401CC0B2E080E86804F002FB6D
:103C4000FDF768FDE1888842E2D103F0F7FDD9E78E
:103C5000A4000020A4220020A80000203154727982
:103C60005061727365436D640000000070B51848C0
:103C700086B04FF0A0410160164E4FF48031416094
:103C8000B16800240461C461446281604FF48061C2
:103C90000163012505628910C460C1620421C0E985
:103CA0000514C0E90D54FEF72FF830460A49007894
:103CB00051F82000CDE900050394F06802900494C7
:103CC000694605940248FDF789FD06B070BD000005
:103CD0008C020020040000206488000870B5184899
:103CE00086B016490160174E09024160B168002490
:103CF0000461C461446281604FF480610163012505
:103D000005628910C460C1620421C0E90514C0E9DC
:103D10000D54FDF7F9FF30460B49407851F820006B
:103D2000CDE900050394F068029004946946059477
:103D30000348FDF753FD06B070BD000000010050C0
:103D4000E0020020040000208088000810B50D4C1F
:103D500084B00B4820602046FEF7D5FA142000906E
:103D6000094810226946006801902046FEF790FA43
:103D70002068016841F40031016004B010BD00000A
:103D800000740040DC0100200000002010B50D4C44
:103D900084B00B4820602046FEF7B5FA042000905E
:103DA000094800226946006801902046FEF770FA33
:103DB0002068016841F00201016004B010BD0000FC
:103DC00000980040F001002000000020054881B06C
:103DD000416941F001014161406900F0010000903A
:103DE00001B070470010024008B50020FCF7D4FE77
:103DF0000848416941F480014161416901F4800151
:103E00000091416941F400314161406900F40030A2
:103E1000009008BD0010024010B50E4888B00C4953
:103E20000024C0E900148460C4600461FFF7AFFCA3
:103E30004FF48050049004A90648FFF718FD202095
:103E40000090694602940348FFF778FC08B010BD63
:103E5000000400401C01002010B500221146102073
:103E6000FEF7C4FE1020FEF7B5FE00221146112019
:103E7000FEF7BCFE1120FEF7ADFE0B4809490C22EF
:103E800001604FF46131416000218160C160C0E98F
:103E900004128161C161016210214162BDE81040DC
:103EA000FFF7CABD00440040BC03002088B00022D8
:103EB0001421052003F0AAFE5C4FB862042003F031
:103EC0007DFE386303F0B4F8DFF864B1594E4FF06B
:103ED000060A4FF000084FF0010900235A1E03A9FB
:103EE000B86A03F0D0FE4FF0FF31386B04F0C4F92C
:103EF0009DF80C0032280CD0332811D0342849D03A
:103F000035287DD0362804BF96F82000062878D0C2
:103F100088E096F82000002818BF86F820A081E0ED
:103F200096F82000354605281CBF95F8200000288B
:103F300078D002F071FFC7F80C80CDF80480FCF750
:103F400071FDA86801A900F0BDFB0198FCF7E0FD38
:103F50005FF0000495F82100A04206D96A6B05EBDA
:103F60008400416A2046FCF725FD601CC4B2022C87
:103F7000F0D30198E86095F8200006281CBF95F85A
:103F8000200004284ED085F82090C7F8188002F051
:103F900045FF47E096F8200001281CBF96F8200056
:103FA00002283FD096F8200003281CBF96F8200076
:103FB000042837D0C7F80C80CDF80880FCF732FD14
:103FC000B06802A900F07EFB0298FCF7A1FD002476
:103FD00096F82100A04206D9726B06EB8400416A74
:103FE0002046FCF7E7FC601CC4B2022CF0D3029818
:103FF000F06086F8209002F011FF00235A1E02E0C4
:1040000007E00BE00EE00CA1DBF8000003F064FF1A
:1040100008E002F001FF86F8208003E002F0FEFED7
:1040200086F82090386B04F00DF956E7E000002088
:10403000B0000020FC260020534D504C0000000032
:10404000C14DDFF80883C24C4FF0020A4FF6FF76ED
:1040500001274FF0030B4FF0000900BF95F8200037
:1040600001281FBF95F82000022895F8200003289A
:1040700002D003F0E3FBF1E74FF0FF31206B04F0D7
:10408000FBF8E068206195F83800FDF733FA696BBA
:10409000091AE160686B4A1E10446A6BB0FBF2F3C8
:1040A00002FB1300606195F82020012A0AD095F8E0
:1040B0002020022A5FD095F82000032800F0B3806A
:1040C00000F031B96A8B082A95F8382005EB820296
:1040D000126A9ABF20F00100105C32F810002080B4
:1040E000E88AAA8B5043000C60802A692B8BF31A54
:1040F0005A4307EB124262602A692B8B89B25A43FA
:10410000120CA260238A9BB2994224BFC91A89B2B9
:1041100004D2D5F834C06144C91A89B2A3691944DC
:10412000A161914240F2FF802A7D1AB922881032A3
:10413000824215D32A7D012A03D12288103A824275
:104140000EDC687D012803D12869B1EB800F07D808
:10415000687D022840F0E7802869884280F0E3808B
:1041600085F820A000235A1E7AA1D8F8000003F099
:10417000B3FE00F0D8B88AB2218A89B28A4224BF3D
:10418000511A89B203D26B6B1A44511A89B2A269CF
:104190001144A1616A8B082A95F8382005EB820248
:1041A000126A9ABF20F00103D25C32F810202280FC
:1041B000EA8AAB8B5A43120C62802B69B5F818C09F
:1041C000A6EB0C0C03FB0CF307EB134363602B69AA
:1041D000B5F818C003FB0CF31B0CA3602B7D13B9BF
:1041E0002388934212D82B7D012B02D1238893423E
:1041F0000CD36A7D012A03D12A69B1EB820F05D85D
:104200006A7D022A7ED12A698A427BD2C4E906915C
:1042100085F820B00023E0625A1E50A1D8F80000B3
:1042200003F05AFE7FE0208A89B280B2814224BF27
:10423000081A80B203D26A6B1144081A80B2A169CD
:104240000844A06195F8201003296CD16168884268
:1042500069D302F0E1FD687D294601281CBF487D35
:1042600002281CD0488B0828087D28D9002891F8FE
:10427000380001EB8000026AE06A32F81030628890
:104280000FD0934232D200BF91F8383001EB830354
:104290001B6A401E33F810309342F5D325E0E06AE4
:1042A00026E0934222D900BF91F8383001EB830316
:1042B0001B6A401E33F810309342F5D815E00028F1
:1042C00091F8380001EB8000026AE06A135C6288B2
:1042D0002DD093420AD200BF91F8383001EB83030E
:1042E0001B6A401E1B5C9342F6D3E062401CE062F6
:1042F0004860042081F82000E1692162A0696062C1
:10430000084400E00FE0B0F5801F28BFC4F8189003
:10431000C4F818900023C4F81C905A1E11A1D8F8B4
:10432000000003F0D9FD206B03F08CFF96E693426A
:10433000DCD900BF91F8383001EB83031B6A401EC3
:104340001B5C9342F6D8D0E7FC260020B00000208A
:10435000E0000020534D504C0000000054524947EB
:1043600000000000314461746152656164795F5FEF
:10437000000000004FF4C87001F0FCFEFFF739FCAC
:10438000282001F0F7FEFFF731FCF3E710B504F049
:104390009FF8002818BF03F0FFFBBDE81040FEF7B0
:1043A000C9BB70B596B00225012610200095CDE955
:1043B000046000244FF46010CDE90840079568467A
:1043C000FEF7BAFE0520CDE90A056802CDE90C40EA
:1043D00002210AA80E94FEF715FD10A8109612945B
:1043E000FEF748FCFEF736FE4FF47A71B0FBF1F0B1
:1043F000FFF78EF90420FFF780F900221146501EC6
:10440000FEF7F4FB16B070BD1448016841F470016A
:1044100001601348016841F0010101604168114ADF
:1044200011404160016821F4102121F08071016088
:10443000016821F480210160416821F4FE0141609E
:10444000C16A21F00F01C162016B074A114001638B
:10445000002181600549C0030860704788ED00E0D5
:10446000001002400CC07FF8CCFC00FF08ED00E01B
:104470000C48016941F010010161016921F010014E
:104480000161016941F020010161016921F0200110
:104490000161016941F000510161016921F00051A0
:1044A000016170470010024010B50448FFF7C9F9D8
:1044B000BDE810400248FFF7C4B900005C010020CD
:1044C0009C01002010B50448FFF7AEF9BDE810408C
:1044D0000248FFF7A9B900005C0100209C01002000
:1044E00070B5164884B014490024C0E9001440F2A5
:1044F000FF75C0E903548460FFF749F92026694637
:104500000E4800960294FFF719F90E480C49C0E9CD
:104510000014C0E903548460FFF739F9694609487B
:1045200000960294FFF70AF9FFF710FC04B0BDE80B
:104530007040FFF72BBC0000001000405C01002021
:10454000001400409C0100200148FFF77AB90000E8
:104550001C0100200148FFF767B900001C01002082
:1045600070B402681E4B1F4E98421CBFB0F1804FC2
:10457000B04205D1D1F804C022F070024CEA020228
:10458000DFF864C0194C1A4D984218BFB0F1804F43
:1045900007D0B04218BF604503D0A04218BFA84260
:1045A00004D1CE6822F4407246EA02024E6922F03B
:1045B000800242EA060202608A68C2620A68826277
:1045C000984218BF604503D0A04218BFA84201D14D
:1045D000096901634FF00101416170BC704700003F
:1045E000002C014000040040004001400044014014
:1045F000004801402DE9F0479146884605460026CF
:10460000FEF746FD4000B0FBF5F0401C5FEA500CA1
:1046100008BF6C2507D0BCF5803F1ADA0027ACF143
:10462000010084B23D46B9F1000F08D0FEF730FD1D
:10463000791C621C5143B0FBF1F0C9F80000C8F8C6
:1046400004704046C8F80C40FFF7A1F82846BDE8C2
:10465000F0874FF0FF304FEA1C44010C621C94B20B
:104660009CFBF4F295B205FB14C383423CBF184691
:1046700026468C4204D1BCFBF6F085B2B4B201E010
:10468000002BEBD1AC429CBF601E87B2A5F10100AC
:1046900084BF87B2601E84B2002B14BF6B25002537
:1046A000C1E7000031B101291CBF00207047034958
:1046B000FFF7A0BF0249FFF79DBF00009C0100204B
:1046C0005C0100200A460149FFF794BF1C0100204D
:1046D00090F8241011F0010F06D001684A68836A2F
:1046E00022F400321A434A6090F8241011F0020FAD
:1046F00006D001684A68C36A22F480321A434A60CD
:1047000090F8241011F0040F06D001684A68036B7A
:1047100022F480221A434A6090F8241011F0080F06
:1047200006D001684A68436B22F400421A434A608B
:1047300090F8241011F0100F06D001688A68836B7E
:1047400022F480521A438A6090F8241011F0200F4E
:1047500006D001688A68C36B22F400521A438A604B
:1047600090F8241011F0400F11D001684A68036CD2
:1047700022F480121A434A60016CB1F5801F06D101
:1047800001684A68436C22F4C0021A434A6090F8F8
:10479000241011F0800F08BF704701684A68806CD0
:1047A00022F40022104348607047F8B50025044603
:1047B000C566FEF7B9F90746206800686FF07E46C7
:1047C00010F0080F08D03B4600224FF4001120469D
:1047D000009600F055F968B92068006810F0040FE1
:1047E0000AD03B4600224FF480012046009600F09C
:1047F00047F908B10320F8BD202084F8690084F847
:104800006A0084F868500020F8BD10B5406A90F83E
:1048100069100022202321290FD10168896811F035
:10482000800F0AD0A0F852200168D1F800C02CF007
:10483000C00CC1F800C080F8693090F86A102229D5
:1048400012D10168D1F808C01CF0400F0CD0A0F8BC
:104850005A200A6822F490720A6001688A6822F07D
:1048600001028A6080F86A30C16E41F01001C166B1
:10487000FFF7E1F810BD10B50146406A0968096804
:1048800011F0200F14D10021A0F85A1001680A6815
:1048900022F480720A6001688A6822F001028A604C
:1048A00001688A6822F040028A60202180F86A103C
:1048B000FFF79AF910BD10B5406AFFF796F910BDE1
:1048C00070B5044610202369A268D4F81CC01A43AE
:1048D0006369002143EA0C031A4323680D46D3F8A9
:1048E00000C0634E0CEA060C4CEA02021A60226811
:1048F0005368D4F80CC023F4405343EA0C035360CC
:10490000236AA26913432268D2F808C02CF4306CE1
:104910004CEA030393602268A2F18043B3F59C3311
:104920000AD0A2F18043B3F588431CBFA2F18043B3
:10493000B3F5904311D011E04E4B1B6B13F0030302
:104940000BD0012B08BF042008D0022B08BF082081
:1049500004D0032B08BF022000E00020E369B3F578
:10496000004F08D009287FD2DFE800F046525E7E73
:10497000677E7E7E7400092835D2DFE800F0050FDF
:104980001934213434342B00FEF76AFB410060688F
:1049900001EB5001B1FBF0F081B225E0FEF778FBAE
:1049A0004100606801EB5001B1FBF0F081B21BE007
:1049B0003149606801EB5001B1FBF0F081B213E0C6
:1049C000FEF77EFB4100606801EB5001B1FBF0F0A7
:1049D00081B209E060684FF4803101EB5001B1FB16
:1049E000F0F081B200E0012521F00F00C1F3420197
:1049F00008432168C86038E0FEF732FB0146606872
:104A000001EB5001B1FBF0F0216880B2C8602CE0EE
:104A1000FEF73EFB0146606801EB5001B1FBF0F090
:104A2000216880B2C86020E01449606801EB500141
:104A3000B1FBF0F080B2D06017E0FEF741FB014619
:104A4000606801EB5001B1FBF0F0216880B2C860F2
:104A50000BE009E060684FF4004101EB5001B1FB4D
:104A6000F0F080B2D06000E00125284670BD000063
:104A7000F369FFEF001002400024F40000127A00F6
:104A80002DE9F04104460068069F9846C069154626
:104A90000E4631EA00000CBF01200020A84227D1B9
:104AA000B7F1FF3F1BD02FB1FEF73EF8A0EB080097
:104AB000B84214D92068016821F4D07101602068DF
:104AC000816821F001018160202084F8690084F868
:104AD0006A00002084F868000320BDE8F0812068A7
:104AE000C06936EA00000CBF01200020A842D7D0E0
:104AF0000020BDE8F081000010B400291CBF084A66
:104B0000084C09D010F801CB136813F0800FFBD0CC
:104B1000A4F800C0491EF5D110BC00207047000069
:104B20001C4400402844004003490A6812F0800FEA
:104B3000FBD00249088070471C44004028440040D4
:104B4000054810B50088C0B201F020F8BDE810405B
:104B50002620FEF733B800002444004003B4019837
:104B60004100009850EAC12018BF04204A0D18BF28
:104B700040F0010040F2FF72B2EB515F08BF40F01D
:104B80000200012808BF052002B0704700000000A5
:104B90002DE9F04D2DED040B2DED0E8B96B0DDE9DA
:104BA0002550279CDDF890A025F0004624F0004811
:104BB000BAF1000F14BF0121002101EB4502FC49AD
:104BC00053184A1093422AD3002814BF012300230C
:104BD00003EB44030B44F7498B4220D358EA00010E
:104BE0009FEDF59B76D0DFF8D8B35D4503D1BAF1E0
:104BF000000F05D188E0BAF1000F08BF002100D0F6
:104C0000012101EB450111F5001F08D8002814BF50
:104C10000121002101EB440111F5001F0BD99DED8D
:104C2000261B9DED240B16B0BDEC0E8B04B0BDE829
:104C3000F04D00F069BE0027002DBCBFE14988455A
:104C400021DAE1498845A8BF02271CDAC3451ADCEE
:104C5000DE4901EB2851142908DDC1F1340220FAA4
:104C600002F101FA02F282420DD108E058B9C1F115
:104C7000140228FA02F101FA02F2424503D101F0CE
:104C80000101C1F1020756EA0A0124D1002C22DAFF
:104C9000002D18BF022F01D0012F0AD0022000F0F2
:104CA0007FFE16B0BDEC0E8B04B0BDE8F04D00F0F9
:104CB00013BE022000F074FE00F00EFE51EC100B4B
:104CC00081F0004141EC100B16B0BDEC0E8B04B02E
:104CD000BDE8F08D18E09FEDBEAB9FEDBF8B0028C7
:104CE00071D1B848804522D105F1804010F580107F
:104CF00008BFBAF1000F07D0B3450ADC002CA8BFEB
:104D00009DED260BE0DA0DE0B0EE490AF0EE690AFF
:104D1000DAE7002C06DA9DED260B51EC100B81F042
:104D200000416FE0AE48784490ED000BCCE7D845E9
:104D30004DD1002C48DA2EB186423AD1BAF1000F9B
:104D400042D126E0BAF1000F13D0022000F028FE75
:104D500000F0F6FD8DED020B9DED240B8DED000BAB
:104D600010EE900A039961F31E0003909DED020B73
:104D7000AAE78DED02AB9DED240B1AEE901A10EE12
:104D8000900A8DED000B61F31E0003909DED020B68
:104D90009AE78DED028B9DED240B18EE901A10EE24
:104DA000900A8DED000B61F31E0003909DED020B48
:104DB0008AE709DA9DED240B51EC190B53EC102B0B
:104DC000FBF726FC1EE020E09DED240B7CE78642ED
:104DD0001BDAB4F1804F0DD0A4F10050B0F1FF50B8
:104DE00013D1002D11DB9DED240B51EC100B02F0C3
:104DF00049FC07E09DED240B53EC102B51EC100BFC
:104E000000F0C2BC41EC100B5EE79DED240B51ECB1
:104E1000100B00F0DDFEBAF1000FCDE90E0142D11A
:104E20009FED710B46B3A6F1E040B0F17F600CD06E
:104E30005E4538D1002D00DAA7B3022F0CBF012048
:104E40004FF0FF30FBF76AFCDCE7002D01DD002CA2
:104E50000DDA002D01DD002C1FDB002D16DA002CF1
:104E600014DB012F08BF9FED620B3FF42DAFB0EEB6
:104E70004A0AF0EE6A0A27E7022F18BF002D0CD06D
:104E8000012F0AD1002DFFF61FAF06E0002DB8BF9D
:104E9000002C08DA012F3FF417AFB0EE480AF0EE0D
:104EA000680A11E71BE0012000EBE57050EA0701FA
:104EB00015D0791EB0EE498AF0EE698A084308BF22
:104EC0009FED4D8B4E480025804570DD4D494E4885
:104ED000884514DDB0420DDB002C19DB2FE00120EA
:104EE00000F05EFD16B0BDEC0E8B04B0BDE8F04DD9
:104EF00000F016BDB34502DC002C09DC1FE0864241
:104F000002DA002C1BDA03E05E452BDD002C16DDF7
:104F1000022000F045FD00F013FD8DED020B53EC77
:104F20001A2B51EC180BFBF701FBCDE9000103999B
:104F3000019861F31E0003909DED020BC4E6022070
:104F400000F02EFD00F00CFD10EE901A18EE900A05
:104F50008DED020B8DED008B61F31E0003909DED36
:104F6000020BB1E69DED0E0B53EC192B51EC100B1F
:104F7000FBF7D6FA9FED260BCDE9080153EC102B79
:104F80009DED080B51EC100BFBF7D0FA9FED221BA7
:104F900053EC112BFBF7C7FA9DED081B53EC112BBB
:104FA000FBF7C4FA9FED1E1B53EC112B3CE08CE089
:104FB000FFFF1F00FFFF0F00000000000000F03F98
:104FC0000000F03F0000F07F0000404301FCFFFFC5
:104FD000000000000000F07F000000000000000062
:104FE0003E3C0000000000000000000000000080C7
:104FF000000000000000F0FF000000000000F0BF13
:105000000000E0410000F043FFFFEF3F0000000020
:10501000000000000000D03F555555555555D53F6F
:10502000000000000000E03FFBF77DFA9DED080B5B
:1050300041EC1A0B53EC102B51EC100BFBF776FAEA
:1050400053EC1A2BFBF772FA41EC1A0B9FEDFE0B97
:1050500053EC102B9DED080B51EC100BFBF766FA8F
:1050600041EC1B0B9FEDFA0B51EC1A0B53EC102B80
:10507000FBF75CFA41EC1A0B9FEDF70B53EC102B8E
:105080009DED080B51EC100BFBF750FA53EC1A2B6B
:10509000FBF746FA41EC1A0B51EC1B0B53EC1A2BA5
:1050A000FBF79DF90690CDE906519DED060B53ECFB
:1050B0001B2B51EC100BFBF733FA53EC1A2BFBF7BD
:1050C00032FA41EC100B00F0A1B90020B6F5801FB8
:1050D0000EDA9FEDE30B53EC102B9DED0E0B51EC14
:1050E000100BFBF723FACDE90E016FF034000E46EA
:1050F00000EB2650A0F2FF37C6F31300DA4940F068
:105100007F6646F040568842D8BF002408DDD74964
:105110008142C8BF012403DC0024A6F580167F1C51
:10512000D348784400EBC4000F9690ED00CB9DED82
:105130000E0B53EC1C2B51EC100BFBF7F1F99DED12
:105140000E0B41EC1B0B53EC1C2B51EC100BFBF723
:1051500046F941EC100B51EC190B53EC102BFBF7FB
:1051600057FA41EC1D0B51EC1B0B53EC1D2BFBF7BD
:10517000DDF941EC1A0BBF488DED10AB784410956A
:1051800090ED000B4FF0005040EA660000EB8440C9
:105190008DED080B00F5002009909DED080B53ECF8
:1051A0001C2B51EC100BFBF7BBF99DED0E1B53ECC8
:1051B000112BFBF7B8F941EC100B53EC102B9DEDC4
:1051C000100B51EC100BFBF7B1F99DED080B41EC06
:1051D0001C0B53EC102B9DED100B51EC100BFBF73F
:1051E000A5F953EC1B2BFBF79EF953EC1C2BFBF79B
:1051F00097F953EC1D2BFBF799F941EC1C0B53EC81
:105200001A2B51EC1A0BFBF791F941EC1B0B9A4846
:105210000621B0EE4B0AF0EE6B0A784400F0E0FA9B
:10522000B0EE401AF0EE601AB0EE41DAF0EE61DA5C
:1052300053EC1B2B51EC1B0BFBF778F953EC1D2B9C
:10524000FBF774F99DED100B41EC1B0B53EC1A2B83
:1052500051EC100BFBF7C3F853EC1C2BFBF766F972
:1052600053EC1B2BFBF7BBF89DED100B41EC1B0B1C
:1052700053EC102B51EC100BFBF758F941EC1D0BC4
:105280009FED7FEB53EC1E2BFBF7A9F853EC1B2B88
:10529000FBF7A5F80890CDE908519DED080B53ECFC
:1052A0001E2B51EC100BFBF73BF953EC1D2BFBF7BE
:1052B00037F953EC1B2BFBF736F99DED080B41EC4E
:1052C0001D0B53EC102B9DED100B51EC100BFBF74D
:1052D0002DF941EC1B0B53EC1A2B51EC1D0BFBF77A
:1052E00025F99DED080B41EC1A0B53EC102B51ECFA
:1052F0001C0BFBF71BF953EC1A2BFBF770F841EC76
:105300001A0B51EC1B0B53EC1A2BFBF768F80C90A3
:10531000CDE90C519DED0C0B53EC1B2B51EC100BFC
:10532000FBF7FEF853EC1A2BFBF7FDF841EC1B0BD7
:105330009FED550B53EC102B9DED0C0B51EC100B0E
:10534000FBF7F4F841EC1A0B9FED510B51EC1B0BE2
:1053500053EC102BFBF7EAF841EC1B0B9FED4E0BC7
:1053600053EC102B9DED0C0B51EC100BFBF7DEF802
:1053700053EC1B2BFBF733F841EC100B48487844F7
:1053800000EBC40090ED001B51EC100B53EC112B03
:10539000FBF725F841EC1B0B3846FBF7BFF9CDE9CD
:1053A000080153EC1B2B51EC1A0BFBF718F841ECDE
:1053B000100B3C48784400EBC40090ED00CB51EC5E
:1053C000100B53EC1C2BFBF70AF89DED081B53EC5C
:1053D000112BFBF704F80690CDE906519DED080B63
:1053E00053EC102B9DED060B51EC100BFBF798F8CE
:1053F00053EC1C2BFBF794F853EC1A2BFBF790F8AB
:1054000053EC1B2BFBF78FF841EC100B9DED261B8B
:1054100053EC102B8DED001B00959DED260B51ECF0
:10542000100BFBF783F89DED000B41EC1A0B53ECCE
:10543000102B9DED260B51EC100BFBF771F89DED39
:10544000061B53EC112B2FE0000000604715F73FBF
:10545000FE822B654715F73F44DF5DF80BAE543EE7
:1054600000000000000040438E9803007AB60B0055
:10547000BA370000E8370000F236000000000000F4
:105480000000000000000840000000E009C7EE3FF7
:10549000FD033ADC09C7EE3FF5015B14E02F3EBE89
:1054A0007E35000038350000FBF740F853EC1A2B2E
:1054B000FAF795FF9DED060B41EC1A0B53EC102B00
:1054C0009DED000B51EC100BFBF730F8CDE90C0112
:1054D0009DED0C0B51EC1A0B53EC102BFAF77FFFE0
:1054E000CDE902010C46AA498C422FDB611A084320
:1054F00018D19DED0C0B53EC102B9DED020B51ECD4
:10550000100BFBF70DF841EC1B0B9FEDA30B51ECBF
:105510001A0B53EC102BFAF762FF53EC1B2BFBF723
:105520000FF92DD2022000F03BFA00F009FA10EE3C
:10553000901A18EE900A8DED020B8DED008B61F341
:105540001E0003909DED020BFFF7BEBB944A24F0B2
:105550000041914214D39349214408437FF4EFACB6
:105560009DED0C0B53EC102B9DED020B51EC100B31
:10557000FAF7D6FF53EC1A2BFBF7E2F87FF6DFAC15
:1055800024F000408849894A002601EB20518242DC
:105590002BDA481C4FF4801121FA00F02044844A91
:1055A000C0F30A517A44A1F2FF3192ED000B814A17
:1055B0008DED080BCA4020EA0202C0F3130040F44C
:1055C0008010C1F1140120FA01F60992002CB8BF35
:1055D00076429DED080B53EC102B9DED0C0B51EC1E
:1055E000100BFAF79DFFCDE90C019DED0C0B51EC72
:1055F0001A0B53EC102BFAF7F2FE9FED6F0B08908D
:10560000CDE9085153EC102B9DED080B51EC100B1C
:10561000FAF78CFF41EC1B0B9FED690B53EC102B41
:105620009DED080B51EC100BFAF780FF9DED0C0B74
:1056300041EC1C0B53EC102B9DED080B51EC100BA7
:10564000FAF76EFF53EC1A2BFAF76DFF9FED5E1B16
:1056500053EC112BFAF76AFF53EC1C2BFAF7BFFE41
:1056600041EC1A0B51EC1B0B53EC1A2BFAF7B7FE5B
:10567000CDE902019DED020B53EC1B2B51EC100BFD
:10568000FAF74EFF53EC1A2BFAF74DFF9DED020B84
:1056900041EC1A0B53EC102B51EC100BFAF746FFB0
:1056A000CDE908014A489DED080B0521784400F03A
:1056B00097F89DED081B51EC100B53EC112BFAF7EA
:1056C00035FF9DED021B53EC112BFAF72CFFCDE9B2
:1056D00006019DED020B53EC1A2B51EC100BFAF75F
:1056E00025FF53EC1A2BFAF77AFE9FED3B0B41ECAA
:1056F0001A0B53EC102B9DED060B51EC100BFAF727
:105700000FFF9DED060B41EC1B0B53EC102B9DED99
:10571000020B51EC100BFAF709FF53EC1B2BFAF7B5
:1057200077FF53EC1A2BFAF7FBFE9DED021B53ECAF
:10573000112BFAF7F5FE53EC192BFAF7F4FECDE92D
:10574000020101EB065001150029C8BF039015DCCA
:105750009DED020B324651EC100BFAF7C8FFFFF734
:10576000FDF9042808BF00F0FBF832469DED020B5E
:1057700051EC100BFAF7BBFFCDE902019DED020BD6
:1057800051EC180B53EC102BFAF7D0FEFFF73ABB95
:105790000000904000000000FE822B654715973CFA
:1057A00000CC904000346F3F01FCFFFF0000E03F61
:1057B000C0330000FFFF0F0000000000432EE63F53
:1057C000396CA80C615C20BEEF39FAFE422EE63F30
:1057D00090320000000000000000000000000040C7
:1057E00070B504462DED028B4D1E00EBC500B0EEEA
:1057F000408AF0EE608A90ED000B35F0060017D07D
:1058000053EC182B51EC100BFAF790FE41EC100BF7
:105810006D1E04EBC50090ED001B51EC100B53EC1A
:10582000112BFAF7DCFD41EC100B35F00600E7D147
:10583000022D36D0042D1CD0062D1CBFBDEC028BD2
:1058400070BD53EC182B51EC100BFAF76FFE94ED72
:105850000A1B53EC112BFAF7C2FD53EC182BFAF785
:1058600065FE94ED081B53EC112BFAF7B8FD41ECE3
:10587000100B53EC182B51EC100BFAF757FE94ED6C
:10588000061B53EC112BFAF7AAFD53EC182BFAF771
:105890004DFE94ED040B53EC102BFAF7A0FD41ECF8
:1058A000100B53EC182B51EC100BFAF73FFE94ED54
:1058B000021B53EC112BFAF792FD53EC182BFAF75D
:1058C00035FE94ED001B53EC112BFAF788FDBDEC6F
:1058D000028B41EC100B70BD9FED070B10B553EC24
:1058E000102B9FED070B51EC100BFAF791FE41ECDA
:1058F000100B10BD000000000000000000000000C0
:10590000000000000000F03F10B553EC112B51ECEB
:10591000100BFAF764FD41EC100B10BD0000000005
:105920009FED050B10B553EC102B51EC100BFAF753
:105930006FFE41EC100B10BD0000000000000000E5
:105940009FED050B10B553EC102B51EC100BFAF733
:10595000EDFD41EC100B10BD0000000000000070D8
:105960009FED050B10B553EC102B51EC100BFAF713
:10597000DDFD41EC100B10BD000000000000001028
:1059800002E008C8121F08C1002AFAD17047704708
:10599000002001E001C1121F002AFBD17047000066
:1059A0000149086070470000180100200E4A10B538
:1059B0001154FEF7C9FD0D48FCF72EFC0C48FCF70E
:1059C0002BFC0A48FCF7CCF80948FCF7C9F8094851
:1059D000FCF7F0FD0848FCF7EDFDFEF747F9BDE8E0
:1059E0001040FEF77BB90000040000208C0200206C
:1059F000E0020020340300207803002010B50446A4
:105A0000FEF7A2FD1048FCF707FC1048FCF704FC69
:105A10000F48082C08BF102103D00C2C0CBF00210C
:105A200010BD81600848FCF79BF80848FCF798F81F
:105A30000848FCF7BFFD0848FCF7BCFDFEF716F967
:105A4000BDE81040FEF74AB98C020020E0020020B9
:105A50000400002034030020780300200E498A7AD5
:105A6000002A04BF012070470B89D1F800C01CF840
:105A700003C080F800C0581CC0B20881022A08BFC9
:105A8000012005D0012A02BFCA888242002000D12D
:105A900088724FF000007047A42200202DE9F00723
:105AA0000023002923D9164A4FF001089946D788C8
:105AB00015688446947A401CECB11689022C15F8BE
:105AC00006A08CF800A006F1010C0CF0FF0CA2F867
:105AD00008C008BF82F80A8004D0012C04BF6745C3
